{
	"src/RiscZeroVerifierRouter.sol": {
		"RiscZeroVerifierRouter": {
			"abi": [
				{
					"inputs": [
						{
							"internalType": "address",
							"name": "admin",
							"type": "address"
						}
					],
					"stateMutability": "nonpayable",
					"type": "constructor"
				},
				{
					"inputs": [
						{
							"internalType": "address",
							"name": "owner",
							"type": "address"
						}
					],
					"name": "OwnableInvalidOwner",
					"type": "error"
				},
				{
					"inputs": [
						{
							"internalType": "address",
							"name": "account",
							"type": "address"
						}
					],
					"name": "OwnableUnauthorizedAccount",
					"type": "error"
				},
				{
					"inputs": [
						{
							"internalType": "bytes4",
							"name": "selector",
							"type": "bytes4"
						}
					],
					"name": "SelectorInUse",
					"type": "error"
				},
				{
					"inputs": [
						{
							"internalType": "bytes4",
							"name": "selector",
							"type": "bytes4"
						}
					],
					"name": "SelectorRemoved",
					"type": "error"
				},
				{
					"inputs": [
						{
							"internalType": "bytes4",
							"name": "selector",
							"type": "bytes4"
						}
					],
					"name": "SelectorUnknown",
					"type": "error"
				},
				{
					"anonymous": false,
					"inputs": [
						{
							"indexed": true,
							"internalType": "address",
							"name": "previousOwner",
							"type": "address"
						},
						{
							"indexed": true,
							"internalType": "address",
							"name": "newOwner",
							"type": "address"
						}
					],
					"name": "OwnershipTransferStarted",
					"type": "event"
				},
				{
					"anonymous": false,
					"inputs": [
						{
							"indexed": true,
							"internalType": "address",
							"name": "previousOwner",
							"type": "address"
						},
						{
							"indexed": true,
							"internalType": "address",
							"name": "newOwner",
							"type": "address"
						}
					],
					"name": "OwnershipTransferred",
					"type": "event"
				},
				{
					"inputs": [],
					"name": "acceptOwnership",
					"outputs": [],
					"stateMutability": "nonpayable",
					"type": "function"
				},
				{
					"inputs": [
						{
							"internalType": "bytes4",
							"name": "selector",
							"type": "bytes4"
						},
						{
							"internalType": "contract IRiscZeroVerifier",
							"name": "verifier",
							"type": "address"
						}
					],
					"name": "addVerifier",
					"outputs": [],
					"stateMutability": "nonpayable",
					"type": "function"
				},
				{
					"inputs": [
						{
							"internalType": "bytes4",
							"name": "selector",
							"type": "bytes4"
						}
					],
					"name": "getVerifier",
					"outputs": [
						{
							"internalType": "contract IRiscZeroVerifier",
							"name": "",
							"type": "address"
						}
					],
					"stateMutability": "view",
					"type": "function"
				},
				{
					"inputs": [
						{
							"internalType": "bytes",
							"name": "seal",
							"type": "bytes"
						}
					],
					"name": "getVerifier",
					"outputs": [
						{
							"internalType": "contract IRiscZeroVerifier",
							"name": "",
							"type": "address"
						}
					],
					"stateMutability": "view",
					"type": "function"
				},
				{
					"inputs": [],
					"name": "owner",
					"outputs": [
						{
							"internalType": "address",
							"name": "",
							"type": "address"
						}
					],
					"stateMutability": "view",
					"type": "function"
				},
				{
					"inputs": [],
					"name": "pendingOwner",
					"outputs": [
						{
							"internalType": "address",
							"name": "",
							"type": "address"
						}
					],
					"stateMutability": "view",
					"type": "function"
				},
				{
					"inputs": [
						{
							"internalType": "bytes4",
							"name": "selector",
							"type": "bytes4"
						}
					],
					"name": "removeVerifier",
					"outputs": [],
					"stateMutability": "nonpayable",
					"type": "function"
				},
				{
					"inputs": [],
					"name": "renounceOwnership",
					"outputs": [],
					"stateMutability": "nonpayable",
					"type": "function"
				},
				{
					"inputs": [
						{
							"internalType": "address",
							"name": "newOwner",
							"type": "address"
						}
					],
					"name": "transferOwnership",
					"outputs": [],
					"stateMutability": "nonpayable",
					"type": "function"
				},
				{
					"inputs": [
						{
							"internalType": "bytes4",
							"name": "",
							"type": "bytes4"
						}
					],
					"name": "verifiers",
					"outputs": [
						{
							"internalType": "contract IRiscZeroVerifier",
							"name": "",
							"type": "address"
						}
					],
					"stateMutability": "view",
					"type": "function"
				},
				{
					"inputs": [
						{
							"internalType": "bytes",
							"name": "seal",
							"type": "bytes"
						},
						{
							"internalType": "bytes32",
							"name": "imageId",
							"type": "bytes32"
						},
						{
							"internalType": "bytes32",
							"name": "journalDigest",
							"type": "bytes32"
						}
					],
					"name": "verify",
					"outputs": [],
					"stateMutability": "view",
					"type": "function"
				},
				{
					"inputs": [
						{
							"components": [
								{
									"internalType": "bytes",
									"name": "seal",
									"type": "bytes"
								},
								{
									"internalType": "bytes32",
									"name": "claimDigest",
									"type": "bytes32"
								}
							],
							"internalType": "struct Receipt",
							"name": "receipt",
							"type": "tuple"
						}
					],
					"name": "verifyIntegrity",
					"outputs": [],
					"stateMutability": "view",
					"type": "function"
				},
				{
					"inputs": [
						{
							"internalType": "bytes",
							"name": "seal",
							"type": "bytes"
						},
						{
							"internalType": "bytes32",
							"name": "imageId",
							"type": "bytes32"
						},
						{
							"internalType": "bytes",
							"name": "journal",
							"type": "bytes"
						}
					],
					"name": "verifyWithJournal",
					"outputs": [],
					"stateMutability": "view",
					"type": "function"
				}
			],
			"devdoc": {
				"errors": {
					"OwnableInvalidOwner(address)": [
						{
							"details": "The owner is not a valid owner account. (eg. `address(0)`)"
						}
					],
					"OwnableUnauthorizedAccount(address)": [
						{
							"details": "The caller account is not authorized to perform an operation."
						}
					]
				},
				"kind": "dev",
				"methods": {
					"acceptOwnership()": {
						"details": "The new owner accepts the ownership transfer."
					},
					"owner()": {
						"details": "Returns the address of the current owner."
					},
					"pendingOwner()": {
						"details": "Returns the address of the pending owner."
					},
					"renounceOwnership()": {
						"details": "Leaves the contract without owner. It will not be possible to call `onlyOwner` functions. Can only be called by the current owner. NOTE: Renouncing ownership will leave the contract without an owner, thereby disabling any functionality that is only available to the owner."
					},
					"transferOwnership(address)": {
						"details": "Starts the ownership transfer of the contract to a new account. Replaces the pending transfer if there is one. Can only be called by the current owner. Setting `newOwner` to the zero address is allowed; this can be used to cancel an initiated ownership transfer."
					},
					"verify(bytes,bytes32,bytes32)": {
						"details": "This method additionally ensures that the input hash is all-zeros (i.e. no committed input), the exit code is (Halted, 0), and there are no assumptions (i.e. the receipt is unconditional).",
						"params": {
							"imageId": "The identifier for the guest program.",
							"journalDigest": "The SHA-256 digest of the journal bytes.",
							"seal": "The encoded cryptographic proof (i.e. SNARK)."
						}
					},
					"verifyIntegrity((bytes,bytes32))": {
						"params": {
							"receipt": "The receipt to be verified."
						}
					}
				},
				"version": 1
			},
			"evm": {
				"assembly": "    /* \"src/RiscZeroVerifierRouter.sol\":1005:5469  contract RiscZeroVerifierRouter is IRiscZeroVerifier, Ownable2Step {... */\n  mstore(0x40, 0x80)\n    /* \"src/RiscZeroVerifierRouter.sol\":2457:2501  constructor(address admin) Ownable(admin) {} */\n  callvalue\n  dup1\n  iszero\n  tag_1\n  jumpi\n  0x00\n  dup1\n  revert\ntag_1:\n  pop\n  mload(0x40)\n  sub(codesize, bytecodeSize)\n  dup1\n  bytecodeSize\n  dup4\n  codecopy\n  dup2\n  dup2\n  add\n  0x40\n  mstore\n  dup2\n  add\n  swap1\n  tag_2\n  swap2\n  swap1\n  tag_3\n  jump\t// in\ntag_2:\n    /* \"src/RiscZeroVerifierRouter.sol\":2492:2497  admin */\n  dup1\n    /* \"@openzeppelin/contracts/access/Ownable.sol\":1297:1298  0 */\n  0x00\n    /* \"@openzeppelin/contracts/access/Ownable.sol\":1273:1299  initialOwner == address(0) */\n  0xffffffffffffffffffffffffffffffffffffffff\n  and\n    /* \"@openzeppelin/contracts/access/Ownable.sol\":1273:1285  initialOwner */\n  dup2\n    /* \"@openzeppelin/contracts/access/Ownable.sol\":1273:1299  initialOwner == address(0) */\n  0xffffffffffffffffffffffffffffffffffffffff\n  and\n  sub\n    /* \"@openzeppelin/contracts/access/Ownable.sol\":1269:1364  if (initialOwner == address(0)) {... */\n  tag_7\n  jumpi\n    /* \"@openzeppelin/contracts/access/Ownable.sol\":1350:1351  0 */\n  0x00\n    /* \"@openzeppelin/contracts/access/Ownable.sol\":1322:1353  OwnableInvalidOwner(address(0)) */\n  mload(0x40)\n  0x1e4fbdf700000000000000000000000000000000000000000000000000000000\n  dup2\n  mstore\n  0x04\n  add\n  tag_8\n  swap2\n  swap1\n  tag_9\n  jump\t// in\ntag_8:\n  mload(0x40)\n  dup1\n  swap2\n  sub\n  swap1\n  revert\n    /* \"@openzeppelin/contracts/access/Ownable.sol\":1269:1364  if (initialOwner == address(0)) {... */\ntag_7:\n    /* \"@openzeppelin/contracts/access/Ownable.sol\":1373:1405  _transferOwnership(initialOwner) */\n  tag_10\n    /* \"@openzeppelin/contracts/access/Ownable.sol\":1392:1404  initialOwner */\n  dup2\n    /* \"@openzeppelin/contracts/access/Ownable.sol\":1373:1391  _transferOwnership */\n  shl(0x20, tag_11)\n    /* \"@openzeppelin/contracts/access/Ownable.sol\":1373:1405  _transferOwnership(initialOwner) */\n  0x20\n  shr\n  jump\t// in\ntag_10:\n    /* \"@openzeppelin/contracts/access/Ownable.sol\":1225:1412  constructor(address initialOwner) {... */\n  pop\n    /* \"src/RiscZeroVerifierRouter.sol\":2457:2501  constructor(address admin) Ownable(admin) {} */\n  pop\n    /* \"src/RiscZeroVerifierRouter.sol\":1005:5469  contract RiscZeroVerifierRouter is IRiscZeroVerifier, Ownable2Step {... */\n  jump(tag_13)\n    /* \"@openzeppelin/contracts/access/Ownable2Step.sol\":2011:2164  function _transferOwnership(address newOwner) internal virtual override {... */\ntag_11:\n    /* \"@openzeppelin/contracts/access/Ownable2Step.sol\":2100:2113  _pendingOwner */\n  0x01\n  0x00\n    /* \"@openzeppelin/contracts/access/Ownable2Step.sol\":2093:2113  delete _pendingOwner */\n  0x0100\n  exp\n  dup2\n  sload\n  swap1\n  0xffffffffffffffffffffffffffffffffffffffff\n  mul\n  not\n  and\n  swap1\n  sstore\n    /* \"@openzeppelin/contracts/access/Ownable2Step.sol\":2123:2157  super._transferOwnership(newOwner) */\n  tag_15\n    /* \"@openzeppelin/contracts/access/Ownable2Step.sol\":2148:2156  newOwner */\n  dup2\n    /* \"@openzeppelin/contracts/access/Ownable2Step.sol\":2123:2147  super._transferOwnership */\n  shl(0x20, tag_16)\n    /* \"@openzeppelin/contracts/access/Ownable2Step.sol\":2123:2157  super._transferOwnership(newOwner) */\n  0x20\n  shr\n  jump\t// in\ntag_15:\n    /* \"@openzeppelin/contracts/access/Ownable2Step.sol\":2011:2164  function _transferOwnership(address newOwner) internal virtual override {... */\n  pop\n  jump\t// out\n    /* \"@openzeppelin/contracts/access/Ownable.sol\":2912:3099  function _transferOwnership(address newOwner) internal virtual {... */\ntag_16:\n    /* \"@openzeppelin/contracts/access/Ownable.sol\":2985:3001  address oldOwner */\n  0x00\n    /* \"@openzeppelin/contracts/access/Ownable.sol\":3004:3010  _owner */\n  dup1\n  0x00\n  swap1\n  sload\n  swap1\n  0x0100\n  exp\n  swap1\n  div\n  0xffffffffffffffffffffffffffffffffffffffff\n  and\n    /* \"@openzeppelin/contracts/access/Ownable.sol\":2985:3010  address oldOwner = _owner */\n  swap1\n  pop\n    /* \"@openzeppelin/contracts/access/Ownable.sol\":3029:3037  newOwner */\n  dup2\n    /* \"@openzeppelin/contracts/access/Ownable.sol\":3020:3026  _owner */\n  0x00\n  dup1\n    /* \"@openzeppelin/contracts/access/Ownable.sol\":3020:3037  _owner = newOwner */\n  0x0100\n  exp\n  dup2\n  sload\n  dup2\n  0xffffffffffffffffffffffffffffffffffffffff\n  mul\n  not\n  and\n  swap1\n  dup4\n  0xffffffffffffffffffffffffffffffffffffffff\n  and\n  mul\n  or\n  swap1\n  sstore\n  pop\n    /* \"@openzeppelin/contracts/access/Ownable.sol\":3083:3091  newOwner */\n  dup2\n    /* \"@openzeppelin/contracts/access/Ownable.sol\":3052:3092  OwnershipTransferred(oldOwner, newOwner) */\n  0xffffffffffffffffffffffffffffffffffffffff\n  and\n    /* \"@openzeppelin/contracts/access/Ownable.sol\":3073:3081  oldOwner */\n  dup2\n    /* \"@openzeppelin/contracts/access/Ownable.sol\":3052:3092  OwnershipTransferred(oldOwner, newOwner) */\n  0xffffffffffffffffffffffffffffffffffffffff\n  and\n  0x8be0079c531659141344cd1fd0a4f28419497f9722a3daafe3b4186f6b6457e0\n  mload(0x40)\n  mload(0x40)\n  dup1\n  swap2\n  sub\n  swap1\n  log3\n    /* \"@openzeppelin/contracts/access/Ownable.sol\":2975:3099  {... */\n  pop\n    /* \"@openzeppelin/contracts/access/Ownable.sol\":2912:3099  function _transferOwnership(address newOwner) internal virtual {... */\n  pop\n  jump\t// out\n    /* \"#utility.yul\":88:205   */\ntag_19:\n    /* \"#utility.yul\":197:198   */\n  0x00\n    /* \"#utility.yul\":194:195   */\n  dup1\n    /* \"#utility.yul\":187:199   */\n  revert\n    /* \"#utility.yul\":334:460   */\ntag_21:\n    /* \"#utility.yul\":371:378   */\n  0x00\n    /* \"#utility.yul\":411:453   */\n  0xffffffffffffffffffffffffffffffffffffffff\n    /* \"#utility.yul\":404:409   */\n  dup3\n    /* \"#utility.yul\":400:454   */\n  and\n    /* \"#utility.yul\":389:454   */\n  swap1\n  pop\n    /* \"#utility.yul\":334:460   */\n  swap2\n  swap1\n  pop\n  jump\t// out\n    /* \"#utility.yul\":466:562   */\ntag_22:\n    /* \"#utility.yul\":503:510   */\n  0x00\n    /* \"#utility.yul\":532:556   */\n  tag_32\n    /* \"#utility.yul\":550:555   */\n  dup3\n    /* \"#utility.yul\":532:556   */\n  tag_21\n  jump\t// in\ntag_32:\n    /* \"#utility.yul\":521:556   */\n  swap1\n  pop\n    /* \"#utility.yul\":466:562   */\n  swap2\n  swap1\n  pop\n  jump\t// out\n    /* \"#utility.yul\":568:690   */\ntag_23:\n    /* \"#utility.yul\":641:665   */\n  tag_34\n    /* \"#utility.yul\":659:664   */\n  dup2\n    /* \"#utility.yul\":641:665   */\n  tag_22\n  jump\t// in\ntag_34:\n    /* \"#utility.yul\":634:639   */\n  dup2\n    /* \"#utility.yul\":631:666   */\n  eq\n    /* \"#utility.yul\":621:684   */\n  tag_35\n  jumpi\n    /* \"#utility.yul\":680:681   */\n  0x00\n    /* \"#utility.yul\":677:678   */\n  dup1\n    /* \"#utility.yul\":670:682   */\n  revert\n    /* \"#utility.yul\":621:684   */\ntag_35:\n    /* \"#utility.yul\":568:690   */\n  pop\n  jump\t// out\n    /* \"#utility.yul\":696:839   */\ntag_24:\n    /* \"#utility.yul\":753:758   */\n  0x00\n    /* \"#utility.yul\":784:790   */\n  dup2\n    /* \"#utility.yul\":778:791   */\n  mload\n    /* \"#utility.yul\":769:791   */\n  swap1\n  pop\n    /* \"#utility.yul\":800:833   */\n  tag_37\n    /* \"#utility.yul\":827:832   */\n  dup2\n    /* \"#utility.yul\":800:833   */\n  tag_23\n  jump\t// in\ntag_37:\n    /* \"#utility.yul\":696:839   */\n  swap3\n  swap2\n  pop\n  pop\n  jump\t// out\n    /* \"#utility.yul\":845:1196   */\ntag_3:\n    /* \"#utility.yul\":915:921   */\n  0x00\n    /* \"#utility.yul\":964:966   */\n  0x20\n    /* \"#utility.yul\":952:961   */\n  dup3\n    /* \"#utility.yul\":943:950   */\n  dup5\n    /* \"#utility.yul\":939:962   */\n  sub\n    /* \"#utility.yul\":935:967   */\n  slt\n    /* \"#utility.yul\":932:1051   */\n  iszero\n  tag_39\n  jumpi\n    /* \"#utility.yul\":970:1049   */\n  tag_40\n  tag_19\n  jump\t// in\ntag_40:\n    /* \"#utility.yul\":932:1051   */\ntag_39:\n    /* \"#utility.yul\":1090:1091   */\n  0x00\n    /* \"#utility.yul\":1115:1179   */\n  tag_41\n    /* \"#utility.yul\":1171:1178   */\n  dup5\n    /* \"#utility.yul\":1162:1168   */\n  dup3\n    /* \"#utility.yul\":1151:1160   */\n  dup6\n    /* \"#utility.yul\":1147:1169   */\n  add\n    /* \"#utility.yul\":1115:1179   */\n  tag_24\n  jump\t// in\ntag_41:\n    /* \"#utility.yul\":1105:1179   */\n  swap2\n  pop\n    /* \"#utility.yul\":1061:1189   */\n  pop\n    /* \"#utility.yul\":845:1196   */\n  swap3\n  swap2\n  pop\n  pop\n  jump\t// out\n    /* \"#utility.yul\":1202:1320   */\ntag_25:\n    /* \"#utility.yul\":1289:1313   */\n  tag_43\n    /* \"#utility.yul\":1307:1312   */\n  dup2\n    /* \"#utility.yul\":1289:1313   */\n  tag_22\n  jump\t// in\ntag_43:\n    /* \"#utility.yul\":1284:1287   */\n  dup3\n    /* \"#utility.yul\":1277:1314   */\n  mstore\n    /* \"#utility.yul\":1202:1320   */\n  pop\n  pop\n  jump\t// out\n    /* \"#utility.yul\":1326:1548   */\ntag_9:\n    /* \"#utility.yul\":1419:1423   */\n  0x00\n    /* \"#utility.yul\":1457:1459   */\n  0x20\n    /* \"#utility.yul\":1446:1455   */\n  dup3\n    /* \"#utility.yul\":1442:1460   */\n  add\n    /* \"#utility.yul\":1434:1460   */\n  swap1\n  pop\n    /* \"#utility.yul\":1470:1541   */\n  tag_45\n    /* \"#utility.yul\":1538:1539   */\n  0x00\n    /* \"#utility.yul\":1527:1536   */\n  dup4\n    /* \"#utility.yul\":1523:1540   */\n  add\n    /* \"#utility.yul\":1514:1520   */\n  dup5\n    /* \"#utility.yul\":1470:1541   */\n  tag_25\n  jump\t// in\ntag_45:\n    /* \"#utility.yul\":1326:1548   */\n  swap3\n  swap2\n  pop\n  pop\n  jump\t// out\n    /* \"src/RiscZeroVerifierRouter.sol\":1005:5469  contract RiscZeroVerifierRouter is IRiscZeroVerifier, Ownable2Step {... */\ntag_13:\n  dataSize(sub_0)\n  dup1\n  dataOffset(sub_0)\n  0x00\n  codecopy\n  0x00\n  return\nstop\n\nsub_0: assembly {\n        /* \"src/RiscZeroVerifierRouter.sol\":1005:5469  contract RiscZeroVerifierRouter is IRiscZeroVerifier, Ownable2Step {... */\n      mstore(0x40, 0x80)\n      callvalue\n      dup1\n      iszero\n      tag_1\n      jumpi\n      0x00\n      dup1\n      revert\n    tag_1:\n      pop\n      jumpi(tag_2, lt(calldatasize, 0x04))\n      shr(0xe0, calldataload(0x00))\n      dup1\n      0x93d237f6\n      gt\n      tag_16\n      jumpi\n      dup1\n      0xd0a6af30\n      gt\n      tag_17\n      jumpi\n      dup1\n      0xd0a6af30\n      eq\n      tag_12\n      jumpi\n      dup1\n      0xe30c3978\n      eq\n      tag_13\n      jumpi\n      dup1\n      0xf2fde38b\n      eq\n      tag_14\n      jumpi\n      dup1\n      0xfa9381d3\n      eq\n      tag_15\n      jumpi\n      jump(tag_2)\n    tag_17:\n      dup1\n      0x93d237f6\n      eq\n      tag_9\n      jumpi\n      dup1\n      0xab750e75\n      eq\n      tag_10\n      jumpi\n      dup1\n      0xc17e7ba8\n      eq\n      tag_11\n      jumpi\n      jump(tag_2)\n    tag_16:\n      dup1\n      0x092c15bc\n      eq\n      tag_3\n      jumpi\n      dup1\n      0x1599ead5\n      eq\n      tag_4\n      jumpi\n      dup1\n      0x3cadf449\n      eq\n      tag_5\n      jumpi\n      dup1\n      0x715018a6\n      eq\n      tag_6\n      jumpi\n      dup1\n      0x79ba5097\n      eq\n      tag_7\n      jumpi\n      dup1\n      0x8da5cb5b\n      eq\n      tag_8\n      jumpi\n    tag_2:\n      0x00\n      dup1\n      revert\n        /* \"src/RiscZeroVerifierRouter.sol\":5085:5291  function verifyWithJournal(... */\n    tag_3:\n      tag_18\n      0x04\n      dup1\n      calldatasize\n      sub\n      dup2\n      add\n      swap1\n      tag_19\n      swap2\n      swap1\n      tag_20\n      jump\t// in\n    tag_19:\n      tag_21\n      jump\t// in\n    tag_18:\n      stop\n        /* \"src/RiscZeroVerifierRouter.sol\":5335:5467  function verifyIntegrity(Receipt calldata receipt) external view {... */\n    tag_4:\n      tag_22\n      0x04\n      dup1\n      calldatasize\n      sub\n      dup2\n      add\n      swap1\n      tag_23\n      swap2\n      swap1\n      tag_24\n      jump\t// in\n    tag_23:\n      tag_25\n      jump\t// in\n    tag_22:\n      stop\n        /* \"src/RiscZeroVerifierRouter.sol\":3917:4305  function getVerifier(... */\n    tag_5:\n      tag_26\n      0x04\n      dup1\n      calldatasize\n      sub\n      dup2\n      add\n      swap1\n      tag_27\n      swap2\n      swap1\n      tag_28\n      jump\t// in\n    tag_27:\n      tag_29\n      jump\t// in\n    tag_26:\n      mload(0x40)\n      tag_30\n      swap2\n      swap1\n      tag_31\n      jump\t// in\n    tag_30:\n      mload(0x40)\n      dup1\n      swap2\n      sub\n      swap1\n      return\n        /* \"@openzeppelin/contracts/access/Ownable.sol\":2293:2394  function renounceOwnership() public virtual onlyOwner {... */\n    tag_6:\n      tag_32\n      tag_33\n      jump\t// in\n    tag_32:\n      stop\n        /* \"@openzeppelin/contracts/access/Ownable2Step.sol\":2244:2473  function acceptOwnership() public virtual {... */\n    tag_7:\n      tag_34\n      tag_35\n      jump\t// in\n    tag_34:\n      stop\n        /* \"@openzeppelin/contracts/access/Ownable.sol\":1638:1723  function owner() public view virtual returns (address) {... */\n    tag_8:\n      tag_36\n      tag_37\n      jump\t// in\n    tag_36:\n      mload(0x40)\n      tag_38\n      swap2\n      swap1\n      tag_39\n      jump\t// in\n    tag_38:\n      mload(0x40)\n      dup1\n      swap2\n      sub\n      swap1\n      return\n        /* \"src/RiscZeroVerifierRouter.sol\":3376:3816  function removeVerifier(bytes4 selector) external onlyOwner {... */\n    tag_9:\n      tag_40\n      0x04\n      dup1\n      calldatasize\n      sub\n      dup2\n      add\n      swap1\n      tag_41\n      swap2\n      swap1\n      tag_28\n      jump\t// in\n    tag_41:\n      tag_42\n      jump\t// in\n    tag_40:\n      stop\n        /* \"src/RiscZeroVerifierRouter.sol\":4688:4880  function verify(... */\n    tag_10:\n      tag_43\n      0x04\n      dup1\n      calldatasize\n      sub\n      dup2\n      add\n      swap1\n      tag_44\n      swap2\n      swap1\n      tag_45\n      jump\t// in\n    tag_44:\n      tag_46\n      jump\t// in\n    tag_43:\n      stop\n        /* \"src/RiscZeroVerifierRouter.sol\":4406:4644  function getVerifier(... */\n    tag_11:\n      tag_47\n      0x04\n      dup1\n      calldatasize\n      sub\n      dup2\n      add\n      swap1\n      tag_48\n      swap2\n      swap1\n      tag_49\n      jump\t// in\n    tag_48:\n      tag_50\n      jump\t// in\n    tag_47:\n      mload(0x40)\n      tag_51\n      swap2\n      swap1\n      tag_31\n      jump\t// in\n    tag_51:\n      mload(0x40)\n      dup1\n      swap2\n      sub\n      swap1\n      return\n        /* \"src/RiscZeroVerifierRouter.sol\":2607:2987  function addVerifier(... */\n    tag_12:\n      tag_52\n      0x04\n      dup1\n      calldatasize\n      sub\n      dup2\n      add\n      swap1\n      tag_53\n      swap2\n      swap1\n      tag_54\n      jump\t// in\n    tag_53:\n      tag_55\n      jump\t// in\n    tag_52:\n      stop\n        /* \"@openzeppelin/contracts/access/Ownable2Step.sol\":1232:1331  function pendingOwner() public view virtual returns (address) {... */\n    tag_13:\n      tag_56\n      tag_57\n      jump\t// in\n    tag_56:\n      mload(0x40)\n      tag_58\n      swap2\n      swap1\n      tag_39\n      jump\t// in\n    tag_58:\n      mload(0x40)\n      dup1\n      swap2\n      sub\n      swap1\n      return\n        /* \"@openzeppelin/contracts/access/Ownable2Step.sol\":1649:1827  function transferOwnership(address newOwner) public virtual override onlyOwner {... */\n    tag_14:\n      tag_59\n      0x04\n      dup1\n      calldatasize\n      sub\n      dup2\n      add\n      swap1\n      tag_60\n      swap2\n      swap1\n      tag_61\n      jump\t// in\n    tag_60:\n      tag_62\n      jump\t// in\n    tag_59:\n      stop\n        /* \"src/RiscZeroVerifierRouter.sol\":1243:1296  mapping(bytes4 => IRiscZeroVerifier) public verifiers */\n    tag_15:\n      tag_63\n      0x04\n      dup1\n      calldatasize\n      sub\n      dup2\n      add\n      swap1\n      tag_64\n      swap2\n      swap1\n      tag_28\n      jump\t// in\n    tag_64:\n      tag_65\n      jump\t// in\n    tag_63:\n      mload(0x40)\n      tag_66\n      swap2\n      swap1\n      tag_31\n      jump\t// in\n    tag_66:\n      mload(0x40)\n      dup1\n      swap2\n      sub\n      swap1\n      return\n        /* \"src/RiscZeroVerifierRouter.sol\":5085:5291  function verifyWithJournal(... */\n    tag_21:\n        /* \"src/RiscZeroVerifierRouter.sol\":5228:5245  getVerifier(seal) */\n      tag_68\n        /* \"src/RiscZeroVerifierRouter.sol\":5240:5244  seal */\n      dup6\n      dup6\n        /* \"src/RiscZeroVerifierRouter.sol\":5228:5239  getVerifier */\n      tag_50\n        /* \"src/RiscZeroVerifierRouter.sol\":5228:5245  getVerifier(seal) */\n      jump\t// in\n    tag_68:\n        /* \"src/RiscZeroVerifierRouter.sol\":5228:5252  getVerifier(seal).verify */\n      0xffffffffffffffffffffffffffffffffffffffff\n      and\n      0xab750e75\n        /* \"src/RiscZeroVerifierRouter.sol\":5253:5257  seal */\n      dup7\n      dup7\n        /* \"src/RiscZeroVerifierRouter.sol\":5259:5266  imageId */\n      dup7\n        /* \"src/RiscZeroVerifierRouter.sol\":5268:5283  sha256(journal) */\n      0x02\n        /* \"src/RiscZeroVerifierRouter.sol\":5275:5282  journal */\n      dup8\n      dup8\n        /* \"src/RiscZeroVerifierRouter.sol\":5268:5283  sha256(journal) */\n      mload(0x40)\n      tag_69\n      swap3\n      swap2\n      swap1\n      tag_70\n      jump\t// in\n    tag_69:\n      0x20\n      mload(0x40)\n      dup1\n      dup4\n      sub\n      dup2\n      dup6\n      gas\n      staticcall\n      iszero\n      dup1\n      iszero\n      tag_72\n      jumpi\n      returndatasize\n      0x00\n      dup1\n      returndatacopy\n      revert(0x00, returndatasize)\n    tag_72:\n      pop\n      pop\n      pop\n      mload(0x40)\n      returndatasize\n      not(0x1f)\n      0x1f\n      dup3\n      add\n      and\n      dup3\n      add\n      dup1\n      0x40\n      mstore\n      pop\n      dup2\n      add\n      swap1\n      tag_73\n      swap2\n      swap1\n      tag_74\n      jump\t// in\n    tag_73:\n        /* \"src/RiscZeroVerifierRouter.sol\":5228:5284  getVerifier(seal).verify(seal, imageId, sha256(journal)) */\n      mload(0x40)\n      dup6\n      0xffffffff\n      and\n      0xe0\n      shl\n      dup2\n      mstore\n      0x04\n      add\n      tag_75\n      swap5\n      swap4\n      swap3\n      swap2\n      swap1\n      tag_76\n      jump\t// in\n    tag_75:\n      0x00\n      mload(0x40)\n      dup1\n      dup4\n      sub\n      dup2\n      dup7\n      dup1\n      extcodesize\n      iszero\n      dup1\n      iszero\n      tag_77\n      jumpi\n      0x00\n      dup1\n      revert\n    tag_77:\n      pop\n      gas\n      staticcall\n      iszero\n      dup1\n      iszero\n      tag_79\n      jumpi\n      returndatasize\n      0x00\n      dup1\n      returndatacopy\n      revert(0x00, returndatasize)\n    tag_79:\n      pop\n      pop\n      pop\n      pop\n        /* \"src/RiscZeroVerifierRouter.sol\":5085:5291  function verifyWithJournal(... */\n      pop\n      pop\n      pop\n      pop\n      pop\n      jump\t// out\n        /* \"src/RiscZeroVerifierRouter.sol\":5335:5467  function verifyIntegrity(Receipt calldata receipt) external view {... */\n    tag_25:\n        /* \"src/RiscZeroVerifierRouter.sol\":5410:5435  getVerifier(receipt.seal) */\n      tag_81\n        /* \"src/RiscZeroVerifierRouter.sol\":5422:5429  receipt */\n      dup2\n        /* \"src/RiscZeroVerifierRouter.sol\":5422:5434  receipt.seal */\n      dup1\n      0x00\n      add\n      swap1\n      tag_82\n      swap2\n      swap1\n      tag_83\n      jump\t// in\n    tag_82:\n        /* \"src/RiscZeroVerifierRouter.sol\":5410:5421  getVerifier */\n      tag_50\n        /* \"src/RiscZeroVerifierRouter.sol\":5410:5435  getVerifier(receipt.seal) */\n      jump\t// in\n    tag_81:\n        /* \"src/RiscZeroVerifierRouter.sol\":5410:5451  getVerifier(receipt.seal).verifyIntegrity */\n      0xffffffffffffffffffffffffffffffffffffffff\n      and\n      0x1599ead5\n        /* \"src/RiscZeroVerifierRouter.sol\":5452:5459  receipt */\n      dup3\n        /* \"src/RiscZeroVerifierRouter.sol\":5410:5460  getVerifier(receipt.seal).verifyIntegrity(receipt) */\n      mload(0x40)\n      dup3\n      0xffffffff\n      and\n      0xe0\n      shl\n      dup2\n      mstore\n      0x04\n      add\n      tag_84\n      swap2\n      swap1\n      tag_85\n      jump\t// in\n    tag_84:\n      0x00\n      mload(0x40)\n      dup1\n      dup4\n      sub\n      dup2\n      dup7\n      dup1\n      extcodesize\n      iszero\n      dup1\n      iszero\n      tag_86\n      jumpi\n      0x00\n      dup1\n      revert\n    tag_86:\n      pop\n      gas\n      staticcall\n      iszero\n      dup1\n      iszero\n      tag_88\n      jumpi\n      returndatasize\n      0x00\n      dup1\n      returndatacopy\n      revert(0x00, returndatasize)\n    tag_88:\n      pop\n      pop\n      pop\n      pop\n        /* \"src/RiscZeroVerifierRouter.sol\":5335:5467  function verifyIntegrity(Receipt calldata receipt) external view {... */\n      pop\n      jump\t// out\n        /* \"src/RiscZeroVerifierRouter.sol\":3917:4305  function getVerifier(... */\n    tag_29:\n        /* \"src/RiscZeroVerifierRouter.sol\":3990:4007  IRiscZeroVerifier */\n      0x00\n        /* \"src/RiscZeroVerifierRouter.sol\":4019:4045  IRiscZeroVerifier verifier */\n      dup1\n        /* \"src/RiscZeroVerifierRouter.sol\":4048:4057  verifiers */\n      0x02\n        /* \"src/RiscZeroVerifierRouter.sol\":4048:4067  verifiers[selector] */\n      0x00\n        /* \"src/RiscZeroVerifierRouter.sol\":4058:4066  selector */\n      dup5\n        /* \"src/RiscZeroVerifierRouter.sol\":4048:4067  verifiers[selector] */\n      not(0xffffffffffffffffffffffffffffffffffffffffffffffffffffffff)\n      and\n      not(0xffffffffffffffffffffffffffffffffffffffffffffffffffffffff)\n      and\n      dup2\n      mstore\n      0x20\n      add\n      swap1\n      dup2\n      mstore\n      0x20\n      add\n      0x00\n      keccak256\n      0x00\n      swap1\n      sload\n      swap1\n      0x0100\n      exp\n      swap1\n      div\n      0xffffffffffffffffffffffffffffffffffffffff\n      and\n        /* \"src/RiscZeroVerifierRouter.sol\":4019:4067  IRiscZeroVerifier verifier = verifiers[selector] */\n      swap1\n      pop\n        /* \"src/RiscZeroVerifierRouter.sol\":1432:1433  0 */\n      0x00\n        /* \"src/RiscZeroVerifierRouter.sol\":4081:4098  verifier == UNSET */\n      0xffffffffffffffffffffffffffffffffffffffff\n      and\n        /* \"src/RiscZeroVerifierRouter.sol\":4081:4089  verifier */\n      dup2\n        /* \"src/RiscZeroVerifierRouter.sol\":4081:4098  verifier == UNSET */\n      0xffffffffffffffffffffffffffffffffffffffff\n      and\n      sub\n        /* \"src/RiscZeroVerifierRouter.sol\":4077:4169  if (verifier == UNSET) {... */\n      tag_90\n      jumpi\n        /* \"src/RiscZeroVerifierRouter.sol\":4148:4156  selector */\n      dup3\n        /* \"src/RiscZeroVerifierRouter.sol\":4121:4158  SelectorUnknown({selector: selector}) */\n      mload(0x40)\n      0xe4ea654200000000000000000000000000000000000000000000000000000000\n      dup2\n      mstore\n      0x04\n      add\n      tag_91\n      swap2\n      swap1\n      tag_92\n      jump\t// in\n    tag_91:\n      mload(0x40)\n      dup1\n      swap2\n      sub\n      swap1\n      revert\n        /* \"src/RiscZeroVerifierRouter.sol\":4077:4169  if (verifier == UNSET) {... */\n    tag_90:\n        /* \"src/RiscZeroVerifierRouter.sol\":1630:1631  1 */\n      0x01\n        /* \"src/RiscZeroVerifierRouter.sol\":4182:4203  verifier == TOMBSTONE */\n      0xffffffffffffffffffffffffffffffffffffffff\n      and\n        /* \"src/RiscZeroVerifierRouter.sol\":4182:4190  verifier */\n      dup2\n        /* \"src/RiscZeroVerifierRouter.sol\":4182:4203  verifier == TOMBSTONE */\n      0xffffffffffffffffffffffffffffffffffffffff\n      and\n      sub\n        /* \"src/RiscZeroVerifierRouter.sol\":4178:4274  if (verifier == TOMBSTONE) {... */\n      tag_93\n      jumpi\n        /* \"src/RiscZeroVerifierRouter.sol\":4253:4261  selector */\n      dup3\n        /* \"src/RiscZeroVerifierRouter.sol\":4226:4263  SelectorRemoved({selector: selector}) */\n      mload(0x40)\n      0xde03ac4c00000000000000000000000000000000000000000000000000000000\n      dup2\n      mstore\n      0x04\n      add\n      tag_94\n      swap2\n      swap1\n      tag_92\n      jump\t// in\n    tag_94:\n      mload(0x40)\n      dup1\n      swap2\n      sub\n      swap1\n      revert\n        /* \"src/RiscZeroVerifierRouter.sol\":4178:4274  if (verifier == TOMBSTONE) {... */\n    tag_93:\n        /* \"src/RiscZeroVerifierRouter.sol\":4290:4298  verifier */\n      dup1\n        /* \"src/RiscZeroVerifierRouter.sol\":4283:4298  return verifier */\n      swap2\n      pop\n      pop\n        /* \"src/RiscZeroVerifierRouter.sol\":3917:4305  function getVerifier(... */\n      swap2\n      swap1\n      pop\n      jump\t// out\n        /* \"@openzeppelin/contracts/access/Ownable.sol\":2293:2394  function renounceOwnership() public virtual onlyOwner {... */\n    tag_33:\n        /* \"@openzeppelin/contracts/access/Ownable.sol\":1531:1544  _checkOwner() */\n      tag_96\n        /* \"@openzeppelin/contracts/access/Ownable.sol\":1531:1542  _checkOwner */\n      tag_97\n        /* \"@openzeppelin/contracts/access/Ownable.sol\":1531:1544  _checkOwner() */\n      jump\t// in\n    tag_96:\n        /* \"@openzeppelin/contracts/access/Ownable.sol\":2357:2387  _transferOwnership(address(0)) */\n      tag_99\n        /* \"@openzeppelin/contracts/access/Ownable.sol\":2384:2385  0 */\n      0x00\n        /* \"@openzeppelin/contracts/access/Ownable.sol\":2357:2375  _transferOwnership */\n      tag_100\n        /* \"@openzeppelin/contracts/access/Ownable.sol\":2357:2387  _transferOwnership(address(0)) */\n      jump\t// in\n    tag_99:\n        /* \"@openzeppelin/contracts/access/Ownable.sol\":2293:2394  function renounceOwnership() public virtual onlyOwner {... */\n      jump\t// out\n        /* \"@openzeppelin/contracts/access/Ownable2Step.sol\":2244:2473  function acceptOwnership() public virtual {... */\n    tag_35:\n        /* \"@openzeppelin/contracts/access/Ownable2Step.sol\":2296:2310  address sender */\n      0x00\n        /* \"@openzeppelin/contracts/access/Ownable2Step.sol\":2313:2325  _msgSender() */\n      tag_102\n        /* \"@openzeppelin/contracts/access/Ownable2Step.sol\":2313:2323  _msgSender */\n      tag_103\n        /* \"@openzeppelin/contracts/access/Ownable2Step.sol\":2313:2325  _msgSender() */\n      jump\t// in\n    tag_102:\n        /* \"@openzeppelin/contracts/access/Ownable2Step.sol\":2296:2325  address sender = _msgSender() */\n      swap1\n      pop\n        /* \"@openzeppelin/contracts/access/Ownable2Step.sol\":2357:2363  sender */\n      dup1\n        /* \"@openzeppelin/contracts/access/Ownable2Step.sol\":2339:2363  pendingOwner() != sender */\n      0xffffffffffffffffffffffffffffffffffffffff\n      and\n        /* \"@openzeppelin/contracts/access/Ownable2Step.sol\":2339:2353  pendingOwner() */\n      tag_104\n        /* \"@openzeppelin/contracts/access/Ownable2Step.sol\":2339:2351  pendingOwner */\n      tag_57\n        /* \"@openzeppelin/contracts/access/Ownable2Step.sol\":2339:2353  pendingOwner() */\n      jump\t// in\n    tag_104:\n        /* \"@openzeppelin/contracts/access/Ownable2Step.sol\":2339:2363  pendingOwner() != sender */\n      0xffffffffffffffffffffffffffffffffffffffff\n      and\n      eq\n        /* \"@openzeppelin/contracts/access/Ownable2Step.sol\":2335:2431  if (pendingOwner() != sender) {... */\n      tag_105\n      jumpi\n        /* \"@openzeppelin/contracts/access/Ownable2Step.sol\":2413:2419  sender */\n      dup1\n        /* \"@openzeppelin/contracts/access/Ownable2Step.sol\":2386:2420  OwnableUnauthorizedAccount(sender) */\n      mload(0x40)\n      0x118cdaa700000000000000000000000000000000000000000000000000000000\n      dup2\n      mstore\n      0x04\n      add\n      tag_106\n      swap2\n      swap1\n      tag_39\n      jump\t// in\n    tag_106:\n      mload(0x40)\n      dup1\n      swap2\n      sub\n      swap1\n      revert\n        /* \"@openzeppelin/contracts/access/Ownable2Step.sol\":2335:2431  if (pendingOwner() != sender) {... */\n    tag_105:\n        /* \"@openzeppelin/contracts/access/Ownable2Step.sol\":2440:2466  _transferOwnership(sender) */\n      tag_107\n        /* \"@openzeppelin/contracts/access/Ownable2Step.sol\":2459:2465  sender */\n      dup2\n        /* \"@openzeppelin/contracts/access/Ownable2Step.sol\":2440:2458  _transferOwnership */\n      tag_100\n        /* \"@openzeppelin/contracts/access/Ownable2Step.sol\":2440:2466  _transferOwnership(sender) */\n      jump\t// in\n    tag_107:\n        /* \"@openzeppelin/contracts/access/Ownable2Step.sol\":2286:2473  {... */\n      pop\n        /* \"@openzeppelin/contracts/access/Ownable2Step.sol\":2244:2473  function acceptOwnership() public virtual {... */\n      jump\t// out\n        /* \"@openzeppelin/contracts/access/Ownable.sol\":1638:1723  function owner() public view virtual returns (address) {... */\n    tag_37:\n        /* \"@openzeppelin/contracts/access/Ownable.sol\":1684:1691  address */\n      0x00\n        /* \"@openzeppelin/contracts/access/Ownable.sol\":1710:1716  _owner */\n      dup1\n      0x00\n      swap1\n      sload\n      swap1\n      0x0100\n      exp\n      swap1\n      div\n      0xffffffffffffffffffffffffffffffffffffffff\n      and\n        /* \"@openzeppelin/contracts/access/Ownable.sol\":1703:1716  return _owner */\n      swap1\n      pop\n        /* \"@openzeppelin/contracts/access/Ownable.sol\":1638:1723  function owner() public view virtual returns (address) {... */\n      swap1\n      jump\t// out\n        /* \"src/RiscZeroVerifierRouter.sol\":3376:3816  function removeVerifier(bytes4 selector) external onlyOwner {... */\n    tag_42:\n        /* \"@openzeppelin/contracts/access/Ownable.sol\":1531:1544  _checkOwner() */\n      tag_110\n        /* \"@openzeppelin/contracts/access/Ownable.sol\":1531:1542  _checkOwner */\n      tag_97\n        /* \"@openzeppelin/contracts/access/Ownable.sol\":1531:1544  _checkOwner() */\n      jump\t// in\n    tag_110:\n        /* \"src/RiscZeroVerifierRouter.sol\":1432:1433  0 */\n      0x00\n        /* \"src/RiscZeroVerifierRouter.sol\":3670:3698  verifiers[selector] == UNSET */\n      0xffffffffffffffffffffffffffffffffffffffff\n      and\n        /* \"src/RiscZeroVerifierRouter.sol\":3670:3679  verifiers */\n      0x02\n        /* \"src/RiscZeroVerifierRouter.sol\":3670:3689  verifiers[selector] */\n      0x00\n        /* \"src/RiscZeroVerifierRouter.sol\":3680:3688  selector */\n      dup4\n        /* \"src/RiscZeroVerifierRouter.sol\":3670:3689  verifiers[selector] */\n      not(0xffffffffffffffffffffffffffffffffffffffffffffffffffffffff)\n      and\n      not(0xffffffffffffffffffffffffffffffffffffffffffffffffffffffff)\n      and\n      dup2\n      mstore\n      0x20\n      add\n      swap1\n      dup2\n      mstore\n      0x20\n      add\n      0x00\n      keccak256\n      0x00\n      swap1\n      sload\n      swap1\n      0x0100\n      exp\n      swap1\n      div\n      0xffffffffffffffffffffffffffffffffffffffff\n      and\n        /* \"src/RiscZeroVerifierRouter.sol\":3670:3698  verifiers[selector] == UNSET */\n      0xffffffffffffffffffffffffffffffffffffffff\n      and\n      sub\n        /* \"src/RiscZeroVerifierRouter.sol\":3666:3769  if (verifiers[selector] == UNSET) {... */\n      tag_112\n      jumpi\n        /* \"src/RiscZeroVerifierRouter.sol\":3748:3756  selector */\n      dup1\n        /* \"src/RiscZeroVerifierRouter.sol\":3721:3758  SelectorUnknown({selector: selector}) */\n      mload(0x40)\n      0xe4ea654200000000000000000000000000000000000000000000000000000000\n      dup2\n      mstore\n      0x04\n      add\n      tag_113\n      swap2\n      swap1\n      tag_92\n      jump\t// in\n    tag_113:\n      mload(0x40)\n      dup1\n      swap2\n      sub\n      swap1\n      revert\n        /* \"src/RiscZeroVerifierRouter.sol\":3666:3769  if (verifiers[selector] == UNSET) {... */\n    tag_112:\n        /* \"src/RiscZeroVerifierRouter.sol\":1630:1631  1 */\n      0x01\n        /* \"src/RiscZeroVerifierRouter.sol\":3778:3787  verifiers */\n      0x02\n        /* \"src/RiscZeroVerifierRouter.sol\":3778:3797  verifiers[selector] */\n      0x00\n        /* \"src/RiscZeroVerifierRouter.sol\":3788:3796  selector */\n      dup4\n        /* \"src/RiscZeroVerifierRouter.sol\":3778:3797  verifiers[selector] */\n      not(0xffffffffffffffffffffffffffffffffffffffffffffffffffffffff)\n      and\n      not(0xffffffffffffffffffffffffffffffffffffffffffffffffffffffff)\n      and\n      dup2\n      mstore\n      0x20\n      add\n      swap1\n      dup2\n      mstore\n      0x20\n      add\n      0x00\n      keccak256\n      0x00\n        /* \"src/RiscZeroVerifierRouter.sol\":3778:3809  verifiers[selector] = TOMBSTONE */\n      0x0100\n      exp\n      dup2\n      sload\n      dup2\n      0xffffffffffffffffffffffffffffffffffffffff\n      mul\n      not\n      and\n      swap1\n      dup4\n      0xffffffffffffffffffffffffffffffffffffffff\n      and\n      mul\n      or\n      swap1\n      sstore\n      pop\n        /* \"src/RiscZeroVerifierRouter.sol\":3376:3816  function removeVerifier(bytes4 selector) external onlyOwner {... */\n      pop\n      jump\t// out\n        /* \"src/RiscZeroVerifierRouter.sol\":4688:4880  function verify(... */\n    tag_46:\n        /* \"src/RiscZeroVerifierRouter.sol\":4819:4836  getVerifier(seal) */\n      tag_115\n        /* \"src/RiscZeroVerifierRouter.sol\":4831:4835  seal */\n      dup5\n      dup5\n        /* \"src/RiscZeroVerifierRouter.sol\":4819:4830  getVerifier */\n      tag_50\n        /* \"src/RiscZeroVerifierRouter.sol\":4819:4836  getVerifier(seal) */\n      jump\t// in\n    tag_115:\n        /* \"src/RiscZeroVerifierRouter.sol\":4819:4843  getVerifier(seal).verify */\n      0xffffffffffffffffffffffffffffffffffffffff\n      and\n      0xab750e75\n        /* \"src/RiscZeroVerifierRouter.sol\":4844:4848  seal */\n      dup6\n      dup6\n        /* \"src/RiscZeroVerifierRouter.sol\":4850:4857  imageId */\n      dup6\n        /* \"src/RiscZeroVerifierRouter.sol\":4859:4872  journalDigest */\n      dup6\n        /* \"src/RiscZeroVerifierRouter.sol\":4819:4873  getVerifier(seal).verify(seal, imageId, journalDigest) */\n      mload(0x40)\n      dup6\n      0xffffffff\n      and\n      0xe0\n      shl\n      dup2\n      mstore\n      0x04\n      add\n      tag_116\n      swap5\n      swap4\n      swap3\n      swap2\n      swap1\n      tag_76\n      jump\t// in\n    tag_116:\n      0x00\n      mload(0x40)\n      dup1\n      dup4\n      sub\n      dup2\n      dup7\n      dup1\n      extcodesize\n      iszero\n      dup1\n      iszero\n      tag_117\n      jumpi\n      0x00\n      dup1\n      revert\n    tag_117:\n      pop\n      gas\n      staticcall\n      iszero\n      dup1\n      iszero\n      tag_119\n      jumpi\n      returndatasize\n      0x00\n      dup1\n      returndatacopy\n      revert(0x00, returndatasize)\n    tag_119:\n      pop\n      pop\n      pop\n      pop\n        /* \"src/RiscZeroVerifierRouter.sol\":4688:4880  function verify(... */\n      pop\n      pop\n      pop\n      pop\n      jump\t// out\n        /* \"src/RiscZeroVerifierRouter.sol\":4406:4644  function getVerifier(... */\n    tag_50:\n        /* \"src/RiscZeroVerifierRouter.sol\":4483:4500  IRiscZeroVerifier */\n      0x00\n        /* \"src/RiscZeroVerifierRouter.sol\":4607:4637  getVerifier(bytes4(seal[0:4])) */\n      tag_121\n        /* \"src/RiscZeroVerifierRouter.sol\":4626:4630  seal */\n      dup4\n      dup4\n        /* \"src/RiscZeroVerifierRouter.sol\":4631:4632  0 */\n      0x00\n        /* \"src/RiscZeroVerifierRouter.sol\":4626:4635  seal[0:4] */\n      swap1\n        /* \"src/RiscZeroVerifierRouter.sol\":4633:4634  4 */\n      0x04\n        /* \"src/RiscZeroVerifierRouter.sol\":4626:4635  seal[0:4] */\n      swap3\n      tag_122\n      swap4\n      swap3\n      swap2\n      swap1\n      tag_123\n      jump\t// in\n    tag_122:\n        /* \"src/RiscZeroVerifierRouter.sol\":4619:4636  bytes4(seal[0:4]) */\n      swap1\n      tag_124\n      swap2\n      swap1\n      tag_125\n      jump\t// in\n    tag_124:\n        /* \"src/RiscZeroVerifierRouter.sol\":4607:4618  getVerifier */\n      tag_29\n        /* \"src/RiscZeroVerifierRouter.sol\":4607:4637  getVerifier(bytes4(seal[0:4])) */\n      jump\t// in\n    tag_121:\n        /* \"src/RiscZeroVerifierRouter.sol\":4600:4637  return getVerifier(bytes4(seal[0:4])) */\n      swap1\n      pop\n        /* \"src/RiscZeroVerifierRouter.sol\":4406:4644  function getVerifier(... */\n      swap3\n      swap2\n      pop\n      pop\n      jump\t// out\n        /* \"src/RiscZeroVerifierRouter.sol\":2607:2987  function addVerifier(... */\n    tag_55:\n        /* \"@openzeppelin/contracts/access/Ownable.sol\":1531:1544  _checkOwner() */\n      tag_127\n        /* \"@openzeppelin/contracts/access/Ownable.sol\":1531:1542  _checkOwner */\n      tag_97\n        /* \"@openzeppelin/contracts/access/Ownable.sol\":1531:1544  _checkOwner() */\n      jump\t// in\n    tag_127:\n        /* \"src/RiscZeroVerifierRouter.sol\":1630:1631  1 */\n      0x01\n        /* \"src/RiscZeroVerifierRouter.sol\":2728:2760  verifiers[selector] == TOMBSTONE */\n      0xffffffffffffffffffffffffffffffffffffffff\n      and\n        /* \"src/RiscZeroVerifierRouter.sol\":2728:2737  verifiers */\n      0x02\n        /* \"src/RiscZeroVerifierRouter.sol\":2728:2747  verifiers[selector] */\n      0x00\n        /* \"src/RiscZeroVerifierRouter.sol\":2738:2746  selector */\n      dup5\n        /* \"src/RiscZeroVerifierRouter.sol\":2728:2747  verifiers[selector] */\n      not(0xffffffffffffffffffffffffffffffffffffffffffffffffffffffff)\n      and\n      not(0xffffffffffffffffffffffffffffffffffffffffffffffffffffffff)\n      and\n      dup2\n      mstore\n      0x20\n      add\n      swap1\n      dup2\n      mstore\n      0x20\n      add\n      0x00\n      keccak256\n      0x00\n      swap1\n      sload\n      swap1\n      0x0100\n      exp\n      swap1\n      div\n      0xffffffffffffffffffffffffffffffffffffffff\n      and\n        /* \"src/RiscZeroVerifierRouter.sol\":2728:2760  verifiers[selector] == TOMBSTONE */\n      0xffffffffffffffffffffffffffffffffffffffff\n      and\n      sub\n        /* \"src/RiscZeroVerifierRouter.sol\":2724:2831  if (verifiers[selector] == TOMBSTONE) {... */\n      tag_129\n      jumpi\n        /* \"src/RiscZeroVerifierRouter.sol\":2810:2818  selector */\n      dup2\n        /* \"src/RiscZeroVerifierRouter.sol\":2783:2820  SelectorRemoved({selector: selector}) */\n      mload(0x40)\n      0xde03ac4c00000000000000000000000000000000000000000000000000000000\n      dup2\n      mstore\n      0x04\n      add\n      tag_130\n      swap2\n      swap1\n      tag_92\n      jump\t// in\n    tag_130:\n      mload(0x40)\n      dup1\n      swap2\n      sub\n      swap1\n      revert\n        /* \"src/RiscZeroVerifierRouter.sol\":2724:2831  if (verifiers[selector] == TOMBSTONE) {... */\n    tag_129:\n        /* \"src/RiscZeroVerifierRouter.sol\":1432:1433  0 */\n      0x00\n        /* \"src/RiscZeroVerifierRouter.sol\":2844:2872  verifiers[selector] != UNSET */\n      0xffffffffffffffffffffffffffffffffffffffff\n      and\n        /* \"src/RiscZeroVerifierRouter.sol\":2844:2853  verifiers */\n      0x02\n        /* \"src/RiscZeroVerifierRouter.sol\":2844:2863  verifiers[selector] */\n      0x00\n        /* \"src/RiscZeroVerifierRouter.sol\":2854:2862  selector */\n      dup5\n        /* \"src/RiscZeroVerifierRouter.sol\":2844:2863  verifiers[selector] */\n      not(0xffffffffffffffffffffffffffffffffffffffffffffffffffffffff)\n      and\n      not(0xffffffffffffffffffffffffffffffffffffffffffffffffffffffff)\n      and\n      dup2\n      mstore\n      0x20\n      add\n      swap1\n      dup2\n      mstore\n      0x20\n      add\n      0x00\n      keccak256\n      0x00\n      swap1\n      sload\n      swap1\n      0x0100\n      exp\n      swap1\n      div\n      0xffffffffffffffffffffffffffffffffffffffff\n      and\n        /* \"src/RiscZeroVerifierRouter.sol\":2844:2872  verifiers[selector] != UNSET */\n      0xffffffffffffffffffffffffffffffffffffffff\n      and\n      eq\n        /* \"src/RiscZeroVerifierRouter.sol\":2840:2941  if (verifiers[selector] != UNSET) {... */\n      tag_131\n      jumpi\n        /* \"src/RiscZeroVerifierRouter.sol\":2920:2928  selector */\n      dup2\n        /* \"src/RiscZeroVerifierRouter.sol\":2895:2930  SelectorInUse({selector: selector}) */\n      mload(0x40)\n      0x50a41efb00000000000000000000000000000000000000000000000000000000\n      dup2\n      mstore\n      0x04\n      add\n      tag_132\n      swap2\n      swap1\n      tag_92\n      jump\t// in\n    tag_132:\n      mload(0x40)\n      dup1\n      swap2\n      sub\n      swap1\n      revert\n        /* \"src/RiscZeroVerifierRouter.sol\":2840:2941  if (verifiers[selector] != UNSET) {... */\n    tag_131:\n        /* \"src/RiscZeroVerifierRouter.sol\":2972:2980  verifier */\n      dup1\n        /* \"src/RiscZeroVerifierRouter.sol\":2950:2959  verifiers */\n      0x02\n        /* \"src/RiscZeroVerifierRouter.sol\":2950:2969  verifiers[selector] */\n      0x00\n        /* \"src/RiscZeroVerifierRouter.sol\":2960:2968  selector */\n      dup5\n        /* \"src/RiscZeroVerifierRouter.sol\":2950:2969  verifiers[selector] */\n      not(0xffffffffffffffffffffffffffffffffffffffffffffffffffffffff)\n      and\n      not(0xffffffffffffffffffffffffffffffffffffffffffffffffffffffff)\n      and\n      dup2\n      mstore\n      0x20\n      add\n      swap1\n      dup2\n      mstore\n      0x20\n      add\n      0x00\n      keccak256\n      0x00\n        /* \"src/RiscZeroVerifierRouter.sol\":2950:2980  verifiers[selector] = verifier */\n      0x0100\n      exp\n      dup2\n      sload\n      dup2\n      0xffffffffffffffffffffffffffffffffffffffff\n      mul\n      not\n      and\n      swap1\n      dup4\n      0xffffffffffffffffffffffffffffffffffffffff\n      and\n      mul\n      or\n      swap1\n      sstore\n      pop\n        /* \"src/RiscZeroVerifierRouter.sol\":2607:2987  function addVerifier(... */\n      pop\n      pop\n      jump\t// out\n        /* \"@openzeppelin/contracts/access/Ownable2Step.sol\":1232:1331  function pendingOwner() public view virtual returns (address) {... */\n    tag_57:\n        /* \"@openzeppelin/contracts/access/Ownable2Step.sol\":1285:1292  address */\n      0x00\n        /* \"@openzeppelin/contracts/access/Ownable2Step.sol\":1311:1324  _pendingOwner */\n      0x01\n      0x00\n      swap1\n      sload\n      swap1\n      0x0100\n      exp\n      swap1\n      div\n      0xffffffffffffffffffffffffffffffffffffffff\n      and\n        /* \"@openzeppelin/contracts/access/Ownable2Step.sol\":1304:1324  return _pendingOwner */\n      swap1\n      pop\n        /* \"@openzeppelin/contracts/access/Ownable2Step.sol\":1232:1331  function pendingOwner() public view virtual returns (address) {... */\n      swap1\n      jump\t// out\n        /* \"@openzeppelin/contracts/access/Ownable2Step.sol\":1649:1827  function transferOwnership(address newOwner) public virtual override onlyOwner {... */\n    tag_62:\n        /* \"@openzeppelin/contracts/access/Ownable.sol\":1531:1544  _checkOwner() */\n      tag_135\n        /* \"@openzeppelin/contracts/access/Ownable.sol\":1531:1542  _checkOwner */\n      tag_97\n        /* \"@openzeppelin/contracts/access/Ownable.sol\":1531:1544  _checkOwner() */\n      jump\t// in\n    tag_135:\n        /* \"@openzeppelin/contracts/access/Ownable2Step.sol\":1754:1762  newOwner */\n      dup1\n        /* \"@openzeppelin/contracts/access/Ownable2Step.sol\":1738:1751  _pendingOwner */\n      0x01\n      0x00\n        /* \"@openzeppelin/contracts/access/Ownable2Step.sol\":1738:1762  _pendingOwner = newOwner */\n      0x0100\n      exp\n      dup2\n      sload\n      dup2\n      0xffffffffffffffffffffffffffffffffffffffff\n      mul\n      not\n      and\n      swap1\n      dup4\n      0xffffffffffffffffffffffffffffffffffffffff\n      and\n      mul\n      or\n      swap1\n      sstore\n      pop\n        /* \"@openzeppelin/contracts/access/Ownable2Step.sol\":1811:1819  newOwner */\n      dup1\n        /* \"@openzeppelin/contracts/access/Ownable2Step.sol\":1777:1820  OwnershipTransferStarted(owner(), newOwner) */\n      0xffffffffffffffffffffffffffffffffffffffff\n      and\n        /* \"@openzeppelin/contracts/access/Ownable2Step.sol\":1802:1809  owner() */\n      tag_137\n        /* \"@openzeppelin/contracts/access/Ownable2Step.sol\":1802:1807  owner */\n      tag_37\n        /* \"@openzeppelin/contracts/access/Ownable2Step.sol\":1802:1809  owner() */\n      jump\t// in\n    tag_137:\n        /* \"@openzeppelin/contracts/access/Ownable2Step.sol\":1777:1820  OwnershipTransferStarted(owner(), newOwner) */\n      0xffffffffffffffffffffffffffffffffffffffff\n      and\n      0x38d16b8cac22d99fc7c124b9cd0de2d3fa1faef420bfe791d8c362d765e22700\n      mload(0x40)\n      mload(0x40)\n      dup1\n      swap2\n      sub\n      swap1\n      log3\n        /* \"@openzeppelin/contracts/access/Ownable2Step.sol\":1649:1827  function transferOwnership(address newOwner) public virtual override onlyOwner {... */\n      pop\n      jump\t// out\n        /* \"src/RiscZeroVerifierRouter.sol\":1243:1296  mapping(bytes4 => IRiscZeroVerifier) public verifiers */\n    tag_65:\n      mstore(0x20, 0x02)\n      dup1\n      0x00\n      mstore\n      keccak256(0x00, 0x40)\n      0x00\n      swap2\n      pop\n      sload\n      swap1\n      0x0100\n      exp\n      swap1\n      div\n      0xffffffffffffffffffffffffffffffffffffffff\n      and\n      dup2\n      jump\t// out\n        /* \"@openzeppelin/contracts/access/Ownable.sol\":1796:1958  function _checkOwner() internal view virtual {... */\n    tag_97:\n        /* \"@openzeppelin/contracts/access/Ownable.sol\":1866:1878  _msgSender() */\n      tag_139\n        /* \"@openzeppelin/contracts/access/Ownable.sol\":1866:1876  _msgSender */\n      tag_103\n        /* \"@openzeppelin/contracts/access/Ownable.sol\":1866:1878  _msgSender() */\n      jump\t// in\n    tag_139:\n        /* \"@openzeppelin/contracts/access/Ownable.sol\":1855:1878  owner() != _msgSender() */\n      0xffffffffffffffffffffffffffffffffffffffff\n      and\n        /* \"@openzeppelin/contracts/access/Ownable.sol\":1855:1862  owner() */\n      tag_140\n        /* \"@openzeppelin/contracts/access/Ownable.sol\":1855:1860  owner */\n      tag_37\n        /* \"@openzeppelin/contracts/access/Ownable.sol\":1855:1862  owner() */\n      jump\t// in\n    tag_140:\n        /* \"@openzeppelin/contracts/access/Ownable.sol\":1855:1878  owner() != _msgSender() */\n      0xffffffffffffffffffffffffffffffffffffffff\n      and\n      eq\n        /* \"@openzeppelin/contracts/access/Ownable.sol\":1851:1952  if (owner() != _msgSender()) {... */\n      tag_141\n      jumpi\n        /* \"@openzeppelin/contracts/access/Ownable.sol\":1928:1940  _msgSender() */\n      tag_142\n        /* \"@openzeppelin/contracts/access/Ownable.sol\":1928:1938  _msgSender */\n      tag_103\n        /* \"@openzeppelin/contracts/access/Ownable.sol\":1928:1940  _msgSender() */\n      jump\t// in\n    tag_142:\n        /* \"@openzeppelin/contracts/access/Ownable.sol\":1901:1941  OwnableUnauthorizedAccount(_msgSender()) */\n      mload(0x40)\n      0x118cdaa700000000000000000000000000000000000000000000000000000000\n      dup2\n      mstore\n      0x04\n      add\n      tag_143\n      swap2\n      swap1\n      tag_39\n      jump\t// in\n    tag_143:\n      mload(0x40)\n      dup1\n      swap2\n      sub\n      swap1\n      revert\n        /* \"@openzeppelin/contracts/access/Ownable.sol\":1851:1952  if (owner() != _msgSender()) {... */\n    tag_141:\n        /* \"@openzeppelin/contracts/access/Ownable.sol\":1796:1958  function _checkOwner() internal view virtual {... */\n      jump\t// out\n        /* \"@openzeppelin/contracts/access/Ownable2Step.sol\":2011:2164  function _transferOwnership(address newOwner) internal virtual override {... */\n    tag_100:\n        /* \"@openzeppelin/contracts/access/Ownable2Step.sol\":2100:2113  _pendingOwner */\n      0x01\n      0x00\n        /* \"@openzeppelin/contracts/access/Ownable2Step.sol\":2093:2113  delete _pendingOwner */\n      0x0100\n      exp\n      dup2\n      sload\n      swap1\n      0xffffffffffffffffffffffffffffffffffffffff\n      mul\n      not\n      and\n      swap1\n      sstore\n        /* \"@openzeppelin/contracts/access/Ownable2Step.sol\":2123:2157  super._transferOwnership(newOwner) */\n      tag_145\n        /* \"@openzeppelin/contracts/access/Ownable2Step.sol\":2148:2156  newOwner */\n      dup2\n        /* \"@openzeppelin/contracts/access/Ownable2Step.sol\":2123:2147  super._transferOwnership */\n      tag_146\n        /* \"@openzeppelin/contracts/access/Ownable2Step.sol\":2123:2157  super._transferOwnership(newOwner) */\n      jump\t// in\n    tag_145:\n        /* \"@openzeppelin/contracts/access/Ownable2Step.sol\":2011:2164  function _transferOwnership(address newOwner) internal virtual override {... */\n      pop\n      jump\t// out\n        /* \"@openzeppelin/contracts/utils/Context.sol\":656:752  function _msgSender() internal view virtual returns (address) {... */\n    tag_103:\n        /* \"@openzeppelin/contracts/utils/Context.sol\":709:716  address */\n      0x00\n        /* \"@openzeppelin/contracts/utils/Context.sol\":735:745  msg.sender */\n      caller\n        /* \"@openzeppelin/contracts/utils/Context.sol\":728:745  return msg.sender */\n      swap1\n      pop\n        /* \"@openzeppelin/contracts/utils/Context.sol\":656:752  function _msgSender() internal view virtual returns (address) {... */\n      swap1\n      jump\t// out\n        /* \"@openzeppelin/contracts/access/Ownable.sol\":2912:3099  function _transferOwnership(address newOwner) internal virtual {... */\n    tag_146:\n        /* \"@openzeppelin/contracts/access/Ownable.sol\":2985:3001  address oldOwner */\n      0x00\n        /* \"@openzeppelin/contracts/access/Ownable.sol\":3004:3010  _owner */\n      dup1\n      0x00\n      swap1\n      sload\n      swap1\n      0x0100\n      exp\n      swap1\n      div\n      0xffffffffffffffffffffffffffffffffffffffff\n      and\n        /* \"@openzeppelin/contracts/access/Ownable.sol\":2985:3010  address oldOwner = _owner */\n      swap1\n      pop\n        /* \"@openzeppelin/contracts/access/Ownable.sol\":3029:3037  newOwner */\n      dup2\n        /* \"@openzeppelin/contracts/access/Ownable.sol\":3020:3026  _owner */\n      0x00\n      dup1\n        /* \"@openzeppelin/contracts/access/Ownable.sol\":3020:3037  _owner = newOwner */\n      0x0100\n      exp\n      dup2\n      sload\n      dup2\n      0xffffffffffffffffffffffffffffffffffffffff\n      mul\n      not\n      and\n      swap1\n      dup4\n      0xffffffffffffffffffffffffffffffffffffffff\n      and\n      mul\n      or\n      swap1\n      sstore\n      pop\n        /* \"@openzeppelin/contracts/access/Ownable.sol\":3083:3091  newOwner */\n      dup2\n        /* \"@openzeppelin/contracts/access/Ownable.sol\":3052:3092  OwnershipTransferred(oldOwner, newOwner) */\n      0xffffffffffffffffffffffffffffffffffffffff\n      and\n        /* \"@openzeppelin/contracts/access/Ownable.sol\":3073:3081  oldOwner */\n      dup2\n        /* \"@openzeppelin/contracts/access/Ownable.sol\":3052:3092  OwnershipTransferred(oldOwner, newOwner) */\n      0xffffffffffffffffffffffffffffffffffffffff\n      and\n      0x8be0079c531659141344cd1fd0a4f28419497f9722a3daafe3b4186f6b6457e0\n      mload(0x40)\n      mload(0x40)\n      dup1\n      swap2\n      sub\n      swap1\n      log3\n        /* \"@openzeppelin/contracts/access/Ownable.sol\":2975:3099  {... */\n      pop\n        /* \"@openzeppelin/contracts/access/Ownable.sol\":2912:3099  function _transferOwnership(address newOwner) internal virtual {... */\n      pop\n      jump\t// out\n        /* \"#utility.yul\":88:205   */\n    tag_150:\n        /* \"#utility.yul\":197:198   */\n      0x00\n        /* \"#utility.yul\":194:195   */\n      dup1\n        /* \"#utility.yul\":187:199   */\n      revert\n        /* \"#utility.yul\":211:328   */\n    tag_151:\n        /* \"#utility.yul\":320:321   */\n      0x00\n        /* \"#utility.yul\":317:318   */\n      dup1\n        /* \"#utility.yul\":310:322   */\n      revert\n        /* \"#utility.yul\":334:451   */\n    tag_152:\n        /* \"#utility.yul\":443:444   */\n      0x00\n        /* \"#utility.yul\":440:441   */\n      dup1\n        /* \"#utility.yul\":433:445   */\n      revert\n        /* \"#utility.yul\":457:574   */\n    tag_153:\n        /* \"#utility.yul\":566:567   */\n      0x00\n        /* \"#utility.yul\":563:564   */\n      dup1\n        /* \"#utility.yul\":556:568   */\n      revert\n        /* \"#utility.yul\":580:697   */\n    tag_154:\n        /* \"#utility.yul\":689:690   */\n      0x00\n        /* \"#utility.yul\":686:687   */\n      dup1\n        /* \"#utility.yul\":679:691   */\n      revert\n        /* \"#utility.yul\":716:1268   */\n    tag_155:\n        /* \"#utility.yul\":773:781   */\n      0x00\n        /* \"#utility.yul\":783:789   */\n      dup1\n        /* \"#utility.yul\":833:836   */\n      dup4\n        /* \"#utility.yul\":826:830   */\n      0x1f\n        /* \"#utility.yul\":818:824   */\n      dup5\n        /* \"#utility.yul\":814:831   */\n      add\n        /* \"#utility.yul\":810:837   */\n      slt\n        /* \"#utility.yul\":800:922   */\n      tag_211\n      jumpi\n        /* \"#utility.yul\":841:920   */\n      tag_212\n      tag_152\n      jump\t// in\n    tag_212:\n        /* \"#utility.yul\":800:922   */\n    tag_211:\n        /* \"#utility.yul\":954:960   */\n      dup3\n        /* \"#utility.yul\":941:961   */\n      calldataload\n        /* \"#utility.yul\":931:961   */\n      swap1\n      pop\n        /* \"#utility.yul\":984:1002   */\n      0xffffffffffffffff\n        /* \"#utility.yul\":976:982   */\n      dup2\n        /* \"#utility.yul\":973:1003   */\n      gt\n        /* \"#utility.yul\":970:1087   */\n      iszero\n      tag_213\n      jumpi\n        /* \"#utility.yul\":1006:1085   */\n      tag_214\n      tag_153\n      jump\t// in\n    tag_214:\n        /* \"#utility.yul\":970:1087   */\n    tag_213:\n        /* \"#utility.yul\":1120:1124   */\n      0x20\n        /* \"#utility.yul\":1112:1118   */\n      dup4\n        /* \"#utility.yul\":1108:1125   */\n      add\n        /* \"#utility.yul\":1096:1125   */\n      swap2\n      pop\n        /* \"#utility.yul\":1174:1177   */\n      dup4\n        /* \"#utility.yul\":1166:1170   */\n      0x01\n        /* \"#utility.yul\":1158:1164   */\n      dup3\n        /* \"#utility.yul\":1154:1171   */\n      mul\n        /* \"#utility.yul\":1144:1152   */\n      dup4\n        /* \"#utility.yul\":1140:1172   */\n      add\n        /* \"#utility.yul\":1137:1178   */\n      gt\n        /* \"#utility.yul\":1134:1262   */\n      iszero\n      tag_215\n      jumpi\n        /* \"#utility.yul\":1181:1260   */\n      tag_216\n      tag_154\n      jump\t// in\n    tag_216:\n        /* \"#utility.yul\":1134:1262   */\n    tag_215:\n        /* \"#utility.yul\":716:1268   */\n      swap3\n      pop\n      swap3\n      swap1\n      pop\n      jump\t// out\n        /* \"#utility.yul\":1274:1351   */\n    tag_156:\n        /* \"#utility.yul\":1311:1318   */\n      0x00\n        /* \"#utility.yul\":1340:1345   */\n      dup2\n        /* \"#utility.yul\":1329:1345   */\n      swap1\n      pop\n        /* \"#utility.yul\":1274:1351   */\n      swap2\n      swap1\n      pop\n      jump\t// out\n        /* \"#utility.yul\":1357:1479   */\n    tag_157:\n        /* \"#utility.yul\":1430:1454   */\n      tag_219\n        /* \"#utility.yul\":1448:1453   */\n      dup2\n        /* \"#utility.yul\":1430:1454   */\n      tag_156\n      jump\t// in\n    tag_219:\n        /* \"#utility.yul\":1423:1428   */\n      dup2\n        /* \"#utility.yul\":1420:1455   */\n      eq\n        /* \"#utility.yul\":1410:1473   */\n      tag_220\n      jumpi\n        /* \"#utility.yul\":1469:1470   */\n      0x00\n        /* \"#utility.yul\":1466:1467   */\n      dup1\n        /* \"#utility.yul\":1459:1471   */\n      revert\n        /* \"#utility.yul\":1410:1473   */\n    tag_220:\n        /* \"#utility.yul\":1357:1479   */\n      pop\n      jump\t// out\n        /* \"#utility.yul\":1485:1624   */\n    tag_158:\n        /* \"#utility.yul\":1531:1536   */\n      0x00\n        /* \"#utility.yul\":1569:1575   */\n      dup2\n        /* \"#utility.yul\":1556:1576   */\n      calldataload\n        /* \"#utility.yul\":1547:1576   */\n      swap1\n      pop\n        /* \"#utility.yul\":1585:1618   */\n      tag_222\n        /* \"#utility.yul\":1612:1617   */\n      dup2\n        /* \"#utility.yul\":1585:1618   */\n      tag_157\n      jump\t// in\n    tag_222:\n        /* \"#utility.yul\":1485:1624   */\n      swap3\n      swap2\n      pop\n      pop\n      jump\t// out\n        /* \"#utility.yul\":1630:2645   */\n    tag_20:\n        /* \"#utility.yul\":1729:1735   */\n      0x00\n        /* \"#utility.yul\":1737:1743   */\n      dup1\n        /* \"#utility.yul\":1745:1751   */\n      0x00\n        /* \"#utility.yul\":1753:1759   */\n      dup1\n        /* \"#utility.yul\":1761:1767   */\n      0x00\n        /* \"#utility.yul\":1810:1812   */\n      0x60\n        /* \"#utility.yul\":1798:1807   */\n      dup7\n        /* \"#utility.yul\":1789:1796   */\n      dup9\n        /* \"#utility.yul\":1785:1808   */\n      sub\n        /* \"#utility.yul\":1781:1813   */\n      slt\n        /* \"#utility.yul\":1778:1897   */\n      iszero\n      tag_224\n      jumpi\n        /* \"#utility.yul\":1816:1895   */\n      tag_225\n      tag_150\n      jump\t// in\n    tag_225:\n        /* \"#utility.yul\":1778:1897   */\n    tag_224:\n        /* \"#utility.yul\":1964:1965   */\n      0x00\n        /* \"#utility.yul\":1953:1962   */\n      dup7\n        /* \"#utility.yul\":1949:1966   */\n      add\n        /* \"#utility.yul\":1936:1967   */\n      calldataload\n        /* \"#utility.yul\":1994:2012   */\n      0xffffffffffffffff\n        /* \"#utility.yul\":1986:1992   */\n      dup2\n        /* \"#utility.yul\":1983:2013   */\n      gt\n        /* \"#utility.yul\":1980:2097   */\n      iszero\n      tag_226\n      jumpi\n        /* \"#utility.yul\":2016:2095   */\n      tag_227\n      tag_151\n      jump\t// in\n    tag_227:\n        /* \"#utility.yul\":1980:2097   */\n    tag_226:\n        /* \"#utility.yul\":2129:2193   */\n      tag_228\n        /* \"#utility.yul\":2185:2192   */\n      dup9\n        /* \"#utility.yul\":2176:2182   */\n      dup3\n        /* \"#utility.yul\":2165:2174   */\n      dup10\n        /* \"#utility.yul\":2161:2183   */\n      add\n        /* \"#utility.yul\":2129:2193   */\n      tag_155\n      jump\t// in\n    tag_228:\n        /* \"#utility.yul\":2111:2193   */\n      swap6\n      pop\n      swap6\n      pop\n        /* \"#utility.yul\":1907:2203   */\n      pop\n        /* \"#utility.yul\":2242:2244   */\n      0x20\n        /* \"#utility.yul\":2268:2321   */\n      tag_229\n        /* \"#utility.yul\":2313:2320   */\n      dup9\n        /* \"#utility.yul\":2304:2310   */\n      dup3\n        /* \"#utility.yul\":2293:2302   */\n      dup10\n        /* \"#utility.yul\":2289:2311   */\n      add\n        /* \"#utility.yul\":2268:2321   */\n      tag_158\n      jump\t// in\n    tag_229:\n        /* \"#utility.yul\":2258:2321   */\n      swap4\n      pop\n        /* \"#utility.yul\":2213:2331   */\n      pop\n        /* \"#utility.yul\":2398:2400   */\n      0x40\n        /* \"#utility.yul\":2387:2396   */\n      dup7\n        /* \"#utility.yul\":2383:2401   */\n      add\n        /* \"#utility.yul\":2370:2402   */\n      calldataload\n        /* \"#utility.yul\":2429:2447   */\n      0xffffffffffffffff\n        /* \"#utility.yul\":2421:2427   */\n      dup2\n        /* \"#utility.yul\":2418:2448   */\n      gt\n        /* \"#utility.yul\":2415:2532   */\n      iszero\n      tag_230\n      jumpi\n        /* \"#utility.yul\":2451:2530   */\n      tag_231\n      tag_151\n      jump\t// in\n    tag_231:\n        /* \"#utility.yul\":2415:2532   */\n    tag_230:\n        /* \"#utility.yul\":2564:2628   */\n      tag_232\n        /* \"#utility.yul\":2620:2627   */\n      dup9\n        /* \"#utility.yul\":2611:2617   */\n      dup3\n        /* \"#utility.yul\":2600:2609   */\n      dup10\n        /* \"#utility.yul\":2596:2618   */\n      add\n        /* \"#utility.yul\":2564:2628   */\n      tag_155\n      jump\t// in\n    tag_232:\n        /* \"#utility.yul\":2546:2628   */\n      swap3\n      pop\n      swap3\n      pop\n        /* \"#utility.yul\":2341:2638   */\n      pop\n        /* \"#utility.yul\":1630:2645   */\n      swap3\n      swap6\n      pop\n      swap3\n      swap6\n      swap1\n      swap4\n      pop\n      jump\t// out\n        /* \"#utility.yul\":2651:2768   */\n    tag_159:\n        /* \"#utility.yul\":2760:2761   */\n      0x00\n        /* \"#utility.yul\":2757:2758   */\n      dup1\n        /* \"#utility.yul\":2750:2762   */\n      revert\n        /* \"#utility.yul\":2796:3026   */\n    tag_160:\n        /* \"#utility.yul\":2868:2873   */\n      0x00\n        /* \"#utility.yul\":2909:2911   */\n      0x40\n        /* \"#utility.yul\":2900:2906   */\n      dup3\n        /* \"#utility.yul\":2895:2898   */\n      dup5\n        /* \"#utility.yul\":2891:2907   */\n      sub\n        /* \"#utility.yul\":2887:2912   */\n      slt\n        /* \"#utility.yul\":2884:2996   */\n      iszero\n      tag_235\n      jumpi\n        /* \"#utility.yul\":2915:2994   */\n      tag_236\n      tag_159\n      jump\t// in\n    tag_236:\n        /* \"#utility.yul\":2884:2996   */\n    tag_235:\n        /* \"#utility.yul\":3014:3020   */\n      dup2\n        /* \"#utility.yul\":3005:3020   */\n      swap1\n      pop\n        /* \"#utility.yul\":2796:3026   */\n      swap3\n      swap2\n      pop\n      pop\n      jump\t// out\n        /* \"#utility.yul\":3032:3573   */\n    tag_24:\n        /* \"#utility.yul\":3117:3123   */\n      0x00\n        /* \"#utility.yul\":3166:3168   */\n      0x20\n        /* \"#utility.yul\":3154:3163   */\n      dup3\n        /* \"#utility.yul\":3145:3152   */\n      dup5\n        /* \"#utility.yul\":3141:3164   */\n      sub\n        /* \"#utility.yul\":3137:3169   */\n      slt\n        /* \"#utility.yul\":3134:3253   */\n      iszero\n      tag_238\n      jumpi\n        /* \"#utility.yul\":3172:3251   */\n      tag_239\n      tag_150\n      jump\t// in\n    tag_239:\n        /* \"#utility.yul\":3134:3253   */\n    tag_238:\n        /* \"#utility.yul\":3320:3321   */\n      0x00\n        /* \"#utility.yul\":3309:3318   */\n      dup3\n        /* \"#utility.yul\":3305:3322   */\n      add\n        /* \"#utility.yul\":3292:3323   */\n      calldataload\n        /* \"#utility.yul\":3350:3368   */\n      0xffffffffffffffff\n        /* \"#utility.yul\":3342:3348   */\n      dup2\n        /* \"#utility.yul\":3339:3369   */\n      gt\n        /* \"#utility.yul\":3336:3453   */\n      iszero\n      tag_240\n      jumpi\n        /* \"#utility.yul\":3372:3451   */\n      tag_241\n      tag_151\n      jump\t// in\n    tag_241:\n        /* \"#utility.yul\":3336:3453   */\n    tag_240:\n        /* \"#utility.yul\":3477:3556   */\n      tag_242\n        /* \"#utility.yul\":3548:3555   */\n      dup5\n        /* \"#utility.yul\":3539:3545   */\n      dup3\n        /* \"#utility.yul\":3528:3537   */\n      dup6\n        /* \"#utility.yul\":3524:3546   */\n      add\n        /* \"#utility.yul\":3477:3556   */\n      tag_160\n      jump\t// in\n    tag_242:\n        /* \"#utility.yul\":3467:3556   */\n      swap2\n      pop\n        /* \"#utility.yul\":3263:3566   */\n      pop\n        /* \"#utility.yul\":3032:3573   */\n      swap3\n      swap2\n      pop\n      pop\n      jump\t// out\n        /* \"#utility.yul\":3579:3728   */\n    tag_161:\n        /* \"#utility.yul\":3615:3622   */\n      0x00\n        /* \"#utility.yul\":3655:3721   */\n      0xffffffff00000000000000000000000000000000000000000000000000000000\n        /* \"#utility.yul\":3648:3653   */\n      dup3\n        /* \"#utility.yul\":3644:3722   */\n      and\n        /* \"#utility.yul\":3633:3722   */\n      swap1\n      pop\n        /* \"#utility.yul\":3579:3728   */\n      swap2\n      swap1\n      pop\n      jump\t// out\n        /* \"#utility.yul\":3734:3854   */\n    tag_162:\n        /* \"#utility.yul\":3806:3829   */\n      tag_245\n        /* \"#utility.yul\":3823:3828   */\n      dup2\n        /* \"#utility.yul\":3806:3829   */\n      tag_161\n      jump\t// in\n    tag_245:\n        /* \"#utility.yul\":3799:3804   */\n      dup2\n        /* \"#utility.yul\":3796:3830   */\n      eq\n        /* \"#utility.yul\":3786:3848   */\n      tag_246\n      jumpi\n        /* \"#utility.yul\":3844:3845   */\n      0x00\n        /* \"#utility.yul\":3841:3842   */\n      dup1\n        /* \"#utility.yul\":3834:3846   */\n      revert\n        /* \"#utility.yul\":3786:3848   */\n    tag_246:\n        /* \"#utility.yul\":3734:3854   */\n      pop\n      jump\t// out\n        /* \"#utility.yul\":3860:3997   */\n    tag_163:\n        /* \"#utility.yul\":3905:3910   */\n      0x00\n        /* \"#utility.yul\":3943:3949   */\n      dup2\n        /* \"#utility.yul\":3930:3950   */\n      calldataload\n        /* \"#utility.yul\":3921:3950   */\n      swap1\n      pop\n        /* \"#utility.yul\":3959:3991   */\n      tag_248\n        /* \"#utility.yul\":3985:3990   */\n      dup2\n        /* \"#utility.yul\":3959:3991   */\n      tag_162\n      jump\t// in\n    tag_248:\n        /* \"#utility.yul\":3860:3997   */\n      swap3\n      swap2\n      pop\n      pop\n      jump\t// out\n        /* \"#utility.yul\":4003:4330   */\n    tag_28:\n        /* \"#utility.yul\":4061:4067   */\n      0x00\n        /* \"#utility.yul\":4110:4112   */\n      0x20\n        /* \"#utility.yul\":4098:4107   */\n      dup3\n        /* \"#utility.yul\":4089:4096   */\n      dup5\n        /* \"#utility.yul\":4085:4108   */\n      sub\n        /* \"#utility.yul\":4081:4113   */\n      slt\n        /* \"#utility.yul\":4078:4197   */\n      iszero\n      tag_250\n      jumpi\n        /* \"#utility.yul\":4116:4195   */\n      tag_251\n      tag_150\n      jump\t// in\n    tag_251:\n        /* \"#utility.yul\":4078:4197   */\n    tag_250:\n        /* \"#utility.yul\":4236:4237   */\n      0x00\n        /* \"#utility.yul\":4261:4313   */\n      tag_252\n        /* \"#utility.yul\":4305:4312   */\n      dup5\n        /* \"#utility.yul\":4296:4302   */\n      dup3\n        /* \"#utility.yul\":4285:4294   */\n      dup6\n        /* \"#utility.yul\":4281:4303   */\n      add\n        /* \"#utility.yul\":4261:4313   */\n      tag_163\n      jump\t// in\n    tag_252:\n        /* \"#utility.yul\":4251:4313   */\n      swap2\n      pop\n        /* \"#utility.yul\":4207:4323   */\n      pop\n        /* \"#utility.yul\":4003:4330   */\n      swap3\n      swap2\n      pop\n      pop\n      jump\t// out\n        /* \"#utility.yul\":4336:4462   */\n    tag_164:\n        /* \"#utility.yul\":4373:4380   */\n      0x00\n        /* \"#utility.yul\":4413:4455   */\n      0xffffffffffffffffffffffffffffffffffffffff\n        /* \"#utility.yul\":4406:4411   */\n      dup3\n        /* \"#utility.yul\":4402:4456   */\n      and\n        /* \"#utility.yul\":4391:4456   */\n      swap1\n      pop\n        /* \"#utility.yul\":4336:4462   */\n      swap2\n      swap1\n      pop\n      jump\t// out\n        /* \"#utility.yul\":4468:4528   */\n    tag_165:\n        /* \"#utility.yul\":4496:4499   */\n      0x00\n        /* \"#utility.yul\":4517:4522   */\n      dup2\n        /* \"#utility.yul\":4510:4522   */\n      swap1\n      pop\n        /* \"#utility.yul\":4468:4528   */\n      swap2\n      swap1\n      pop\n      jump\t// out\n        /* \"#utility.yul\":4534:4676   */\n    tag_166:\n        /* \"#utility.yul\":4584:4593   */\n      0x00\n        /* \"#utility.yul\":4617:4670   */\n      tag_256\n        /* \"#utility.yul\":4635:4669   */\n      tag_257\n        /* \"#utility.yul\":4644:4668   */\n      tag_258\n        /* \"#utility.yul\":4662:4667   */\n      dup5\n        /* \"#utility.yul\":4644:4668   */\n      tag_164\n      jump\t// in\n    tag_258:\n        /* \"#utility.yul\":4635:4669   */\n      tag_165\n      jump\t// in\n    tag_257:\n        /* \"#utility.yul\":4617:4670   */\n      tag_164\n      jump\t// in\n    tag_256:\n        /* \"#utility.yul\":4604:4670   */\n      swap1\n      pop\n        /* \"#utility.yul\":4534:4676   */\n      swap2\n      swap1\n      pop\n      jump\t// out\n        /* \"#utility.yul\":4682:4808   */\n    tag_167:\n        /* \"#utility.yul\":4732:4741   */\n      0x00\n        /* \"#utility.yul\":4765:4802   */\n      tag_260\n        /* \"#utility.yul\":4796:4801   */\n      dup3\n        /* \"#utility.yul\":4765:4802   */\n      tag_166\n      jump\t// in\n    tag_260:\n        /* \"#utility.yul\":4752:4802   */\n      swap1\n      pop\n        /* \"#utility.yul\":4682:4808   */\n      swap2\n      swap1\n      pop\n      jump\t// out\n        /* \"#utility.yul\":4814:4965   */\n    tag_168:\n        /* \"#utility.yul\":4889:4898   */\n      0x00\n        /* \"#utility.yul\":4922:4959   */\n      tag_262\n        /* \"#utility.yul\":4953:4958   */\n      dup3\n        /* \"#utility.yul\":4922:4959   */\n      tag_167\n      jump\t// in\n    tag_262:\n        /* \"#utility.yul\":4909:4959   */\n      swap1\n      pop\n        /* \"#utility.yul\":4814:4965   */\n      swap2\n      swap1\n      pop\n      jump\t// out\n        /* \"#utility.yul\":4971:5152   */\n    tag_169:\n        /* \"#utility.yul\":5083:5145   */\n      tag_264\n        /* \"#utility.yul\":5139:5144   */\n      dup2\n        /* \"#utility.yul\":5083:5145   */\n      tag_168\n      jump\t// in\n    tag_264:\n        /* \"#utility.yul\":5078:5081   */\n      dup3\n        /* \"#utility.yul\":5071:5146   */\n      mstore\n        /* \"#utility.yul\":4971:5152   */\n      pop\n      pop\n      jump\t// out\n        /* \"#utility.yul\":5158:5430   */\n    tag_31:\n        /* \"#utility.yul\":5276:5280   */\n      0x00\n        /* \"#utility.yul\":5314:5316   */\n      0x20\n        /* \"#utility.yul\":5303:5312   */\n      dup3\n        /* \"#utility.yul\":5299:5317   */\n      add\n        /* \"#utility.yul\":5291:5317   */\n      swap1\n      pop\n        /* \"#utility.yul\":5327:5423   */\n      tag_266\n        /* \"#utility.yul\":5420:5421   */\n      0x00\n        /* \"#utility.yul\":5409:5418   */\n      dup4\n        /* \"#utility.yul\":5405:5422   */\n      add\n        /* \"#utility.yul\":5396:5402   */\n      dup5\n        /* \"#utility.yul\":5327:5423   */\n      tag_169\n      jump\t// in\n    tag_266:\n        /* \"#utility.yul\":5158:5430   */\n      swap3\n      swap2\n      pop\n      pop\n      jump\t// out\n        /* \"#utility.yul\":5436:5532   */\n    tag_170:\n        /* \"#utility.yul\":5473:5480   */\n      0x00\n        /* \"#utility.yul\":5502:5526   */\n      tag_268\n        /* \"#utility.yul\":5520:5525   */\n      dup3\n        /* \"#utility.yul\":5502:5526   */\n      tag_164\n      jump\t// in\n    tag_268:\n        /* \"#utility.yul\":5491:5526   */\n      swap1\n      pop\n        /* \"#utility.yul\":5436:5532   */\n      swap2\n      swap1\n      pop\n      jump\t// out\n        /* \"#utility.yul\":5538:5656   */\n    tag_171:\n        /* \"#utility.yul\":5625:5649   */\n      tag_270\n        /* \"#utility.yul\":5643:5648   */\n      dup2\n        /* \"#utility.yul\":5625:5649   */\n      tag_170\n      jump\t// in\n    tag_270:\n        /* \"#utility.yul\":5620:5623   */\n      dup3\n        /* \"#utility.yul\":5613:5650   */\n      mstore\n        /* \"#utility.yul\":5538:5656   */\n      pop\n      pop\n      jump\t// out\n        /* \"#utility.yul\":5662:5884   */\n    tag_39:\n        /* \"#utility.yul\":5755:5759   */\n      0x00\n        /* \"#utility.yul\":5793:5795   */\n      0x20\n        /* \"#utility.yul\":5782:5791   */\n      dup3\n        /* \"#utility.yul\":5778:5796   */\n      add\n        /* \"#utility.yul\":5770:5796   */\n      swap1\n      pop\n        /* \"#utility.yul\":5806:5877   */\n      tag_272\n        /* \"#utility.yul\":5874:5875   */\n      0x00\n        /* \"#utility.yul\":5863:5872   */\n      dup4\n        /* \"#utility.yul\":5859:5876   */\n      add\n        /* \"#utility.yul\":5850:5856   */\n      dup5\n        /* \"#utility.yul\":5806:5877   */\n      tag_171\n      jump\t// in\n    tag_272:\n        /* \"#utility.yul\":5662:5884   */\n      swap3\n      swap2\n      pop\n      pop\n      jump\t// out\n        /* \"#utility.yul\":5890:6707   */\n    tag_45:\n        /* \"#utility.yul\":5978:5984   */\n      0x00\n        /* \"#utility.yul\":5986:5992   */\n      dup1\n        /* \"#utility.yul\":5994:6000   */\n      0x00\n        /* \"#utility.yul\":6002:6008   */\n      dup1\n        /* \"#utility.yul\":6051:6053   */\n      0x60\n        /* \"#utility.yul\":6039:6048   */\n      dup6\n        /* \"#utility.yul\":6030:6037   */\n      dup8\n        /* \"#utility.yul\":6026:6049   */\n      sub\n        /* \"#utility.yul\":6022:6054   */\n      slt\n        /* \"#utility.yul\":6019:6138   */\n      iszero\n      tag_274\n      jumpi\n        /* \"#utility.yul\":6057:6136   */\n      tag_275\n      tag_150\n      jump\t// in\n    tag_275:\n        /* \"#utility.yul\":6019:6138   */\n    tag_274:\n        /* \"#utility.yul\":6205:6206   */\n      0x00\n        /* \"#utility.yul\":6194:6203   */\n      dup6\n        /* \"#utility.yul\":6190:6207   */\n      add\n        /* \"#utility.yul\":6177:6208   */\n      calldataload\n        /* \"#utility.yul\":6235:6253   */\n      0xffffffffffffffff\n        /* \"#utility.yul\":6227:6233   */\n      dup2\n        /* \"#utility.yul\":6224:6254   */\n      gt\n        /* \"#utility.yul\":6221:6338   */\n      iszero\n      tag_276\n      jumpi\n        /* \"#utility.yul\":6257:6336   */\n      tag_277\n      tag_151\n      jump\t// in\n    tag_277:\n        /* \"#utility.yul\":6221:6338   */\n    tag_276:\n        /* \"#utility.yul\":6370:6434   */\n      tag_278\n        /* \"#utility.yul\":6426:6433   */\n      dup8\n        /* \"#utility.yul\":6417:6423   */\n      dup3\n        /* \"#utility.yul\":6406:6415   */\n      dup9\n        /* \"#utility.yul\":6402:6424   */\n      add\n        /* \"#utility.yul\":6370:6434   */\n      tag_155\n      jump\t// in\n    tag_278:\n        /* \"#utility.yul\":6352:6434   */\n      swap5\n      pop\n      swap5\n      pop\n        /* \"#utility.yul\":6148:6444   */\n      pop\n        /* \"#utility.yul\":6483:6485   */\n      0x20\n        /* \"#utility.yul\":6509:6562   */\n      tag_279\n        /* \"#utility.yul\":6554:6561   */\n      dup8\n        /* \"#utility.yul\":6545:6551   */\n      dup3\n        /* \"#utility.yul\":6534:6543   */\n      dup9\n        /* \"#utility.yul\":6530:6552   */\n      add\n        /* \"#utility.yul\":6509:6562   */\n      tag_158\n      jump\t// in\n    tag_279:\n        /* \"#utility.yul\":6499:6562   */\n      swap3\n      pop\n        /* \"#utility.yul\":6454:6572   */\n      pop\n        /* \"#utility.yul\":6611:6613   */\n      0x40\n        /* \"#utility.yul\":6637:6690   */\n      tag_280\n        /* \"#utility.yul\":6682:6689   */\n      dup8\n        /* \"#utility.yul\":6673:6679   */\n      dup3\n        /* \"#utility.yul\":6662:6671   */\n      dup9\n        /* \"#utility.yul\":6658:6680   */\n      add\n        /* \"#utility.yul\":6637:6690   */\n      tag_158\n      jump\t// in\n    tag_280:\n        /* \"#utility.yul\":6627:6690   */\n      swap2\n      pop\n        /* \"#utility.yul\":6582:6700   */\n      pop\n        /* \"#utility.yul\":5890:6707   */\n      swap3\n      swap6\n      swap2\n      swap5\n      pop\n      swap3\n      pop\n      jump\t// out\n        /* \"#utility.yul\":6713:7240   */\n    tag_49:\n        /* \"#utility.yul\":6783:6789   */\n      0x00\n        /* \"#utility.yul\":6791:6797   */\n      dup1\n        /* \"#utility.yul\":6840:6842   */\n      0x20\n        /* \"#utility.yul\":6828:6837   */\n      dup4\n        /* \"#utility.yul\":6819:6826   */\n      dup6\n        /* \"#utility.yul\":6815:6838   */\n      sub\n        /* \"#utility.yul\":6811:6843   */\n      slt\n        /* \"#utility.yul\":6808:6927   */\n      iszero\n      tag_282\n      jumpi\n        /* \"#utility.yul\":6846:6925   */\n      tag_283\n      tag_150\n      jump\t// in\n    tag_283:\n        /* \"#utility.yul\":6808:6927   */\n    tag_282:\n        /* \"#utility.yul\":6994:6995   */\n      0x00\n        /* \"#utility.yul\":6983:6992   */\n      dup4\n        /* \"#utility.yul\":6979:6996   */\n      add\n        /* \"#utility.yul\":6966:6997   */\n      calldataload\n        /* \"#utility.yul\":7024:7042   */\n      0xffffffffffffffff\n        /* \"#utility.yul\":7016:7022   */\n      dup2\n        /* \"#utility.yul\":7013:7043   */\n      gt\n        /* \"#utility.yul\":7010:7127   */\n      iszero\n      tag_284\n      jumpi\n        /* \"#utility.yul\":7046:7125   */\n      tag_285\n      tag_151\n      jump\t// in\n    tag_285:\n        /* \"#utility.yul\":7010:7127   */\n    tag_284:\n        /* \"#utility.yul\":7159:7223   */\n      tag_286\n        /* \"#utility.yul\":7215:7222   */\n      dup6\n        /* \"#utility.yul\":7206:7212   */\n      dup3\n        /* \"#utility.yul\":7195:7204   */\n      dup7\n        /* \"#utility.yul\":7191:7213   */\n      add\n        /* \"#utility.yul\":7159:7223   */\n      tag_155\n      jump\t// in\n    tag_286:\n        /* \"#utility.yul\":7141:7223   */\n      swap3\n      pop\n      swap3\n      pop\n        /* \"#utility.yul\":6937:7233   */\n      pop\n        /* \"#utility.yul\":6713:7240   */\n      swap3\n      pop\n      swap3\n      swap1\n      pop\n      jump\t// out\n        /* \"#utility.yul\":7246:7367   */\n    tag_172:\n        /* \"#utility.yul\":7308:7315   */\n      0x00\n        /* \"#utility.yul\":7337:7361   */\n      tag_288\n        /* \"#utility.yul\":7355:7360   */\n      dup3\n        /* \"#utility.yul\":7337:7361   */\n      tag_170\n      jump\t// in\n    tag_288:\n        /* \"#utility.yul\":7326:7361   */\n      swap1\n      pop\n        /* \"#utility.yul\":7246:7367   */\n      swap2\n      swap1\n      pop\n      jump\t// out\n        /* \"#utility.yul\":7373:7545   */\n    tag_173:\n        /* \"#utility.yul\":7471:7520   */\n      tag_290\n        /* \"#utility.yul\":7514:7519   */\n      dup2\n        /* \"#utility.yul\":7471:7520   */\n      tag_172\n      jump\t// in\n    tag_290:\n        /* \"#utility.yul\":7464:7469   */\n      dup2\n        /* \"#utility.yul\":7461:7521   */\n      eq\n        /* \"#utility.yul\":7451:7539   */\n      tag_291\n      jumpi\n        /* \"#utility.yul\":7535:7536   */\n      0x00\n        /* \"#utility.yul\":7532:7533   */\n      dup1\n        /* \"#utility.yul\":7525:7537   */\n      revert\n        /* \"#utility.yul\":7451:7539   */\n    tag_291:\n        /* \"#utility.yul\":7373:7545   */\n      pop\n      jump\t// out\n        /* \"#utility.yul\":7551:7740   */\n    tag_174:\n        /* \"#utility.yul\":7622:7627   */\n      0x00\n        /* \"#utility.yul\":7660:7666   */\n      dup2\n        /* \"#utility.yul\":7647:7667   */\n      calldataload\n        /* \"#utility.yul\":7638:7667   */\n      swap1\n      pop\n        /* \"#utility.yul\":7676:7734   */\n      tag_293\n        /* \"#utility.yul\":7728:7733   */\n      dup2\n        /* \"#utility.yul\":7676:7734   */\n      tag_173\n      jump\t// in\n    tag_293:\n        /* \"#utility.yul\":7551:7740   */\n      swap3\n      swap2\n      pop\n      pop\n      jump\t// out\n        /* \"#utility.yul\":7746:8268   */\n    tag_54:\n        /* \"#utility.yul\":7838:7844   */\n      0x00\n        /* \"#utility.yul\":7846:7852   */\n      dup1\n        /* \"#utility.yul\":7895:7897   */\n      0x40\n        /* \"#utility.yul\":7883:7892   */\n      dup4\n        /* \"#utility.yul\":7874:7881   */\n      dup6\n        /* \"#utility.yul\":7870:7893   */\n      sub\n        /* \"#utility.yul\":7866:7898   */\n      slt\n        /* \"#utility.yul\":7863:7982   */\n      iszero\n      tag_295\n      jumpi\n        /* \"#utility.yul\":7901:7980   */\n      tag_296\n      tag_150\n      jump\t// in\n    tag_296:\n        /* \"#utility.yul\":7863:7982   */\n    tag_295:\n        /* \"#utility.yul\":8021:8022   */\n      0x00\n        /* \"#utility.yul\":8046:8098   */\n      tag_297\n        /* \"#utility.yul\":8090:8097   */\n      dup6\n        /* \"#utility.yul\":8081:8087   */\n      dup3\n        /* \"#utility.yul\":8070:8079   */\n      dup7\n        /* \"#utility.yul\":8066:8088   */\n      add\n        /* \"#utility.yul\":8046:8098   */\n      tag_163\n      jump\t// in\n    tag_297:\n        /* \"#utility.yul\":8036:8098   */\n      swap3\n      pop\n        /* \"#utility.yul\":7992:8108   */\n      pop\n        /* \"#utility.yul\":8147:8149   */\n      0x20\n        /* \"#utility.yul\":8173:8251   */\n      tag_298\n        /* \"#utility.yul\":8243:8250   */\n      dup6\n        /* \"#utility.yul\":8234:8240   */\n      dup3\n        /* \"#utility.yul\":8223:8232   */\n      dup7\n        /* \"#utility.yul\":8219:8241   */\n      add\n        /* \"#utility.yul\":8173:8251   */\n      tag_174\n      jump\t// in\n    tag_298:\n        /* \"#utility.yul\":8163:8251   */\n      swap2\n      pop\n        /* \"#utility.yul\":8118:8261   */\n      pop\n        /* \"#utility.yul\":7746:8268   */\n      swap3\n      pop\n      swap3\n      swap1\n      pop\n      jump\t// out\n        /* \"#utility.yul\":8274:8396   */\n    tag_175:\n        /* \"#utility.yul\":8347:8371   */\n      tag_300\n        /* \"#utility.yul\":8365:8370   */\n      dup2\n        /* \"#utility.yul\":8347:8371   */\n      tag_170\n      jump\t// in\n    tag_300:\n        /* \"#utility.yul\":8340:8345   */\n      dup2\n        /* \"#utility.yul\":8337:8372   */\n      eq\n        /* \"#utility.yul\":8327:8390   */\n      tag_301\n      jumpi\n        /* \"#utility.yul\":8386:8387   */\n      0x00\n        /* \"#utility.yul\":8383:8384   */\n      dup1\n        /* \"#utility.yul\":8376:8388   */\n      revert\n        /* \"#utility.yul\":8327:8390   */\n    tag_301:\n        /* \"#utility.yul\":8274:8396   */\n      pop\n      jump\t// out\n        /* \"#utility.yul\":8402:8541   */\n    tag_176:\n        /* \"#utility.yul\":8448:8453   */\n      0x00\n        /* \"#utility.yul\":8486:8492   */\n      dup2\n        /* \"#utility.yul\":8473:8493   */\n      calldataload\n        /* \"#utility.yul\":8464:8493   */\n      swap1\n      pop\n        /* \"#utility.yul\":8502:8535   */\n      tag_303\n        /* \"#utility.yul\":8529:8534   */\n      dup2\n        /* \"#utility.yul\":8502:8535   */\n      tag_175\n      jump\t// in\n    tag_303:\n        /* \"#utility.yul\":8402:8541   */\n      swap3\n      swap2\n      pop\n      pop\n      jump\t// out\n        /* \"#utility.yul\":8547:8876   */\n    tag_61:\n        /* \"#utility.yul\":8606:8612   */\n      0x00\n        /* \"#utility.yul\":8655:8657   */\n      0x20\n        /* \"#utility.yul\":8643:8652   */\n      dup3\n        /* \"#utility.yul\":8634:8641   */\n      dup5\n        /* \"#utility.yul\":8630:8653   */\n      sub\n        /* \"#utility.yul\":8626:8658   */\n      slt\n        /* \"#utility.yul\":8623:8742   */\n      iszero\n      tag_305\n      jumpi\n        /* \"#utility.yul\":8661:8740   */\n      tag_306\n      tag_150\n      jump\t// in\n    tag_306:\n        /* \"#utility.yul\":8623:8742   */\n    tag_305:\n        /* \"#utility.yul\":8781:8782   */\n      0x00\n        /* \"#utility.yul\":8806:8859   */\n      tag_307\n        /* \"#utility.yul\":8851:8858   */\n      dup5\n        /* \"#utility.yul\":8842:8848   */\n      dup3\n        /* \"#utility.yul\":8831:8840   */\n      dup6\n        /* \"#utility.yul\":8827:8849   */\n      add\n        /* \"#utility.yul\":8806:8859   */\n      tag_176\n      jump\t// in\n    tag_307:\n        /* \"#utility.yul\":8796:8859   */\n      swap2\n      pop\n        /* \"#utility.yul\":8752:8869   */\n      pop\n        /* \"#utility.yul\":8547:8876   */\n      swap3\n      swap2\n      pop\n      pop\n      jump\t// out\n        /* \"#utility.yul\":8882:9029   */\n    tag_177:\n        /* \"#utility.yul\":8983:8994   */\n      0x00\n        /* \"#utility.yul\":9020:9023   */\n      dup2\n        /* \"#utility.yul\":9005:9023   */\n      swap1\n      pop\n        /* \"#utility.yul\":8882:9029   */\n      swap3\n      swap2\n      pop\n      pop\n      jump\t// out\n        /* \"#utility.yul\":9035:9181   */\n    tag_178:\n        /* \"#utility.yul\":9132:9138   */\n      dup3\n        /* \"#utility.yul\":9127:9130   */\n      dup2\n        /* \"#utility.yul\":9122:9125   */\n      dup4\n        /* \"#utility.yul\":9109:9139   */\n      calldatacopy\n        /* \"#utility.yul\":9173:9174   */\n      0x00\n        /* \"#utility.yul\":9164:9170   */\n      dup4\n        /* \"#utility.yul\":9159:9162   */\n      dup4\n        /* \"#utility.yul\":9155:9171   */\n      add\n        /* \"#utility.yul\":9148:9175   */\n      mstore\n        /* \"#utility.yul\":9035:9181   */\n      pop\n      pop\n      pop\n      jump\t// out\n        /* \"#utility.yul\":9209:9536   */\n    tag_179:\n        /* \"#utility.yul\":9323:9326   */\n      0x00\n        /* \"#utility.yul\":9344:9432   */\n      tag_311\n        /* \"#utility.yul\":9425:9431   */\n      dup4\n        /* \"#utility.yul\":9420:9423   */\n      dup6\n        /* \"#utility.yul\":9344:9432   */\n      tag_177\n      jump\t// in\n    tag_311:\n        /* \"#utility.yul\":9337:9432   */\n      swap4\n      pop\n        /* \"#utility.yul\":9442:9498   */\n      tag_312\n        /* \"#utility.yul\":9491:9497   */\n      dup4\n        /* \"#utility.yul\":9486:9489   */\n      dup6\n        /* \"#utility.yul\":9479:9484   */\n      dup5\n        /* \"#utility.yul\":9442:9498   */\n      tag_178\n      jump\t// in\n    tag_312:\n        /* \"#utility.yul\":9523:9529   */\n      dup3\n        /* \"#utility.yul\":9518:9521   */\n      dup5\n        /* \"#utility.yul\":9514:9530   */\n      add\n        /* \"#utility.yul\":9507:9530   */\n      swap1\n      pop\n        /* \"#utility.yul\":9209:9536   */\n      swap4\n      swap3\n      pop\n      pop\n      pop\n      jump\t// out\n        /* \"#utility.yul\":9542:9833   */\n    tag_70:\n        /* \"#utility.yul\":9682:9685   */\n      0x00\n        /* \"#utility.yul\":9704:9807   */\n      tag_314\n        /* \"#utility.yul\":9803:9806   */\n      dup3\n        /* \"#utility.yul\":9794:9800   */\n      dup5\n        /* \"#utility.yul\":9786:9792   */\n      dup7\n        /* \"#utility.yul\":9704:9807   */\n      tag_179\n      jump\t// in\n    tag_314:\n        /* \"#utility.yul\":9697:9807   */\n      swap2\n      pop\n        /* \"#utility.yul\":9824:9827   */\n      dup2\n        /* \"#utility.yul\":9817:9827   */\n      swap1\n      pop\n        /* \"#utility.yul\":9542:9833   */\n      swap4\n      swap3\n      pop\n      pop\n      pop\n      jump\t// out\n        /* \"#utility.yul\":9839:9982   */\n    tag_180:\n        /* \"#utility.yul\":9896:9901   */\n      0x00\n        /* \"#utility.yul\":9927:9933   */\n      dup2\n        /* \"#utility.yul\":9921:9934   */\n      mload\n        /* \"#utility.yul\":9912:9934   */\n      swap1\n      pop\n        /* \"#utility.yul\":9943:9976   */\n      tag_316\n        /* \"#utility.yul\":9970:9975   */\n      dup2\n        /* \"#utility.yul\":9943:9976   */\n      tag_157\n      jump\t// in\n    tag_316:\n        /* \"#utility.yul\":9839:9982   */\n      swap3\n      swap2\n      pop\n      pop\n      jump\t// out\n        /* \"#utility.yul\":9988:10339   */\n    tag_74:\n        /* \"#utility.yul\":10058:10064   */\n      0x00\n        /* \"#utility.yul\":10107:10109   */\n      0x20\n        /* \"#utility.yul\":10095:10104   */\n      dup3\n        /* \"#utility.yul\":10086:10093   */\n      dup5\n        /* \"#utility.yul\":10082:10105   */\n      sub\n        /* \"#utility.yul\":10078:10110   */\n      slt\n        /* \"#utility.yul\":10075:10194   */\n      iszero\n      tag_318\n      jumpi\n        /* \"#utility.yul\":10113:10192   */\n      tag_319\n      tag_150\n      jump\t// in\n    tag_319:\n        /* \"#utility.yul\":10075:10194   */\n    tag_318:\n        /* \"#utility.yul\":10233:10234   */\n      0x00\n        /* \"#utility.yul\":10258:10322   */\n      tag_320\n        /* \"#utility.yul\":10314:10321   */\n      dup5\n        /* \"#utility.yul\":10305:10311   */\n      dup3\n        /* \"#utility.yul\":10294:10303   */\n      dup6\n        /* \"#utility.yul\":10290:10312   */\n      add\n        /* \"#utility.yul\":10258:10322   */\n      tag_180\n      jump\t// in\n    tag_320:\n        /* \"#utility.yul\":10248:10322   */\n      swap2\n      pop\n        /* \"#utility.yul\":10204:10332   */\n      pop\n        /* \"#utility.yul\":9988:10339   */\n      swap3\n      swap2\n      pop\n      pop\n      jump\t// out\n        /* \"#utility.yul\":10345:10513   */\n    tag_181:\n        /* \"#utility.yul\":10428:10439   */\n      0x00\n        /* \"#utility.yul\":10462:10468   */\n      dup3\n        /* \"#utility.yul\":10457:10460   */\n      dup3\n        /* \"#utility.yul\":10450:10469   */\n      mstore\n        /* \"#utility.yul\":10502:10506   */\n      0x20\n        /* \"#utility.yul\":10497:10500   */\n      dup3\n        /* \"#utility.yul\":10493:10507   */\n      add\n        /* \"#utility.yul\":10478:10507   */\n      swap1\n      pop\n        /* \"#utility.yul\":10345:10513   */\n      swap3\n      swap2\n      pop\n      pop\n      jump\t// out\n        /* \"#utility.yul\":10519:10621   */\n    tag_182:\n        /* \"#utility.yul\":10560:10566   */\n      0x00\n        /* \"#utility.yul\":10611:10613   */\n      0x1f\n        /* \"#utility.yul\":10607:10614   */\n      not\n        /* \"#utility.yul\":10602:10604   */\n      0x1f\n        /* \"#utility.yul\":10595:10600   */\n      dup4\n        /* \"#utility.yul\":10591:10605   */\n      add\n        /* \"#utility.yul\":10587:10615   */\n      and\n        /* \"#utility.yul\":10577:10615   */\n      swap1\n      pop\n        /* \"#utility.yul\":10519:10621   */\n      swap2\n      swap1\n      pop\n      jump\t// out\n        /* \"#utility.yul\":10649:10963   */\n    tag_183:\n        /* \"#utility.yul\":10745:10748   */\n      0x00\n        /* \"#utility.yul\":10766:10836   */\n      tag_324\n        /* \"#utility.yul\":10829:10835   */\n      dup4\n        /* \"#utility.yul\":10824:10827   */\n      dup6\n        /* \"#utility.yul\":10766:10836   */\n      tag_181\n      jump\t// in\n    tag_324:\n        /* \"#utility.yul\":10759:10836   */\n      swap4\n      pop\n        /* \"#utility.yul\":10846:10902   */\n      tag_325\n        /* \"#utility.yul\":10895:10901   */\n      dup4\n        /* \"#utility.yul\":10890:10893   */\n      dup6\n        /* \"#utility.yul\":10883:10888   */\n      dup5\n        /* \"#utility.yul\":10846:10902   */\n      tag_178\n      jump\t// in\n    tag_325:\n        /* \"#utility.yul\":10927:10956   */\n      tag_326\n        /* \"#utility.yul\":10949:10955   */\n      dup4\n        /* \"#utility.yul\":10927:10956   */\n      tag_182\n      jump\t// in\n    tag_326:\n        /* \"#utility.yul\":10922:10925   */\n      dup5\n        /* \"#utility.yul\":10918:10957   */\n      add\n        /* \"#utility.yul\":10911:10957   */\n      swap1\n      pop\n        /* \"#utility.yul\":10649:10963   */\n      swap4\n      swap3\n      pop\n      pop\n      pop\n      jump\t// out\n        /* \"#utility.yul\":10969:11087   */\n    tag_184:\n        /* \"#utility.yul\":11056:11080   */\n      tag_328\n        /* \"#utility.yul\":11074:11079   */\n      dup2\n        /* \"#utility.yul\":11056:11080   */\n      tag_156\n      jump\t// in\n    tag_328:\n        /* \"#utility.yul\":11051:11054   */\n      dup3\n        /* \"#utility.yul\":11044:11081   */\n      mstore\n        /* \"#utility.yul\":10969:11087   */\n      pop\n      pop\n      jump\t// out\n        /* \"#utility.yul\":11093:11642   */\n    tag_76:\n        /* \"#utility.yul\":11270:11274   */\n      0x00\n        /* \"#utility.yul\":11308:11310   */\n      0x60\n        /* \"#utility.yul\":11297:11306   */\n      dup3\n        /* \"#utility.yul\":11293:11311   */\n      add\n        /* \"#utility.yul\":11285:11311   */\n      swap1\n      pop\n        /* \"#utility.yul\":11357:11366   */\n      dup2\n        /* \"#utility.yul\":11351:11355   */\n      dup2\n        /* \"#utility.yul\":11347:11367   */\n      sub\n        /* \"#utility.yul\":11343:11344   */\n      0x00\n        /* \"#utility.yul\":11332:11341   */\n      dup4\n        /* \"#utility.yul\":11328:11345   */\n      add\n        /* \"#utility.yul\":11321:11368   */\n      mstore\n        /* \"#utility.yul\":11385:11471   */\n      tag_330\n        /* \"#utility.yul\":11466:11470   */\n      dup2\n        /* \"#utility.yul\":11457:11463   */\n      dup7\n        /* \"#utility.yul\":11449:11455   */\n      dup9\n        /* \"#utility.yul\":11385:11471   */\n      tag_183\n      jump\t// in\n    tag_330:\n        /* \"#utility.yul\":11377:11471   */\n      swap1\n      pop\n        /* \"#utility.yul\":11481:11553   */\n      tag_331\n        /* \"#utility.yul\":11549:11551   */\n      0x20\n        /* \"#utility.yul\":11538:11547   */\n      dup4\n        /* \"#utility.yul\":11534:11552   */\n      add\n        /* \"#utility.yul\":11525:11531   */\n      dup6\n        /* \"#utility.yul\":11481:11553   */\n      tag_184\n      jump\t// in\n    tag_331:\n        /* \"#utility.yul\":11563:11635   */\n      tag_332\n        /* \"#utility.yul\":11631:11633   */\n      0x40\n        /* \"#utility.yul\":11620:11629   */\n      dup4\n        /* \"#utility.yul\":11616:11634   */\n      add\n        /* \"#utility.yul\":11607:11613   */\n      dup5\n        /* \"#utility.yul\":11563:11635   */\n      tag_184\n      jump\t// in\n    tag_332:\n        /* \"#utility.yul\":11093:11642   */\n      swap6\n      swap5\n      pop\n      pop\n      pop\n      pop\n      pop\n      jump\t// out\n        /* \"#utility.yul\":11648:11765   */\n    tag_185:\n        /* \"#utility.yul\":11757:11758   */\n      0x00\n        /* \"#utility.yul\":11754:11755   */\n      dup1\n        /* \"#utility.yul\":11747:11759   */\n      revert\n        /* \"#utility.yul\":11771:11888   */\n    tag_186:\n        /* \"#utility.yul\":11880:11881   */\n      0x00\n        /* \"#utility.yul\":11877:11878   */\n      dup1\n        /* \"#utility.yul\":11870:11882   */\n      revert\n        /* \"#utility.yul\":11894:12011   */\n    tag_187:\n        /* \"#utility.yul\":12003:12004   */\n      0x00\n        /* \"#utility.yul\":12000:12001   */\n      dup1\n        /* \"#utility.yul\":11993:12005   */\n      revert\n        /* \"#utility.yul\":12017:12741   */\n    tag_83:\n        /* \"#utility.yul\":12094:12098   */\n      0x00\n        /* \"#utility.yul\":12100:12106   */\n      dup1\n        /* \"#utility.yul\":12156:12167   */\n      dup4\n        /* \"#utility.yul\":12143:12168   */\n      calldataload\n        /* \"#utility.yul\":12256:12257   */\n      0x01\n        /* \"#utility.yul\":12250:12254   */\n      0x20\n        /* \"#utility.yul\":12246:12258   */\n      sub\n        /* \"#utility.yul\":12235:12243   */\n      dup5\n        /* \"#utility.yul\":12219:12233   */\n      calldatasize\n        /* \"#utility.yul\":12215:12244   */\n      sub\n        /* \"#utility.yul\":12211:12259   */\n      sub\n        /* \"#utility.yul\":12191:12209   */\n      dup2\n        /* \"#utility.yul\":12187:12260   */\n      slt\n        /* \"#utility.yul\":12177:12345   */\n      tag_337\n      jumpi\n        /* \"#utility.yul\":12264:12343   */\n      tag_338\n      tag_185\n      jump\t// in\n    tag_338:\n        /* \"#utility.yul\":12177:12345   */\n    tag_337:\n        /* \"#utility.yul\":12376:12394   */\n      dup1\n        /* \"#utility.yul\":12366:12374   */\n      dup5\n        /* \"#utility.yul\":12362:12395   */\n      add\n        /* \"#utility.yul\":12354:12395   */\n      swap3\n      pop\n        /* \"#utility.yul\":12428:12432   */\n      dup3\n        /* \"#utility.yul\":12415:12433   */\n      calldataload\n        /* \"#utility.yul\":12405:12433   */\n      swap2\n      pop\n        /* \"#utility.yul\":12456:12474   */\n      0xffffffffffffffff\n        /* \"#utility.yul\":12448:12454   */\n      dup3\n        /* \"#utility.yul\":12445:12475   */\n      gt\n        /* \"#utility.yul\":12442:12559   */\n      iszero\n      tag_339\n      jumpi\n        /* \"#utility.yul\":12478:12557   */\n      tag_340\n      tag_186\n      jump\t// in\n    tag_340:\n        /* \"#utility.yul\":12442:12559   */\n    tag_339:\n        /* \"#utility.yul\":12586:12588   */\n      0x20\n        /* \"#utility.yul\":12580:12584   */\n      dup4\n        /* \"#utility.yul\":12576:12589   */\n      add\n        /* \"#utility.yul\":12568:12589   */\n      swap3\n      pop\n        /* \"#utility.yul\":12643:12647   */\n      0x01\n        /* \"#utility.yul\":12635:12641   */\n      dup3\n        /* \"#utility.yul\":12631:12648   */\n      mul\n        /* \"#utility.yul\":12615:12629   */\n      calldatasize\n        /* \"#utility.yul\":12611:12649   */\n      sub\n        /* \"#utility.yul\":12605:12609   */\n      dup4\n        /* \"#utility.yul\":12601:12650   */\n      sgt\n        /* \"#utility.yul\":12598:12734   */\n      iszero\n      tag_341\n      jumpi\n        /* \"#utility.yul\":12653:12732   */\n      tag_342\n      tag_187\n      jump\t// in\n    tag_342:\n        /* \"#utility.yul\":12598:12734   */\n    tag_341:\n        /* \"#utility.yul\":12107:12741   */\n      pop\n        /* \"#utility.yul\":12017:12741   */\n      swap3\n      pop\n      swap3\n      swap1\n      pop\n      jump\t// out\n        /* \"#utility.yul\":12747:12864   */\n    tag_188:\n        /* \"#utility.yul\":12856:12857   */\n      0x00\n        /* \"#utility.yul\":12853:12854   */\n      dup1\n        /* \"#utility.yul\":12846:12858   */\n      revert\n        /* \"#utility.yul\":12870:12987   */\n    tag_189:\n        /* \"#utility.yul\":12979:12980   */\n      0x00\n        /* \"#utility.yul\":12976:12977   */\n      dup1\n        /* \"#utility.yul\":12969:12981   */\n      revert\n        /* \"#utility.yul\":12993:13110   */\n    tag_190:\n        /* \"#utility.yul\":13102:13103   */\n      0x00\n        /* \"#utility.yul\":13099:13100   */\n      dup1\n        /* \"#utility.yul\":13092:13104   */\n      revert\n        /* \"#utility.yul\":13116:13827   */\n    tag_191:\n        /* \"#utility.yul\":13180:13185   */\n      0x00\n        /* \"#utility.yul\":13187:13193   */\n      dup1\n        /* \"#utility.yul\":13243:13246   */\n      dup4\n        /* \"#utility.yul\":13230:13247   */\n      calldataload\n        /* \"#utility.yul\":13335:13336   */\n      0x01\n        /* \"#utility.yul\":13329:13333   */\n      0x20\n        /* \"#utility.yul\":13325:13337   */\n      sub\n        /* \"#utility.yul\":13314:13322   */\n      dup5\n        /* \"#utility.yul\":13298:13312   */\n      calldatasize\n        /* \"#utility.yul\":13294:13323   */\n      sub\n        /* \"#utility.yul\":13290:13338   */\n      sub\n        /* \"#utility.yul\":13270:13288   */\n      dup2\n        /* \"#utility.yul\":13266:13339   */\n      slt\n        /* \"#utility.yul\":13256:13424   */\n      tag_347\n      jumpi\n        /* \"#utility.yul\":13343:13422   */\n      tag_348\n      tag_190\n      jump\t// in\n    tag_348:\n        /* \"#utility.yul\":13256:13424   */\n    tag_347:\n        /* \"#utility.yul\":13466:13474   */\n      dup4\n        /* \"#utility.yul\":13446:13464   */\n      dup2\n        /* \"#utility.yul\":13442:13475   */\n      add\n        /* \"#utility.yul\":13433:13475   */\n      swap3\n      pop\n        /* \"#utility.yul\":13508:13513   */\n      dup3\n        /* \"#utility.yul\":13495:13514   */\n      calldataload\n        /* \"#utility.yul\":13485:13514   */\n      swap2\n      pop\n        /* \"#utility.yul\":13543:13547   */\n      0x20\n        /* \"#utility.yul\":13536:13541   */\n      dup4\n        /* \"#utility.yul\":13532:13548   */\n      add\n        /* \"#utility.yul\":13523:13548   */\n      swap3\n      pop\n        /* \"#utility.yul\":13571:13589   */\n      0xffffffffffffffff\n        /* \"#utility.yul\":13563:13569   */\n      dup3\n        /* \"#utility.yul\":13560:13590   */\n      gt\n        /* \"#utility.yul\":13557:13674   */\n      iszero\n      tag_349\n      jumpi\n        /* \"#utility.yul\":13593:13672   */\n      tag_350\n      tag_188\n      jump\t// in\n    tag_350:\n        /* \"#utility.yul\":13557:13674   */\n    tag_349:\n        /* \"#utility.yul\":13729:13733   */\n      0x01\n        /* \"#utility.yul\":13721:13727   */\n      dup3\n        /* \"#utility.yul\":13717:13734   */\n      mul\n        /* \"#utility.yul\":13701:13715   */\n      calldatasize\n        /* \"#utility.yul\":13697:13735   */\n      sub\n        /* \"#utility.yul\":13690:13695   */\n      dup4\n        /* \"#utility.yul\":13686:13736   */\n      sgt\n        /* \"#utility.yul\":13683:13820   */\n      iszero\n      tag_351\n      jumpi\n        /* \"#utility.yul\":13739:13818   */\n      tag_352\n      tag_189\n      jump\t// in\n    tag_352:\n        /* \"#utility.yul\":13683:13820   */\n    tag_351:\n        /* \"#utility.yul\":13194:13827   */\n      pop\n        /* \"#utility.yul\":13116:13827   */\n      swap3\n      pop\n      swap3\n      swap1\n      pop\n      jump\t// out\n        /* \"#utility.yul\":13833:13991   */\n    tag_192:\n        /* \"#utility.yul\":13906:13917   */\n      0x00\n        /* \"#utility.yul\":13940:13946   */\n      dup3\n        /* \"#utility.yul\":13935:13938   */\n      dup3\n        /* \"#utility.yul\":13928:13947   */\n      mstore\n        /* \"#utility.yul\":13980:13984   */\n      0x20\n        /* \"#utility.yul\":13975:13978   */\n      dup3\n        /* \"#utility.yul\":13971:13985   */\n      add\n        /* \"#utility.yul\":13956:13985   */\n      swap1\n      pop\n        /* \"#utility.yul\":13833:13991   */\n      swap3\n      swap2\n      pop\n      pop\n      jump\t// out\n        /* \"#utility.yul\":14019:14313   */\n    tag_193:\n        /* \"#utility.yul\":14105:14108   */\n      0x00\n        /* \"#utility.yul\":14126:14186   */\n      tag_355\n        /* \"#utility.yul\":14179:14185   */\n      dup4\n        /* \"#utility.yul\":14174:14177   */\n      dup6\n        /* \"#utility.yul\":14126:14186   */\n      tag_192\n      jump\t// in\n    tag_355:\n        /* \"#utility.yul\":14119:14186   */\n      swap4\n      pop\n        /* \"#utility.yul\":14196:14252   */\n      tag_356\n        /* \"#utility.yul\":14245:14251   */\n      dup4\n        /* \"#utility.yul\":14240:14243   */\n      dup6\n        /* \"#utility.yul\":14233:14238   */\n      dup5\n        /* \"#utility.yul\":14196:14252   */\n      tag_178\n      jump\t// in\n    tag_356:\n        /* \"#utility.yul\":14277:14306   */\n      tag_357\n        /* \"#utility.yul\":14299:14305   */\n      dup4\n        /* \"#utility.yul\":14277:14306   */\n      tag_182\n      jump\t// in\n    tag_357:\n        /* \"#utility.yul\":14272:14275   */\n      dup5\n        /* \"#utility.yul\":14268:14307   */\n      add\n        /* \"#utility.yul\":14261:14307   */\n      swap1\n      pop\n        /* \"#utility.yul\":14019:14313   */\n      swap4\n      swap3\n      pop\n      pop\n      pop\n      jump\t// out\n        /* \"#utility.yul\":14319:14441   */\n    tag_194:\n        /* \"#utility.yul\":14371:14376   */\n      0x00\n        /* \"#utility.yul\":14396:14435   */\n      tag_359\n        /* \"#utility.yul\":14431:14433   */\n      0x20\n        /* \"#utility.yul\":14426:14429   */\n      dup5\n        /* \"#utility.yul\":14422:14434   */\n      add\n        /* \"#utility.yul\":14417:14420   */\n      dup5\n        /* \"#utility.yul\":14396:14435   */\n      tag_158\n      jump\t// in\n    tag_359:\n        /* \"#utility.yul\":14387:14435   */\n      swap1\n      pop\n        /* \"#utility.yul\":14319:14441   */\n      swap3\n      swap2\n      pop\n      pop\n      jump\t// out\n        /* \"#utility.yul\":14447:14555   */\n    tag_195:\n        /* \"#utility.yul\":14524:14548   */\n      tag_361\n        /* \"#utility.yul\":14542:14547   */\n      dup2\n        /* \"#utility.yul\":14524:14548   */\n      tag_156\n      jump\t// in\n    tag_361:\n        /* \"#utility.yul\":14519:14522   */\n      dup3\n        /* \"#utility.yul\":14512:14549   */\n      mstore\n        /* \"#utility.yul\":14447:14555   */\n      pop\n      pop\n      jump\t// out\n        /* \"#utility.yul\":14601:15307   */\n    tag_196:\n        /* \"#utility.yul\":14720:14723   */\n      0x00\n        /* \"#utility.yul\":14756:14760   */\n      0x40\n        /* \"#utility.yul\":14751:14754   */\n      dup4\n        /* \"#utility.yul\":14747:14761   */\n      add\n        /* \"#utility.yul\":14840:14901   */\n      tag_363\n        /* \"#utility.yul\":14895:14899   */\n      0x00\n        /* \"#utility.yul\":14888:14893   */\n      dup5\n        /* \"#utility.yul\":14884:14900   */\n      add\n        /* \"#utility.yul\":14877:14882   */\n      dup5\n        /* \"#utility.yul\":14840:14901   */\n      tag_191\n      jump\t// in\n    tag_363:\n        /* \"#utility.yul\":14948:14951   */\n      dup6\n        /* \"#utility.yul\":14942:14946   */\n      dup4\n        /* \"#utility.yul\":14938:14952   */\n      sub\n        /* \"#utility.yul\":14931:14935   */\n      0x00\n        /* \"#utility.yul\":14926:14929   */\n      dup8\n        /* \"#utility.yul\":14922:14936   */\n      add\n        /* \"#utility.yul\":14915:14953   */\n      mstore\n        /* \"#utility.yul\":14974:15061   */\n      tag_364\n        /* \"#utility.yul\":15056:15060   */\n      dup4\n        /* \"#utility.yul\":15042:15054   */\n      dup3\n        /* \"#utility.yul\":15028:15040   */\n      dup5\n        /* \"#utility.yul\":14974:15061   */\n      tag_193\n      jump\t// in\n    tag_364:\n        /* \"#utility.yul\":14966:15061   */\n      swap3\n      pop\n        /* \"#utility.yul\":14771:15072   */\n      pop\n      pop\n        /* \"#utility.yul\":15144:15194   */\n      tag_365\n        /* \"#utility.yul\":15188:15192   */\n      0x20\n        /* \"#utility.yul\":15181:15186   */\n      dup5\n        /* \"#utility.yul\":15177:15193   */\n      add\n        /* \"#utility.yul\":15170:15175   */\n      dup5\n        /* \"#utility.yul\":15144:15194   */\n      tag_194\n      jump\t// in\n    tag_365:\n        /* \"#utility.yul\":15207:15270   */\n      tag_366\n        /* \"#utility.yul\":15264:15268   */\n      0x20\n        /* \"#utility.yul\":15259:15262   */\n      dup7\n        /* \"#utility.yul\":15255:15269   */\n      add\n        /* \"#utility.yul\":15241:15253   */\n      dup3\n        /* \"#utility.yul\":15207:15270   */\n      tag_195\n      jump\t// in\n    tag_366:\n        /* \"#utility.yul\":15082:15280   */\n      pop\n        /* \"#utility.yul\":15297:15301   */\n      dup1\n        /* \"#utility.yul\":15290:15301   */\n      swap2\n      pop\n        /* \"#utility.yul\":14725:15307   */\n      pop\n        /* \"#utility.yul\":14601:15307   */\n      swap3\n      swap2\n      pop\n      pop\n      jump\t// out\n        /* \"#utility.yul\":15313:15686   */\n    tag_85:\n        /* \"#utility.yul\":15456:15460   */\n      0x00\n        /* \"#utility.yul\":15494:15496   */\n      0x20\n        /* \"#utility.yul\":15483:15492   */\n      dup3\n        /* \"#utility.yul\":15479:15497   */\n      add\n        /* \"#utility.yul\":15471:15497   */\n      swap1\n      pop\n        /* \"#utility.yul\":15543:15552   */\n      dup2\n        /* \"#utility.yul\":15537:15541   */\n      dup2\n        /* \"#utility.yul\":15533:15553   */\n      sub\n        /* \"#utility.yul\":15529:15530   */\n      0x00\n        /* \"#utility.yul\":15518:15527   */\n      dup4\n        /* \"#utility.yul\":15514:15531   */\n      add\n        /* \"#utility.yul\":15507:15554   */\n      mstore\n        /* \"#utility.yul\":15571:15679   */\n      tag_368\n        /* \"#utility.yul\":15674:15678   */\n      dup2\n        /* \"#utility.yul\":15665:15671   */\n      dup5\n        /* \"#utility.yul\":15571:15679   */\n      tag_196\n      jump\t// in\n    tag_368:\n        /* \"#utility.yul\":15563:15679   */\n      swap1\n      pop\n        /* \"#utility.yul\":15313:15686   */\n      swap3\n      swap2\n      pop\n      pop\n      jump\t// out\n        /* \"#utility.yul\":15692:15807   */\n    tag_197:\n        /* \"#utility.yul\":15777:15800   */\n      tag_370\n        /* \"#utility.yul\":15794:15799   */\n      dup2\n        /* \"#utility.yul\":15777:15800   */\n      tag_161\n      jump\t// in\n    tag_370:\n        /* \"#utility.yul\":15772:15775   */\n      dup3\n        /* \"#utility.yul\":15765:15801   */\n      mstore\n        /* \"#utility.yul\":15692:15807   */\n      pop\n      pop\n      jump\t// out\n        /* \"#utility.yul\":15813:16031   */\n    tag_92:\n        /* \"#utility.yul\":15904:15908   */\n      0x00\n        /* \"#utility.yul\":15942:15944   */\n      0x20\n        /* \"#utility.yul\":15931:15940   */\n      dup3\n        /* \"#utility.yul\":15927:15945   */\n      add\n        /* \"#utility.yul\":15919:15945   */\n      swap1\n      pop\n        /* \"#utility.yul\":15955:16024   */\n      tag_372\n        /* \"#utility.yul\":16021:16022   */\n      0x00\n        /* \"#utility.yul\":16010:16019   */\n      dup4\n        /* \"#utility.yul\":16006:16023   */\n      add\n        /* \"#utility.yul\":15997:16003   */\n      dup5\n        /* \"#utility.yul\":15955:16024   */\n      tag_197\n      jump\t// in\n    tag_372:\n        /* \"#utility.yul\":15813:16031   */\n      swap3\n      swap2\n      pop\n      pop\n      jump\t// out\n        /* \"#utility.yul\":16037:16154   */\n    tag_198:\n        /* \"#utility.yul\":16146:16147   */\n      0x00\n        /* \"#utility.yul\":16143:16144   */\n      dup1\n        /* \"#utility.yul\":16136:16148   */\n      revert\n        /* \"#utility.yul\":16160:16277   */\n    tag_199:\n        /* \"#utility.yul\":16269:16270   */\n      0x00\n        /* \"#utility.yul\":16266:16267   */\n      dup1\n        /* \"#utility.yul\":16259:16271   */\n      revert\n        /* \"#utility.yul\":16283:16752   */\n    tag_123:\n        /* \"#utility.yul\":16388:16397   */\n      0x00\n        /* \"#utility.yul\":16399:16408   */\n      dup1\n        /* \"#utility.yul\":16437:16445   */\n      dup6\n        /* \"#utility.yul\":16425:16435   */\n      dup6\n        /* \"#utility.yul\":16422:16446   */\n      gt\n        /* \"#utility.yul\":16419:16530   */\n      iszero\n      tag_376\n      jumpi\n        /* \"#utility.yul\":16449:16528   */\n      tag_377\n      tag_198\n      jump\t// in\n    tag_377:\n        /* \"#utility.yul\":16419:16530   */\n    tag_376:\n        /* \"#utility.yul\":16555:16561   */\n      dup4\n        /* \"#utility.yul\":16545:16553   */\n      dup7\n        /* \"#utility.yul\":16542:16562   */\n      gt\n        /* \"#utility.yul\":16539:16646   */\n      iszero\n      tag_378\n      jumpi\n        /* \"#utility.yul\":16565:16644   */\n      tag_379\n      tag_199\n      jump\t// in\n    tag_379:\n        /* \"#utility.yul\":16539:16646   */\n    tag_378:\n        /* \"#utility.yul\":16696:16697   */\n      0x01\n        /* \"#utility.yul\":16684:16694   */\n      dup6\n        /* \"#utility.yul\":16680:16698   */\n      mul\n        /* \"#utility.yul\":16672:16678   */\n      dup4\n        /* \"#utility.yul\":16668:16699   */\n      add\n        /* \"#utility.yul\":16655:16699   */\n      swap2\n      pop\n        /* \"#utility.yul\":16735:16745   */\n      dup5\n        /* \"#utility.yul\":16725:16733   */\n      dup7\n        /* \"#utility.yul\":16721:16746   */\n      sub\n        /* \"#utility.yul\":16708:16746   */\n      swap1\n      pop\n        /* \"#utility.yul\":16283:16752   */\n      swap5\n      pop\n      swap5\n      swap3\n      pop\n      pop\n      pop\n      jump\t// out\n        /* \"#utility.yul\":16758:16854   */\n    tag_200:\n        /* \"#utility.yul\":16816:16822   */\n      0x00\n        /* \"#utility.yul\":16844:16847   */\n      dup3\n        /* \"#utility.yul\":16834:16847   */\n      swap1\n      pop\n        /* \"#utility.yul\":16758:16854   */\n      swap3\n      swap2\n      pop\n      pop\n      jump\t// out\n        /* \"#utility.yul\":16952:17059   */\n    tag_202:\n        /* \"#utility.yul\":16996:17004   */\n      0x00\n        /* \"#utility.yul\":17046:17051   */\n      dup3\n        /* \"#utility.yul\":17040:17044   */\n      dup3\n        /* \"#utility.yul\":17036:17052   */\n      shl\n        /* \"#utility.yul\":17015:17052   */\n      swap1\n      pop\n        /* \"#utility.yul\":16952:17059   */\n      swap3\n      swap2\n      pop\n      pop\n      jump\t// out\n        /* \"#utility.yul\":17065:17613   */\n    tag_125:\n        /* \"#utility.yul\":17155:17160   */\n      0x00\n        /* \"#utility.yul\":17186:17231   */\n      tag_384\n        /* \"#utility.yul\":17227:17230   */\n      dup4\n        /* \"#utility.yul\":17220:17225   */\n      dup4\n        /* \"#utility.yul\":17186:17231   */\n      tag_200\n      jump\t// in\n    tag_384:\n        /* \"#utility.yul\":17256:17261   */\n      dup3\n        /* \"#utility.yul\":17280:17320   */\n      tag_385\n        /* \"#utility.yul\":17310:17318   */\n      dup2\n        /* \"#utility.yul\":17297:17319   */\n      calldataload\n        /* \"#utility.yul\":17280:17320   */\n      tag_161\n      jump\t// in\n    tag_385:\n        /* \"#utility.yul\":17271:17320   */\n      swap3\n      pop\n        /* \"#utility.yul\":17344:17345   */\n      0x04\n        /* \"#utility.yul\":17336:17342   */\n      dup3\n        /* \"#utility.yul\":17333:17346   */\n      lt\n        /* \"#utility.yul\":17330:17606   */\n      iszero\n      tag_386\n      jumpi\n        /* \"#utility.yul\":17414:17582   */\n      tag_387\n        /* \"#utility.yul\":17498:17564   */\n      0xffffffff00000000000000000000000000000000000000000000000000000000\n        /* \"#utility.yul\":17468:17474   */\n      dup4\n        /* \"#utility.yul\":17465:17466   */\n      0x04\n        /* \"#utility.yul\":17461:17475   */\n      sub\n        /* \"#utility.yul\":17458:17459   */\n      0x08\n        /* \"#utility.yul\":17454:17476   */\n      mul\n        /* \"#utility.yul\":17414:17582   */\n      tag_202\n      jump\t// in\n    tag_387:\n        /* \"#utility.yul\":17391:17396   */\n      dup4\n        /* \"#utility.yul\":17370:17596   */\n      and\n        /* \"#utility.yul\":17361:17596   */\n      swap3\n      pop\n        /* \"#utility.yul\":17330:17606   */\n    tag_386:\n        /* \"#utility.yul\":17161:17613   */\n      pop\n      pop\n        /* \"#utility.yul\":17065:17613   */\n      swap3\n      swap2\n      pop\n      pop\n      jump\t// out\n\n    auxdata: 0xa2646970667358221220f06a14f21d19417e6702b58ce4a4e8d9b181cbabc74c988d22e8a88cb4610f3364736f6c63430008140033\n}\n",
				"bytecode": {
					"linkReferences": {},
					"object": "608060405234801562000010575f80fd5b506040516200179f3803806200179f833981810160405281019062000036919062000221565b805f73ffffffffffffffffffffffffffffffffffffffff168173ffffffffffffffffffffffffffffffffffffffff1603620000aa575f6040517f1e4fbdf7000000000000000000000000000000000000000000000000000000008152600401620000a1919062000262565b60405180910390fd5b620000bb81620000c360201b60201c565b50506200027d565b60015f6101000a81549073ffffffffffffffffffffffffffffffffffffffff0219169055620000f881620000fb60201b60201c565b50565b5f805f9054906101000a900473ffffffffffffffffffffffffffffffffffffffff169050815f806101000a81548173ffffffffffffffffffffffffffffffffffffffff021916908373ffffffffffffffffffffffffffffffffffffffff1602179055508173ffffffffffffffffffffffffffffffffffffffff168173ffffffffffffffffffffffffffffffffffffffff167f8be0079c531659141344cd1fd0a4f28419497f9722a3daafe3b4186f6b6457e060405160405180910390a35050565b5f80fd5b5f73ffffffffffffffffffffffffffffffffffffffff82169050919050565b5f620001eb82620001c0565b9050919050565b620001fd81620001df565b811462000208575f80fd5b50565b5f815190506200021b81620001f2565b92915050565b5f60208284031215620002395762000238620001bc565b5b5f62000248848285016200020b565b91505092915050565b6200025c81620001df565b82525050565b5f602082019050620002775f83018462000251565b92915050565b611514806200028b5f395ff3fe608060405234801561000f575f80fd5b50600436106100cd575f3560e01c806393d237f61161008a578063d0a6af3011610064578063d0a6af30146101d3578063e30c3978146101ef578063f2fde38b1461020d578063fa9381d314610229576100cd565b806393d237f61461016b578063ab750e7514610187578063c17e7ba8146101a3576100cd565b8063092c15bc146100d15780631599ead5146100ed5780633cadf44914610109578063715018a61461013957806379ba5097146101435780638da5cb5b1461014d575b5f80fd5b6100eb60048036038101906100e69190610d5b565b610259565b005b61010760048036038101906101029190610e0e565b610323565b005b610123600480360381019061011e9190610eaa565b6103a1565b6040516101309190610f4f565b60405180910390f35b6101416104fe565b005b61014b610511565b005b61015561059f565b6040516101629190610f88565b60405180910390f35b61018560048036038101906101809190610eaa565b6105c6565b005b6101a1600480360381019061019c9190610fa1565b61073d565b005b6101bd60048036038101906101b89190611012565b6107b7565b6040516101ca9190610f4f565b60405180910390f35b6101ed60048036038101906101e89190611098565b6107e6565b005b6101f7610a3c565b6040516102049190610f88565b60405180910390f35b61022760048036038101906102229190611100565b610a64565b005b610243600480360381019061023e9190610eaa565b610b10565b6040516102509190610f4f565b60405180910390f35b61026385856107b7565b73ffffffffffffffffffffffffffffffffffffffff1663ab750e7586868660028787604051610293929190611167565b602060405180830381855afa1580156102ae573d5f803e3d5ffd5b5050506040513d601f19601f820116820180604052508101906102d19190611193565b6040518563ffffffff1660e01b81526004016102f09493929190611219565b5f6040518083038186803b158015610306575f80fd5b505afa158015610318573d5f803e3d5ffd5b505050505050505050565b61033a81805f01906103359190611263565b6107b7565b73ffffffffffffffffffffffffffffffffffffffff16631599ead5826040518263ffffffff1660e01b815260040161037291906113e0565b5f6040518083038186803b158015610388575f80fd5b505afa15801561039a573d5f803e3d5ffd5b5050505050565b5f8060025f847bffffffffffffffffffffffffffffffffffffffffffffffffffffffff19167bffffffffffffffffffffffffffffffffffffffffffffffffffffffff191681526020019081526020015f205f9054906101000a900473ffffffffffffffffffffffffffffffffffffffff1690505f73ffffffffffffffffffffffffffffffffffffffff168173ffffffffffffffffffffffffffffffffffffffff160361048457826040517fe4ea654200000000000000000000000000000000000000000000000000000000815260040161047b919061140f565b60405180910390fd5b600173ffffffffffffffffffffffffffffffffffffffff168173ffffffffffffffffffffffffffffffffffffffff16036104f557826040517fde03ac4c0000000000000000000000000000000000000000000000000000000081526004016104ec919061140f565b60405180910390fd5b80915050919050565b610506610b40565b61050f5f610bc7565b565b5f61051a610bf7565b90508073ffffffffffffffffffffffffffffffffffffffff1661053b610a3c565b73ffffffffffffffffffffffffffffffffffffffff161461059357806040517f118cdaa700000000000000000000000000000000000000000000000000000000815260040161058a9190610f88565b60405180910390fd5b61059c81610bc7565b50565b5f805f9054906101000a900473ffffffffffffffffffffffffffffffffffffffff16905090565b6105ce610b40565b5f73ffffffffffffffffffffffffffffffffffffffff1660025f837bffffffffffffffffffffffffffffffffffffffffffffffffffffffff19167bffffffffffffffffffffffffffffffffffffffffffffffffffffffff191681526020019081526020015f205f9054906101000a900473ffffffffffffffffffffffffffffffffffffffff1673ffffffffffffffffffffffffffffffffffffffff16036106ac57806040517fe4ea65420000000000000000000000000000000000000000000000000000000081526004016106a3919061140f565b60405180910390fd5b600160025f837bffffffffffffffffffffffffffffffffffffffffffffffffffffffff19167bffffffffffffffffffffffffffffffffffffffffffffffffffffffff191681526020019081526020015f205f6101000a81548173ffffffffffffffffffffffffffffffffffffffff021916908373ffffffffffffffffffffffffffffffffffffffff16021790555050565b61074784846107b7565b73ffffffffffffffffffffffffffffffffffffffff1663ab750e75858585856040518563ffffffff1660e01b81526004016107859493929190611219565b5f6040518083038186803b15801561079b575f80fd5b505afa1580156107ad573d5f803e3d5ffd5b5050505050505050565b5f6107de83835f906004926107ce93929190611430565b906107d99190611480565b6103a1565b905092915050565b6107ee610b40565b600173ffffffffffffffffffffffffffffffffffffffff1660025f847bffffffffffffffffffffffffffffffffffffffffffffffffffffffff19167bffffffffffffffffffffffffffffffffffffffffffffffffffffffff191681526020019081526020015f205f9054906101000a900473ffffffffffffffffffffffffffffffffffffffff1673ffffffffffffffffffffffffffffffffffffffff16036108cd57816040517fde03ac4c0000000000000000000000000000000000000000000000000000000081526004016108c4919061140f565b60405180910390fd5b5f73ffffffffffffffffffffffffffffffffffffffff1660025f847bffffffffffffffffffffffffffffffffffffffffffffffffffffffff19167bffffffffffffffffffffffffffffffffffffffffffffffffffffffff191681526020019081526020015f205f9054906101000a900473ffffffffffffffffffffffffffffffffffffffff1673ffffffffffffffffffffffffffffffffffffffff16146109ab57816040517f50a41efb0000000000000000000000000000000000000000000000000000000081526004016109a2919061140f565b60405180910390fd5b8060025f847bffffffffffffffffffffffffffffffffffffffffffffffffffffffff19167bffffffffffffffffffffffffffffffffffffffffffffffffffffffff191681526020019081526020015f205f6101000a81548173ffffffffffffffffffffffffffffffffffffffff021916908373ffffffffffffffffffffffffffffffffffffffff1602179055505050565b5f60015f9054906101000a900473ffffffffffffffffffffffffffffffffffffffff16905090565b610a6c610b40565b8060015f6101000a81548173ffffffffffffffffffffffffffffffffffffffff021916908373ffffffffffffffffffffffffffffffffffffffff1602179055508073ffffffffffffffffffffffffffffffffffffffff16610acb61059f565b73ffffffffffffffffffffffffffffffffffffffff167f38d16b8cac22d99fc7c124b9cd0de2d3fa1faef420bfe791d8c362d765e2270060405160405180910390a350565b6002602052805f5260405f205f915054906101000a900473ffffffffffffffffffffffffffffffffffffffff1681565b610b48610bf7565b73ffffffffffffffffffffffffffffffffffffffff16610b6661059f565b73ffffffffffffffffffffffffffffffffffffffff1614610bc557610b89610bf7565b6040517f118cdaa7000000000000000000000000000000000000000000000000000000008152600401610bbc9190610f88565b60405180910390fd5b565b60015f6101000a81549073ffffffffffffffffffffffffffffffffffffffff0219169055610bf481610bfe565b50565b5f33905090565b5f805f9054906101000a900473ffffffffffffffffffffffffffffffffffffffff169050815f806101000a81548173ffffffffffffffffffffffffffffffffffffffff021916908373ffffffffffffffffffffffffffffffffffffffff1602179055508173ffffffffffffffffffffffffffffffffffffffff168173ffffffffffffffffffffffffffffffffffffffff167f8be0079c531659141344cd1fd0a4f28419497f9722a3daafe3b4186f6b6457e060405160405180910390a35050565b5f80fd5b5f80fd5b5f80fd5b5f80fd5b5f80fd5b5f8083601f840112610ce857610ce7610cc7565b5b8235905067ffffffffffffffff811115610d0557610d04610ccb565b5b602083019150836001820283011115610d2157610d20610ccf565b5b9250929050565b5f819050919050565b610d3a81610d28565b8114610d44575f80fd5b50565b5f81359050610d5581610d31565b92915050565b5f805f805f60608688031215610d7457610d73610cbf565b5b5f86013567ffffffffffffffff811115610d9157610d90610cc3565b5b610d9d88828901610cd3565b95509550506020610db088828901610d47565b935050604086013567ffffffffffffffff811115610dd157610dd0610cc3565b5b610ddd88828901610cd3565b92509250509295509295909350565b5f80fd5b5f60408284031215610e0557610e04610dec565b5b81905092915050565b5f60208284031215610e2357610e22610cbf565b5b5f82013567ffffffffffffffff811115610e4057610e3f610cc3565b5b610e4c84828501610df0565b91505092915050565b5f7fffffffff0000000000000000000000000000000000000000000000000000000082169050919050565b610e8981610e55565b8114610e93575f80fd5b50565b5f81359050610ea481610e80565b92915050565b5f60208284031215610ebf57610ebe610cbf565b5b5f610ecc84828501610e96565b91505092915050565b5f73ffffffffffffffffffffffffffffffffffffffff82169050919050565b5f819050919050565b5f610f17610f12610f0d84610ed5565b610ef4565b610ed5565b9050919050565b5f610f2882610efd565b9050919050565b5f610f3982610f1e565b9050919050565b610f4981610f2f565b82525050565b5f602082019050610f625f830184610f40565b92915050565b5f610f7282610ed5565b9050919050565b610f8281610f68565b82525050565b5f602082019050610f9b5f830184610f79565b92915050565b5f805f8060608587031215610fb957610fb8610cbf565b5b5f85013567ffffffffffffffff811115610fd657610fd5610cc3565b5b610fe287828801610cd3565b94509450506020610ff587828801610d47565b925050604061100687828801610d47565b91505092959194509250565b5f806020838503121561102857611027610cbf565b5b5f83013567ffffffffffffffff81111561104557611044610cc3565b5b61105185828601610cd3565b92509250509250929050565b5f61106782610f68565b9050919050565b6110778161105d565b8114611081575f80fd5b50565b5f813590506110928161106e565b92915050565b5f80604083850312156110ae576110ad610cbf565b5b5f6110bb85828601610e96565b92505060206110cc85828601611084565b9150509250929050565b6110df81610f68565b81146110e9575f80fd5b50565b5f813590506110fa816110d6565b92915050565b5f6020828403121561111557611114610cbf565b5b5f611122848285016110ec565b91505092915050565b5f81905092915050565b828183375f83830152505050565b5f61114e838561112b565b935061115b838584611135565b82840190509392505050565b5f611173828486611143565b91508190509392505050565b5f8151905061118d81610d31565b92915050565b5f602082840312156111a8576111a7610cbf565b5b5f6111b58482850161117f565b91505092915050565b5f82825260208201905092915050565b5f601f19601f8301169050919050565b5f6111e983856111be565b93506111f6838584611135565b6111ff836111ce565b840190509392505050565b61121381610d28565b82525050565b5f6060820190508181035f8301526112328186886111de565b9050611241602083018561120a565b61124e604083018461120a565b95945050505050565b5f80fd5b5f80fd5b5f80fd5b5f808335600160200384360303811261127f5761127e611257565b5b80840192508235915067ffffffffffffffff8211156112a1576112a061125b565b5b6020830192506001820236038313156112bd576112bc61125f565b5b509250929050565b5f80fd5b5f80fd5b5f80fd5b5f80833560016020038436030381126112ed576112ec6112cd565b5b83810192508235915060208301925067ffffffffffffffff821115611315576113146112c5565b5b60018202360383131561132b5761132a6112c9565b5b509250929050565b5f82825260208201905092915050565b5f61134e8385611333565b935061135b838584611135565b611364836111ce565b840190509392505050565b5f61137d6020840184610d47565b905092915050565b61138e81610d28565b82525050565b5f604083016113a55f8401846112d1565b8583035f8701526113b7838284611343565b925050506113c8602084018461136f565b6113d56020860182611385565b508091505092915050565b5f6020820190508181035f8301526113f88184611394565b905092915050565b61140981610e55565b82525050565b5f6020820190506114225f830184611400565b92915050565b5f80fd5b5f80fd5b5f808585111561144357611442611428565b5b838611156114545761145361142c565b5b6001850283019150848603905094509492505050565b5f82905092915050565b5f82821b905092915050565b5f61148b838361146a565b826114968135610e55565b925060048210156114d6576114d17fffffffff0000000000000000000000000000000000000000000000000000000083600403600802611474565b831692505b50509291505056fea2646970667358221220f06a14f21d19417e6702b58ce4a4e8d9b181cbabc74c988d22e8a88cb4610f3364736f6c63430008140033",
					"opcodes": "PUSH1 0x80 PUSH1 0x40 MSTORE CALLVALUE DUP1 ISZERO PUSH3 0x10 JUMPI PUSH0 DUP1 REVERT JUMPDEST POP PUSH1 0x40 MLOAD PUSH3 0x179F CODESIZE SUB DUP1 PUSH3 0x179F DUP4 CODECOPY DUP2 DUP2 ADD PUSH1 0x40 MSTORE DUP2 ADD SWAP1 PUSH3 0x36 SWAP2 SWAP1 PUSH3 0x221 JUMP JUMPDEST DUP1 PUSH0 PUSH20 0xFFFFFFFFFFFFFFFFFFFFFFFFFFFFFFFFFFFFFFFF AND DUP2 PUSH20 0xFFFFFFFFFFFFFFFFFFFFFFFFFFFFFFFFFFFFFFFF AND SUB PUSH3 0xAA JUMPI PUSH0 PUSH1 0x40 MLOAD PUSH32 0x1E4FBDF700000000000000000000000000000000000000000000000000000000 DUP2 MSTORE PUSH1 0x4 ADD PUSH3 0xA1 SWAP2 SWAP1 PUSH3 0x262 JUMP JUMPDEST PUSH1 0x40 MLOAD DUP1 SWAP2 SUB SWAP1 REVERT JUMPDEST PUSH3 0xBB DUP2 PUSH3 0xC3 PUSH1 0x20 SHL PUSH1 0x20 SHR JUMP JUMPDEST POP POP PUSH3 0x27D JUMP JUMPDEST PUSH1 0x1 PUSH0 PUSH2 0x100 EXP DUP2 SLOAD SWAP1 PUSH20 0xFFFFFFFFFFFFFFFFFFFFFFFFFFFFFFFFFFFFFFFF MUL NOT AND SWAP1 SSTORE PUSH3 0xF8 DUP2 PUSH3 0xFB PUSH1 0x20 SHL PUSH1 0x20 SHR JUMP JUMPDEST POP JUMP JUMPDEST PUSH0 DUP1 PUSH0 SWAP1 SLOAD SWAP1 PUSH2 0x100 EXP SWAP1 DIV PUSH20 0xFFFFFFFFFFFFFFFFFFFFFFFFFFFFFFFFFFFFFFFF AND SWAP1 POP DUP2 PUSH0 DUP1 PUSH2 0x100 EXP DUP2 SLOAD DUP2 PUSH20 0xFFFFFFFFFFFFFFFFFFFFFFFFFFFFFFFFFFFFFFFF MUL NOT AND SWAP1 DUP4 PUSH20 0xFFFFFFFFFFFFFFFFFFFFFFFFFFFFFFFFFFFFFFFF AND MUL OR SWAP1 SSTORE POP DUP2 PUSH20 0xFFFFFFFFFFFFFFFFFFFFFFFFFFFFFFFFFFFFFFFF AND DUP2 PUSH20 0xFFFFFFFFFFFFFFFFFFFFFFFFFFFFFFFFFFFFFFFF AND PUSH32 0x8BE0079C531659141344CD1FD0A4F28419497F9722A3DAAFE3B4186F6B6457E0 PUSH1 0x40 MLOAD PUSH1 0x40 MLOAD DUP1 SWAP2 SUB SWAP1 LOG3 POP POP JUMP JUMPDEST PUSH0 DUP1 REVERT JUMPDEST PUSH0 PUSH20 0xFFFFFFFFFFFFFFFFFFFFFFFFFFFFFFFFFFFFFFFF DUP3 AND SWAP1 POP SWAP2 SWAP1 POP JUMP JUMPDEST PUSH0 PUSH3 0x1EB DUP3 PUSH3 0x1C0 JUMP JUMPDEST SWAP1 POP SWAP2 SWAP1 POP JUMP JUMPDEST PUSH3 0x1FD DUP2 PUSH3 0x1DF JUMP JUMPDEST DUP2 EQ PUSH3 0x208 JUMPI PUSH0 DUP1 REVERT JUMPDEST POP JUMP JUMPDEST PUSH0 DUP2 MLOAD SWAP1 POP PUSH3 0x21B DUP2 PUSH3 0x1F2 JUMP JUMPDEST SWAP3 SWAP2 POP POP JUMP JUMPDEST PUSH0 PUSH1 0x20 DUP3 DUP5 SUB SLT ISZERO PUSH3 0x239 JUMPI PUSH3 0x238 PUSH3 0x1BC JUMP JUMPDEST JUMPDEST PUSH0 PUSH3 0x248 DUP5 DUP3 DUP6 ADD PUSH3 0x20B JUMP JUMPDEST SWAP2 POP POP SWAP3 SWAP2 POP POP JUMP JUMPDEST PUSH3 0x25C DUP2 PUSH3 0x1DF JUMP JUMPDEST DUP3 MSTORE POP POP JUMP JUMPDEST PUSH0 PUSH1 0x20 DUP3 ADD SWAP1 POP PUSH3 0x277 PUSH0 DUP4 ADD DUP5 PUSH3 0x251 JUMP JUMPDEST SWAP3 SWAP2 POP POP JUMP JUMPDEST PUSH2 0x1514 DUP1 PUSH3 0x28B PUSH0 CODECOPY PUSH0 RETURN INVALID PUSH1 0x80 PUSH1 0x40 MSTORE CALLVALUE DUP1 ISZERO PUSH2 0xF JUMPI PUSH0 DUP1 REVERT JUMPDEST POP PUSH1 0x4 CALLDATASIZE LT PUSH2 0xCD JUMPI PUSH0 CALLDATALOAD PUSH1 0xE0 SHR DUP1 PUSH4 0x93D237F6 GT PUSH2 0x8A JUMPI DUP1 PUSH4 0xD0A6AF30 GT PUSH2 0x64 JUMPI DUP1 PUSH4 0xD0A6AF30 EQ PUSH2 0x1D3 JUMPI DUP1 PUSH4 0xE30C3978 EQ PUSH2 0x1EF JUMPI DUP1 PUSH4 0xF2FDE38B EQ PUSH2 0x20D JUMPI DUP1 PUSH4 0xFA9381D3 EQ PUSH2 0x229 JUMPI PUSH2 0xCD JUMP JUMPDEST DUP1 PUSH4 0x93D237F6 EQ PUSH2 0x16B JUMPI DUP1 PUSH4 0xAB750E75 EQ PUSH2 0x187 JUMPI DUP1 PUSH4 0xC17E7BA8 EQ PUSH2 0x1A3 JUMPI PUSH2 0xCD JUMP JUMPDEST DUP1 PUSH4 0x92C15BC EQ PUSH2 0xD1 JUMPI DUP1 PUSH4 0x1599EAD5 EQ PUSH2 0xED JUMPI DUP1 PUSH4 0x3CADF449 EQ PUSH2 0x109 JUMPI DUP1 PUSH4 0x715018A6 EQ PUSH2 0x139 JUMPI DUP1 PUSH4 0x79BA5097 EQ PUSH2 0x143 JUMPI DUP1 PUSH4 0x8DA5CB5B EQ PUSH2 0x14D JUMPI JUMPDEST PUSH0 DUP1 REVERT JUMPDEST PUSH2 0xEB PUSH1 0x4 DUP1 CALLDATASIZE SUB DUP2 ADD SWAP1 PUSH2 0xE6 SWAP2 SWAP1 PUSH2 0xD5B JUMP JUMPDEST PUSH2 0x259 JUMP JUMPDEST STOP JUMPDEST PUSH2 0x107 PUSH1 0x4 DUP1 CALLDATASIZE SUB DUP2 ADD SWAP1 PUSH2 0x102 SWAP2 SWAP1 PUSH2 0xE0E JUMP JUMPDEST PUSH2 0x323 JUMP JUMPDEST STOP JUMPDEST PUSH2 0x123 PUSH1 0x4 DUP1 CALLDATASIZE SUB DUP2 ADD SWAP1 PUSH2 0x11E SWAP2 SWAP1 PUSH2 0xEAA JUMP JUMPDEST PUSH2 0x3A1 JUMP JUMPDEST PUSH1 0x40 MLOAD PUSH2 0x130 SWAP2 SWAP1 PUSH2 0xF4F JUMP JUMPDEST PUSH1 0x40 MLOAD DUP1 SWAP2 SUB SWAP1 RETURN JUMPDEST PUSH2 0x141 PUSH2 0x4FE JUMP JUMPDEST STOP JUMPDEST PUSH2 0x14B PUSH2 0x511 JUMP JUMPDEST STOP JUMPDEST PUSH2 0x155 PUSH2 0x59F JUMP JUMPDEST PUSH1 0x40 MLOAD PUSH2 0x162 SWAP2 SWAP1 PUSH2 0xF88 JUMP JUMPDEST PUSH1 0x40 MLOAD DUP1 SWAP2 SUB SWAP1 RETURN JUMPDEST PUSH2 0x185 PUSH1 0x4 DUP1 CALLDATASIZE SUB DUP2 ADD SWAP1 PUSH2 0x180 SWAP2 SWAP1 PUSH2 0xEAA JUMP JUMPDEST PUSH2 0x5C6 JUMP JUMPDEST STOP JUMPDEST PUSH2 0x1A1 PUSH1 0x4 DUP1 CALLDATASIZE SUB DUP2 ADD SWAP1 PUSH2 0x19C SWAP2 SWAP1 PUSH2 0xFA1 JUMP JUMPDEST PUSH2 0x73D JUMP JUMPDEST STOP JUMPDEST PUSH2 0x1BD PUSH1 0x4 DUP1 CALLDATASIZE SUB DUP2 ADD SWAP1 PUSH2 0x1B8 SWAP2 SWAP1 PUSH2 0x1012 JUMP JUMPDEST PUSH2 0x7B7 JUMP JUMPDEST PUSH1 0x40 MLOAD PUSH2 0x1CA SWAP2 SWAP1 PUSH2 0xF4F JUMP JUMPDEST PUSH1 0x40 MLOAD DUP1 SWAP2 SUB SWAP1 RETURN JUMPDEST PUSH2 0x1ED PUSH1 0x4 DUP1 CALLDATASIZE SUB DUP2 ADD SWAP1 PUSH2 0x1E8 SWAP2 SWAP1 PUSH2 0x1098 JUMP JUMPDEST PUSH2 0x7E6 JUMP JUMPDEST STOP JUMPDEST PUSH2 0x1F7 PUSH2 0xA3C JUMP JUMPDEST PUSH1 0x40 MLOAD PUSH2 0x204 SWAP2 SWAP1 PUSH2 0xF88 JUMP JUMPDEST PUSH1 0x40 MLOAD DUP1 SWAP2 SUB SWAP1 RETURN JUMPDEST PUSH2 0x227 PUSH1 0x4 DUP1 CALLDATASIZE SUB DUP2 ADD SWAP1 PUSH2 0x222 SWAP2 SWAP1 PUSH2 0x1100 JUMP JUMPDEST PUSH2 0xA64 JUMP JUMPDEST STOP JUMPDEST PUSH2 0x243 PUSH1 0x4 DUP1 CALLDATASIZE SUB DUP2 ADD SWAP1 PUSH2 0x23E SWAP2 SWAP1 PUSH2 0xEAA JUMP JUMPDEST PUSH2 0xB10 JUMP JUMPDEST PUSH1 0x40 MLOAD PUSH2 0x250 SWAP2 SWAP1 PUSH2 0xF4F JUMP JUMPDEST PUSH1 0x40 MLOAD DUP1 SWAP2 SUB SWAP1 RETURN JUMPDEST PUSH2 0x263 DUP6 DUP6 PUSH2 0x7B7 JUMP JUMPDEST PUSH20 0xFFFFFFFFFFFFFFFFFFFFFFFFFFFFFFFFFFFFFFFF AND PUSH4 0xAB750E75 DUP7 DUP7 DUP7 PUSH1 0x2 DUP8 DUP8 PUSH1 0x40 MLOAD PUSH2 0x293 SWAP3 SWAP2 SWAP1 PUSH2 0x1167 JUMP JUMPDEST PUSH1 0x20 PUSH1 0x40 MLOAD DUP1 DUP4 SUB DUP2 DUP6 GAS STATICCALL ISZERO DUP1 ISZERO PUSH2 0x2AE JUMPI RETURNDATASIZE PUSH0 DUP1 RETURNDATACOPY RETURNDATASIZE PUSH0 REVERT JUMPDEST POP POP POP PUSH1 0x40 MLOAD RETURNDATASIZE PUSH1 0x1F NOT PUSH1 0x1F DUP3 ADD AND DUP3 ADD DUP1 PUSH1 0x40 MSTORE POP DUP2 ADD SWAP1 PUSH2 0x2D1 SWAP2 SWAP1 PUSH2 0x1193 JUMP JUMPDEST PUSH1 0x40 MLOAD DUP6 PUSH4 0xFFFFFFFF AND PUSH1 0xE0 SHL DUP2 MSTORE PUSH1 0x4 ADD PUSH2 0x2F0 SWAP5 SWAP4 SWAP3 SWAP2 SWAP1 PUSH2 0x1219 JUMP JUMPDEST PUSH0 PUSH1 0x40 MLOAD DUP1 DUP4 SUB DUP2 DUP7 DUP1 EXTCODESIZE ISZERO DUP1 ISZERO PUSH2 0x306 JUMPI PUSH0 DUP1 REVERT JUMPDEST POP GAS STATICCALL ISZERO DUP1 ISZERO PUSH2 0x318 JUMPI RETURNDATASIZE PUSH0 DUP1 RETURNDATACOPY RETURNDATASIZE PUSH0 REVERT JUMPDEST POP POP POP POP POP POP POP POP POP JUMP JUMPDEST PUSH2 0x33A DUP2 DUP1 PUSH0 ADD SWAP1 PUSH2 0x335 SWAP2 SWAP1 PUSH2 0x1263 JUMP JUMPDEST PUSH2 0x7B7 JUMP JUMPDEST PUSH20 0xFFFFFFFFFFFFFFFFFFFFFFFFFFFFFFFFFFFFFFFF AND PUSH4 0x1599EAD5 DUP3 PUSH1 0x40 MLOAD DUP3 PUSH4 0xFFFFFFFF AND PUSH1 0xE0 SHL DUP2 MSTORE PUSH1 0x4 ADD PUSH2 0x372 SWAP2 SWAP1 PUSH2 0x13E0 JUMP JUMPDEST PUSH0 PUSH1 0x40 MLOAD DUP1 DUP4 SUB DUP2 DUP7 DUP1 EXTCODESIZE ISZERO DUP1 ISZERO PUSH2 0x388 JUMPI PUSH0 DUP1 REVERT JUMPDEST POP GAS STATICCALL ISZERO DUP1 ISZERO PUSH2 0x39A JUMPI RETURNDATASIZE PUSH0 DUP1 RETURNDATACOPY RETURNDATASIZE PUSH0 REVERT JUMPDEST POP POP POP POP POP JUMP JUMPDEST PUSH0 DUP1 PUSH1 0x2 PUSH0 DUP5 PUSH28 0xFFFFFFFFFFFFFFFFFFFFFFFFFFFFFFFFFFFFFFFFFFFFFFFFFFFFFFFF NOT AND PUSH28 0xFFFFFFFFFFFFFFFFFFFFFFFFFFFFFFFFFFFFFFFFFFFFFFFFFFFFFFFF NOT AND DUP2 MSTORE PUSH1 0x20 ADD SWAP1 DUP2 MSTORE PUSH1 0x20 ADD PUSH0 KECCAK256 PUSH0 SWAP1 SLOAD SWAP1 PUSH2 0x100 EXP SWAP1 DIV PUSH20 0xFFFFFFFFFFFFFFFFFFFFFFFFFFFFFFFFFFFFFFFF AND SWAP1 POP PUSH0 PUSH20 0xFFFFFFFFFFFFFFFFFFFFFFFFFFFFFFFFFFFFFFFF AND DUP2 PUSH20 0xFFFFFFFFFFFFFFFFFFFFFFFFFFFFFFFFFFFFFFFF AND SUB PUSH2 0x484 JUMPI DUP3 PUSH1 0x40 MLOAD PUSH32 0xE4EA654200000000000000000000000000000000000000000000000000000000 DUP2 MSTORE PUSH1 0x4 ADD PUSH2 0x47B SWAP2 SWAP1 PUSH2 0x140F JUMP JUMPDEST PUSH1 0x40 MLOAD DUP1 SWAP2 SUB SWAP1 REVERT JUMPDEST PUSH1 0x1 PUSH20 0xFFFFFFFFFFFFFFFFFFFFFFFFFFFFFFFFFFFFFFFF AND DUP2 PUSH20 0xFFFFFFFFFFFFFFFFFFFFFFFFFFFFFFFFFFFFFFFF AND SUB PUSH2 0x4F5 JUMPI DUP3 PUSH1 0x40 MLOAD PUSH32 0xDE03AC4C00000000000000000000000000000000000000000000000000000000 DUP2 MSTORE PUSH1 0x4 ADD PUSH2 0x4EC SWAP2 SWAP1 PUSH2 0x140F JUMP JUMPDEST PUSH1 0x40 MLOAD DUP1 SWAP2 SUB SWAP1 REVERT JUMPDEST DUP1 SWAP2 POP POP SWAP2 SWAP1 POP JUMP JUMPDEST PUSH2 0x506 PUSH2 0xB40 JUMP JUMPDEST PUSH2 0x50F PUSH0 PUSH2 0xBC7 JUMP JUMPDEST JUMP JUMPDEST PUSH0 PUSH2 0x51A PUSH2 0xBF7 JUMP JUMPDEST SWAP1 POP DUP1 PUSH20 0xFFFFFFFFFFFFFFFFFFFFFFFFFFFFFFFFFFFFFFFF AND PUSH2 0x53B PUSH2 0xA3C JUMP JUMPDEST PUSH20 0xFFFFFFFFFFFFFFFFFFFFFFFFFFFFFFFFFFFFFFFF AND EQ PUSH2 0x593 JUMPI DUP1 PUSH1 0x40 MLOAD PUSH32 0x118CDAA700000000000000000000000000000000000000000000000000000000 DUP2 MSTORE PUSH1 0x4 ADD PUSH2 0x58A SWAP2 SWAP1 PUSH2 0xF88 JUMP JUMPDEST PUSH1 0x40 MLOAD DUP1 SWAP2 SUB SWAP1 REVERT JUMPDEST PUSH2 0x59C DUP2 PUSH2 0xBC7 JUMP JUMPDEST POP JUMP JUMPDEST PUSH0 DUP1 PUSH0 SWAP1 SLOAD SWAP1 PUSH2 0x100 EXP SWAP1 DIV PUSH20 0xFFFFFFFFFFFFFFFFFFFFFFFFFFFFFFFFFFFFFFFF AND SWAP1 POP SWAP1 JUMP JUMPDEST PUSH2 0x5CE PUSH2 0xB40 JUMP JUMPDEST PUSH0 PUSH20 0xFFFFFFFFFFFFFFFFFFFFFFFFFFFFFFFFFFFFFFFF AND PUSH1 0x2 PUSH0 DUP4 PUSH28 0xFFFFFFFFFFFFFFFFFFFFFFFFFFFFFFFFFFFFFFFFFFFFFFFFFFFFFFFF NOT AND PUSH28 0xFFFFFFFFFFFFFFFFFFFFFFFFFFFFFFFFFFFFFFFFFFFFFFFFFFFFFFFF NOT AND DUP2 MSTORE PUSH1 0x20 ADD SWAP1 DUP2 MSTORE PUSH1 0x20 ADD PUSH0 KECCAK256 PUSH0 SWAP1 SLOAD SWAP1 PUSH2 0x100 EXP SWAP1 DIV PUSH20 0xFFFFFFFFFFFFFFFFFFFFFFFFFFFFFFFFFFFFFFFF AND PUSH20 0xFFFFFFFFFFFFFFFFFFFFFFFFFFFFFFFFFFFFFFFF AND SUB PUSH2 0x6AC JUMPI DUP1 PUSH1 0x40 MLOAD PUSH32 0xE4EA654200000000000000000000000000000000000000000000000000000000 DUP2 MSTORE PUSH1 0x4 ADD PUSH2 0x6A3 SWAP2 SWAP1 PUSH2 0x140F JUMP JUMPDEST PUSH1 0x40 MLOAD DUP1 SWAP2 SUB SWAP1 REVERT JUMPDEST PUSH1 0x1 PUSH1 0x2 PUSH0 DUP4 PUSH28 0xFFFFFFFFFFFFFFFFFFFFFFFFFFFFFFFFFFFFFFFFFFFFFFFFFFFFFFFF NOT AND PUSH28 0xFFFFFFFFFFFFFFFFFFFFFFFFFFFFFFFFFFFFFFFFFFFFFFFFFFFFFFFF NOT AND DUP2 MSTORE PUSH1 0x20 ADD SWAP1 DUP2 MSTORE PUSH1 0x20 ADD PUSH0 KECCAK256 PUSH0 PUSH2 0x100 EXP DUP2 SLOAD DUP2 PUSH20 0xFFFFFFFFFFFFFFFFFFFFFFFFFFFFFFFFFFFFFFFF MUL NOT AND SWAP1 DUP4 PUSH20 0xFFFFFFFFFFFFFFFFFFFFFFFFFFFFFFFFFFFFFFFF AND MUL OR SWAP1 SSTORE POP POP JUMP JUMPDEST PUSH2 0x747 DUP5 DUP5 PUSH2 0x7B7 JUMP JUMPDEST PUSH20 0xFFFFFFFFFFFFFFFFFFFFFFFFFFFFFFFFFFFFFFFF AND PUSH4 0xAB750E75 DUP6 DUP6 DUP6 DUP6 PUSH1 0x40 MLOAD DUP6 PUSH4 0xFFFFFFFF AND PUSH1 0xE0 SHL DUP2 MSTORE PUSH1 0x4 ADD PUSH2 0x785 SWAP5 SWAP4 SWAP3 SWAP2 SWAP1 PUSH2 0x1219 JUMP JUMPDEST PUSH0 PUSH1 0x40 MLOAD DUP1 DUP4 SUB DUP2 DUP7 DUP1 EXTCODESIZE ISZERO DUP1 ISZERO PUSH2 0x79B JUMPI PUSH0 DUP1 REVERT JUMPDEST POP GAS STATICCALL ISZERO DUP1 ISZERO PUSH2 0x7AD JUMPI RETURNDATASIZE PUSH0 DUP1 RETURNDATACOPY RETURNDATASIZE PUSH0 REVERT JUMPDEST POP POP POP POP POP POP POP POP JUMP JUMPDEST PUSH0 PUSH2 0x7DE DUP4 DUP4 PUSH0 SWAP1 PUSH1 0x4 SWAP3 PUSH2 0x7CE SWAP4 SWAP3 SWAP2 SWAP1 PUSH2 0x1430 JUMP JUMPDEST SWAP1 PUSH2 0x7D9 SWAP2 SWAP1 PUSH2 0x1480 JUMP JUMPDEST PUSH2 0x3A1 JUMP JUMPDEST SWAP1 POP SWAP3 SWAP2 POP POP JUMP JUMPDEST PUSH2 0x7EE PUSH2 0xB40 JUMP JUMPDEST PUSH1 0x1 PUSH20 0xFFFFFFFFFFFFFFFFFFFFFFFFFFFFFFFFFFFFFFFF AND PUSH1 0x2 PUSH0 DUP5 PUSH28 0xFFFFFFFFFFFFFFFFFFFFFFFFFFFFFFFFFFFFFFFFFFFFFFFFFFFFFFFF NOT AND PUSH28 0xFFFFFFFFFFFFFFFFFFFFFFFFFFFFFFFFFFFFFFFFFFFFFFFFFFFFFFFF NOT AND DUP2 MSTORE PUSH1 0x20 ADD SWAP1 DUP2 MSTORE PUSH1 0x20 ADD PUSH0 KECCAK256 PUSH0 SWAP1 SLOAD SWAP1 PUSH2 0x100 EXP SWAP1 DIV PUSH20 0xFFFFFFFFFFFFFFFFFFFFFFFFFFFFFFFFFFFFFFFF AND PUSH20 0xFFFFFFFFFFFFFFFFFFFFFFFFFFFFFFFFFFFFFFFF AND SUB PUSH2 0x8CD JUMPI DUP2 PUSH1 0x40 MLOAD PUSH32 0xDE03AC4C00000000000000000000000000000000000000000000000000000000 DUP2 MSTORE PUSH1 0x4 ADD PUSH2 0x8C4 SWAP2 SWAP1 PUSH2 0x140F JUMP JUMPDEST PUSH1 0x40 MLOAD DUP1 SWAP2 SUB SWAP1 REVERT JUMPDEST PUSH0 PUSH20 0xFFFFFFFFFFFFFFFFFFFFFFFFFFFFFFFFFFFFFFFF AND PUSH1 0x2 PUSH0 DUP5 PUSH28 0xFFFFFFFFFFFFFFFFFFFFFFFFFFFFFFFFFFFFFFFFFFFFFFFFFFFFFFFF NOT AND PUSH28 0xFFFFFFFFFFFFFFFFFFFFFFFFFFFFFFFFFFFFFFFFFFFFFFFFFFFFFFFF NOT AND DUP2 MSTORE PUSH1 0x20 ADD SWAP1 DUP2 MSTORE PUSH1 0x20 ADD PUSH0 KECCAK256 PUSH0 SWAP1 SLOAD SWAP1 PUSH2 0x100 EXP SWAP1 DIV PUSH20 0xFFFFFFFFFFFFFFFFFFFFFFFFFFFFFFFFFFFFFFFF AND PUSH20 0xFFFFFFFFFFFFFFFFFFFFFFFFFFFFFFFFFFFFFFFF AND EQ PUSH2 0x9AB JUMPI DUP2 PUSH1 0x40 MLOAD PUSH32 0x50A41EFB00000000000000000000000000000000000000000000000000000000 DUP2 MSTORE PUSH1 0x4 ADD PUSH2 0x9A2 SWAP2 SWAP1 PUSH2 0x140F JUMP JUMPDEST PUSH1 0x40 MLOAD DUP1 SWAP2 SUB SWAP1 REVERT JUMPDEST DUP1 PUSH1 0x2 PUSH0 DUP5 PUSH28 0xFFFFFFFFFFFFFFFFFFFFFFFFFFFFFFFFFFFFFFFFFFFFFFFFFFFFFFFF NOT AND PUSH28 0xFFFFFFFFFFFFFFFFFFFFFFFFFFFFFFFFFFFFFFFFFFFFFFFFFFFFFFFF NOT AND DUP2 MSTORE PUSH1 0x20 ADD SWAP1 DUP2 MSTORE PUSH1 0x20 ADD PUSH0 KECCAK256 PUSH0 PUSH2 0x100 EXP DUP2 SLOAD DUP2 PUSH20 0xFFFFFFFFFFFFFFFFFFFFFFFFFFFFFFFFFFFFFFFF MUL NOT AND SWAP1 DUP4 PUSH20 0xFFFFFFFFFFFFFFFFFFFFFFFFFFFFFFFFFFFFFFFF AND MUL OR SWAP1 SSTORE POP POP POP JUMP JUMPDEST PUSH0 PUSH1 0x1 PUSH0 SWAP1 SLOAD SWAP1 PUSH2 0x100 EXP SWAP1 DIV PUSH20 0xFFFFFFFFFFFFFFFFFFFFFFFFFFFFFFFFFFFFFFFF AND SWAP1 POP SWAP1 JUMP JUMPDEST PUSH2 0xA6C PUSH2 0xB40 JUMP JUMPDEST DUP1 PUSH1 0x1 PUSH0 PUSH2 0x100 EXP DUP2 SLOAD DUP2 PUSH20 0xFFFFFFFFFFFFFFFFFFFFFFFFFFFFFFFFFFFFFFFF MUL NOT AND SWAP1 DUP4 PUSH20 0xFFFFFFFFFFFFFFFFFFFFFFFFFFFFFFFFFFFFFFFF AND MUL OR SWAP1 SSTORE POP DUP1 PUSH20 0xFFFFFFFFFFFFFFFFFFFFFFFFFFFFFFFFFFFFFFFF AND PUSH2 0xACB PUSH2 0x59F JUMP JUMPDEST PUSH20 0xFFFFFFFFFFFFFFFFFFFFFFFFFFFFFFFFFFFFFFFF AND PUSH32 0x38D16B8CAC22D99FC7C124B9CD0DE2D3FA1FAEF420BFE791D8C362D765E22700 PUSH1 0x40 MLOAD PUSH1 0x40 MLOAD DUP1 SWAP2 SUB SWAP1 LOG3 POP JUMP JUMPDEST PUSH1 0x2 PUSH1 0x20 MSTORE DUP1 PUSH0 MSTORE PUSH1 0x40 PUSH0 KECCAK256 PUSH0 SWAP2 POP SLOAD SWAP1 PUSH2 0x100 EXP SWAP1 DIV PUSH20 0xFFFFFFFFFFFFFFFFFFFFFFFFFFFFFFFFFFFFFFFF AND DUP2 JUMP JUMPDEST PUSH2 0xB48 PUSH2 0xBF7 JUMP JUMPDEST PUSH20 0xFFFFFFFFFFFFFFFFFFFFFFFFFFFFFFFFFFFFFFFF AND PUSH2 0xB66 PUSH2 0x59F JUMP JUMPDEST PUSH20 0xFFFFFFFFFFFFFFFFFFFFFFFFFFFFFFFFFFFFFFFF AND EQ PUSH2 0xBC5 JUMPI PUSH2 0xB89 PUSH2 0xBF7 JUMP JUMPDEST PUSH1 0x40 MLOAD PUSH32 0x118CDAA700000000000000000000000000000000000000000000000000000000 DUP2 MSTORE PUSH1 0x4 ADD PUSH2 0xBBC SWAP2 SWAP1 PUSH2 0xF88 JUMP JUMPDEST PUSH1 0x40 MLOAD DUP1 SWAP2 SUB SWAP1 REVERT JUMPDEST JUMP JUMPDEST PUSH1 0x1 PUSH0 PUSH2 0x100 EXP DUP2 SLOAD SWAP1 PUSH20 0xFFFFFFFFFFFFFFFFFFFFFFFFFFFFFFFFFFFFFFFF MUL NOT AND SWAP1 SSTORE PUSH2 0xBF4 DUP2 PUSH2 0xBFE JUMP JUMPDEST POP JUMP JUMPDEST PUSH0 CALLER SWAP1 POP SWAP1 JUMP JUMPDEST PUSH0 DUP1 PUSH0 SWAP1 SLOAD SWAP1 PUSH2 0x100 EXP SWAP1 DIV PUSH20 0xFFFFFFFFFFFFFFFFFFFFFFFFFFFFFFFFFFFFFFFF AND SWAP1 POP DUP2 PUSH0 DUP1 PUSH2 0x100 EXP DUP2 SLOAD DUP2 PUSH20 0xFFFFFFFFFFFFFFFFFFFFFFFFFFFFFFFFFFFFFFFF MUL NOT AND SWAP1 DUP4 PUSH20 0xFFFFFFFFFFFFFFFFFFFFFFFFFFFFFFFFFFFFFFFF AND MUL OR SWAP1 SSTORE POP DUP2 PUSH20 0xFFFFFFFFFFFFFFFFFFFFFFFFFFFFFFFFFFFFFFFF AND DUP2 PUSH20 0xFFFFFFFFFFFFFFFFFFFFFFFFFFFFFFFFFFFFFFFF AND PUSH32 0x8BE0079C531659141344CD1FD0A4F28419497F9722A3DAAFE3B4186F6B6457E0 PUSH1 0x40 MLOAD PUSH1 0x40 MLOAD DUP1 SWAP2 SUB SWAP1 LOG3 POP POP JUMP JUMPDEST PUSH0 DUP1 REVERT JUMPDEST PUSH0 DUP1 REVERT JUMPDEST PUSH0 DUP1 REVERT JUMPDEST PUSH0 DUP1 REVERT JUMPDEST PUSH0 DUP1 REVERT JUMPDEST PUSH0 DUP1 DUP4 PUSH1 0x1F DUP5 ADD SLT PUSH2 0xCE8 JUMPI PUSH2 0xCE7 PUSH2 0xCC7 JUMP JUMPDEST JUMPDEST DUP3 CALLDATALOAD SWAP1 POP PUSH8 0xFFFFFFFFFFFFFFFF DUP2 GT ISZERO PUSH2 0xD05 JUMPI PUSH2 0xD04 PUSH2 0xCCB JUMP JUMPDEST JUMPDEST PUSH1 0x20 DUP4 ADD SWAP2 POP DUP4 PUSH1 0x1 DUP3 MUL DUP4 ADD GT ISZERO PUSH2 0xD21 JUMPI PUSH2 0xD20 PUSH2 0xCCF JUMP JUMPDEST JUMPDEST SWAP3 POP SWAP3 SWAP1 POP JUMP JUMPDEST PUSH0 DUP2 SWAP1 POP SWAP2 SWAP1 POP JUMP JUMPDEST PUSH2 0xD3A DUP2 PUSH2 0xD28 JUMP JUMPDEST DUP2 EQ PUSH2 0xD44 JUMPI PUSH0 DUP1 REVERT JUMPDEST POP JUMP JUMPDEST PUSH0 DUP2 CALLDATALOAD SWAP1 POP PUSH2 0xD55 DUP2 PUSH2 0xD31 JUMP JUMPDEST SWAP3 SWAP2 POP POP JUMP JUMPDEST PUSH0 DUP1 PUSH0 DUP1 PUSH0 PUSH1 0x60 DUP7 DUP9 SUB SLT ISZERO PUSH2 0xD74 JUMPI PUSH2 0xD73 PUSH2 0xCBF JUMP JUMPDEST JUMPDEST PUSH0 DUP7 ADD CALLDATALOAD PUSH8 0xFFFFFFFFFFFFFFFF DUP2 GT ISZERO PUSH2 0xD91 JUMPI PUSH2 0xD90 PUSH2 0xCC3 JUMP JUMPDEST JUMPDEST PUSH2 0xD9D DUP9 DUP3 DUP10 ADD PUSH2 0xCD3 JUMP JUMPDEST SWAP6 POP SWAP6 POP POP PUSH1 0x20 PUSH2 0xDB0 DUP9 DUP3 DUP10 ADD PUSH2 0xD47 JUMP JUMPDEST SWAP4 POP POP PUSH1 0x40 DUP7 ADD CALLDATALOAD PUSH8 0xFFFFFFFFFFFFFFFF DUP2 GT ISZERO PUSH2 0xDD1 JUMPI PUSH2 0xDD0 PUSH2 0xCC3 JUMP JUMPDEST JUMPDEST PUSH2 0xDDD DUP9 DUP3 DUP10 ADD PUSH2 0xCD3 JUMP JUMPDEST SWAP3 POP SWAP3 POP POP SWAP3 SWAP6 POP SWAP3 SWAP6 SWAP1 SWAP4 POP JUMP JUMPDEST PUSH0 DUP1 REVERT JUMPDEST PUSH0 PUSH1 0x40 DUP3 DUP5 SUB SLT ISZERO PUSH2 0xE05 JUMPI PUSH2 0xE04 PUSH2 0xDEC JUMP JUMPDEST JUMPDEST DUP2 SWAP1 POP SWAP3 SWAP2 POP POP JUMP JUMPDEST PUSH0 PUSH1 0x20 DUP3 DUP5 SUB SLT ISZERO PUSH2 0xE23 JUMPI PUSH2 0xE22 PUSH2 0xCBF JUMP JUMPDEST JUMPDEST PUSH0 DUP3 ADD CALLDATALOAD PUSH8 0xFFFFFFFFFFFFFFFF DUP2 GT ISZERO PUSH2 0xE40 JUMPI PUSH2 0xE3F PUSH2 0xCC3 JUMP JUMPDEST JUMPDEST PUSH2 0xE4C DUP5 DUP3 DUP6 ADD PUSH2 0xDF0 JUMP JUMPDEST SWAP2 POP POP SWAP3 SWAP2 POP POP JUMP JUMPDEST PUSH0 PUSH32 0xFFFFFFFF00000000000000000000000000000000000000000000000000000000 DUP3 AND SWAP1 POP SWAP2 SWAP1 POP JUMP JUMPDEST PUSH2 0xE89 DUP2 PUSH2 0xE55 JUMP JUMPDEST DUP2 EQ PUSH2 0xE93 JUMPI PUSH0 DUP1 REVERT JUMPDEST POP JUMP JUMPDEST PUSH0 DUP2 CALLDATALOAD SWAP1 POP PUSH2 0xEA4 DUP2 PUSH2 0xE80 JUMP JUMPDEST SWAP3 SWAP2 POP POP JUMP JUMPDEST PUSH0 PUSH1 0x20 DUP3 DUP5 SUB SLT ISZERO PUSH2 0xEBF JUMPI PUSH2 0xEBE PUSH2 0xCBF JUMP JUMPDEST JUMPDEST PUSH0 PUSH2 0xECC DUP5 DUP3 DUP6 ADD PUSH2 0xE96 JUMP JUMPDEST SWAP2 POP POP SWAP3 SWAP2 POP POP JUMP JUMPDEST PUSH0 PUSH20 0xFFFFFFFFFFFFFFFFFFFFFFFFFFFFFFFFFFFFFFFF DUP3 AND SWAP1 POP SWAP2 SWAP1 POP JUMP JUMPDEST PUSH0 DUP2 SWAP1 POP SWAP2 SWAP1 POP JUMP JUMPDEST PUSH0 PUSH2 0xF17 PUSH2 0xF12 PUSH2 0xF0D DUP5 PUSH2 0xED5 JUMP JUMPDEST PUSH2 0xEF4 JUMP JUMPDEST PUSH2 0xED5 JUMP JUMPDEST SWAP1 POP SWAP2 SWAP1 POP JUMP JUMPDEST PUSH0 PUSH2 0xF28 DUP3 PUSH2 0xEFD JUMP JUMPDEST SWAP1 POP SWAP2 SWAP1 POP JUMP JUMPDEST PUSH0 PUSH2 0xF39 DUP3 PUSH2 0xF1E JUMP JUMPDEST SWAP1 POP SWAP2 SWAP1 POP JUMP JUMPDEST PUSH2 0xF49 DUP2 PUSH2 0xF2F JUMP JUMPDEST DUP3 MSTORE POP POP JUMP JUMPDEST PUSH0 PUSH1 0x20 DUP3 ADD SWAP1 POP PUSH2 0xF62 PUSH0 DUP4 ADD DUP5 PUSH2 0xF40 JUMP JUMPDEST SWAP3 SWAP2 POP POP JUMP JUMPDEST PUSH0 PUSH2 0xF72 DUP3 PUSH2 0xED5 JUMP JUMPDEST SWAP1 POP SWAP2 SWAP1 POP JUMP JUMPDEST PUSH2 0xF82 DUP2 PUSH2 0xF68 JUMP JUMPDEST DUP3 MSTORE POP POP JUMP JUMPDEST PUSH0 PUSH1 0x20 DUP3 ADD SWAP1 POP PUSH2 0xF9B PUSH0 DUP4 ADD DUP5 PUSH2 0xF79 JUMP JUMPDEST SWAP3 SWAP2 POP POP JUMP JUMPDEST PUSH0 DUP1 PUSH0 DUP1 PUSH1 0x60 DUP6 DUP8 SUB SLT ISZERO PUSH2 0xFB9 JUMPI PUSH2 0xFB8 PUSH2 0xCBF JUMP JUMPDEST JUMPDEST PUSH0 DUP6 ADD CALLDATALOAD PUSH8 0xFFFFFFFFFFFFFFFF DUP2 GT ISZERO PUSH2 0xFD6 JUMPI PUSH2 0xFD5 PUSH2 0xCC3 JUMP JUMPDEST JUMPDEST PUSH2 0xFE2 DUP8 DUP3 DUP9 ADD PUSH2 0xCD3 JUMP JUMPDEST SWAP5 POP SWAP5 POP POP PUSH1 0x20 PUSH2 0xFF5 DUP8 DUP3 DUP9 ADD PUSH2 0xD47 JUMP JUMPDEST SWAP3 POP POP PUSH1 0x40 PUSH2 0x1006 DUP8 DUP3 DUP9 ADD PUSH2 0xD47 JUMP JUMPDEST SWAP2 POP POP SWAP3 SWAP6 SWAP2 SWAP5 POP SWAP3 POP JUMP JUMPDEST PUSH0 DUP1 PUSH1 0x20 DUP4 DUP6 SUB SLT ISZERO PUSH2 0x1028 JUMPI PUSH2 0x1027 PUSH2 0xCBF JUMP JUMPDEST JUMPDEST PUSH0 DUP4 ADD CALLDATALOAD PUSH8 0xFFFFFFFFFFFFFFFF DUP2 GT ISZERO PUSH2 0x1045 JUMPI PUSH2 0x1044 PUSH2 0xCC3 JUMP JUMPDEST JUMPDEST PUSH2 0x1051 DUP6 DUP3 DUP7 ADD PUSH2 0xCD3 JUMP JUMPDEST SWAP3 POP SWAP3 POP POP SWAP3 POP SWAP3 SWAP1 POP JUMP JUMPDEST PUSH0 PUSH2 0x1067 DUP3 PUSH2 0xF68 JUMP JUMPDEST SWAP1 POP SWAP2 SWAP1 POP JUMP JUMPDEST PUSH2 0x1077 DUP2 PUSH2 0x105D JUMP JUMPDEST DUP2 EQ PUSH2 0x1081 JUMPI PUSH0 DUP1 REVERT JUMPDEST POP JUMP JUMPDEST PUSH0 DUP2 CALLDATALOAD SWAP1 POP PUSH2 0x1092 DUP2 PUSH2 0x106E JUMP JUMPDEST SWAP3 SWAP2 POP POP JUMP JUMPDEST PUSH0 DUP1 PUSH1 0x40 DUP4 DUP6 SUB SLT ISZERO PUSH2 0x10AE JUMPI PUSH2 0x10AD PUSH2 0xCBF JUMP JUMPDEST JUMPDEST PUSH0 PUSH2 0x10BB DUP6 DUP3 DUP7 ADD PUSH2 0xE96 JUMP JUMPDEST SWAP3 POP POP PUSH1 0x20 PUSH2 0x10CC DUP6 DUP3 DUP7 ADD PUSH2 0x1084 JUMP JUMPDEST SWAP2 POP POP SWAP3 POP SWAP3 SWAP1 POP JUMP JUMPDEST PUSH2 0x10DF DUP2 PUSH2 0xF68 JUMP JUMPDEST DUP2 EQ PUSH2 0x10E9 JUMPI PUSH0 DUP1 REVERT JUMPDEST POP JUMP JUMPDEST PUSH0 DUP2 CALLDATALOAD SWAP1 POP PUSH2 0x10FA DUP2 PUSH2 0x10D6 JUMP JUMPDEST SWAP3 SWAP2 POP POP JUMP JUMPDEST PUSH0 PUSH1 0x20 DUP3 DUP5 SUB SLT ISZERO PUSH2 0x1115 JUMPI PUSH2 0x1114 PUSH2 0xCBF JUMP JUMPDEST JUMPDEST PUSH0 PUSH2 0x1122 DUP5 DUP3 DUP6 ADD PUSH2 0x10EC JUMP JUMPDEST SWAP2 POP POP SWAP3 SWAP2 POP POP JUMP JUMPDEST PUSH0 DUP2 SWAP1 POP SWAP3 SWAP2 POP POP JUMP JUMPDEST DUP3 DUP2 DUP4 CALLDATACOPY PUSH0 DUP4 DUP4 ADD MSTORE POP POP POP JUMP JUMPDEST PUSH0 PUSH2 0x114E DUP4 DUP6 PUSH2 0x112B JUMP JUMPDEST SWAP4 POP PUSH2 0x115B DUP4 DUP6 DUP5 PUSH2 0x1135 JUMP JUMPDEST DUP3 DUP5 ADD SWAP1 POP SWAP4 SWAP3 POP POP POP JUMP JUMPDEST PUSH0 PUSH2 0x1173 DUP3 DUP5 DUP7 PUSH2 0x1143 JUMP JUMPDEST SWAP2 POP DUP2 SWAP1 POP SWAP4 SWAP3 POP POP POP JUMP JUMPDEST PUSH0 DUP2 MLOAD SWAP1 POP PUSH2 0x118D DUP2 PUSH2 0xD31 JUMP JUMPDEST SWAP3 SWAP2 POP POP JUMP JUMPDEST PUSH0 PUSH1 0x20 DUP3 DUP5 SUB SLT ISZERO PUSH2 0x11A8 JUMPI PUSH2 0x11A7 PUSH2 0xCBF JUMP JUMPDEST JUMPDEST PUSH0 PUSH2 0x11B5 DUP5 DUP3 DUP6 ADD PUSH2 0x117F JUMP JUMPDEST SWAP2 POP POP SWAP3 SWAP2 POP POP JUMP JUMPDEST PUSH0 DUP3 DUP3 MSTORE PUSH1 0x20 DUP3 ADD SWAP1 POP SWAP3 SWAP2 POP POP JUMP JUMPDEST PUSH0 PUSH1 0x1F NOT PUSH1 0x1F DUP4 ADD AND SWAP1 POP SWAP2 SWAP1 POP JUMP JUMPDEST PUSH0 PUSH2 0x11E9 DUP4 DUP6 PUSH2 0x11BE JUMP JUMPDEST SWAP4 POP PUSH2 0x11F6 DUP4 DUP6 DUP5 PUSH2 0x1135 JUMP JUMPDEST PUSH2 0x11FF DUP4 PUSH2 0x11CE JUMP JUMPDEST DUP5 ADD SWAP1 POP SWAP4 SWAP3 POP POP POP JUMP JUMPDEST PUSH2 0x1213 DUP2 PUSH2 0xD28 JUMP JUMPDEST DUP3 MSTORE POP POP JUMP JUMPDEST PUSH0 PUSH1 0x60 DUP3 ADD SWAP1 POP DUP2 DUP2 SUB PUSH0 DUP4 ADD MSTORE PUSH2 0x1232 DUP2 DUP7 DUP9 PUSH2 0x11DE JUMP JUMPDEST SWAP1 POP PUSH2 0x1241 PUSH1 0x20 DUP4 ADD DUP6 PUSH2 0x120A JUMP JUMPDEST PUSH2 0x124E PUSH1 0x40 DUP4 ADD DUP5 PUSH2 0x120A JUMP JUMPDEST SWAP6 SWAP5 POP POP POP POP POP JUMP JUMPDEST PUSH0 DUP1 REVERT JUMPDEST PUSH0 DUP1 REVERT JUMPDEST PUSH0 DUP1 REVERT JUMPDEST PUSH0 DUP1 DUP4 CALLDATALOAD PUSH1 0x1 PUSH1 0x20 SUB DUP5 CALLDATASIZE SUB SUB DUP2 SLT PUSH2 0x127F JUMPI PUSH2 0x127E PUSH2 0x1257 JUMP JUMPDEST JUMPDEST DUP1 DUP5 ADD SWAP3 POP DUP3 CALLDATALOAD SWAP2 POP PUSH8 0xFFFFFFFFFFFFFFFF DUP3 GT ISZERO PUSH2 0x12A1 JUMPI PUSH2 0x12A0 PUSH2 0x125B JUMP JUMPDEST JUMPDEST PUSH1 0x20 DUP4 ADD SWAP3 POP PUSH1 0x1 DUP3 MUL CALLDATASIZE SUB DUP4 SGT ISZERO PUSH2 0x12BD JUMPI PUSH2 0x12BC PUSH2 0x125F JUMP JUMPDEST JUMPDEST POP SWAP3 POP SWAP3 SWAP1 POP JUMP JUMPDEST PUSH0 DUP1 REVERT JUMPDEST PUSH0 DUP1 REVERT JUMPDEST PUSH0 DUP1 REVERT JUMPDEST PUSH0 DUP1 DUP4 CALLDATALOAD PUSH1 0x1 PUSH1 0x20 SUB DUP5 CALLDATASIZE SUB SUB DUP2 SLT PUSH2 0x12ED JUMPI PUSH2 0x12EC PUSH2 0x12CD JUMP JUMPDEST JUMPDEST DUP4 DUP2 ADD SWAP3 POP DUP3 CALLDATALOAD SWAP2 POP PUSH1 0x20 DUP4 ADD SWAP3 POP PUSH8 0xFFFFFFFFFFFFFFFF DUP3 GT ISZERO PUSH2 0x1315 JUMPI PUSH2 0x1314 PUSH2 0x12C5 JUMP JUMPDEST JUMPDEST PUSH1 0x1 DUP3 MUL CALLDATASIZE SUB DUP4 SGT ISZERO PUSH2 0x132B JUMPI PUSH2 0x132A PUSH2 0x12C9 JUMP JUMPDEST JUMPDEST POP SWAP3 POP SWAP3 SWAP1 POP JUMP JUMPDEST PUSH0 DUP3 DUP3 MSTORE PUSH1 0x20 DUP3 ADD SWAP1 POP SWAP3 SWAP2 POP POP JUMP JUMPDEST PUSH0 PUSH2 0x134E DUP4 DUP6 PUSH2 0x1333 JUMP JUMPDEST SWAP4 POP PUSH2 0x135B DUP4 DUP6 DUP5 PUSH2 0x1135 JUMP JUMPDEST PUSH2 0x1364 DUP4 PUSH2 0x11CE JUMP JUMPDEST DUP5 ADD SWAP1 POP SWAP4 SWAP3 POP POP POP JUMP JUMPDEST PUSH0 PUSH2 0x137D PUSH1 0x20 DUP5 ADD DUP5 PUSH2 0xD47 JUMP JUMPDEST SWAP1 POP SWAP3 SWAP2 POP POP JUMP JUMPDEST PUSH2 0x138E DUP2 PUSH2 0xD28 JUMP JUMPDEST DUP3 MSTORE POP POP JUMP JUMPDEST PUSH0 PUSH1 0x40 DUP4 ADD PUSH2 0x13A5 PUSH0 DUP5 ADD DUP5 PUSH2 0x12D1 JUMP JUMPDEST DUP6 DUP4 SUB PUSH0 DUP8 ADD MSTORE PUSH2 0x13B7 DUP4 DUP3 DUP5 PUSH2 0x1343 JUMP JUMPDEST SWAP3 POP POP POP PUSH2 0x13C8 PUSH1 0x20 DUP5 ADD DUP5 PUSH2 0x136F JUMP JUMPDEST PUSH2 0x13D5 PUSH1 0x20 DUP7 ADD DUP3 PUSH2 0x1385 JUMP JUMPDEST POP DUP1 SWAP2 POP POP SWAP3 SWAP2 POP POP JUMP JUMPDEST PUSH0 PUSH1 0x20 DUP3 ADD SWAP1 POP DUP2 DUP2 SUB PUSH0 DUP4 ADD MSTORE PUSH2 0x13F8 DUP2 DUP5 PUSH2 0x1394 JUMP JUMPDEST SWAP1 POP SWAP3 SWAP2 POP POP JUMP JUMPDEST PUSH2 0x1409 DUP2 PUSH2 0xE55 JUMP JUMPDEST DUP3 MSTORE POP POP JUMP JUMPDEST PUSH0 PUSH1 0x20 DUP3 ADD SWAP1 POP PUSH2 0x1422 PUSH0 DUP4 ADD DUP5 PUSH2 0x1400 JUMP JUMPDEST SWAP3 SWAP2 POP POP JUMP JUMPDEST PUSH0 DUP1 REVERT JUMPDEST PUSH0 DUP1 REVERT JUMPDEST PUSH0 DUP1 DUP6 DUP6 GT ISZERO PUSH2 0x1443 JUMPI PUSH2 0x1442 PUSH2 0x1428 JUMP JUMPDEST JUMPDEST DUP4 DUP7 GT ISZERO PUSH2 0x1454 JUMPI PUSH2 0x1453 PUSH2 0x142C JUMP JUMPDEST JUMPDEST PUSH1 0x1 DUP6 MUL DUP4 ADD SWAP2 POP DUP5 DUP7 SUB SWAP1 POP SWAP5 POP SWAP5 SWAP3 POP POP POP JUMP JUMPDEST PUSH0 DUP3 SWAP1 POP SWAP3 SWAP2 POP POP JUMP JUMPDEST PUSH0 DUP3 DUP3 SHL SWAP1 POP SWAP3 SWAP2 POP POP JUMP JUMPDEST PUSH0 PUSH2 0x148B DUP4 DUP4 PUSH2 0x146A JUMP JUMPDEST DUP3 PUSH2 0x1496 DUP2 CALLDATALOAD PUSH2 0xE55 JUMP JUMPDEST SWAP3 POP PUSH1 0x4 DUP3 LT ISZERO PUSH2 0x14D6 JUMPI PUSH2 0x14D1 PUSH32 0xFFFFFFFF00000000000000000000000000000000000000000000000000000000 DUP4 PUSH1 0x4 SUB PUSH1 0x8 MUL PUSH2 0x1474 JUMP JUMPDEST DUP4 AND SWAP3 POP JUMPDEST POP POP SWAP3 SWAP2 POP POP JUMP INVALID LOG2 PUSH5 0x6970667358 0x22 SLT KECCAK256 CREATE PUSH11 0x14F21D19417E6702B58CE4 LOG4 0xE8 0xD9 0xB1 DUP2 0xCB 0xAB 0xC7 0x4C SWAP9 DUP14 0x22 0xE8 0xA8 DUP13 0xB4 PUSH2 0xF33 PUSH5 0x736F6C6343 STOP ADDMOD EQ STOP CALLER "
				},
				"gasEstimates": {
					"creation": {
						"codeDepositCost": "1079200",
						"executionCost": "infinite",
						"totalCost": "infinite"
					},
					"external": {
						"acceptOwnership()": "54738",
						"addVerifier(bytes4,address)": "infinite",
						"getVerifier(bytes)": "infinite",
						"getVerifier(bytes4)": "infinite",
						"owner()": "2626",
						"pendingOwner()": "2559",
						"removeVerifier(bytes4)": "infinite",
						"renounceOwnership()": "infinite",
						"transferOwnership(address)": "infinite",
						"verifiers(bytes4)": "infinite",
						"verify(bytes,bytes32,bytes32)": "infinite",
						"verifyIntegrity((bytes,bytes32))": "infinite",
						"verifyWithJournal(bytes,bytes32,bytes)": "infinite"
					},
					"internal": {
						"_verify(bytes calldata,bytes32,bytes32)": "infinite"
					}
				},
				"methodIdentifiers": {
					"acceptOwnership()": "79ba5097",
					"addVerifier(bytes4,address)": "d0a6af30",
					"getVerifier(bytes)": "c17e7ba8",
					"getVerifier(bytes4)": "3cadf449",
					"owner()": "8da5cb5b",
					"pendingOwner()": "e30c3978",
					"removeVerifier(bytes4)": "93d237f6",
					"renounceOwnership()": "715018a6",
					"transferOwnership(address)": "f2fde38b",
					"verifiers(bytes4)": "fa9381d3",
					"verify(bytes,bytes32,bytes32)": "ab750e75",
					"verifyIntegrity((bytes,bytes32))": "1599ead5",
					"verifyWithJournal(bytes,bytes32,bytes)": "092c15bc"
				}
			},
			"storageLayout": {
				"storage": [
					{
						"astId": 8,
						"contract": "src/RiscZeroVerifierRouter.sol:RiscZeroVerifierRouter",
						"label": "_owner",
						"offset": 0,
						"slot": "0",
						"type": "t_address"
					},
					{
						"astId": 156,
						"contract": "src/RiscZeroVerifierRouter.sol:RiscZeroVerifierRouter",
						"label": "_pendingOwner",
						"offset": 0,
						"slot": "1",
						"type": "t_address"
					},
					{
						"astId": 283,
						"contract": "src/RiscZeroVerifierRouter.sol:RiscZeroVerifierRouter",
						"label": "verifiers",
						"offset": 0,
						"slot": "2",
						"type": "t_mapping(t_bytes4,t_contract(IRiscZeroVerifier)769)"
					}
				],
				"types": {
					"t_address": {
						"encoding": "inplace",
						"label": "address",
						"numberOfBytes": "20"
					},
					"t_bytes4": {
						"encoding": "inplace",
						"label": "bytes4",
						"numberOfBytes": "4"
					},
					"t_contract(IRiscZeroVerifier)769": {
						"encoding": "inplace",
						"label": "contract IRiscZeroVerifier",
						"numberOfBytes": "20"
					},
					"t_mapping(t_bytes4,t_contract(IRiscZeroVerifier)769)": {
						"encoding": "mapping",
						"key": "t_bytes4",
						"label": "mapping(bytes4 => contract IRiscZeroVerifier)",
						"numberOfBytes": "32",
						"value": "t_contract(IRiscZeroVerifier)769"
					}
				}
			},
			"userdoc": {
				"errors": {
					"SelectorInUse(bytes4)": [
						{
							"notice": "Error raised when attempting to add a verifier for a selector that is already registered."
						}
					],
					"SelectorRemoved(bytes4)": [
						{
							"notice": "Error raised when attempting to verify a receipt with a selector that has been         removed, or attempting to add a new verifier with a selector that was previously         registered and then removed."
						}
					],
					"SelectorUnknown(bytes4)": [
						{
							"notice": "Error raised when attempting to verify a receipt with a selector that is not         registered on this router. Generally, this indicates a version mismatch where the         prover generated a receipt with version of the zkVM that does not match any         registered version on this router contract."
						}
					]
				},
				"kind": "user",
				"methods": {
					"addVerifier(bytes4,address)": {
						"notice": "Adds a verifier to the router, such that it can receive receipt verification calls."
					},
					"getVerifier(bytes)": {
						"notice": "Get the associatied verifier, reverting if the selector is unknown or removed."
					},
					"getVerifier(bytes4)": {
						"notice": "Get the associatied verifier, reverting if the selector is unknown or removed."
					},
					"removeVerifier(bytes4)": {
						"notice": "Removes verifier from the router, such that it can not receive verification calls.         Removing a selector sets it to the tombstone value. It can never be set to any         other value, and can never be reused for a new verifier, in order to enforce the         property that each selector maps to at most one implementation across time."
					},
					"verifiers(bytes4)": {
						"notice": "Mapping from 4-byte verifier selector to verifier contracts.         Used to route receipts to verifiers that are able to check the receipt."
					},
					"verify(bytes,bytes32,bytes32)": {
						"notice": "Verify that the given seal is a valid RISC Zero proof of execution with the     given image ID and journal digest. Reverts on failure."
					},
					"verifyIntegrity((bytes,bytes32))": {
						"notice": "Verify that the given receipt is a valid RISC Zero receipt, ensuring the `seal` is valid a cryptographic proof of the execution with the given `claim`. Reverts on failure."
					}
				},
				"notice": "Router for IRiscZeroVerifier, allowing multiple implementations to be accessible behind a single address.",
				"version": 1
			}
		}
	}
}