{
	"src/RiscZeroVerifierEmergencyStop.sol": {
		"RiscZeroVerifierEmergencyStop": {
			"abi": [
				{
					"inputs": [
						{
							"internalType": "contract IRiscZeroVerifier",
							"name": "_verifier",
							"type": "address"
						},
						{
							"internalType": "address",
							"name": "guardian",
							"type": "address"
						}
					],
					"stateMutability": "nonpayable",
					"type": "constructor"
				},
				{
					"inputs": [],
					"name": "EnforcedPause",
					"type": "error"
				},
				{
					"inputs": [],
					"name": "ExpectedPause",
					"type": "error"
				},
				{
					"inputs": [],
					"name": "InvalidProofOfExploit",
					"type": "error"
				},
				{
					"inputs": [
						{
							"internalType": "address",
							"name": "owner",
							"type": "address"
						}
					],
					"name": "OwnableInvalidOwner",
					"type": "error"
				},
				{
					"inputs": [
						{
							"internalType": "address",
							"name": "account",
							"type": "address"
						}
					],
					"name": "OwnableUnauthorizedAccount",
					"type": "error"
				},
				{
					"anonymous": false,
					"inputs": [
						{
							"indexed": true,
							"internalType": "address",
							"name": "previousOwner",
							"type": "address"
						},
						{
							"indexed": true,
							"internalType": "address",
							"name": "newOwner",
							"type": "address"
						}
					],
					"name": "OwnershipTransferStarted",
					"type": "event"
				},
				{
					"anonymous": false,
					"inputs": [
						{
							"indexed": true,
							"internalType": "address",
							"name": "previousOwner",
							"type": "address"
						},
						{
							"indexed": true,
							"internalType": "address",
							"name": "newOwner",
							"type": "address"
						}
					],
					"name": "OwnershipTransferred",
					"type": "event"
				},
				{
					"anonymous": false,
					"inputs": [
						{
							"indexed": false,
							"internalType": "address",
							"name": "account",
							"type": "address"
						}
					],
					"name": "Paused",
					"type": "event"
				},
				{
					"anonymous": false,
					"inputs": [
						{
							"indexed": false,
							"internalType": "address",
							"name": "account",
							"type": "address"
						}
					],
					"name": "Unpaused",
					"type": "event"
				},
				{
					"inputs": [],
					"name": "acceptOwnership",
					"outputs": [],
					"stateMutability": "nonpayable",
					"type": "function"
				},
				{
					"inputs": [
						{
							"components": [
								{
									"internalType": "bytes",
									"name": "seal",
									"type": "bytes"
								},
								{
									"internalType": "bytes32",
									"name": "claimDigest",
									"type": "bytes32"
								}
							],
							"internalType": "struct Receipt",
							"name": "receipt",
							"type": "tuple"
						}
					],
					"name": "estop",
					"outputs": [],
					"stateMutability": "nonpayable",
					"type": "function"
				},
				{
					"inputs": [],
					"name": "estop",
					"outputs": [],
					"stateMutability": "nonpayable",
					"type": "function"
				},
				{
					"inputs": [],
					"name": "owner",
					"outputs": [
						{
							"internalType": "address",
							"name": "",
							"type": "address"
						}
					],
					"stateMutability": "view",
					"type": "function"
				},
				{
					"inputs": [],
					"name": "paused",
					"outputs": [
						{
							"internalType": "bool",
							"name": "",
							"type": "bool"
						}
					],
					"stateMutability": "view",
					"type": "function"
				},
				{
					"inputs": [],
					"name": "pendingOwner",
					"outputs": [
						{
							"internalType": "address",
							"name": "",
							"type": "address"
						}
					],
					"stateMutability": "view",
					"type": "function"
				},
				{
					"inputs": [],
					"name": "renounceOwnership",
					"outputs": [],
					"stateMutability": "nonpayable",
					"type": "function"
				},
				{
					"inputs": [
						{
							"internalType": "address",
							"name": "newOwner",
							"type": "address"
						}
					],
					"name": "transferOwnership",
					"outputs": [],
					"stateMutability": "nonpayable",
					"type": "function"
				},
				{
					"inputs": [],
					"name": "verifier",
					"outputs": [
						{
							"internalType": "contract IRiscZeroVerifier",
							"name": "",
							"type": "address"
						}
					],
					"stateMutability": "view",
					"type": "function"
				},
				{
					"inputs": [
						{
							"internalType": "bytes",
							"name": "seal",
							"type": "bytes"
						},
						{
							"internalType": "bytes32",
							"name": "imageId",
							"type": "bytes32"
						},
						{
							"internalType": "bytes32",
							"name": "journalDigest",
							"type": "bytes32"
						}
					],
					"name": "verify",
					"outputs": [],
					"stateMutability": "view",
					"type": "function"
				},
				{
					"inputs": [
						{
							"components": [
								{
									"internalType": "bytes",
									"name": "seal",
									"type": "bytes"
								},
								{
									"internalType": "bytes32",
									"name": "claimDigest",
									"type": "bytes32"
								}
							],
							"internalType": "struct Receipt",
							"name": "receipt",
							"type": "tuple"
						}
					],
					"name": "verifyIntegrity",
					"outputs": [],
					"stateMutability": "view",
					"type": "function"
				}
			],
			"devdoc": {
				"errors": {
					"EnforcedPause()": [
						{
							"details": "The operation failed because the contract is paused."
						}
					],
					"ExpectedPause()": [
						{
							"details": "The operation failed because the contract is not paused."
						}
					],
					"OwnableInvalidOwner(address)": [
						{
							"details": "The owner is not a valid owner account. (eg. `address(0)`)"
						}
					],
					"OwnableUnauthorizedAccount(address)": [
						{
							"details": "The caller account is not authorized to perform an operation."
						}
					]
				},
				"events": {
					"Paused(address)": {
						"details": "Emitted when the pause is triggered by `account`."
					},
					"Unpaused(address)": {
						"details": "Emitted when the pause is lifted by `account`."
					}
				},
				"kind": "dev",
				"methods": {
					"acceptOwnership()": {
						"details": "The new owner accepts the ownership transfer."
					},
					"owner()": {
						"details": "Returns the address of the current owner."
					},
					"paused()": {
						"details": "Returns true if the contract is paused, and false otherwise."
					},
					"pendingOwner()": {
						"details": "Returns the address of the pending owner."
					},
					"renounceOwnership()": {
						"details": "Leaves the contract without owner. It will not be possible to call `onlyOwner` functions. Can only be called by the current owner. NOTE: Renouncing ownership will leave the contract without an owner, thereby disabling any functionality that is only available to the owner."
					},
					"transferOwnership(address)": {
						"details": "Starts the ownership transfer of the contract to a new account. Replaces the pending transfer if there is one. Can only be called by the current owner. Setting `newOwner` to the zero address is allowed; this can be used to cancel an initiated ownership transfer."
					},
					"verify(bytes,bytes32,bytes32)": {
						"details": "This method additionally ensures that the input hash is all-zeros (i.e. no committed input), the exit code is (Halted, 0), and there are no assumptions (i.e. the receipt is unconditional).",
						"params": {
							"imageId": "The identifier for the guest program.",
							"journalDigest": "The SHA-256 digest of the journal bytes.",
							"seal": "The encoded cryptographic proof (i.e. SNARK)."
						}
					},
					"verifyIntegrity((bytes,bytes32))": {
						"params": {
							"receipt": "The receipt to be verified."
						}
					}
				},
				"version": 1
			},
			"evm": {
				"assembly": "    /* \"src/RiscZeroVerifierEmergencyStop.sol\":1046:3263  contract RiscZeroVerifierEmergencyStop is... */\n  mstore(0x40, 0xa0)\n    /* \"src/RiscZeroVerifierEmergencyStop.sol\":1378:1514  constructor(... */\n  callvalue\n  dup1\n  iszero\n  tag_1\n  jumpi\n  0x00\n  dup1\n  revert\ntag_1:\n  pop\n  mload(0x40)\n  sub(codesize, bytecodeSize)\n  dup1\n  bytecodeSize\n  dup4\n  codecopy\n  dup2\n  dup2\n  add\n  0x40\n  mstore\n  dup2\n  add\n  swap1\n  tag_2\n  swap2\n  swap1\n  tag_3\n  jump\t// in\ntag_2:\n    /* \"src/RiscZeroVerifierEmergencyStop.sol\":1467:1475  guardian */\n  dup1\n    /* \"@openzeppelin/contracts/access/Ownable.sol\":1297:1298  0 */\n  0x00\n    /* \"@openzeppelin/contracts/access/Ownable.sol\":1273:1299  initialOwner == address(0) */\n  0xffffffffffffffffffffffffffffffffffffffff\n  and\n    /* \"@openzeppelin/contracts/access/Ownable.sol\":1273:1285  initialOwner */\n  dup2\n    /* \"@openzeppelin/contracts/access/Ownable.sol\":1273:1299  initialOwner == address(0) */\n  0xffffffffffffffffffffffffffffffffffffffff\n  and\n  sub\n    /* \"@openzeppelin/contracts/access/Ownable.sol\":1269:1364  if (initialOwner == address(0)) {... */\n  tag_7\n  jumpi\n    /* \"@openzeppelin/contracts/access/Ownable.sol\":1350:1351  0 */\n  0x00\n    /* \"@openzeppelin/contracts/access/Ownable.sol\":1322:1353  OwnableInvalidOwner(address(0)) */\n  mload(0x40)\n  0x1e4fbdf700000000000000000000000000000000000000000000000000000000\n  dup2\n  mstore\n  0x04\n  add\n  tag_8\n  swap2\n  swap1\n  tag_9\n  jump\t// in\ntag_8:\n  mload(0x40)\n  dup1\n  swap2\n  sub\n  swap1\n  revert\n    /* \"@openzeppelin/contracts/access/Ownable.sol\":1269:1364  if (initialOwner == address(0)) {... */\ntag_7:\n    /* \"@openzeppelin/contracts/access/Ownable.sol\":1373:1405  _transferOwnership(initialOwner) */\n  tag_10\n    /* \"@openzeppelin/contracts/access/Ownable.sol\":1392:1404  initialOwner */\n  dup2\n    /* \"@openzeppelin/contracts/access/Ownable.sol\":1373:1391  _transferOwnership */\n  shl(0x20, tag_11)\n    /* \"@openzeppelin/contracts/access/Ownable.sol\":1373:1405  _transferOwnership(initialOwner) */\n  0x20\n  shr\n  jump\t// in\ntag_10:\n    /* \"@openzeppelin/contracts/access/Ownable.sol\":1225:1412  constructor(address initialOwner) {... */\n  pop\n    /* \"src/RiscZeroVerifierEmergencyStop.sol\":1498:1507  _verifier */\n  dup2\n    /* \"src/RiscZeroVerifierEmergencyStop.sol\":1487:1507  verifier = _verifier */\n  0xffffffffffffffffffffffffffffffffffffffff\n  and\n  0x80\n  dup2\n  0xffffffffffffffffffffffffffffffffffffffff\n  and\n  dup2\n  mstore\n  pop\n  pop\n    /* \"src/RiscZeroVerifierEmergencyStop.sol\":1378:1514  constructor(... */\n  pop\n  pop\n    /* \"src/RiscZeroVerifierEmergencyStop.sol\":1046:3263  contract RiscZeroVerifierEmergencyStop is... */\n  jump(tag_13)\n    /* \"@openzeppelin/contracts/access/Ownable2Step.sol\":2011:2164  function _transferOwnership(address newOwner) internal virtual override {... */\ntag_11:\n    /* \"@openzeppelin/contracts/access/Ownable2Step.sol\":2100:2113  _pendingOwner */\n  0x01\n  0x00\n    /* \"@openzeppelin/contracts/access/Ownable2Step.sol\":2093:2113  delete _pendingOwner */\n  0x0100\n  exp\n  dup2\n  sload\n  swap1\n  0xffffffffffffffffffffffffffffffffffffffff\n  mul\n  not\n  and\n  swap1\n  sstore\n    /* \"@openzeppelin/contracts/access/Ownable2Step.sol\":2123:2157  super._transferOwnership(newOwner) */\n  tag_15\n    /* \"@openzeppelin/contracts/access/Ownable2Step.sol\":2148:2156  newOwner */\n  dup2\n    /* \"@openzeppelin/contracts/access/Ownable2Step.sol\":2123:2147  super._transferOwnership */\n  shl(0x20, tag_16)\n    /* \"@openzeppelin/contracts/access/Ownable2Step.sol\":2123:2157  super._transferOwnership(newOwner) */\n  0x20\n  shr\n  jump\t// in\ntag_15:\n    /* \"@openzeppelin/contracts/access/Ownable2Step.sol\":2011:2164  function _transferOwnership(address newOwner) internal virtual override {... */\n  pop\n  jump\t// out\n    /* \"@openzeppelin/contracts/access/Ownable.sol\":2912:3099  function _transferOwnership(address newOwner) internal virtual {... */\ntag_16:\n    /* \"@openzeppelin/contracts/access/Ownable.sol\":2985:3001  address oldOwner */\n  0x00\n    /* \"@openzeppelin/contracts/access/Ownable.sol\":3004:3010  _owner */\n  dup1\n  0x00\n  swap1\n  sload\n  swap1\n  0x0100\n  exp\n  swap1\n  div\n  0xffffffffffffffffffffffffffffffffffffffff\n  and\n    /* \"@openzeppelin/contracts/access/Ownable.sol\":2985:3010  address oldOwner = _owner */\n  swap1\n  pop\n    /* \"@openzeppelin/contracts/access/Ownable.sol\":3029:3037  newOwner */\n  dup2\n    /* \"@openzeppelin/contracts/access/Ownable.sol\":3020:3026  _owner */\n  0x00\n  dup1\n    /* \"@openzeppelin/contracts/access/Ownable.sol\":3020:3037  _owner = newOwner */\n  0x0100\n  exp\n  dup2\n  sload\n  dup2\n  0xffffffffffffffffffffffffffffffffffffffff\n  mul\n  not\n  and\n  swap1\n  dup4\n  0xffffffffffffffffffffffffffffffffffffffff\n  and\n  mul\n  or\n  swap1\n  sstore\n  pop\n    /* \"@openzeppelin/contracts/access/Ownable.sol\":3083:3091  newOwner */\n  dup2\n    /* \"@openzeppelin/contracts/access/Ownable.sol\":3052:3092  OwnershipTransferred(oldOwner, newOwner) */\n  0xffffffffffffffffffffffffffffffffffffffff\n  and\n    /* \"@openzeppelin/contracts/access/Ownable.sol\":3073:3081  oldOwner */\n  dup2\n    /* \"@openzeppelin/contracts/access/Ownable.sol\":3052:3092  OwnershipTransferred(oldOwner, newOwner) */\n  0xffffffffffffffffffffffffffffffffffffffff\n  and\n  0x8be0079c531659141344cd1fd0a4f28419497f9722a3daafe3b4186f6b6457e0\n  mload(0x40)\n  mload(0x40)\n  dup1\n  swap2\n  sub\n  swap1\n  log3\n    /* \"@openzeppelin/contracts/access/Ownable.sol\":2975:3099  {... */\n  pop\n    /* \"@openzeppelin/contracts/access/Ownable.sol\":2912:3099  function _transferOwnership(address newOwner) internal virtual {... */\n  pop\n  jump\t// out\n    /* \"#utility.yul\":88:205   */\ntag_19:\n    /* \"#utility.yul\":197:198   */\n  0x00\n    /* \"#utility.yul\":194:195   */\n  dup1\n    /* \"#utility.yul\":187:199   */\n  revert\n    /* \"#utility.yul\":334:460   */\ntag_21:\n    /* \"#utility.yul\":371:378   */\n  0x00\n    /* \"#utility.yul\":411:453   */\n  0xffffffffffffffffffffffffffffffffffffffff\n    /* \"#utility.yul\":404:409   */\n  dup3\n    /* \"#utility.yul\":400:454   */\n  and\n    /* \"#utility.yul\":389:454   */\n  swap1\n  pop\n    /* \"#utility.yul\":334:460   */\n  swap2\n  swap1\n  pop\n  jump\t// out\n    /* \"#utility.yul\":466:562   */\ntag_22:\n    /* \"#utility.yul\":503:510   */\n  0x00\n    /* \"#utility.yul\":532:556   */\n  tag_35\n    /* \"#utility.yul\":550:555   */\n  dup3\n    /* \"#utility.yul\":532:556   */\n  tag_21\n  jump\t// in\ntag_35:\n    /* \"#utility.yul\":521:556   */\n  swap1\n  pop\n    /* \"#utility.yul\":466:562   */\n  swap2\n  swap1\n  pop\n  jump\t// out\n    /* \"#utility.yul\":568:689   */\ntag_23:\n    /* \"#utility.yul\":630:637   */\n  0x00\n    /* \"#utility.yul\":659:683   */\n  tag_37\n    /* \"#utility.yul\":677:682   */\n  dup3\n    /* \"#utility.yul\":659:683   */\n  tag_22\n  jump\t// in\ntag_37:\n    /* \"#utility.yul\":648:683   */\n  swap1\n  pop\n    /* \"#utility.yul\":568:689   */\n  swap2\n  swap1\n  pop\n  jump\t// out\n    /* \"#utility.yul\":695:867   */\ntag_24:\n    /* \"#utility.yul\":793:842   */\n  tag_39\n    /* \"#utility.yul\":836:841   */\n  dup2\n    /* \"#utility.yul\":793:842   */\n  tag_23\n  jump\t// in\ntag_39:\n    /* \"#utility.yul\":786:791   */\n  dup2\n    /* \"#utility.yul\":783:843   */\n  eq\n    /* \"#utility.yul\":773:861   */\n  tag_40\n  jumpi\n    /* \"#utility.yul\":857:858   */\n  0x00\n    /* \"#utility.yul\":854:855   */\n  dup1\n    /* \"#utility.yul\":847:859   */\n  revert\n    /* \"#utility.yul\":773:861   */\ntag_40:\n    /* \"#utility.yul\":695:867   */\n  pop\n  jump\t// out\n    /* \"#utility.yul\":873:1066   */\ntag_25:\n    /* \"#utility.yul\":955:960   */\n  0x00\n    /* \"#utility.yul\":986:992   */\n  dup2\n    /* \"#utility.yul\":980:993   */\n  mload\n    /* \"#utility.yul\":971:993   */\n  swap1\n  pop\n    /* \"#utility.yul\":1002:1060   */\n  tag_42\n    /* \"#utility.yul\":1054:1059   */\n  dup2\n    /* \"#utility.yul\":1002:1060   */\n  tag_24\n  jump\t// in\ntag_42:\n    /* \"#utility.yul\":873:1066   */\n  swap3\n  swap2\n  pop\n  pop\n  jump\t// out\n    /* \"#utility.yul\":1072:1194   */\ntag_26:\n    /* \"#utility.yul\":1145:1169   */\n  tag_44\n    /* \"#utility.yul\":1163:1168   */\n  dup2\n    /* \"#utility.yul\":1145:1169   */\n  tag_22\n  jump\t// in\ntag_44:\n    /* \"#utility.yul\":1138:1143   */\n  dup2\n    /* \"#utility.yul\":1135:1170   */\n  eq\n    /* \"#utility.yul\":1125:1188   */\n  tag_45\n  jumpi\n    /* \"#utility.yul\":1184:1185   */\n  0x00\n    /* \"#utility.yul\":1181:1182   */\n  dup1\n    /* \"#utility.yul\":1174:1186   */\n  revert\n    /* \"#utility.yul\":1125:1188   */\ntag_45:\n    /* \"#utility.yul\":1072:1194   */\n  pop\n  jump\t// out\n    /* \"#utility.yul\":1200:1343   */\ntag_27:\n    /* \"#utility.yul\":1257:1262   */\n  0x00\n    /* \"#utility.yul\":1288:1294   */\n  dup2\n    /* \"#utility.yul\":1282:1295   */\n  mload\n    /* \"#utility.yul\":1273:1295   */\n  swap1\n  pop\n    /* \"#utility.yul\":1304:1337   */\n  tag_47\n    /* \"#utility.yul\":1331:1336   */\n  dup2\n    /* \"#utility.yul\":1304:1337   */\n  tag_26\n  jump\t// in\ntag_47:\n    /* \"#utility.yul\":1200:1343   */\n  swap3\n  swap2\n  pop\n  pop\n  jump\t// out\n    /* \"#utility.yul\":1349:1906   */\ntag_3:\n    /* \"#utility.yul\":1453:1459   */\n  0x00\n    /* \"#utility.yul\":1461:1467   */\n  dup1\n    /* \"#utility.yul\":1510:1512   */\n  0x40\n    /* \"#utility.yul\":1498:1507   */\n  dup4\n    /* \"#utility.yul\":1489:1496   */\n  dup6\n    /* \"#utility.yul\":1485:1508   */\n  sub\n    /* \"#utility.yul\":1481:1513   */\n  slt\n    /* \"#utility.yul\":1478:1597   */\n  iszero\n  tag_49\n  jumpi\n    /* \"#utility.yul\":1516:1595   */\n  tag_50\n  tag_19\n  jump\t// in\ntag_50:\n    /* \"#utility.yul\":1478:1597   */\ntag_49:\n    /* \"#utility.yul\":1636:1637   */\n  0x00\n    /* \"#utility.yul\":1661:1750   */\n  tag_51\n    /* \"#utility.yul\":1742:1749   */\n  dup6\n    /* \"#utility.yul\":1733:1739   */\n  dup3\n    /* \"#utility.yul\":1722:1731   */\n  dup7\n    /* \"#utility.yul\":1718:1740   */\n  add\n    /* \"#utility.yul\":1661:1750   */\n  tag_25\n  jump\t// in\ntag_51:\n    /* \"#utility.yul\":1651:1750   */\n  swap3\n  pop\n    /* \"#utility.yul\":1607:1760   */\n  pop\n    /* \"#utility.yul\":1799:1801   */\n  0x20\n    /* \"#utility.yul\":1825:1889   */\n  tag_52\n    /* \"#utility.yul\":1881:1888   */\n  dup6\n    /* \"#utility.yul\":1872:1878   */\n  dup3\n    /* \"#utility.yul\":1861:1870   */\n  dup7\n    /* \"#utility.yul\":1857:1879   */\n  add\n    /* \"#utility.yul\":1825:1889   */\n  tag_27\n  jump\t// in\ntag_52:\n    /* \"#utility.yul\":1815:1889   */\n  swap2\n  pop\n    /* \"#utility.yul\":1770:1899   */\n  pop\n    /* \"#utility.yul\":1349:1906   */\n  swap3\n  pop\n  swap3\n  swap1\n  pop\n  jump\t// out\n    /* \"#utility.yul\":1912:2030   */\ntag_28:\n    /* \"#utility.yul\":1999:2023   */\n  tag_54\n    /* \"#utility.yul\":2017:2022   */\n  dup2\n    /* \"#utility.yul\":1999:2023   */\n  tag_22\n  jump\t// in\ntag_54:\n    /* \"#utility.yul\":1994:1997   */\n  dup3\n    /* \"#utility.yul\":1987:2024   */\n  mstore\n    /* \"#utility.yul\":1912:2030   */\n  pop\n  pop\n  jump\t// out\n    /* \"#utility.yul\":2036:2258   */\ntag_9:\n    /* \"#utility.yul\":2129:2133   */\n  0x00\n    /* \"#utility.yul\":2167:2169   */\n  0x20\n    /* \"#utility.yul\":2156:2165   */\n  dup3\n    /* \"#utility.yul\":2152:2170   */\n  add\n    /* \"#utility.yul\":2144:2170   */\n  swap1\n  pop\n    /* \"#utility.yul\":2180:2251   */\n  tag_56\n    /* \"#utility.yul\":2248:2249   */\n  0x00\n    /* \"#utility.yul\":2237:2246   */\n  dup4\n    /* \"#utility.yul\":2233:2250   */\n  add\n    /* \"#utility.yul\":2224:2230   */\n  dup5\n    /* \"#utility.yul\":2180:2251   */\n  tag_28\n  jump\t// in\ntag_56:\n    /* \"#utility.yul\":2036:2258   */\n  swap3\n  swap2\n  pop\n  pop\n  jump\t// out\n    /* \"src/RiscZeroVerifierEmergencyStop.sol\":1046:3263  contract RiscZeroVerifierEmergencyStop is... */\ntag_13:\n  mload(0x80)\n  codecopy(0x00, dataOffset(sub_0), dataSize(sub_0))\n  0x00\n  assignImmutable(\"0x792fb9957b0c7c0af16304f5602126f9e16a84a7f6f8a55e0144210b32419511\")\n  return(0x00, dataSize(sub_0))\nstop\n\nsub_0: assembly {\n        /* \"src/RiscZeroVerifierEmergencyStop.sol\":1046:3263  contract RiscZeroVerifierEmergencyStop is... */\n      mstore(0x40, 0x80)\n      callvalue\n      dup1\n      iszero\n      tag_1\n      jumpi\n      0x00\n      dup1\n      revert\n    tag_1:\n      pop\n      jumpi(tag_2, lt(calldatasize, 0x04))\n      shr(0xe0, calldataload(0x00))\n      dup1\n      0x8da5cb5b\n      gt\n      tag_14\n      jumpi\n      dup1\n      0x8da5cb5b\n      eq\n      tag_8\n      jumpi\n      dup1\n      0x94142cc6\n      eq\n      tag_9\n      jumpi\n      dup1\n      0xab750e75\n      eq\n      tag_10\n      jumpi\n      dup1\n      0xe30c3978\n      eq\n      tag_11\n      jumpi\n      dup1\n      0xe5caa16a\n      eq\n      tag_12\n      jumpi\n      dup1\n      0xf2fde38b\n      eq\n      tag_13\n      jumpi\n      jump(tag_2)\n    tag_14:\n      dup1\n      0x1599ead5\n      eq\n      tag_3\n      jumpi\n      dup1\n      0x2b7ac3f3\n      eq\n      tag_4\n      jumpi\n      dup1\n      0x5c975abb\n      eq\n      tag_5\n      jumpi\n      dup1\n      0x715018a6\n      eq\n      tag_6\n      jumpi\n      dup1\n      0x79ba5097\n      eq\n      tag_7\n      jumpi\n    tag_2:\n      0x00\n      dup1\n      revert\n        /* \"src/RiscZeroVerifierEmergencyStop.sol\":3064:3261  function verifyIntegrity(... */\n    tag_3:\n      tag_15\n      0x04\n      dup1\n      calldatasize\n      sub\n      dup2\n      add\n      swap1\n      tag_16\n      swap2\n      swap1\n      tag_17\n      jump\t// in\n    tag_16:\n      tag_18\n      jump\t// in\n    tag_15:\n      stop\n        /* \"src/RiscZeroVerifierEmergencyStop.sol\":1148:1191  IRiscZeroVerifier public immutable verifier */\n    tag_4:\n      tag_19\n      tag_20\n      jump\t// in\n    tag_19:\n      mload(0x40)\n      tag_21\n      swap2\n      swap1\n      tag_22\n      jump\t// in\n    tag_21:\n      mload(0x40)\n      dup1\n      swap2\n      sub\n      swap1\n      return\n        /* \"@openzeppelin/contracts/utils/Pausable.sol\":1726:1810  function paused() public view virtual returns (bool) {... */\n    tag_5:\n      tag_23\n      tag_24\n      jump\t// in\n    tag_23:\n      mload(0x40)\n      tag_25\n      swap2\n      swap1\n      tag_26\n      jump\t// in\n    tag_25:\n      mload(0x40)\n      dup1\n      swap2\n      sub\n      swap1\n      return\n        /* \"@openzeppelin/contracts/access/Ownable.sol\":2293:2394  function renounceOwnership() public virtual onlyOwner {... */\n    tag_6:\n      tag_27\n      tag_28\n      jump\t// in\n    tag_27:\n      stop\n        /* \"@openzeppelin/contracts/access/Ownable2Step.sol\":2244:2473  function acceptOwnership() public virtual {... */\n    tag_7:\n      tag_29\n      tag_30\n      jump\t// in\n    tag_29:\n      stop\n        /* \"@openzeppelin/contracts/access/Ownable.sol\":1638:1723  function owner() public view virtual returns (address) {... */\n    tag_8:\n      tag_31\n      tag_32\n      jump\t// in\n    tag_31:\n      mload(0x40)\n      tag_33\n      swap2\n      swap1\n      tag_34\n      jump\t// in\n    tag_33:\n      mload(0x40)\n      dup1\n      swap2\n      sub\n      swap1\n      return\n        /* \"src/RiscZeroVerifierEmergencyStop.sol\":2440:2723  function estop(Receipt calldata receipt) external {... */\n    tag_9:\n      tag_35\n      0x04\n      dup1\n      calldatasize\n      sub\n      dup2\n      add\n      swap1\n      tag_36\n      swap2\n      swap1\n      tag_17\n      jump\t// in\n    tag_36:\n      tag_37\n      jump\t// in\n    tag_35:\n      stop\n        /* \"src/RiscZeroVerifierEmergencyStop.sol\":2767:3020  function verify(... */\n    tag_10:\n      tag_38\n      0x04\n      dup1\n      calldatasize\n      sub\n      dup2\n      add\n      swap1\n      tag_39\n      swap2\n      swap1\n      tag_40\n      jump\t// in\n    tag_39:\n      tag_41\n      jump\t// in\n    tag_38:\n      stop\n        /* \"@openzeppelin/contracts/access/Ownable2Step.sol\":1232:1331  function pendingOwner() public view virtual returns (address) {... */\n    tag_11:\n      tag_42\n      tag_43\n      jump\t// in\n    tag_42:\n      mload(0x40)\n      tag_44\n      swap2\n      swap1\n      tag_34\n      jump\t// in\n    tag_44:\n      mload(0x40)\n      dup1\n      swap2\n      sub\n      swap1\n      return\n        /* \"src/RiscZeroVerifierEmergencyStop.sol\":1855:1916  function estop() external onlyOwner {... */\n    tag_12:\n      tag_45\n      tag_46\n      jump\t// in\n    tag_45:\n      stop\n        /* \"@openzeppelin/contracts/access/Ownable2Step.sol\":1649:1827  function transferOwnership(address newOwner) public virtual override onlyOwner {... */\n    tag_13:\n      tag_47\n      0x04\n      dup1\n      calldatasize\n      sub\n      dup2\n      add\n      swap1\n      tag_48\n      swap2\n      swap1\n      tag_49\n      jump\t// in\n    tag_48:\n      tag_50\n      jump\t// in\n    tag_47:\n      stop\n        /* \"src/RiscZeroVerifierEmergencyStop.sol\":3064:3261  function verifyIntegrity(... */\n    tag_18:\n        /* \"@openzeppelin/contracts/utils/Pausable.sol\":1350:1369  _requireNotPaused() */\n      tag_52\n        /* \"@openzeppelin/contracts/utils/Pausable.sol\":1350:1367  _requireNotPaused */\n      tag_53\n        /* \"@openzeppelin/contracts/utils/Pausable.sol\":1350:1369  _requireNotPaused() */\n      jump\t// in\n    tag_52:\n        /* \"src/RiscZeroVerifierEmergencyStop.sol\":3221:3229  verifier */\n      immutable(\"0x792fb9957b0c7c0af16304f5602126f9e16a84a7f6f8a55e0144210b32419511\")\n        /* \"src/RiscZeroVerifierEmergencyStop.sol\":3221:3245  verifier.verifyIntegrity */\n      0xffffffffffffffffffffffffffffffffffffffff\n      and\n      0x1599ead5\n        /* \"src/RiscZeroVerifierEmergencyStop.sol\":3246:3253  receipt */\n      dup3\n        /* \"src/RiscZeroVerifierEmergencyStop.sol\":3221:3254  verifier.verifyIntegrity(receipt) */\n      mload(0x40)\n      dup3\n      0xffffffff\n      and\n      0xe0\n      shl\n      dup2\n      mstore\n      0x04\n      add\n      tag_55\n      swap2\n      swap1\n      tag_56\n      jump\t// in\n    tag_55:\n      0x00\n      mload(0x40)\n      dup1\n      dup4\n      sub\n      dup2\n      dup7\n      dup1\n      extcodesize\n      iszero\n      dup1\n      iszero\n      tag_57\n      jumpi\n      0x00\n      dup1\n      revert\n    tag_57:\n      pop\n      gas\n      staticcall\n      iszero\n      dup1\n      iszero\n      tag_59\n      jumpi\n      returndatasize\n      0x00\n      dup1\n      returndatacopy\n      revert(0x00, returndatasize)\n    tag_59:\n      pop\n      pop\n      pop\n      pop\n        /* \"src/RiscZeroVerifierEmergencyStop.sol\":3064:3261  function verifyIntegrity(... */\n      pop\n      jump\t// out\n        /* \"src/RiscZeroVerifierEmergencyStop.sol\":1148:1191  IRiscZeroVerifier public immutable verifier */\n    tag_20:\n      immutable(\"0x792fb9957b0c7c0af16304f5602126f9e16a84a7f6f8a55e0144210b32419511\")\n      dup2\n      jump\t// out\n        /* \"@openzeppelin/contracts/utils/Pausable.sol\":1726:1810  function paused() public view virtual returns (bool) {... */\n    tag_24:\n        /* \"@openzeppelin/contracts/utils/Pausable.sol\":1773:1777  bool */\n      0x00\n        /* \"@openzeppelin/contracts/utils/Pausable.sol\":1796:1803  _paused */\n      0x01\n      0x14\n      swap1\n      sload\n      swap1\n      0x0100\n      exp\n      swap1\n      div\n      0xff\n      and\n        /* \"@openzeppelin/contracts/utils/Pausable.sol\":1789:1803  return _paused */\n      swap1\n      pop\n        /* \"@openzeppelin/contracts/utils/Pausable.sol\":1726:1810  function paused() public view virtual returns (bool) {... */\n      swap1\n      jump\t// out\n        /* \"@openzeppelin/contracts/access/Ownable.sol\":2293:2394  function renounceOwnership() public virtual onlyOwner {... */\n    tag_28:\n        /* \"@openzeppelin/contracts/access/Ownable.sol\":1531:1544  _checkOwner() */\n      tag_62\n        /* \"@openzeppelin/contracts/access/Ownable.sol\":1531:1542  _checkOwner */\n      tag_63\n        /* \"@openzeppelin/contracts/access/Ownable.sol\":1531:1544  _checkOwner() */\n      jump\t// in\n    tag_62:\n        /* \"@openzeppelin/contracts/access/Ownable.sol\":2357:2387  _transferOwnership(address(0)) */\n      tag_65\n        /* \"@openzeppelin/contracts/access/Ownable.sol\":2384:2385  0 */\n      0x00\n        /* \"@openzeppelin/contracts/access/Ownable.sol\":2357:2375  _transferOwnership */\n      tag_66\n        /* \"@openzeppelin/contracts/access/Ownable.sol\":2357:2387  _transferOwnership(address(0)) */\n      jump\t// in\n    tag_65:\n        /* \"@openzeppelin/contracts/access/Ownable.sol\":2293:2394  function renounceOwnership() public virtual onlyOwner {... */\n      jump\t// out\n        /* \"@openzeppelin/contracts/access/Ownable2Step.sol\":2244:2473  function acceptOwnership() public virtual {... */\n    tag_30:\n        /* \"@openzeppelin/contracts/access/Ownable2Step.sol\":2296:2310  address sender */\n      0x00\n        /* \"@openzeppelin/contracts/access/Ownable2Step.sol\":2313:2325  _msgSender() */\n      tag_68\n        /* \"@openzeppelin/contracts/access/Ownable2Step.sol\":2313:2323  _msgSender */\n      tag_69\n        /* \"@openzeppelin/contracts/access/Ownable2Step.sol\":2313:2325  _msgSender() */\n      jump\t// in\n    tag_68:\n        /* \"@openzeppelin/contracts/access/Ownable2Step.sol\":2296:2325  address sender = _msgSender() */\n      swap1\n      pop\n        /* \"@openzeppelin/contracts/access/Ownable2Step.sol\":2357:2363  sender */\n      dup1\n        /* \"@openzeppelin/contracts/access/Ownable2Step.sol\":2339:2363  pendingOwner() != sender */\n      0xffffffffffffffffffffffffffffffffffffffff\n      and\n        /* \"@openzeppelin/contracts/access/Ownable2Step.sol\":2339:2353  pendingOwner() */\n      tag_70\n        /* \"@openzeppelin/contracts/access/Ownable2Step.sol\":2339:2351  pendingOwner */\n      tag_43\n        /* \"@openzeppelin/contracts/access/Ownable2Step.sol\":2339:2353  pendingOwner() */\n      jump\t// in\n    tag_70:\n        /* \"@openzeppelin/contracts/access/Ownable2Step.sol\":2339:2363  pendingOwner() != sender */\n      0xffffffffffffffffffffffffffffffffffffffff\n      and\n      eq\n        /* \"@openzeppelin/contracts/access/Ownable2Step.sol\":2335:2431  if (pendingOwner() != sender) {... */\n      tag_71\n      jumpi\n        /* \"@openzeppelin/contracts/access/Ownable2Step.sol\":2413:2419  sender */\n      dup1\n        /* \"@openzeppelin/contracts/access/Ownable2Step.sol\":2386:2420  OwnableUnauthorizedAccount(sender) */\n      mload(0x40)\n      0x118cdaa700000000000000000000000000000000000000000000000000000000\n      dup2\n      mstore\n      0x04\n      add\n      tag_72\n      swap2\n      swap1\n      tag_34\n      jump\t// in\n    tag_72:\n      mload(0x40)\n      dup1\n      swap2\n      sub\n      swap1\n      revert\n        /* \"@openzeppelin/contracts/access/Ownable2Step.sol\":2335:2431  if (pendingOwner() != sender) {... */\n    tag_71:\n        /* \"@openzeppelin/contracts/access/Ownable2Step.sol\":2440:2466  _transferOwnership(sender) */\n      tag_73\n        /* \"@openzeppelin/contracts/access/Ownable2Step.sol\":2459:2465  sender */\n      dup2\n        /* \"@openzeppelin/contracts/access/Ownable2Step.sol\":2440:2458  _transferOwnership */\n      tag_66\n        /* \"@openzeppelin/contracts/access/Ownable2Step.sol\":2440:2466  _transferOwnership(sender) */\n      jump\t// in\n    tag_73:\n        /* \"@openzeppelin/contracts/access/Ownable2Step.sol\":2286:2473  {... */\n      pop\n        /* \"@openzeppelin/contracts/access/Ownable2Step.sol\":2244:2473  function acceptOwnership() public virtual {... */\n      jump\t// out\n        /* \"@openzeppelin/contracts/access/Ownable.sol\":1638:1723  function owner() public view virtual returns (address) {... */\n    tag_32:\n        /* \"@openzeppelin/contracts/access/Ownable.sol\":1684:1691  address */\n      0x00\n        /* \"@openzeppelin/contracts/access/Ownable.sol\":1710:1716  _owner */\n      dup1\n      0x00\n      swap1\n      sload\n      swap1\n      0x0100\n      exp\n      swap1\n      div\n      0xffffffffffffffffffffffffffffffffffffffff\n      and\n        /* \"@openzeppelin/contracts/access/Ownable.sol\":1703:1716  return _owner */\n      swap1\n      pop\n        /* \"@openzeppelin/contracts/access/Ownable.sol\":1638:1723  function owner() public view virtual returns (address) {... */\n      swap1\n      jump\t// out\n        /* \"src/RiscZeroVerifierEmergencyStop.sol\":2440:2723  function estop(Receipt calldata receipt) external {... */\n    tag_37:\n        /* \"src/RiscZeroVerifierEmergencyStop.sol\":2535:2536  0 */\n      0x00\n        /* \"src/RiscZeroVerifierEmergencyStop.sol\":2527:2537  bytes32(0) */\n      dup1\n      shl\n        /* \"src/RiscZeroVerifierEmergencyStop.sol\":2504:2511  receipt */\n      dup2\n        /* \"src/RiscZeroVerifierEmergencyStop.sol\":2504:2523  receipt.claimDigest */\n      0x20\n      add\n      calldataload\n        /* \"src/RiscZeroVerifierEmergencyStop.sol\":2504:2537  receipt.claimDigest != bytes32(0) */\n      eq\n        /* \"src/RiscZeroVerifierEmergencyStop.sol\":2500:2594  if (receipt.claimDigest != bytes32(0)) {... */\n      tag_76\n      jumpi\n        /* \"src/RiscZeroVerifierEmergencyStop.sol\":2560:2583  InvalidProofOfExploit() */\n      mload(0x40)\n      0x2004afd100000000000000000000000000000000000000000000000000000000\n      dup2\n      mstore\n      0x04\n      add\n      mload(0x40)\n      dup1\n      swap2\n      sub\n      swap1\n      revert\n        /* \"src/RiscZeroVerifierEmergencyStop.sol\":2500:2594  if (receipt.claimDigest != bytes32(0)) {... */\n    tag_76:\n        /* \"src/RiscZeroVerifierEmergencyStop.sol\":2674:2698  verifyIntegrity(receipt) */\n      tag_77\n        /* \"src/RiscZeroVerifierEmergencyStop.sol\":2690:2697  receipt */\n      dup2\n        /* \"src/RiscZeroVerifierEmergencyStop.sol\":2674:2689  verifyIntegrity */\n      tag_18\n        /* \"src/RiscZeroVerifierEmergencyStop.sol\":2674:2698  verifyIntegrity(receipt) */\n      jump\t// in\n    tag_77:\n        /* \"src/RiscZeroVerifierEmergencyStop.sol\":2708:2716  _pause() */\n      tag_78\n        /* \"src/RiscZeroVerifierEmergencyStop.sol\":2708:2714  _pause */\n      tag_79\n        /* \"src/RiscZeroVerifierEmergencyStop.sol\":2708:2716  _pause() */\n      jump\t// in\n    tag_78:\n        /* \"src/RiscZeroVerifierEmergencyStop.sol\":2440:2723  function estop(Receipt calldata receipt) external {... */\n      pop\n      jump\t// out\n        /* \"src/RiscZeroVerifierEmergencyStop.sol\":2767:3020  function verify(... */\n    tag_41:\n        /* \"@openzeppelin/contracts/utils/Pausable.sol\":1350:1369  _requireNotPaused() */\n      tag_81\n        /* \"@openzeppelin/contracts/utils/Pausable.sol\":1350:1367  _requireNotPaused */\n      tag_53\n        /* \"@openzeppelin/contracts/utils/Pausable.sol\":1350:1369  _requireNotPaused() */\n      jump\t// in\n    tag_81:\n        /* \"src/RiscZeroVerifierEmergencyStop.sol\":2968:2976  verifier */\n      immutable(\"0x792fb9957b0c7c0af16304f5602126f9e16a84a7f6f8a55e0144210b32419511\")\n        /* \"src/RiscZeroVerifierEmergencyStop.sol\":2968:2983  verifier.verify */\n      0xffffffffffffffffffffffffffffffffffffffff\n      and\n      0xab750e75\n        /* \"src/RiscZeroVerifierEmergencyStop.sol\":2984:2988  seal */\n      dup6\n      dup6\n        /* \"src/RiscZeroVerifierEmergencyStop.sol\":2990:2997  imageId */\n      dup6\n        /* \"src/RiscZeroVerifierEmergencyStop.sol\":2999:3012  journalDigest */\n      dup6\n        /* \"src/RiscZeroVerifierEmergencyStop.sol\":2968:3013  verifier.verify(seal, imageId, journalDigest) */\n      mload(0x40)\n      dup6\n      0xffffffff\n      and\n      0xe0\n      shl\n      dup2\n      mstore\n      0x04\n      add\n      tag_83\n      swap5\n      swap4\n      swap3\n      swap2\n      swap1\n      tag_84\n      jump\t// in\n    tag_83:\n      0x00\n      mload(0x40)\n      dup1\n      dup4\n      sub\n      dup2\n      dup7\n      dup1\n      extcodesize\n      iszero\n      dup1\n      iszero\n      tag_85\n      jumpi\n      0x00\n      dup1\n      revert\n    tag_85:\n      pop\n      gas\n      staticcall\n      iszero\n      dup1\n      iszero\n      tag_87\n      jumpi\n      returndatasize\n      0x00\n      dup1\n      returndatacopy\n      revert(0x00, returndatasize)\n    tag_87:\n      pop\n      pop\n      pop\n      pop\n        /* \"src/RiscZeroVerifierEmergencyStop.sol\":2767:3020  function verify(... */\n      pop\n      pop\n      pop\n      pop\n      jump\t// out\n        /* \"@openzeppelin/contracts/access/Ownable2Step.sol\":1232:1331  function pendingOwner() public view virtual returns (address) {... */\n    tag_43:\n        /* \"@openzeppelin/contracts/access/Ownable2Step.sol\":1285:1292  address */\n      0x00\n        /* \"@openzeppelin/contracts/access/Ownable2Step.sol\":1311:1324  _pendingOwner */\n      0x01\n      0x00\n      swap1\n      sload\n      swap1\n      0x0100\n      exp\n      swap1\n      div\n      0xffffffffffffffffffffffffffffffffffffffff\n      and\n        /* \"@openzeppelin/contracts/access/Ownable2Step.sol\":1304:1324  return _pendingOwner */\n      swap1\n      pop\n        /* \"@openzeppelin/contracts/access/Ownable2Step.sol\":1232:1331  function pendingOwner() public view virtual returns (address) {... */\n      swap1\n      jump\t// out\n        /* \"src/RiscZeroVerifierEmergencyStop.sol\":1855:1916  function estop() external onlyOwner {... */\n    tag_46:\n        /* \"@openzeppelin/contracts/access/Ownable.sol\":1531:1544  _checkOwner() */\n      tag_90\n        /* \"@openzeppelin/contracts/access/Ownable.sol\":1531:1542  _checkOwner */\n      tag_63\n        /* \"@openzeppelin/contracts/access/Ownable.sol\":1531:1544  _checkOwner() */\n      jump\t// in\n    tag_90:\n        /* \"src/RiscZeroVerifierEmergencyStop.sol\":1901:1909  _pause() */\n      tag_92\n        /* \"src/RiscZeroVerifierEmergencyStop.sol\":1901:1907  _pause */\n      tag_79\n        /* \"src/RiscZeroVerifierEmergencyStop.sol\":1901:1909  _pause() */\n      jump\t// in\n    tag_92:\n        /* \"src/RiscZeroVerifierEmergencyStop.sol\":1855:1916  function estop() external onlyOwner {... */\n      jump\t// out\n        /* \"@openzeppelin/contracts/access/Ownable2Step.sol\":1649:1827  function transferOwnership(address newOwner) public virtual override onlyOwner {... */\n    tag_50:\n        /* \"@openzeppelin/contracts/access/Ownable.sol\":1531:1544  _checkOwner() */\n      tag_94\n        /* \"@openzeppelin/contracts/access/Ownable.sol\":1531:1542  _checkOwner */\n      tag_63\n        /* \"@openzeppelin/contracts/access/Ownable.sol\":1531:1544  _checkOwner() */\n      jump\t// in\n    tag_94:\n        /* \"@openzeppelin/contracts/access/Ownable2Step.sol\":1754:1762  newOwner */\n      dup1\n        /* \"@openzeppelin/contracts/access/Ownable2Step.sol\":1738:1751  _pendingOwner */\n      0x01\n      0x00\n        /* \"@openzeppelin/contracts/access/Ownable2Step.sol\":1738:1762  _pendingOwner = newOwner */\n      0x0100\n      exp\n      dup2\n      sload\n      dup2\n      0xffffffffffffffffffffffffffffffffffffffff\n      mul\n      not\n      and\n      swap1\n      dup4\n      0xffffffffffffffffffffffffffffffffffffffff\n      and\n      mul\n      or\n      swap1\n      sstore\n      pop\n        /* \"@openzeppelin/contracts/access/Ownable2Step.sol\":1811:1819  newOwner */\n      dup1\n        /* \"@openzeppelin/contracts/access/Ownable2Step.sol\":1777:1820  OwnershipTransferStarted(owner(), newOwner) */\n      0xffffffffffffffffffffffffffffffffffffffff\n      and\n        /* \"@openzeppelin/contracts/access/Ownable2Step.sol\":1802:1809  owner() */\n      tag_96\n        /* \"@openzeppelin/contracts/access/Ownable2Step.sol\":1802:1807  owner */\n      tag_32\n        /* \"@openzeppelin/contracts/access/Ownable2Step.sol\":1802:1809  owner() */\n      jump\t// in\n    tag_96:\n        /* \"@openzeppelin/contracts/access/Ownable2Step.sol\":1777:1820  OwnershipTransferStarted(owner(), newOwner) */\n      0xffffffffffffffffffffffffffffffffffffffff\n      and\n      0x38d16b8cac22d99fc7c124b9cd0de2d3fa1faef420bfe791d8c362d765e22700\n      mload(0x40)\n      mload(0x40)\n      dup1\n      swap2\n      sub\n      swap1\n      log3\n        /* \"@openzeppelin/contracts/access/Ownable2Step.sol\":1649:1827  function transferOwnership(address newOwner) public virtual override onlyOwner {... */\n      pop\n      jump\t// out\n        /* \"@openzeppelin/contracts/utils/Pausable.sol\":1878:2006  function _requireNotPaused() internal view virtual {... */\n    tag_53:\n        /* \"@openzeppelin/contracts/utils/Pausable.sol\":1943:1951  paused() */\n      tag_98\n        /* \"@openzeppelin/contracts/utils/Pausable.sol\":1943:1949  paused */\n      tag_24\n        /* \"@openzeppelin/contracts/utils/Pausable.sol\":1943:1951  paused() */\n      jump\t// in\n    tag_98:\n        /* \"@openzeppelin/contracts/utils/Pausable.sol\":1939:2000  if (paused()) {... */\n      iszero\n      tag_99\n      jumpi\n        /* \"@openzeppelin/contracts/utils/Pausable.sol\":1974:1989  EnforcedPause() */\n      mload(0x40)\n      0xd93c066500000000000000000000000000000000000000000000000000000000\n      dup2\n      mstore\n      0x04\n      add\n      mload(0x40)\n      dup1\n      swap2\n      sub\n      swap1\n      revert\n        /* \"@openzeppelin/contracts/utils/Pausable.sol\":1939:2000  if (paused()) {... */\n    tag_99:\n        /* \"@openzeppelin/contracts/utils/Pausable.sol\":1878:2006  function _requireNotPaused() internal view virtual {... */\n      jump\t// out\n        /* \"@openzeppelin/contracts/access/Ownable.sol\":1796:1958  function _checkOwner() internal view virtual {... */\n    tag_63:\n        /* \"@openzeppelin/contracts/access/Ownable.sol\":1866:1878  _msgSender() */\n      tag_101\n        /* \"@openzeppelin/contracts/access/Ownable.sol\":1866:1876  _msgSender */\n      tag_69\n        /* \"@openzeppelin/contracts/access/Ownable.sol\":1866:1878  _msgSender() */\n      jump\t// in\n    tag_101:\n        /* \"@openzeppelin/contracts/access/Ownable.sol\":1855:1878  owner() != _msgSender() */\n      0xffffffffffffffffffffffffffffffffffffffff\n      and\n        /* \"@openzeppelin/contracts/access/Ownable.sol\":1855:1862  owner() */\n      tag_102\n        /* \"@openzeppelin/contracts/access/Ownable.sol\":1855:1860  owner */\n      tag_32\n        /* \"@openzeppelin/contracts/access/Ownable.sol\":1855:1862  owner() */\n      jump\t// in\n    tag_102:\n        /* \"@openzeppelin/contracts/access/Ownable.sol\":1855:1878  owner() != _msgSender() */\n      0xffffffffffffffffffffffffffffffffffffffff\n      and\n      eq\n        /* \"@openzeppelin/contracts/access/Ownable.sol\":1851:1952  if (owner() != _msgSender()) {... */\n      tag_103\n      jumpi\n        /* \"@openzeppelin/contracts/access/Ownable.sol\":1928:1940  _msgSender() */\n      tag_104\n        /* \"@openzeppelin/contracts/access/Ownable.sol\":1928:1938  _msgSender */\n      tag_69\n        /* \"@openzeppelin/contracts/access/Ownable.sol\":1928:1940  _msgSender() */\n      jump\t// in\n    tag_104:\n        /* \"@openzeppelin/contracts/access/Ownable.sol\":1901:1941  OwnableUnauthorizedAccount(_msgSender()) */\n      mload(0x40)\n      0x118cdaa700000000000000000000000000000000000000000000000000000000\n      dup2\n      mstore\n      0x04\n      add\n      tag_105\n      swap2\n      swap1\n      tag_34\n      jump\t// in\n    tag_105:\n      mload(0x40)\n      dup1\n      swap2\n      sub\n      swap1\n      revert\n        /* \"@openzeppelin/contracts/access/Ownable.sol\":1851:1952  if (owner() != _msgSender()) {... */\n    tag_103:\n        /* \"@openzeppelin/contracts/access/Ownable.sol\":1796:1958  function _checkOwner() internal view virtual {... */\n      jump\t// out\n        /* \"@openzeppelin/contracts/access/Ownable2Step.sol\":2011:2164  function _transferOwnership(address newOwner) internal virtual override {... */\n    tag_66:\n        /* \"@openzeppelin/contracts/access/Ownable2Step.sol\":2100:2113  _pendingOwner */\n      0x01\n      0x00\n        /* \"@openzeppelin/contracts/access/Ownable2Step.sol\":2093:2113  delete _pendingOwner */\n      0x0100\n      exp\n      dup2\n      sload\n      swap1\n      0xffffffffffffffffffffffffffffffffffffffff\n      mul\n      not\n      and\n      swap1\n      sstore\n        /* \"@openzeppelin/contracts/access/Ownable2Step.sol\":2123:2157  super._transferOwnership(newOwner) */\n      tag_107\n        /* \"@openzeppelin/contracts/access/Ownable2Step.sol\":2148:2156  newOwner */\n      dup2\n        /* \"@openzeppelin/contracts/access/Ownable2Step.sol\":2123:2147  super._transferOwnership */\n      tag_108\n        /* \"@openzeppelin/contracts/access/Ownable2Step.sol\":2123:2157  super._transferOwnership(newOwner) */\n      jump\t// in\n    tag_107:\n        /* \"@openzeppelin/contracts/access/Ownable2Step.sol\":2011:2164  function _transferOwnership(address newOwner) internal virtual override {... */\n      pop\n      jump\t// out\n        /* \"@openzeppelin/contracts/utils/Context.sol\":656:752  function _msgSender() internal view virtual returns (address) {... */\n    tag_69:\n        /* \"@openzeppelin/contracts/utils/Context.sol\":709:716  address */\n      0x00\n        /* \"@openzeppelin/contracts/utils/Context.sol\":735:745  msg.sender */\n      caller\n        /* \"@openzeppelin/contracts/utils/Context.sol\":728:745  return msg.sender */\n      swap1\n      pop\n        /* \"@openzeppelin/contracts/utils/Context.sol\":656:752  function _msgSender() internal view virtual returns (address) {... */\n      swap1\n      jump\t// out\n        /* \"@openzeppelin/contracts/utils/Pausable.sol\":2339:2454  function _pause() internal virtual whenNotPaused {... */\n    tag_79:\n        /* \"@openzeppelin/contracts/utils/Pausable.sol\":1350:1369  _requireNotPaused() */\n      tag_111\n        /* \"@openzeppelin/contracts/utils/Pausable.sol\":1350:1367  _requireNotPaused */\n      tag_53\n        /* \"@openzeppelin/contracts/utils/Pausable.sol\":1350:1369  _requireNotPaused() */\n      jump\t// in\n    tag_111:\n        /* \"@openzeppelin/contracts/utils/Pausable.sol\":2408:2412  true */\n      0x01\n        /* \"@openzeppelin/contracts/utils/Pausable.sol\":2398:2405  _paused */\n      dup1\n      0x14\n        /* \"@openzeppelin/contracts/utils/Pausable.sol\":2398:2412  _paused = true */\n      0x0100\n      exp\n      dup2\n      sload\n      dup2\n      0xff\n      mul\n      not\n      and\n      swap1\n      dup4\n      iszero\n      iszero\n      mul\n      or\n      swap1\n      sstore\n      pop\n        /* \"@openzeppelin/contracts/utils/Pausable.sol\":2427:2447  Paused(_msgSender()) */\n      0x62e78cea01bee320cd4e420270b5ea74000d11b0c9f74754ebdbfc544b05a258\n        /* \"@openzeppelin/contracts/utils/Pausable.sol\":2434:2446  _msgSender() */\n      tag_113\n        /* \"@openzeppelin/contracts/utils/Pausable.sol\":2434:2444  _msgSender */\n      tag_69\n        /* \"@openzeppelin/contracts/utils/Pausable.sol\":2434:2446  _msgSender() */\n      jump\t// in\n    tag_113:\n        /* \"@openzeppelin/contracts/utils/Pausable.sol\":2427:2447  Paused(_msgSender()) */\n      mload(0x40)\n      tag_114\n      swap2\n      swap1\n      tag_34\n      jump\t// in\n    tag_114:\n      mload(0x40)\n      dup1\n      swap2\n      sub\n      swap1\n      log1\n        /* \"@openzeppelin/contracts/utils/Pausable.sol\":2339:2454  function _pause() internal virtual whenNotPaused {... */\n      jump\t// out\n        /* \"@openzeppelin/contracts/access/Ownable.sol\":2912:3099  function _transferOwnership(address newOwner) internal virtual {... */\n    tag_108:\n        /* \"@openzeppelin/contracts/access/Ownable.sol\":2985:3001  address oldOwner */\n      0x00\n        /* \"@openzeppelin/contracts/access/Ownable.sol\":3004:3010  _owner */\n      dup1\n      0x00\n      swap1\n      sload\n      swap1\n      0x0100\n      exp\n      swap1\n      div\n      0xffffffffffffffffffffffffffffffffffffffff\n      and\n        /* \"@openzeppelin/contracts/access/Ownable.sol\":2985:3010  address oldOwner = _owner */\n      swap1\n      pop\n        /* \"@openzeppelin/contracts/access/Ownable.sol\":3029:3037  newOwner */\n      dup2\n        /* \"@openzeppelin/contracts/access/Ownable.sol\":3020:3026  _owner */\n      0x00\n      dup1\n        /* \"@openzeppelin/contracts/access/Ownable.sol\":3020:3037  _owner = newOwner */\n      0x0100\n      exp\n      dup2\n      sload\n      dup2\n      0xffffffffffffffffffffffffffffffffffffffff\n      mul\n      not\n      and\n      swap1\n      dup4\n      0xffffffffffffffffffffffffffffffffffffffff\n      and\n      mul\n      or\n      swap1\n      sstore\n      pop\n        /* \"@openzeppelin/contracts/access/Ownable.sol\":3083:3091  newOwner */\n      dup2\n        /* \"@openzeppelin/contracts/access/Ownable.sol\":3052:3092  OwnershipTransferred(oldOwner, newOwner) */\n      0xffffffffffffffffffffffffffffffffffffffff\n      and\n        /* \"@openzeppelin/contracts/access/Ownable.sol\":3073:3081  oldOwner */\n      dup2\n        /* \"@openzeppelin/contracts/access/Ownable.sol\":3052:3092  OwnershipTransferred(oldOwner, newOwner) */\n      0xffffffffffffffffffffffffffffffffffffffff\n      and\n      0x8be0079c531659141344cd1fd0a4f28419497f9722a3daafe3b4186f6b6457e0\n      mload(0x40)\n      mload(0x40)\n      dup1\n      swap2\n      sub\n      swap1\n      log3\n        /* \"@openzeppelin/contracts/access/Ownable.sol\":2975:3099  {... */\n      pop\n        /* \"@openzeppelin/contracts/access/Ownable.sol\":2912:3099  function _transferOwnership(address newOwner) internal virtual {... */\n      pop\n      jump\t// out\n        /* \"#utility.yul\":88:205   */\n    tag_117:\n        /* \"#utility.yul\":197:198   */\n      0x00\n        /* \"#utility.yul\":194:195   */\n      dup1\n        /* \"#utility.yul\":187:199   */\n      revert\n        /* \"#utility.yul\":211:328   */\n    tag_118:\n        /* \"#utility.yul\":320:321   */\n      0x00\n        /* \"#utility.yul\":317:318   */\n      dup1\n        /* \"#utility.yul\":310:322   */\n      revert\n        /* \"#utility.yul\":334:451   */\n    tag_119:\n        /* \"#utility.yul\":443:444   */\n      0x00\n        /* \"#utility.yul\":440:441   */\n      dup1\n        /* \"#utility.yul\":433:445   */\n      revert\n        /* \"#utility.yul\":479:709   */\n    tag_120:\n        /* \"#utility.yul\":551:556   */\n      0x00\n        /* \"#utility.yul\":592:594   */\n      0x40\n        /* \"#utility.yul\":583:589   */\n      dup3\n        /* \"#utility.yul\":578:581   */\n      dup5\n        /* \"#utility.yul\":574:590   */\n      sub\n        /* \"#utility.yul\":570:595   */\n      slt\n        /* \"#utility.yul\":567:679   */\n      iszero\n      tag_160\n      jumpi\n        /* \"#utility.yul\":598:677   */\n      tag_161\n      tag_119\n      jump\t// in\n    tag_161:\n        /* \"#utility.yul\":567:679   */\n    tag_160:\n        /* \"#utility.yul\":697:703   */\n      dup2\n        /* \"#utility.yul\":688:703   */\n      swap1\n      pop\n        /* \"#utility.yul\":479:709   */\n      swap3\n      swap2\n      pop\n      pop\n      jump\t// out\n        /* \"#utility.yul\":715:1256   */\n    tag_17:\n        /* \"#utility.yul\":800:806   */\n      0x00\n        /* \"#utility.yul\":849:851   */\n      0x20\n        /* \"#utility.yul\":837:846   */\n      dup3\n        /* \"#utility.yul\":828:835   */\n      dup5\n        /* \"#utility.yul\":824:847   */\n      sub\n        /* \"#utility.yul\":820:852   */\n      slt\n        /* \"#utility.yul\":817:936   */\n      iszero\n      tag_163\n      jumpi\n        /* \"#utility.yul\":855:934   */\n      tag_164\n      tag_117\n      jump\t// in\n    tag_164:\n        /* \"#utility.yul\":817:936   */\n    tag_163:\n        /* \"#utility.yul\":1003:1004   */\n      0x00\n        /* \"#utility.yul\":992:1001   */\n      dup3\n        /* \"#utility.yul\":988:1005   */\n      add\n        /* \"#utility.yul\":975:1006   */\n      calldataload\n        /* \"#utility.yul\":1033:1051   */\n      0xffffffffffffffff\n        /* \"#utility.yul\":1025:1031   */\n      dup2\n        /* \"#utility.yul\":1022:1052   */\n      gt\n        /* \"#utility.yul\":1019:1136   */\n      iszero\n      tag_165\n      jumpi\n        /* \"#utility.yul\":1055:1134   */\n      tag_166\n      tag_118\n      jump\t// in\n    tag_166:\n        /* \"#utility.yul\":1019:1136   */\n    tag_165:\n        /* \"#utility.yul\":1160:1239   */\n      tag_167\n        /* \"#utility.yul\":1231:1238   */\n      dup5\n        /* \"#utility.yul\":1222:1228   */\n      dup3\n        /* \"#utility.yul\":1211:1220   */\n      dup6\n        /* \"#utility.yul\":1207:1229   */\n      add\n        /* \"#utility.yul\":1160:1239   */\n      tag_120\n      jump\t// in\n    tag_167:\n        /* \"#utility.yul\":1150:1239   */\n      swap2\n      pop\n        /* \"#utility.yul\":946:1249   */\n      pop\n        /* \"#utility.yul\":715:1256   */\n      swap3\n      swap2\n      pop\n      pop\n      jump\t// out\n        /* \"#utility.yul\":1262:1388   */\n    tag_121:\n        /* \"#utility.yul\":1299:1306   */\n      0x00\n        /* \"#utility.yul\":1339:1381   */\n      0xffffffffffffffffffffffffffffffffffffffff\n        /* \"#utility.yul\":1332:1337   */\n      dup3\n        /* \"#utility.yul\":1328:1382   */\n      and\n        /* \"#utility.yul\":1317:1382   */\n      swap1\n      pop\n        /* \"#utility.yul\":1262:1388   */\n      swap2\n      swap1\n      pop\n      jump\t// out\n        /* \"#utility.yul\":1394:1454   */\n    tag_122:\n        /* \"#utility.yul\":1422:1425   */\n      0x00\n        /* \"#utility.yul\":1443:1448   */\n      dup2\n        /* \"#utility.yul\":1436:1448   */\n      swap1\n      pop\n        /* \"#utility.yul\":1394:1454   */\n      swap2\n      swap1\n      pop\n      jump\t// out\n        /* \"#utility.yul\":1460:1602   */\n    tag_123:\n        /* \"#utility.yul\":1510:1519   */\n      0x00\n        /* \"#utility.yul\":1543:1596   */\n      tag_171\n        /* \"#utility.yul\":1561:1595   */\n      tag_172\n        /* \"#utility.yul\":1570:1594   */\n      tag_173\n        /* \"#utility.yul\":1588:1593   */\n      dup5\n        /* \"#utility.yul\":1570:1594   */\n      tag_121\n      jump\t// in\n    tag_173:\n        /* \"#utility.yul\":1561:1595   */\n      tag_122\n      jump\t// in\n    tag_172:\n        /* \"#utility.yul\":1543:1596   */\n      tag_121\n      jump\t// in\n    tag_171:\n        /* \"#utility.yul\":1530:1596   */\n      swap1\n      pop\n        /* \"#utility.yul\":1460:1602   */\n      swap2\n      swap1\n      pop\n      jump\t// out\n        /* \"#utility.yul\":1608:1734   */\n    tag_124:\n        /* \"#utility.yul\":1658:1667   */\n      0x00\n        /* \"#utility.yul\":1691:1728   */\n      tag_175\n        /* \"#utility.yul\":1722:1727   */\n      dup3\n        /* \"#utility.yul\":1691:1728   */\n      tag_123\n      jump\t// in\n    tag_175:\n        /* \"#utility.yul\":1678:1728   */\n      swap1\n      pop\n        /* \"#utility.yul\":1608:1734   */\n      swap2\n      swap1\n      pop\n      jump\t// out\n        /* \"#utility.yul\":1740:1891   */\n    tag_125:\n        /* \"#utility.yul\":1815:1824   */\n      0x00\n        /* \"#utility.yul\":1848:1885   */\n      tag_177\n        /* \"#utility.yul\":1879:1884   */\n      dup3\n        /* \"#utility.yul\":1848:1885   */\n      tag_124\n      jump\t// in\n    tag_177:\n        /* \"#utility.yul\":1835:1885   */\n      swap1\n      pop\n        /* \"#utility.yul\":1740:1891   */\n      swap2\n      swap1\n      pop\n      jump\t// out\n        /* \"#utility.yul\":1897:2078   */\n    tag_126:\n        /* \"#utility.yul\":2009:2071   */\n      tag_179\n        /* \"#utility.yul\":2065:2070   */\n      dup2\n        /* \"#utility.yul\":2009:2071   */\n      tag_125\n      jump\t// in\n    tag_179:\n        /* \"#utility.yul\":2004:2007   */\n      dup3\n        /* \"#utility.yul\":1997:2072   */\n      mstore\n        /* \"#utility.yul\":1897:2078   */\n      pop\n      pop\n      jump\t// out\n        /* \"#utility.yul\":2084:2356   */\n    tag_22:\n        /* \"#utility.yul\":2202:2206   */\n      0x00\n        /* \"#utility.yul\":2240:2242   */\n      0x20\n        /* \"#utility.yul\":2229:2238   */\n      dup3\n        /* \"#utility.yul\":2225:2243   */\n      add\n        /* \"#utility.yul\":2217:2243   */\n      swap1\n      pop\n        /* \"#utility.yul\":2253:2349   */\n      tag_181\n        /* \"#utility.yul\":2346:2347   */\n      0x00\n        /* \"#utility.yul\":2335:2344   */\n      dup4\n        /* \"#utility.yul\":2331:2348   */\n      add\n        /* \"#utility.yul\":2322:2328   */\n      dup5\n        /* \"#utility.yul\":2253:2349   */\n      tag_126\n      jump\t// in\n    tag_181:\n        /* \"#utility.yul\":2084:2356   */\n      swap3\n      swap2\n      pop\n      pop\n      jump\t// out\n        /* \"#utility.yul\":2362:2452   */\n    tag_127:\n        /* \"#utility.yul\":2396:2403   */\n      0x00\n        /* \"#utility.yul\":2439:2444   */\n      dup2\n        /* \"#utility.yul\":2432:2445   */\n      iszero\n        /* \"#utility.yul\":2425:2446   */\n      iszero\n        /* \"#utility.yul\":2414:2446   */\n      swap1\n      pop\n        /* \"#utility.yul\":2362:2452   */\n      swap2\n      swap1\n      pop\n      jump\t// out\n        /* \"#utility.yul\":2458:2567   */\n    tag_128:\n        /* \"#utility.yul\":2539:2560   */\n      tag_184\n        /* \"#utility.yul\":2554:2559   */\n      dup2\n        /* \"#utility.yul\":2539:2560   */\n      tag_127\n      jump\t// in\n    tag_184:\n        /* \"#utility.yul\":2534:2537   */\n      dup3\n        /* \"#utility.yul\":2527:2561   */\n      mstore\n        /* \"#utility.yul\":2458:2567   */\n      pop\n      pop\n      jump\t// out\n        /* \"#utility.yul\":2573:2783   */\n    tag_26:\n        /* \"#utility.yul\":2660:2664   */\n      0x00\n        /* \"#utility.yul\":2698:2700   */\n      0x20\n        /* \"#utility.yul\":2687:2696   */\n      dup3\n        /* \"#utility.yul\":2683:2701   */\n      add\n        /* \"#utility.yul\":2675:2701   */\n      swap1\n      pop\n        /* \"#utility.yul\":2711:2776   */\n      tag_186\n        /* \"#utility.yul\":2773:2774   */\n      0x00\n        /* \"#utility.yul\":2762:2771   */\n      dup4\n        /* \"#utility.yul\":2758:2775   */\n      add\n        /* \"#utility.yul\":2749:2755   */\n      dup5\n        /* \"#utility.yul\":2711:2776   */\n      tag_128\n      jump\t// in\n    tag_186:\n        /* \"#utility.yul\":2573:2783   */\n      swap3\n      swap2\n      pop\n      pop\n      jump\t// out\n        /* \"#utility.yul\":2789:2885   */\n    tag_129:\n        /* \"#utility.yul\":2826:2833   */\n      0x00\n        /* \"#utility.yul\":2855:2879   */\n      tag_188\n        /* \"#utility.yul\":2873:2878   */\n      dup3\n        /* \"#utility.yul\":2855:2879   */\n      tag_121\n      jump\t// in\n    tag_188:\n        /* \"#utility.yul\":2844:2879   */\n      swap1\n      pop\n        /* \"#utility.yul\":2789:2885   */\n      swap2\n      swap1\n      pop\n      jump\t// out\n        /* \"#utility.yul\":2891:3009   */\n    tag_130:\n        /* \"#utility.yul\":2978:3002   */\n      tag_190\n        /* \"#utility.yul\":2996:3001   */\n      dup2\n        /* \"#utility.yul\":2978:3002   */\n      tag_129\n      jump\t// in\n    tag_190:\n        /* \"#utility.yul\":2973:2976   */\n      dup3\n        /* \"#utility.yul\":2966:3003   */\n      mstore\n        /* \"#utility.yul\":2891:3009   */\n      pop\n      pop\n      jump\t// out\n        /* \"#utility.yul\":3015:3237   */\n    tag_34:\n        /* \"#utility.yul\":3108:3112   */\n      0x00\n        /* \"#utility.yul\":3146:3148   */\n      0x20\n        /* \"#utility.yul\":3135:3144   */\n      dup3\n        /* \"#utility.yul\":3131:3149   */\n      add\n        /* \"#utility.yul\":3123:3149   */\n      swap1\n      pop\n        /* \"#utility.yul\":3159:3230   */\n      tag_192\n        /* \"#utility.yul\":3227:3228   */\n      0x00\n        /* \"#utility.yul\":3216:3225   */\n      dup4\n        /* \"#utility.yul\":3212:3229   */\n      add\n        /* \"#utility.yul\":3203:3209   */\n      dup5\n        /* \"#utility.yul\":3159:3230   */\n      tag_130\n      jump\t// in\n    tag_192:\n        /* \"#utility.yul\":3015:3237   */\n      swap3\n      swap2\n      pop\n      pop\n      jump\t// out\n        /* \"#utility.yul\":3243:3360   */\n    tag_131:\n        /* \"#utility.yul\":3352:3353   */\n      0x00\n        /* \"#utility.yul\":3349:3350   */\n      dup1\n        /* \"#utility.yul\":3342:3354   */\n      revert\n        /* \"#utility.yul\":3366:3483   */\n    tag_132:\n        /* \"#utility.yul\":3475:3476   */\n      0x00\n        /* \"#utility.yul\":3472:3473   */\n      dup1\n        /* \"#utility.yul\":3465:3477   */\n      revert\n        /* \"#utility.yul\":3489:3606   */\n    tag_133:\n        /* \"#utility.yul\":3598:3599   */\n      0x00\n        /* \"#utility.yul\":3595:3596   */\n      dup1\n        /* \"#utility.yul\":3588:3600   */\n      revert\n        /* \"#utility.yul\":3625:4177   */\n    tag_134:\n        /* \"#utility.yul\":3682:3690   */\n      0x00\n        /* \"#utility.yul\":3692:3698   */\n      dup1\n        /* \"#utility.yul\":3742:3745   */\n      dup4\n        /* \"#utility.yul\":3735:3739   */\n      0x1f\n        /* \"#utility.yul\":3727:3733   */\n      dup5\n        /* \"#utility.yul\":3723:3740   */\n      add\n        /* \"#utility.yul\":3719:3746   */\n      slt\n        /* \"#utility.yul\":3709:3831   */\n      tag_197\n      jumpi\n        /* \"#utility.yul\":3750:3829   */\n      tag_198\n      tag_131\n      jump\t// in\n    tag_198:\n        /* \"#utility.yul\":3709:3831   */\n    tag_197:\n        /* \"#utility.yul\":3863:3869   */\n      dup3\n        /* \"#utility.yul\":3850:3870   */\n      calldataload\n        /* \"#utility.yul\":3840:3870   */\n      swap1\n      pop\n        /* \"#utility.yul\":3893:3911   */\n      0xffffffffffffffff\n        /* \"#utility.yul\":3885:3891   */\n      dup2\n        /* \"#utility.yul\":3882:3912   */\n      gt\n        /* \"#utility.yul\":3879:3996   */\n      iszero\n      tag_199\n      jumpi\n        /* \"#utility.yul\":3915:3994   */\n      tag_200\n      tag_132\n      jump\t// in\n    tag_200:\n        /* \"#utility.yul\":3879:3996   */\n    tag_199:\n        /* \"#utility.yul\":4029:4033   */\n      0x20\n        /* \"#utility.yul\":4021:4027   */\n      dup4\n        /* \"#utility.yul\":4017:4034   */\n      add\n        /* \"#utility.yul\":4005:4034   */\n      swap2\n      pop\n        /* \"#utility.yul\":4083:4086   */\n      dup4\n        /* \"#utility.yul\":4075:4079   */\n      0x01\n        /* \"#utility.yul\":4067:4073   */\n      dup3\n        /* \"#utility.yul\":4063:4080   */\n      mul\n        /* \"#utility.yul\":4053:4061   */\n      dup4\n        /* \"#utility.yul\":4049:4081   */\n      add\n        /* \"#utility.yul\":4046:4087   */\n      gt\n        /* \"#utility.yul\":4043:4171   */\n      iszero\n      tag_201\n      jumpi\n        /* \"#utility.yul\":4090:4169   */\n      tag_202\n      tag_133\n      jump\t// in\n    tag_202:\n        /* \"#utility.yul\":4043:4171   */\n    tag_201:\n        /* \"#utility.yul\":3625:4177   */\n      swap3\n      pop\n      swap3\n      swap1\n      pop\n      jump\t// out\n        /* \"#utility.yul\":4183:4260   */\n    tag_135:\n        /* \"#utility.yul\":4220:4227   */\n      0x00\n        /* \"#utility.yul\":4249:4254   */\n      dup2\n        /* \"#utility.yul\":4238:4254   */\n      swap1\n      pop\n        /* \"#utility.yul\":4183:4260   */\n      swap2\n      swap1\n      pop\n      jump\t// out\n        /* \"#utility.yul\":4266:4388   */\n    tag_136:\n        /* \"#utility.yul\":4339:4363   */\n      tag_205\n        /* \"#utility.yul\":4357:4362   */\n      dup2\n        /* \"#utility.yul\":4339:4363   */\n      tag_135\n      jump\t// in\n    tag_205:\n        /* \"#utility.yul\":4332:4337   */\n      dup2\n        /* \"#utility.yul\":4329:4364   */\n      eq\n        /* \"#utility.yul\":4319:4382   */\n      tag_206\n      jumpi\n        /* \"#utility.yul\":4378:4379   */\n      0x00\n        /* \"#utility.yul\":4375:4376   */\n      dup1\n        /* \"#utility.yul\":4368:4380   */\n      revert\n        /* \"#utility.yul\":4319:4382   */\n    tag_206:\n        /* \"#utility.yul\":4266:4388   */\n      pop\n      jump\t// out\n        /* \"#utility.yul\":4394:4533   */\n    tag_137:\n        /* \"#utility.yul\":4440:4445   */\n      0x00\n        /* \"#utility.yul\":4478:4484   */\n      dup2\n        /* \"#utility.yul\":4465:4485   */\n      calldataload\n        /* \"#utility.yul\":4456:4485   */\n      swap1\n      pop\n        /* \"#utility.yul\":4494:4527   */\n      tag_208\n        /* \"#utility.yul\":4521:4526   */\n      dup2\n        /* \"#utility.yul\":4494:4527   */\n      tag_136\n      jump\t// in\n    tag_208:\n        /* \"#utility.yul\":4394:4533   */\n      swap3\n      swap2\n      pop\n      pop\n      jump\t// out\n        /* \"#utility.yul\":4539:5356   */\n    tag_40:\n        /* \"#utility.yul\":4627:4633   */\n      0x00\n        /* \"#utility.yul\":4635:4641   */\n      dup1\n        /* \"#utility.yul\":4643:4649   */\n      0x00\n        /* \"#utility.yul\":4651:4657   */\n      dup1\n        /* \"#utility.yul\":4700:4702   */\n      0x60\n        /* \"#utility.yul\":4688:4697   */\n      dup6\n        /* \"#utility.yul\":4679:4686   */\n      dup8\n        /* \"#utility.yul\":4675:4698   */\n      sub\n        /* \"#utility.yul\":4671:4703   */\n      slt\n        /* \"#utility.yul\":4668:4787   */\n      iszero\n      tag_210\n      jumpi\n        /* \"#utility.yul\":4706:4785   */\n      tag_211\n      tag_117\n      jump\t// in\n    tag_211:\n        /* \"#utility.yul\":4668:4787   */\n    tag_210:\n        /* \"#utility.yul\":4854:4855   */\n      0x00\n        /* \"#utility.yul\":4843:4852   */\n      dup6\n        /* \"#utility.yul\":4839:4856   */\n      add\n        /* \"#utility.yul\":4826:4857   */\n      calldataload\n        /* \"#utility.yul\":4884:4902   */\n      0xffffffffffffffff\n        /* \"#utility.yul\":4876:4882   */\n      dup2\n        /* \"#utility.yul\":4873:4903   */\n      gt\n        /* \"#utility.yul\":4870:4987   */\n      iszero\n      tag_212\n      jumpi\n        /* \"#utility.yul\":4906:4985   */\n      tag_213\n      tag_118\n      jump\t// in\n    tag_213:\n        /* \"#utility.yul\":4870:4987   */\n    tag_212:\n        /* \"#utility.yul\":5019:5083   */\n      tag_214\n        /* \"#utility.yul\":5075:5082   */\n      dup8\n        /* \"#utility.yul\":5066:5072   */\n      dup3\n        /* \"#utility.yul\":5055:5064   */\n      dup9\n        /* \"#utility.yul\":5051:5073   */\n      add\n        /* \"#utility.yul\":5019:5083   */\n      tag_134\n      jump\t// in\n    tag_214:\n        /* \"#utility.yul\":5001:5083   */\n      swap5\n      pop\n      swap5\n      pop\n        /* \"#utility.yul\":4797:5093   */\n      pop\n        /* \"#utility.yul\":5132:5134   */\n      0x20\n        /* \"#utility.yul\":5158:5211   */\n      tag_215\n        /* \"#utility.yul\":5203:5210   */\n      dup8\n        /* \"#utility.yul\":5194:5200   */\n      dup3\n        /* \"#utility.yul\":5183:5192   */\n      dup9\n        /* \"#utility.yul\":5179:5201   */\n      add\n        /* \"#utility.yul\":5158:5211   */\n      tag_137\n      jump\t// in\n    tag_215:\n        /* \"#utility.yul\":5148:5211   */\n      swap3\n      pop\n        /* \"#utility.yul\":5103:5221   */\n      pop\n        /* \"#utility.yul\":5260:5262   */\n      0x40\n        /* \"#utility.yul\":5286:5339   */\n      tag_216\n        /* \"#utility.yul\":5331:5338   */\n      dup8\n        /* \"#utility.yul\":5322:5328   */\n      dup3\n        /* \"#utility.yul\":5311:5320   */\n      dup9\n        /* \"#utility.yul\":5307:5329   */\n      add\n        /* \"#utility.yul\":5286:5339   */\n      tag_137\n      jump\t// in\n    tag_216:\n        /* \"#utility.yul\":5276:5339   */\n      swap2\n      pop\n        /* \"#utility.yul\":5231:5349   */\n      pop\n        /* \"#utility.yul\":4539:5356   */\n      swap3\n      swap6\n      swap2\n      swap5\n      pop\n      swap3\n      pop\n      jump\t// out\n        /* \"#utility.yul\":5362:5484   */\n    tag_138:\n        /* \"#utility.yul\":5435:5459   */\n      tag_218\n        /* \"#utility.yul\":5453:5458   */\n      dup2\n        /* \"#utility.yul\":5435:5459   */\n      tag_129\n      jump\t// in\n    tag_218:\n        /* \"#utility.yul\":5428:5433   */\n      dup2\n        /* \"#utility.yul\":5425:5460   */\n      eq\n        /* \"#utility.yul\":5415:5478   */\n      tag_219\n      jumpi\n        /* \"#utility.yul\":5474:5475   */\n      0x00\n        /* \"#utility.yul\":5471:5472   */\n      dup1\n        /* \"#utility.yul\":5464:5476   */\n      revert\n        /* \"#utility.yul\":5415:5478   */\n    tag_219:\n        /* \"#utility.yul\":5362:5484   */\n      pop\n      jump\t// out\n        /* \"#utility.yul\":5490:5629   */\n    tag_139:\n        /* \"#utility.yul\":5536:5541   */\n      0x00\n        /* \"#utility.yul\":5574:5580   */\n      dup2\n        /* \"#utility.yul\":5561:5581   */\n      calldataload\n        /* \"#utility.yul\":5552:5581   */\n      swap1\n      pop\n        /* \"#utility.yul\":5590:5623   */\n      tag_221\n        /* \"#utility.yul\":5617:5622   */\n      dup2\n        /* \"#utility.yul\":5590:5623   */\n      tag_138\n      jump\t// in\n    tag_221:\n        /* \"#utility.yul\":5490:5629   */\n      swap3\n      swap2\n      pop\n      pop\n      jump\t// out\n        /* \"#utility.yul\":5635:5964   */\n    tag_49:\n        /* \"#utility.yul\":5694:5700   */\n      0x00\n        /* \"#utility.yul\":5743:5745   */\n      0x20\n        /* \"#utility.yul\":5731:5740   */\n      dup3\n        /* \"#utility.yul\":5722:5729   */\n      dup5\n        /* \"#utility.yul\":5718:5741   */\n      sub\n        /* \"#utility.yul\":5714:5746   */\n      slt\n        /* \"#utility.yul\":5711:5830   */\n      iszero\n      tag_223\n      jumpi\n        /* \"#utility.yul\":5749:5828   */\n      tag_224\n      tag_117\n      jump\t// in\n    tag_224:\n        /* \"#utility.yul\":5711:5830   */\n    tag_223:\n        /* \"#utility.yul\":5869:5870   */\n      0x00\n        /* \"#utility.yul\":5894:5947   */\n      tag_225\n        /* \"#utility.yul\":5939:5946   */\n      dup5\n        /* \"#utility.yul\":5930:5936   */\n      dup3\n        /* \"#utility.yul\":5919:5928   */\n      dup6\n        /* \"#utility.yul\":5915:5937   */\n      add\n        /* \"#utility.yul\":5894:5947   */\n      tag_139\n      jump\t// in\n    tag_225:\n        /* \"#utility.yul\":5884:5947   */\n      swap2\n      pop\n        /* \"#utility.yul\":5840:5957   */\n      pop\n        /* \"#utility.yul\":5635:5964   */\n      swap3\n      swap2\n      pop\n      pop\n      jump\t// out\n        /* \"#utility.yul\":5970:6087   */\n    tag_140:\n        /* \"#utility.yul\":6079:6080   */\n      0x00\n        /* \"#utility.yul\":6076:6077   */\n      dup1\n        /* \"#utility.yul\":6069:6081   */\n      revert\n        /* \"#utility.yul\":6093:6210   */\n    tag_141:\n        /* \"#utility.yul\":6202:6203   */\n      0x00\n        /* \"#utility.yul\":6199:6200   */\n      dup1\n        /* \"#utility.yul\":6192:6204   */\n      revert\n        /* \"#utility.yul\":6216:6333   */\n    tag_142:\n        /* \"#utility.yul\":6325:6326   */\n      0x00\n        /* \"#utility.yul\":6322:6323   */\n      dup1\n        /* \"#utility.yul\":6315:6327   */\n      revert\n        /* \"#utility.yul\":6339:7050   */\n    tag_143:\n        /* \"#utility.yul\":6403:6408   */\n      0x00\n        /* \"#utility.yul\":6410:6416   */\n      dup1\n        /* \"#utility.yul\":6466:6469   */\n      dup4\n        /* \"#utility.yul\":6453:6470   */\n      calldataload\n        /* \"#utility.yul\":6558:6559   */\n      0x01\n        /* \"#utility.yul\":6552:6556   */\n      0x20\n        /* \"#utility.yul\":6548:6560   */\n      sub\n        /* \"#utility.yul\":6537:6545   */\n      dup5\n        /* \"#utility.yul\":6521:6535   */\n      calldatasize\n        /* \"#utility.yul\":6517:6546   */\n      sub\n        /* \"#utility.yul\":6513:6561   */\n      sub\n        /* \"#utility.yul\":6493:6511   */\n      dup2\n        /* \"#utility.yul\":6489:6562   */\n      slt\n        /* \"#utility.yul\":6479:6647   */\n      tag_230\n      jumpi\n        /* \"#utility.yul\":6566:6645   */\n      tag_231\n      tag_142\n      jump\t// in\n    tag_231:\n        /* \"#utility.yul\":6479:6647   */\n    tag_230:\n        /* \"#utility.yul\":6689:6697   */\n      dup4\n        /* \"#utility.yul\":6669:6687   */\n      dup2\n        /* \"#utility.yul\":6665:6698   */\n      add\n        /* \"#utility.yul\":6656:6698   */\n      swap3\n      pop\n        /* \"#utility.yul\":6731:6736   */\n      dup3\n        /* \"#utility.yul\":6718:6737   */\n      calldataload\n        /* \"#utility.yul\":6708:6737   */\n      swap2\n      pop\n        /* \"#utility.yul\":6766:6770   */\n      0x20\n        /* \"#utility.yul\":6759:6764   */\n      dup4\n        /* \"#utility.yul\":6755:6771   */\n      add\n        /* \"#utility.yul\":6746:6771   */\n      swap3\n      pop\n        /* \"#utility.yul\":6794:6812   */\n      0xffffffffffffffff\n        /* \"#utility.yul\":6786:6792   */\n      dup3\n        /* \"#utility.yul\":6783:6813   */\n      gt\n        /* \"#utility.yul\":6780:6897   */\n      iszero\n      tag_232\n      jumpi\n        /* \"#utility.yul\":6816:6895   */\n      tag_233\n      tag_140\n      jump\t// in\n    tag_233:\n        /* \"#utility.yul\":6780:6897   */\n    tag_232:\n        /* \"#utility.yul\":6952:6956   */\n      0x01\n        /* \"#utility.yul\":6944:6950   */\n      dup3\n        /* \"#utility.yul\":6940:6957   */\n      mul\n        /* \"#utility.yul\":6924:6938   */\n      calldatasize\n        /* \"#utility.yul\":6920:6958   */\n      sub\n        /* \"#utility.yul\":6913:6918   */\n      dup4\n        /* \"#utility.yul\":6909:6959   */\n      sgt\n        /* \"#utility.yul\":6906:7043   */\n      iszero\n      tag_234\n      jumpi\n        /* \"#utility.yul\":6962:7041   */\n      tag_235\n      tag_141\n      jump\t// in\n    tag_235:\n        /* \"#utility.yul\":6906:7043   */\n    tag_234:\n        /* \"#utility.yul\":6417:7050   */\n      pop\n        /* \"#utility.yul\":6339:7050   */\n      swap3\n      pop\n      swap3\n      swap1\n      pop\n      jump\t// out\n        /* \"#utility.yul\":7056:7214   */\n    tag_144:\n        /* \"#utility.yul\":7129:7140   */\n      0x00\n        /* \"#utility.yul\":7163:7169   */\n      dup3\n        /* \"#utility.yul\":7158:7161   */\n      dup3\n        /* \"#utility.yul\":7151:7170   */\n      mstore\n        /* \"#utility.yul\":7203:7207   */\n      0x20\n        /* \"#utility.yul\":7198:7201   */\n      dup3\n        /* \"#utility.yul\":7194:7208   */\n      add\n        /* \"#utility.yul\":7179:7208   */\n      swap1\n      pop\n        /* \"#utility.yul\":7056:7214   */\n      swap3\n      swap2\n      pop\n      pop\n      jump\t// out\n        /* \"#utility.yul\":7220:7366   */\n    tag_145:\n        /* \"#utility.yul\":7317:7323   */\n      dup3\n        /* \"#utility.yul\":7312:7315   */\n      dup2\n        /* \"#utility.yul\":7307:7310   */\n      dup4\n        /* \"#utility.yul\":7294:7324   */\n      calldatacopy\n        /* \"#utility.yul\":7358:7359   */\n      0x00\n        /* \"#utility.yul\":7349:7355   */\n      dup4\n        /* \"#utility.yul\":7344:7347   */\n      dup4\n        /* \"#utility.yul\":7340:7356   */\n      add\n        /* \"#utility.yul\":7333:7360   */\n      mstore\n        /* \"#utility.yul\":7220:7366   */\n      pop\n      pop\n      pop\n      jump\t// out\n        /* \"#utility.yul\":7372:7474   */\n    tag_146:\n        /* \"#utility.yul\":7413:7419   */\n      0x00\n        /* \"#utility.yul\":7464:7466   */\n      0x1f\n        /* \"#utility.yul\":7460:7467   */\n      not\n        /* \"#utility.yul\":7455:7457   */\n      0x1f\n        /* \"#utility.yul\":7448:7453   */\n      dup4\n        /* \"#utility.yul\":7444:7458   */\n      add\n        /* \"#utility.yul\":7440:7468   */\n      and\n        /* \"#utility.yul\":7430:7468   */\n      swap1\n      pop\n        /* \"#utility.yul\":7372:7474   */\n      swap2\n      swap1\n      pop\n      jump\t// out\n        /* \"#utility.yul\":7502:7796   */\n    tag_147:\n        /* \"#utility.yul\":7588:7591   */\n      0x00\n        /* \"#utility.yul\":7609:7669   */\n      tag_240\n        /* \"#utility.yul\":7662:7668   */\n      dup4\n        /* \"#utility.yul\":7657:7660   */\n      dup6\n        /* \"#utility.yul\":7609:7669   */\n      tag_144\n      jump\t// in\n    tag_240:\n        /* \"#utility.yul\":7602:7669   */\n      swap4\n      pop\n        /* \"#utility.yul\":7679:7735   */\n      tag_241\n        /* \"#utility.yul\":7728:7734   */\n      dup4\n        /* \"#utility.yul\":7723:7726   */\n      dup6\n        /* \"#utility.yul\":7716:7721   */\n      dup5\n        /* \"#utility.yul\":7679:7735   */\n      tag_145\n      jump\t// in\n    tag_241:\n        /* \"#utility.yul\":7760:7789   */\n      tag_242\n        /* \"#utility.yul\":7782:7788   */\n      dup4\n        /* \"#utility.yul\":7760:7789   */\n      tag_146\n      jump\t// in\n    tag_242:\n        /* \"#utility.yul\":7755:7758   */\n      dup5\n        /* \"#utility.yul\":7751:7790   */\n      add\n        /* \"#utility.yul\":7744:7790   */\n      swap1\n      pop\n        /* \"#utility.yul\":7502:7796   */\n      swap4\n      swap3\n      pop\n      pop\n      pop\n      jump\t// out\n        /* \"#utility.yul\":7802:7924   */\n    tag_148:\n        /* \"#utility.yul\":7854:7859   */\n      0x00\n        /* \"#utility.yul\":7879:7918   */\n      tag_244\n        /* \"#utility.yul\":7914:7916   */\n      0x20\n        /* \"#utility.yul\":7909:7912   */\n      dup5\n        /* \"#utility.yul\":7905:7917   */\n      add\n        /* \"#utility.yul\":7900:7903   */\n      dup5\n        /* \"#utility.yul\":7879:7918   */\n      tag_137\n      jump\t// in\n    tag_244:\n        /* \"#utility.yul\":7870:7918   */\n      swap1\n      pop\n        /* \"#utility.yul\":7802:7924   */\n      swap3\n      swap2\n      pop\n      pop\n      jump\t// out\n        /* \"#utility.yul\":7930:8038   */\n    tag_149:\n        /* \"#utility.yul\":8007:8031   */\n      tag_246\n        /* \"#utility.yul\":8025:8030   */\n      dup2\n        /* \"#utility.yul\":8007:8031   */\n      tag_135\n      jump\t// in\n    tag_246:\n        /* \"#utility.yul\":8002:8005   */\n      dup3\n        /* \"#utility.yul\":7995:8032   */\n      mstore\n        /* \"#utility.yul\":7930:8038   */\n      pop\n      pop\n      jump\t// out\n        /* \"#utility.yul\":8084:8790   */\n    tag_150:\n        /* \"#utility.yul\":8203:8206   */\n      0x00\n        /* \"#utility.yul\":8239:8243   */\n      0x40\n        /* \"#utility.yul\":8234:8237   */\n      dup4\n        /* \"#utility.yul\":8230:8244   */\n      add\n        /* \"#utility.yul\":8323:8384   */\n      tag_248\n        /* \"#utility.yul\":8378:8382   */\n      0x00\n        /* \"#utility.yul\":8371:8376   */\n      dup5\n        /* \"#utility.yul\":8367:8383   */\n      add\n        /* \"#utility.yul\":8360:8365   */\n      dup5\n        /* \"#utility.yul\":8323:8384   */\n      tag_143\n      jump\t// in\n    tag_248:\n        /* \"#utility.yul\":8431:8434   */\n      dup6\n        /* \"#utility.yul\":8425:8429   */\n      dup4\n        /* \"#utility.yul\":8421:8435   */\n      sub\n        /* \"#utility.yul\":8414:8418   */\n      0x00\n        /* \"#utility.yul\":8409:8412   */\n      dup8\n        /* \"#utility.yul\":8405:8419   */\n      add\n        /* \"#utility.yul\":8398:8436   */\n      mstore\n        /* \"#utility.yul\":8457:8544   */\n      tag_249\n        /* \"#utility.yul\":8539:8543   */\n      dup4\n        /* \"#utility.yul\":8525:8537   */\n      dup3\n        /* \"#utility.yul\":8511:8523   */\n      dup5\n        /* \"#utility.yul\":8457:8544   */\n      tag_147\n      jump\t// in\n    tag_249:\n        /* \"#utility.yul\":8449:8544   */\n      swap3\n      pop\n        /* \"#utility.yul\":8254:8555   */\n      pop\n      pop\n        /* \"#utility.yul\":8627:8677   */\n      tag_250\n        /* \"#utility.yul\":8671:8675   */\n      0x20\n        /* \"#utility.yul\":8664:8669   */\n      dup5\n        /* \"#utility.yul\":8660:8676   */\n      add\n        /* \"#utility.yul\":8653:8658   */\n      dup5\n        /* \"#utility.yul\":8627:8677   */\n      tag_148\n      jump\t// in\n    tag_250:\n        /* \"#utility.yul\":8690:8753   */\n      tag_251\n        /* \"#utility.yul\":8747:8751   */\n      0x20\n        /* \"#utility.yul\":8742:8745   */\n      dup7\n        /* \"#utility.yul\":8738:8752   */\n      add\n        /* \"#utility.yul\":8724:8736   */\n      dup3\n        /* \"#utility.yul\":8690:8753   */\n      tag_149\n      jump\t// in\n    tag_251:\n        /* \"#utility.yul\":8565:8763   */\n      pop\n        /* \"#utility.yul\":8780:8784   */\n      dup1\n        /* \"#utility.yul\":8773:8784   */\n      swap2\n      pop\n        /* \"#utility.yul\":8208:8790   */\n      pop\n        /* \"#utility.yul\":8084:8790   */\n      swap3\n      swap2\n      pop\n      pop\n      jump\t// out\n        /* \"#utility.yul\":8796:9169   */\n    tag_56:\n        /* \"#utility.yul\":8939:8943   */\n      0x00\n        /* \"#utility.yul\":8977:8979   */\n      0x20\n        /* \"#utility.yul\":8966:8975   */\n      dup3\n        /* \"#utility.yul\":8962:8980   */\n      add\n        /* \"#utility.yul\":8954:8980   */\n      swap1\n      pop\n        /* \"#utility.yul\":9026:9035   */\n      dup2\n        /* \"#utility.yul\":9020:9024   */\n      dup2\n        /* \"#utility.yul\":9016:9036   */\n      sub\n        /* \"#utility.yul\":9012:9013   */\n      0x00\n        /* \"#utility.yul\":9001:9010   */\n      dup4\n        /* \"#utility.yul\":8997:9014   */\n      add\n        /* \"#utility.yul\":8990:9037   */\n      mstore\n        /* \"#utility.yul\":9054:9162   */\n      tag_253\n        /* \"#utility.yul\":9157:9161   */\n      dup2\n        /* \"#utility.yul\":9148:9154   */\n      dup5\n        /* \"#utility.yul\":9054:9162   */\n      tag_150\n      jump\t// in\n    tag_253:\n        /* \"#utility.yul\":9046:9162   */\n      swap1\n      pop\n        /* \"#utility.yul\":8796:9169   */\n      swap3\n      swap2\n      pop\n      pop\n      jump\t// out\n        /* \"#utility.yul\":9175:9343   */\n    tag_151:\n        /* \"#utility.yul\":9258:9269   */\n      0x00\n        /* \"#utility.yul\":9292:9298   */\n      dup3\n        /* \"#utility.yul\":9287:9290   */\n      dup3\n        /* \"#utility.yul\":9280:9299   */\n      mstore\n        /* \"#utility.yul\":9332:9336   */\n      0x20\n        /* \"#utility.yul\":9327:9330   */\n      dup3\n        /* \"#utility.yul\":9323:9337   */\n      add\n        /* \"#utility.yul\":9308:9337   */\n      swap1\n      pop\n        /* \"#utility.yul\":9175:9343   */\n      swap3\n      swap2\n      pop\n      pop\n      jump\t// out\n        /* \"#utility.yul\":9371:9685   */\n    tag_152:\n        /* \"#utility.yul\":9467:9470   */\n      0x00\n        /* \"#utility.yul\":9488:9558   */\n      tag_256\n        /* \"#utility.yul\":9551:9557   */\n      dup4\n        /* \"#utility.yul\":9546:9549   */\n      dup6\n        /* \"#utility.yul\":9488:9558   */\n      tag_151\n      jump\t// in\n    tag_256:\n        /* \"#utility.yul\":9481:9558   */\n      swap4\n      pop\n        /* \"#utility.yul\":9568:9624   */\n      tag_257\n        /* \"#utility.yul\":9617:9623   */\n      dup4\n        /* \"#utility.yul\":9612:9615   */\n      dup6\n        /* \"#utility.yul\":9605:9610   */\n      dup5\n        /* \"#utility.yul\":9568:9624   */\n      tag_145\n      jump\t// in\n    tag_257:\n        /* \"#utility.yul\":9649:9678   */\n      tag_258\n        /* \"#utility.yul\":9671:9677   */\n      dup4\n        /* \"#utility.yul\":9649:9678   */\n      tag_146\n      jump\t// in\n    tag_258:\n        /* \"#utility.yul\":9644:9647   */\n      dup5\n        /* \"#utility.yul\":9640:9679   */\n      add\n        /* \"#utility.yul\":9633:9679   */\n      swap1\n      pop\n        /* \"#utility.yul\":9371:9685   */\n      swap4\n      swap3\n      pop\n      pop\n      pop\n      jump\t// out\n        /* \"#utility.yul\":9691:9809   */\n    tag_153:\n        /* \"#utility.yul\":9778:9802   */\n      tag_260\n        /* \"#utility.yul\":9796:9801   */\n      dup2\n        /* \"#utility.yul\":9778:9802   */\n      tag_135\n      jump\t// in\n    tag_260:\n        /* \"#utility.yul\":9773:9776   */\n      dup3\n        /* \"#utility.yul\":9766:9803   */\n      mstore\n        /* \"#utility.yul\":9691:9809   */\n      pop\n      pop\n      jump\t// out\n        /* \"#utility.yul\":9815:10364   */\n    tag_84:\n        /* \"#utility.yul\":9992:9996   */\n      0x00\n        /* \"#utility.yul\":10030:10032   */\n      0x60\n        /* \"#utility.yul\":10019:10028   */\n      dup3\n        /* \"#utility.yul\":10015:10033   */\n      add\n        /* \"#utility.yul\":10007:10033   */\n      swap1\n      pop\n        /* \"#utility.yul\":10079:10088   */\n      dup2\n        /* \"#utility.yul\":10073:10077   */\n      dup2\n        /* \"#utility.yul\":10069:10089   */\n      sub\n        /* \"#utility.yul\":10065:10066   */\n      0x00\n        /* \"#utility.yul\":10054:10063   */\n      dup4\n        /* \"#utility.yul\":10050:10067   */\n      add\n        /* \"#utility.yul\":10043:10090   */\n      mstore\n        /* \"#utility.yul\":10107:10193   */\n      tag_262\n        /* \"#utility.yul\":10188:10192   */\n      dup2\n        /* \"#utility.yul\":10179:10185   */\n      dup7\n        /* \"#utility.yul\":10171:10177   */\n      dup9\n        /* \"#utility.yul\":10107:10193   */\n      tag_152\n      jump\t// in\n    tag_262:\n        /* \"#utility.yul\":10099:10193   */\n      swap1\n      pop\n        /* \"#utility.yul\":10203:10275   */\n      tag_263\n        /* \"#utility.yul\":10271:10273   */\n      0x20\n        /* \"#utility.yul\":10260:10269   */\n      dup4\n        /* \"#utility.yul\":10256:10274   */\n      add\n        /* \"#utility.yul\":10247:10253   */\n      dup6\n        /* \"#utility.yul\":10203:10275   */\n      tag_153\n      jump\t// in\n    tag_263:\n        /* \"#utility.yul\":10285:10357   */\n      tag_264\n        /* \"#utility.yul\":10353:10355   */\n      0x40\n        /* \"#utility.yul\":10342:10351   */\n      dup4\n        /* \"#utility.yul\":10338:10356   */\n      add\n        /* \"#utility.yul\":10329:10335   */\n      dup5\n        /* \"#utility.yul\":10285:10357   */\n      tag_153\n      jump\t// in\n    tag_264:\n        /* \"#utility.yul\":9815:10364   */\n      swap6\n      swap5\n      pop\n      pop\n      pop\n      pop\n      pop\n      jump\t// out\n\n    auxdata: 0xa26469706673582212203883abb261ab572ed8b0deb1a8b64c27c27f6af13439c76e475f8fb327d839d064736f6c63430008140033\n}\n",
				"bytecode": {
					"linkReferences": {},
					"object": "60a060405234801562000010575f80fd5b5060405162000f4938038062000f49833981810160405281019062000036919062000298565b805f73ffffffffffffffffffffffffffffffffffffffff168173ffffffffffffffffffffffffffffffffffffffff1603620000aa575f6040517f1e4fbdf7000000000000000000000000000000000000000000000000000000008152600401620000a19190620002ee565b60405180910390fd5b620000bb81620000f860201b60201c565b508173ffffffffffffffffffffffffffffffffffffffff1660808173ffffffffffffffffffffffffffffffffffffffff1681525050505062000309565b60015f6101000a81549073ffffffffffffffffffffffffffffffffffffffff02191690556200012d816200013060201b60201c565b50565b5f805f9054906101000a900473ffffffffffffffffffffffffffffffffffffffff169050815f806101000a81548173ffffffffffffffffffffffffffffffffffffffff021916908373ffffffffffffffffffffffffffffffffffffffff1602179055508173ffffffffffffffffffffffffffffffffffffffff168173ffffffffffffffffffffffffffffffffffffffff167f8be0079c531659141344cd1fd0a4f28419497f9722a3daafe3b4186f6b6457e060405160405180910390a35050565b5f80fd5b5f73ffffffffffffffffffffffffffffffffffffffff82169050919050565b5f6200022082620001f5565b9050919050565b5f620002338262000214565b9050919050565b620002458162000227565b811462000250575f80fd5b50565b5f8151905062000263816200023a565b92915050565b620002748162000214565b81146200027f575f80fd5b50565b5f81519050620002928162000269565b92915050565b5f8060408385031215620002b157620002b0620001f1565b5b5f620002c08582860162000253565b9250506020620002d38582860162000282565b9150509250929050565b620002e88162000214565b82525050565b5f602082019050620003035f830184620002dd565b92915050565b608051610c19620003305f395f81816101bb0152818161024301526103a00152610c195ff3fe608060405234801561000f575f80fd5b50600436106100a7575f3560e01c80638da5cb5b1161006f5780638da5cb5b1461011757806394142cc614610135578063ab750e7514610151578063e30c39781461016d578063e5caa16a1461018b578063f2fde38b14610195576100a7565b80631599ead5146100ab5780632b7ac3f3146100c75780635c975abb146100e5578063715018a61461010357806379ba50971461010d575b5f80fd5b6100c560048036038101906100c09190610761565b6101b1565b005b6100cf610241565b6040516100dc9190610822565b60405180910390f35b6100ed610265565b6040516100fa9190610855565b60405180910390f35b61010b61027b565b005b61011561028e565b005b61011f61031c565b60405161012c919061088e565b60405180910390f35b61014f600480360381019061014a9190610761565b610343565b005b61016b6004803603810190610166919061093b565b610396565b005b61017561042f565b604051610182919061088e565b60405180910390f35b610193610457565b005b6101af60048036038101906101aa91906109d6565b610469565b005b6101b9610515565b7f000000000000000000000000000000000000000000000000000000000000000073ffffffffffffffffffffffffffffffffffffffff16631599ead5826040518263ffffffff1660e01b81526004016102129190610b3a565b5f6040518083038186803b158015610228575f80fd5b505afa15801561023a573d5f803e3d5ffd5b5050505050565b7f000000000000000000000000000000000000000000000000000000000000000081565b5f600160149054906101000a900460ff16905090565b610283610556565b61028c5f6105dd565b565b5f61029761060d565b90508073ffffffffffffffffffffffffffffffffffffffff166102b861042f565b73ffffffffffffffffffffffffffffffffffffffff161461031057806040517f118cdaa7000000000000000000000000000000000000000000000000000000008152600401610307919061088e565b60405180910390fd5b610319816105dd565b50565b5f805f9054906101000a900473ffffffffffffffffffffffffffffffffffffffff16905090565b5f801b816020013514610382576040517f2004afd100000000000000000000000000000000000000000000000000000000815260040160405180910390fd5b61038b816101b1565b610393610614565b50565b61039e610515565b7f000000000000000000000000000000000000000000000000000000000000000073ffffffffffffffffffffffffffffffffffffffff1663ab750e75858585856040518563ffffffff1660e01b81526004016103fd9493929190610ba5565b5f6040518083038186803b158015610413575f80fd5b505afa158015610425573d5f803e3d5ffd5b5050505050505050565b5f60015f9054906101000a900473ffffffffffffffffffffffffffffffffffffffff16905090565b61045f610556565b610467610614565b565b610471610556565b8060015f6101000a81548173ffffffffffffffffffffffffffffffffffffffff021916908373ffffffffffffffffffffffffffffffffffffffff1602179055508073ffffffffffffffffffffffffffffffffffffffff166104d061031c565b73ffffffffffffffffffffffffffffffffffffffff167f38d16b8cac22d99fc7c124b9cd0de2d3fa1faef420bfe791d8c362d765e2270060405160405180910390a350565b61051d610265565b15610554576040517fd93c066500000000000000000000000000000000000000000000000000000000815260040160405180910390fd5b565b61055e61060d565b73ffffffffffffffffffffffffffffffffffffffff1661057c61031c565b73ffffffffffffffffffffffffffffffffffffffff16146105db5761059f61060d565b6040517f118cdaa70000000000000000000000000000000000000000000000000000000081526004016105d2919061088e565b60405180910390fd5b565b60015f6101000a81549073ffffffffffffffffffffffffffffffffffffffff021916905561060a81610676565b50565b5f33905090565b61061c610515565b60018060146101000a81548160ff0219169083151502179055507f62e78cea01bee320cd4e420270b5ea74000d11b0c9f74754ebdbfc544b05a25861065f61060d565b60405161066c919061088e565b60405180910390a1565b5f805f9054906101000a900473ffffffffffffffffffffffffffffffffffffffff169050815f806101000a81548173ffffffffffffffffffffffffffffffffffffffff021916908373ffffffffffffffffffffffffffffffffffffffff1602179055508173ffffffffffffffffffffffffffffffffffffffff168173ffffffffffffffffffffffffffffffffffffffff167f8be0079c531659141344cd1fd0a4f28419497f9722a3daafe3b4186f6b6457e060405160405180910390a35050565b5f80fd5b5f80fd5b5f80fd5b5f604082840312156107585761075761073f565b5b81905092915050565b5f6020828403121561077657610775610737565b5b5f82013567ffffffffffffffff8111156107935761079261073b565b5b61079f84828501610743565b91505092915050565b5f73ffffffffffffffffffffffffffffffffffffffff82169050919050565b5f819050919050565b5f6107ea6107e56107e0846107a8565b6107c7565b6107a8565b9050919050565b5f6107fb826107d0565b9050919050565b5f61080c826107f1565b9050919050565b61081c81610802565b82525050565b5f6020820190506108355f830184610813565b92915050565b5f8115159050919050565b61084f8161083b565b82525050565b5f6020820190506108685f830184610846565b92915050565b5f610878826107a8565b9050919050565b6108888161086e565b82525050565b5f6020820190506108a15f83018461087f565b92915050565b5f80fd5b5f80fd5b5f80fd5b5f8083601f8401126108c8576108c76108a7565b5b8235905067ffffffffffffffff8111156108e5576108e46108ab565b5b602083019150836001820283011115610901576109006108af565b5b9250929050565b5f819050919050565b61091a81610908565b8114610924575f80fd5b50565b5f8135905061093581610911565b92915050565b5f805f806060858703121561095357610952610737565b5b5f85013567ffffffffffffffff8111156109705761096f61073b565b5b61097c878288016108b3565b9450945050602061098f87828801610927565b92505060406109a087828801610927565b91505092959194509250565b6109b58161086e565b81146109bf575f80fd5b50565b5f813590506109d0816109ac565b92915050565b5f602082840312156109eb576109ea610737565b5b5f6109f8848285016109c2565b91505092915050565b5f80fd5b5f80fd5b5f80fd5b5f8083356001602003843603038112610a2957610a28610a09565b5b83810192508235915060208301925067ffffffffffffffff821115610a5157610a50610a01565b5b600182023603831315610a6757610a66610a05565b5b509250929050565b5f82825260208201905092915050565b828183375f83830152505050565b5f601f19601f8301169050919050565b5f610aa88385610a6f565b9350610ab5838584610a7f565b610abe83610a8d565b840190509392505050565b5f610ad76020840184610927565b905092915050565b610ae881610908565b82525050565b5f60408301610aff5f840184610a0d565b8583035f870152610b11838284610a9d565b92505050610b226020840184610ac9565b610b2f6020860182610adf565b508091505092915050565b5f6020820190508181035f830152610b528184610aee565b905092915050565b5f82825260208201905092915050565b5f610b758385610b5a565b9350610b82838584610a7f565b610b8b83610a8d565b840190509392505050565b610b9f81610908565b82525050565b5f6060820190508181035f830152610bbe818688610b6a565b9050610bcd6020830185610b96565b610bda6040830184610b96565b9594505050505056fea26469706673582212203883abb261ab572ed8b0deb1a8b64c27c27f6af13439c76e475f8fb327d839d064736f6c63430008140033",
					"opcodes": "PUSH1 0xA0 PUSH1 0x40 MSTORE CALLVALUE DUP1 ISZERO PUSH3 0x10 JUMPI PUSH0 DUP1 REVERT JUMPDEST POP PUSH1 0x40 MLOAD PUSH3 0xF49 CODESIZE SUB DUP1 PUSH3 0xF49 DUP4 CODECOPY DUP2 DUP2 ADD PUSH1 0x40 MSTORE DUP2 ADD SWAP1 PUSH3 0x36 SWAP2 SWAP1 PUSH3 0x298 JUMP JUMPDEST DUP1 PUSH0 PUSH20 0xFFFFFFFFFFFFFFFFFFFFFFFFFFFFFFFFFFFFFFFF AND DUP2 PUSH20 0xFFFFFFFFFFFFFFFFFFFFFFFFFFFFFFFFFFFFFFFF AND SUB PUSH3 0xAA JUMPI PUSH0 PUSH1 0x40 MLOAD PUSH32 0x1E4FBDF700000000000000000000000000000000000000000000000000000000 DUP2 MSTORE PUSH1 0x4 ADD PUSH3 0xA1 SWAP2 SWAP1 PUSH3 0x2EE JUMP JUMPDEST PUSH1 0x40 MLOAD DUP1 SWAP2 SUB SWAP1 REVERT JUMPDEST PUSH3 0xBB DUP2 PUSH3 0xF8 PUSH1 0x20 SHL PUSH1 0x20 SHR JUMP JUMPDEST POP DUP2 PUSH20 0xFFFFFFFFFFFFFFFFFFFFFFFFFFFFFFFFFFFFFFFF AND PUSH1 0x80 DUP2 PUSH20 0xFFFFFFFFFFFFFFFFFFFFFFFFFFFFFFFFFFFFFFFF AND DUP2 MSTORE POP POP POP POP PUSH3 0x309 JUMP JUMPDEST PUSH1 0x1 PUSH0 PUSH2 0x100 EXP DUP2 SLOAD SWAP1 PUSH20 0xFFFFFFFFFFFFFFFFFFFFFFFFFFFFFFFFFFFFFFFF MUL NOT AND SWAP1 SSTORE PUSH3 0x12D DUP2 PUSH3 0x130 PUSH1 0x20 SHL PUSH1 0x20 SHR JUMP JUMPDEST POP JUMP JUMPDEST PUSH0 DUP1 PUSH0 SWAP1 SLOAD SWAP1 PUSH2 0x100 EXP SWAP1 DIV PUSH20 0xFFFFFFFFFFFFFFFFFFFFFFFFFFFFFFFFFFFFFFFF AND SWAP1 POP DUP2 PUSH0 DUP1 PUSH2 0x100 EXP DUP2 SLOAD DUP2 PUSH20 0xFFFFFFFFFFFFFFFFFFFFFFFFFFFFFFFFFFFFFFFF MUL NOT AND SWAP1 DUP4 PUSH20 0xFFFFFFFFFFFFFFFFFFFFFFFFFFFFFFFFFFFFFFFF AND MUL OR SWAP1 SSTORE POP DUP2 PUSH20 0xFFFFFFFFFFFFFFFFFFFFFFFFFFFFFFFFFFFFFFFF AND DUP2 PUSH20 0xFFFFFFFFFFFFFFFFFFFFFFFFFFFFFFFFFFFFFFFF AND PUSH32 0x8BE0079C531659141344CD1FD0A4F28419497F9722A3DAAFE3B4186F6B6457E0 PUSH1 0x40 MLOAD PUSH1 0x40 MLOAD DUP1 SWAP2 SUB SWAP1 LOG3 POP POP JUMP JUMPDEST PUSH0 DUP1 REVERT JUMPDEST PUSH0 PUSH20 0xFFFFFFFFFFFFFFFFFFFFFFFFFFFFFFFFFFFFFFFF DUP3 AND SWAP1 POP SWAP2 SWAP1 POP JUMP JUMPDEST PUSH0 PUSH3 0x220 DUP3 PUSH3 0x1F5 JUMP JUMPDEST SWAP1 POP SWAP2 SWAP1 POP JUMP JUMPDEST PUSH0 PUSH3 0x233 DUP3 PUSH3 0x214 JUMP JUMPDEST SWAP1 POP SWAP2 SWAP1 POP JUMP JUMPDEST PUSH3 0x245 DUP2 PUSH3 0x227 JUMP JUMPDEST DUP2 EQ PUSH3 0x250 JUMPI PUSH0 DUP1 REVERT JUMPDEST POP JUMP JUMPDEST PUSH0 DUP2 MLOAD SWAP1 POP PUSH3 0x263 DUP2 PUSH3 0x23A JUMP JUMPDEST SWAP3 SWAP2 POP POP JUMP JUMPDEST PUSH3 0x274 DUP2 PUSH3 0x214 JUMP JUMPDEST DUP2 EQ PUSH3 0x27F JUMPI PUSH0 DUP1 REVERT JUMPDEST POP JUMP JUMPDEST PUSH0 DUP2 MLOAD SWAP1 POP PUSH3 0x292 DUP2 PUSH3 0x269 JUMP JUMPDEST SWAP3 SWAP2 POP POP JUMP JUMPDEST PUSH0 DUP1 PUSH1 0x40 DUP4 DUP6 SUB SLT ISZERO PUSH3 0x2B1 JUMPI PUSH3 0x2B0 PUSH3 0x1F1 JUMP JUMPDEST JUMPDEST PUSH0 PUSH3 0x2C0 DUP6 DUP3 DUP7 ADD PUSH3 0x253 JUMP JUMPDEST SWAP3 POP POP PUSH1 0x20 PUSH3 0x2D3 DUP6 DUP3 DUP7 ADD PUSH3 0x282 JUMP JUMPDEST SWAP2 POP POP SWAP3 POP SWAP3 SWAP1 POP JUMP JUMPDEST PUSH3 0x2E8 DUP2 PUSH3 0x214 JUMP JUMPDEST DUP3 MSTORE POP POP JUMP JUMPDEST PUSH0 PUSH1 0x20 DUP3 ADD SWAP1 POP PUSH3 0x303 PUSH0 DUP4 ADD DUP5 PUSH3 0x2DD JUMP JUMPDEST SWAP3 SWAP2 POP POP JUMP JUMPDEST PUSH1 0x80 MLOAD PUSH2 0xC19 PUSH3 0x330 PUSH0 CODECOPY PUSH0 DUP2 DUP2 PUSH2 0x1BB ADD MSTORE DUP2 DUP2 PUSH2 0x243 ADD MSTORE PUSH2 0x3A0 ADD MSTORE PUSH2 0xC19 PUSH0 RETURN INVALID PUSH1 0x80 PUSH1 0x40 MSTORE CALLVALUE DUP1 ISZERO PUSH2 0xF JUMPI PUSH0 DUP1 REVERT JUMPDEST POP PUSH1 0x4 CALLDATASIZE LT PUSH2 0xA7 JUMPI PUSH0 CALLDATALOAD PUSH1 0xE0 SHR DUP1 PUSH4 0x8DA5CB5B GT PUSH2 0x6F JUMPI DUP1 PUSH4 0x8DA5CB5B EQ PUSH2 0x117 JUMPI DUP1 PUSH4 0x94142CC6 EQ PUSH2 0x135 JUMPI DUP1 PUSH4 0xAB750E75 EQ PUSH2 0x151 JUMPI DUP1 PUSH4 0xE30C3978 EQ PUSH2 0x16D JUMPI DUP1 PUSH4 0xE5CAA16A EQ PUSH2 0x18B JUMPI DUP1 PUSH4 0xF2FDE38B EQ PUSH2 0x195 JUMPI PUSH2 0xA7 JUMP JUMPDEST DUP1 PUSH4 0x1599EAD5 EQ PUSH2 0xAB JUMPI DUP1 PUSH4 0x2B7AC3F3 EQ PUSH2 0xC7 JUMPI DUP1 PUSH4 0x5C975ABB EQ PUSH2 0xE5 JUMPI DUP1 PUSH4 0x715018A6 EQ PUSH2 0x103 JUMPI DUP1 PUSH4 0x79BA5097 EQ PUSH2 0x10D JUMPI JUMPDEST PUSH0 DUP1 REVERT JUMPDEST PUSH2 0xC5 PUSH1 0x4 DUP1 CALLDATASIZE SUB DUP2 ADD SWAP1 PUSH2 0xC0 SWAP2 SWAP1 PUSH2 0x761 JUMP JUMPDEST PUSH2 0x1B1 JUMP JUMPDEST STOP JUMPDEST PUSH2 0xCF PUSH2 0x241 JUMP JUMPDEST PUSH1 0x40 MLOAD PUSH2 0xDC SWAP2 SWAP1 PUSH2 0x822 JUMP JUMPDEST PUSH1 0x40 MLOAD DUP1 SWAP2 SUB SWAP1 RETURN JUMPDEST PUSH2 0xED PUSH2 0x265 JUMP JUMPDEST PUSH1 0x40 MLOAD PUSH2 0xFA SWAP2 SWAP1 PUSH2 0x855 JUMP JUMPDEST PUSH1 0x40 MLOAD DUP1 SWAP2 SUB SWAP1 RETURN JUMPDEST PUSH2 0x10B PUSH2 0x27B JUMP JUMPDEST STOP JUMPDEST PUSH2 0x115 PUSH2 0x28E JUMP JUMPDEST STOP JUMPDEST PUSH2 0x11F PUSH2 0x31C JUMP JUMPDEST PUSH1 0x40 MLOAD PUSH2 0x12C SWAP2 SWAP1 PUSH2 0x88E JUMP JUMPDEST PUSH1 0x40 MLOAD DUP1 SWAP2 SUB SWAP1 RETURN JUMPDEST PUSH2 0x14F PUSH1 0x4 DUP1 CALLDATASIZE SUB DUP2 ADD SWAP1 PUSH2 0x14A SWAP2 SWAP1 PUSH2 0x761 JUMP JUMPDEST PUSH2 0x343 JUMP JUMPDEST STOP JUMPDEST PUSH2 0x16B PUSH1 0x4 DUP1 CALLDATASIZE SUB DUP2 ADD SWAP1 PUSH2 0x166 SWAP2 SWAP1 PUSH2 0x93B JUMP JUMPDEST PUSH2 0x396 JUMP JUMPDEST STOP JUMPDEST PUSH2 0x175 PUSH2 0x42F JUMP JUMPDEST PUSH1 0x40 MLOAD PUSH2 0x182 SWAP2 SWAP1 PUSH2 0x88E JUMP JUMPDEST PUSH1 0x40 MLOAD DUP1 SWAP2 SUB SWAP1 RETURN JUMPDEST PUSH2 0x193 PUSH2 0x457 JUMP JUMPDEST STOP JUMPDEST PUSH2 0x1AF PUSH1 0x4 DUP1 CALLDATASIZE SUB DUP2 ADD SWAP1 PUSH2 0x1AA SWAP2 SWAP1 PUSH2 0x9D6 JUMP JUMPDEST PUSH2 0x469 JUMP JUMPDEST STOP JUMPDEST PUSH2 0x1B9 PUSH2 0x515 JUMP JUMPDEST PUSH32 0x0 PUSH20 0xFFFFFFFFFFFFFFFFFFFFFFFFFFFFFFFFFFFFFFFF AND PUSH4 0x1599EAD5 DUP3 PUSH1 0x40 MLOAD DUP3 PUSH4 0xFFFFFFFF AND PUSH1 0xE0 SHL DUP2 MSTORE PUSH1 0x4 ADD PUSH2 0x212 SWAP2 SWAP1 PUSH2 0xB3A JUMP JUMPDEST PUSH0 PUSH1 0x40 MLOAD DUP1 DUP4 SUB DUP2 DUP7 DUP1 EXTCODESIZE ISZERO DUP1 ISZERO PUSH2 0x228 JUMPI PUSH0 DUP1 REVERT JUMPDEST POP GAS STATICCALL ISZERO DUP1 ISZERO PUSH2 0x23A JUMPI RETURNDATASIZE PUSH0 DUP1 RETURNDATACOPY RETURNDATASIZE PUSH0 REVERT JUMPDEST POP POP POP POP POP JUMP JUMPDEST PUSH32 0x0 DUP2 JUMP JUMPDEST PUSH0 PUSH1 0x1 PUSH1 0x14 SWAP1 SLOAD SWAP1 PUSH2 0x100 EXP SWAP1 DIV PUSH1 0xFF AND SWAP1 POP SWAP1 JUMP JUMPDEST PUSH2 0x283 PUSH2 0x556 JUMP JUMPDEST PUSH2 0x28C PUSH0 PUSH2 0x5DD JUMP JUMPDEST JUMP JUMPDEST PUSH0 PUSH2 0x297 PUSH2 0x60D JUMP JUMPDEST SWAP1 POP DUP1 PUSH20 0xFFFFFFFFFFFFFFFFFFFFFFFFFFFFFFFFFFFFFFFF AND PUSH2 0x2B8 PUSH2 0x42F JUMP JUMPDEST PUSH20 0xFFFFFFFFFFFFFFFFFFFFFFFFFFFFFFFFFFFFFFFF AND EQ PUSH2 0x310 JUMPI DUP1 PUSH1 0x40 MLOAD PUSH32 0x118CDAA700000000000000000000000000000000000000000000000000000000 DUP2 MSTORE PUSH1 0x4 ADD PUSH2 0x307 SWAP2 SWAP1 PUSH2 0x88E JUMP JUMPDEST PUSH1 0x40 MLOAD DUP1 SWAP2 SUB SWAP1 REVERT JUMPDEST PUSH2 0x319 DUP2 PUSH2 0x5DD JUMP JUMPDEST POP JUMP JUMPDEST PUSH0 DUP1 PUSH0 SWAP1 SLOAD SWAP1 PUSH2 0x100 EXP SWAP1 DIV PUSH20 0xFFFFFFFFFFFFFFFFFFFFFFFFFFFFFFFFFFFFFFFF AND SWAP1 POP SWAP1 JUMP JUMPDEST PUSH0 DUP1 SHL DUP2 PUSH1 0x20 ADD CALLDATALOAD EQ PUSH2 0x382 JUMPI PUSH1 0x40 MLOAD PUSH32 0x2004AFD100000000000000000000000000000000000000000000000000000000 DUP2 MSTORE PUSH1 0x4 ADD PUSH1 0x40 MLOAD DUP1 SWAP2 SUB SWAP1 REVERT JUMPDEST PUSH2 0x38B DUP2 PUSH2 0x1B1 JUMP JUMPDEST PUSH2 0x393 PUSH2 0x614 JUMP JUMPDEST POP JUMP JUMPDEST PUSH2 0x39E PUSH2 0x515 JUMP JUMPDEST PUSH32 0x0 PUSH20 0xFFFFFFFFFFFFFFFFFFFFFFFFFFFFFFFFFFFFFFFF AND PUSH4 0xAB750E75 DUP6 DUP6 DUP6 DUP6 PUSH1 0x40 MLOAD DUP6 PUSH4 0xFFFFFFFF AND PUSH1 0xE0 SHL DUP2 MSTORE PUSH1 0x4 ADD PUSH2 0x3FD SWAP5 SWAP4 SWAP3 SWAP2 SWAP1 PUSH2 0xBA5 JUMP JUMPDEST PUSH0 PUSH1 0x40 MLOAD DUP1 DUP4 SUB DUP2 DUP7 DUP1 EXTCODESIZE ISZERO DUP1 ISZERO PUSH2 0x413 JUMPI PUSH0 DUP1 REVERT JUMPDEST POP GAS STATICCALL ISZERO DUP1 ISZERO PUSH2 0x425 JUMPI RETURNDATASIZE PUSH0 DUP1 RETURNDATACOPY RETURNDATASIZE PUSH0 REVERT JUMPDEST POP POP POP POP POP POP POP POP JUMP JUMPDEST PUSH0 PUSH1 0x1 PUSH0 SWAP1 SLOAD SWAP1 PUSH2 0x100 EXP SWAP1 DIV PUSH20 0xFFFFFFFFFFFFFFFFFFFFFFFFFFFFFFFFFFFFFFFF AND SWAP1 POP SWAP1 JUMP JUMPDEST PUSH2 0x45F PUSH2 0x556 JUMP JUMPDEST PUSH2 0x467 PUSH2 0x614 JUMP JUMPDEST JUMP JUMPDEST PUSH2 0x471 PUSH2 0x556 JUMP JUMPDEST DUP1 PUSH1 0x1 PUSH0 PUSH2 0x100 EXP DUP2 SLOAD DUP2 PUSH20 0xFFFFFFFFFFFFFFFFFFFFFFFFFFFFFFFFFFFFFFFF MUL NOT AND SWAP1 DUP4 PUSH20 0xFFFFFFFFFFFFFFFFFFFFFFFFFFFFFFFFFFFFFFFF AND MUL OR SWAP1 SSTORE POP DUP1 PUSH20 0xFFFFFFFFFFFFFFFFFFFFFFFFFFFFFFFFFFFFFFFF AND PUSH2 0x4D0 PUSH2 0x31C JUMP JUMPDEST PUSH20 0xFFFFFFFFFFFFFFFFFFFFFFFFFFFFFFFFFFFFFFFF AND PUSH32 0x38D16B8CAC22D99FC7C124B9CD0DE2D3FA1FAEF420BFE791D8C362D765E22700 PUSH1 0x40 MLOAD PUSH1 0x40 MLOAD DUP1 SWAP2 SUB SWAP1 LOG3 POP JUMP JUMPDEST PUSH2 0x51D PUSH2 0x265 JUMP JUMPDEST ISZERO PUSH2 0x554 JUMPI PUSH1 0x40 MLOAD PUSH32 0xD93C066500000000000000000000000000000000000000000000000000000000 DUP2 MSTORE PUSH1 0x4 ADD PUSH1 0x40 MLOAD DUP1 SWAP2 SUB SWAP1 REVERT JUMPDEST JUMP JUMPDEST PUSH2 0x55E PUSH2 0x60D JUMP JUMPDEST PUSH20 0xFFFFFFFFFFFFFFFFFFFFFFFFFFFFFFFFFFFFFFFF AND PUSH2 0x57C PUSH2 0x31C JUMP JUMPDEST PUSH20 0xFFFFFFFFFFFFFFFFFFFFFFFFFFFFFFFFFFFFFFFF AND EQ PUSH2 0x5DB JUMPI PUSH2 0x59F PUSH2 0x60D JUMP JUMPDEST PUSH1 0x40 MLOAD PUSH32 0x118CDAA700000000000000000000000000000000000000000000000000000000 DUP2 MSTORE PUSH1 0x4 ADD PUSH2 0x5D2 SWAP2 SWAP1 PUSH2 0x88E JUMP JUMPDEST PUSH1 0x40 MLOAD DUP1 SWAP2 SUB SWAP1 REVERT JUMPDEST JUMP JUMPDEST PUSH1 0x1 PUSH0 PUSH2 0x100 EXP DUP2 SLOAD SWAP1 PUSH20 0xFFFFFFFFFFFFFFFFFFFFFFFFFFFFFFFFFFFFFFFF MUL NOT AND SWAP1 SSTORE PUSH2 0x60A DUP2 PUSH2 0x676 JUMP JUMPDEST POP JUMP JUMPDEST PUSH0 CALLER SWAP1 POP SWAP1 JUMP JUMPDEST PUSH2 0x61C PUSH2 0x515 JUMP JUMPDEST PUSH1 0x1 DUP1 PUSH1 0x14 PUSH2 0x100 EXP DUP2 SLOAD DUP2 PUSH1 0xFF MUL NOT AND SWAP1 DUP4 ISZERO ISZERO MUL OR SWAP1 SSTORE POP PUSH32 0x62E78CEA01BEE320CD4E420270B5EA74000D11B0C9F74754EBDBFC544B05A258 PUSH2 0x65F PUSH2 0x60D JUMP JUMPDEST PUSH1 0x40 MLOAD PUSH2 0x66C SWAP2 SWAP1 PUSH2 0x88E JUMP JUMPDEST PUSH1 0x40 MLOAD DUP1 SWAP2 SUB SWAP1 LOG1 JUMP JUMPDEST PUSH0 DUP1 PUSH0 SWAP1 SLOAD SWAP1 PUSH2 0x100 EXP SWAP1 DIV PUSH20 0xFFFFFFFFFFFFFFFFFFFFFFFFFFFFFFFFFFFFFFFF AND SWAP1 POP DUP2 PUSH0 DUP1 PUSH2 0x100 EXP DUP2 SLOAD DUP2 PUSH20 0xFFFFFFFFFFFFFFFFFFFFFFFFFFFFFFFFFFFFFFFF MUL NOT AND SWAP1 DUP4 PUSH20 0xFFFFFFFFFFFFFFFFFFFFFFFFFFFFFFFFFFFFFFFF AND MUL OR SWAP1 SSTORE POP DUP2 PUSH20 0xFFFFFFFFFFFFFFFFFFFFFFFFFFFFFFFFFFFFFFFF AND DUP2 PUSH20 0xFFFFFFFFFFFFFFFFFFFFFFFFFFFFFFFFFFFFFFFF AND PUSH32 0x8BE0079C531659141344CD1FD0A4F28419497F9722A3DAAFE3B4186F6B6457E0 PUSH1 0x40 MLOAD PUSH1 0x40 MLOAD DUP1 SWAP2 SUB SWAP1 LOG3 POP POP JUMP JUMPDEST PUSH0 DUP1 REVERT JUMPDEST PUSH0 DUP1 REVERT JUMPDEST PUSH0 DUP1 REVERT JUMPDEST PUSH0 PUSH1 0x40 DUP3 DUP5 SUB SLT ISZERO PUSH2 0x758 JUMPI PUSH2 0x757 PUSH2 0x73F JUMP JUMPDEST JUMPDEST DUP2 SWAP1 POP SWAP3 SWAP2 POP POP JUMP JUMPDEST PUSH0 PUSH1 0x20 DUP3 DUP5 SUB SLT ISZERO PUSH2 0x776 JUMPI PUSH2 0x775 PUSH2 0x737 JUMP JUMPDEST JUMPDEST PUSH0 DUP3 ADD CALLDATALOAD PUSH8 0xFFFFFFFFFFFFFFFF DUP2 GT ISZERO PUSH2 0x793 JUMPI PUSH2 0x792 PUSH2 0x73B JUMP JUMPDEST JUMPDEST PUSH2 0x79F DUP5 DUP3 DUP6 ADD PUSH2 0x743 JUMP JUMPDEST SWAP2 POP POP SWAP3 SWAP2 POP POP JUMP JUMPDEST PUSH0 PUSH20 0xFFFFFFFFFFFFFFFFFFFFFFFFFFFFFFFFFFFFFFFF DUP3 AND SWAP1 POP SWAP2 SWAP1 POP JUMP JUMPDEST PUSH0 DUP2 SWAP1 POP SWAP2 SWAP1 POP JUMP JUMPDEST PUSH0 PUSH2 0x7EA PUSH2 0x7E5 PUSH2 0x7E0 DUP5 PUSH2 0x7A8 JUMP JUMPDEST PUSH2 0x7C7 JUMP JUMPDEST PUSH2 0x7A8 JUMP JUMPDEST SWAP1 POP SWAP2 SWAP1 POP JUMP JUMPDEST PUSH0 PUSH2 0x7FB DUP3 PUSH2 0x7D0 JUMP JUMPDEST SWAP1 POP SWAP2 SWAP1 POP JUMP JUMPDEST PUSH0 PUSH2 0x80C DUP3 PUSH2 0x7F1 JUMP JUMPDEST SWAP1 POP SWAP2 SWAP1 POP JUMP JUMPDEST PUSH2 0x81C DUP2 PUSH2 0x802 JUMP JUMPDEST DUP3 MSTORE POP POP JUMP JUMPDEST PUSH0 PUSH1 0x20 DUP3 ADD SWAP1 POP PUSH2 0x835 PUSH0 DUP4 ADD DUP5 PUSH2 0x813 JUMP JUMPDEST SWAP3 SWAP2 POP POP JUMP JUMPDEST PUSH0 DUP2 ISZERO ISZERO SWAP1 POP SWAP2 SWAP1 POP JUMP JUMPDEST PUSH2 0x84F DUP2 PUSH2 0x83B JUMP JUMPDEST DUP3 MSTORE POP POP JUMP JUMPDEST PUSH0 PUSH1 0x20 DUP3 ADD SWAP1 POP PUSH2 0x868 PUSH0 DUP4 ADD DUP5 PUSH2 0x846 JUMP JUMPDEST SWAP3 SWAP2 POP POP JUMP JUMPDEST PUSH0 PUSH2 0x878 DUP3 PUSH2 0x7A8 JUMP JUMPDEST SWAP1 POP SWAP2 SWAP1 POP JUMP JUMPDEST PUSH2 0x888 DUP2 PUSH2 0x86E JUMP JUMPDEST DUP3 MSTORE POP POP JUMP JUMPDEST PUSH0 PUSH1 0x20 DUP3 ADD SWAP1 POP PUSH2 0x8A1 PUSH0 DUP4 ADD DUP5 PUSH2 0x87F JUMP JUMPDEST SWAP3 SWAP2 POP POP JUMP JUMPDEST PUSH0 DUP1 REVERT JUMPDEST PUSH0 DUP1 REVERT JUMPDEST PUSH0 DUP1 REVERT JUMPDEST PUSH0 DUP1 DUP4 PUSH1 0x1F DUP5 ADD SLT PUSH2 0x8C8 JUMPI PUSH2 0x8C7 PUSH2 0x8A7 JUMP JUMPDEST JUMPDEST DUP3 CALLDATALOAD SWAP1 POP PUSH8 0xFFFFFFFFFFFFFFFF DUP2 GT ISZERO PUSH2 0x8E5 JUMPI PUSH2 0x8E4 PUSH2 0x8AB JUMP JUMPDEST JUMPDEST PUSH1 0x20 DUP4 ADD SWAP2 POP DUP4 PUSH1 0x1 DUP3 MUL DUP4 ADD GT ISZERO PUSH2 0x901 JUMPI PUSH2 0x900 PUSH2 0x8AF JUMP JUMPDEST JUMPDEST SWAP3 POP SWAP3 SWAP1 POP JUMP JUMPDEST PUSH0 DUP2 SWAP1 POP SWAP2 SWAP1 POP JUMP JUMPDEST PUSH2 0x91A DUP2 PUSH2 0x908 JUMP JUMPDEST DUP2 EQ PUSH2 0x924 JUMPI PUSH0 DUP1 REVERT JUMPDEST POP JUMP JUMPDEST PUSH0 DUP2 CALLDATALOAD SWAP1 POP PUSH2 0x935 DUP2 PUSH2 0x911 JUMP JUMPDEST SWAP3 SWAP2 POP POP JUMP JUMPDEST PUSH0 DUP1 PUSH0 DUP1 PUSH1 0x60 DUP6 DUP8 SUB SLT ISZERO PUSH2 0x953 JUMPI PUSH2 0x952 PUSH2 0x737 JUMP JUMPDEST JUMPDEST PUSH0 DUP6 ADD CALLDATALOAD PUSH8 0xFFFFFFFFFFFFFFFF DUP2 GT ISZERO PUSH2 0x970 JUMPI PUSH2 0x96F PUSH2 0x73B JUMP JUMPDEST JUMPDEST PUSH2 0x97C DUP8 DUP3 DUP9 ADD PUSH2 0x8B3 JUMP JUMPDEST SWAP5 POP SWAP5 POP POP PUSH1 0x20 PUSH2 0x98F DUP8 DUP3 DUP9 ADD PUSH2 0x927 JUMP JUMPDEST SWAP3 POP POP PUSH1 0x40 PUSH2 0x9A0 DUP8 DUP3 DUP9 ADD PUSH2 0x927 JUMP JUMPDEST SWAP2 POP POP SWAP3 SWAP6 SWAP2 SWAP5 POP SWAP3 POP JUMP JUMPDEST PUSH2 0x9B5 DUP2 PUSH2 0x86E JUMP JUMPDEST DUP2 EQ PUSH2 0x9BF JUMPI PUSH0 DUP1 REVERT JUMPDEST POP JUMP JUMPDEST PUSH0 DUP2 CALLDATALOAD SWAP1 POP PUSH2 0x9D0 DUP2 PUSH2 0x9AC JUMP JUMPDEST SWAP3 SWAP2 POP POP JUMP JUMPDEST PUSH0 PUSH1 0x20 DUP3 DUP5 SUB SLT ISZERO PUSH2 0x9EB JUMPI PUSH2 0x9EA PUSH2 0x737 JUMP JUMPDEST JUMPDEST PUSH0 PUSH2 0x9F8 DUP5 DUP3 DUP6 ADD PUSH2 0x9C2 JUMP JUMPDEST SWAP2 POP POP SWAP3 SWAP2 POP POP JUMP JUMPDEST PUSH0 DUP1 REVERT JUMPDEST PUSH0 DUP1 REVERT JUMPDEST PUSH0 DUP1 REVERT JUMPDEST PUSH0 DUP1 DUP4 CALLDATALOAD PUSH1 0x1 PUSH1 0x20 SUB DUP5 CALLDATASIZE SUB SUB DUP2 SLT PUSH2 0xA29 JUMPI PUSH2 0xA28 PUSH2 0xA09 JUMP JUMPDEST JUMPDEST DUP4 DUP2 ADD SWAP3 POP DUP3 CALLDATALOAD SWAP2 POP PUSH1 0x20 DUP4 ADD SWAP3 POP PUSH8 0xFFFFFFFFFFFFFFFF DUP3 GT ISZERO PUSH2 0xA51 JUMPI PUSH2 0xA50 PUSH2 0xA01 JUMP JUMPDEST JUMPDEST PUSH1 0x1 DUP3 MUL CALLDATASIZE SUB DUP4 SGT ISZERO PUSH2 0xA67 JUMPI PUSH2 0xA66 PUSH2 0xA05 JUMP JUMPDEST JUMPDEST POP SWAP3 POP SWAP3 SWAP1 POP JUMP JUMPDEST PUSH0 DUP3 DUP3 MSTORE PUSH1 0x20 DUP3 ADD SWAP1 POP SWAP3 SWAP2 POP POP JUMP JUMPDEST DUP3 DUP2 DUP4 CALLDATACOPY PUSH0 DUP4 DUP4 ADD MSTORE POP POP POP JUMP JUMPDEST PUSH0 PUSH1 0x1F NOT PUSH1 0x1F DUP4 ADD AND SWAP1 POP SWAP2 SWAP1 POP JUMP JUMPDEST PUSH0 PUSH2 0xAA8 DUP4 DUP6 PUSH2 0xA6F JUMP JUMPDEST SWAP4 POP PUSH2 0xAB5 DUP4 DUP6 DUP5 PUSH2 0xA7F JUMP JUMPDEST PUSH2 0xABE DUP4 PUSH2 0xA8D JUMP JUMPDEST DUP5 ADD SWAP1 POP SWAP4 SWAP3 POP POP POP JUMP JUMPDEST PUSH0 PUSH2 0xAD7 PUSH1 0x20 DUP5 ADD DUP5 PUSH2 0x927 JUMP JUMPDEST SWAP1 POP SWAP3 SWAP2 POP POP JUMP JUMPDEST PUSH2 0xAE8 DUP2 PUSH2 0x908 JUMP JUMPDEST DUP3 MSTORE POP POP JUMP JUMPDEST PUSH0 PUSH1 0x40 DUP4 ADD PUSH2 0xAFF PUSH0 DUP5 ADD DUP5 PUSH2 0xA0D JUMP JUMPDEST DUP6 DUP4 SUB PUSH0 DUP8 ADD MSTORE PUSH2 0xB11 DUP4 DUP3 DUP5 PUSH2 0xA9D JUMP JUMPDEST SWAP3 POP POP POP PUSH2 0xB22 PUSH1 0x20 DUP5 ADD DUP5 PUSH2 0xAC9 JUMP JUMPDEST PUSH2 0xB2F PUSH1 0x20 DUP7 ADD DUP3 PUSH2 0xADF JUMP JUMPDEST POP DUP1 SWAP2 POP POP SWAP3 SWAP2 POP POP JUMP JUMPDEST PUSH0 PUSH1 0x20 DUP3 ADD SWAP1 POP DUP2 DUP2 SUB PUSH0 DUP4 ADD MSTORE PUSH2 0xB52 DUP2 DUP5 PUSH2 0xAEE JUMP JUMPDEST SWAP1 POP SWAP3 SWAP2 POP POP JUMP JUMPDEST PUSH0 DUP3 DUP3 MSTORE PUSH1 0x20 DUP3 ADD SWAP1 POP SWAP3 SWAP2 POP POP JUMP JUMPDEST PUSH0 PUSH2 0xB75 DUP4 DUP6 PUSH2 0xB5A JUMP JUMPDEST SWAP4 POP PUSH2 0xB82 DUP4 DUP6 DUP5 PUSH2 0xA7F JUMP JUMPDEST PUSH2 0xB8B DUP4 PUSH2 0xA8D JUMP JUMPDEST DUP5 ADD SWAP1 POP SWAP4 SWAP3 POP POP POP JUMP JUMPDEST PUSH2 0xB9F DUP2 PUSH2 0x908 JUMP JUMPDEST DUP3 MSTORE POP POP JUMP JUMPDEST PUSH0 PUSH1 0x60 DUP3 ADD SWAP1 POP DUP2 DUP2 SUB PUSH0 DUP4 ADD MSTORE PUSH2 0xBBE DUP2 DUP7 DUP9 PUSH2 0xB6A JUMP JUMPDEST SWAP1 POP PUSH2 0xBCD PUSH1 0x20 DUP4 ADD DUP6 PUSH2 0xB96 JUMP JUMPDEST PUSH2 0xBDA PUSH1 0x40 DUP4 ADD DUP5 PUSH2 0xB96 JUMP JUMPDEST SWAP6 SWAP5 POP POP POP POP POP JUMP INVALID LOG2 PUSH5 0x6970667358 0x22 SLT KECCAK256 CODESIZE DUP4 0xAB 0xB2 PUSH2 0xAB57 0x2E 0xD8 0xB0 0xDE 0xB1 0xA8 0xB6 0x4C 0x27 0xC2 PUSH32 0x6AF13439C76E475F8FB327D839D064736F6C6343000814003300000000000000 "
				},
				"gasEstimates": {
					"creation": {
						"codeDepositCost": "619400",
						"executionCost": "infinite",
						"totalCost": "infinite"
					},
					"external": {
						"acceptOwnership()": "54738",
						"estop((bytes,bytes32))": "infinite",
						"estop()": "infinite",
						"owner()": "2515",
						"paused()": "2569",
						"pendingOwner()": "2581",
						"renounceOwnership()": "infinite",
						"transferOwnership(address)": "infinite",
						"verifier()": "infinite",
						"verify(bytes,bytes32,bytes32)": "infinite",
						"verifyIntegrity((bytes,bytes32))": "infinite"
					}
				},
				"methodIdentifiers": {
					"acceptOwnership()": "79ba5097",
					"estop((bytes,bytes32))": "94142cc6",
					"estop()": "e5caa16a",
					"owner()": "8da5cb5b",
					"paused()": "5c975abb",
					"pendingOwner()": "e30c3978",
					"renounceOwnership()": "715018a6",
					"transferOwnership(address)": "f2fde38b",
					"verifier()": "2b7ac3f3",
					"verify(bytes,bytes32,bytes32)": "ab750e75",
					"verifyIntegrity((bytes,bytes32))": "1599ead5"
				}
			},
			"storageLayout": {
				"storage": [
					{
						"astId": 8,
						"contract": "src/RiscZeroVerifierEmergencyStop.sol:RiscZeroVerifierEmergencyStop",
						"label": "_owner",
						"offset": 0,
						"slot": "0",
						"type": "t_address"
					},
					{
						"astId": 156,
						"contract": "src/RiscZeroVerifierEmergencyStop.sol:RiscZeroVerifierEmergencyStop",
						"label": "_pendingOwner",
						"offset": 0,
						"slot": "1",
						"type": "t_address"
					},
					{
						"astId": 272,
						"contract": "src/RiscZeroVerifierEmergencyStop.sol:RiscZeroVerifierEmergencyStop",
						"label": "_paused",
						"offset": 20,
						"slot": "1",
						"type": "t_bool"
					}
				],
				"types": {
					"t_address": {
						"encoding": "inplace",
						"label": "address",
						"numberOfBytes": "20"
					},
					"t_bool": {
						"encoding": "inplace",
						"label": "bool",
						"numberOfBytes": "1"
					}
				}
			},
			"userdoc": {
				"errors": {
					"InvalidProofOfExploit()": [
						{
							"notice": "Error raised when calling estop with a receipt that cannot be verified as proof of an exploit on the verifier contract."
						}
					]
				},
				"kind": "user",
				"methods": {
					"estop((bytes,bytes32))": {
						"notice": "Initiate an emergency stop of the verifier contract, via the \"circuit breaker\".         This method can be called by anyone who can produce a verifying proof for a receipt         claim digest of all zeroes. The existence of such a proof demonstrates a critical         vulnerability in the proof system.         When stopped, all calls to the verify and verifyIntegrity functions will revert.         Once stopped, this contract can never be restarted."
					},
					"estop()": {
						"notice": "Initiate an emergency stop of the verifier contract.         Can only be used by the guardian address assigned as owner of this contract.         When stopped, all calls to the verify and verifyIntegrity functions will revert.         Once stopped, this contract can never be restarted."
					},
					"verify(bytes,bytes32,bytes32)": {
						"notice": "Verify that the given seal is a valid RISC Zero proof of execution with the     given image ID and journal digest. Reverts on failure."
					},
					"verifyIntegrity((bytes,bytes32))": {
						"notice": "Verify that the given receipt is a valid RISC Zero receipt, ensuring the `seal` is valid a cryptographic proof of the execution with the given `claim`. Reverts on failure."
					}
				},
				"notice": "Wrapper for an IRiscZeroVerifier contract, providing emergency stop function.",
				"version": 1
			}
		}
	}
}