{
	"src/RiscZeroGroth16Verifier.sol": {
		"RiscZeroGroth16Verifier": {
			"abi": [
				{
					"inputs": [
						{
							"internalType": "bytes32",
							"name": "control_root",
							"type": "bytes32"
						},
						{
							"internalType": "bytes32",
							"name": "bn254_control_id",
							"type": "bytes32"
						}
					],
					"stateMutability": "nonpayable",
					"type": "constructor"
				},
				{
					"inputs": [
						{
							"internalType": "uint8",
							"name": "bits",
							"type": "uint8"
						},
						{
							"internalType": "uint256",
							"name": "value",
							"type": "uint256"
						}
					],
					"name": "SafeCastOverflowedUintDowncast",
					"type": "error"
				},
				{
					"inputs": [
						{
							"internalType": "bytes4",
							"name": "received",
							"type": "bytes4"
						},
						{
							"internalType": "bytes4",
							"name": "expected",
							"type": "bytes4"
						}
					],
					"name": "SelectorMismatch",
					"type": "error"
				},
				{
					"inputs": [],
					"name": "VerificationFailed",
					"type": "error"
				},
				{
					"inputs": [],
					"name": "BN254_CONTROL_ID",
					"outputs": [
						{
							"internalType": "bytes32",
							"name": "",
							"type": "bytes32"
						}
					],
					"stateMutability": "view",
					"type": "function"
				},
				{
					"inputs": [],
					"name": "CONTROL_ROOT_0",
					"outputs": [
						{
							"internalType": "bytes16",
							"name": "",
							"type": "bytes16"
						}
					],
					"stateMutability": "view",
					"type": "function"
				},
				{
					"inputs": [],
					"name": "CONTROL_ROOT_1",
					"outputs": [
						{
							"internalType": "bytes16",
							"name": "",
							"type": "bytes16"
						}
					],
					"stateMutability": "view",
					"type": "function"
				},
				{
					"inputs": [],
					"name": "SELECTOR",
					"outputs": [
						{
							"internalType": "bytes4",
							"name": "",
							"type": "bytes4"
						}
					],
					"stateMutability": "view",
					"type": "function"
				},
				{
					"inputs": [],
					"name": "VERSION",
					"outputs": [
						{
							"internalType": "string",
							"name": "",
							"type": "string"
						}
					],
					"stateMutability": "view",
					"type": "function"
				},
				{
					"inputs": [
						{
							"internalType": "bytes",
							"name": "seal",
							"type": "bytes"
						},
						{
							"internalType": "bytes32",
							"name": "imageId",
							"type": "bytes32"
						},
						{
							"internalType": "bytes32",
							"name": "journalDigest",
							"type": "bytes32"
						}
					],
					"name": "verify",
					"outputs": [],
					"stateMutability": "view",
					"type": "function"
				},
				{
					"inputs": [
						{
							"components": [
								{
									"internalType": "bytes",
									"name": "seal",
									"type": "bytes"
								},
								{
									"internalType": "bytes32",
									"name": "claimDigest",
									"type": "bytes32"
								}
							],
							"internalType": "struct Receipt",
							"name": "receipt",
							"type": "tuple"
						}
					],
					"name": "verifyIntegrity",
					"outputs": [],
					"stateMutability": "view",
					"type": "function"
				},
				{
					"inputs": [
						{
							"internalType": "uint256[2]",
							"name": "_pA",
							"type": "uint256[2]"
						},
						{
							"internalType": "uint256[2][2]",
							"name": "_pB",
							"type": "uint256[2][2]"
						},
						{
							"internalType": "uint256[2]",
							"name": "_pC",
							"type": "uint256[2]"
						},
						{
							"internalType": "uint256[5]",
							"name": "_pubSignals",
							"type": "uint256[5]"
						}
					],
					"name": "verifyProof",
					"outputs": [
						{
							"internalType": "bool",
							"name": "",
							"type": "bool"
						}
					],
					"stateMutability": "view",
					"type": "function"
				}
			],
			"devdoc": {
				"errors": {
					"SafeCastOverflowedUintDowncast(uint8,uint256)": [
						{
							"details": "Value doesn't fit in an uint of `bits` size."
						}
					]
				},
				"kind": "dev",
				"methods": {
					"verify(bytes,bytes32,bytes32)": {
						"details": "This method additionally ensures that the input hash is all-zeros (i.e. no committed input), the exit code is (Halted, 0), and there are no assumptions (i.e. the receipt is unconditional).",
						"params": {
							"imageId": "The identifier for the guest program.",
							"journalDigest": "The SHA-256 digest of the journal bytes.",
							"seal": "The encoded cryptographic proof (i.e. SNARK)."
						}
					},
					"verifyIntegrity((bytes,bytes32))": {
						"params": {
							"receipt": "The receipt to be verified."
						}
					}
				},
				"stateVariables": {
					"CONTROL_ROOT_0": {
						"details": "This value controls what set of recursion programs (e.g. lift, join, resolve), and therefore what version of the zkVM circuit, will be accepted by this contract. Each instance of this verifier contract will accept a single release of the RISC Zero circuits. New releases of RISC Zero's zkVM require updating these values. These values can be calculated from the [risc0 monorepo][1] using: `cargo xtask bootstrap`. [1]: https://github.com/risc0/risc0"
					},
					"SELECTOR": {
						"details": "The selector is taken from the hash of the verifier parameters including the Groth16      verification key and the control IDs that commit to the RISC Zero circuits. If two      receipts have different selectors (i.e. different verifier parameters), then it can      generally be assumed that they need distinct verifier implementations. This is used as      part of the RISC Zero versioning mechanism.      A selector is not intended to be collision resistant, in that it is possible to find      two preimages that result in the same selector. This is acceptable since it's purpose      to a route a request among a set of trusted verifiers, and to make errors of sending a      receipt to a mismatching verifiers easier to debug. It is analogous to the ABI      function selectors."
					}
				},
				"version": 1
			},
			"evm": {
				"assembly": "    /* \"src/RiscZeroGroth16Verifier.sol\":1916:8541  contract RiscZeroGroth16Verifier is... */\n  mstore(0x40, 0x0100)\n    /* \"src/RiscZeroGroth16Verifier.sol\":5521:6172  constructor(bytes32 control_root, bytes32 bn254_control_id) {... */\n  callvalue\n  dup1\n  iszero\n  tag_1\n  jumpi\n  0x00\n  dup1\n  revert\ntag_1:\n  pop\n  mload(0x40)\n  sub(codesize, bytecodeSize)\n  dup1\n  bytecodeSize\n  dup4\n  codecopy\n  dup2\n  dup2\n  add\n  0x40\n  mstore\n  dup2\n  add\n  swap1\n  tag_2\n  swap2\n  swap1\n  tag_3\n  jump\t// in\ntag_2:\n    /* \"src/RiscZeroGroth16Verifier.sol\":5626:5651  splitDigest(control_root) */\n  tag_6\n    /* \"src/RiscZeroGroth16Verifier.sol\":5638:5650  control_root */\n  dup3\n    /* \"src/RiscZeroGroth16Verifier.sol\":5626:5637  splitDigest */\n  shl(0x20, tag_7)\n    /* \"src/RiscZeroGroth16Verifier.sol\":5626:5651  splitDigest(control_root) */\n  0x20\n  shr\n  jump\t// in\ntag_6:\n    /* \"src/RiscZeroGroth16Verifier.sol\":5591:5651  (CONTROL_ROOT_0, CONTROL_ROOT_1) = splitDigest(control_root) */\n  dup1\n  not(0xffffffffffffffffffffffffffffffff)\n  and\n  0xa0\n  swap1\n  not(0xffffffffffffffffffffffffffffffff)\n  and\n  dup2\n  mstore\n  pop\n  dup2\n  not(0xffffffffffffffffffffffffffffffff)\n  and\n  0x80\n  swap1\n  not(0xffffffffffffffffffffffffffffffff)\n  and\n  dup2\n  mstore\n  pop\n  pop\n  pop\n    /* \"src/RiscZeroGroth16Verifier.sol\":5680:5696  bn254_control_id */\n  dup1\n    /* \"src/RiscZeroGroth16Verifier.sol\":5661:5696  BN254_CONTROL_ID = bn254_control_id */\n  0xc0\n  dup2\n  dup2\n  mstore\n  pop\n  pop\n    /* \"src/RiscZeroGroth16Verifier.sol\":5738:6155  sha256(... */\n  0x02\n    /* \"src/RiscZeroGroth16Verifier.sol\":5827:5875  sha256(\"risc0.Groth16ReceiptVerifierParameters\") */\n  dup1\n  mload(0x40)\n  tag_8\n  swap1\n  tag_9\n  jump\t// in\ntag_8:\n  0x20\n  mload(0x40)\n  dup1\n  dup4\n  sub\n  dup2\n  dup6\n  gas\n  staticcall\n  iszero\n  dup1\n  iszero\n  tag_11\n  jumpi\n  returndatasize\n  0x00\n  dup1\n  returndatacopy\n  revert(0x00, returndatasize)\ntag_11:\n  pop\n  pop\n  pop\n  mload(0x40)\n  returndatasize\n  not(0x1f)\n  0x1f\n  dup3\n  add\n  and\n  dup3\n  add\n  dup1\n  0x40\n  mstore\n  pop\n  dup2\n  add\n  swap1\n  tag_12\n  swap2\n  swap1\n  tag_13\n  jump\t// in\ntag_12:\n    /* \"src/RiscZeroGroth16Verifier.sol\":5925:5937  control_root */\n  dup4\n    /* \"src/RiscZeroGroth16Verifier.sol\":5959:6009  reverseByteOrderUint256(uint256(bn254_control_id)) */\n  tag_14\n    /* \"src/RiscZeroGroth16Verifier.sol\":5991:6007  bn254_control_id */\n  dup5\n    /* \"src/RiscZeroGroth16Verifier.sol\":5983:6008  uint256(bn254_control_id) */\n  0x00\n  shr\n    /* \"src/RiscZeroGroth16Verifier.sol\":5959:5982  reverseByteOrderUint256 */\n  shl(0x20, tag_15)\n    /* \"src/RiscZeroGroth16Verifier.sol\":5959:6009  reverseByteOrderUint256(uint256(bn254_control_id)) */\n  0x20\n  shr\n  jump\t// in\ntag_14:\n    /* \"src/RiscZeroGroth16Verifier.sol\":6031:6052  verifier_key_digest() */\n  tag_16\n    /* \"src/RiscZeroGroth16Verifier.sol\":6031:6050  verifier_key_digest */\n  shl(0x20, tag_17)\n    /* \"src/RiscZeroGroth16Verifier.sol\":6031:6052  verifier_key_digest() */\n  0x20\n  shr\n  jump\t// in\ntag_16:\n    /* \"src/RiscZeroGroth16Verifier.sol\":6122:6123  8 */\n  0x08\n    /* \"src/RiscZeroGroth16Verifier.sol\":6116:6117  3 */\n  0x03\n    /* \"src/RiscZeroGroth16Verifier.sol\":6109:6123  uint16(3) << 8 */\n  0xffff\n  and\n  swap1\n  shl\n    /* \"src/RiscZeroGroth16Verifier.sol\":5762:6141  abi.encodePacked(... */\n  add(0x20, mload(0x40))\n  tag_18\n  swap6\n  swap5\n  swap4\n  swap3\n  swap2\n  swap1\n  tag_19\n  jump\t// in\ntag_18:\n  mload(0x40)\n  0x20\n  dup2\n  dup4\n  sub\n  sub\n  dup2\n  mstore\n  swap1\n  0x40\n  mstore\n    /* \"src/RiscZeroGroth16Verifier.sol\":5738:6155  sha256(... */\n  mload(0x40)\n  tag_20\n  swap2\n  swap1\n  tag_21\n  jump\t// in\ntag_20:\n  0x20\n  mload(0x40)\n  dup1\n  dup4\n  sub\n  dup2\n  dup6\n  gas\n  staticcall\n  iszero\n  dup1\n  iszero\n  tag_23\n  jumpi\n  returndatasize\n  0x00\n  dup1\n  returndatacopy\n  revert(0x00, returndatasize)\ntag_23:\n  pop\n  pop\n  pop\n  mload(0x40)\n  returndatasize\n  not(0x1f)\n  0x1f\n  dup3\n  add\n  and\n  dup3\n  add\n  dup1\n  0x40\n  mstore\n  pop\n  dup2\n  add\n  swap1\n  tag_24\n  swap2\n  swap1\n  tag_13\n  jump\t// in\ntag_24:\n    /* \"src/RiscZeroGroth16Verifier.sol\":5707:6165  SELECTOR = bytes4(... */\n  not(0xffffffffffffffffffffffffffffffffffffffffffffffffffffffff)\n  and\n  0xe0\n  dup2\n  not(0xffffffffffffffffffffffffffffffffffffffffffffffffffffffff)\n  and\n  dup2\n  mstore\n  pop\n  pop\n    /* \"src/RiscZeroGroth16Verifier.sol\":5521:6172  constructor(bytes32 control_root, bytes32 bn254_control_id) {... */\n  pop\n  pop\n    /* \"src/RiscZeroGroth16Verifier.sol\":1916:8541  contract RiscZeroGroth16Verifier is... */\n  jump(tag_25)\n    /* \"src/RiscZeroGroth16Verifier.sol\":6499:6747  function splitDigest(... */\ntag_7:\n    /* \"src/RiscZeroGroth16Verifier.sol\":6573:6580  bytes16 */\n  0x00\n    /* \"src/RiscZeroGroth16Verifier.sol\":6582:6589  bytes16 */\n  dup1\n    /* \"src/RiscZeroGroth16Verifier.sol\":6601:6617  uint256 reversed */\n  0x00\n    /* \"src/RiscZeroGroth16Verifier.sol\":6620:6660  reverseByteOrderUint256(uint256(digest)) */\n  tag_27\n    /* \"src/RiscZeroGroth16Verifier.sol\":6652:6658  digest */\n  dup5\n    /* \"src/RiscZeroGroth16Verifier.sol\":6644:6659  uint256(digest) */\n  0x00\n  shr\n    /* \"src/RiscZeroGroth16Verifier.sol\":6620:6643  reverseByteOrderUint256 */\n  shl(0x20, tag_15)\n    /* \"src/RiscZeroGroth16Verifier.sol\":6620:6660  reverseByteOrderUint256(uint256(digest)) */\n  0x20\n  shr\n  jump\t// in\ntag_27:\n    /* \"src/RiscZeroGroth16Verifier.sol\":6601:6660  uint256 reversed = reverseByteOrderUint256(uint256(digest)) */\n  swap1\n  pop\n    /* \"src/RiscZeroGroth16Verifier.sol\":6694:6702  reversed */\n  dup1\n    /* \"src/RiscZeroGroth16Verifier.sol\":6678:6704  bytes16(uint128(reversed)) */\n  0x80\n  shl\n    /* \"src/RiscZeroGroth16Verifier.sol\":6734:6737  128 */\n  0x80\n    /* \"src/RiscZeroGroth16Verifier.sol\":6722:6730  reversed */\n  dup3\n    /* \"src/RiscZeroGroth16Verifier.sol\":6722:6737  reversed >> 128 */\n  swap1\n  shr\n    /* \"src/RiscZeroGroth16Verifier.sol\":6706:6739  bytes16(uint128(reversed >> 128)) */\n  0x80\n  shl\n    /* \"src/RiscZeroGroth16Verifier.sol\":6670:6740  return (bytes16(uint128(reversed)), bytes16(uint128(reversed >> 128))) */\n  swap3\n  pop\n  swap3\n  pop\n  pop\n    /* \"src/RiscZeroGroth16Verifier.sol\":6499:6747  function splitDigest(... */\n  swap2\n  pop\n  swap2\n  jump\t// out\n    /* \"src/utils/Util.sol\":929:1919  function reverseByteOrderUint256(uint256 input) pure returns (uint256 v) {... */\ntag_15:\n    /* \"src/utils/Util.sol\":991:1000  uint256 v */\n  0x00\n    /* \"src/utils/Util.sol\":1012:1017  input */\n  dup2\n    /* \"src/utils/Util.sol\":1008:1017  v = input */\n  swap1\n  pop\n    /* \"src/utils/Util.sol\":1213:1214  8 */\n  0x08\n    /* \"src/utils/Util.sol\":1142:1208  0x00FF00FF00FF00FF00FF00FF00FF00FF00FF00FF00FF00FF00FF00FF00FF00FF */\n  0xff00ff00ff00ff00ff00ff00ff00ff00ff00ff00ff00ff00ff00ff00ff00ff\n    /* \"src/utils/Util.sol\":1138:1139  v */\n  dup3\n    /* \"src/utils/Util.sol\":1138:1208  v & 0x00FF00FF00FF00FF00FF00FF00FF00FF00FF00FF00FF00FF00FF00FF00FF00FF */\n  and\n    /* \"src/utils/Util.sol\":1137:1214  (v & 0x00FF00FF00FF00FF00FF00FF00FF00FF00FF00FF00FF00FF00FF00FF00FF00FF) << 8 */\n  swap1\n  shl\n    /* \"src/utils/Util.sol\":1123:1124  8 */\n  0x08\n    /* \"src/utils/Util.sol\":1052:1118  0xFF00FF00FF00FF00FF00FF00FF00FF00FF00FF00FF00FF00FF00FF00FF00FF00 */\n  0xff00ff00ff00ff00ff00ff00ff00ff00ff00ff00ff00ff00ff00ff00ff00ff00\n    /* \"src/utils/Util.sol\":1048:1049  v */\n  dup4\n    /* \"src/utils/Util.sol\":1048:1118  v & 0xFF00FF00FF00FF00FF00FF00FF00FF00FF00FF00FF00FF00FF00FF00FF00FF00 */\n  and\n    /* \"src/utils/Util.sol\":1047:1124  (v & 0xFF00FF00FF00FF00FF00FF00FF00FF00FF00FF00FF00FF00FF00FF00FF00FF00) >> 8 */\n  swap1\n  shr\n    /* \"src/utils/Util.sol\":1046:1215  ((v & 0xFF00FF00FF00FF00FF00FF00FF00FF00FF00FF00FF00FF00FF00FF00FF00FF00) >> 8)... */\n  or\n    /* \"src/utils/Util.sol\":1042:1215  v = ((v & 0xFF00FF00FF00FF00FF00FF00FF00FF00FF00FF00FF00FF00FF00FF00FF00FF00) >> 8)... */\n  swap1\n  pop\n    /* \"src/utils/Util.sol\":1424:1426  16 */\n  0x10\n    /* \"src/utils/Util.sol\":1353:1419  0x0000FFFF0000FFFF0000FFFF0000FFFF0000FFFF0000FFFF0000FFFF0000FFFF */\n  0xffff0000ffff0000ffff0000ffff0000ffff0000ffff0000ffff0000ffff\n    /* \"src/utils/Util.sol\":1349:1350  v */\n  dup3\n    /* \"src/utils/Util.sol\":1349:1419  v & 0x0000FFFF0000FFFF0000FFFF0000FFFF0000FFFF0000FFFF0000FFFF0000FFFF */\n  and\n    /* \"src/utils/Util.sol\":1348:1426  (v & 0x0000FFFF0000FFFF0000FFFF0000FFFF0000FFFF0000FFFF0000FFFF0000FFFF) << 16 */\n  swap1\n  shl\n    /* \"src/utils/Util.sol\":1333:1335  16 */\n  0x10\n    /* \"src/utils/Util.sol\":1262:1328  0xFFFF0000FFFF0000FFFF0000FFFF0000FFFF0000FFFF0000FFFF0000FFFF0000 */\n  0xffff0000ffff0000ffff0000ffff0000ffff0000ffff0000ffff0000ffff0000\n    /* \"src/utils/Util.sol\":1258:1259  v */\n  dup4\n    /* \"src/utils/Util.sol\":1258:1328  v & 0xFFFF0000FFFF0000FFFF0000FFFF0000FFFF0000FFFF0000FFFF0000FFFF0000 */\n  and\n    /* \"src/utils/Util.sol\":1257:1335  (v & 0xFFFF0000FFFF0000FFFF0000FFFF0000FFFF0000FFFF0000FFFF0000FFFF0000) >> 16 */\n  swap1\n  shr\n    /* \"src/utils/Util.sol\":1256:1427  ((v & 0xFFFF0000FFFF0000FFFF0000FFFF0000FFFF0000FFFF0000FFFF0000FFFF0000) >> 16)... */\n  or\n    /* \"src/utils/Util.sol\":1252:1427  v = ((v & 0xFFFF0000FFFF0000FFFF0000FFFF0000FFFF0000FFFF0000FFFF0000FFFF0000) >> 16)... */\n  swap1\n  pop\n    /* \"src/utils/Util.sol\":1636:1638  32 */\n  0x20\n    /* \"src/utils/Util.sol\":1565:1631  0x00000000FFFFFFFF00000000FFFFFFFF00000000FFFFFFFF00000000FFFFFFFF */\n  0xffffffff00000000ffffffff00000000ffffffff00000000ffffffff\n    /* \"src/utils/Util.sol\":1561:1562  v */\n  dup3\n    /* \"src/utils/Util.sol\":1561:1631  v & 0x00000000FFFFFFFF00000000FFFFFFFF00000000FFFFFFFF00000000FFFFFFFF */\n  and\n    /* \"src/utils/Util.sol\":1560:1638  (v & 0x00000000FFFFFFFF00000000FFFFFFFF00000000FFFFFFFF00000000FFFFFFFF) << 32 */\n  swap1\n  shl\n    /* \"src/utils/Util.sol\":1545:1547  32 */\n  0x20\n    /* \"src/utils/Util.sol\":1474:1540  0xFFFFFFFF00000000FFFFFFFF00000000FFFFFFFF00000000FFFFFFFF00000000 */\n  0xffffffff00000000ffffffff00000000ffffffff00000000ffffffff00000000\n    /* \"src/utils/Util.sol\":1470:1471  v */\n  dup4\n    /* \"src/utils/Util.sol\":1470:1540  v & 0xFFFFFFFF00000000FFFFFFFF00000000FFFFFFFF00000000FFFFFFFF00000000 */\n  and\n    /* \"src/utils/Util.sol\":1469:1547  (v & 0xFFFFFFFF00000000FFFFFFFF00000000FFFFFFFF00000000FFFFFFFF00000000) >> 32 */\n  swap1\n  shr\n    /* \"src/utils/Util.sol\":1468:1639  ((v & 0xFFFFFFFF00000000FFFFFFFF00000000FFFFFFFF00000000FFFFFFFF00000000) >> 32)... */\n  or\n    /* \"src/utils/Util.sol\":1464:1639  v = ((v & 0xFFFFFFFF00000000FFFFFFFF00000000FFFFFFFF00000000FFFFFFFF00000000) >> 32)... */\n  swap1\n  pop\n    /* \"src/utils/Util.sol\":1848:1850  64 */\n  0x40\n    /* \"src/utils/Util.sol\":1777:1843  0x0000000000000000FFFFFFFFFFFFFFFF0000000000000000FFFFFFFFFFFFFFFF */\n  0xffffffffffffffff0000000000000000ffffffffffffffff\n    /* \"src/utils/Util.sol\":1773:1774  v */\n  dup3\n    /* \"src/utils/Util.sol\":1773:1843  v & 0x0000000000000000FFFFFFFFFFFFFFFF0000000000000000FFFFFFFFFFFFFFFF */\n  and\n    /* \"src/utils/Util.sol\":1772:1850  (v & 0x0000000000000000FFFFFFFFFFFFFFFF0000000000000000FFFFFFFFFFFFFFFF) << 64 */\n  swap1\n  shl\n    /* \"src/utils/Util.sol\":1757:1759  64 */\n  0x40\n    /* \"src/utils/Util.sol\":1686:1752  0xFFFFFFFFFFFFFFFF0000000000000000FFFFFFFFFFFFFFFF0000000000000000 */\n  0xffffffffffffffff0000000000000000ffffffffffffffff0000000000000000\n    /* \"src/utils/Util.sol\":1682:1683  v */\n  dup4\n    /* \"src/utils/Util.sol\":1682:1752  v & 0xFFFFFFFFFFFFFFFF0000000000000000FFFFFFFFFFFFFFFF0000000000000000 */\n  and\n    /* \"src/utils/Util.sol\":1681:1759  (v & 0xFFFFFFFFFFFFFFFF0000000000000000FFFFFFFFFFFFFFFF0000000000000000) >> 64 */\n  swap1\n  shr\n    /* \"src/utils/Util.sol\":1680:1851  ((v & 0xFFFFFFFFFFFFFFFF0000000000000000FFFFFFFFFFFFFFFF0000000000000000) >> 64)... */\n  or\n    /* \"src/utils/Util.sol\":1676:1851  v = ((v & 0xFFFFFFFFFFFFFFFF0000000000000000FFFFFFFFFFFFFFFF0000000000000000) >> 64)... */\n  swap1\n  pop\n    /* \"src/utils/Util.sol\":1912:1915  128 */\n  0x80\n    /* \"src/utils/Util.sol\":1907:1908  v */\n  dup2\n    /* \"src/utils/Util.sol\":1907:1915  v << 128 */\n  swap1\n  shl\n    /* \"src/utils/Util.sol\":1899:1902  128 */\n  0x80\n    /* \"src/utils/Util.sol\":1894:1895  v */\n  dup3\n    /* \"src/utils/Util.sol\":1894:1902  v >> 128 */\n  swap1\n  shr\n    /* \"src/utils/Util.sol\":1893:1916  (v >> 128) | (v << 128) */\n  or\n    /* \"src/utils/Util.sol\":1889:1916  v = (v >> 128) | (v << 128) */\n  swap1\n  pop\n    /* \"src/utils/Util.sol\":929:1919  function reverseByteOrderUint256(uint256 input) pure returns (uint256 v) {... */\n  swap2\n  swap1\n  pop\n  jump\t// out\n    /* \"src/RiscZeroGroth16Verifier.sol\":4169:5515  function verifier_key_digest() internal pure returns (bytes32) {... */\ntag_17:\n    /* \"src/RiscZeroGroth16Verifier.sol\":4223:4230  bytes32 */\n  0x00\n    /* \"src/RiscZeroGroth16Verifier.sol\":4242:4269  bytes32[] memory ic_digests */\n  dup1\n    /* \"src/RiscZeroGroth16Verifier.sol\":4286:4287  6 */\n  0x06\n    /* \"src/RiscZeroGroth16Verifier.sol\":4272:4288  new bytes32[](6) */\n  0xffffffffffffffff\n  dup2\n  gt\n  iszero\n  tag_30\n  jumpi\n  tag_31\n  tag_32\n  jump\t// in\ntag_31:\ntag_30:\n  mload(0x40)\n  swap1\n  dup1\n  dup3\n  mstore\n  dup1\n  0x20\n  mul\n  0x20\n  add\n  dup3\n  add\n  0x40\n  mstore\n  dup1\n  iszero\n  tag_33\n  jumpi\n  dup2\n  0x20\n  add\n  0x20\n  dup3\n  mul\n  dup1\n  calldatasize\n  dup4\n  calldatacopy\n  dup1\n  dup3\n  add\n  swap2\n  pop\n  pop\n  swap1\n  pop\ntag_33:\n  pop\n    /* \"src/RiscZeroGroth16Verifier.sol\":4242:4288  bytes32[] memory ic_digests = new bytes32[](6) */\n  swap1\n  pop\n    /* \"src/RiscZeroGroth16Verifier.sol\":4314:4350  sha256(abi.encodePacked(IC0x, IC0y)) */\n  0x02\n    /* \"src/Groth16Verifier.sol\":2692:2768  8446592859352799428420270221449902464741693648963397251242447530457567083492 */\n  0x12ac9a25dcd5e1a832a9061a082c15dd1d61aa9c4d553505739d0f5d65dc3be4\n    /* \"src/Groth16Verifier.sol\":2798:2874  1064796367193003797175961162477173481551615790032213185848276823815288302804 */\n  0x025aa744581ebe7ad91731911c898569106ff5a2d30f3eee2b23c60ee980acd4\n    /* \"src/RiscZeroGroth16Verifier.sol\":4321:4349  abi.encodePacked(IC0x, IC0y) */\n  add(0x20, mload(0x40))\n  tag_34\n  swap3\n  swap2\n  swap1\n  tag_35\n  jump\t// in\ntag_34:\n  mload(0x40)\n  0x20\n  dup2\n  dup4\n  sub\n  sub\n  dup2\n  mstore\n  swap1\n  0x40\n  mstore\n    /* \"src/RiscZeroGroth16Verifier.sol\":4314:4350  sha256(abi.encodePacked(IC0x, IC0y)) */\n  mload(0x40)\n  tag_36\n  swap2\n  swap1\n  tag_21\n  jump\t// in\ntag_36:\n  0x20\n  mload(0x40)\n  dup1\n  dup4\n  sub\n  dup2\n  dup6\n  gas\n  staticcall\n  iszero\n  dup1\n  iszero\n  tag_38\n  jumpi\n  returndatasize\n  0x00\n  dup1\n  returndatacopy\n  revert(0x00, returndatasize)\ntag_38:\n  pop\n  pop\n  pop\n  mload(0x40)\n  returndatasize\n  not(0x1f)\n  0x1f\n  dup3\n  add\n  and\n  dup3\n  add\n  dup1\n  0x40\n  mstore\n  pop\n  dup2\n  add\n  swap1\n  tag_39\n  swap2\n  swap1\n  tag_13\n  jump\t// in\ntag_39:\n    /* \"src/RiscZeroGroth16Verifier.sol\":4298:4308  ic_digests */\n  dup2\n    /* \"src/RiscZeroGroth16Verifier.sol\":4309:4310  0 */\n  0x00\n    /* \"src/RiscZeroGroth16Verifier.sol\":4298:4311  ic_digests[0] */\n  dup2\n  mload\n  dup2\n  lt\n  tag_40\n  jumpi\n  tag_41\n  tag_42\n  jump\t// in\ntag_41:\ntag_40:\n  0x20\n  mul\n  0x20\n  add\n  add\n    /* \"src/RiscZeroGroth16Verifier.sol\":4298:4350  ic_digests[0] = sha256(abi.encodePacked(IC0x, IC0y)) */\n  dup2\n  dup2\n  mstore\n  pop\n  pop\n    /* \"src/RiscZeroGroth16Verifier.sol\":4376:4412  sha256(abi.encodePacked(IC1x, IC1y)) */\n  0x02\n    /* \"src/Groth16Verifier.sol\":2905:2981  3179835575189816632597428042194253779818690147323192973511715175294048485951 */\n  0x0707b920bc978c02f292fae2036e057be54294114ccc3c8769d883f688a1423f\n    /* \"src/Groth16Verifier.sol\":3011:3088  20895841676865356752879376687052266198216014795822152491318012491767775979074 */\n  0x2e32a094b7589554f7bc357bf63481acd2d55555c203383782a4650787ff6642\n    /* \"src/RiscZeroGroth16Verifier.sol\":4383:4411  abi.encodePacked(IC1x, IC1y) */\n  add(0x20, mload(0x40))\n  tag_43\n  swap3\n  swap2\n  swap1\n  tag_35\n  jump\t// in\ntag_43:\n  mload(0x40)\n  0x20\n  dup2\n  dup4\n  sub\n  sub\n  dup2\n  mstore\n  swap1\n  0x40\n  mstore\n    /* \"src/RiscZeroGroth16Verifier.sol\":4376:4412  sha256(abi.encodePacked(IC1x, IC1y)) */\n  mload(0x40)\n  tag_44\n  swap2\n  swap1\n  tag_21\n  jump\t// in\ntag_44:\n  0x20\n  mload(0x40)\n  dup1\n  dup4\n  sub\n  dup2\n  dup6\n  gas\n  staticcall\n  iszero\n  dup1\n  iszero\n  tag_46\n  jumpi\n  returndatasize\n  0x00\n  dup1\n  returndatacopy\n  revert(0x00, returndatasize)\ntag_46:\n  pop\n  pop\n  pop\n  mload(0x40)\n  returndatasize\n  not(0x1f)\n  0x1f\n  dup3\n  add\n  and\n  dup3\n  add\n  dup1\n  0x40\n  mstore\n  pop\n  dup2\n  add\n  swap1\n  tag_47\n  swap2\n  swap1\n  tag_13\n  jump\t// in\ntag_47:\n    /* \"src/RiscZeroGroth16Verifier.sol\":4360:4370  ic_digests */\n  dup2\n    /* \"src/RiscZeroGroth16Verifier.sol\":4371:4372  1 */\n  0x01\n    /* \"src/RiscZeroGroth16Verifier.sol\":4360:4373  ic_digests[1] */\n  dup2\n  mload\n  dup2\n  lt\n  tag_48\n  jumpi\n  tag_49\n  tag_42\n  jump\t// in\ntag_49:\ntag_48:\n  0x20\n  mul\n  0x20\n  add\n  add\n    /* \"src/RiscZeroGroth16Verifier.sol\":4360:4412  ic_digests[1] = sha256(abi.encodePacked(IC1x, IC1y)) */\n  dup2\n  dup2\n  mstore\n  pop\n  pop\n    /* \"src/RiscZeroGroth16Verifier.sol\":4438:4474  sha256(abi.encodePacked(IC2x, IC2y)) */\n  0x02\n    /* \"src/Groth16Verifier.sol\":3119:3195  5332723250224941161709478398807683311971555792614491788690328996478511465287 */\n  0x0bca36e2cbe6394b3e249751853f961511011c7148e336f4fd974644850fc347\n    /* \"src/Groth16Verifier.sol\":3225:3302  21199491073419440416471372042641226693637837098357067793586556692319371762571 */\n  0x2ede7c9acf48cf3a3729fa3d68714e2a8435d4fa6db8f7f409c153b1fcdf9b8b\n    /* \"src/RiscZeroGroth16Verifier.sol\":4445:4473  abi.encodePacked(IC2x, IC2y) */\n  add(0x20, mload(0x40))\n  tag_50\n  swap3\n  swap2\n  swap1\n  tag_35\n  jump\t// in\ntag_50:\n  mload(0x40)\n  0x20\n  dup2\n  dup4\n  sub\n  sub\n  dup2\n  mstore\n  swap1\n  0x40\n  mstore\n    /* \"src/RiscZeroGroth16Verifier.sol\":4438:4474  sha256(abi.encodePacked(IC2x, IC2y)) */\n  mload(0x40)\n  tag_51\n  swap2\n  swap1\n  tag_21\n  jump\t// in\ntag_51:\n  0x20\n  mload(0x40)\n  dup1\n  dup4\n  sub\n  dup2\n  dup6\n  gas\n  staticcall\n  iszero\n  dup1\n  iszero\n  tag_53\n  jumpi\n  returndatasize\n  0x00\n  dup1\n  returndatacopy\n  revert(0x00, returndatasize)\ntag_53:\n  pop\n  pop\n  pop\n  mload(0x40)\n  returndatasize\n  not(0x1f)\n  0x1f\n  dup3\n  add\n  and\n  dup3\n  add\n  dup1\n  0x40\n  mstore\n  pop\n  dup2\n  add\n  swap1\n  tag_54\n  swap2\n  swap1\n  tag_13\n  jump\t// in\ntag_54:\n    /* \"src/RiscZeroGroth16Verifier.sol\":4422:4432  ic_digests */\n  dup2\n    /* \"src/RiscZeroGroth16Verifier.sol\":4433:4434  2 */\n  0x02\n    /* \"src/RiscZeroGroth16Verifier.sol\":4422:4435  ic_digests[2] */\n  dup2\n  mload\n  dup2\n  lt\n  tag_55\n  jumpi\n  tag_56\n  tag_42\n  jump\t// in\ntag_56:\ntag_55:\n  0x20\n  mul\n  0x20\n  add\n  add\n    /* \"src/RiscZeroGroth16Verifier.sol\":4422:4474  ic_digests[2] = sha256(abi.encodePacked(IC2x, IC2y)) */\n  dup2\n  dup2\n  mstore\n  pop\n  pop\n    /* \"src/RiscZeroGroth16Verifier.sol\":4500:4536  sha256(abi.encodePacked(IC3x, IC3y)) */\n  0x02\n    /* \"src/Groth16Verifier.sol\":3333:3410  12457994489566736295787256452575216703923664299075106359829199968023158780583 */\n  0x1b8af999dbfbb3927c091cc2aaf201e488cbacc3e2c6b6fb5a25f9112e04f2a7\n    /* \"src/Groth16Verifier.sol\":3440:3517  19706766271952591897761291684837117091856807401404423804318744964752784280790 */\n  0x2b91a26aa92e1b6f5722949f192a81c850d586d81a60157f3e9cf04f679cccd6\n    /* \"src/RiscZeroGroth16Verifier.sol\":4507:4535  abi.encodePacked(IC3x, IC3y) */\n  add(0x20, mload(0x40))\n  tag_57\n  swap3\n  swap2\n  swap1\n  tag_35\n  jump\t// in\ntag_57:\n  mload(0x40)\n  0x20\n  dup2\n  dup4\n  sub\n  sub\n  dup2\n  mstore\n  swap1\n  0x40\n  mstore\n    /* \"src/RiscZeroGroth16Verifier.sol\":4500:4536  sha256(abi.encodePacked(IC3x, IC3y)) */\n  mload(0x40)\n  tag_58\n  swap2\n  swap1\n  tag_21\n  jump\t// in\ntag_58:\n  0x20\n  mload(0x40)\n  dup1\n  dup4\n  sub\n  dup2\n  dup6\n  gas\n  staticcall\n  iszero\n  dup1\n  iszero\n  tag_60\n  jumpi\n  returndatasize\n  0x00\n  dup1\n  returndatacopy\n  revert(0x00, returndatasize)\ntag_60:\n  pop\n  pop\n  pop\n  mload(0x40)\n  returndatasize\n  not(0x1f)\n  0x1f\n  dup3\n  add\n  and\n  dup3\n  add\n  dup1\n  0x40\n  mstore\n  pop\n  dup2\n  add\n  swap1\n  tag_61\n  swap2\n  swap1\n  tag_13\n  jump\t// in\ntag_61:\n    /* \"src/RiscZeroGroth16Verifier.sol\":4484:4494  ic_digests */\n  dup2\n    /* \"src/RiscZeroGroth16Verifier.sol\":4495:4496  3 */\n  0x03\n    /* \"src/RiscZeroGroth16Verifier.sol\":4484:4497  ic_digests[3] */\n  dup2\n  mload\n  dup2\n  lt\n  tag_62\n  jumpi\n  tag_63\n  tag_42\n  jump\t// in\ntag_63:\ntag_62:\n  0x20\n  mul\n  0x20\n  add\n  add\n    /* \"src/RiscZeroGroth16Verifier.sol\":4484:4536  ic_digests[3] = sha256(abi.encodePacked(IC3x, IC3y)) */\n  dup2\n  dup2\n  mstore\n  pop\n  pop\n    /* \"src/RiscZeroGroth16Verifier.sol\":4562:4598  sha256(abi.encodePacked(IC4x, IC4y)) */\n  0x02\n    /* \"src/Groth16Verifier.sol\":3548:3625  19617808913178163826953378459323299110911217259216006187355745713323154132237 */\n  0x2b5f494ed674235b8ac1750bdfd5a7615f002d4a1dcefeddd06eda5a076ccd0d\n    /* \"src/Groth16Verifier.sol\":3655:3732  21663537384585072695701846972542344484111393047775983928357046779215877070466 */\n  0x2fe520ad2020aab9cbba817fcbb9a863b8a76ff88f14f912c5e71665b2ad5e82\n    /* \"src/RiscZeroGroth16Verifier.sol\":4569:4597  abi.encodePacked(IC4x, IC4y) */\n  add(0x20, mload(0x40))\n  tag_64\n  swap3\n  swap2\n  swap1\n  tag_35\n  jump\t// in\ntag_64:\n  mload(0x40)\n  0x20\n  dup2\n  dup4\n  sub\n  sub\n  dup2\n  mstore\n  swap1\n  0x40\n  mstore\n    /* \"src/RiscZeroGroth16Verifier.sol\":4562:4598  sha256(abi.encodePacked(IC4x, IC4y)) */\n  mload(0x40)\n  tag_65\n  swap2\n  swap1\n  tag_21\n  jump\t// in\ntag_65:\n  0x20\n  mload(0x40)\n  dup1\n  dup4\n  sub\n  dup2\n  dup6\n  gas\n  staticcall\n  iszero\n  dup1\n  iszero\n  tag_67\n  jumpi\n  returndatasize\n  0x00\n  dup1\n  returndatacopy\n  revert(0x00, returndatasize)\ntag_67:\n  pop\n  pop\n  pop\n  mload(0x40)\n  returndatasize\n  not(0x1f)\n  0x1f\n  dup3\n  add\n  and\n  dup3\n  add\n  dup1\n  0x40\n  mstore\n  pop\n  dup2\n  add\n  swap1\n  tag_68\n  swap2\n  swap1\n  tag_13\n  jump\t// in\ntag_68:\n    /* \"src/RiscZeroGroth16Verifier.sol\":4546:4556  ic_digests */\n  dup2\n    /* \"src/RiscZeroGroth16Verifier.sol\":4557:4558  4 */\n  0x04\n    /* \"src/RiscZeroGroth16Verifier.sol\":4546:4559  ic_digests[4] */\n  dup2\n  mload\n  dup2\n  lt\n  tag_69\n  jumpi\n  tag_70\n  tag_42\n  jump\t// in\ntag_70:\ntag_69:\n  0x20\n  mul\n  0x20\n  add\n  add\n    /* \"src/RiscZeroGroth16Verifier.sol\":4546:4598  ic_digests[4] = sha256(abi.encodePacked(IC4x, IC4y)) */\n  dup2\n  dup2\n  mstore\n  pop\n  pop\n    /* \"src/RiscZeroGroth16Verifier.sol\":4624:4660  sha256(abi.encodePacked(IC5x, IC5y)) */\n  0x02\n    /* \"src/Groth16Verifier.sol\":3763:3839  6834578911681792552110317589222010969491336870276623105249474534788043166867 */\n  0x0f1c3c0d5d9da0fa03666843cde4e82e869ba5252fce3c25d5940320b1c4d493\n    /* \"src/Groth16Verifier.sol\":3869:3946  15060583660288623605191393599883223885678013570733629274538391874953353488393 */\n  0x214bfcff74f425f6fe8c0d07b307482d8bc8bb2f3608f68287aa01bd0b69e809\n    /* \"src/RiscZeroGroth16Verifier.sol\":4631:4659  abi.encodePacked(IC5x, IC5y) */\n  add(0x20, mload(0x40))\n  tag_71\n  swap3\n  swap2\n  swap1\n  tag_35\n  jump\t// in\ntag_71:\n  mload(0x40)\n  0x20\n  dup2\n  dup4\n  sub\n  sub\n  dup2\n  mstore\n  swap1\n  0x40\n  mstore\n    /* \"src/RiscZeroGroth16Verifier.sol\":4624:4660  sha256(abi.encodePacked(IC5x, IC5y)) */\n  mload(0x40)\n  tag_72\n  swap2\n  swap1\n  tag_21\n  jump\t// in\ntag_72:\n  0x20\n  mload(0x40)\n  dup1\n  dup4\n  sub\n  dup2\n  dup6\n  gas\n  staticcall\n  iszero\n  dup1\n  iszero\n  tag_74\n  jumpi\n  returndatasize\n  0x00\n  dup1\n  returndatacopy\n  revert(0x00, returndatasize)\ntag_74:\n  pop\n  pop\n  pop\n  mload(0x40)\n  returndatasize\n  not(0x1f)\n  0x1f\n  dup3\n  add\n  and\n  dup3\n  add\n  dup1\n  0x40\n  mstore\n  pop\n  dup2\n  add\n  swap1\n  tag_75\n  swap2\n  swap1\n  tag_13\n  jump\t// in\ntag_75:\n    /* \"src/RiscZeroGroth16Verifier.sol\":4608:4618  ic_digests */\n  dup2\n    /* \"src/RiscZeroGroth16Verifier.sol\":4619:4620  5 */\n  0x05\n    /* \"src/RiscZeroGroth16Verifier.sol\":4608:4621  ic_digests[5] */\n  dup2\n  mload\n  dup2\n  lt\n  tag_76\n  jumpi\n  tag_77\n  tag_42\n  jump\t// in\ntag_77:\ntag_76:\n  0x20\n  mul\n  0x20\n  add\n  add\n    /* \"src/RiscZeroGroth16Verifier.sol\":4608:4660  ic_digests[5] = sha256(abi.encodePacked(IC5x, IC5y)) */\n  dup2\n  dup2\n  mstore\n  pop\n  pop\n    /* \"src/RiscZeroGroth16Verifier.sol\":4690:5508  sha256(... */\n  0x02\n    /* \"src/RiscZeroGroth16Verifier.sol\":4779:4815  sha256(\"risc0_groth16.VerifyingKey\") */\n  dup1\n  mload(0x40)\n  tag_78\n  swap1\n  tag_79\n  jump\t// in\ntag_78:\n  0x20\n  mload(0x40)\n  dup1\n  dup4\n  sub\n  dup2\n  dup6\n  gas\n  staticcall\n  iszero\n  dup1\n  iszero\n  tag_81\n  jumpi\n  returndatasize\n  0x00\n  dup1\n  returndatacopy\n  revert(0x00, returndatasize)\ntag_81:\n  pop\n  pop\n  pop\n  mload(0x40)\n  returndatasize\n  not(0x1f)\n  0x1f\n  dup3\n  add\n  and\n  dup3\n  add\n  dup1\n  0x40\n  mstore\n  pop\n  dup2\n  add\n  swap1\n  tag_82\n  swap2\n  swap1\n  tag_13\n  jump\t// in\ntag_82:\n    /* \"src/RiscZeroGroth16Verifier.sol\":4865:4905  sha256(abi.encodePacked(alphax, alphay)) */\n  0x02\n    /* \"src/Groth16Verifier.sol\":1166:1243  20491192805390485299153009773594534940189261866228447918068658471970481763042 */\n  0x2d4d9aa7e302d9df41749d5507949d05dbea33fbb16c643b22f599a2be6df2e2\n    /* \"src/Groth16Verifier.sol\":1275:1351  9383485363053290200918347156157836566562967994039712273449902621266178545958 */\n  0x14bedd503c37ceb061d8ec60209fe345ce89830a19230301f076caff004d1926\n    /* \"src/RiscZeroGroth16Verifier.sol\":4872:4904  abi.encodePacked(alphax, alphay) */\n  add(0x20, mload(0x40))\n  tag_83\n  swap3\n  swap2\n  swap1\n  tag_35\n  jump\t// in\ntag_83:\n  mload(0x40)\n  0x20\n  dup2\n  dup4\n  sub\n  sub\n  dup2\n  mstore\n  swap1\n  0x40\n  mstore\n    /* \"src/RiscZeroGroth16Verifier.sol\":4865:4905  sha256(abi.encodePacked(alphax, alphay)) */\n  mload(0x40)\n  tag_84\n  swap2\n  swap1\n  tag_21\n  jump\t// in\ntag_84:\n  0x20\n  mload(0x40)\n  dup1\n  dup4\n  sub\n  dup2\n  dup6\n  gas\n  staticcall\n  iszero\n  dup1\n  iszero\n  tag_86\n  jumpi\n  returndatasize\n  0x00\n  dup1\n  returndatacopy\n  revert(0x00, returndatasize)\ntag_86:\n  pop\n  pop\n  pop\n  mload(0x40)\n  returndatasize\n  not(0x1f)\n  0x1f\n  dup3\n  add\n  and\n  dup3\n  add\n  dup1\n  0x40\n  mstore\n  pop\n  dup2\n  add\n  swap1\n  tag_87\n  swap2\n  swap1\n  tag_13\n  jump\t// in\ntag_87:\n    /* \"src/RiscZeroGroth16Verifier.sol\":4927:4983  sha256(abi.encodePacked(betax1, betax2, betay1, betay2)) */\n  0x02\n    /* \"src/Groth16Verifier.sol\":1383:1459  4252822878758300859123897981450591353533073413197771768651442665752259397132 */\n  0x0967032fcbf776d1afc985f88877f182d38480a653f2decaa9794cbc3bf3060c\n    /* \"src/Groth16Verifier.sol\":1491:1567  6375614351688725206403948262868962793625744043794305715222011528459656738731 */\n  0x0e187847ad4c798374d0d6732bf501847dd68bc0e071241e0213bc7fc13db7ab\n    /* \"src/Groth16Verifier.sol\":1599:1676  21847035105528745403288232691147584728191162732299865338377159692350059136679 */\n  0x304cfbd1e08a704a99f5e847d93f8c3caafddec46b7a0d379da69a4d112346a7\n    /* \"src/Groth16Verifier.sol\":1708:1785  10505242626370262277552901082094356697409835680220590971873171140371331206856 */\n  0x1739c1b1a457a8c7313123d24d2f9192f896b7c63eea05a9d57f06547ad0cec8\n    /* \"src/RiscZeroGroth16Verifier.sol\":4934:4982  abi.encodePacked(betax1, betax2, betay1, betay2) */\n  add(0x20, mload(0x40))\n  tag_88\n  swap5\n  swap4\n  swap3\n  swap2\n  swap1\n  tag_89\n  jump\t// in\ntag_88:\n  mload(0x40)\n  0x20\n  dup2\n  dup4\n  sub\n  sub\n  dup2\n  mstore\n  swap1\n  0x40\n  mstore\n    /* \"src/RiscZeroGroth16Verifier.sol\":4927:4983  sha256(abi.encodePacked(betax1, betax2, betay1, betay2)) */\n  mload(0x40)\n  tag_90\n  swap2\n  swap1\n  tag_21\n  jump\t// in\ntag_90:\n  0x20\n  mload(0x40)\n  dup1\n  dup4\n  sub\n  dup2\n  dup6\n  gas\n  staticcall\n  iszero\n  dup1\n  iszero\n  tag_92\n  jumpi\n  returndatasize\n  0x00\n  dup1\n  returndatacopy\n  revert(0x00, returndatasize)\ntag_92:\n  pop\n  pop\n  pop\n  mload(0x40)\n  returndatasize\n  not(0x1f)\n  0x1f\n  dup3\n  add\n  and\n  dup3\n  add\n  dup1\n  0x40\n  mstore\n  pop\n  dup2\n  add\n  swap1\n  tag_93\n  swap2\n  swap1\n  tag_13\n  jump\t// in\ntag_93:\n    /* \"src/RiscZeroGroth16Verifier.sol\":5005:5111  sha256(... */\n  0x02\n    /* \"src/Groth16Verifier.sol\":1818:1895  11559732032986387107991004021392285783925812861821192530917403151452391805634 */\n  0x198e9393920d483a7260bfb731fb5d25f1aa493335a9e71297e485b7aef312c2\n    /* \"src/Groth16Verifier.sol\":1928:2005  10857046999023057135944570762232829481370756359578518086990519993285655852781 */\n  0x1800deef121f1e76426a00665e5c4479674322d4f75edadd46debd5cd992f6ed\n    /* \"src/Groth16Verifier.sol\":2038:2114  4082367875863433681332203403145435568316851327593401208105741076214120093531 */\n  0x090689d0585ff075ec9e99ad690c3395bc4b313370b38ef355acdadcd122975b\n    /* \"src/Groth16Verifier.sol\":2147:2223  8495653923123431417604973247489272438418190587263600148770280649306958101930 */\n  0x12c85ea5db8c6deb4aab71808dcb408fe3d1e7690c43d37b4ce6cc0166fa7daa\n    /* \"src/RiscZeroGroth16Verifier.sol\":5037:5089  abi.encodePacked(gammax1, gammax2, gammay1, gammay2) */\n  add(0x20, mload(0x40))\n  tag_94\n  swap5\n  swap4\n  swap3\n  swap2\n  swap1\n  tag_89\n  jump\t// in\ntag_94:\n  mload(0x40)\n  0x20\n  dup2\n  dup4\n  sub\n  sub\n  dup2\n  mstore\n  swap1\n  0x40\n  mstore\n    /* \"src/RiscZeroGroth16Verifier.sol\":5005:5111  sha256(... */\n  mload(0x40)\n  tag_95\n  swap2\n  swap1\n  tag_21\n  jump\t// in\ntag_95:\n  0x20\n  mload(0x40)\n  dup1\n  dup4\n  sub\n  dup2\n  dup6\n  gas\n  staticcall\n  iszero\n  dup1\n  iszero\n  tag_97\n  jumpi\n  returndatasize\n  0x00\n  dup1\n  returndatacopy\n  revert(0x00, returndatasize)\ntag_97:\n  pop\n  pop\n  pop\n  mload(0x40)\n  returndatasize\n  not(0x1f)\n  0x1f\n  dup3\n  add\n  and\n  dup3\n  add\n  dup1\n  0x40\n  mstore\n  pop\n  dup2\n  add\n  swap1\n  tag_98\n  swap2\n  swap1\n  tag_13\n  jump\t// in\ntag_98:\n    /* \"src/RiscZeroGroth16Verifier.sol\":5133:5239  sha256(... */\n  0x02\n    /* \"src/Groth16Verifier.sol\":2256:2332  1668323501672964604911431804142266013250380587483576094566949227275849579036 */\n  0x03b03cd5effa95ac9bee94f1f5ef907157bda4812ccf0b4c91f42bb629f83a1c\n    /* \"src/Groth16Verifier.sol\":2365:2442  12043754404802191763554326994664886008979042643626290185762540825416902247219 */\n  0x1aa085ff28179a12d922dba0547057ccaae94b9d69cfaa4e60401fea7f3e0333\n    /* \"src/Groth16Verifier.sol\":2475:2551  7710631539206257456743780535472368339139328733484942210876916214502466455394 */\n  0x110c10134f200b19f6490846d518c9aea868366efb7228ca5c91d2940d030762\n    /* \"src/Groth16Verifier.sol\":2584:2661  13740680757317479711909903993315946540841369848973133181051452051592786724563 */\n  0x1e60f31fcbf757e837e867178318832d0b2d74d59e2fea1c7142df187d3fc6d3\n    /* \"src/RiscZeroGroth16Verifier.sol\":5165:5217  abi.encodePacked(deltax1, deltax2, deltay1, deltay2) */\n  add(0x20, mload(0x40))\n  tag_99\n  swap5\n  swap4\n  swap3\n  swap2\n  swap1\n  tag_89\n  jump\t// in\ntag_99:\n  mload(0x40)\n  0x20\n  dup2\n  dup4\n  sub\n  sub\n  dup2\n  mstore\n  swap1\n  0x40\n  mstore\n    /* \"src/RiscZeroGroth16Verifier.sol\":5133:5239  sha256(... */\n  mload(0x40)\n  tag_100\n  swap2\n  swap1\n  tag_21\n  jump\t// in\ntag_100:\n  0x20\n  mload(0x40)\n  dup1\n  dup4\n  sub\n  dup2\n  dup6\n  gas\n  staticcall\n  iszero\n  dup1\n  iszero\n  tag_102\n  jumpi\n  returndatasize\n  0x00\n  dup1\n  returndatacopy\n  revert(0x00, returndatasize)\ntag_102:\n  pop\n  pop\n  pop\n  mload(0x40)\n  returndatasize\n  not(0x1f)\n  0x1f\n  dup3\n  add\n  and\n  dup3\n  add\n  dup1\n  0x40\n  mstore\n  pop\n  dup2\n  add\n  swap1\n  tag_103\n  swap2\n  swap1\n  tag_13\n  jump\t// in\ntag_103:\n    /* \"src/RiscZeroGroth16Verifier.sol\":5261:5405  StructHash.taggedList(... */\n  tag_104\n    /* \"src/RiscZeroGroth16Verifier.sol\":5308:5347  sha256(\"risc0_groth16.VerifyingKey.IC\") */\n  0x02\n  mload(0x40)\n  tag_105\n  swap1\n  tag_106\n  jump\t// in\ntag_105:\n  0x20\n  mload(0x40)\n  dup1\n  dup4\n  sub\n  dup2\n  dup6\n  gas\n  staticcall\n  iszero\n  dup1\n  iszero\n  tag_108\n  jumpi\n  returndatasize\n  0x00\n  dup1\n  returndatacopy\n  revert(0x00, returndatasize)\ntag_108:\n  pop\n  pop\n  pop\n  mload(0x40)\n  returndatasize\n  not(0x1f)\n  0x1f\n  dup3\n  add\n  and\n  dup3\n  add\n  dup1\n  0x40\n  mstore\n  pop\n  dup2\n  add\n  swap1\n  tag_109\n  swap2\n  swap1\n  tag_13\n  jump\t// in\ntag_109:\n    /* \"src/RiscZeroGroth16Verifier.sol\":5373:5383  ic_digests */\n  dup9\n    /* \"src/RiscZeroGroth16Verifier.sol\":5261:5282  StructHash.taggedList */\n  shl(0x20, tag_110)\n    /* \"src/RiscZeroGroth16Verifier.sol\":5261:5405  StructHash.taggedList(... */\n  0x20\n  shr\n  jump\t// in\ntag_104:\n    /* \"src/RiscZeroGroth16Verifier.sol\":5475:5476  8 */\n  0x08\n    /* \"src/RiscZeroGroth16Verifier.sol\":5469:5470  5 */\n  0x05\n    /* \"src/RiscZeroGroth16Verifier.sol\":5462:5476  uint16(5) << 8 */\n  0xffff\n  and\n  swap1\n  shl\n    /* \"src/RiscZeroGroth16Verifier.sol\":4714:5494  abi.encodePacked(... */\n  add(0x20, mload(0x40))\n  tag_111\n  swap8\n  swap7\n  swap6\n  swap5\n  swap4\n  swap3\n  swap2\n  swap1\n  tag_112\n  jump\t// in\ntag_111:\n  mload(0x40)\n  0x20\n  dup2\n  dup4\n  sub\n  sub\n  dup2\n  mstore\n  swap1\n  0x40\n  mstore\n    /* \"src/RiscZeroGroth16Verifier.sol\":4690:5508  sha256(... */\n  mload(0x40)\n  tag_113\n  swap2\n  swap1\n  tag_21\n  jump\t// in\ntag_113:\n  0x20\n  mload(0x40)\n  dup1\n  dup4\n  sub\n  dup2\n  dup6\n  gas\n  staticcall\n  iszero\n  dup1\n  iszero\n  tag_115\n  jumpi\n  returndatasize\n  0x00\n  dup1\n  returndatacopy\n  revert(0x00, returndatasize)\ntag_115:\n  pop\n  pop\n  pop\n  mload(0x40)\n  returndatasize\n  not(0x1f)\n  0x1f\n  dup3\n  add\n  and\n  dup3\n  add\n  dup1\n  0x40\n  mstore\n  pop\n  dup2\n  add\n  swap1\n  tag_116\n  swap2\n  swap1\n  tag_13\n  jump\t// in\ntag_116:\n    /* \"src/RiscZeroGroth16Verifier.sol\":4671:5508  return... */\n  swap2\n  pop\n  pop\n    /* \"src/RiscZeroGroth16Verifier.sol\":4169:5515  function verifier_key_digest() internal pure returns (bytes32) {... */\n  swap1\n  jump\t// out\n    /* \"src/utils/StructHash.sol\":2835:3242  function taggedList(... */\ntag_110:\n    /* \"src/utils/StructHash.sol\":2942:2949  bytes32 */\n  0x00\n    /* \"src/utils/StructHash.sol\":2961:2973  bytes32 curr */\n  dup1\n    /* \"src/utils/StructHash.sol\":2997:3063  0x0000000000000000000000000000000000000000000000000000000000000000 */\n  0x00\n    /* \"src/utils/StructHash.sol\":2976:3073  bytes32(... */\n  dup1\n  shl\n    /* \"src/utils/StructHash.sol\":2961:3073  bytes32 curr = bytes32(... */\n  swap1\n  pop\n    /* \"src/utils/StructHash.sol\":3088:3097  uint256 i */\n  0x00\n    /* \"src/utils/StructHash.sol\":3083:3215  for (uint256 i = 0; i < list.length; i++) {... */\ntag_118:\n    /* \"src/utils/StructHash.sol\":3107:3111  list */\n  dup4\n    /* \"src/utils/StructHash.sol\":3107:3118  list.length */\n  mload\n    /* \"src/utils/StructHash.sol\":3103:3104  i */\n  dup2\n    /* \"src/utils/StructHash.sol\":3103:3118  i < list.length */\n  lt\n    /* \"src/utils/StructHash.sol\":3083:3215  for (uint256 i = 0; i < list.length; i++) {... */\n  iszero\n  tag_119\n  jumpi\n    /* \"src/utils/StructHash.sol\":3146:3204  taggedListCons(tagDigest, list[list.length - 1 - i], curr) */\n  tag_121\n    /* \"src/utils/StructHash.sol\":3161:3170  tagDigest */\n  dup6\n    /* \"src/utils/StructHash.sol\":3172:3176  list */\n  dup6\n    /* \"src/utils/StructHash.sol\":3195:3196  i */\n  dup4\n    /* \"src/utils/StructHash.sol\":3191:3192  1 */\n  0x01\n    /* \"src/utils/StructHash.sol\":3177:3181  list */\n  dup9\n    /* \"src/utils/StructHash.sol\":3177:3188  list.length */\n  mload\n    /* \"src/utils/StructHash.sol\":3177:3192  list.length - 1 */\n  tag_122\n  swap2\n  swap1\n  tag_123\n  jump\t// in\ntag_122:\n    /* \"src/utils/StructHash.sol\":3177:3196  list.length - 1 - i */\n  tag_124\n  swap2\n  swap1\n  tag_123\n  jump\t// in\ntag_124:\n    /* \"src/utils/StructHash.sol\":3172:3197  list[list.length - 1 - i] */\n  dup2\n  mload\n  dup2\n  lt\n  tag_125\n  jumpi\n  tag_126\n  tag_42\n  jump\t// in\ntag_126:\ntag_125:\n  0x20\n  mul\n  0x20\n  add\n  add\n  mload\n    /* \"src/utils/StructHash.sol\":3199:3203  curr */\n  dup5\n    /* \"src/utils/StructHash.sol\":3146:3160  taggedListCons */\n  shl(0x20, tag_127)\n    /* \"src/utils/StructHash.sol\":3146:3204  taggedListCons(tagDigest, list[list.length - 1 - i], curr) */\n  0x20\n  shr\n  jump\t// in\ntag_121:\n    /* \"src/utils/StructHash.sol\":3139:3204  curr = taggedListCons(tagDigest, list[list.length - 1 - i], curr) */\n  swap2\n  pop\n    /* \"src/utils/StructHash.sol\":3120:3123  i++ */\n  dup1\n  dup1\n  tag_128\n  swap1\n  tag_129\n  jump\t// in\ntag_128:\n  swap2\n  pop\n  pop\n    /* \"src/utils/StructHash.sol\":3083:3215  for (uint256 i = 0; i < list.length; i++) {... */\n  jump(tag_118)\ntag_119:\n  pop\n    /* \"src/utils/StructHash.sol\":3231:3235  curr */\n  dup1\n    /* \"src/utils/StructHash.sol\":3224:3235  return curr */\n  swap2\n  pop\n  pop\n    /* \"src/utils/StructHash.sol\":2835:3242  function taggedList(... */\n  swap3\n  swap2\n  pop\n  pop\n  jump\t// out\n    /* \"src/utils/StructHash.sol\":2449:2733  function taggedListCons(... */\ntag_127:\n    /* \"src/utils/StructHash.sol\":2573:2580  bytes32 */\n  0x00\n    /* \"src/utils/StructHash.sol\":2592:2613  bytes32[] memory down */\n  dup1\n    /* \"src/utils/StructHash.sol\":2630:2631  2 */\n  0x02\n    /* \"src/utils/StructHash.sol\":2616:2632  new bytes32[](2) */\n  0xffffffffffffffff\n  dup2\n  gt\n  iszero\n  tag_131\n  jumpi\n  tag_132\n  tag_32\n  jump\t// in\ntag_132:\ntag_131:\n  mload(0x40)\n  swap1\n  dup1\n  dup3\n  mstore\n  dup1\n  0x20\n  mul\n  0x20\n  add\n  dup3\n  add\n  0x40\n  mstore\n  dup1\n  iszero\n  tag_133\n  jumpi\n  dup2\n  0x20\n  add\n  0x20\n  dup3\n  mul\n  dup1\n  calldatasize\n  dup4\n  calldatacopy\n  dup1\n  dup3\n  add\n  swap2\n  pop\n  pop\n  swap1\n  pop\ntag_133:\n  pop\n    /* \"src/utils/StructHash.sol\":2592:2632  bytes32[] memory down = new bytes32[](2) */\n  swap1\n  pop\n    /* \"src/utils/StructHash.sol\":2652:2656  head */\n  dup4\n    /* \"src/utils/StructHash.sol\":2642:2646  down */\n  dup2\n    /* \"src/utils/StructHash.sol\":2647:2648  0 */\n  0x00\n    /* \"src/utils/StructHash.sol\":2642:2649  down[0] */\n  dup2\n  mload\n  dup2\n  lt\n  tag_134\n  jumpi\n  tag_135\n  tag_42\n  jump\t// in\ntag_135:\ntag_134:\n  0x20\n  mul\n  0x20\n  add\n  add\n    /* \"src/utils/StructHash.sol\":2642:2656  down[0] = head */\n  dup2\n  dup2\n  mstore\n  pop\n  pop\n    /* \"src/utils/StructHash.sol\":2676:2680  tail */\n  dup3\n    /* \"src/utils/StructHash.sol\":2666:2670  down */\n  dup2\n    /* \"src/utils/StructHash.sol\":2671:2672  1 */\n  0x01\n    /* \"src/utils/StructHash.sol\":2666:2673  down[1] */\n  dup2\n  mload\n  dup2\n  lt\n  tag_136\n  jumpi\n  tag_137\n  tag_42\n  jump\t// in\ntag_137:\ntag_136:\n  0x20\n  mul\n  0x20\n  add\n  add\n    /* \"src/utils/StructHash.sol\":2666:2680  down[1] = tail */\n  dup2\n  dup2\n  mstore\n  pop\n  pop\n    /* \"src/utils/StructHash.sol\":2697:2726  taggedStruct(tagDigest, down) */\n  tag_138\n    /* \"src/utils/StructHash.sol\":2710:2719  tagDigest */\n  dup6\n    /* \"src/utils/StructHash.sol\":2721:2725  down */\n  dup3\n    /* \"src/utils/StructHash.sol\":2697:2709  taggedStruct */\n  shl(0x20, tag_139)\n    /* \"src/utils/StructHash.sol\":2697:2726  taggedStruct(tagDigest, down) */\n  0x20\n  shr\n  jump\t// in\ntag_138:\n    /* \"src/utils/StructHash.sol\":2690:2726  return taggedStruct(tagDigest, down) */\n  swap2\n  pop\n  pop\n    /* \"src/utils/StructHash.sol\":2449:2733  function taggedListCons(... */\n  swap4\n  swap3\n  pop\n  pop\n  pop\n  jump\t// out\n    /* \"src/utils/StructHash.sol\":1638:1857  function taggedStruct(... */\ntag_139:\n    /* \"src/utils/StructHash.sol\":1747:1754  bytes32 */\n  0x00\n    /* \"src/utils/StructHash.sol\":1766:1783  bytes memory data */\n  dup1\n    /* \"src/utils/StructHash.sol\":1796:1797  0 */\n  0x00\n    /* \"src/utils/StructHash.sol\":1786:1798  new bytes(0) */\n  0xffffffffffffffff\n  dup2\n  gt\n  iszero\n  tag_141\n  jumpi\n  tag_142\n  tag_32\n  jump\t// in\ntag_142:\ntag_141:\n  mload(0x40)\n  swap1\n  dup1\n  dup3\n  mstore\n  dup1\n  0x1f\n  add\n  not(0x1f)\n  and\n  0x20\n  add\n  dup3\n  add\n  0x40\n  mstore\n  dup1\n  iszero\n  tag_143\n  jumpi\n  dup2\n  0x20\n  add\n  0x01\n  dup3\n  mul\n  dup1\n  calldatasize\n  dup4\n  calldatacopy\n  dup1\n  dup3\n  add\n  swap2\n  pop\n  pop\n  swap1\n  pop\ntag_143:\n  pop\n    /* \"src/utils/StructHash.sol\":1766:1798  bytes memory data = new bytes(0) */\n  swap1\n  pop\n    /* \"src/utils/StructHash.sol\":1815:1850  taggedStruct(tagDigest, down, data) */\n  tag_144\n    /* \"src/utils/StructHash.sol\":1828:1837  tagDigest */\n  dup5\n    /* \"src/utils/StructHash.sol\":1839:1843  down */\n  dup5\n    /* \"src/utils/StructHash.sol\":1845:1849  data */\n  dup4\n    /* \"src/utils/StructHash.sol\":1815:1827  taggedStruct */\n  shl(0x20, tag_145)\n    /* \"src/utils/StructHash.sol\":1815:1850  taggedStruct(tagDigest, down, data) */\n  0x20\n  shr\n  jump\t// in\ntag_144:\n    /* \"src/utils/StructHash.sol\":1808:1850  return taggedStruct(tagDigest, down, data) */\n  swap2\n  pop\n  pop\n    /* \"src/utils/StructHash.sol\":1638:1857  function taggedStruct(... */\n  swap3\n  swap2\n  pop\n  pop\n  jump\t// out\n    /* \"src/utils/StructHash.sol\":1961:2364  function taggedStruct(... */\ntag_145:\n    /* \"src/utils/StructHash.sol\":2097:2104  bytes32 */\n  0x00\n    /* \"src/utils/StructHash.sol\":2116:2130  uint16 downLen */\n  dup1\n    /* \"src/utils/StructHash.sol\":2133:2155  down.length.toUint16() */\n  tag_147\n    /* \"src/utils/StructHash.sol\":2133:2137  down */\n  dup5\n    /* \"src/utils/StructHash.sol\":2133:2144  down.length */\n  mload\n    /* \"src/utils/StructHash.sol\":2133:2153  down.length.toUint16 */\n  shl(0x20, tag_148)\n    /* \"src/utils/StructHash.sol\":2133:2155  down.length.toUint16() */\n  0x20\n  shr\n  jump\t// in\ntag_147:\n    /* \"src/utils/StructHash.sol\":2116:2155  uint16 downLen = down.length.toUint16() */\n  swap1\n  pop\n    /* \"src/utils/StructHash.sol\":2224:2240  bytes2 downLenLE */\n  0x00\n    /* \"src/utils/StructHash.sol\":2279:2280  8 */\n  0x08\n    /* \"src/utils/StructHash.sol\":2268:2275  downLen */\n  dup3\n    /* \"src/utils/StructHash.sol\":2268:2280  downLen >> 8 */\n  0xffff\n  and\n  swap1\n  shr\n    /* \"src/utils/StructHash.sol\":2262:2263  8 */\n  0x08\n    /* \"src/utils/StructHash.sol\":2251:2258  downLen */\n  dup4\n    /* \"src/utils/StructHash.sol\":2251:2263  downLen << 8 */\n  0xffff\n  and\n  swap1\n  shl\n    /* \"src/utils/StructHash.sol\":2250:2281  (downLen << 8) | (downLen >> 8) */\n  or\n    /* \"src/utils/StructHash.sol\":2243:2282  bytes2((downLen << 8) | (downLen >> 8)) */\n  0xf0\n  shl\n    /* \"src/utils/StructHash.sol\":2224:2282  bytes2 downLenLE = bytes2((downLen << 8) | (downLen >> 8)) */\n  swap1\n  pop\n    /* \"src/utils/StructHash.sol\":2299:2357  sha256(abi.encodePacked(tagDigest, down, data, downLenLE)) */\n  0x02\n    /* \"src/utils/StructHash.sol\":2323:2332  tagDigest */\n  dup7\n    /* \"src/utils/StructHash.sol\":2334:2338  down */\n  dup7\n    /* \"src/utils/StructHash.sol\":2340:2344  data */\n  dup7\n    /* \"src/utils/StructHash.sol\":2346:2355  downLenLE */\n  dup5\n    /* \"src/utils/StructHash.sol\":2306:2356  abi.encodePacked(tagDigest, down, data, downLenLE) */\n  add(0x20, mload(0x40))\n  tag_149\n  swap5\n  swap4\n  swap3\n  swap2\n  swap1\n  tag_150\n  jump\t// in\ntag_149:\n  mload(0x40)\n  0x20\n  dup2\n  dup4\n  sub\n  sub\n  dup2\n  mstore\n  swap1\n  0x40\n  mstore\n    /* \"src/utils/StructHash.sol\":2299:2357  sha256(abi.encodePacked(tagDigest, down, data, downLenLE)) */\n  mload(0x40)\n  tag_151\n  swap2\n  swap1\n  tag_21\n  jump\t// in\ntag_151:\n  0x20\n  mload(0x40)\n  dup1\n  dup4\n  sub\n  dup2\n  dup6\n  gas\n  staticcall\n  iszero\n  dup1\n  iszero\n  tag_153\n  jumpi\n  returndatasize\n  0x00\n  dup1\n  returndatacopy\n  revert(0x00, returndatasize)\ntag_153:\n  pop\n  pop\n  pop\n  mload(0x40)\n  returndatasize\n  not(0x1f)\n  0x1f\n  dup3\n  add\n  and\n  dup3\n  add\n  dup1\n  0x40\n  mstore\n  pop\n  dup2\n  add\n  swap1\n  tag_154\n  swap2\n  swap1\n  tag_13\n  jump\t// in\ntag_154:\n    /* \"src/utils/StructHash.sol\":2292:2357  return sha256(abi.encodePacked(tagDigest, down, data, downLenLE)) */\n  swap3\n  pop\n  pop\n  pop\n    /* \"src/utils/StructHash.sol\":1961:2364  function taggedStruct(... */\n  swap4\n  swap3\n  pop\n  pop\n  pop\n  jump\t// out\n    /* \"@openzeppelin/contracts/utils/math/SafeCast.sol\":16296:16509  function toUint16(uint256 value) internal pure returns (uint16) {... */\ntag_148:\n    /* \"@openzeppelin/contracts/utils/math/SafeCast.sol\":16352:16358  uint16 */\n  0x00\n    /* \"@openzeppelin/contracts/utils/math/SafeCast.sol\":16382:16398  type(uint16).max */\n  0xffff\n    /* \"@openzeppelin/contracts/utils/math/SafeCast.sol\":16374:16398  value > type(uint16).max */\n  dup1\n  and\n    /* \"@openzeppelin/contracts/utils/math/SafeCast.sol\":16374:16379  value */\n  dup3\n    /* \"@openzeppelin/contracts/utils/math/SafeCast.sol\":16374:16398  value > type(uint16).max */\n  gt\n    /* \"@openzeppelin/contracts/utils/math/SafeCast.sol\":16370:16473  if (value > type(uint16).max) {... */\n  iszero\n  tag_156\n  jumpi\n    /* \"@openzeppelin/contracts/utils/math/SafeCast.sol\":16452:16454  16 */\n  0x10\n    /* \"@openzeppelin/contracts/utils/math/SafeCast.sol\":16456:16461  value */\n  dup3\n    /* \"@openzeppelin/contracts/utils/math/SafeCast.sol\":16421:16462  SafeCastOverflowedUintDowncast(16, value) */\n  mload(0x40)\n  0x6dfcc65000000000000000000000000000000000000000000000000000000000\n  dup2\n  mstore\n  0x04\n  add\n  tag_157\n  swap3\n  swap2\n  swap1\n  tag_158\n  jump\t// in\ntag_157:\n  mload(0x40)\n  dup1\n  swap2\n  sub\n  swap1\n  revert\n    /* \"@openzeppelin/contracts/utils/math/SafeCast.sol\":16370:16473  if (value > type(uint16).max) {... */\ntag_156:\n    /* \"@openzeppelin/contracts/utils/math/SafeCast.sol\":16496:16501  value */\n  dup2\n    /* \"@openzeppelin/contracts/utils/math/SafeCast.sol\":16482:16502  return uint16(value) */\n  swap1\n  pop\n    /* \"@openzeppelin/contracts/utils/math/SafeCast.sol\":16296:16509  function toUint16(uint256 value) internal pure returns (uint16) {... */\n  swap2\n  swap1\n  pop\n  jump\t// out\n    /* \"#utility.yul\":88:205   */\ntag_160:\n    /* \"#utility.yul\":197:198   */\n  0x00\n    /* \"#utility.yul\":194:195   */\n  dup1\n    /* \"#utility.yul\":187:199   */\n  revert\n    /* \"#utility.yul\":334:411   */\ntag_162:\n    /* \"#utility.yul\":371:378   */\n  0x00\n    /* \"#utility.yul\":400:405   */\n  dup2\n    /* \"#utility.yul\":389:405   */\n  swap1\n  pop\n    /* \"#utility.yul\":334:411   */\n  swap2\n  swap1\n  pop\n  jump\t// out\n    /* \"#utility.yul\":417:539   */\ntag_163:\n    /* \"#utility.yul\":490:514   */\n  tag_207\n    /* \"#utility.yul\":508:513   */\n  dup2\n    /* \"#utility.yul\":490:514   */\n  tag_162\n  jump\t// in\ntag_207:\n    /* \"#utility.yul\":483:488   */\n  dup2\n    /* \"#utility.yul\":480:515   */\n  eq\n    /* \"#utility.yul\":470:533   */\n  tag_208\n  jumpi\n    /* \"#utility.yul\":529:530   */\n  0x00\n    /* \"#utility.yul\":526:527   */\n  dup1\n    /* \"#utility.yul\":519:531   */\n  revert\n    /* \"#utility.yul\":470:533   */\ntag_208:\n    /* \"#utility.yul\":417:539   */\n  pop\n  jump\t// out\n    /* \"#utility.yul\":545:688   */\ntag_164:\n    /* \"#utility.yul\":602:607   */\n  0x00\n    /* \"#utility.yul\":633:639   */\n  dup2\n    /* \"#utility.yul\":627:640   */\n  mload\n    /* \"#utility.yul\":618:640   */\n  swap1\n  pop\n    /* \"#utility.yul\":649:682   */\n  tag_210\n    /* \"#utility.yul\":676:681   */\n  dup2\n    /* \"#utility.yul\":649:682   */\n  tag_163\n  jump\t// in\ntag_210:\n    /* \"#utility.yul\":545:688   */\n  swap3\n  swap2\n  pop\n  pop\n  jump\t// out\n    /* \"#utility.yul\":694:1201   */\ntag_3:\n    /* \"#utility.yul\":773:779   */\n  0x00\n    /* \"#utility.yul\":781:787   */\n  dup1\n    /* \"#utility.yul\":830:832   */\n  0x40\n    /* \"#utility.yul\":818:827   */\n  dup4\n    /* \"#utility.yul\":809:816   */\n  dup6\n    /* \"#utility.yul\":805:828   */\n  sub\n    /* \"#utility.yul\":801:833   */\n  slt\n    /* \"#utility.yul\":798:917   */\n  iszero\n  tag_212\n  jumpi\n    /* \"#utility.yul\":836:915   */\n  tag_213\n  tag_160\n  jump\t// in\ntag_213:\n    /* \"#utility.yul\":798:917   */\ntag_212:\n    /* \"#utility.yul\":956:957   */\n  0x00\n    /* \"#utility.yul\":981:1045   */\n  tag_214\n    /* \"#utility.yul\":1037:1044   */\n  dup6\n    /* \"#utility.yul\":1028:1034   */\n  dup3\n    /* \"#utility.yul\":1017:1026   */\n  dup7\n    /* \"#utility.yul\":1013:1035   */\n  add\n    /* \"#utility.yul\":981:1045   */\n  tag_164\n  jump\t// in\ntag_214:\n    /* \"#utility.yul\":971:1045   */\n  swap3\n  pop\n    /* \"#utility.yul\":927:1055   */\n  pop\n    /* \"#utility.yul\":1094:1096   */\n  0x20\n    /* \"#utility.yul\":1120:1184   */\n  tag_215\n    /* \"#utility.yul\":1176:1183   */\n  dup6\n    /* \"#utility.yul\":1167:1173   */\n  dup3\n    /* \"#utility.yul\":1156:1165   */\n  dup7\n    /* \"#utility.yul\":1152:1174   */\n  add\n    /* \"#utility.yul\":1120:1184   */\n  tag_164\n  jump\t// in\ntag_215:\n    /* \"#utility.yul\":1110:1184   */\n  swap2\n  pop\n    /* \"#utility.yul\":1065:1194   */\n  pop\n    /* \"#utility.yul\":694:1201   */\n  swap3\n  pop\n  swap3\n  swap1\n  pop\n  jump\t// out\n    /* \"#utility.yul\":1207:1354   */\ntag_165:\n    /* \"#utility.yul\":1308:1319   */\n  0x00\n    /* \"#utility.yul\":1345:1348   */\n  dup2\n    /* \"#utility.yul\":1330:1348   */\n  swap1\n  pop\n    /* \"#utility.yul\":1207:1354   */\n  swap3\n  swap2\n  pop\n  pop\n  jump\t// out\n    /* \"#utility.yul\":1360:1585   */\ntag_166:\n    /* \"#utility.yul\":1500:1534   */\n  0x72697363302e47726f7468313652656365697074566572696669657250617261\n    /* \"#utility.yul\":1496:1497   */\n  0x00\n    /* \"#utility.yul\":1488:1494   */\n  dup3\n    /* \"#utility.yul\":1484:1498   */\n  add\n    /* \"#utility.yul\":1477:1535   */\n  mstore\n    /* \"#utility.yul\":1569:1577   */\n  0x6d65746572730000000000000000000000000000000000000000000000000000\n    /* \"#utility.yul\":1564:1566   */\n  0x20\n    /* \"#utility.yul\":1556:1562   */\n  dup3\n    /* \"#utility.yul\":1552:1567   */\n  add\n    /* \"#utility.yul\":1545:1578   */\n  mstore\n    /* \"#utility.yul\":1360:1585   */\n  pop\n  jump\t// out\n    /* \"#utility.yul\":1591:1991   */\ntag_167:\n    /* \"#utility.yul\":1750:1753   */\n  0x00\n    /* \"#utility.yul\":1771:1855   */\n  tag_219\n    /* \"#utility.yul\":1852:1854   */\n  0x26\n    /* \"#utility.yul\":1847:1850   */\n  dup4\n    /* \"#utility.yul\":1771:1855   */\n  tag_165\n  jump\t// in\ntag_219:\n    /* \"#utility.yul\":1764:1855   */\n  swap2\n  pop\n    /* \"#utility.yul\":1864:1957   */\n  tag_220\n    /* \"#utility.yul\":1953:1956   */\n  dup3\n    /* \"#utility.yul\":1864:1957   */\n  tag_166\n  jump\t// in\ntag_220:\n    /* \"#utility.yul\":1982:1984   */\n  0x26\n    /* \"#utility.yul\":1977:1980   */\n  dup3\n    /* \"#utility.yul\":1973:1985   */\n  add\n    /* \"#utility.yul\":1966:1985   */\n  swap1\n  pop\n    /* \"#utility.yul\":1591:1991   */\n  swap2\n  swap1\n  pop\n  jump\t// out\n    /* \"#utility.yul\":1997:2376   */\ntag_9:\n    /* \"#utility.yul\":2181:2184   */\n  0x00\n    /* \"#utility.yul\":2203:2350   */\n  tag_222\n    /* \"#utility.yul\":2346:2349   */\n  dup3\n    /* \"#utility.yul\":2203:2350   */\n  tag_167\n  jump\t// in\ntag_222:\n    /* \"#utility.yul\":2196:2350   */\n  swap2\n  pop\n    /* \"#utility.yul\":2367:2370   */\n  dup2\n    /* \"#utility.yul\":2360:2370   */\n  swap1\n  pop\n    /* \"#utility.yul\":1997:2376   */\n  swap2\n  swap1\n  pop\n  jump\t// out\n    /* \"#utility.yul\":2382:2733   */\ntag_13:\n    /* \"#utility.yul\":2452:2458   */\n  0x00\n    /* \"#utility.yul\":2501:2503   */\n  0x20\n    /* \"#utility.yul\":2489:2498   */\n  dup3\n    /* \"#utility.yul\":2480:2487   */\n  dup5\n    /* \"#utility.yul\":2476:2499   */\n  sub\n    /* \"#utility.yul\":2472:2504   */\n  slt\n    /* \"#utility.yul\":2469:2588   */\n  iszero\n  tag_224\n  jumpi\n    /* \"#utility.yul\":2507:2586   */\n  tag_225\n  tag_160\n  jump\t// in\ntag_225:\n    /* \"#utility.yul\":2469:2588   */\ntag_224:\n    /* \"#utility.yul\":2627:2628   */\n  0x00\n    /* \"#utility.yul\":2652:2716   */\n  tag_226\n    /* \"#utility.yul\":2708:2715   */\n  dup5\n    /* \"#utility.yul\":2699:2705   */\n  dup3\n    /* \"#utility.yul\":2688:2697   */\n  dup6\n    /* \"#utility.yul\":2684:2706   */\n  add\n    /* \"#utility.yul\":2652:2716   */\n  tag_164\n  jump\t// in\ntag_226:\n    /* \"#utility.yul\":2642:2716   */\n  swap2\n  pop\n    /* \"#utility.yul\":2598:2726   */\n  pop\n    /* \"#utility.yul\":2382:2733   */\n  swap3\n  swap2\n  pop\n  pop\n  jump\t// out\n    /* \"#utility.yul\":2739:2818   */\ntag_168:\n    /* \"#utility.yul\":2778:2785   */\n  0x00\n    /* \"#utility.yul\":2807:2812   */\n  dup2\n    /* \"#utility.yul\":2796:2812   */\n  swap1\n  pop\n    /* \"#utility.yul\":2739:2818   */\n  swap2\n  swap1\n  pop\n  jump\t// out\n    /* \"#utility.yul\":2824:2981   */\ntag_169:\n    /* \"#utility.yul\":2929:2974   */\n  tag_229\n    /* \"#utility.yul\":2949:2973   */\n  tag_230\n    /* \"#utility.yul\":2967:2972   */\n  dup3\n    /* \"#utility.yul\":2949:2973   */\n  tag_162\n  jump\t// in\ntag_230:\n    /* \"#utility.yul\":2929:2974   */\n  tag_168\n  jump\t// in\ntag_229:\n    /* \"#utility.yul\":2924:2927   */\n  dup3\n    /* \"#utility.yul\":2917:2975   */\n  mstore\n    /* \"#utility.yul\":2824:2981   */\n  pop\n  pop\n  jump\t// out\n    /* \"#utility.yul\":2987:3064   */\ntag_170:\n    /* \"#utility.yul\":3024:3031   */\n  0x00\n    /* \"#utility.yul\":3053:3058   */\n  dup2\n    /* \"#utility.yul\":3042:3058   */\n  swap1\n  pop\n    /* \"#utility.yul\":2987:3064   */\n  swap2\n  swap1\n  pop\n  jump\t// out\n    /* \"#utility.yul\":3070:3149   */\ntag_171:\n    /* \"#utility.yul\":3109:3116   */\n  0x00\n    /* \"#utility.yul\":3138:3143   */\n  dup2\n    /* \"#utility.yul\":3127:3143   */\n  swap1\n  pop\n    /* \"#utility.yul\":3070:3149   */\n  swap2\n  swap1\n  pop\n  jump\t// out\n    /* \"#utility.yul\":3155:3312   */\ntag_172:\n    /* \"#utility.yul\":3260:3305   */\n  tag_234\n    /* \"#utility.yul\":3280:3304   */\n  tag_235\n    /* \"#utility.yul\":3298:3303   */\n  dup3\n    /* \"#utility.yul\":3280:3304   */\n  tag_170\n  jump\t// in\ntag_235:\n    /* \"#utility.yul\":3260:3305   */\n  tag_171\n  jump\t// in\ntag_234:\n    /* \"#utility.yul\":3255:3258   */\n  dup3\n    /* \"#utility.yul\":3248:3306   */\n  mstore\n    /* \"#utility.yul\":3155:3312   */\n  pop\n  pop\n  jump\t// out\n    /* \"#utility.yul\":3318:3407   */\ntag_173:\n    /* \"#utility.yul\":3354:3361   */\n  0x00\n    /* \"#utility.yul\":3394:3400   */\n  0xffff\n    /* \"#utility.yul\":3387:3392   */\n  dup3\n    /* \"#utility.yul\":3383:3401   */\n  and\n    /* \"#utility.yul\":3372:3401   */\n  swap1\n  pop\n    /* \"#utility.yul\":3318:3407   */\n  swap2\n  swap1\n  pop\n  jump\t// out\n    /* \"#utility.yul\":3413:3509   */\ntag_174:\n    /* \"#utility.yul\":3447:3455   */\n  0x00\n    /* \"#utility.yul\":3496:3501   */\n  dup2\n    /* \"#utility.yul\":3491:3494   */\n  0xf0\n    /* \"#utility.yul\":3487:3502   */\n  shl\n    /* \"#utility.yul\":3466:3502   */\n  swap1\n  pop\n    /* \"#utility.yul\":3413:3509   */\n  swap2\n  swap1\n  pop\n  jump\t// out\n    /* \"#utility.yul\":3515:3609   */\ntag_175:\n    /* \"#utility.yul\":3553:3560   */\n  0x00\n    /* \"#utility.yul\":3582:3603   */\n  tag_239\n    /* \"#utility.yul\":3597:3602   */\n  dup3\n    /* \"#utility.yul\":3582:3603   */\n  tag_174\n  jump\t// in\ntag_239:\n    /* \"#utility.yul\":3571:3603   */\n  swap1\n  pop\n    /* \"#utility.yul\":3515:3609   */\n  swap2\n  swap1\n  pop\n  jump\t// out\n    /* \"#utility.yul\":3615:3768   */\ntag_176:\n    /* \"#utility.yul\":3718:3761   */\n  tag_241\n    /* \"#utility.yul\":3737:3760   */\n  tag_242\n    /* \"#utility.yul\":3754:3759   */\n  dup3\n    /* \"#utility.yul\":3737:3760   */\n  tag_173\n  jump\t// in\ntag_242:\n    /* \"#utility.yul\":3718:3761   */\n  tag_175\n  jump\t// in\ntag_241:\n    /* \"#utility.yul\":3713:3716   */\n  dup3\n    /* \"#utility.yul\":3706:3762   */\n  mstore\n    /* \"#utility.yul\":3615:3768   */\n  pop\n  pop\n  jump\t// out\n    /* \"#utility.yul\":3774:4589   */\ntag_19:\n    /* \"#utility.yul\":3996:3999   */\n  0x00\n    /* \"#utility.yul\":4011:4086   */\n  tag_244\n    /* \"#utility.yul\":4082:4085   */\n  dup3\n    /* \"#utility.yul\":4073:4079   */\n  dup9\n    /* \"#utility.yul\":4011:4086   */\n  tag_169\n  jump\t// in\ntag_244:\n    /* \"#utility.yul\":4111:4113   */\n  0x20\n    /* \"#utility.yul\":4106:4109   */\n  dup3\n    /* \"#utility.yul\":4102:4114   */\n  add\n    /* \"#utility.yul\":4095:4114   */\n  swap2\n  pop\n    /* \"#utility.yul\":4124:4199   */\n  tag_245\n    /* \"#utility.yul\":4195:4198   */\n  dup3\n    /* \"#utility.yul\":4186:4192   */\n  dup8\n    /* \"#utility.yul\":4124:4199   */\n  tag_169\n  jump\t// in\ntag_245:\n    /* \"#utility.yul\":4224:4226   */\n  0x20\n    /* \"#utility.yul\":4219:4222   */\n  dup3\n    /* \"#utility.yul\":4215:4227   */\n  add\n    /* \"#utility.yul\":4208:4227   */\n  swap2\n  pop\n    /* \"#utility.yul\":4237:4312   */\n  tag_246\n    /* \"#utility.yul\":4308:4311   */\n  dup3\n    /* \"#utility.yul\":4299:4305   */\n  dup7\n    /* \"#utility.yul\":4237:4312   */\n  tag_172\n  jump\t// in\ntag_246:\n    /* \"#utility.yul\":4337:4339   */\n  0x20\n    /* \"#utility.yul\":4332:4335   */\n  dup3\n    /* \"#utility.yul\":4328:4340   */\n  add\n    /* \"#utility.yul\":4321:4340   */\n  swap2\n  pop\n    /* \"#utility.yul\":4350:4425   */\n  tag_247\n    /* \"#utility.yul\":4421:4424   */\n  dup3\n    /* \"#utility.yul\":4412:4418   */\n  dup6\n    /* \"#utility.yul\":4350:4425   */\n  tag_169\n  jump\t// in\ntag_247:\n    /* \"#utility.yul\":4450:4452   */\n  0x20\n    /* \"#utility.yul\":4445:4448   */\n  dup3\n    /* \"#utility.yul\":4441:4453   */\n  add\n    /* \"#utility.yul\":4434:4453   */\n  swap2\n  pop\n    /* \"#utility.yul\":4463:4536   */\n  tag_248\n    /* \"#utility.yul\":4532:4535   */\n  dup3\n    /* \"#utility.yul\":4523:4529   */\n  dup5\n    /* \"#utility.yul\":4463:4536   */\n  tag_176\n  jump\t// in\ntag_248:\n    /* \"#utility.yul\":4561:4562   */\n  0x02\n    /* \"#utility.yul\":4556:4559   */\n  dup3\n    /* \"#utility.yul\":4552:4563   */\n  add\n    /* \"#utility.yul\":4545:4563   */\n  swap2\n  pop\n    /* \"#utility.yul\":4580:4583   */\n  dup2\n    /* \"#utility.yul\":4573:4583   */\n  swap1\n  pop\n    /* \"#utility.yul\":3774:4589   */\n  swap7\n  swap6\n  pop\n  pop\n  pop\n  pop\n  pop\n  pop\n  jump\t// out\n    /* \"#utility.yul\":4595:4693   */\ntag_177:\n    /* \"#utility.yul\":4646:4652   */\n  0x00\n    /* \"#utility.yul\":4680:4685   */\n  dup2\n    /* \"#utility.yul\":4674:4686   */\n  mload\n    /* \"#utility.yul\":4664:4686   */\n  swap1\n  pop\n    /* \"#utility.yul\":4595:4693   */\n  swap2\n  swap1\n  pop\n  jump\t// out\n    /* \"#utility.yul\":4699:4945   */\ntag_178:\n    /* \"#utility.yul\":4780:4781   */\n  0x00\n    /* \"#utility.yul\":4790:4903   */\ntag_251:\n    /* \"#utility.yul\":4804:4810   */\n  dup4\n    /* \"#utility.yul\":4801:4802   */\n  dup2\n    /* \"#utility.yul\":4798:4811   */\n  lt\n    /* \"#utility.yul\":4790:4903   */\n  iszero\n  tag_253\n  jumpi\n    /* \"#utility.yul\":4889:4890   */\n  dup1\n    /* \"#utility.yul\":4884:4887   */\n  dup3\n    /* \"#utility.yul\":4880:4891   */\n  add\n    /* \"#utility.yul\":4874:4892   */\n  mload\n    /* \"#utility.yul\":4870:4871   */\n  dup2\n    /* \"#utility.yul\":4865:4868   */\n  dup5\n    /* \"#utility.yul\":4861:4872   */\n  add\n    /* \"#utility.yul\":4854:4893   */\n  mstore\n    /* \"#utility.yul\":4826:4828   */\n  0x20\n    /* \"#utility.yul\":4823:4824   */\n  dup2\n    /* \"#utility.yul\":4819:4829   */\n  add\n    /* \"#utility.yul\":4814:4829   */\n  swap1\n  pop\n    /* \"#utility.yul\":4790:4903   */\n  jump(tag_251)\ntag_253:\n    /* \"#utility.yul\":4937:4938   */\n  0x00\n    /* \"#utility.yul\":4928:4934   */\n  dup5\n    /* \"#utility.yul\":4923:4926   */\n  dup5\n    /* \"#utility.yul\":4919:4935   */\n  add\n    /* \"#utility.yul\":4912:4939   */\n  mstore\n    /* \"#utility.yul\":4761:4945   */\n  pop\n    /* \"#utility.yul\":4699:4945   */\n  pop\n  pop\n  pop\n  jump\t// out\n    /* \"#utility.yul\":4951:5337   */\ntag_179:\n    /* \"#utility.yul\":5055:5058   */\n  0x00\n    /* \"#utility.yul\":5083:5121   */\n  tag_255\n    /* \"#utility.yul\":5115:5120   */\n  dup3\n    /* \"#utility.yul\":5083:5121   */\n  tag_177\n  jump\t// in\ntag_255:\n    /* \"#utility.yul\":5137:5225   */\n  tag_256\n    /* \"#utility.yul\":5218:5224   */\n  dup2\n    /* \"#utility.yul\":5213:5216   */\n  dup6\n    /* \"#utility.yul\":5137:5225   */\n  tag_165\n  jump\t// in\ntag_256:\n    /* \"#utility.yul\":5130:5225   */\n  swap4\n  pop\n    /* \"#utility.yul\":5234:5299   */\n  tag_257\n    /* \"#utility.yul\":5292:5298   */\n  dup2\n    /* \"#utility.yul\":5287:5290   */\n  dup6\n    /* \"#utility.yul\":5280:5284   */\n  0x20\n    /* \"#utility.yul\":5273:5278   */\n  dup7\n    /* \"#utility.yul\":5269:5285   */\n  add\n    /* \"#utility.yul\":5234:5299   */\n  tag_178\n  jump\t// in\ntag_257:\n    /* \"#utility.yul\":5324:5330   */\n  dup1\n    /* \"#utility.yul\":5319:5322   */\n  dup5\n    /* \"#utility.yul\":5315:5331   */\n  add\n    /* \"#utility.yul\":5308:5331   */\n  swap2\n  pop\n    /* \"#utility.yul\":5059:5337   */\n  pop\n    /* \"#utility.yul\":4951:5337   */\n  swap3\n  swap2\n  pop\n  pop\n  jump\t// out\n    /* \"#utility.yul\":5343:5614   */\ntag_21:\n    /* \"#utility.yul\":5473:5476   */\n  0x00\n    /* \"#utility.yul\":5495:5588   */\n  tag_259\n    /* \"#utility.yul\":5584:5587   */\n  dup3\n    /* \"#utility.yul\":5575:5581   */\n  dup5\n    /* \"#utility.yul\":5495:5588   */\n  tag_179\n  jump\t// in\ntag_259:\n    /* \"#utility.yul\":5488:5588   */\n  swap2\n  pop\n    /* \"#utility.yul\":5605:5608   */\n  dup2\n    /* \"#utility.yul\":5598:5608   */\n  swap1\n  pop\n    /* \"#utility.yul\":5343:5614   */\n  swap3\n  swap2\n  pop\n  pop\n  jump\t// out\n    /* \"#utility.yul\":5620:5800   */\ntag_32:\n    /* \"#utility.yul\":5668:5745   */\n  0x4e487b7100000000000000000000000000000000000000000000000000000000\n    /* \"#utility.yul\":5665:5666   */\n  0x00\n    /* \"#utility.yul\":5658:5746   */\n  mstore\n    /* \"#utility.yul\":5765:5769   */\n  0x41\n    /* \"#utility.yul\":5762:5763   */\n  0x04\n    /* \"#utility.yul\":5755:5770   */\n  mstore\n    /* \"#utility.yul\":5789:5793   */\n  0x24\n    /* \"#utility.yul\":5786:5787   */\n  0x00\n    /* \"#utility.yul\":5779:5794   */\n  revert\n    /* \"#utility.yul\":5806:6203   */\ntag_35:\n    /* \"#utility.yul\":5946:5949   */\n  0x00\n    /* \"#utility.yul\":5961:6036   */\n  tag_262\n    /* \"#utility.yul\":6032:6035   */\n  dup3\n    /* \"#utility.yul\":6023:6029   */\n  dup6\n    /* \"#utility.yul\":5961:6036   */\n  tag_172\n  jump\t// in\ntag_262:\n    /* \"#utility.yul\":6061:6063   */\n  0x20\n    /* \"#utility.yul\":6056:6059   */\n  dup3\n    /* \"#utility.yul\":6052:6064   */\n  add\n    /* \"#utility.yul\":6045:6064   */\n  swap2\n  pop\n    /* \"#utility.yul\":6074:6149   */\n  tag_263\n    /* \"#utility.yul\":6145:6148   */\n  dup3\n    /* \"#utility.yul\":6136:6142   */\n  dup5\n    /* \"#utility.yul\":6074:6149   */\n  tag_172\n  jump\t// in\ntag_263:\n    /* \"#utility.yul\":6174:6176   */\n  0x20\n    /* \"#utility.yul\":6169:6172   */\n  dup3\n    /* \"#utility.yul\":6165:6177   */\n  add\n    /* \"#utility.yul\":6158:6177   */\n  swap2\n  pop\n    /* \"#utility.yul\":6194:6197   */\n  dup2\n    /* \"#utility.yul\":6187:6197   */\n  swap1\n  pop\n    /* \"#utility.yul\":5806:6203   */\n  swap4\n  swap3\n  pop\n  pop\n  pop\n  jump\t// out\n    /* \"#utility.yul\":6209:6389   */\ntag_42:\n    /* \"#utility.yul\":6257:6334   */\n  0x4e487b7100000000000000000000000000000000000000000000000000000000\n    /* \"#utility.yul\":6254:6255   */\n  0x00\n    /* \"#utility.yul\":6247:6335   */\n  mstore\n    /* \"#utility.yul\":6354:6358   */\n  0x32\n    /* \"#utility.yul\":6351:6352   */\n  0x04\n    /* \"#utility.yul\":6344:6359   */\n  mstore\n    /* \"#utility.yul\":6378:6382   */\n  0x24\n    /* \"#utility.yul\":6375:6376   */\n  0x00\n    /* \"#utility.yul\":6368:6383   */\n  revert\n    /* \"#utility.yul\":6395:6571   */\ntag_180:\n    /* \"#utility.yul\":6535:6563   */\n  0x72697363305f67726f746831362e566572696679696e674b6579000000000000\n    /* \"#utility.yul\":6531:6532   */\n  0x00\n    /* \"#utility.yul\":6523:6529   */\n  dup3\n    /* \"#utility.yul\":6519:6533   */\n  add\n    /* \"#utility.yul\":6512:6564   */\n  mstore\n    /* \"#utility.yul\":6395:6571   */\n  pop\n  jump\t// out\n    /* \"#utility.yul\":6577:6977   */\ntag_181:\n    /* \"#utility.yul\":6736:6739   */\n  0x00\n    /* \"#utility.yul\":6757:6841   */\n  tag_267\n    /* \"#utility.yul\":6838:6840   */\n  0x1a\n    /* \"#utility.yul\":6833:6836   */\n  dup4\n    /* \"#utility.yul\":6757:6841   */\n  tag_165\n  jump\t// in\ntag_267:\n    /* \"#utility.yul\":6750:6841   */\n  swap2\n  pop\n    /* \"#utility.yul\":6850:6943   */\n  tag_268\n    /* \"#utility.yul\":6939:6942   */\n  dup3\n    /* \"#utility.yul\":6850:6943   */\n  tag_180\n  jump\t// in\ntag_268:\n    /* \"#utility.yul\":6968:6970   */\n  0x1a\n    /* \"#utility.yul\":6963:6966   */\n  dup3\n    /* \"#utility.yul\":6959:6971   */\n  add\n    /* \"#utility.yul\":6952:6971   */\n  swap1\n  pop\n    /* \"#utility.yul\":6577:6977   */\n  swap2\n  swap1\n  pop\n  jump\t// out\n    /* \"#utility.yul\":6983:7362   */\ntag_79:\n    /* \"#utility.yul\":7167:7170   */\n  0x00\n    /* \"#utility.yul\":7189:7336   */\n  tag_270\n    /* \"#utility.yul\":7332:7335   */\n  dup3\n    /* \"#utility.yul\":7189:7336   */\n  tag_181\n  jump\t// in\ntag_270:\n    /* \"#utility.yul\":7182:7336   */\n  swap2\n  pop\n    /* \"#utility.yul\":7353:7356   */\n  dup2\n    /* \"#utility.yul\":7346:7356   */\n  swap1\n  pop\n    /* \"#utility.yul\":6983:7362   */\n  swap2\n  swap1\n  pop\n  jump\t// out\n    /* \"#utility.yul\":7368:8047   */\ntag_89:\n    /* \"#utility.yul\":7564:7567   */\n  0x00\n    /* \"#utility.yul\":7579:7654   */\n  tag_272\n    /* \"#utility.yul\":7650:7653   */\n  dup3\n    /* \"#utility.yul\":7641:7647   */\n  dup8\n    /* \"#utility.yul\":7579:7654   */\n  tag_172\n  jump\t// in\ntag_272:\n    /* \"#utility.yul\":7679:7681   */\n  0x20\n    /* \"#utility.yul\":7674:7677   */\n  dup3\n    /* \"#utility.yul\":7670:7682   */\n  add\n    /* \"#utility.yul\":7663:7682   */\n  swap2\n  pop\n    /* \"#utility.yul\":7692:7767   */\n  tag_273\n    /* \"#utility.yul\":7763:7766   */\n  dup3\n    /* \"#utility.yul\":7754:7760   */\n  dup7\n    /* \"#utility.yul\":7692:7767   */\n  tag_172\n  jump\t// in\ntag_273:\n    /* \"#utility.yul\":7792:7794   */\n  0x20\n    /* \"#utility.yul\":7787:7790   */\n  dup3\n    /* \"#utility.yul\":7783:7795   */\n  add\n    /* \"#utility.yul\":7776:7795   */\n  swap2\n  pop\n    /* \"#utility.yul\":7805:7880   */\n  tag_274\n    /* \"#utility.yul\":7876:7879   */\n  dup3\n    /* \"#utility.yul\":7867:7873   */\n  dup6\n    /* \"#utility.yul\":7805:7880   */\n  tag_172\n  jump\t// in\ntag_274:\n    /* \"#utility.yul\":7905:7907   */\n  0x20\n    /* \"#utility.yul\":7900:7903   */\n  dup3\n    /* \"#utility.yul\":7896:7908   */\n  add\n    /* \"#utility.yul\":7889:7908   */\n  swap2\n  pop\n    /* \"#utility.yul\":7918:7993   */\n  tag_275\n    /* \"#utility.yul\":7989:7992   */\n  dup3\n    /* \"#utility.yul\":7980:7986   */\n  dup5\n    /* \"#utility.yul\":7918:7993   */\n  tag_172\n  jump\t// in\ntag_275:\n    /* \"#utility.yul\":8018:8020   */\n  0x20\n    /* \"#utility.yul\":8013:8016   */\n  dup3\n    /* \"#utility.yul\":8009:8021   */\n  add\n    /* \"#utility.yul\":8002:8021   */\n  swap2\n  pop\n    /* \"#utility.yul\":8038:8041   */\n  dup2\n    /* \"#utility.yul\":8031:8041   */\n  swap1\n  pop\n    /* \"#utility.yul\":7368:8047   */\n  swap6\n  swap5\n  pop\n  pop\n  pop\n  pop\n  pop\n  jump\t// out\n    /* \"#utility.yul\":8053:8232   */\ntag_182:\n    /* \"#utility.yul\":8193:8224   */\n  0x72697363305f67726f746831362e566572696679696e674b65792e4943000000\n    /* \"#utility.yul\":8189:8190   */\n  0x00\n    /* \"#utility.yul\":8181:8187   */\n  dup3\n    /* \"#utility.yul\":8177:8191   */\n  add\n    /* \"#utility.yul\":8170:8225   */\n  mstore\n    /* \"#utility.yul\":8053:8232   */\n  pop\n  jump\t// out\n    /* \"#utility.yul\":8238:8638   */\ntag_183:\n    /* \"#utility.yul\":8397:8400   */\n  0x00\n    /* \"#utility.yul\":8418:8502   */\n  tag_278\n    /* \"#utility.yul\":8499:8501   */\n  0x1d\n    /* \"#utility.yul\":8494:8497   */\n  dup4\n    /* \"#utility.yul\":8418:8502   */\n  tag_165\n  jump\t// in\ntag_278:\n    /* \"#utility.yul\":8411:8502   */\n  swap2\n  pop\n    /* \"#utility.yul\":8511:8604   */\n  tag_279\n    /* \"#utility.yul\":8600:8603   */\n  dup3\n    /* \"#utility.yul\":8511:8604   */\n  tag_182\n  jump\t// in\ntag_279:\n    /* \"#utility.yul\":8629:8631   */\n  0x1d\n    /* \"#utility.yul\":8624:8627   */\n  dup3\n    /* \"#utility.yul\":8620:8632   */\n  add\n    /* \"#utility.yul\":8613:8632   */\n  swap1\n  pop\n    /* \"#utility.yul\":8238:8638   */\n  swap2\n  swap1\n  pop\n  jump\t// out\n    /* \"#utility.yul\":8644:9023   */\ntag_106:\n    /* \"#utility.yul\":8828:8831   */\n  0x00\n    /* \"#utility.yul\":8850:8997   */\n  tag_281\n    /* \"#utility.yul\":8993:8996   */\n  dup3\n    /* \"#utility.yul\":8850:8997   */\n  tag_183\n  jump\t// in\ntag_281:\n    /* \"#utility.yul\":8843:8997   */\n  swap2\n  pop\n    /* \"#utility.yul\":9014:9017   */\n  dup2\n    /* \"#utility.yul\":9007:9017   */\n  swap1\n  pop\n    /* \"#utility.yul\":8644:9023   */\n  swap2\n  swap1\n  pop\n  jump\t// out\n    /* \"#utility.yul\":9029:10126   */\ntag_112:\n    /* \"#utility.yul\":9307:9310   */\n  0x00\n    /* \"#utility.yul\":9322:9397   */\n  tag_283\n    /* \"#utility.yul\":9393:9396   */\n  dup3\n    /* \"#utility.yul\":9384:9390   */\n  dup11\n    /* \"#utility.yul\":9322:9397   */\n  tag_169\n  jump\t// in\ntag_283:\n    /* \"#utility.yul\":9422:9424   */\n  0x20\n    /* \"#utility.yul\":9417:9420   */\n  dup3\n    /* \"#utility.yul\":9413:9425   */\n  add\n    /* \"#utility.yul\":9406:9425   */\n  swap2\n  pop\n    /* \"#utility.yul\":9435:9510   */\n  tag_284\n    /* \"#utility.yul\":9506:9509   */\n  dup3\n    /* \"#utility.yul\":9497:9503   */\n  dup10\n    /* \"#utility.yul\":9435:9510   */\n  tag_169\n  jump\t// in\ntag_284:\n    /* \"#utility.yul\":9535:9537   */\n  0x20\n    /* \"#utility.yul\":9530:9533   */\n  dup3\n    /* \"#utility.yul\":9526:9538   */\n  add\n    /* \"#utility.yul\":9519:9538   */\n  swap2\n  pop\n    /* \"#utility.yul\":9548:9623   */\n  tag_285\n    /* \"#utility.yul\":9619:9622   */\n  dup3\n    /* \"#utility.yul\":9610:9616   */\n  dup9\n    /* \"#utility.yul\":9548:9623   */\n  tag_169\n  jump\t// in\ntag_285:\n    /* \"#utility.yul\":9648:9650   */\n  0x20\n    /* \"#utility.yul\":9643:9646   */\n  dup3\n    /* \"#utility.yul\":9639:9651   */\n  add\n    /* \"#utility.yul\":9632:9651   */\n  swap2\n  pop\n    /* \"#utility.yul\":9661:9736   */\n  tag_286\n    /* \"#utility.yul\":9732:9735   */\n  dup3\n    /* \"#utility.yul\":9723:9729   */\n  dup8\n    /* \"#utility.yul\":9661:9736   */\n  tag_169\n  jump\t// in\ntag_286:\n    /* \"#utility.yul\":9761:9763   */\n  0x20\n    /* \"#utility.yul\":9756:9759   */\n  dup3\n    /* \"#utility.yul\":9752:9764   */\n  add\n    /* \"#utility.yul\":9745:9764   */\n  swap2\n  pop\n    /* \"#utility.yul\":9774:9849   */\n  tag_287\n    /* \"#utility.yul\":9845:9848   */\n  dup3\n    /* \"#utility.yul\":9836:9842   */\n  dup7\n    /* \"#utility.yul\":9774:9849   */\n  tag_169\n  jump\t// in\ntag_287:\n    /* \"#utility.yul\":9874:9876   */\n  0x20\n    /* \"#utility.yul\":9869:9872   */\n  dup3\n    /* \"#utility.yul\":9865:9877   */\n  add\n    /* \"#utility.yul\":9858:9877   */\n  swap2\n  pop\n    /* \"#utility.yul\":9887:9962   */\n  tag_288\n    /* \"#utility.yul\":9958:9961   */\n  dup3\n    /* \"#utility.yul\":9949:9955   */\n  dup6\n    /* \"#utility.yul\":9887:9962   */\n  tag_169\n  jump\t// in\ntag_288:\n    /* \"#utility.yul\":9987:9989   */\n  0x20\n    /* \"#utility.yul\":9982:9985   */\n  dup3\n    /* \"#utility.yul\":9978:9990   */\n  add\n    /* \"#utility.yul\":9971:9990   */\n  swap2\n  pop\n    /* \"#utility.yul\":10000:10073   */\n  tag_289\n    /* \"#utility.yul\":10069:10072   */\n  dup3\n    /* \"#utility.yul\":10060:10066   */\n  dup5\n    /* \"#utility.yul\":10000:10073   */\n  tag_176\n  jump\t// in\ntag_289:\n    /* \"#utility.yul\":10098:10099   */\n  0x02\n    /* \"#utility.yul\":10093:10096   */\n  dup3\n    /* \"#utility.yul\":10089:10100   */\n  add\n    /* \"#utility.yul\":10082:10100   */\n  swap2\n  pop\n    /* \"#utility.yul\":10117:10120   */\n  dup2\n    /* \"#utility.yul\":10110:10120   */\n  swap1\n  pop\n    /* \"#utility.yul\":9029:10126   */\n  swap9\n  swap8\n  pop\n  pop\n  pop\n  pop\n  pop\n  pop\n  pop\n  pop\n  jump\t// out\n    /* \"#utility.yul\":10132:10312   */\ntag_184:\n    /* \"#utility.yul\":10180:10257   */\n  0x4e487b7100000000000000000000000000000000000000000000000000000000\n    /* \"#utility.yul\":10177:10178   */\n  0x00\n    /* \"#utility.yul\":10170:10258   */\n  mstore\n    /* \"#utility.yul\":10277:10281   */\n  0x11\n    /* \"#utility.yul\":10274:10275   */\n  0x04\n    /* \"#utility.yul\":10267:10282   */\n  mstore\n    /* \"#utility.yul\":10301:10305   */\n  0x24\n    /* \"#utility.yul\":10298:10299   */\n  0x00\n    /* \"#utility.yul\":10291:10306   */\n  revert\n    /* \"#utility.yul\":10318:10512   */\ntag_123:\n    /* \"#utility.yul\":10358:10362   */\n  0x00\n    /* \"#utility.yul\":10378:10398   */\n  tag_292\n    /* \"#utility.yul\":10396:10397   */\n  dup3\n    /* \"#utility.yul\":10378:10398   */\n  tag_170\n  jump\t// in\ntag_292:\n    /* \"#utility.yul\":10373:10398   */\n  swap2\n  pop\n    /* \"#utility.yul\":10412:10432   */\n  tag_293\n    /* \"#utility.yul\":10430:10431   */\n  dup4\n    /* \"#utility.yul\":10412:10432   */\n  tag_170\n  jump\t// in\ntag_293:\n    /* \"#utility.yul\":10407:10432   */\n  swap3\n  pop\n    /* \"#utility.yul\":10456:10457   */\n  dup3\n    /* \"#utility.yul\":10453:10454   */\n  dup3\n    /* \"#utility.yul\":10449:10458   */\n  sub\n    /* \"#utility.yul\":10441:10458   */\n  swap1\n  pop\n    /* \"#utility.yul\":10480:10481   */\n  dup2\n    /* \"#utility.yul\":10474:10478   */\n  dup2\n    /* \"#utility.yul\":10471:10482   */\n  gt\n    /* \"#utility.yul\":10468:10505   */\n  iszero\n  tag_294\n  jumpi\n    /* \"#utility.yul\":10485:10503   */\n  tag_295\n  tag_184\n  jump\t// in\ntag_295:\n    /* \"#utility.yul\":10468:10505   */\ntag_294:\n    /* \"#utility.yul\":10318:10512   */\n  swap3\n  swap2\n  pop\n  pop\n  jump\t// out\n    /* \"#utility.yul\":10518:10751   */\ntag_129:\n    /* \"#utility.yul\":10557:10560   */\n  0x00\n    /* \"#utility.yul\":10580:10604   */\n  tag_297\n    /* \"#utility.yul\":10598:10603   */\n  dup3\n    /* \"#utility.yul\":10580:10604   */\n  tag_170\n  jump\t// in\ntag_297:\n    /* \"#utility.yul\":10571:10604   */\n  swap2\n  pop\n    /* \"#utility.yul\":10626:10692   */\n  0xffffffffffffffffffffffffffffffffffffffffffffffffffffffffffffffff\n    /* \"#utility.yul\":10619:10624   */\n  dup3\n    /* \"#utility.yul\":10616:10693   */\n  sub\n    /* \"#utility.yul\":10613:10716   */\n  tag_298\n  jumpi\n    /* \"#utility.yul\":10696:10714   */\n  tag_299\n  tag_184\n  jump\t// in\ntag_299:\n    /* \"#utility.yul\":10613:10716   */\ntag_298:\n    /* \"#utility.yul\":10743:10744   */\n  0x01\n    /* \"#utility.yul\":10736:10741   */\n  dup3\n    /* \"#utility.yul\":10732:10745   */\n  add\n    /* \"#utility.yul\":10725:10745   */\n  swap1\n  pop\n    /* \"#utility.yul\":10518:10751   */\n  swap2\n  swap1\n  pop\n  jump\t// out\n    /* \"#utility.yul\":10757:10871   */\ntag_185:\n    /* \"#utility.yul\":10824:10830   */\n  0x00\n    /* \"#utility.yul\":10858:10863   */\n  dup2\n    /* \"#utility.yul\":10852:10864   */\n  mload\n    /* \"#utility.yul\":10842:10864   */\n  swap1\n  pop\n    /* \"#utility.yul\":10757:10871   */\n  swap2\n  swap1\n  pop\n  jump\t// out\n    /* \"#utility.yul\":10877:11040   */\ntag_186:\n    /* \"#utility.yul\":10994:11005   */\n  0x00\n    /* \"#utility.yul\":11031:11034   */\n  dup2\n    /* \"#utility.yul\":11016:11034   */\n  swap1\n  pop\n    /* \"#utility.yul\":10877:11040   */\n  swap3\n  swap2\n  pop\n  pop\n  jump\t// out\n    /* \"#utility.yul\":11046:11178   */\ntag_187:\n    /* \"#utility.yul\":11113:11117   */\n  0x00\n    /* \"#utility.yul\":11136:11139   */\n  dup2\n    /* \"#utility.yul\":11128:11139   */\n  swap1\n  pop\n    /* \"#utility.yul\":11166:11170   */\n  0x20\n    /* \"#utility.yul\":11161:11164   */\n  dup3\n    /* \"#utility.yul\":11157:11171   */\n  add\n    /* \"#utility.yul\":11149:11171   */\n  swap1\n  pop\n    /* \"#utility.yul\":11046:11178   */\n  swap2\n  swap1\n  pop\n  jump\t// out\n    /* \"#utility.yul\":11184:11300   */\ntag_188:\n    /* \"#utility.yul\":11269:11293   */\n  tag_304\n    /* \"#utility.yul\":11287:11292   */\n  dup2\n    /* \"#utility.yul\":11269:11293   */\n  tag_162\n  jump\t// in\ntag_304:\n    /* \"#utility.yul\":11264:11267   */\n  dup3\n    /* \"#utility.yul\":11257:11294   */\n  mstore\n    /* \"#utility.yul\":11184:11300   */\n  pop\n  pop\n  jump\t// out\n    /* \"#utility.yul\":11306:11501   */\ntag_189:\n    /* \"#utility.yul\":11383:11393   */\n  0x00\n    /* \"#utility.yul\":11404:11458   */\n  tag_306\n    /* \"#utility.yul\":11454:11457   */\n  dup4\n    /* \"#utility.yul\":11446:11452   */\n  dup4\n    /* \"#utility.yul\":11404:11458   */\n  tag_188\n  jump\t// in\ntag_306:\n    /* \"#utility.yul\":11490:11494   */\n  0x20\n    /* \"#utility.yul\":11485:11488   */\n  dup4\n    /* \"#utility.yul\":11481:11495   */\n  add\n    /* \"#utility.yul\":11467:11495   */\n  swap1\n  pop\n    /* \"#utility.yul\":11306:11501   */\n  swap3\n  swap2\n  pop\n  pop\n  jump\t// out\n    /* \"#utility.yul\":11507:11620   */\ntag_190:\n    /* \"#utility.yul\":11577:11581   */\n  0x00\n    /* \"#utility.yul\":11609:11613   */\n  0x20\n    /* \"#utility.yul\":11604:11607   */\n  dup3\n    /* \"#utility.yul\":11600:11614   */\n  add\n    /* \"#utility.yul\":11592:11614   */\n  swap1\n  pop\n    /* \"#utility.yul\":11507:11620   */\n  swap2\n  swap1\n  pop\n  jump\t// out\n    /* \"#utility.yul\":11656:12432   */\ntag_191:\n    /* \"#utility.yul\":11793:11796   */\n  0x00\n    /* \"#utility.yul\":11822:11876   */\n  tag_309\n    /* \"#utility.yul\":11870:11875   */\n  dup3\n    /* \"#utility.yul\":11822:11876   */\n  tag_185\n  jump\t// in\ntag_309:\n    /* \"#utility.yul\":11892:11996   */\n  tag_310\n    /* \"#utility.yul\":11989:11995   */\n  dup2\n    /* \"#utility.yul\":11984:11987   */\n  dup6\n    /* \"#utility.yul\":11892:11996   */\n  tag_186\n  jump\t// in\ntag_310:\n    /* \"#utility.yul\":11885:11996   */\n  swap4\n  pop\n    /* \"#utility.yul\":12020:12076   */\n  tag_311\n    /* \"#utility.yul\":12070:12075   */\n  dup4\n    /* \"#utility.yul\":12020:12076   */\n  tag_187\n  jump\t// in\ntag_311:\n    /* \"#utility.yul\":12099:12106   */\n  dup1\n    /* \"#utility.yul\":12130:12131   */\n  0x00\n    /* \"#utility.yul\":12115:12407   */\ntag_312:\n    /* \"#utility.yul\":12140:12146   */\n  dup4\n    /* \"#utility.yul\":12137:12138   */\n  dup2\n    /* \"#utility.yul\":12134:12147   */\n  lt\n    /* \"#utility.yul\":12115:12407   */\n  iszero\n  tag_314\n  jumpi\n    /* \"#utility.yul\":12216:12222   */\n  dup2\n    /* \"#utility.yul\":12210:12223   */\n  mload\n    /* \"#utility.yul\":12243:12314   */\n  tag_315\n    /* \"#utility.yul\":12310:12313   */\n  dup9\n    /* \"#utility.yul\":12295:12308   */\n  dup3\n    /* \"#utility.yul\":12243:12314   */\n  tag_189\n  jump\t// in\ntag_315:\n    /* \"#utility.yul\":12236:12314   */\n  swap8\n  pop\n    /* \"#utility.yul\":12337:12397   */\n  tag_316\n    /* \"#utility.yul\":12390:12396   */\n  dup4\n    /* \"#utility.yul\":12337:12397   */\n  tag_190\n  jump\t// in\ntag_316:\n    /* \"#utility.yul\":12327:12397   */\n  swap3\n  pop\n    /* \"#utility.yul\":12175:12407   */\n  pop\n    /* \"#utility.yul\":12162:12163   */\n  0x01\n    /* \"#utility.yul\":12159:12160   */\n  dup2\n    /* \"#utility.yul\":12155:12164   */\n  add\n    /* \"#utility.yul\":12150:12164   */\n  swap1\n  pop\n    /* \"#utility.yul\":12115:12407   */\n  jump(tag_312)\ntag_314:\n    /* \"#utility.yul\":12119:12133   */\n  pop\n    /* \"#utility.yul\":12423:12426   */\n  dup6\n    /* \"#utility.yul\":12416:12426   */\n  swap4\n  pop\n    /* \"#utility.yul\":11798:12432   */\n  pop\n  pop\n  pop\n    /* \"#utility.yul\":11656:12432   */\n  swap3\n  swap2\n  pop\n  pop\n  jump\t// out\n    /* \"#utility.yul\":12438:12587   */\ntag_192:\n    /* \"#utility.yul\":12474:12481   */\n  0x00\n    /* \"#utility.yul\":12514:12580   */\n  0xffff000000000000000000000000000000000000000000000000000000000000\n    /* \"#utility.yul\":12507:12512   */\n  dup3\n    /* \"#utility.yul\":12503:12581   */\n  and\n    /* \"#utility.yul\":12492:12581   */\n  swap1\n  pop\n    /* \"#utility.yul\":12438:12587   */\n  swap2\n  swap1\n  pop\n  jump\t// out\n    /* \"#utility.yul\":12593:12671   */\ntag_193:\n    /* \"#utility.yul\":12631:12638   */\n  0x00\n    /* \"#utility.yul\":12660:12665   */\n  dup2\n    /* \"#utility.yul\":12649:12665   */\n  swap1\n  pop\n    /* \"#utility.yul\":12593:12671   */\n  swap2\n  swap1\n  pop\n  jump\t// out\n    /* \"#utility.yul\":12677:12830   */\ntag_194:\n    /* \"#utility.yul\":12780:12823   */\n  tag_320\n    /* \"#utility.yul\":12799:12822   */\n  tag_321\n    /* \"#utility.yul\":12816:12821   */\n  dup3\n    /* \"#utility.yul\":12799:12822   */\n  tag_192\n  jump\t// in\ntag_321:\n    /* \"#utility.yul\":12780:12823   */\n  tag_193\n  jump\t// in\ntag_320:\n    /* \"#utility.yul\":12775:12778   */\n  dup3\n    /* \"#utility.yul\":12768:12824   */\n  mstore\n    /* \"#utility.yul\":12677:12830   */\n  pop\n  pop\n  jump\t// out\n    /* \"#utility.yul\":12836:13604   */\ntag_150:\n    /* \"#utility.yul\":13098:13101   */\n  0x00\n    /* \"#utility.yul\":13113:13188   */\n  tag_323\n    /* \"#utility.yul\":13184:13187   */\n  dup3\n    /* \"#utility.yul\":13175:13181   */\n  dup8\n    /* \"#utility.yul\":13113:13188   */\n  tag_169\n  jump\t// in\ntag_323:\n    /* \"#utility.yul\":13213:13215   */\n  0x20\n    /* \"#utility.yul\":13208:13211   */\n  dup3\n    /* \"#utility.yul\":13204:13216   */\n  add\n    /* \"#utility.yul\":13197:13216   */\n  swap2\n  pop\n    /* \"#utility.yul\":13233:13358   */\n  tag_324\n    /* \"#utility.yul\":13354:13357   */\n  dup3\n    /* \"#utility.yul\":13345:13351   */\n  dup7\n    /* \"#utility.yul\":13233:13358   */\n  tag_191\n  jump\t// in\ntag_324:\n    /* \"#utility.yul\":13226:13358   */\n  swap2\n  pop\n    /* \"#utility.yul\":13375:13468   */\n  tag_325\n    /* \"#utility.yul\":13464:13467   */\n  dup3\n    /* \"#utility.yul\":13455:13461   */\n  dup6\n    /* \"#utility.yul\":13375:13468   */\n  tag_179\n  jump\t// in\ntag_325:\n    /* \"#utility.yul\":13368:13468   */\n  swap2\n  pop\n    /* \"#utility.yul\":13478:13551   */\n  tag_326\n    /* \"#utility.yul\":13547:13550   */\n  dup3\n    /* \"#utility.yul\":13538:13544   */\n  dup5\n    /* \"#utility.yul\":13478:13551   */\n  tag_194\n  jump\t// in\ntag_326:\n    /* \"#utility.yul\":13576:13577   */\n  0x02\n    /* \"#utility.yul\":13571:13574   */\n  dup3\n    /* \"#utility.yul\":13567:13578   */\n  add\n    /* \"#utility.yul\":13560:13578   */\n  swap2\n  pop\n    /* \"#utility.yul\":13595:13598   */\n  dup2\n    /* \"#utility.yul\":13588:13598   */\n  swap1\n  pop\n    /* \"#utility.yul\":12836:13604   */\n  swap6\n  swap5\n  pop\n  pop\n  pop\n  pop\n  pop\n  jump\t// out\n    /* \"#utility.yul\":13610:13696   */\ntag_195:\n    /* \"#utility.yul\":13656:13663   */\n  0x00\n    /* \"#utility.yul\":13685:13690   */\n  dup2\n    /* \"#utility.yul\":13674:13690   */\n  swap1\n  pop\n    /* \"#utility.yul\":13610:13696   */\n  swap2\n  swap1\n  pop\n  jump\t// out\n    /* \"#utility.yul\":13702:13788   */\ntag_196:\n    /* \"#utility.yul\":13737:13744   */\n  0x00\n    /* \"#utility.yul\":13777:13781   */\n  0xff\n    /* \"#utility.yul\":13770:13775   */\n  dup3\n    /* \"#utility.yul\":13766:13782   */\n  and\n    /* \"#utility.yul\":13755:13782   */\n  swap1\n  pop\n    /* \"#utility.yul\":13702:13788   */\n  swap2\n  swap1\n  pop\n  jump\t// out\n    /* \"#utility.yul\":13794:13854   */\ntag_197:\n    /* \"#utility.yul\":13822:13825   */\n  0x00\n    /* \"#utility.yul\":13843:13848   */\n  dup2\n    /* \"#utility.yul\":13836:13848   */\n  swap1\n  pop\n    /* \"#utility.yul\":13794:13854   */\n  swap2\n  swap1\n  pop\n  jump\t// out\n    /* \"#utility.yul\":13860:14016   */\ntag_198:\n    /* \"#utility.yul\":13917:13926   */\n  0x00\n    /* \"#utility.yul\":13950:14010   */\n  tag_331\n    /* \"#utility.yul\":13966:14009   */\n  tag_332\n    /* \"#utility.yul\":13975:14008   */\n  tag_333\n    /* \"#utility.yul\":14002:14007   */\n  dup5\n    /* \"#utility.yul\":13975:14008   */\n  tag_195\n  jump\t// in\ntag_333:\n    /* \"#utility.yul\":13966:14009   */\n  tag_197\n  jump\t// in\ntag_332:\n    /* \"#utility.yul\":13950:14010   */\n  tag_196\n  jump\t// in\ntag_331:\n    /* \"#utility.yul\":13937:14010   */\n  swap1\n  pop\n    /* \"#utility.yul\":13860:14016   */\n  swap2\n  swap1\n  pop\n  jump\t// out\n    /* \"#utility.yul\":14022:14167   */\ntag_199:\n    /* \"#utility.yul\":14116:14160   */\n  tag_335\n    /* \"#utility.yul\":14154:14159   */\n  dup2\n    /* \"#utility.yul\":14116:14160   */\n  tag_198\n  jump\t// in\ntag_335:\n    /* \"#utility.yul\":14111:14114   */\n  dup3\n    /* \"#utility.yul\":14104:14161   */\n  mstore\n    /* \"#utility.yul\":14022:14167   */\n  pop\n  pop\n  jump\t// out\n    /* \"#utility.yul\":14173:14291   */\ntag_200:\n    /* \"#utility.yul\":14260:14284   */\n  tag_337\n    /* \"#utility.yul\":14278:14283   */\n  dup2\n    /* \"#utility.yul\":14260:14284   */\n  tag_170\n  jump\t// in\ntag_337:\n    /* \"#utility.yul\":14255:14258   */\n  dup3\n    /* \"#utility.yul\":14248:14285   */\n  mstore\n    /* \"#utility.yul\":14173:14291   */\n  pop\n  pop\n  jump\t// out\n    /* \"#utility.yul\":14297:14643   */\ntag_158:\n    /* \"#utility.yul\":14425:14429   */\n  0x00\n    /* \"#utility.yul\":14463:14465   */\n  0x40\n    /* \"#utility.yul\":14452:14461   */\n  dup3\n    /* \"#utility.yul\":14448:14466   */\n  add\n    /* \"#utility.yul\":14440:14466   */\n  swap1\n  pop\n    /* \"#utility.yul\":14476:14554   */\n  tag_339\n    /* \"#utility.yul\":14551:14552   */\n  0x00\n    /* \"#utility.yul\":14540:14549   */\n  dup4\n    /* \"#utility.yul\":14536:14553   */\n  add\n    /* \"#utility.yul\":14527:14533   */\n  dup6\n    /* \"#utility.yul\":14476:14554   */\n  tag_199\n  jump\t// in\ntag_339:\n    /* \"#utility.yul\":14564:14636   */\n  tag_340\n    /* \"#utility.yul\":14632:14634   */\n  0x20\n    /* \"#utility.yul\":14621:14630   */\n  dup4\n    /* \"#utility.yul\":14617:14635   */\n  add\n    /* \"#utility.yul\":14608:14614   */\n  dup5\n    /* \"#utility.yul\":14564:14636   */\n  tag_200\n  jump\t// in\ntag_340:\n    /* \"#utility.yul\":14297:14643   */\n  swap4\n  swap3\n  pop\n  pop\n  pop\n  jump\t// out\n    /* \"src/RiscZeroGroth16Verifier.sol\":1916:8541  contract RiscZeroGroth16Verifier is... */\ntag_25:\n  mload(0x80)\n  mload(0xa0)\n  mload(0xc0)\n  mload(0xe0)\n  codecopy(0x00, dataOffset(sub_0), dataSize(sub_0))\n  0x00\n  assignImmutable(\"0xc2bf06a32c7e2f802720de0558076df760b4e7d00b99b73487e64ae209e63f15\")\n  0x00\n  assignImmutable(\"0x919abd3742787aad2c59c21783df5b48e41ff710bae3c19e7d78dfdc39ef5df6\")\n  0x00\n  assignImmutable(\"0x8c235ed3b86a1ac1e855267754bbcf1665c193b5025bb08af6cdf2550ce7be08\")\n  0x00\n  assignImmutable(\"0xe4ad328e682e1b9d178f762912aa8aef76fc69accb36cf5ea75238917f044183\")\n  return(0x00, dataSize(sub_0))\nstop\n\nsub_0: assembly {\n        /* \"src/RiscZeroGroth16Verifier.sol\":1916:8541  contract RiscZeroGroth16Verifier is... */\n      mstore(0x40, 0x80)\n      callvalue\n      dup1\n      iszero\n      tag_1\n      jumpi\n      0x00\n      dup1\n      revert\n    tag_1:\n      pop\n      jumpi(tag_2, lt(calldatasize, 0x04))\n      shr(0xe0, calldataload(0x00))\n      dup1\n      0x8989fa2e\n      gt\n      tag_11\n      jumpi\n      dup1\n      0x8989fa2e\n      eq\n      tag_7\n      jumpi\n      dup1\n      0x9181e4b1\n      eq\n      tag_8\n      jumpi\n      dup1\n      0xab750e75\n      eq\n      tag_9\n      jumpi\n      dup1\n      0xffa1ad74\n      eq\n      tag_10\n      jumpi\n      jump(tag_2)\n    tag_11:\n      dup1\n      0x053c238d\n      eq\n      tag_3\n      jumpi\n      dup1\n      0x1599ead5\n      eq\n      tag_4\n      jumpi\n      dup1\n      0x258038e2\n      eq\n      tag_5\n      jumpi\n      dup1\n      0x34baeab9\n      eq\n      tag_6\n      jumpi\n    tag_2:\n      0x00\n      dup1\n      revert\n        /* \"src/RiscZeroGroth16Verifier.sol\":3985:4017  bytes4 public immutable SELECTOR */\n    tag_3:\n      tag_12\n      tag_13\n      jump\t// in\n    tag_12:\n      mload(0x40)\n      tag_14\n      swap2\n      swap1\n      tag_15\n      jump\t// in\n    tag_14:\n      mload(0x40)\n      dup1\n      swap2\n      sub\n      swap1\n      return\n        /* \"src/RiscZeroGroth16Verifier.sol\":7082:7222  function verifyIntegrity(Receipt calldata receipt) external view {... */\n    tag_4:\n      tag_16\n      0x04\n      dup1\n      calldatasize\n      sub\n      dup2\n      add\n      swap1\n      tag_17\n      swap2\n      swap1\n      tag_18\n      jump\t// in\n    tag_17:\n      tag_19\n      jump\t// in\n    tag_16:\n      stop\n        /* \"src/RiscZeroGroth16Verifier.sol\":2963:3004  bytes32 public immutable BN254_CONTROL_ID */\n    tag_5:\n      tag_20\n      tag_21\n      jump\t// in\n    tag_20:\n      mload(0x40)\n      tag_22\n      swap2\n      swap1\n      tag_23\n      jump\t// in\n    tag_22:\n      mload(0x40)\n      dup1\n      swap2\n      sub\n      swap1\n      return\n        /* \"src/Groth16Verifier.sol\":4075:8486  function verifyProof(... */\n    tag_6:\n      tag_24\n      0x04\n      dup1\n      calldatasize\n      sub\n      dup2\n      add\n      swap1\n      tag_25\n      swap2\n      swap1\n      tag_26\n      jump\t// in\n    tag_25:\n      tag_27\n      jump\t// in\n    tag_24:\n      mload(0x40)\n      tag_28\n      swap2\n      swap1\n      tag_29\n      jump\t// in\n    tag_28:\n      mload(0x40)\n      dup1\n      swap2\n      sub\n      swap1\n      return\n        /* \"src/RiscZeroGroth16Verifier.sol\":2918:2957  bytes16 public immutable CONTROL_ROOT_1 */\n    tag_7:\n      tag_30\n      tag_31\n      jump\t// in\n    tag_30:\n      mload(0x40)\n      tag_32\n      swap2\n      swap1\n      tag_33\n      jump\t// in\n    tag_32:\n      mload(0x40)\n      dup1\n      swap2\n      sub\n      swap1\n      return\n        /* \"src/RiscZeroGroth16Verifier.sol\":2873:2912  bytes16 public immutable CONTROL_ROOT_0 */\n    tag_8:\n      tag_34\n      tag_35\n      jump\t// in\n    tag_34:\n      mload(0x40)\n      tag_36\n      swap2\n      swap1\n      tag_33\n      jump\t// in\n    tag_36:\n      mload(0x40)\n      dup1\n      swap2\n      sub\n      swap1\n      return\n        /* \"src/RiscZeroGroth16Verifier.sol\":6791:7038  function verify(... */\n    tag_9:\n      tag_37\n      0x04\n      dup1\n      calldatasize\n      sub\n      dup2\n      add\n      swap1\n      tag_38\n      swap2\n      swap1\n      tag_39\n      jump\t// in\n    tag_38:\n      tag_40\n      jump\t// in\n    tag_37:\n      stop\n        /* \"src/RiscZeroGroth16Verifier.sol\":2220:2260  string public constant VERSION = \"1.2.0\" */\n    tag_10:\n      tag_41\n      tag_42\n      jump\t// in\n    tag_41:\n      mload(0x40)\n      tag_43\n      swap2\n      swap1\n      tag_44\n      jump\t// in\n    tag_43:\n      mload(0x40)\n      dup1\n      swap2\n      sub\n      swap1\n      return\n        /* \"src/RiscZeroGroth16Verifier.sol\":3985:4017  bytes4 public immutable SELECTOR */\n    tag_13:\n      immutable(\"0xc2bf06a32c7e2f802720de0558076df760b4e7d00b99b73487e64ae209e63f15\")\n      dup2\n      jump\t// out\n        /* \"src/RiscZeroGroth16Verifier.sol\":7082:7222  function verifyIntegrity(Receipt calldata receipt) external view {... */\n    tag_19:\n        /* \"src/RiscZeroGroth16Verifier.sol\":7164:7215  _verifyIntegrity(receipt.seal, receipt.claimDigest) */\n      tag_46\n        /* \"src/RiscZeroGroth16Verifier.sol\":7181:7188  receipt */\n      dup2\n        /* \"src/RiscZeroGroth16Verifier.sol\":7181:7193  receipt.seal */\n      dup1\n      0x00\n      add\n      swap1\n      tag_47\n      swap2\n      swap1\n      tag_48\n      jump\t// in\n    tag_47:\n        /* \"src/RiscZeroGroth16Verifier.sol\":7195:7202  receipt */\n      dup4\n        /* \"src/RiscZeroGroth16Verifier.sol\":7195:7214  receipt.claimDigest */\n      0x20\n      add\n      calldataload\n        /* \"src/RiscZeroGroth16Verifier.sol\":7164:7180  _verifyIntegrity */\n      tag_49\n        /* \"src/RiscZeroGroth16Verifier.sol\":7164:7215  _verifyIntegrity(receipt.seal, receipt.claimDigest) */\n      jump\t// in\n    tag_46:\n        /* \"src/RiscZeroGroth16Verifier.sol\":7082:7222  function verifyIntegrity(Receipt calldata receipt) external view {... */\n      pop\n      jump\t// out\n        /* \"src/RiscZeroGroth16Verifier.sol\":2963:3004  bytes32 public immutable BN254_CONTROL_ID */\n    tag_21:\n      immutable(\"0x919abd3742787aad2c59c21783df5b48e41ff710bae3c19e7d78dfdc39ef5df6\")\n      dup2\n      jump\t// out\n        /* \"src/Groth16Verifier.sol\":4075:8486  function verifyProof(... */\n    tag_27:\n        /* \"src/Groth16Verifier.sol\":4266:4270  bool */\n      0x00\n        /* \"src/Groth16Verifier.sol\":4305:4468  function checkField(v) {... */\n      jump(tag_54)\n    tag_51:\n        /* \"src/Groth16Verifier.sol\":4362:4363  r */\n      0x30644e72e131a029b85045b68181585d2833e84879b9709143e1f593f0000001\n        /* \"src/Groth16Verifier.sol\":4359:4360  v */\n      dup2\n        /* \"src/Groth16Verifier.sol\":4356:4364  lt(v, r) */\n      lt\n        /* \"src/Groth16Verifier.sol\":4346:4454  if iszero(lt(v, r)) {... */\n      tag_56\n      jumpi\n        /* \"src/Groth16Verifier.sol\":4398:4399  0 */\n      0x00\n        /* \"src/Groth16Verifier.sol\":4395:4396  0 */\n      dup1\n        /* \"src/Groth16Verifier.sol\":4388:4400  mstore(0, 0) */\n      mstore\n        /* \"src/Groth16Verifier.sol\":4431:4435  0x20 */\n      0x20\n        /* \"src/Groth16Verifier.sol\":4428:4429  0 */\n      0x00\n        /* \"src/Groth16Verifier.sol\":4421:4436  return(0, 0x20) */\n      return\n        /* \"src/Groth16Verifier.sol\":4346:4454  if iszero(lt(v, r)) {... */\n    tag_56:\n        /* \"src/Groth16Verifier.sol\":4305:4468  function checkField(v) {... */\n      pop\n      jump\t// out\n        /* \"src/Groth16Verifier.sol\":4560:5298  function g1_mulAccC(pR, x, y, s) {... */\n    tag_52:\n        /* \"src/Groth16Verifier.sol\":4611:4622  let success */\n      0x00\n        /* \"src/Groth16Verifier.sol\":4656:4660  0x40 */\n      0x40\n        /* \"src/Groth16Verifier.sol\":4650:4661  mload(0x40) */\n      mload\n        /* \"src/Groth16Verifier.sol\":4690:4691  x */\n      dup4\n        /* \"src/Groth16Verifier.sol\":4685:4688  mIn */\n      dup2\n        /* \"src/Groth16Verifier.sol\":4678:4692  mstore(mIn, x) */\n      mstore\n        /* \"src/Groth16Verifier.sol\":4730:4731  y */\n      dup5\n        /* \"src/Groth16Verifier.sol\":4725:4727  32 */\n      0x20\n        /* \"src/Groth16Verifier.sol\":4720:4723  mIn */\n      dup3\n        /* \"src/Groth16Verifier.sol\":4716:4728  add(mIn, 32) */\n      add\n        /* \"src/Groth16Verifier.sol\":4709:4732  mstore(add(mIn, 32), y) */\n      mstore\n        /* \"src/Groth16Verifier.sol\":4770:4771  s */\n      dup6\n        /* \"src/Groth16Verifier.sol\":4765:4767  64 */\n      0x40\n        /* \"src/Groth16Verifier.sol\":4760:4763  mIn */\n      dup3\n        /* \"src/Groth16Verifier.sol\":4756:4768  add(mIn, 64) */\n      add\n        /* \"src/Groth16Verifier.sol\":4749:4772  mstore(add(mIn, 64), s) */\n      mstore\n        /* \"src/Groth16Verifier.sol\":4847:4849  64 */\n      0x40\n        /* \"src/Groth16Verifier.sol\":4842:4845  mIn */\n      dup2\n        /* \"src/Groth16Verifier.sol\":4838:4840  96 */\n      0x60\n        /* \"src/Groth16Verifier.sol\":4833:4836  mIn */\n      dup4\n        /* \"src/Groth16Verifier.sol\":4830:4831  7 */\n      0x07\n        /* \"src/Groth16Verifier.sol\":4823:4827  2000 */\n      0x07d0\n        /* \"src/Groth16Verifier.sol\":4816:4821  gas() */\n      gas\n        /* \"src/Groth16Verifier.sol\":4812:4828  sub(gas(), 2000) */\n      sub\n        /* \"src/Groth16Verifier.sol\":4801:4850  staticcall(sub(gas(), 2000), 7, mIn, 96, mIn, 64) */\n      staticcall\n        /* \"src/Groth16Verifier.sol\":4790:4850  success := staticcall(sub(gas(), 2000), 7, mIn, 96, mIn, 64) */\n      swap2\n      pop\n        /* \"src/Groth16Verifier.sol\":4878:4885  success */\n      dup2\n        /* \"src/Groth16Verifier.sol\":4868:4975  if iszero(success) {... */\n      tag_58\n      jumpi\n        /* \"src/Groth16Verifier.sol\":4919:4920  0 */\n      0x00\n        /* \"src/Groth16Verifier.sol\":4916:4917  0 */\n      dup1\n        /* \"src/Groth16Verifier.sol\":4909:4921  mstore(0, 0) */\n      mstore\n        /* \"src/Groth16Verifier.sol\":4952:4956  0x20 */\n      0x20\n        /* \"src/Groth16Verifier.sol\":4949:4950  0 */\n      0x00\n        /* \"src/Groth16Verifier.sol\":4942:4957  return(0, 0x20) */\n      return\n        /* \"src/Groth16Verifier.sol\":4868:4975  if iszero(success) {... */\n    tag_58:\n        /* \"src/Groth16Verifier.sol\":5020:5022  pR */\n      dup3\n        /* \"src/Groth16Verifier.sol\":5014:5023  mload(pR) */\n      mload\n        /* \"src/Groth16Verifier.sol\":5009:5011  64 */\n      0x40\n        /* \"src/Groth16Verifier.sol\":5004:5007  mIn */\n      dup3\n        /* \"src/Groth16Verifier.sol\":5000:5012  add(mIn, 64) */\n      add\n        /* \"src/Groth16Verifier.sol\":4993:5024  mstore(add(mIn, 64), mload(pR)) */\n      mstore\n        /* \"src/Groth16Verifier.sol\":5076:5078  32 */\n      0x20\n        /* \"src/Groth16Verifier.sol\":5072:5074  pR */\n      dup4\n        /* \"src/Groth16Verifier.sol\":5068:5079  add(pR, 32) */\n      add\n        /* \"src/Groth16Verifier.sol\":5062:5080  mload(add(pR, 32)) */\n      mload\n        /* \"src/Groth16Verifier.sol\":5057:5059  96 */\n      0x60\n        /* \"src/Groth16Verifier.sol\":5052:5055  mIn */\n      dup3\n        /* \"src/Groth16Verifier.sol\":5048:5060  add(mIn, 96) */\n      add\n        /* \"src/Groth16Verifier.sol\":5041:5081  mstore(add(mIn, 96), mload(add(pR, 32))) */\n      mstore\n        /* \"src/Groth16Verifier.sol\":5156:5158  64 */\n      0x40\n        /* \"src/Groth16Verifier.sol\":5152:5154  pR */\n      dup4\n        /* \"src/Groth16Verifier.sol\":5147:5150  128 */\n      0x80\n        /* \"src/Groth16Verifier.sol\":5142:5145  mIn */\n      dup4\n        /* \"src/Groth16Verifier.sol\":5139:5140  6 */\n      0x06\n        /* \"src/Groth16Verifier.sol\":5132:5136  2000 */\n      0x07d0\n        /* \"src/Groth16Verifier.sol\":5125:5130  gas() */\n      gas\n        /* \"src/Groth16Verifier.sol\":5121:5137  sub(gas(), 2000) */\n      sub\n        /* \"src/Groth16Verifier.sol\":5110:5159  staticcall(sub(gas(), 2000), 6, mIn, 128, pR, 64) */\n      staticcall\n        /* \"src/Groth16Verifier.sol\":5099:5159  success := staticcall(sub(gas(), 2000), 6, mIn, 128, pR, 64) */\n      swap2\n      pop\n        /* \"src/Groth16Verifier.sol\":5187:5194  success */\n      dup2\n        /* \"src/Groth16Verifier.sol\":5177:5284  if iszero(success) {... */\n      tag_59\n      jumpi\n        /* \"src/Groth16Verifier.sol\":5228:5229  0 */\n      0x00\n        /* \"src/Groth16Verifier.sol\":5225:5226  0 */\n      dup1\n        /* \"src/Groth16Verifier.sol\":5218:5230  mstore(0, 0) */\n      mstore\n        /* \"src/Groth16Verifier.sol\":5261:5265  0x20 */\n      0x20\n        /* \"src/Groth16Verifier.sol\":5258:5259  0 */\n      0x00\n        /* \"src/Groth16Verifier.sol\":5251:5266  return(0, 0x20) */\n      return\n        /* \"src/Groth16Verifier.sol\":5177:5284  if iszero(success) {... */\n    tag_59:\n        /* \"src/Groth16Verifier.sol\":4593:5298  {... */\n      pop\n      pop\n        /* \"src/Groth16Verifier.sol\":4560:5298  function g1_mulAccC(pR, x, y, s) {... */\n      pop\n      pop\n      pop\n      pop\n      jump\t// out\n        /* \"src/Groth16Verifier.sol\":5312:7799  function checkPairing(pA, pB, pC, pubSignals, pMem) -> isOk {... */\n    tag_53:\n        /* \"src/Groth16Verifier.sol\":5367:5371  isOk */\n      0x00\n        /* \"src/Groth16Verifier.sol\":5417:5425  pPairing */\n      0x80\n        /* \"src/Groth16Verifier.sol\":5411:5415  pMem */\n      dup7\n        /* \"src/Groth16Verifier.sol\":5407:5426  add(pMem, pPairing) */\n      add\n        /* \"src/Groth16Verifier.sol\":5465:5468  pVk */\n      0x00\n        /* \"src/Groth16Verifier.sol\":5459:5463  pMem */\n      dup8\n        /* \"src/Groth16Verifier.sol\":5455:5469  add(pMem, pVk) */\n      add\n        /* \"src/Groth16Verifier.sol\":5500:5504  IC0x */\n      0x12ac9a25dcd5e1a832a9061a082c15dd1d61aa9c4d553505739d0f5d65dc3be4\n        /* \"src/Groth16Verifier.sol\":5494:5498  _pVk */\n      dup2\n        /* \"src/Groth16Verifier.sol\":5487:5505  mstore(_pVk, IC0x) */\n      mstore\n        /* \"src/Groth16Verifier.sol\":5544:5548  IC0y */\n      0x025aa744581ebe7ad91731911c898569106ff5a2d30f3eee2b23c60ee980acd4\n        /* \"src/Groth16Verifier.sol\":5539:5541  32 */\n      0x20\n        /* \"src/Groth16Verifier.sol\":5533:5537  _pVk */\n      dup3\n        /* \"src/Groth16Verifier.sol\":5529:5542  add(_pVk, 32) */\n      add\n        /* \"src/Groth16Verifier.sol\":5522:5549  mstore(add(_pVk, 32), IC0y) */\n      mstore\n        /* \"src/Groth16Verifier.sol\":5623:5685  g1_mulAccC(_pVk, IC1x, IC1y, calldataload(add(pubSignals, 0))) */\n      tag_61\n        /* \"src/Groth16Verifier.sol\":5681:5682  0 */\n      0x00\n        /* \"src/Groth16Verifier.sol\":5669:5679  pubSignals */\n      dup9\n        /* \"src/Groth16Verifier.sol\":5665:5683  add(pubSignals, 0) */\n      add\n        /* \"src/Groth16Verifier.sol\":5652:5684  calldataload(add(pubSignals, 0)) */\n      calldataload\n        /* \"src/Groth16Verifier.sol\":5646:5650  IC1y */\n      0x2e32a094b7589554f7bc357bf63481acd2d55555c203383782a4650787ff6642\n        /* \"src/Groth16Verifier.sol\":5640:5644  IC1x */\n      0x0707b920bc978c02f292fae2036e057be54294114ccc3c8769d883f688a1423f\n        /* \"src/Groth16Verifier.sol\":5634:5638  _pVk */\n      dup5\n        /* \"src/Groth16Verifier.sol\":5623:5685  g1_mulAccC(_pVk, IC1x, IC1y, calldataload(add(pubSignals, 0))) */\n      tag_52\n      jump\t// in\n    tag_61:\n        /* \"src/Groth16Verifier.sol\":5703:5766  g1_mulAccC(_pVk, IC2x, IC2y, calldataload(add(pubSignals, 32))) */\n      tag_62\n        /* \"src/Groth16Verifier.sol\":5761:5763  32 */\n      0x20\n        /* \"src/Groth16Verifier.sol\":5749:5759  pubSignals */\n      dup9\n        /* \"src/Groth16Verifier.sol\":5745:5764  add(pubSignals, 32) */\n      add\n        /* \"src/Groth16Verifier.sol\":5732:5765  calldataload(add(pubSignals, 32)) */\n      calldataload\n        /* \"src/Groth16Verifier.sol\":5726:5730  IC2y */\n      0x2ede7c9acf48cf3a3729fa3d68714e2a8435d4fa6db8f7f409c153b1fcdf9b8b\n        /* \"src/Groth16Verifier.sol\":5720:5724  IC2x */\n      0x0bca36e2cbe6394b3e249751853f961511011c7148e336f4fd974644850fc347\n        /* \"src/Groth16Verifier.sol\":5714:5718  _pVk */\n      dup5\n        /* \"src/Groth16Verifier.sol\":5703:5766  g1_mulAccC(_pVk, IC2x, IC2y, calldataload(add(pubSignals, 32))) */\n      tag_52\n      jump\t// in\n    tag_62:\n        /* \"src/Groth16Verifier.sol\":5784:5847  g1_mulAccC(_pVk, IC3x, IC3y, calldataload(add(pubSignals, 64))) */\n      tag_63\n        /* \"src/Groth16Verifier.sol\":5842:5844  64 */\n      0x40\n        /* \"src/Groth16Verifier.sol\":5830:5840  pubSignals */\n      dup9\n        /* \"src/Groth16Verifier.sol\":5826:5845  add(pubSignals, 64) */\n      add\n        /* \"src/Groth16Verifier.sol\":5813:5846  calldataload(add(pubSignals, 64)) */\n      calldataload\n        /* \"src/Groth16Verifier.sol\":5807:5811  IC3y */\n      0x2b91a26aa92e1b6f5722949f192a81c850d586d81a60157f3e9cf04f679cccd6\n        /* \"src/Groth16Verifier.sol\":5801:5805  IC3x */\n      0x1b8af999dbfbb3927c091cc2aaf201e488cbacc3e2c6b6fb5a25f9112e04f2a7\n        /* \"src/Groth16Verifier.sol\":5795:5799  _pVk */\n      dup5\n        /* \"src/Groth16Verifier.sol\":5784:5847  g1_mulAccC(_pVk, IC3x, IC3y, calldataload(add(pubSignals, 64))) */\n      tag_52\n      jump\t// in\n    tag_63:\n        /* \"src/Groth16Verifier.sol\":5865:5928  g1_mulAccC(_pVk, IC4x, IC4y, calldataload(add(pubSignals, 96))) */\n      tag_64\n        /* \"src/Groth16Verifier.sol\":5923:5925  96 */\n      0x60\n        /* \"src/Groth16Verifier.sol\":5911:5921  pubSignals */\n      dup9\n        /* \"src/Groth16Verifier.sol\":5907:5926  add(pubSignals, 96) */\n      add\n        /* \"src/Groth16Verifier.sol\":5894:5927  calldataload(add(pubSignals, 96)) */\n      calldataload\n        /* \"src/Groth16Verifier.sol\":5888:5892  IC4y */\n      0x2fe520ad2020aab9cbba817fcbb9a863b8a76ff88f14f912c5e71665b2ad5e82\n        /* \"src/Groth16Verifier.sol\":5882:5886  IC4x */\n      0x2b5f494ed674235b8ac1750bdfd5a7615f002d4a1dcefeddd06eda5a076ccd0d\n        /* \"src/Groth16Verifier.sol\":5876:5880  _pVk */\n      dup5\n        /* \"src/Groth16Verifier.sol\":5865:5928  g1_mulAccC(_pVk, IC4x, IC4y, calldataload(add(pubSignals, 96))) */\n      tag_52\n      jump\t// in\n    tag_64:\n        /* \"src/Groth16Verifier.sol\":5946:6010  g1_mulAccC(_pVk, IC5x, IC5y, calldataload(add(pubSignals, 128))) */\n      tag_65\n        /* \"src/Groth16Verifier.sol\":6004:6007  128 */\n      0x80\n        /* \"src/Groth16Verifier.sol\":5992:6002  pubSignals */\n      dup9\n        /* \"src/Groth16Verifier.sol\":5988:6008  add(pubSignals, 128) */\n      add\n        /* \"src/Groth16Verifier.sol\":5975:6009  calldataload(add(pubSignals, 128)) */\n      calldataload\n        /* \"src/Groth16Verifier.sol\":5969:5973  IC5y */\n      0x214bfcff74f425f6fe8c0d07b307482d8bc8bb2f3608f68287aa01bd0b69e809\n        /* \"src/Groth16Verifier.sol\":5963:5967  IC5x */\n      0x0f1c3c0d5d9da0fa03666843cde4e82e869ba5252fce3c25d5940320b1c4d493\n        /* \"src/Groth16Verifier.sol\":5957:5961  _pVk */\n      dup5\n        /* \"src/Groth16Verifier.sol\":5946:6010  g1_mulAccC(_pVk, IC5x, IC5y, calldataload(add(pubSignals, 128))) */\n      tag_52\n      jump\t// in\n    tag_65:\n        /* \"src/Groth16Verifier.sol\":6081:6083  pA */\n      dup4\n        /* \"src/Groth16Verifier.sol\":6068:6084  calldataload(pA) */\n      calldataload\n        /* \"src/Groth16Verifier.sol\":6057:6066  _pPairing */\n      dup3\n        /* \"src/Groth16Verifier.sol\":6050:6085  mstore(_pPairing, calldataload(pA)) */\n      mstore\n        /* \"src/Groth16Verifier.sol\":6168:6169  q */\n      0x30644e72e131a029b85045b68181585d97816a916871ca8d3c208c16d87cfd47\n        /* \"src/Groth16Verifier.sol\":6161:6163  32 */\n      0x20\n        /* \"src/Groth16Verifier.sol\":6157:6159  pA */\n      dup6\n        /* \"src/Groth16Verifier.sol\":6153:6164  add(pA, 32) */\n      add\n        /* \"src/Groth16Verifier.sol\":6140:6165  calldataload(add(pA, 32)) */\n      calldataload\n        /* \"src/Groth16Verifier.sol\":6137:6138  q */\n      0x30644e72e131a029b85045b68181585d97816a916871ca8d3c208c16d87cfd47\n        /* \"src/Groth16Verifier.sol\":6133:6166  sub(q, calldataload(add(pA, 32))) */\n      sub\n        /* \"src/Groth16Verifier.sol\":6129:6170  mod(sub(q, calldataload(add(pA, 32))), q) */\n      mod\n        /* \"src/Groth16Verifier.sol\":6124:6126  32 */\n      0x20\n        /* \"src/Groth16Verifier.sol\":6113:6122  _pPairing */\n      dup4\n        /* \"src/Groth16Verifier.sol\":6109:6127  add(_pPairing, 32) */\n      add\n        /* \"src/Groth16Verifier.sol\":6102:6171  mstore(add(_pPairing, 32), mod(sub(q, calldataload(add(pA, 32))), q)) */\n      mstore\n        /* \"src/Groth16Verifier.sol\":6250:6252  pB */\n      dup5\n        /* \"src/Groth16Verifier.sol\":6237:6253  calldataload(pB) */\n      calldataload\n        /* \"src/Groth16Verifier.sol\":6232:6234  64 */\n      0x40\n        /* \"src/Groth16Verifier.sol\":6221:6230  _pPairing */\n      dup4\n        /* \"src/Groth16Verifier.sol\":6217:6235  add(_pPairing, 64) */\n      add\n        /* \"src/Groth16Verifier.sol\":6210:6254  mstore(add(_pPairing, 64), calldataload(pB)) */\n      mstore\n        /* \"src/Groth16Verifier.sol\":6319:6321  32 */\n      0x20\n        /* \"src/Groth16Verifier.sol\":6315:6317  pB */\n      dup6\n        /* \"src/Groth16Verifier.sol\":6311:6322  add(pB, 32) */\n      add\n        /* \"src/Groth16Verifier.sol\":6298:6323  calldataload(add(pB, 32)) */\n      calldataload\n        /* \"src/Groth16Verifier.sol\":6293:6295  96 */\n      0x60\n        /* \"src/Groth16Verifier.sol\":6282:6291  _pPairing */\n      dup4\n        /* \"src/Groth16Verifier.sol\":6278:6296  add(_pPairing, 96) */\n      add\n        /* \"src/Groth16Verifier.sol\":6271:6324  mstore(add(_pPairing, 96), calldataload(add(pB, 32))) */\n      mstore\n        /* \"src/Groth16Verifier.sol\":6390:6392  64 */\n      0x40\n        /* \"src/Groth16Verifier.sol\":6386:6388  pB */\n      dup6\n        /* \"src/Groth16Verifier.sol\":6382:6393  add(pB, 64) */\n      add\n        /* \"src/Groth16Verifier.sol\":6369:6394  calldataload(add(pB, 64)) */\n      calldataload\n        /* \"src/Groth16Verifier.sol\":6363:6366  128 */\n      0x80\n        /* \"src/Groth16Verifier.sol\":6352:6361  _pPairing */\n      dup4\n        /* \"src/Groth16Verifier.sol\":6348:6367  add(_pPairing, 128) */\n      add\n        /* \"src/Groth16Verifier.sol\":6341:6395  mstore(add(_pPairing, 128), calldataload(add(pB, 64))) */\n      mstore\n        /* \"src/Groth16Verifier.sol\":6461:6463  96 */\n      0x60\n        /* \"src/Groth16Verifier.sol\":6457:6459  pB */\n      dup6\n        /* \"src/Groth16Verifier.sol\":6453:6464  add(pB, 96) */\n      add\n        /* \"src/Groth16Verifier.sol\":6440:6465  calldataload(add(pB, 96)) */\n      calldataload\n        /* \"src/Groth16Verifier.sol\":6434:6437  160 */\n      0xa0\n        /* \"src/Groth16Verifier.sol\":6423:6432  _pPairing */\n      dup4\n        /* \"src/Groth16Verifier.sol\":6419:6438  add(_pPairing, 160) */\n      add\n        /* \"src/Groth16Verifier.sol\":6412:6466  mstore(add(_pPairing, 160), calldataload(add(pB, 96))) */\n      mstore\n        /* \"src/Groth16Verifier.sol\":6538:6544  alphax */\n      0x2d4d9aa7e302d9df41749d5507949d05dbea33fbb16c643b22f599a2be6df2e2\n        /* \"src/Groth16Verifier.sol\":6532:6535  192 */\n      0xc0\n        /* \"src/Groth16Verifier.sol\":6521:6530  _pPairing */\n      dup4\n        /* \"src/Groth16Verifier.sol\":6517:6536  add(_pPairing, 192) */\n      add\n        /* \"src/Groth16Verifier.sol\":6510:6545  mstore(add(_pPairing, 192), alphax) */\n      mstore\n        /* \"src/Groth16Verifier.sol\":6590:6596  alphay */\n      0x14bedd503c37ceb061d8ec60209fe345ce89830a19230301f076caff004d1926\n        /* \"src/Groth16Verifier.sol\":6584:6587  224 */\n      0xe0\n        /* \"src/Groth16Verifier.sol\":6573:6582  _pPairing */\n      dup4\n        /* \"src/Groth16Verifier.sol\":6569:6588  add(_pPairing, 224) */\n      add\n        /* \"src/Groth16Verifier.sol\":6562:6597  mstore(add(_pPairing, 224), alphay) */\n      mstore\n        /* \"src/Groth16Verifier.sol\":6668:6674  betax1 */\n      0x0967032fcbf776d1afc985f88877f182d38480a653f2decaa9794cbc3bf3060c\n        /* \"src/Groth16Verifier.sol\":6662:6665  256 */\n      0x0100\n        /* \"src/Groth16Verifier.sol\":6651:6660  _pPairing */\n      dup4\n        /* \"src/Groth16Verifier.sol\":6647:6666  add(_pPairing, 256) */\n      add\n        /* \"src/Groth16Verifier.sol\":6640:6675  mstore(add(_pPairing, 256), betax1) */\n      mstore\n        /* \"src/Groth16Verifier.sol\":6720:6726  betax2 */\n      0x0e187847ad4c798374d0d6732bf501847dd68bc0e071241e0213bc7fc13db7ab\n        /* \"src/Groth16Verifier.sol\":6714:6717  288 */\n      0x0120\n        /* \"src/Groth16Verifier.sol\":6703:6712  _pPairing */\n      dup4\n        /* \"src/Groth16Verifier.sol\":6699:6718  add(_pPairing, 288) */\n      add\n        /* \"src/Groth16Verifier.sol\":6692:6727  mstore(add(_pPairing, 288), betax2) */\n      mstore\n        /* \"src/Groth16Verifier.sol\":6772:6778  betay1 */\n      0x304cfbd1e08a704a99f5e847d93f8c3caafddec46b7a0d379da69a4d112346a7\n        /* \"src/Groth16Verifier.sol\":6766:6769  320 */\n      0x0140\n        /* \"src/Groth16Verifier.sol\":6755:6764  _pPairing */\n      dup4\n        /* \"src/Groth16Verifier.sol\":6751:6770  add(_pPairing, 320) */\n      add\n        /* \"src/Groth16Verifier.sol\":6744:6779  mstore(add(_pPairing, 320), betay1) */\n      mstore\n        /* \"src/Groth16Verifier.sol\":6824:6830  betay2 */\n      0x1739c1b1a457a8c7313123d24d2f9192f896b7c63eea05a9d57f06547ad0cec8\n        /* \"src/Groth16Verifier.sol\":6818:6821  352 */\n      0x0160\n        /* \"src/Groth16Verifier.sol\":6807:6816  _pPairing */\n      dup4\n        /* \"src/Groth16Verifier.sol\":6803:6822  add(_pPairing, 352) */\n      add\n        /* \"src/Groth16Verifier.sol\":6796:6831  mstore(add(_pPairing, 352), betay2) */\n      mstore\n        /* \"src/Groth16Verifier.sol\":6917:6920  pVk */\n      0x00\n        /* \"src/Groth16Verifier.sol\":6911:6915  pMem */\n      dup9\n        /* \"src/Groth16Verifier.sol\":6907:6921  add(pMem, pVk) */\n      add\n        /* \"src/Groth16Verifier.sol\":6901:6922  mload(add(pMem, pVk)) */\n      mload\n        /* \"src/Groth16Verifier.sol\":6895:6898  384 */\n      0x0180\n        /* \"src/Groth16Verifier.sol\":6884:6893  _pPairing */\n      dup4\n        /* \"src/Groth16Verifier.sol\":6880:6899  add(_pPairing, 384) */\n      add\n        /* \"src/Groth16Verifier.sol\":6873:6923  mstore(add(_pPairing, 384), mload(add(pMem, pVk))) */\n      mstore\n        /* \"src/Groth16Verifier.sol\":6993:6995  32 */\n      0x20\n        /* \"src/Groth16Verifier.sol\":6988:6991  pVk */\n      0x00\n        /* \"src/Groth16Verifier.sol\":6984:6996  add(pVk, 32) */\n      add\n        /* \"src/Groth16Verifier.sol\":6978:6982  pMem */\n      dup9\n        /* \"src/Groth16Verifier.sol\":6974:6997  add(pMem, add(pVk, 32)) */\n      add\n        /* \"src/Groth16Verifier.sol\":6968:6998  mload(add(pMem, add(pVk, 32))) */\n      mload\n        /* \"src/Groth16Verifier.sol\":6962:6965  416 */\n      0x01a0\n        /* \"src/Groth16Verifier.sol\":6951:6960  _pPairing */\n      dup4\n        /* \"src/Groth16Verifier.sol\":6947:6966  add(_pPairing, 416) */\n      add\n        /* \"src/Groth16Verifier.sol\":6940:6999  mstore(add(_pPairing, 416), mload(add(pMem, add(pVk, 32)))) */\n      mstore\n        /* \"src/Groth16Verifier.sol\":7071:7078  gammax1 */\n      0x198e9393920d483a7260bfb731fb5d25f1aa493335a9e71297e485b7aef312c2\n        /* \"src/Groth16Verifier.sol\":7065:7068  448 */\n      0x01c0\n        /* \"src/Groth16Verifier.sol\":7054:7063  _pPairing */\n      dup4\n        /* \"src/Groth16Verifier.sol\":7050:7069  add(_pPairing, 448) */\n      add\n        /* \"src/Groth16Verifier.sol\":7043:7079  mstore(add(_pPairing, 448), gammax1) */\n      mstore\n        /* \"src/Groth16Verifier.sol\":7124:7131  gammax2 */\n      0x1800deef121f1e76426a00665e5c4479674322d4f75edadd46debd5cd992f6ed\n        /* \"src/Groth16Verifier.sol\":7118:7121  480 */\n      0x01e0\n        /* \"src/Groth16Verifier.sol\":7107:7116  _pPairing */\n      dup4\n        /* \"src/Groth16Verifier.sol\":7103:7122  add(_pPairing, 480) */\n      add\n        /* \"src/Groth16Verifier.sol\":7096:7132  mstore(add(_pPairing, 480), gammax2) */\n      mstore\n        /* \"src/Groth16Verifier.sol\":7177:7184  gammay1 */\n      0x090689d0585ff075ec9e99ad690c3395bc4b313370b38ef355acdadcd122975b\n        /* \"src/Groth16Verifier.sol\":7171:7174  512 */\n      0x0200\n        /* \"src/Groth16Verifier.sol\":7160:7169  _pPairing */\n      dup4\n        /* \"src/Groth16Verifier.sol\":7156:7175  add(_pPairing, 512) */\n      add\n        /* \"src/Groth16Verifier.sol\":7149:7185  mstore(add(_pPairing, 512), gammay1) */\n      mstore\n        /* \"src/Groth16Verifier.sol\":7230:7237  gammay2 */\n      0x12c85ea5db8c6deb4aab71808dcb408fe3d1e7690c43d37b4ce6cc0166fa7daa\n        /* \"src/Groth16Verifier.sol\":7224:7227  544 */\n      0x0220\n        /* \"src/Groth16Verifier.sol\":7213:7222  _pPairing */\n      dup4\n        /* \"src/Groth16Verifier.sol\":7209:7228  add(_pPairing, 544) */\n      add\n        /* \"src/Groth16Verifier.sol\":7202:7238  mstore(add(_pPairing, 544), gammay2) */\n      mstore\n        /* \"src/Groth16Verifier.sol\":7318:7320  pC */\n      dup6\n        /* \"src/Groth16Verifier.sol\":7305:7321  calldataload(pC) */\n      calldataload\n        /* \"src/Groth16Verifier.sol\":7299:7302  576 */\n      0x0240\n        /* \"src/Groth16Verifier.sol\":7288:7297  _pPairing */\n      dup4\n        /* \"src/Groth16Verifier.sol\":7284:7303  add(_pPairing, 576) */\n      add\n        /* \"src/Groth16Verifier.sol\":7277:7322  mstore(add(_pPairing, 576), calldataload(pC)) */\n      mstore\n        /* \"src/Groth16Verifier.sol\":7388:7390  32 */\n      0x20\n        /* \"src/Groth16Verifier.sol\":7384:7386  pC */\n      dup7\n        /* \"src/Groth16Verifier.sol\":7380:7391  add(pC, 32) */\n      add\n        /* \"src/Groth16Verifier.sol\":7367:7392  calldataload(add(pC, 32)) */\n      calldataload\n        /* \"src/Groth16Verifier.sol\":7361:7364  608 */\n      0x0260\n        /* \"src/Groth16Verifier.sol\":7350:7359  _pPairing */\n      dup4\n        /* \"src/Groth16Verifier.sol\":7346:7365  add(_pPairing, 608) */\n      add\n        /* \"src/Groth16Verifier.sol\":7339:7393  mstore(add(_pPairing, 608), calldataload(add(pC, 32))) */\n      mstore\n        /* \"src/Groth16Verifier.sol\":7465:7472  deltax1 */\n      0x03b03cd5effa95ac9bee94f1f5ef907157bda4812ccf0b4c91f42bb629f83a1c\n        /* \"src/Groth16Verifier.sol\":7459:7462  640 */\n      0x0280\n        /* \"src/Groth16Verifier.sol\":7448:7457  _pPairing */\n      dup4\n        /* \"src/Groth16Verifier.sol\":7444:7463  add(_pPairing, 640) */\n      add\n        /* \"src/Groth16Verifier.sol\":7437:7473  mstore(add(_pPairing, 640), deltax1) */\n      mstore\n        /* \"src/Groth16Verifier.sol\":7518:7525  deltax2 */\n      0x1aa085ff28179a12d922dba0547057ccaae94b9d69cfaa4e60401fea7f3e0333\n        /* \"src/Groth16Verifier.sol\":7512:7515  672 */\n      0x02a0\n        /* \"src/Groth16Verifier.sol\":7501:7510  _pPairing */\n      dup4\n        /* \"src/Groth16Verifier.sol\":7497:7516  add(_pPairing, 672) */\n      add\n        /* \"src/Groth16Verifier.sol\":7490:7526  mstore(add(_pPairing, 672), deltax2) */\n      mstore\n        /* \"src/Groth16Verifier.sol\":7571:7578  deltay1 */\n      0x110c10134f200b19f6490846d518c9aea868366efb7228ca5c91d2940d030762\n        /* \"src/Groth16Verifier.sol\":7565:7568  704 */\n      0x02c0\n        /* \"src/Groth16Verifier.sol\":7554:7563  _pPairing */\n      dup4\n        /* \"src/Groth16Verifier.sol\":7550:7569  add(_pPairing, 704) */\n      add\n        /* \"src/Groth16Verifier.sol\":7543:7579  mstore(add(_pPairing, 704), deltay1) */\n      mstore\n        /* \"src/Groth16Verifier.sol\":7624:7631  deltay2 */\n      0x1e60f31fcbf757e837e867178318832d0b2d74d59e2fea1c7142df187d3fc6d3\n        /* \"src/Groth16Verifier.sol\":7618:7621  736 */\n      0x02e0\n        /* \"src/Groth16Verifier.sol\":7607:7616  _pPairing */\n      dup4\n        /* \"src/Groth16Verifier.sol\":7603:7622  add(_pPairing, 736) */\n      add\n        /* \"src/Groth16Verifier.sol\":7596:7632  mstore(add(_pPairing, 736), deltay2) */\n      mstore\n        /* \"src/Groth16Verifier.sol\":7724:7728  0x20 */\n      0x20\n        /* \"src/Groth16Verifier.sol\":7713:7722  _pPairing */\n      dup3\n        /* \"src/Groth16Verifier.sol\":7708:7711  768 */\n      0x0300\n        /* \"src/Groth16Verifier.sol\":7697:7706  _pPairing */\n      dup5\n        /* \"src/Groth16Verifier.sol\":7694:7695  8 */\n      0x08\n        /* \"src/Groth16Verifier.sol\":7687:7691  2000 */\n      0x07d0\n        /* \"src/Groth16Verifier.sol\":7680:7685  gas() */\n      gas\n        /* \"src/Groth16Verifier.sol\":7676:7692  sub(gas(), 2000) */\n      sub\n        /* \"src/Groth16Verifier.sol\":7665:7729  staticcall(sub(gas(), 2000), 8, _pPairing, 768, _pPairing, 0x20) */\n      staticcall\n        /* \"src/Groth16Verifier.sol\":7774:7783  _pPairing */\n      dup3\n        /* \"src/Groth16Verifier.sol\":7768:7784  mload(_pPairing) */\n      mload\n        /* \"src/Groth16Verifier.sol\":7759:7766  success */\n      dup2\n        /* \"src/Groth16Verifier.sol\":7755:7785  and(success, mload(_pPairing)) */\n      and\n        /* \"src/Groth16Verifier.sol\":7747:7785  isOk := and(success, mload(_pPairing)) */\n      swap4\n      pop\n        /* \"src/Groth16Verifier.sol\":5372:7799  {... */\n      pop\n      pop\n      pop\n        /* \"src/Groth16Verifier.sol\":5312:7799  function checkPairing(pA, pB, pC, pubSignals, pMem) -> isOk {... */\n      swap6\n      swap5\n      pop\n      pop\n      pop\n      pop\n      pop\n      jump\t// out\n    tag_54:\n        /* \"src/Groth16Verifier.sol\":7831:7835  0x40 */\n      0x40\n        /* \"src/Groth16Verifier.sol\":7825:7836  mload(0x40) */\n      mload\n        /* \"src/Groth16Verifier.sol\":7872:7880  pLastMem */\n      0x0380\n        /* \"src/Groth16Verifier.sol\":7866:7870  pMem */\n      dup2\n        /* \"src/Groth16Verifier.sol\":7862:7881  add(pMem, pLastMem) */\n      add\n        /* \"src/Groth16Verifier.sol\":7856:7860  0x40 */\n      0x40\n        /* \"src/Groth16Verifier.sol\":7849:7882  mstore(0x40, add(pMem, pLastMem)) */\n      mstore\n        /* \"src/Groth16Verifier.sol\":7948:7993  checkField(calldataload(add(_pubSignals, 0))) */\n      tag_66\n        /* \"src/Groth16Verifier.sol\":7989:7990  0 */\n      0x00\n        /* \"src/Groth16Verifier.sol\":7976:7987  _pubSignals */\n      dup5\n        /* \"src/Groth16Verifier.sol\":7972:7991  add(_pubSignals, 0) */\n      add\n        /* \"src/Groth16Verifier.sol\":7959:7992  calldataload(add(_pubSignals, 0)) */\n      calldataload\n        /* \"src/Groth16Verifier.sol\":7948:7993  checkField(calldataload(add(_pubSignals, 0))) */\n      tag_51\n      jump\t// in\n    tag_66:\n        /* \"src/Groth16Verifier.sol\":8007:8053  checkField(calldataload(add(_pubSignals, 32))) */\n      tag_67\n        /* \"src/Groth16Verifier.sol\":8048:8050  32 */\n      0x20\n        /* \"src/Groth16Verifier.sol\":8035:8046  _pubSignals */\n      dup5\n        /* \"src/Groth16Verifier.sol\":8031:8051  add(_pubSignals, 32) */\n      add\n        /* \"src/Groth16Verifier.sol\":8018:8052  calldataload(add(_pubSignals, 32)) */\n      calldataload\n        /* \"src/Groth16Verifier.sol\":8007:8053  checkField(calldataload(add(_pubSignals, 32))) */\n      tag_51\n      jump\t// in\n    tag_67:\n        /* \"src/Groth16Verifier.sol\":8067:8113  checkField(calldataload(add(_pubSignals, 64))) */\n      tag_68\n        /* \"src/Groth16Verifier.sol\":8108:8110  64 */\n      0x40\n        /* \"src/Groth16Verifier.sol\":8095:8106  _pubSignals */\n      dup5\n        /* \"src/Groth16Verifier.sol\":8091:8111  add(_pubSignals, 64) */\n      add\n        /* \"src/Groth16Verifier.sol\":8078:8112  calldataload(add(_pubSignals, 64)) */\n      calldataload\n        /* \"src/Groth16Verifier.sol\":8067:8113  checkField(calldataload(add(_pubSignals, 64))) */\n      tag_51\n      jump\t// in\n    tag_68:\n        /* \"src/Groth16Verifier.sol\":8127:8173  checkField(calldataload(add(_pubSignals, 96))) */\n      tag_69\n        /* \"src/Groth16Verifier.sol\":8168:8170  96 */\n      0x60\n        /* \"src/Groth16Verifier.sol\":8155:8166  _pubSignals */\n      dup5\n        /* \"src/Groth16Verifier.sol\":8151:8171  add(_pubSignals, 96) */\n      add\n        /* \"src/Groth16Verifier.sol\":8138:8172  calldataload(add(_pubSignals, 96)) */\n      calldataload\n        /* \"src/Groth16Verifier.sol\":8127:8173  checkField(calldataload(add(_pubSignals, 96))) */\n      tag_51\n      jump\t// in\n    tag_69:\n        /* \"src/Groth16Verifier.sol\":8187:8234  checkField(calldataload(add(_pubSignals, 128))) */\n      tag_70\n        /* \"src/Groth16Verifier.sol\":8228:8231  128 */\n      0x80\n        /* \"src/Groth16Verifier.sol\":8215:8226  _pubSignals */\n      dup5\n        /* \"src/Groth16Verifier.sol\":8211:8232  add(_pubSignals, 128) */\n      add\n        /* \"src/Groth16Verifier.sol\":8198:8233  calldataload(add(_pubSignals, 128)) */\n      calldataload\n        /* \"src/Groth16Verifier.sol\":8187:8234  checkField(calldataload(add(_pubSignals, 128))) */\n      tag_51\n      jump\t// in\n    tag_70:\n        /* \"src/Groth16Verifier.sol\":8248:8295  checkField(calldataload(add(_pubSignals, 160))) */\n      tag_71\n        /* \"src/Groth16Verifier.sol\":8289:8292  160 */\n      0xa0\n        /* \"src/Groth16Verifier.sol\":8276:8287  _pubSignals */\n      dup5\n        /* \"src/Groth16Verifier.sol\":8272:8293  add(_pubSignals, 160) */\n      add\n        /* \"src/Groth16Verifier.sol\":8259:8294  calldataload(add(_pubSignals, 160)) */\n      calldataload\n        /* \"src/Groth16Verifier.sol\":8248:8295  checkField(calldataload(add(_pubSignals, 160))) */\n      tag_51\n      jump\t// in\n    tag_71:\n        /* \"src/Groth16Verifier.sol\":8364:8410  checkPairing(_pA, _pB, _pC, _pubSignals, pMem) */\n      tag_72\n        /* \"src/Groth16Verifier.sol\":8405:8409  pMem */\n      dup2\n        /* \"src/Groth16Verifier.sol\":8392:8403  _pubSignals */\n      dup5\n        /* \"src/Groth16Verifier.sol\":8387:8390  _pC */\n      dup7\n        /* \"src/Groth16Verifier.sol\":8382:8385  _pB */\n      dup9\n        /* \"src/Groth16Verifier.sol\":8377:8380  _pA */\n      dup11\n        /* \"src/Groth16Verifier.sol\":8364:8410  checkPairing(_pA, _pB, _pC, _pubSignals, pMem) */\n      tag_53\n      jump\t// in\n    tag_72:\n        /* \"src/Groth16Verifier.sol\":8434:8441  isValid */\n      dup1\n        /* \"src/Groth16Verifier.sol\":8431:8432  0 */\n      0x00\n        /* \"src/Groth16Verifier.sol\":8424:8442  mstore(0, isValid) */\n      mstore\n        /* \"src/Groth16Verifier.sol\":8465:8469  0x20 */\n      0x20\n        /* \"src/Groth16Verifier.sol\":8462:8463  0 */\n      0x00\n        /* \"src/Groth16Verifier.sol\":8455:8470  return(0, 0x20) */\n      return\n        /* \"src/RiscZeroGroth16Verifier.sol\":2918:2957  bytes16 public immutable CONTROL_ROOT_1 */\n    tag_31:\n      immutable(\"0x8c235ed3b86a1ac1e855267754bbcf1665c193b5025bb08af6cdf2550ce7be08\")\n      dup2\n      jump\t// out\n        /* \"src/RiscZeroGroth16Verifier.sol\":2873:2912  bytes16 public immutable CONTROL_ROOT_0 */\n    tag_35:\n      immutable(\"0xe4ad328e682e1b9d178f762912aa8aef76fc69accb36cf5ea75238917f044183\")\n      dup2\n      jump\t// out\n        /* \"src/RiscZeroGroth16Verifier.sol\":6791:7038  function verify(... */\n    tag_40:\n        /* \"src/RiscZeroGroth16Verifier.sol\":6922:7031  _verifyIntegrity(... */\n      tag_74\n        /* \"src/RiscZeroGroth16Verifier.sol\":6952:6956  seal */\n      dup5\n      dup5\n        /* \"src/RiscZeroGroth16Verifier.sol\":6970:7021  ReceiptClaimLib.ok(imageId, journalDigest).digest() */\n      tag_75\n        /* \"src/RiscZeroGroth16Verifier.sol\":6970:7012  ReceiptClaimLib.ok(imageId, journalDigest) */\n      tag_76\n        /* \"src/RiscZeroGroth16Verifier.sol\":6989:6996  imageId */\n      dup7\n        /* \"src/RiscZeroGroth16Verifier.sol\":6998:7011  journalDigest */\n      dup7\n        /* \"src/RiscZeroGroth16Verifier.sol\":6970:6988  ReceiptClaimLib.ok */\n      tag_77\n        /* \"src/RiscZeroGroth16Verifier.sol\":6970:7012  ReceiptClaimLib.ok(imageId, journalDigest) */\n      jump\t// in\n    tag_76:\n        /* \"src/RiscZeroGroth16Verifier.sol\":6970:7019  ReceiptClaimLib.ok(imageId, journalDigest).digest */\n      tag_78\n        /* \"src/RiscZeroGroth16Verifier.sol\":6970:7021  ReceiptClaimLib.ok(imageId, journalDigest).digest() */\n      jump\t// in\n    tag_75:\n        /* \"src/RiscZeroGroth16Verifier.sol\":6922:6938  _verifyIntegrity */\n      tag_49\n        /* \"src/RiscZeroGroth16Verifier.sol\":6922:7031  _verifyIntegrity(... */\n      jump\t// in\n    tag_74:\n        /* \"src/RiscZeroGroth16Verifier.sol\":6791:7038  function verify(... */\n      pop\n      pop\n      pop\n      pop\n      jump\t// out\n        /* \"src/RiscZeroGroth16Verifier.sol\":2220:2260  string public constant VERSION = \"1.2.0\" */\n    tag_42:\n      mload(0x40)\n      dup1\n      0x40\n      add\n      0x40\n      mstore\n      dup1\n      0x05\n      dup2\n      mstore\n      0x20\n      add\n      0x312e322e30000000000000000000000000000000000000000000000000000000\n      dup2\n      mstore\n      pop\n      dup2\n      jump\t// out\n        /* \"src/RiscZeroGroth16Verifier.sol\":7340:8539  function _verifyIntegrity(... */\n    tag_49:\n        /* \"src/RiscZeroGroth16Verifier.sol\":7692:7696  seal */\n      dup3\n      dup3\n        /* \"src/RiscZeroGroth16Verifier.sol\":7692:7700  seal[:4] */\n      0x00\n      swap1\n        /* \"src/RiscZeroGroth16Verifier.sol\":7698:7699  4 */\n      0x04\n        /* \"src/RiscZeroGroth16Verifier.sol\":7692:7700  seal[:4] */\n      swap3\n      tag_80\n      swap4\n      swap3\n      swap2\n      swap1\n      tag_81\n      jump\t// in\n    tag_80:\n        /* \"src/RiscZeroGroth16Verifier.sol\":7685:7701  bytes4(seal[:4]) */\n      swap1\n      tag_82\n      swap2\n      swap1\n      tag_83\n      jump\t// in\n    tag_82:\n        /* \"src/RiscZeroGroth16Verifier.sol\":7673:7701  SELECTOR != bytes4(seal[:4]) */\n      not(0xffffffffffffffffffffffffffffffffffffffffffffffffffffffff)\n      and\n        /* \"src/RiscZeroGroth16Verifier.sol\":7673:7681  SELECTOR */\n      immutable(\"0xc2bf06a32c7e2f802720de0558076df760b4e7d00b99b73487e64ae209e63f15\")\n        /* \"src/RiscZeroGroth16Verifier.sol\":7673:7701  SELECTOR != bytes4(seal[:4]) */\n      not(0xffffffffffffffffffffffffffffffffffffffffffffffffffffffff)\n      and\n      eq\n        /* \"src/RiscZeroGroth16Verifier.sol\":7669:7847  if (SELECTOR != bytes4(seal[:4])) {... */\n      tag_84\n      jumpi\n        /* \"src/RiscZeroGroth16Verifier.sol\":7776:7780  seal */\n      dup3\n      dup3\n        /* \"src/RiscZeroGroth16Verifier.sol\":7776:7784  seal[:4] */\n      0x00\n      swap1\n        /* \"src/RiscZeroGroth16Verifier.sol\":7782:7783  4 */\n      0x04\n        /* \"src/RiscZeroGroth16Verifier.sol\":7776:7784  seal[:4] */\n      swap3\n      tag_85\n      swap4\n      swap3\n      swap2\n      swap1\n      tag_81\n      jump\t// in\n    tag_85:\n        /* \"src/RiscZeroGroth16Verifier.sol\":7769:7785  bytes4(seal[:4]) */\n      swap1\n      tag_86\n      swap2\n      swap1\n      tag_83\n      jump\t// in\n    tag_86:\n        /* \"src/RiscZeroGroth16Verifier.sol\":7813:7821  SELECTOR */\n      immutable(\"0xc2bf06a32c7e2f802720de0558076df760b4e7d00b99b73487e64ae209e63f15\")\n        /* \"src/RiscZeroGroth16Verifier.sol\":7724:7836  SelectorMismatch({... */\n      mload(0x40)\n      0xb8b38d4c00000000000000000000000000000000000000000000000000000000\n      dup2\n      mstore\n      0x04\n      add\n      tag_87\n      swap3\n      swap2\n      swap1\n      tag_88\n      jump\t// in\n    tag_87:\n      mload(0x40)\n      dup1\n      swap2\n      sub\n      swap1\n      revert\n        /* \"src/RiscZeroGroth16Verifier.sol\":7669:7847  if (SELECTOR != bytes4(seal[:4])) {... */\n    tag_84:\n        /* \"src/RiscZeroGroth16Verifier.sol\":7903:7917  bytes16 claim0 */\n      0x00\n        /* \"src/RiscZeroGroth16Verifier.sol\":7919:7933  bytes16 claim1 */\n      dup1\n        /* \"src/RiscZeroGroth16Verifier.sol\":7937:7961  splitDigest(claimDigest) */\n      tag_89\n        /* \"src/RiscZeroGroth16Verifier.sol\":7949:7960  claimDigest */\n      dup4\n        /* \"src/RiscZeroGroth16Verifier.sol\":7937:7948  splitDigest */\n      tag_90\n        /* \"src/RiscZeroGroth16Verifier.sol\":7937:7961  splitDigest(claimDigest) */\n      jump\t// in\n    tag_89:\n        /* \"src/RiscZeroGroth16Verifier.sol\":7902:7961  (bytes16 claim0, bytes16 claim1) = splitDigest(claimDigest) */\n      swap2\n      pop\n      swap2\n      pop\n        /* \"src/RiscZeroGroth16Verifier.sol\":7971:7994  Seal memory decodedSeal */\n      0x00\n        /* \"src/RiscZeroGroth16Verifier.sol\":8008:8012  seal */\n      dup6\n      dup6\n        /* \"src/RiscZeroGroth16Verifier.sol\":8013:8014  4 */\n      0x04\n        /* \"src/RiscZeroGroth16Verifier.sol\":8008:8016  seal[4:] */\n      swap1\n      dup1\n      swap3\n      tag_91\n      swap4\n      swap3\n      swap2\n      swap1\n      tag_81\n      jump\t// in\n    tag_91:\n        /* \"src/RiscZeroGroth16Verifier.sol\":7997:8025  abi.decode(seal[4:], (Seal)) */\n      dup2\n      add\n      swap1\n      tag_92\n      swap2\n      swap1\n      tag_93\n      jump\t// in\n    tag_92:\n        /* \"src/RiscZeroGroth16Verifier.sol\":7971:8025  Seal memory decodedSeal = abi.decode(seal[4:], (Seal)) */\n      swap1\n      pop\n        /* \"src/RiscZeroGroth16Verifier.sol\":8035:8048  bool verified */\n      0x00\n        /* \"src/RiscZeroGroth16Verifier.sol\":8051:8055  this */\n      address\n        /* \"src/RiscZeroGroth16Verifier.sol\":8051:8067  this.verifyProof */\n      0xffffffffffffffffffffffffffffffffffffffff\n      and\n      0x34baeab9\n        /* \"src/RiscZeroGroth16Verifier.sol\":8081:8092  decodedSeal */\n      dup4\n        /* \"src/RiscZeroGroth16Verifier.sol\":8081:8094  decodedSeal.a */\n      0x00\n      add\n      mload\n        /* \"src/RiscZeroGroth16Verifier.sol\":8108:8119  decodedSeal */\n      dup5\n        /* \"src/RiscZeroGroth16Verifier.sol\":8108:8121  decodedSeal.b */\n      0x20\n      add\n      mload\n        /* \"src/RiscZeroGroth16Verifier.sol\":8135:8146  decodedSeal */\n      dup6\n        /* \"src/RiscZeroGroth16Verifier.sol\":8135:8148  decodedSeal.c */\n      0x40\n      add\n      mload\n        /* \"src/RiscZeroGroth16Verifier.sol\":8051:8413  this.verifyProof(... */\n      mload(0x40)\n      dup1\n      0xa0\n      add\n      0x40\n      mstore\n      dup1\n        /* \"src/RiscZeroGroth16Verifier.sol\":8196:8210  CONTROL_ROOT_0 */\n      immutable(\"0xe4ad328e682e1b9d178f762912aa8aef76fc69accb36cf5ea75238917f044183\")\n        /* \"src/RiscZeroGroth16Verifier.sol\":8188:8211  uint128(CONTROL_ROOT_0) */\n      0x80\n      shr\n        /* \"src/RiscZeroGroth16Verifier.sol\":8180:8212  uint256(uint128(CONTROL_ROOT_0)) */\n      0xffffffffffffffffffffffffffffffff\n      and\n        /* \"src/RiscZeroGroth16Verifier.sol\":8051:8413  this.verifyProof(... */\n      dup2\n      mstore\n      0x20\n      add\n        /* \"src/RiscZeroGroth16Verifier.sol\":8246:8260  CONTROL_ROOT_1 */\n      immutable(\"0x8c235ed3b86a1ac1e855267754bbcf1665c193b5025bb08af6cdf2550ce7be08\")\n        /* \"src/RiscZeroGroth16Verifier.sol\":8238:8261  uint128(CONTROL_ROOT_1) */\n      0x80\n      shr\n        /* \"src/RiscZeroGroth16Verifier.sol\":8230:8262  uint256(uint128(CONTROL_ROOT_1)) */\n      0xffffffffffffffffffffffffffffffff\n      and\n        /* \"src/RiscZeroGroth16Verifier.sol\":8051:8413  this.verifyProof(... */\n      dup2\n      mstore\n      0x20\n      add\n        /* \"src/RiscZeroGroth16Verifier.sol\":8296:8302  claim0 */\n      dup11\n        /* \"src/RiscZeroGroth16Verifier.sol\":8288:8303  uint128(claim0) */\n      0x80\n      shr\n        /* \"src/RiscZeroGroth16Verifier.sol\":8280:8304  uint256(uint128(claim0)) */\n      0xffffffffffffffffffffffffffffffff\n      and\n        /* \"src/RiscZeroGroth16Verifier.sol\":8051:8413  this.verifyProof(... */\n      dup2\n      mstore\n      0x20\n      add\n        /* \"src/RiscZeroGroth16Verifier.sol\":8338:8344  claim1 */\n      dup10\n        /* \"src/RiscZeroGroth16Verifier.sol\":8330:8345  uint128(claim1) */\n      0x80\n      shr\n        /* \"src/RiscZeroGroth16Verifier.sol\":8322:8346  uint256(uint128(claim1)) */\n      0xffffffffffffffffffffffffffffffff\n      and\n        /* \"src/RiscZeroGroth16Verifier.sol\":8051:8413  this.verifyProof(... */\n      dup2\n      mstore\n      0x20\n      add\n        /* \"src/RiscZeroGroth16Verifier.sol\":8372:8388  BN254_CONTROL_ID */\n      immutable(\"0x919abd3742787aad2c59c21783df5b48e41ff710bae3c19e7d78dfdc39ef5df6\")\n        /* \"src/RiscZeroGroth16Verifier.sol\":8364:8389  uint256(BN254_CONTROL_ID) */\n      0x00\n      shr\n        /* \"src/RiscZeroGroth16Verifier.sol\":8051:8413  this.verifyProof(... */\n      dup2\n      mstore\n      pop\n      mload(0x40)\n      dup6\n      0xffffffff\n      and\n      0xe0\n      shl\n      dup2\n      mstore\n      0x04\n      add\n      tag_94\n      swap5\n      swap4\n      swap3\n      swap2\n      swap1\n      tag_95\n      jump\t// in\n    tag_94:\n      0x20\n      mload(0x40)\n      dup1\n      dup4\n      sub\n      dup2\n      dup7\n      gas\n      staticcall\n      iszero\n      dup1\n      iszero\n      tag_97\n      jumpi\n      returndatasize\n      0x00\n      dup1\n      returndatacopy\n      revert(0x00, returndatasize)\n    tag_97:\n      pop\n      pop\n      pop\n      pop\n      mload(0x40)\n      returndatasize\n      not(0x1f)\n      0x1f\n      dup3\n      add\n      and\n      dup3\n      add\n      dup1\n      0x40\n      mstore\n      pop\n      dup2\n      add\n      swap1\n      tag_98\n      swap2\n      swap1\n      tag_99\n      jump\t// in\n    tag_98:\n        /* \"src/RiscZeroGroth16Verifier.sol\":8035:8413  bool verified = this.verifyProof(... */\n      swap1\n      pop\n        /* \"src/RiscZeroGroth16Verifier.sol\":8471:8479  verified */\n      dup1\n        /* \"src/RiscZeroGroth16Verifier.sol\":8466:8533  if (!verified) {... */\n      tag_100\n      jumpi\n        /* \"src/RiscZeroGroth16Verifier.sol\":8502:8522  VerificationFailed() */\n      mload(0x40)\n      0x439cc0cd00000000000000000000000000000000000000000000000000000000\n      dup2\n      mstore\n      0x04\n      add\n      mload(0x40)\n      dup1\n      swap2\n      sub\n      swap1\n      revert\n        /* \"src/RiscZeroGroth16Verifier.sol\":8466:8533  if (!verified) {... */\n    tag_100:\n        /* \"src/RiscZeroGroth16Verifier.sol\":7444:8539  {... */\n      pop\n      pop\n      pop\n      pop\n        /* \"src/RiscZeroGroth16Verifier.sol\":7340:8539  function _verifyIntegrity(... */\n      pop\n      pop\n      pop\n      jump\t// out\n        /* \"src/interfaces/IRiscZeroVerifier.sol\":3497:3884  function ok(... */\n    tag_77:\n        /* \"src/interfaces/IRiscZeroVerifier.sol\":3594:3613  ReceiptClaim memory */\n      tag_101\n      tag_102\n      jump\t// in\n    tag_101:\n        /* \"src/interfaces/IRiscZeroVerifier.sol\":3644:3877  ReceiptClaim(... */\n      mload(0x40)\n      dup1\n      0xa0\n      add\n      0x40\n      mstore\n      dup1\n        /* \"src/interfaces/IRiscZeroVerifier.sol\":3674:3681  imageId */\n      dup5\n        /* \"src/interfaces/IRiscZeroVerifier.sol\":3644:3877  ReceiptClaim(... */\n      dup2\n      mstore\n      0x20\n      add\n        /* \"src/interfaces/IRiscZeroVerifier.sol\":2754:2820  0xa3acc27117418996340b84e5a90f3ef4c49d22c79e44aad822ec9c313e1eb8e2 */\n      0xa3acc27117418996340b84e5a90f3ef4c49d22c79e44aad822ec9c313e1eb8e2\n        /* \"src/interfaces/IRiscZeroVerifier.sol\":3699:3723  SYSTEM_STATE_ZERO_DIGEST */\n      0x00\n      shl\n        /* \"src/interfaces/IRiscZeroVerifier.sol\":3644:3877  ReceiptClaim(... */\n      dup2\n      mstore\n      0x20\n      add\n        /* \"src/interfaces/IRiscZeroVerifier.sol\":3741:3775  ExitCode(SystemExitCode.Halted, 0) */\n      mload(0x40)\n      dup1\n      0x40\n      add\n      0x40\n      mstore\n      dup1\n        /* \"src/interfaces/IRiscZeroVerifier.sol\":3750:3771  SystemExitCode.Halted */\n      0x00\n        /* \"src/interfaces/IRiscZeroVerifier.sol\":3741:3775  ExitCode(SystemExitCode.Halted, 0) */\n      0x02\n      dup2\n      gt\n      iszero\n      tag_104\n      jumpi\n      tag_105\n      tag_106\n      jump\t// in\n    tag_105:\n    tag_104:\n      dup2\n      mstore\n      0x20\n      add\n        /* \"src/interfaces/IRiscZeroVerifier.sol\":3773:3774  0 */\n      0x00\n        /* \"src/interfaces/IRiscZeroVerifier.sol\":3741:3775  ExitCode(SystemExitCode.Halted, 0) */\n      0xff\n      and\n      dup2\n      mstore\n      pop\n        /* \"src/interfaces/IRiscZeroVerifier.sol\":3644:3877  ReceiptClaim(... */\n      dup2\n      mstore\n      0x20\n      add\n        /* \"src/interfaces/IRiscZeroVerifier.sol\":3801:3802  0 */\n      0x00\n        /* \"src/interfaces/IRiscZeroVerifier.sol\":3793:3803  bytes32(0) */\n      dup1\n      shl\n        /* \"src/interfaces/IRiscZeroVerifier.sol\":3644:3877  ReceiptClaim(... */\n      dup2\n      mstore\n      0x20\n      add\n        /* \"src/interfaces/IRiscZeroVerifier.sol\":3821:3863  Output(journalDigest, bytes32(0)).digest() */\n      tag_107\n        /* \"src/interfaces/IRiscZeroVerifier.sol\":3821:3854  Output(journalDigest, bytes32(0)) */\n      mload(0x40)\n      dup1\n      0x40\n      add\n      0x40\n      mstore\n      dup1\n        /* \"src/interfaces/IRiscZeroVerifier.sol\":3828:3841  journalDigest */\n      dup7\n        /* \"src/interfaces/IRiscZeroVerifier.sol\":3821:3854  Output(journalDigest, bytes32(0)) */\n      dup2\n      mstore\n      0x20\n      add\n        /* \"src/interfaces/IRiscZeroVerifier.sol\":3851:3852  0 */\n      0x00\n        /* \"src/interfaces/IRiscZeroVerifier.sol\":3843:3853  bytes32(0) */\n      dup1\n      shl\n        /* \"src/interfaces/IRiscZeroVerifier.sol\":3821:3854  Output(journalDigest, bytes32(0)) */\n      dup2\n      mstore\n      pop\n        /* \"src/interfaces/IRiscZeroVerifier.sol\":3821:3861  Output(journalDigest, bytes32(0)).digest */\n      tag_108\n        /* \"src/interfaces/IRiscZeroVerifier.sol\":3821:3863  Output(journalDigest, bytes32(0)).digest() */\n      jump\t// in\n    tag_107:\n        /* \"src/interfaces/IRiscZeroVerifier.sol\":3644:3877  ReceiptClaim(... */\n      dup2\n      mstore\n      pop\n        /* \"src/interfaces/IRiscZeroVerifier.sol\":3625:3877  return... */\n      swap1\n      pop\n        /* \"src/interfaces/IRiscZeroVerifier.sol\":3497:3884  function ok(... */\n      swap3\n      swap2\n      pop\n      pop\n      jump\t// out\n        /* \"src/interfaces/IRiscZeroVerifier.sol\":3890:4496  function digest(ReceiptClaim memory claim) internal pure returns (bytes32) {... */\n    tag_78:\n        /* \"src/interfaces/IRiscZeroVerifier.sol\":3956:3963  bytes32 */\n      0x00\n        /* \"src/interfaces/IRiscZeroVerifier.sol\":3994:4489  sha256(... */\n      0x02\n        /* \"src/interfaces/IRiscZeroVerifier.sol\":2503:2531  sha256(\"risc0.ReceiptClaim\") */\n      dup1\n      mload(0x40)\n      tag_110\n      swap1\n      tag_111\n      jump\t// in\n    tag_110:\n      0x20\n      mload(0x40)\n      dup1\n      dup4\n      sub\n      dup2\n      dup6\n      gas\n      staticcall\n      iszero\n      dup1\n      iszero\n      tag_113\n      jumpi\n      returndatasize\n      0x00\n      dup1\n      returndatacopy\n      revert(0x00, returndatasize)\n    tag_113:\n      pop\n      pop\n      pop\n      mload(0x40)\n      returndatasize\n      not(0x1f)\n      0x1f\n      dup3\n      add\n      and\n      dup3\n      add\n      dup1\n      0x40\n      mstore\n      pop\n      dup2\n      add\n      swap1\n      tag_114\n      swap2\n      swap1\n      tag_115\n      jump\t// in\n    tag_114:\n        /* \"src/interfaces/IRiscZeroVerifier.sol\":4116:4121  claim */\n      dup4\n        /* \"src/interfaces/IRiscZeroVerifier.sol\":4116:4127  claim.input */\n      0x60\n      add\n      mload\n        /* \"src/interfaces/IRiscZeroVerifier.sol\":4149:4154  claim */\n      dup5\n        /* \"src/interfaces/IRiscZeroVerifier.sol\":4149:4169  claim.preStateDigest */\n      0x00\n      add\n      mload\n        /* \"src/interfaces/IRiscZeroVerifier.sol\":4191:4196  claim */\n      dup6\n        /* \"src/interfaces/IRiscZeroVerifier.sol\":4191:4212  claim.postStateDigest */\n      0x20\n      add\n      mload\n        /* \"src/interfaces/IRiscZeroVerifier.sol\":4234:4239  claim */\n      dup7\n        /* \"src/interfaces/IRiscZeroVerifier.sol\":4234:4246  claim.output */\n      0x80\n      add\n      mload\n        /* \"src/interfaces/IRiscZeroVerifier.sol\":4329:4331  24 */\n      0x18\n        /* \"src/interfaces/IRiscZeroVerifier.sol\":4303:4308  claim */\n      dup9\n        /* \"src/interfaces/IRiscZeroVerifier.sol\":4303:4317  claim.exitCode */\n      0x40\n      add\n      mload\n        /* \"src/interfaces/IRiscZeroVerifier.sol\":4303:4324  claim.exitCode.system */\n      0x00\n      add\n      mload\n        /* \"src/interfaces/IRiscZeroVerifier.sol\":4296:4325  uint32(claim.exitCode.system) */\n      0x02\n      dup2\n      gt\n      iszero\n      tag_116\n      jumpi\n      tag_117\n      tag_106\n      jump\t// in\n    tag_117:\n    tag_116:\n        /* \"src/interfaces/IRiscZeroVerifier.sol\":4296:4331  uint32(claim.exitCode.system) << 24 */\n      0xffffffff\n      and\n      swap1\n      shl\n        /* \"src/interfaces/IRiscZeroVerifier.sol\":4384:4386  24 */\n      0x18\n        /* \"src/interfaces/IRiscZeroVerifier.sol\":4360:4365  claim */\n      dup10\n        /* \"src/interfaces/IRiscZeroVerifier.sol\":4360:4374  claim.exitCode */\n      0x40\n      add\n      mload\n        /* \"src/interfaces/IRiscZeroVerifier.sol\":4360:4379  claim.exitCode.user */\n      0x20\n      add\n      mload\n        /* \"src/interfaces/IRiscZeroVerifier.sol\":4353:4380  uint32(claim.exitCode.user) */\n      0xff\n      and\n        /* \"src/interfaces/IRiscZeroVerifier.sol\":4353:4386  uint32(claim.exitCode.user) << 24 */\n      0xffffffff\n      and\n      swap1\n      shl\n        /* \"src/interfaces/IRiscZeroVerifier.sol\":4456:4457  8 */\n      0x08\n        /* \"src/interfaces/IRiscZeroVerifier.sol\":4450:4451  4 */\n      0x04\n        /* \"src/interfaces/IRiscZeroVerifier.sol\":4443:4457  uint16(4) << 8 */\n      0xffff\n      and\n      swap1\n      shl\n        /* \"src/interfaces/IRiscZeroVerifier.sol\":4018:4475  abi.encodePacked(... */\n      add(0x20, mload(0x40))\n      tag_118\n      swap9\n      swap8\n      swap7\n      swap6\n      swap5\n      swap4\n      swap3\n      swap2\n      swap1\n      tag_119\n      jump\t// in\n    tag_118:\n      mload(0x40)\n      0x20\n      dup2\n      dup4\n      sub\n      sub\n      dup2\n      mstore\n      swap1\n      0x40\n      mstore\n        /* \"src/interfaces/IRiscZeroVerifier.sol\":3994:4489  sha256(... */\n      mload(0x40)\n      tag_120\n      swap2\n      swap1\n      tag_121\n      jump\t// in\n    tag_120:\n      0x20\n      mload(0x40)\n      dup1\n      dup4\n      sub\n      dup2\n      dup6\n      gas\n      staticcall\n      iszero\n      dup1\n      iszero\n      tag_123\n      jumpi\n      returndatasize\n      0x00\n      dup1\n      returndatacopy\n      revert(0x00, returndatasize)\n    tag_123:\n      pop\n      pop\n      pop\n      mload(0x40)\n      returndatasize\n      not(0x1f)\n      0x1f\n      dup3\n      add\n      and\n      dup3\n      add\n      dup1\n      0x40\n      mstore\n      pop\n      dup2\n      add\n      swap1\n      tag_124\n      swap2\n      swap1\n      tag_115\n      jump\t// in\n    tag_124:\n        /* \"src/interfaces/IRiscZeroVerifier.sol\":3975:4489  return... */\n      swap1\n      pop\n        /* \"src/interfaces/IRiscZeroVerifier.sol\":3890:4496  function digest(ReceiptClaim memory claim) internal pure returns (bytes32) {... */\n      swap2\n      swap1\n      pop\n      jump\t// out\n        /* \"src/RiscZeroGroth16Verifier.sol\":6499:6747  function splitDigest(... */\n    tag_90:\n        /* \"src/RiscZeroGroth16Verifier.sol\":6573:6580  bytes16 */\n      0x00\n        /* \"src/RiscZeroGroth16Verifier.sol\":6582:6589  bytes16 */\n      dup1\n        /* \"src/RiscZeroGroth16Verifier.sol\":6601:6617  uint256 reversed */\n      0x00\n        /* \"src/RiscZeroGroth16Verifier.sol\":6620:6660  reverseByteOrderUint256(uint256(digest)) */\n      tag_126\n        /* \"src/RiscZeroGroth16Verifier.sol\":6652:6658  digest */\n      dup5\n        /* \"src/RiscZeroGroth16Verifier.sol\":6644:6659  uint256(digest) */\n      0x00\n      shr\n        /* \"src/RiscZeroGroth16Verifier.sol\":6620:6643  reverseByteOrderUint256 */\n      tag_127\n        /* \"src/RiscZeroGroth16Verifier.sol\":6620:6660  reverseByteOrderUint256(uint256(digest)) */\n      jump\t// in\n    tag_126:\n        /* \"src/RiscZeroGroth16Verifier.sol\":6601:6660  uint256 reversed = reverseByteOrderUint256(uint256(digest)) */\n      swap1\n      pop\n        /* \"src/RiscZeroGroth16Verifier.sol\":6694:6702  reversed */\n      dup1\n        /* \"src/RiscZeroGroth16Verifier.sol\":6678:6704  bytes16(uint128(reversed)) */\n      0x80\n      shl\n        /* \"src/RiscZeroGroth16Verifier.sol\":6734:6737  128 */\n      0x80\n        /* \"src/RiscZeroGroth16Verifier.sol\":6722:6730  reversed */\n      dup3\n        /* \"src/RiscZeroGroth16Verifier.sol\":6722:6737  reversed >> 128 */\n      swap1\n      shr\n        /* \"src/RiscZeroGroth16Verifier.sol\":6706:6739  bytes16(uint128(reversed >> 128)) */\n      0x80\n      shl\n        /* \"src/RiscZeroGroth16Verifier.sol\":6670:6740  return (bytes16(uint128(reversed)), bytes16(uint128(reversed >> 128))) */\n      swap3\n      pop\n      swap3\n      pop\n      pop\n        /* \"src/RiscZeroGroth16Verifier.sol\":6499:6747  function splitDigest(... */\n      swap2\n      pop\n      swap2\n      jump\t// out\n        /* \"src/interfaces/IRiscZeroVerifier.sol\":8089:8486  function digest(Output memory output) internal pure returns (bytes32) {... */\n    tag_108:\n        /* \"src/interfaces/IRiscZeroVerifier.sol\":8150:8157  bytes32 */\n      0x00\n        /* \"src/interfaces/IRiscZeroVerifier.sol\":8188:8479  sha256(... */\n      0x02\n        /* \"src/interfaces/IRiscZeroVerifier.sol\":8060:8082  sha256(\"risc0.Output\") */\n      dup1\n      mload(0x40)\n      tag_129\n      swap1\n      tag_130\n      jump\t// in\n    tag_129:\n      0x20\n      mload(0x40)\n      dup1\n      dup4\n      sub\n      dup2\n      dup6\n      gas\n      staticcall\n      iszero\n      dup1\n      iszero\n      tag_132\n      jumpi\n      returndatasize\n      0x00\n      dup1\n      returndatacopy\n      revert(0x00, returndatasize)\n    tag_132:\n      pop\n      pop\n      pop\n      mload(0x40)\n      returndatasize\n      not(0x1f)\n      0x1f\n      dup3\n      add\n      and\n      dup3\n      add\n      dup1\n      0x40\n      mstore\n      pop\n      dup2\n      add\n      swap1\n      tag_133\n      swap2\n      swap1\n      tag_115\n      jump\t// in\n    tag_133:\n        /* \"src/interfaces/IRiscZeroVerifier.sol\":8310:8316  output */\n      dup4\n        /* \"src/interfaces/IRiscZeroVerifier.sol\":8310:8330  output.journalDigest */\n      0x00\n      add\n      mload\n        /* \"src/interfaces/IRiscZeroVerifier.sol\":8352:8358  output */\n      dup5\n        /* \"src/interfaces/IRiscZeroVerifier.sol\":8352:8376  output.assumptionsDigest */\n      0x20\n      add\n      mload\n        /* \"src/interfaces/IRiscZeroVerifier.sol\":8446:8447  8 */\n      0x08\n        /* \"src/interfaces/IRiscZeroVerifier.sol\":8440:8441  2 */\n      0x02\n        /* \"src/interfaces/IRiscZeroVerifier.sol\":8433:8447  uint16(2) << 8 */\n      0xffff\n      and\n      swap1\n      shl\n        /* \"src/interfaces/IRiscZeroVerifier.sol\":8212:8465  abi.encodePacked(... */\n      add(0x20, mload(0x40))\n      tag_134\n      swap5\n      swap4\n      swap3\n      swap2\n      swap1\n      tag_135\n      jump\t// in\n    tag_134:\n      mload(0x40)\n      0x20\n      dup2\n      dup4\n      sub\n      sub\n      dup2\n      mstore\n      swap1\n      0x40\n      mstore\n        /* \"src/interfaces/IRiscZeroVerifier.sol\":8188:8479  sha256(... */\n      mload(0x40)\n      tag_136\n      swap2\n      swap1\n      tag_121\n      jump\t// in\n    tag_136:\n      0x20\n      mload(0x40)\n      dup1\n      dup4\n      sub\n      dup2\n      dup6\n      gas\n      staticcall\n      iszero\n      dup1\n      iszero\n      tag_138\n      jumpi\n      returndatasize\n      0x00\n      dup1\n      returndatacopy\n      revert(0x00, returndatasize)\n    tag_138:\n      pop\n      pop\n      pop\n      mload(0x40)\n      returndatasize\n      not(0x1f)\n      0x1f\n      dup3\n      add\n      and\n      dup3\n      add\n      dup1\n      0x40\n      mstore\n      pop\n      dup2\n      add\n      swap1\n      tag_139\n      swap2\n      swap1\n      tag_115\n      jump\t// in\n    tag_139:\n        /* \"src/interfaces/IRiscZeroVerifier.sol\":8169:8479  return... */\n      swap1\n      pop\n        /* \"src/interfaces/IRiscZeroVerifier.sol\":8089:8486  function digest(Output memory output) internal pure returns (bytes32) {... */\n      swap2\n      swap1\n      pop\n      jump\t// out\n        /* \"src/utils/Util.sol\":929:1919  function reverseByteOrderUint256(uint256 input) pure returns (uint256 v) {... */\n    tag_127:\n        /* \"src/utils/Util.sol\":991:1000  uint256 v */\n      0x00\n        /* \"src/utils/Util.sol\":1012:1017  input */\n      dup2\n        /* \"src/utils/Util.sol\":1008:1017  v = input */\n      swap1\n      pop\n        /* \"src/utils/Util.sol\":1213:1214  8 */\n      0x08\n        /* \"src/utils/Util.sol\":1142:1208  0x00FF00FF00FF00FF00FF00FF00FF00FF00FF00FF00FF00FF00FF00FF00FF00FF */\n      0xff00ff00ff00ff00ff00ff00ff00ff00ff00ff00ff00ff00ff00ff00ff00ff\n        /* \"src/utils/Util.sol\":1138:1139  v */\n      dup3\n        /* \"src/utils/Util.sol\":1138:1208  v & 0x00FF00FF00FF00FF00FF00FF00FF00FF00FF00FF00FF00FF00FF00FF00FF00FF */\n      and\n        /* \"src/utils/Util.sol\":1137:1214  (v & 0x00FF00FF00FF00FF00FF00FF00FF00FF00FF00FF00FF00FF00FF00FF00FF00FF) << 8 */\n      swap1\n      shl\n        /* \"src/utils/Util.sol\":1123:1124  8 */\n      0x08\n        /* \"src/utils/Util.sol\":1052:1118  0xFF00FF00FF00FF00FF00FF00FF00FF00FF00FF00FF00FF00FF00FF00FF00FF00 */\n      0xff00ff00ff00ff00ff00ff00ff00ff00ff00ff00ff00ff00ff00ff00ff00ff00\n        /* \"src/utils/Util.sol\":1048:1049  v */\n      dup4\n        /* \"src/utils/Util.sol\":1048:1118  v & 0xFF00FF00FF00FF00FF00FF00FF00FF00FF00FF00FF00FF00FF00FF00FF00FF00 */\n      and\n        /* \"src/utils/Util.sol\":1047:1124  (v & 0xFF00FF00FF00FF00FF00FF00FF00FF00FF00FF00FF00FF00FF00FF00FF00FF00) >> 8 */\n      swap1\n      shr\n        /* \"src/utils/Util.sol\":1046:1215  ((v & 0xFF00FF00FF00FF00FF00FF00FF00FF00FF00FF00FF00FF00FF00FF00FF00FF00) >> 8)... */\n      or\n        /* \"src/utils/Util.sol\":1042:1215  v = ((v & 0xFF00FF00FF00FF00FF00FF00FF00FF00FF00FF00FF00FF00FF00FF00FF00FF00) >> 8)... */\n      swap1\n      pop\n        /* \"src/utils/Util.sol\":1424:1426  16 */\n      0x10\n        /* \"src/utils/Util.sol\":1353:1419  0x0000FFFF0000FFFF0000FFFF0000FFFF0000FFFF0000FFFF0000FFFF0000FFFF */\n      0xffff0000ffff0000ffff0000ffff0000ffff0000ffff0000ffff0000ffff\n        /* \"src/utils/Util.sol\":1349:1350  v */\n      dup3\n        /* \"src/utils/Util.sol\":1349:1419  v & 0x0000FFFF0000FFFF0000FFFF0000FFFF0000FFFF0000FFFF0000FFFF0000FFFF */\n      and\n        /* \"src/utils/Util.sol\":1348:1426  (v & 0x0000FFFF0000FFFF0000FFFF0000FFFF0000FFFF0000FFFF0000FFFF0000FFFF) << 16 */\n      swap1\n      shl\n        /* \"src/utils/Util.sol\":1333:1335  16 */\n      0x10\n        /* \"src/utils/Util.sol\":1262:1328  0xFFFF0000FFFF0000FFFF0000FFFF0000FFFF0000FFFF0000FFFF0000FFFF0000 */\n      0xffff0000ffff0000ffff0000ffff0000ffff0000ffff0000ffff0000ffff0000\n        /* \"src/utils/Util.sol\":1258:1259  v */\n      dup4\n        /* \"src/utils/Util.sol\":1258:1328  v & 0xFFFF0000FFFF0000FFFF0000FFFF0000FFFF0000FFFF0000FFFF0000FFFF0000 */\n      and\n        /* \"src/utils/Util.sol\":1257:1335  (v & 0xFFFF0000FFFF0000FFFF0000FFFF0000FFFF0000FFFF0000FFFF0000FFFF0000) >> 16 */\n      swap1\n      shr\n        /* \"src/utils/Util.sol\":1256:1427  ((v & 0xFFFF0000FFFF0000FFFF0000FFFF0000FFFF0000FFFF0000FFFF0000FFFF0000) >> 16)... */\n      or\n        /* \"src/utils/Util.sol\":1252:1427  v = ((v & 0xFFFF0000FFFF0000FFFF0000FFFF0000FFFF0000FFFF0000FFFF0000FFFF0000) >> 16)... */\n      swap1\n      pop\n        /* \"src/utils/Util.sol\":1636:1638  32 */\n      0x20\n        /* \"src/utils/Util.sol\":1565:1631  0x00000000FFFFFFFF00000000FFFFFFFF00000000FFFFFFFF00000000FFFFFFFF */\n      0xffffffff00000000ffffffff00000000ffffffff00000000ffffffff\n        /* \"src/utils/Util.sol\":1561:1562  v */\n      dup3\n        /* \"src/utils/Util.sol\":1561:1631  v & 0x00000000FFFFFFFF00000000FFFFFFFF00000000FFFFFFFF00000000FFFFFFFF */\n      and\n        /* \"src/utils/Util.sol\":1560:1638  (v & 0x00000000FFFFFFFF00000000FFFFFFFF00000000FFFFFFFF00000000FFFFFFFF) << 32 */\n      swap1\n      shl\n        /* \"src/utils/Util.sol\":1545:1547  32 */\n      0x20\n        /* \"src/utils/Util.sol\":1474:1540  0xFFFFFFFF00000000FFFFFFFF00000000FFFFFFFF00000000FFFFFFFF00000000 */\n      0xffffffff00000000ffffffff00000000ffffffff00000000ffffffff00000000\n        /* \"src/utils/Util.sol\":1470:1471  v */\n      dup4\n        /* \"src/utils/Util.sol\":1470:1540  v & 0xFFFFFFFF00000000FFFFFFFF00000000FFFFFFFF00000000FFFFFFFF00000000 */\n      and\n        /* \"src/utils/Util.sol\":1469:1547  (v & 0xFFFFFFFF00000000FFFFFFFF00000000FFFFFFFF00000000FFFFFFFF00000000) >> 32 */\n      swap1\n      shr\n        /* \"src/utils/Util.sol\":1468:1639  ((v & 0xFFFFFFFF00000000FFFFFFFF00000000FFFFFFFF00000000FFFFFFFF00000000) >> 32)... */\n      or\n        /* \"src/utils/Util.sol\":1464:1639  v = ((v & 0xFFFFFFFF00000000FFFFFFFF00000000FFFFFFFF00000000FFFFFFFF00000000) >> 32)... */\n      swap1\n      pop\n        /* \"src/utils/Util.sol\":1848:1850  64 */\n      0x40\n        /* \"src/utils/Util.sol\":1777:1843  0x0000000000000000FFFFFFFFFFFFFFFF0000000000000000FFFFFFFFFFFFFFFF */\n      0xffffffffffffffff0000000000000000ffffffffffffffff\n        /* \"src/utils/Util.sol\":1773:1774  v */\n      dup3\n        /* \"src/utils/Util.sol\":1773:1843  v & 0x0000000000000000FFFFFFFFFFFFFFFF0000000000000000FFFFFFFFFFFFFFFF */\n      and\n        /* \"src/utils/Util.sol\":1772:1850  (v & 0x0000000000000000FFFFFFFFFFFFFFFF0000000000000000FFFFFFFFFFFFFFFF) << 64 */\n      swap1\n      shl\n        /* \"src/utils/Util.sol\":1757:1759  64 */\n      0x40\n        /* \"src/utils/Util.sol\":1686:1752  0xFFFFFFFFFFFFFFFF0000000000000000FFFFFFFFFFFFFFFF0000000000000000 */\n      0xffffffffffffffff0000000000000000ffffffffffffffff0000000000000000\n        /* \"src/utils/Util.sol\":1682:1683  v */\n      dup4\n        /* \"src/utils/Util.sol\":1682:1752  v & 0xFFFFFFFFFFFFFFFF0000000000000000FFFFFFFFFFFFFFFF0000000000000000 */\n      and\n        /* \"src/utils/Util.sol\":1681:1759  (v & 0xFFFFFFFFFFFFFFFF0000000000000000FFFFFFFFFFFFFFFF0000000000000000) >> 64 */\n      swap1\n      shr\n        /* \"src/utils/Util.sol\":1680:1851  ((v & 0xFFFFFFFFFFFFFFFF0000000000000000FFFFFFFFFFFFFFFF0000000000000000) >> 64)... */\n      or\n        /* \"src/utils/Util.sol\":1676:1851  v = ((v & 0xFFFFFFFFFFFFFFFF0000000000000000FFFFFFFFFFFFFFFF0000000000000000) >> 64)... */\n      swap1\n      pop\n        /* \"src/utils/Util.sol\":1912:1915  128 */\n      0x80\n        /* \"src/utils/Util.sol\":1907:1908  v */\n      dup2\n        /* \"src/utils/Util.sol\":1907:1915  v << 128 */\n      swap1\n      shl\n        /* \"src/utils/Util.sol\":1899:1902  128 */\n      0x80\n        /* \"src/utils/Util.sol\":1894:1895  v */\n      dup3\n        /* \"src/utils/Util.sol\":1894:1902  v >> 128 */\n      swap1\n      shr\n        /* \"src/utils/Util.sol\":1893:1916  (v >> 128) | (v << 128) */\n      or\n        /* \"src/utils/Util.sol\":1889:1916  v = (v >> 128) | (v << 128) */\n      swap1\n      pop\n        /* \"src/utils/Util.sol\":929:1919  function reverseByteOrderUint256(uint256 input) pure returns (uint256 v) {... */\n      swap2\n      swap1\n      pop\n      jump\t// out\n    tag_102:\n      mload(0x40)\n      dup1\n      0xa0\n      add\n      0x40\n      mstore\n      dup1\n      0x00\n      dup1\n      not\n      and\n      dup2\n      mstore\n      0x20\n      add\n      0x00\n      dup1\n      not\n      and\n      dup2\n      mstore\n      0x20\n      add\n      tag_141\n      tag_142\n      jump\t// in\n    tag_141:\n      dup2\n      mstore\n      0x20\n      add\n      0x00\n      dup1\n      not\n      and\n      dup2\n      mstore\n      0x20\n      add\n      0x00\n      dup1\n      not\n      and\n      dup2\n      mstore\n      pop\n      swap1\n      jump\t// out\n    tag_142:\n      mload(0x40)\n      dup1\n      0x40\n      add\n      0x40\n      mstore\n      dup1\n      0x00\n      0x02\n      dup2\n      gt\n      iszero\n      tag_143\n      jumpi\n      tag_144\n      tag_106\n      jump\t// in\n    tag_144:\n    tag_143:\n      dup2\n      mstore\n      0x20\n      add\n      and(0xff, 0x00)\n      dup2\n      mstore\n      pop\n      swap1\n      jump\t// out\n        /* \"#utility.yul\":7:156   */\n    tag_145:\n        /* \"#utility.yul\":43:50   */\n      0x00\n        /* \"#utility.yul\":83:149   */\n      0xffffffff00000000000000000000000000000000000000000000000000000000\n        /* \"#utility.yul\":76:81   */\n      dup3\n        /* \"#utility.yul\":72:150   */\n      and\n        /* \"#utility.yul\":61:150   */\n      swap1\n      pop\n        /* \"#utility.yul\":7:156   */\n      swap2\n      swap1\n      pop\n      jump\t// out\n        /* \"#utility.yul\":162:277   */\n    tag_146:\n        /* \"#utility.yul\":247:270   */\n      tag_238\n        /* \"#utility.yul\":264:269   */\n      dup2\n        /* \"#utility.yul\":247:270   */\n      tag_145\n      jump\t// in\n    tag_238:\n        /* \"#utility.yul\":242:245   */\n      dup3\n        /* \"#utility.yul\":235:271   */\n      mstore\n        /* \"#utility.yul\":162:277   */\n      pop\n      pop\n      jump\t// out\n        /* \"#utility.yul\":283:501   */\n    tag_15:\n        /* \"#utility.yul\":374:378   */\n      0x00\n        /* \"#utility.yul\":412:414   */\n      0x20\n        /* \"#utility.yul\":401:410   */\n      dup3\n        /* \"#utility.yul\":397:415   */\n      add\n        /* \"#utility.yul\":389:415   */\n      swap1\n      pop\n        /* \"#utility.yul\":425:494   */\n      tag_240\n        /* \"#utility.yul\":491:492   */\n      0x00\n        /* \"#utility.yul\":480:489   */\n      dup4\n        /* \"#utility.yul\":476:493   */\n      add\n        /* \"#utility.yul\":467:473   */\n      dup5\n        /* \"#utility.yul\":425:494   */\n      tag_146\n      jump\t// in\n    tag_240:\n        /* \"#utility.yul\":283:501   */\n      swap3\n      swap2\n      pop\n      pop\n      jump\t// out\n        /* \"#utility.yul\":507:582   */\n    tag_147:\n        /* \"#utility.yul\":540:546   */\n      0x00\n        /* \"#utility.yul\":573:575   */\n      0x40\n        /* \"#utility.yul\":567:576   */\n      mload\n        /* \"#utility.yul\":557:576   */\n      swap1\n      pop\n        /* \"#utility.yul\":507:582   */\n      swap1\n      jump\t// out\n        /* \"#utility.yul\":588:705   */\n    tag_148:\n        /* \"#utility.yul\":697:698   */\n      0x00\n        /* \"#utility.yul\":694:695   */\n      dup1\n        /* \"#utility.yul\":687:699   */\n      revert\n        /* \"#utility.yul\":711:828   */\n    tag_149:\n        /* \"#utility.yul\":820:821   */\n      0x00\n        /* \"#utility.yul\":817:818   */\n      dup1\n        /* \"#utility.yul\":810:822   */\n      revert\n        /* \"#utility.yul\":834:951   */\n    tag_150:\n        /* \"#utility.yul\":943:944   */\n      0x00\n        /* \"#utility.yul\":940:941   */\n      dup1\n        /* \"#utility.yul\":933:945   */\n      revert\n        /* \"#utility.yul\":979:1210   */\n    tag_151:\n        /* \"#utility.yul\":1052:1057   */\n      0x00\n        /* \"#utility.yul\":1093:1095   */\n      0x40\n        /* \"#utility.yul\":1084:1090   */\n      dup3\n        /* \"#utility.yul\":1079:1082   */\n      dup5\n        /* \"#utility.yul\":1075:1091   */\n      sub\n        /* \"#utility.yul\":1071:1096   */\n      slt\n        /* \"#utility.yul\":1068:1180   */\n      iszero\n      tag_246\n      jumpi\n        /* \"#utility.yul\":1099:1178   */\n      tag_247\n      tag_150\n      jump\t// in\n    tag_247:\n        /* \"#utility.yul\":1068:1180   */\n    tag_246:\n        /* \"#utility.yul\":1198:1204   */\n      dup2\n        /* \"#utility.yul\":1189:1204   */\n      swap1\n      pop\n        /* \"#utility.yul\":979:1210   */\n      swap3\n      swap2\n      pop\n      pop\n      jump\t// out\n        /* \"#utility.yul\":1216:1759   */\n    tag_18:\n        /* \"#utility.yul\":1302:1308   */\n      0x00\n        /* \"#utility.yul\":1351:1353   */\n      0x20\n        /* \"#utility.yul\":1339:1348   */\n      dup3\n        /* \"#utility.yul\":1330:1337   */\n      dup5\n        /* \"#utility.yul\":1326:1349   */\n      sub\n        /* \"#utility.yul\":1322:1354   */\n      slt\n        /* \"#utility.yul\":1319:1438   */\n      iszero\n      tag_249\n      jumpi\n        /* \"#utility.yul\":1357:1436   */\n      tag_250\n      tag_148\n      jump\t// in\n    tag_250:\n        /* \"#utility.yul\":1319:1438   */\n    tag_249:\n        /* \"#utility.yul\":1505:1506   */\n      0x00\n        /* \"#utility.yul\":1494:1503   */\n      dup3\n        /* \"#utility.yul\":1490:1507   */\n      add\n        /* \"#utility.yul\":1477:1508   */\n      calldataload\n        /* \"#utility.yul\":1535:1553   */\n      0xffffffffffffffff\n        /* \"#utility.yul\":1527:1533   */\n      dup2\n        /* \"#utility.yul\":1524:1554   */\n      gt\n        /* \"#utility.yul\":1521:1638   */\n      iszero\n      tag_251\n      jumpi\n        /* \"#utility.yul\":1557:1636   */\n      tag_252\n      tag_149\n      jump\t// in\n    tag_252:\n        /* \"#utility.yul\":1521:1638   */\n    tag_251:\n        /* \"#utility.yul\":1662:1742   */\n      tag_253\n        /* \"#utility.yul\":1734:1741   */\n      dup5\n        /* \"#utility.yul\":1725:1731   */\n      dup3\n        /* \"#utility.yul\":1714:1723   */\n      dup6\n        /* \"#utility.yul\":1710:1732   */\n      add\n        /* \"#utility.yul\":1662:1742   */\n      tag_151\n      jump\t// in\n    tag_253:\n        /* \"#utility.yul\":1652:1742   */\n      swap2\n      pop\n        /* \"#utility.yul\":1448:1752   */\n      pop\n        /* \"#utility.yul\":1216:1759   */\n      swap3\n      swap2\n      pop\n      pop\n      jump\t// out\n        /* \"#utility.yul\":1765:1842   */\n    tag_152:\n        /* \"#utility.yul\":1802:1809   */\n      0x00\n        /* \"#utility.yul\":1831:1836   */\n      dup2\n        /* \"#utility.yul\":1820:1836   */\n      swap1\n      pop\n        /* \"#utility.yul\":1765:1842   */\n      swap2\n      swap1\n      pop\n      jump\t// out\n        /* \"#utility.yul\":1848:1966   */\n    tag_153:\n        /* \"#utility.yul\":1935:1959   */\n      tag_256\n        /* \"#utility.yul\":1953:1958   */\n      dup2\n        /* \"#utility.yul\":1935:1959   */\n      tag_152\n      jump\t// in\n    tag_256:\n        /* \"#utility.yul\":1930:1933   */\n      dup3\n        /* \"#utility.yul\":1923:1960   */\n      mstore\n        /* \"#utility.yul\":1848:1966   */\n      pop\n      pop\n      jump\t// out\n        /* \"#utility.yul\":1972:2194   */\n    tag_23:\n        /* \"#utility.yul\":2065:2069   */\n      0x00\n        /* \"#utility.yul\":2103:2105   */\n      0x20\n        /* \"#utility.yul\":2092:2101   */\n      dup3\n        /* \"#utility.yul\":2088:2106   */\n      add\n        /* \"#utility.yul\":2080:2106   */\n      swap1\n      pop\n        /* \"#utility.yul\":2116:2187   */\n      tag_258\n        /* \"#utility.yul\":2184:2185   */\n      0x00\n        /* \"#utility.yul\":2173:2182   */\n      dup4\n        /* \"#utility.yul\":2169:2186   */\n      add\n        /* \"#utility.yul\":2160:2166   */\n      dup5\n        /* \"#utility.yul\":2116:2187   */\n      tag_153\n      jump\t// in\n    tag_258:\n        /* \"#utility.yul\":1972:2194   */\n      swap3\n      swap2\n      pop\n      pop\n      jump\t// out\n        /* \"#utility.yul\":2200:2317   */\n    tag_154:\n        /* \"#utility.yul\":2309:2310   */\n      0x00\n        /* \"#utility.yul\":2306:2307   */\n      dup1\n        /* \"#utility.yul\":2299:2311   */\n      revert\n        /* \"#utility.yul\":2341:2590   */\n    tag_155:\n        /* \"#utility.yul\":2412:2420   */\n      0x00\n        /* \"#utility.yul\":2443:2449   */\n      dup2\n        /* \"#utility.yul\":2431:2449   */\n      swap1\n      pop\n        /* \"#utility.yul\":2496:2499   */\n      dup3\n        /* \"#utility.yul\":2488:2492   */\n      0x20\n        /* \"#utility.yul\":2482:2486   */\n      0x02\n        /* \"#utility.yul\":2478:2493   */\n      mul\n        /* \"#utility.yul\":2468:2476   */\n      dup3\n        /* \"#utility.yul\":2464:2494   */\n      add\n        /* \"#utility.yul\":2461:2500   */\n      gt\n        /* \"#utility.yul\":2458:2584   */\n      iszero\n      tag_261\n      jumpi\n        /* \"#utility.yul\":2503:2582   */\n      tag_262\n      tag_154\n      jump\t// in\n    tag_262:\n        /* \"#utility.yul\":2458:2584   */\n    tag_261:\n        /* \"#utility.yul\":2341:2590   */\n      swap3\n      swap2\n      pop\n      pop\n      jump\t// out\n        /* \"#utility.yul\":2617:2891   */\n    tag_156:\n        /* \"#utility.yul\":2713:2721   */\n      0x00\n        /* \"#utility.yul\":2744:2750   */\n      dup2\n        /* \"#utility.yul\":2732:2750   */\n      swap1\n      pop\n        /* \"#utility.yul\":2797:2800   */\n      dup3\n        /* \"#utility.yul\":2789:2793   */\n      0x40\n        /* \"#utility.yul\":2783:2787   */\n      0x02\n        /* \"#utility.yul\":2779:2794   */\n      mul\n        /* \"#utility.yul\":2769:2777   */\n      dup3\n        /* \"#utility.yul\":2765:2795   */\n      add\n        /* \"#utility.yul\":2762:2801   */\n      gt\n        /* \"#utility.yul\":2759:2885   */\n      iszero\n      tag_264\n      jumpi\n        /* \"#utility.yul\":2804:2883   */\n      tag_265\n      tag_154\n      jump\t// in\n    tag_265:\n        /* \"#utility.yul\":2759:2885   */\n    tag_264:\n        /* \"#utility.yul\":2617:2891   */\n      swap3\n      swap2\n      pop\n      pop\n      jump\t// out\n        /* \"#utility.yul\":2915:3164   */\n    tag_157:\n        /* \"#utility.yul\":2986:2994   */\n      0x00\n        /* \"#utility.yul\":3017:3023   */\n      dup2\n        /* \"#utility.yul\":3005:3023   */\n      swap1\n      pop\n        /* \"#utility.yul\":3070:3073   */\n      dup3\n        /* \"#utility.yul\":3062:3066   */\n      0x20\n        /* \"#utility.yul\":3056:3060   */\n      0x05\n        /* \"#utility.yul\":3052:3067   */\n      mul\n        /* \"#utility.yul\":3042:3050   */\n      dup3\n        /* \"#utility.yul\":3038:3068   */\n      add\n        /* \"#utility.yul\":3035:3074   */\n      gt\n        /* \"#utility.yul\":3032:3158   */\n      iszero\n      tag_267\n      jumpi\n        /* \"#utility.yul\":3077:3156   */\n      tag_268\n      tag_154\n      jump\t// in\n    tag_268:\n        /* \"#utility.yul\":3032:3158   */\n    tag_267:\n        /* \"#utility.yul\":2915:3164   */\n      swap3\n      swap2\n      pop\n      pop\n      jump\t// out\n        /* \"#utility.yul\":3170:4187   */\n    tag_26:\n        /* \"#utility.yul\":3381:3387   */\n      0x00\n        /* \"#utility.yul\":3389:3395   */\n      dup1\n        /* \"#utility.yul\":3397:3403   */\n      0x00\n        /* \"#utility.yul\":3405:3411   */\n      dup1\n        /* \"#utility.yul\":3454:3457   */\n      0x01a0\n        /* \"#utility.yul\":3442:3451   */\n      dup6\n        /* \"#utility.yul\":3433:3440   */\n      dup8\n        /* \"#utility.yul\":3429:3452   */\n      sub\n        /* \"#utility.yul\":3425:3458   */\n      slt\n        /* \"#utility.yul\":3422:3542   */\n      iszero\n      tag_270\n      jumpi\n        /* \"#utility.yul\":3461:3540   */\n      tag_271\n      tag_148\n      jump\t// in\n    tag_271:\n        /* \"#utility.yul\":3422:3542   */\n    tag_270:\n        /* \"#utility.yul\":3581:3582   */\n      0x00\n        /* \"#utility.yul\":3606:3684   */\n      tag_272\n        /* \"#utility.yul\":3676:3683   */\n      dup8\n        /* \"#utility.yul\":3667:3673   */\n      dup3\n        /* \"#utility.yul\":3656:3665   */\n      dup9\n        /* \"#utility.yul\":3652:3674   */\n      add\n        /* \"#utility.yul\":3606:3684   */\n      tag_155\n      jump\t// in\n    tag_272:\n        /* \"#utility.yul\":3596:3684   */\n      swap5\n      pop\n        /* \"#utility.yul\":3552:3694   */\n      pop\n        /* \"#utility.yul\":3733:3735   */\n      0x40\n        /* \"#utility.yul\":3759:3862   */\n      tag_273\n        /* \"#utility.yul\":3854:3861   */\n      dup8\n        /* \"#utility.yul\":3845:3851   */\n      dup3\n        /* \"#utility.yul\":3834:3843   */\n      dup9\n        /* \"#utility.yul\":3830:3852   */\n      add\n        /* \"#utility.yul\":3759:3862   */\n      tag_156\n      jump\t// in\n    tag_273:\n        /* \"#utility.yul\":3749:3862   */\n      swap4\n      pop\n        /* \"#utility.yul\":3704:3872   */\n      pop\n        /* \"#utility.yul\":3911:3914   */\n      0xc0\n        /* \"#utility.yul\":3938:4016   */\n      tag_274\n        /* \"#utility.yul\":4008:4015   */\n      dup8\n        /* \"#utility.yul\":3999:4005   */\n      dup3\n        /* \"#utility.yul\":3988:3997   */\n      dup9\n        /* \"#utility.yul\":3984:4006   */\n      add\n        /* \"#utility.yul\":3938:4016   */\n      tag_155\n      jump\t// in\n    tag_274:\n        /* \"#utility.yul\":3928:4016   */\n      swap3\n      pop\n        /* \"#utility.yul\":3882:4026   */\n      pop\n        /* \"#utility.yul\":4065:4068   */\n      0x0100\n        /* \"#utility.yul\":4092:4170   */\n      tag_275\n        /* \"#utility.yul\":4162:4169   */\n      dup8\n        /* \"#utility.yul\":4153:4159   */\n      dup3\n        /* \"#utility.yul\":4142:4151   */\n      dup9\n        /* \"#utility.yul\":4138:4160   */\n      add\n        /* \"#utility.yul\":4092:4170   */\n      tag_157\n      jump\t// in\n    tag_275:\n        /* \"#utility.yul\":4082:4170   */\n      swap2\n      pop\n        /* \"#utility.yul\":4036:4180   */\n      pop\n        /* \"#utility.yul\":3170:4187   */\n      swap3\n      swap6\n      swap2\n      swap5\n      pop\n      swap3\n      pop\n      jump\t// out\n        /* \"#utility.yul\":4193:4283   */\n    tag_158:\n        /* \"#utility.yul\":4227:4234   */\n      0x00\n        /* \"#utility.yul\":4270:4275   */\n      dup2\n        /* \"#utility.yul\":4263:4276   */\n      iszero\n        /* \"#utility.yul\":4256:4277   */\n      iszero\n        /* \"#utility.yul\":4245:4277   */\n      swap1\n      pop\n        /* \"#utility.yul\":4193:4283   */\n      swap2\n      swap1\n      pop\n      jump\t// out\n        /* \"#utility.yul\":4289:4398   */\n    tag_159:\n        /* \"#utility.yul\":4370:4391   */\n      tag_278\n        /* \"#utility.yul\":4385:4390   */\n      dup2\n        /* \"#utility.yul\":4370:4391   */\n      tag_158\n      jump\t// in\n    tag_278:\n        /* \"#utility.yul\":4365:4368   */\n      dup3\n        /* \"#utility.yul\":4358:4392   */\n      mstore\n        /* \"#utility.yul\":4289:4398   */\n      pop\n      pop\n      jump\t// out\n        /* \"#utility.yul\":4404:4614   */\n    tag_29:\n        /* \"#utility.yul\":4491:4495   */\n      0x00\n        /* \"#utility.yul\":4529:4531   */\n      0x20\n        /* \"#utility.yul\":4518:4527   */\n      dup3\n        /* \"#utility.yul\":4514:4532   */\n      add\n        /* \"#utility.yul\":4506:4532   */\n      swap1\n      pop\n        /* \"#utility.yul\":4542:4607   */\n      tag_280\n        /* \"#utility.yul\":4604:4605   */\n      0x00\n        /* \"#utility.yul\":4593:4602   */\n      dup4\n        /* \"#utility.yul\":4589:4606   */\n      add\n        /* \"#utility.yul\":4580:4586   */\n      dup5\n        /* \"#utility.yul\":4542:4607   */\n      tag_159\n      jump\t// in\n    tag_280:\n        /* \"#utility.yul\":4404:4614   */\n      swap3\n      swap2\n      pop\n      pop\n      jump\t// out\n        /* \"#utility.yul\":4620:4770   */\n    tag_160:\n        /* \"#utility.yul\":4657:4664   */\n      0x00\n        /* \"#utility.yul\":4697:4763   */\n      0xffffffffffffffffffffffffffffffff00000000000000000000000000000000\n        /* \"#utility.yul\":4690:4695   */\n      dup3\n        /* \"#utility.yul\":4686:4764   */\n      and\n        /* \"#utility.yul\":4675:4764   */\n      swap1\n      pop\n        /* \"#utility.yul\":4620:4770   */\n      swap2\n      swap1\n      pop\n      jump\t// out\n        /* \"#utility.yul\":4776:4894   */\n    tag_161:\n        /* \"#utility.yul\":4863:4887   */\n      tag_283\n        /* \"#utility.yul\":4881:4886   */\n      dup2\n        /* \"#utility.yul\":4863:4887   */\n      tag_160\n      jump\t// in\n    tag_283:\n        /* \"#utility.yul\":4858:4861   */\n      dup3\n        /* \"#utility.yul\":4851:4888   */\n      mstore\n        /* \"#utility.yul\":4776:4894   */\n      pop\n      pop\n      jump\t// out\n        /* \"#utility.yul\":4900:5122   */\n    tag_33:\n        /* \"#utility.yul\":4993:4997   */\n      0x00\n        /* \"#utility.yul\":5031:5033   */\n      0x20\n        /* \"#utility.yul\":5020:5029   */\n      dup3\n        /* \"#utility.yul\":5016:5034   */\n      add\n        /* \"#utility.yul\":5008:5034   */\n      swap1\n      pop\n        /* \"#utility.yul\":5044:5115   */\n      tag_285\n        /* \"#utility.yul\":5112:5113   */\n      0x00\n        /* \"#utility.yul\":5101:5110   */\n      dup4\n        /* \"#utility.yul\":5097:5114   */\n      add\n        /* \"#utility.yul\":5088:5094   */\n      dup5\n        /* \"#utility.yul\":5044:5115   */\n      tag_161\n      jump\t// in\n    tag_285:\n        /* \"#utility.yul\":4900:5122   */\n      swap3\n      swap2\n      pop\n      pop\n      jump\t// out\n        /* \"#utility.yul\":5128:5245   */\n    tag_162:\n        /* \"#utility.yul\":5237:5238   */\n      0x00\n        /* \"#utility.yul\":5234:5235   */\n      dup1\n        /* \"#utility.yul\":5227:5239   */\n      revert\n        /* \"#utility.yul\":5251:5368   */\n    tag_163:\n        /* \"#utility.yul\":5360:5361   */\n      0x00\n        /* \"#utility.yul\":5357:5358   */\n      dup1\n        /* \"#utility.yul\":5350:5362   */\n      revert\n        /* \"#utility.yul\":5387:5939   */\n    tag_164:\n        /* \"#utility.yul\":5444:5452   */\n      0x00\n        /* \"#utility.yul\":5454:5460   */\n      dup1\n        /* \"#utility.yul\":5504:5507   */\n      dup4\n        /* \"#utility.yul\":5497:5501   */\n      0x1f\n        /* \"#utility.yul\":5489:5495   */\n      dup5\n        /* \"#utility.yul\":5485:5502   */\n      add\n        /* \"#utility.yul\":5481:5508   */\n      slt\n        /* \"#utility.yul\":5471:5593   */\n      tag_289\n      jumpi\n        /* \"#utility.yul\":5512:5591   */\n      tag_290\n      tag_162\n      jump\t// in\n    tag_290:\n        /* \"#utility.yul\":5471:5593   */\n    tag_289:\n        /* \"#utility.yul\":5625:5631   */\n      dup3\n        /* \"#utility.yul\":5612:5632   */\n      calldataload\n        /* \"#utility.yul\":5602:5632   */\n      swap1\n      pop\n        /* \"#utility.yul\":5655:5673   */\n      0xffffffffffffffff\n        /* \"#utility.yul\":5647:5653   */\n      dup2\n        /* \"#utility.yul\":5644:5674   */\n      gt\n        /* \"#utility.yul\":5641:5758   */\n      iszero\n      tag_291\n      jumpi\n        /* \"#utility.yul\":5677:5756   */\n      tag_292\n      tag_163\n      jump\t// in\n    tag_292:\n        /* \"#utility.yul\":5641:5758   */\n    tag_291:\n        /* \"#utility.yul\":5791:5795   */\n      0x20\n        /* \"#utility.yul\":5783:5789   */\n      dup4\n        /* \"#utility.yul\":5779:5796   */\n      add\n        /* \"#utility.yul\":5767:5796   */\n      swap2\n      pop\n        /* \"#utility.yul\":5845:5848   */\n      dup4\n        /* \"#utility.yul\":5837:5841   */\n      0x01\n        /* \"#utility.yul\":5829:5835   */\n      dup3\n        /* \"#utility.yul\":5825:5842   */\n      mul\n        /* \"#utility.yul\":5815:5823   */\n      dup4\n        /* \"#utility.yul\":5811:5843   */\n      add\n        /* \"#utility.yul\":5808:5849   */\n      gt\n        /* \"#utility.yul\":5805:5933   */\n      iszero\n      tag_293\n      jumpi\n        /* \"#utility.yul\":5852:5931   */\n      tag_294\n      tag_154\n      jump\t// in\n    tag_294:\n        /* \"#utility.yul\":5805:5933   */\n    tag_293:\n        /* \"#utility.yul\":5387:5939   */\n      swap3\n      pop\n      swap3\n      swap1\n      pop\n      jump\t// out\n        /* \"#utility.yul\":5945:6067   */\n    tag_165:\n        /* \"#utility.yul\":6018:6042   */\n      tag_296\n        /* \"#utility.yul\":6036:6041   */\n      dup2\n        /* \"#utility.yul\":6018:6042   */\n      tag_152\n      jump\t// in\n    tag_296:\n        /* \"#utility.yul\":6011:6016   */\n      dup2\n        /* \"#utility.yul\":6008:6043   */\n      eq\n        /* \"#utility.yul\":5998:6061   */\n      tag_297\n      jumpi\n        /* \"#utility.yul\":6057:6058   */\n      0x00\n        /* \"#utility.yul\":6054:6055   */\n      dup1\n        /* \"#utility.yul\":6047:6059   */\n      revert\n        /* \"#utility.yul\":5998:6061   */\n    tag_297:\n        /* \"#utility.yul\":5945:6067   */\n      pop\n      jump\t// out\n        /* \"#utility.yul\":6073:6212   */\n    tag_166:\n        /* \"#utility.yul\":6119:6124   */\n      0x00\n        /* \"#utility.yul\":6157:6163   */\n      dup2\n        /* \"#utility.yul\":6144:6164   */\n      calldataload\n        /* \"#utility.yul\":6135:6164   */\n      swap1\n      pop\n        /* \"#utility.yul\":6173:6206   */\n      tag_299\n        /* \"#utility.yul\":6200:6205   */\n      dup2\n        /* \"#utility.yul\":6173:6206   */\n      tag_165\n      jump\t// in\n    tag_299:\n        /* \"#utility.yul\":6073:6212   */\n      swap3\n      swap2\n      pop\n      pop\n      jump\t// out\n        /* \"#utility.yul\":6218:7035   */\n    tag_39:\n        /* \"#utility.yul\":6306:6312   */\n      0x00\n        /* \"#utility.yul\":6314:6320   */\n      dup1\n        /* \"#utility.yul\":6322:6328   */\n      0x00\n        /* \"#utility.yul\":6330:6336   */\n      dup1\n        /* \"#utility.yul\":6379:6381   */\n      0x60\n        /* \"#utility.yul\":6367:6376   */\n      dup6\n        /* \"#utility.yul\":6358:6365   */\n      dup8\n        /* \"#utility.yul\":6354:6377   */\n      sub\n        /* \"#utility.yul\":6350:6382   */\n      slt\n        /* \"#utility.yul\":6347:6466   */\n      iszero\n      tag_301\n      jumpi\n        /* \"#utility.yul\":6385:6464   */\n      tag_302\n      tag_148\n      jump\t// in\n    tag_302:\n        /* \"#utility.yul\":6347:6466   */\n    tag_301:\n        /* \"#utility.yul\":6533:6534   */\n      0x00\n        /* \"#utility.yul\":6522:6531   */\n      dup6\n        /* \"#utility.yul\":6518:6535   */\n      add\n        /* \"#utility.yul\":6505:6536   */\n      calldataload\n        /* \"#utility.yul\":6563:6581   */\n      0xffffffffffffffff\n        /* \"#utility.yul\":6555:6561   */\n      dup2\n        /* \"#utility.yul\":6552:6582   */\n      gt\n        /* \"#utility.yul\":6549:6666   */\n      iszero\n      tag_303\n      jumpi\n        /* \"#utility.yul\":6585:6664   */\n      tag_304\n      tag_149\n      jump\t// in\n    tag_304:\n        /* \"#utility.yul\":6549:6666   */\n    tag_303:\n        /* \"#utility.yul\":6698:6762   */\n      tag_305\n        /* \"#utility.yul\":6754:6761   */\n      dup8\n        /* \"#utility.yul\":6745:6751   */\n      dup3\n        /* \"#utility.yul\":6734:6743   */\n      dup9\n        /* \"#utility.yul\":6730:6752   */\n      add\n        /* \"#utility.yul\":6698:6762   */\n      tag_164\n      jump\t// in\n    tag_305:\n        /* \"#utility.yul\":6680:6762   */\n      swap5\n      pop\n      swap5\n      pop\n        /* \"#utility.yul\":6476:6772   */\n      pop\n        /* \"#utility.yul\":6811:6813   */\n      0x20\n        /* \"#utility.yul\":6837:6890   */\n      tag_306\n        /* \"#utility.yul\":6882:6889   */\n      dup8\n        /* \"#utility.yul\":6873:6879   */\n      dup3\n        /* \"#utility.yul\":6862:6871   */\n      dup9\n        /* \"#utility.yul\":6858:6880   */\n      add\n        /* \"#utility.yul\":6837:6890   */\n      tag_166\n      jump\t// in\n    tag_306:\n        /* \"#utility.yul\":6827:6890   */\n      swap3\n      pop\n        /* \"#utility.yul\":6782:6900   */\n      pop\n        /* \"#utility.yul\":6939:6941   */\n      0x40\n        /* \"#utility.yul\":6965:7018   */\n      tag_307\n        /* \"#utility.yul\":7010:7017   */\n      dup8\n        /* \"#utility.yul\":7001:7007   */\n      dup3\n        /* \"#utility.yul\":6990:6999   */\n      dup9\n        /* \"#utility.yul\":6986:7008   */\n      add\n        /* \"#utility.yul\":6965:7018   */\n      tag_166\n      jump\t// in\n    tag_307:\n        /* \"#utility.yul\":6955:7018   */\n      swap2\n      pop\n        /* \"#utility.yul\":6910:7028   */\n      pop\n        /* \"#utility.yul\":6218:7035   */\n      swap3\n      swap6\n      swap2\n      swap5\n      pop\n      swap3\n      pop\n      jump\t// out\n        /* \"#utility.yul\":7041:7140   */\n    tag_167:\n        /* \"#utility.yul\":7093:7099   */\n      0x00\n        /* \"#utility.yul\":7127:7132   */\n      dup2\n        /* \"#utility.yul\":7121:7133   */\n      mload\n        /* \"#utility.yul\":7111:7133   */\n      swap1\n      pop\n        /* \"#utility.yul\":7041:7140   */\n      swap2\n      swap1\n      pop\n      jump\t// out\n        /* \"#utility.yul\":7146:7315   */\n    tag_168:\n        /* \"#utility.yul\":7230:7241   */\n      0x00\n        /* \"#utility.yul\":7264:7270   */\n      dup3\n        /* \"#utility.yul\":7259:7262   */\n      dup3\n        /* \"#utility.yul\":7252:7271   */\n      mstore\n        /* \"#utility.yul\":7304:7308   */\n      0x20\n        /* \"#utility.yul\":7299:7302   */\n      dup3\n        /* \"#utility.yul\":7295:7309   */\n      add\n        /* \"#utility.yul\":7280:7309   */\n      swap1\n      pop\n        /* \"#utility.yul\":7146:7315   */\n      swap3\n      swap2\n      pop\n      pop\n      jump\t// out\n        /* \"#utility.yul\":7321:7567   */\n    tag_169:\n        /* \"#utility.yul\":7402:7403   */\n      0x00\n        /* \"#utility.yul\":7412:7525   */\n    tag_311:\n        /* \"#utility.yul\":7426:7432   */\n      dup4\n        /* \"#utility.yul\":7423:7424   */\n      dup2\n        /* \"#utility.yul\":7420:7433   */\n      lt\n        /* \"#utility.yul\":7412:7525   */\n      iszero\n      tag_313\n      jumpi\n        /* \"#utility.yul\":7511:7512   */\n      dup1\n        /* \"#utility.yul\":7506:7509   */\n      dup3\n        /* \"#utility.yul\":7502:7513   */\n      add\n        /* \"#utility.yul\":7496:7514   */\n      mload\n        /* \"#utility.yul\":7492:7493   */\n      dup2\n        /* \"#utility.yul\":7487:7490   */\n      dup5\n        /* \"#utility.yul\":7483:7494   */\n      add\n        /* \"#utility.yul\":7476:7515   */\n      mstore\n        /* \"#utility.yul\":7448:7450   */\n      0x20\n        /* \"#utility.yul\":7445:7446   */\n      dup2\n        /* \"#utility.yul\":7441:7451   */\n      add\n        /* \"#utility.yul\":7436:7451   */\n      swap1\n      pop\n        /* \"#utility.yul\":7412:7525   */\n      jump(tag_311)\n    tag_313:\n        /* \"#utility.yul\":7559:7560   */\n      0x00\n        /* \"#utility.yul\":7550:7556   */\n      dup5\n        /* \"#utility.yul\":7545:7548   */\n      dup5\n        /* \"#utility.yul\":7541:7557   */\n      add\n        /* \"#utility.yul\":7534:7561   */\n      mstore\n        /* \"#utility.yul\":7383:7567   */\n      pop\n        /* \"#utility.yul\":7321:7567   */\n      pop\n      pop\n      pop\n      jump\t// out\n        /* \"#utility.yul\":7573:7675   */\n    tag_170:\n        /* \"#utility.yul\":7614:7620   */\n      0x00\n        /* \"#utility.yul\":7665:7667   */\n      0x1f\n        /* \"#utility.yul\":7661:7668   */\n      not\n        /* \"#utility.yul\":7656:7658   */\n      0x1f\n        /* \"#utility.yul\":7649:7654   */\n      dup4\n        /* \"#utility.yul\":7645:7659   */\n      add\n        /* \"#utility.yul\":7641:7669   */\n      and\n        /* \"#utility.yul\":7631:7669   */\n      swap1\n      pop\n        /* \"#utility.yul\":7573:7675   */\n      swap2\n      swap1\n      pop\n      jump\t// out\n        /* \"#utility.yul\":7681:8058   */\n    tag_171:\n        /* \"#utility.yul\":7769:7772   */\n      0x00\n        /* \"#utility.yul\":7797:7836   */\n      tag_316\n        /* \"#utility.yul\":7830:7835   */\n      dup3\n        /* \"#utility.yul\":7797:7836   */\n      tag_167\n      jump\t// in\n    tag_316:\n        /* \"#utility.yul\":7852:7923   */\n      tag_317\n        /* \"#utility.yul\":7916:7922   */\n      dup2\n        /* \"#utility.yul\":7911:7914   */\n      dup6\n        /* \"#utility.yul\":7852:7923   */\n      tag_168\n      jump\t// in\n    tag_317:\n        /* \"#utility.yul\":7845:7923   */\n      swap4\n      pop\n        /* \"#utility.yul\":7932:7997   */\n      tag_318\n        /* \"#utility.yul\":7990:7996   */\n      dup2\n        /* \"#utility.yul\":7985:7988   */\n      dup6\n        /* \"#utility.yul\":7978:7982   */\n      0x20\n        /* \"#utility.yul\":7971:7976   */\n      dup7\n        /* \"#utility.yul\":7967:7983   */\n      add\n        /* \"#utility.yul\":7932:7997   */\n      tag_169\n      jump\t// in\n    tag_318:\n        /* \"#utility.yul\":8022:8051   */\n      tag_319\n        /* \"#utility.yul\":8044:8050   */\n      dup2\n        /* \"#utility.yul\":8022:8051   */\n      tag_170\n      jump\t// in\n    tag_319:\n        /* \"#utility.yul\":8017:8020   */\n      dup5\n        /* \"#utility.yul\":8013:8052   */\n      add\n        /* \"#utility.yul\":8006:8052   */\n      swap2\n      pop\n        /* \"#utility.yul\":7773:8058   */\n      pop\n        /* \"#utility.yul\":7681:8058   */\n      swap3\n      swap2\n      pop\n      pop\n      jump\t// out\n        /* \"#utility.yul\":8064:8377   */\n    tag_44:\n        /* \"#utility.yul\":8177:8181   */\n      0x00\n        /* \"#utility.yul\":8215:8217   */\n      0x20\n        /* \"#utility.yul\":8204:8213   */\n      dup3\n        /* \"#utility.yul\":8200:8218   */\n      add\n        /* \"#utility.yul\":8192:8218   */\n      swap1\n      pop\n        /* \"#utility.yul\":8264:8273   */\n      dup2\n        /* \"#utility.yul\":8258:8262   */\n      dup2\n        /* \"#utility.yul\":8254:8274   */\n      sub\n        /* \"#utility.yul\":8250:8251   */\n      0x00\n        /* \"#utility.yul\":8239:8248   */\n      dup4\n        /* \"#utility.yul\":8235:8252   */\n      add\n        /* \"#utility.yul\":8228:8275   */\n      mstore\n        /* \"#utility.yul\":8292:8370   */\n      tag_321\n        /* \"#utility.yul\":8365:8369   */\n      dup2\n        /* \"#utility.yul\":8356:8362   */\n      dup5\n        /* \"#utility.yul\":8292:8370   */\n      tag_171\n      jump\t// in\n    tag_321:\n        /* \"#utility.yul\":8284:8370   */\n      swap1\n      pop\n        /* \"#utility.yul\":8064:8377   */\n      swap3\n      swap2\n      pop\n      pop\n      jump\t// out\n        /* \"#utility.yul\":8383:8500   */\n    tag_172:\n        /* \"#utility.yul\":8492:8493   */\n      0x00\n        /* \"#utility.yul\":8489:8490   */\n      dup1\n        /* \"#utility.yul\":8482:8494   */\n      revert\n        /* \"#utility.yul\":8506:8623   */\n    tag_173:\n        /* \"#utility.yul\":8615:8616   */\n      0x00\n        /* \"#utility.yul\":8612:8613   */\n      dup1\n        /* \"#utility.yul\":8605:8617   */\n      revert\n        /* \"#utility.yul\":8629:8746   */\n    tag_174:\n        /* \"#utility.yul\":8738:8739   */\n      0x00\n        /* \"#utility.yul\":8735:8736   */\n      dup1\n        /* \"#utility.yul\":8728:8740   */\n      revert\n        /* \"#utility.yul\":8752:9476   */\n    tag_48:\n        /* \"#utility.yul\":8829:8833   */\n      0x00\n        /* \"#utility.yul\":8835:8841   */\n      dup1\n        /* \"#utility.yul\":8891:8902   */\n      dup4\n        /* \"#utility.yul\":8878:8903   */\n      calldataload\n        /* \"#utility.yul\":8991:8992   */\n      0x01\n        /* \"#utility.yul\":8985:8989   */\n      0x20\n        /* \"#utility.yul\":8981:8993   */\n      sub\n        /* \"#utility.yul\":8970:8978   */\n      dup5\n        /* \"#utility.yul\":8954:8968   */\n      calldatasize\n        /* \"#utility.yul\":8950:8979   */\n      sub\n        /* \"#utility.yul\":8946:8994   */\n      sub\n        /* \"#utility.yul\":8926:8944   */\n      dup2\n        /* \"#utility.yul\":8922:8995   */\n      slt\n        /* \"#utility.yul\":8912:9080   */\n      tag_326\n      jumpi\n        /* \"#utility.yul\":8999:9078   */\n      tag_327\n      tag_172\n      jump\t// in\n    tag_327:\n        /* \"#utility.yul\":8912:9080   */\n    tag_326:\n        /* \"#utility.yul\":9111:9129   */\n      dup1\n        /* \"#utility.yul\":9101:9109   */\n      dup5\n        /* \"#utility.yul\":9097:9130   */\n      add\n        /* \"#utility.yul\":9089:9130   */\n      swap3\n      pop\n        /* \"#utility.yul\":9163:9167   */\n      dup3\n        /* \"#utility.yul\":9150:9168   */\n      calldataload\n        /* \"#utility.yul\":9140:9168   */\n      swap2\n      pop\n        /* \"#utility.yul\":9191:9209   */\n      0xffffffffffffffff\n        /* \"#utility.yul\":9183:9189   */\n      dup3\n        /* \"#utility.yul\":9180:9210   */\n      gt\n        /* \"#utility.yul\":9177:9294   */\n      iszero\n      tag_328\n      jumpi\n        /* \"#utility.yul\":9213:9292   */\n      tag_329\n      tag_173\n      jump\t// in\n    tag_329:\n        /* \"#utility.yul\":9177:9294   */\n    tag_328:\n        /* \"#utility.yul\":9321:9323   */\n      0x20\n        /* \"#utility.yul\":9315:9319   */\n      dup4\n        /* \"#utility.yul\":9311:9324   */\n      add\n        /* \"#utility.yul\":9303:9324   */\n      swap3\n      pop\n        /* \"#utility.yul\":9378:9382   */\n      0x01\n        /* \"#utility.yul\":9370:9376   */\n      dup3\n        /* \"#utility.yul\":9366:9383   */\n      mul\n        /* \"#utility.yul\":9350:9364   */\n      calldatasize\n        /* \"#utility.yul\":9346:9384   */\n      sub\n        /* \"#utility.yul\":9340:9344   */\n      dup4\n        /* \"#utility.yul\":9336:9385   */\n      sgt\n        /* \"#utility.yul\":9333:9469   */\n      iszero\n      tag_330\n      jumpi\n        /* \"#utility.yul\":9388:9467   */\n      tag_331\n      tag_174\n      jump\t// in\n    tag_331:\n        /* \"#utility.yul\":9333:9469   */\n    tag_330:\n        /* \"#utility.yul\":8842:9476   */\n      pop\n        /* \"#utility.yul\":8752:9476   */\n      swap3\n      pop\n      swap3\n      swap1\n      pop\n      jump\t// out\n        /* \"#utility.yul\":9482:9599   */\n    tag_175:\n        /* \"#utility.yul\":9591:9592   */\n      0x00\n        /* \"#utility.yul\":9588:9589   */\n      dup1\n        /* \"#utility.yul\":9581:9593   */\n      revert\n        /* \"#utility.yul\":9605:9722   */\n    tag_176:\n        /* \"#utility.yul\":9714:9715   */\n      0x00\n        /* \"#utility.yul\":9711:9712   */\n      dup1\n        /* \"#utility.yul\":9704:9716   */\n      revert\n        /* \"#utility.yul\":9728:10197   */\n    tag_81:\n        /* \"#utility.yul\":9833:9842   */\n      0x00\n        /* \"#utility.yul\":9844:9853   */\n      dup1\n        /* \"#utility.yul\":9882:9890   */\n      dup6\n        /* \"#utility.yul\":9870:9880   */\n      dup6\n        /* \"#utility.yul\":9867:9891   */\n      gt\n        /* \"#utility.yul\":9864:9975   */\n      iszero\n      tag_335\n      jumpi\n        /* \"#utility.yul\":9894:9973   */\n      tag_336\n      tag_175\n      jump\t// in\n    tag_336:\n        /* \"#utility.yul\":9864:9975   */\n    tag_335:\n        /* \"#utility.yul\":10000:10006   */\n      dup4\n        /* \"#utility.yul\":9990:9998   */\n      dup7\n        /* \"#utility.yul\":9987:10007   */\n      gt\n        /* \"#utility.yul\":9984:10091   */\n      iszero\n      tag_337\n      jumpi\n        /* \"#utility.yul\":10010:10089   */\n      tag_338\n      tag_176\n      jump\t// in\n    tag_338:\n        /* \"#utility.yul\":9984:10091   */\n    tag_337:\n        /* \"#utility.yul\":10141:10142   */\n      0x01\n        /* \"#utility.yul\":10129:10139   */\n      dup6\n        /* \"#utility.yul\":10125:10143   */\n      mul\n        /* \"#utility.yul\":10117:10123   */\n      dup4\n        /* \"#utility.yul\":10113:10144   */\n      add\n        /* \"#utility.yul\":10100:10144   */\n      swap2\n      pop\n        /* \"#utility.yul\":10180:10190   */\n      dup5\n        /* \"#utility.yul\":10170:10178   */\n      dup7\n        /* \"#utility.yul\":10166:10191   */\n      sub\n        /* \"#utility.yul\":10153:10191   */\n      swap1\n      pop\n        /* \"#utility.yul\":9728:10197   */\n      swap5\n      pop\n      swap5\n      swap3\n      pop\n      pop\n      pop\n      jump\t// out\n        /* \"#utility.yul\":10203:10299   */\n    tag_177:\n        /* \"#utility.yul\":10261:10267   */\n      0x00\n        /* \"#utility.yul\":10289:10292   */\n      dup3\n        /* \"#utility.yul\":10279:10292   */\n      swap1\n      pop\n        /* \"#utility.yul\":10203:10299   */\n      swap3\n      swap2\n      pop\n      pop\n      jump\t// out\n        /* \"#utility.yul\":10397:10504   */\n    tag_179:\n        /* \"#utility.yul\":10441:10449   */\n      0x00\n        /* \"#utility.yul\":10491:10496   */\n      dup3\n        /* \"#utility.yul\":10485:10489   */\n      dup3\n        /* \"#utility.yul\":10481:10497   */\n      shl\n        /* \"#utility.yul\":10460:10497   */\n      swap1\n      pop\n        /* \"#utility.yul\":10397:10504   */\n      swap3\n      swap2\n      pop\n      pop\n      jump\t// out\n        /* \"#utility.yul\":10510:11058   */\n    tag_83:\n        /* \"#utility.yul\":10600:10605   */\n      0x00\n        /* \"#utility.yul\":10631:10676   */\n      tag_343\n        /* \"#utility.yul\":10672:10675   */\n      dup4\n        /* \"#utility.yul\":10665:10670   */\n      dup4\n        /* \"#utility.yul\":10631:10676   */\n      tag_177\n      jump\t// in\n    tag_343:\n        /* \"#utility.yul\":10701:10706   */\n      dup3\n        /* \"#utility.yul\":10725:10765   */\n      tag_344\n        /* \"#utility.yul\":10755:10763   */\n      dup2\n        /* \"#utility.yul\":10742:10764   */\n      calldataload\n        /* \"#utility.yul\":10725:10765   */\n      tag_145\n      jump\t// in\n    tag_344:\n        /* \"#utility.yul\":10716:10765   */\n      swap3\n      pop\n        /* \"#utility.yul\":10789:10790   */\n      0x04\n        /* \"#utility.yul\":10781:10787   */\n      dup3\n        /* \"#utility.yul\":10778:10791   */\n      lt\n        /* \"#utility.yul\":10775:11051   */\n      iszero\n      tag_345\n      jumpi\n        /* \"#utility.yul\":10859:11027   */\n      tag_346\n        /* \"#utility.yul\":10943:11009   */\n      0xffffffff00000000000000000000000000000000000000000000000000000000\n        /* \"#utility.yul\":10913:10919   */\n      dup4\n        /* \"#utility.yul\":10910:10911   */\n      0x04\n        /* \"#utility.yul\":10906:10920   */\n      sub\n        /* \"#utility.yul\":10903:10904   */\n      0x08\n        /* \"#utility.yul\":10899:10921   */\n      mul\n        /* \"#utility.yul\":10859:11027   */\n      tag_179\n      jump\t// in\n    tag_346:\n        /* \"#utility.yul\":10836:10841   */\n      dup4\n        /* \"#utility.yul\":10815:11041   */\n      and\n        /* \"#utility.yul\":10806:11041   */\n      swap3\n      pop\n        /* \"#utility.yul\":10775:11051   */\n    tag_345:\n        /* \"#utility.yul\":10606:11058   */\n      pop\n      pop\n        /* \"#utility.yul\":10510:11058   */\n      swap3\n      swap2\n      pop\n      pop\n      jump\t// out\n        /* \"#utility.yul\":11064:11388   */\n    tag_88:\n        /* \"#utility.yul\":11181:11185   */\n      0x00\n        /* \"#utility.yul\":11219:11221   */\n      0x40\n        /* \"#utility.yul\":11208:11217   */\n      dup3\n        /* \"#utility.yul\":11204:11222   */\n      add\n        /* \"#utility.yul\":11196:11222   */\n      swap1\n      pop\n        /* \"#utility.yul\":11232:11301   */\n      tag_348\n        /* \"#utility.yul\":11298:11299   */\n      0x00\n        /* \"#utility.yul\":11287:11296   */\n      dup4\n        /* \"#utility.yul\":11283:11300   */\n      add\n        /* \"#utility.yul\":11274:11280   */\n      dup6\n        /* \"#utility.yul\":11232:11301   */\n      tag_146\n      jump\t// in\n    tag_348:\n        /* \"#utility.yul\":11311:11381   */\n      tag_349\n        /* \"#utility.yul\":11377:11379   */\n      0x20\n        /* \"#utility.yul\":11366:11375   */\n      dup4\n        /* \"#utility.yul\":11362:11380   */\n      add\n        /* \"#utility.yul\":11353:11359   */\n      dup5\n        /* \"#utility.yul\":11311:11381   */\n      tag_146\n      jump\t// in\n    tag_349:\n        /* \"#utility.yul\":11064:11388   */\n      swap4\n      swap3\n      pop\n      pop\n      pop\n      jump\t// out\n        /* \"#utility.yul\":11394:11511   */\n    tag_180:\n        /* \"#utility.yul\":11503:11504   */\n      0x00\n        /* \"#utility.yul\":11500:11501   */\n      dup1\n        /* \"#utility.yul\":11493:11505   */\n      revert\n        /* \"#utility.yul\":11517:11697   */\n    tag_181:\n        /* \"#utility.yul\":11565:11642   */\n      0x4e487b7100000000000000000000000000000000000000000000000000000000\n        /* \"#utility.yul\":11562:11563   */\n      0x00\n        /* \"#utility.yul\":11555:11643   */\n      mstore\n        /* \"#utility.yul\":11662:11666   */\n      0x41\n        /* \"#utility.yul\":11659:11660   */\n      0x04\n        /* \"#utility.yul\":11652:11667   */\n      mstore\n        /* \"#utility.yul\":11686:11690   */\n      0x24\n        /* \"#utility.yul\":11683:11684   */\n      0x00\n        /* \"#utility.yul\":11676:11691   */\n      revert\n        /* \"#utility.yul\":11703:11984   */\n    tag_182:\n        /* \"#utility.yul\":11786:11813   */\n      tag_353\n        /* \"#utility.yul\":11808:11812   */\n      dup3\n        /* \"#utility.yul\":11786:11813   */\n      tag_170\n      jump\t// in\n    tag_353:\n        /* \"#utility.yul\":11778:11784   */\n      dup2\n        /* \"#utility.yul\":11774:11814   */\n      add\n        /* \"#utility.yul\":11916:11922   */\n      dup2\n        /* \"#utility.yul\":11904:11914   */\n      dup2\n        /* \"#utility.yul\":11901:11923   */\n      lt\n        /* \"#utility.yul\":11880:11898   */\n      0xffffffffffffffff\n        /* \"#utility.yul\":11868:11878   */\n      dup3\n        /* \"#utility.yul\":11865:11899   */\n      gt\n        /* \"#utility.yul\":11862:11924   */\n      or\n        /* \"#utility.yul\":11859:11947   */\n      iszero\n      tag_354\n      jumpi\n        /* \"#utility.yul\":11927:11945   */\n      tag_355\n      tag_181\n      jump\t// in\n    tag_355:\n        /* \"#utility.yul\":11859:11947   */\n    tag_354:\n        /* \"#utility.yul\":11967:11977   */\n      dup1\n        /* \"#utility.yul\":11963:11965   */\n      0x40\n        /* \"#utility.yul\":11956:11978   */\n      mstore\n        /* \"#utility.yul\":11746:11984   */\n      pop\n        /* \"#utility.yul\":11703:11984   */\n      pop\n      pop\n      jump\t// out\n        /* \"#utility.yul\":11990:12119   */\n    tag_183:\n        /* \"#utility.yul\":12024:12030   */\n      0x00\n        /* \"#utility.yul\":12051:12071   */\n      tag_357\n      tag_147\n      jump\t// in\n    tag_357:\n        /* \"#utility.yul\":12041:12071   */\n      swap1\n      pop\n        /* \"#utility.yul\":12080:12113   */\n      tag_358\n        /* \"#utility.yul\":12108:12112   */\n      dup3\n        /* \"#utility.yul\":12100:12106   */\n      dup3\n        /* \"#utility.yul\":12080:12113   */\n      tag_182\n      jump\t// in\n    tag_358:\n        /* \"#utility.yul\":11990:12119   */\n      swap2\n      swap1\n      pop\n      jump\t// out\n        /* \"#utility.yul\":12248:12497   */\n    tag_185:\n        /* \"#utility.yul\":12323:12327   */\n      0x00\n        /* \"#utility.yul\":12413:12431   */\n      0xffffffffffffffff\n        /* \"#utility.yul\":12405:12411   */\n      dup3\n        /* \"#utility.yul\":12402:12432   */\n      gt\n        /* \"#utility.yul\":12399:12455   */\n      iszero\n      tag_361\n      jumpi\n        /* \"#utility.yul\":12435:12453   */\n      tag_362\n      tag_181\n      jump\t// in\n    tag_362:\n        /* \"#utility.yul\":12399:12455   */\n    tag_361:\n        /* \"#utility.yul\":12485:12489   */\n      0x20\n        /* \"#utility.yul\":12477:12483   */\n      dup3\n        /* \"#utility.yul\":12473:12490   */\n      mul\n        /* \"#utility.yul\":12465:12490   */\n      swap1\n      pop\n        /* \"#utility.yul\":12248:12497   */\n      swap2\n      swap1\n      pop\n      jump\t// out\n        /* \"#utility.yul\":12503:12580   */\n    tag_186:\n        /* \"#utility.yul\":12540:12547   */\n      0x00\n        /* \"#utility.yul\":12569:12574   */\n      dup2\n        /* \"#utility.yul\":12558:12574   */\n      swap1\n      pop\n        /* \"#utility.yul\":12503:12580   */\n      swap2\n      swap1\n      pop\n      jump\t// out\n        /* \"#utility.yul\":12586:12708   */\n    tag_187:\n        /* \"#utility.yul\":12659:12683   */\n      tag_365\n        /* \"#utility.yul\":12677:12682   */\n      dup2\n        /* \"#utility.yul\":12659:12683   */\n      tag_186\n      jump\t// in\n    tag_365:\n        /* \"#utility.yul\":12652:12657   */\n      dup2\n        /* \"#utility.yul\":12649:12684   */\n      eq\n        /* \"#utility.yul\":12639:12702   */\n      tag_366\n      jumpi\n        /* \"#utility.yul\":12698:12699   */\n      0x00\n        /* \"#utility.yul\":12695:12696   */\n      dup1\n        /* \"#utility.yul\":12688:12700   */\n      revert\n        /* \"#utility.yul\":12639:12702   */\n    tag_366:\n        /* \"#utility.yul\":12586:12708   */\n      pop\n      jump\t// out\n        /* \"#utility.yul\":12714:12853   */\n    tag_188:\n        /* \"#utility.yul\":12760:12765   */\n      0x00\n        /* \"#utility.yul\":12798:12804   */\n      dup2\n        /* \"#utility.yul\":12785:12805   */\n      calldataload\n        /* \"#utility.yul\":12776:12805   */\n      swap1\n      pop\n        /* \"#utility.yul\":12814:12847   */\n      tag_368\n        /* \"#utility.yul\":12841:12846   */\n      dup2\n        /* \"#utility.yul\":12814:12847   */\n      tag_187\n      jump\t// in\n    tag_368:\n        /* \"#utility.yul\":12714:12853   */\n      swap3\n      swap2\n      pop\n      pop\n      jump\t// out\n        /* \"#utility.yul\":12877:13520   */\n    tag_189:\n        /* \"#utility.yul\":12971:12976   */\n      0x00\n        /* \"#utility.yul\":12996:13075   */\n      tag_370\n        /* \"#utility.yul\":13012:13074   */\n      tag_371\n        /* \"#utility.yul\":13067:13073   */\n      dup5\n        /* \"#utility.yul\":13012:13074   */\n      tag_185\n      jump\t// in\n    tag_371:\n        /* \"#utility.yul\":12996:13075   */\n      tag_183\n      jump\t// in\n    tag_370:\n        /* \"#utility.yul\":12987:13075   */\n      swap1\n      pop\n        /* \"#utility.yul\":13095:13100   */\n      dup1\n        /* \"#utility.yul\":13148:13152   */\n      0x20\n        /* \"#utility.yul\":13140:13146   */\n      dup5\n        /* \"#utility.yul\":13136:13153   */\n      mul\n        /* \"#utility.yul\":13128:13134   */\n      dup4\n        /* \"#utility.yul\":13124:13154   */\n      add\n        /* \"#utility.yul\":13177:13180   */\n      dup6\n        /* \"#utility.yul\":13169:13175   */\n      dup2\n        /* \"#utility.yul\":13166:13181   */\n      gt\n        /* \"#utility.yul\":13163:13285   */\n      iszero\n      tag_372\n      jumpi\n        /* \"#utility.yul\":13196:13275   */\n      tag_373\n      tag_154\n      jump\t// in\n    tag_373:\n        /* \"#utility.yul\":13163:13285   */\n    tag_372:\n        /* \"#utility.yul\":13311:13317   */\n      dup4\n        /* \"#utility.yul\":13294:13514   */\n    tag_374:\n        /* \"#utility.yul\":13328:13334   */\n      dup2\n        /* \"#utility.yul\":13323:13326   */\n      dup2\n        /* \"#utility.yul\":13320:13335   */\n      lt\n        /* \"#utility.yul\":13294:13514   */\n      iszero\n      tag_376\n      jumpi\n        /* \"#utility.yul\":13403:13406   */\n      dup1\n        /* \"#utility.yul\":13432:13469   */\n      tag_377\n        /* \"#utility.yul\":13465:13468   */\n      dup9\n        /* \"#utility.yul\":13453:13463   */\n      dup3\n        /* \"#utility.yul\":13432:13469   */\n      tag_188\n      jump\t// in\n    tag_377:\n        /* \"#utility.yul\":13427:13430   */\n      dup5\n        /* \"#utility.yul\":13420:13470   */\n      mstore\n        /* \"#utility.yul\":13499:13503   */\n      0x20\n        /* \"#utility.yul\":13494:13497   */\n      dup5\n        /* \"#utility.yul\":13490:13504   */\n      add\n        /* \"#utility.yul\":13483:13504   */\n      swap4\n      pop\n        /* \"#utility.yul\":13370:13514   */\n      pop\n        /* \"#utility.yul\":13354:13358   */\n      0x20\n        /* \"#utility.yul\":13349:13352   */\n      dup2\n        /* \"#utility.yul\":13345:13359   */\n      add\n        /* \"#utility.yul\":13338:13359   */\n      swap1\n      pop\n        /* \"#utility.yul\":13294:13514   */\n      jump(tag_374)\n    tag_376:\n        /* \"#utility.yul\":13298:13319   */\n      pop\n        /* \"#utility.yul\":12977:13520   */\n      pop\n      pop\n        /* \"#utility.yul\":12877:13520   */\n      swap4\n      swap3\n      pop\n      pop\n      pop\n      jump\t// out\n        /* \"#utility.yul\":13544:13883   */\n    tag_190:\n        /* \"#utility.yul\":13613:13618   */\n      0x00\n        /* \"#utility.yul\":13662:13665   */\n      dup3\n        /* \"#utility.yul\":13655:13659   */\n      0x1f\n        /* \"#utility.yul\":13647:13653   */\n      dup4\n        /* \"#utility.yul\":13643:13660   */\n      add\n        /* \"#utility.yul\":13639:13666   */\n      slt\n        /* \"#utility.yul\":13629:13751   */\n      tag_379\n      jumpi\n        /* \"#utility.yul\":13670:13749   */\n      tag_380\n      tag_162\n      jump\t// in\n    tag_380:\n        /* \"#utility.yul\":13629:13751   */\n    tag_379:\n        /* \"#utility.yul\":13774:13778   */\n      0x02\n        /* \"#utility.yul\":13796:13877   */\n      tag_381\n        /* \"#utility.yul\":13873:13876   */\n      dup5\n        /* \"#utility.yul\":13865:13871   */\n      dup3\n        /* \"#utility.yul\":13857:13863   */\n      dup6\n        /* \"#utility.yul\":13796:13877   */\n      tag_189\n      jump\t// in\n    tag_381:\n        /* \"#utility.yul\":13787:13877   */\n      swap2\n      pop\n        /* \"#utility.yul\":13619:13883   */\n      pop\n        /* \"#utility.yul\":13544:13883   */\n      swap3\n      swap2\n      pop\n      pop\n      jump\t// out\n        /* \"#utility.yul\":13889:14161   */\n    tag_191:\n        /* \"#utility.yul\":13987:13991   */\n      0x00\n        /* \"#utility.yul\":14077:14095   */\n      0xffffffffffffffff\n        /* \"#utility.yul\":14069:14075   */\n      dup3\n        /* \"#utility.yul\":14066:14096   */\n      gt\n        /* \"#utility.yul\":14063:14119   */\n      iszero\n      tag_383\n      jumpi\n        /* \"#utility.yul\":14099:14117   */\n      tag_384\n      tag_181\n      jump\t// in\n    tag_384:\n        /* \"#utility.yul\":14063:14119   */\n    tag_383:\n        /* \"#utility.yul\":14149:14153   */\n      0x20\n        /* \"#utility.yul\":14141:14147   */\n      dup3\n        /* \"#utility.yul\":14137:14154   */\n      mul\n        /* \"#utility.yul\":14129:14154   */\n      swap1\n      pop\n        /* \"#utility.yul\":13889:14161   */\n      swap2\n      swap1\n      pop\n      jump\t// out\n        /* \"#utility.yul\":14188:14900   */\n    tag_192:\n        /* \"#utility.yul\":14305:14310   */\n      0x00\n        /* \"#utility.yul\":14330:14432   */\n      tag_386\n        /* \"#utility.yul\":14346:14431   */\n      tag_387\n        /* \"#utility.yul\":14424:14430   */\n      dup5\n        /* \"#utility.yul\":14346:14431   */\n      tag_191\n      jump\t// in\n    tag_387:\n        /* \"#utility.yul\":14330:14432   */\n      tag_183\n      jump\t// in\n    tag_386:\n        /* \"#utility.yul\":14321:14432   */\n      swap1\n      pop\n        /* \"#utility.yul\":14452:14457   */\n      dup1\n        /* \"#utility.yul\":14505:14509   */\n      0x40\n        /* \"#utility.yul\":14497:14503   */\n      dup5\n        /* \"#utility.yul\":14493:14510   */\n      mul\n        /* \"#utility.yul\":14485:14491   */\n      dup4\n        /* \"#utility.yul\":14481:14511   */\n      add\n        /* \"#utility.yul\":14534:14537   */\n      dup6\n        /* \"#utility.yul\":14526:14532   */\n      dup2\n        /* \"#utility.yul\":14523:14538   */\n      gt\n        /* \"#utility.yul\":14520:14642   */\n      iszero\n      tag_388\n      jumpi\n        /* \"#utility.yul\":14553:14632   */\n      tag_389\n      tag_154\n      jump\t// in\n    tag_389:\n        /* \"#utility.yul\":14520:14642   */\n    tag_388:\n        /* \"#utility.yul\":14668:14674   */\n      dup4\n        /* \"#utility.yul\":14651:14894   */\n    tag_390:\n        /* \"#utility.yul\":14685:14691   */\n      dup2\n        /* \"#utility.yul\":14680:14683   */\n      dup2\n        /* \"#utility.yul\":14677:14692   */\n      lt\n        /* \"#utility.yul\":14651:14894   */\n      iszero\n      tag_392\n      jumpi\n        /* \"#utility.yul\":14760:14763   */\n      dup1\n        /* \"#utility.yul\":14789:14849   */\n      tag_393\n        /* \"#utility.yul\":14845:14848   */\n      dup9\n        /* \"#utility.yul\":14833:14843   */\n      dup3\n        /* \"#utility.yul\":14789:14849   */\n      tag_190\n      jump\t// in\n    tag_393:\n        /* \"#utility.yul\":14784:14787   */\n      dup5\n        /* \"#utility.yul\":14777:14850   */\n      mstore\n        /* \"#utility.yul\":14879:14883   */\n      0x20\n        /* \"#utility.yul\":14874:14877   */\n      dup5\n        /* \"#utility.yul\":14870:14884   */\n      add\n        /* \"#utility.yul\":14863:14884   */\n      swap4\n      pop\n        /* \"#utility.yul\":14727:14894   */\n      pop\n        /* \"#utility.yul\":14711:14715   */\n      0x40\n        /* \"#utility.yul\":14706:14709   */\n      dup2\n        /* \"#utility.yul\":14702:14716   */\n      add\n        /* \"#utility.yul\":14695:14716   */\n      swap1\n      pop\n        /* \"#utility.yul\":14651:14894   */\n      jump(tag_390)\n    tag_392:\n        /* \"#utility.yul\":14655:14676   */\n      pop\n        /* \"#utility.yul\":14311:14900   */\n      pop\n      pop\n        /* \"#utility.yul\":14188:14900   */\n      swap4\n      swap3\n      pop\n      pop\n      pop\n      jump\t// out\n        /* \"#utility.yul\":14927:15312   */\n    tag_193:\n        /* \"#utility.yul\":15019:15024   */\n      0x00\n        /* \"#utility.yul\":15068:15071   */\n      dup3\n        /* \"#utility.yul\":15061:15065   */\n      0x1f\n        /* \"#utility.yul\":15053:15059   */\n      dup4\n        /* \"#utility.yul\":15049:15066   */\n      add\n        /* \"#utility.yul\":15045:15072   */\n      slt\n        /* \"#utility.yul\":15035:15157   */\n      tag_395\n      jumpi\n        /* \"#utility.yul\":15076:15155   */\n      tag_396\n      tag_162\n      jump\t// in\n    tag_396:\n        /* \"#utility.yul\":15035:15157   */\n    tag_395:\n        /* \"#utility.yul\":15180:15184   */\n      0x02\n        /* \"#utility.yul\":15202:15306   */\n      tag_397\n        /* \"#utility.yul\":15302:15305   */\n      dup5\n        /* \"#utility.yul\":15294:15300   */\n      dup3\n        /* \"#utility.yul\":15286:15292   */\n      dup6\n        /* \"#utility.yul\":15202:15306   */\n      tag_192\n      jump\t// in\n    tag_397:\n        /* \"#utility.yul\":15193:15306   */\n      swap2\n      pop\n        /* \"#utility.yul\":15025:15312   */\n      pop\n        /* \"#utility.yul\":14927:15312   */\n      swap3\n      swap2\n      pop\n      pop\n      jump\t// out\n        /* \"#utility.yul\":15337:16155   */\n    tag_194:\n        /* \"#utility.yul\":15408:15413   */\n      0x00\n        /* \"#utility.yul\":15452:15458   */\n      0x0100\n        /* \"#utility.yul\":15440:15449   */\n      dup3\n        /* \"#utility.yul\":15435:15438   */\n      dup5\n        /* \"#utility.yul\":15431:15450   */\n      sub\n        /* \"#utility.yul\":15427:15459   */\n      slt\n        /* \"#utility.yul\":15424:15543   */\n      iszero\n      tag_399\n      jumpi\n        /* \"#utility.yul\":15462:15541   */\n      tag_400\n      tag_180\n      jump\t// in\n    tag_400:\n        /* \"#utility.yul\":15424:15543   */\n    tag_399:\n        /* \"#utility.yul\":15561:15582   */\n      tag_401\n        /* \"#utility.yul\":15577:15581   */\n      0x60\n        /* \"#utility.yul\":15561:15582   */\n      tag_183\n      jump\t// in\n    tag_401:\n        /* \"#utility.yul\":15552:15582   */\n      swap1\n      pop\n        /* \"#utility.yul\":15638:15639   */\n      0x00\n        /* \"#utility.yul\":15678:15750   */\n      tag_402\n        /* \"#utility.yul\":15746:15749   */\n      dup5\n        /* \"#utility.yul\":15737:15743   */\n      dup3\n        /* \"#utility.yul\":15726:15735   */\n      dup6\n        /* \"#utility.yul\":15722:15744   */\n      add\n        /* \"#utility.yul\":15678:15750   */\n      tag_190\n      jump\t// in\n    tag_402:\n        /* \"#utility.yul\":15671:15675   */\n      0x00\n        /* \"#utility.yul\":15664:15669   */\n      dup4\n        /* \"#utility.yul\":15660:15676   */\n      add\n        /* \"#utility.yul\":15653:15751   */\n      mstore\n        /* \"#utility.yul\":15592:15762   */\n      pop\n        /* \"#utility.yul\":15818:15820   */\n      0x40\n        /* \"#utility.yul\":15859:15954   */\n      tag_403\n        /* \"#utility.yul\":15950:15953   */\n      dup5\n        /* \"#utility.yul\":15941:15947   */\n      dup3\n        /* \"#utility.yul\":15930:15939   */\n      dup6\n        /* \"#utility.yul\":15926:15948   */\n      add\n        /* \"#utility.yul\":15859:15954   */\n      tag_193\n      jump\t// in\n    tag_403:\n        /* \"#utility.yul\":15852:15856   */\n      0x20\n        /* \"#utility.yul\":15845:15850   */\n      dup4\n        /* \"#utility.yul\":15841:15857   */\n      add\n        /* \"#utility.yul\":15834:15955   */\n      mstore\n        /* \"#utility.yul\":15772:15966   */\n      pop\n        /* \"#utility.yul\":16022:16025   */\n      0xc0\n        /* \"#utility.yul\":16064:16136   */\n      tag_404\n        /* \"#utility.yul\":16132:16135   */\n      dup5\n        /* \"#utility.yul\":16123:16129   */\n      dup3\n        /* \"#utility.yul\":16112:16121   */\n      dup6\n        /* \"#utility.yul\":16108:16130   */\n      add\n        /* \"#utility.yul\":16064:16136   */\n      tag_190\n      jump\t// in\n    tag_404:\n        /* \"#utility.yul\":16057:16061   */\n      0x40\n        /* \"#utility.yul\":16050:16055   */\n      dup4\n        /* \"#utility.yul\":16046:16062   */\n      add\n        /* \"#utility.yul\":16039:16137   */\n      mstore\n        /* \"#utility.yul\":15976:16148   */\n      pop\n        /* \"#utility.yul\":15337:16155   */\n      swap3\n      swap2\n      pop\n      pop\n      jump\t// out\n        /* \"#utility.yul\":16161:16535   */\n    tag_93:\n        /* \"#utility.yul\":16242:16248   */\n      0x00\n        /* \"#utility.yul\":16291:16294   */\n      0x0100\n        /* \"#utility.yul\":16279:16288   */\n      dup3\n        /* \"#utility.yul\":16270:16277   */\n      dup5\n        /* \"#utility.yul\":16266:16289   */\n      sub\n        /* \"#utility.yul\":16262:16295   */\n      slt\n        /* \"#utility.yul\":16259:16379   */\n      iszero\n      tag_406\n      jumpi\n        /* \"#utility.yul\":16298:16377   */\n      tag_407\n      tag_148\n      jump\t// in\n    tag_407:\n        /* \"#utility.yul\":16259:16379   */\n    tag_406:\n        /* \"#utility.yul\":16418:16419   */\n      0x00\n        /* \"#utility.yul\":16443:16518   */\n      tag_408\n        /* \"#utility.yul\":16510:16517   */\n      dup5\n        /* \"#utility.yul\":16501:16507   */\n      dup3\n        /* \"#utility.yul\":16490:16499   */\n      dup6\n        /* \"#utility.yul\":16486:16508   */\n      add\n        /* \"#utility.yul\":16443:16518   */\n      tag_194\n      jump\t// in\n    tag_408:\n        /* \"#utility.yul\":16433:16518   */\n      swap2\n      pop\n        /* \"#utility.yul\":16389:16528   */\n      pop\n        /* \"#utility.yul\":16161:16535   */\n      swap3\n      swap2\n      pop\n      pop\n      jump\t// out\n        /* \"#utility.yul\":16541:16645   */\n    tag_195:\n        /* \"#utility.yul\":16606:16612   */\n      0x00\n        /* \"#utility.yul\":16634:16638   */\n      0x02\n        /* \"#utility.yul\":16624:16638   */\n      swap1\n      pop\n        /* \"#utility.yul\":16541:16645   */\n      swap2\n      swap1\n      pop\n      jump\t// out\n        /* \"#utility.yul\":16651:16794   */\n    tag_196:\n        /* \"#utility.yul\":16748:16759   */\n      0x00\n        /* \"#utility.yul\":16785:16788   */\n      dup2\n        /* \"#utility.yul\":16770:16788   */\n      swap1\n      pop\n        /* \"#utility.yul\":16651:16794   */\n      swap3\n      swap2\n      pop\n      pop\n      jump\t// out\n        /* \"#utility.yul\":16800:16898   */\n    tag_197:\n        /* \"#utility.yul\":16865:16869   */\n      0x00\n        /* \"#utility.yul\":16888:16891   */\n      dup2\n        /* \"#utility.yul\":16880:16891   */\n      swap1\n      pop\n        /* \"#utility.yul\":16800:16898   */\n      swap2\n      swap1\n      pop\n      jump\t// out\n        /* \"#utility.yul\":16904:17012   */\n    tag_198:\n        /* \"#utility.yul\":16981:17005   */\n      tag_413\n        /* \"#utility.yul\":16999:17004   */\n      dup2\n        /* \"#utility.yul\":16981:17005   */\n      tag_186\n      jump\t// in\n    tag_413:\n        /* \"#utility.yul\":16976:16979   */\n      dup3\n        /* \"#utility.yul\":16969:17006   */\n      mstore\n        /* \"#utility.yul\":16904:17012   */\n      pop\n      pop\n      jump\t// out\n        /* \"#utility.yul\":17018:17197   */\n    tag_199:\n        /* \"#utility.yul\":17087:17097   */\n      0x00\n        /* \"#utility.yul\":17108:17154   */\n      tag_415\n        /* \"#utility.yul\":17150:17153   */\n      dup4\n        /* \"#utility.yul\":17142:17148   */\n      dup4\n        /* \"#utility.yul\":17108:17154   */\n      tag_198\n      jump\t// in\n    tag_415:\n        /* \"#utility.yul\":17186:17190   */\n      0x20\n        /* \"#utility.yul\":17181:17184   */\n      dup4\n        /* \"#utility.yul\":17177:17191   */\n      add\n        /* \"#utility.yul\":17163:17191   */\n      swap1\n      pop\n        /* \"#utility.yul\":17018:17197   */\n      swap3\n      swap2\n      pop\n      pop\n      jump\t// out\n        /* \"#utility.yul\":17203:17314   */\n    tag_200:\n        /* \"#utility.yul\":17271:17275   */\n      0x00\n        /* \"#utility.yul\":17303:17307   */\n      0x20\n        /* \"#utility.yul\":17298:17301   */\n      dup3\n        /* \"#utility.yul\":17294:17308   */\n      add\n        /* \"#utility.yul\":17286:17308   */\n      swap1\n      pop\n        /* \"#utility.yul\":17203:17314   */\n      swap2\n      swap1\n      pop\n      jump\t// out\n        /* \"#utility.yul\":17352:18046   */\n    tag_201:\n        /* \"#utility.yul\":17488:17540   */\n      tag_418\n        /* \"#utility.yul\":17534:17539   */\n      dup2\n        /* \"#utility.yul\":17488:17540   */\n      tag_195\n      jump\t// in\n    tag_418:\n        /* \"#utility.yul\":17556:17640   */\n      tag_419\n        /* \"#utility.yul\":17633:17639   */\n      dup2\n        /* \"#utility.yul\":17628:17631   */\n      dup5\n        /* \"#utility.yul\":17556:17640   */\n      tag_196\n      jump\t// in\n    tag_419:\n        /* \"#utility.yul\":17549:17640   */\n      swap3\n      pop\n        /* \"#utility.yul\":17664:17718   */\n      tag_420\n        /* \"#utility.yul\":17712:17717   */\n      dup3\n        /* \"#utility.yul\":17664:17718   */\n      tag_197\n      jump\t// in\n    tag_420:\n        /* \"#utility.yul\":17741:17748   */\n      dup1\n        /* \"#utility.yul\":17772:17773   */\n      0x00\n        /* \"#utility.yul\":17757:18039   */\n    tag_421:\n        /* \"#utility.yul\":17782:17788   */\n      dup4\n        /* \"#utility.yul\":17779:17780   */\n      dup2\n        /* \"#utility.yul\":17776:17789   */\n      lt\n        /* \"#utility.yul\":17757:18039   */\n      iszero\n      tag_423\n      jumpi\n        /* \"#utility.yul\":17858:17864   */\n      dup2\n        /* \"#utility.yul\":17852:17865   */\n      mload\n        /* \"#utility.yul\":17885:17948   */\n      tag_424\n        /* \"#utility.yul\":17944:17947   */\n      dup8\n        /* \"#utility.yul\":17929:17942   */\n      dup3\n        /* \"#utility.yul\":17885:17948   */\n      tag_199\n      jump\t// in\n    tag_424:\n        /* \"#utility.yul\":17878:17948   */\n      swap7\n      pop\n        /* \"#utility.yul\":17971:18029   */\n      tag_425\n        /* \"#utility.yul\":18022:18028   */\n      dup4\n        /* \"#utility.yul\":17971:18029   */\n      tag_200\n      jump\t// in\n    tag_425:\n        /* \"#utility.yul\":17961:18029   */\n      swap3\n      pop\n        /* \"#utility.yul\":17817:18039   */\n      pop\n        /* \"#utility.yul\":17804:17805   */\n      0x01\n        /* \"#utility.yul\":17801:17802   */\n      dup2\n        /* \"#utility.yul\":17797:17806   */\n      add\n        /* \"#utility.yul\":17792:17806   */\n      swap1\n      pop\n        /* \"#utility.yul\":17757:18039   */\n      jump(tag_421)\n    tag_423:\n        /* \"#utility.yul\":17761:17775   */\n      pop\n        /* \"#utility.yul\":17464:18046   */\n      pop\n      pop\n      pop\n        /* \"#utility.yul\":17352:18046   */\n      pop\n      pop\n      jump\t// out\n        /* \"#utility.yul\":18052:18179   */\n    tag_202:\n        /* \"#utility.yul\":18140:18146   */\n      0x00\n        /* \"#utility.yul\":18168:18172   */\n      0x02\n        /* \"#utility.yul\":18158:18172   */\n      swap1\n      pop\n        /* \"#utility.yul\":18052:18179   */\n      swap2\n      swap1\n      pop\n      jump\t// out\n        /* \"#utility.yul\":18185:18351   */\n    tag_203:\n        /* \"#utility.yul\":18305:18316   */\n      0x00\n        /* \"#utility.yul\":18342:18345   */\n      dup2\n        /* \"#utility.yul\":18327:18345   */\n      swap1\n      pop\n        /* \"#utility.yul\":18185:18351   */\n      swap3\n      swap2\n      pop\n      pop\n      jump\t// out\n        /* \"#utility.yul\":18357:18478   */\n    tag_204:\n        /* \"#utility.yul\":18445:18449   */\n      0x00\n        /* \"#utility.yul\":18468:18471   */\n      dup2\n        /* \"#utility.yul\":18460:18471   */\n      swap1\n      pop\n        /* \"#utility.yul\":18357:18478   */\n      swap2\n      swap1\n      pop\n      jump\t// out\n        /* \"#utility.yul\":18484:18617   */\n    tag_205:\n        /* \"#utility.yul\":18571:18582   */\n      0x00\n        /* \"#utility.yul\":18608:18611   */\n      dup2\n        /* \"#utility.yul\":18593:18611   */\n      swap1\n      pop\n        /* \"#utility.yul\":18484:18617   */\n      swap3\n      swap2\n      pop\n      pop\n      jump\t// out\n        /* \"#utility.yul\":18655:19329   */\n    tag_206:\n        /* \"#utility.yul\":18781:18833   */\n      tag_431\n        /* \"#utility.yul\":18827:18832   */\n      dup2\n        /* \"#utility.yul\":18781:18833   */\n      tag_195\n      jump\t// in\n    tag_431:\n        /* \"#utility.yul\":18849:18923   */\n      tag_432\n        /* \"#utility.yul\":18916:18922   */\n      dup2\n        /* \"#utility.yul\":18911:18914   */\n      dup5\n        /* \"#utility.yul\":18849:18923   */\n      tag_205\n      jump\t// in\n    tag_432:\n        /* \"#utility.yul\":18842:18923   */\n      swap3\n      pop\n        /* \"#utility.yul\":18947:19001   */\n      tag_433\n        /* \"#utility.yul\":18995:19000   */\n      dup3\n        /* \"#utility.yul\":18947:19001   */\n      tag_197\n      jump\t// in\n    tag_433:\n        /* \"#utility.yul\":19024:19031   */\n      dup1\n        /* \"#utility.yul\":19055:19056   */\n      0x00\n        /* \"#utility.yul\":19040:19322   */\n    tag_434:\n        /* \"#utility.yul\":19065:19071   */\n      dup4\n        /* \"#utility.yul\":19062:19063   */\n      dup2\n        /* \"#utility.yul\":19059:19072   */\n      lt\n        /* \"#utility.yul\":19040:19322   */\n      iszero\n      tag_436\n      jumpi\n        /* \"#utility.yul\":19141:19147   */\n      dup2\n        /* \"#utility.yul\":19135:19148   */\n      mload\n        /* \"#utility.yul\":19168:19231   */\n      tag_437\n        /* \"#utility.yul\":19227:19230   */\n      dup8\n        /* \"#utility.yul\":19212:19225   */\n      dup3\n        /* \"#utility.yul\":19168:19231   */\n      tag_199\n      jump\t// in\n    tag_437:\n        /* \"#utility.yul\":19161:19231   */\n      swap7\n      pop\n        /* \"#utility.yul\":19254:19312   */\n      tag_438\n        /* \"#utility.yul\":19305:19311   */\n      dup4\n        /* \"#utility.yul\":19254:19312   */\n      tag_200\n      jump\t// in\n    tag_438:\n        /* \"#utility.yul\":19244:19312   */\n      swap3\n      pop\n        /* \"#utility.yul\":19100:19322   */\n      pop\n        /* \"#utility.yul\":19087:19088   */\n      0x01\n        /* \"#utility.yul\":19084:19085   */\n      dup2\n        /* \"#utility.yul\":19080:19089   */\n      add\n        /* \"#utility.yul\":19075:19089   */\n      swap1\n      pop\n        /* \"#utility.yul\":19040:19322   */\n      jump(tag_434)\n    tag_436:\n        /* \"#utility.yul\":19044:19058   */\n      pop\n        /* \"#utility.yul\":18757:19329   */\n      pop\n      pop\n      pop\n        /* \"#utility.yul\":18655:19329   */\n      pop\n      pop\n      jump\t// out\n        /* \"#utility.yul\":19335:19606   */\n    tag_207:\n        /* \"#utility.yul\":19450:19460   */\n      0x00\n        /* \"#utility.yul\":19471:19563   */\n      tag_440\n        /* \"#utility.yul\":19559:19562   */\n      dup4\n        /* \"#utility.yul\":19551:19557   */\n      dup4\n        /* \"#utility.yul\":19471:19563   */\n      tag_206\n      jump\t// in\n    tag_440:\n        /* \"#utility.yul\":19595:19599   */\n      0x40\n        /* \"#utility.yul\":19590:19593   */\n      dup4\n        /* \"#utility.yul\":19586:19600   */\n      add\n        /* \"#utility.yul\":19572:19600   */\n      swap1\n      pop\n        /* \"#utility.yul\":19335:19606   */\n      swap3\n      swap2\n      pop\n      pop\n      jump\t// out\n        /* \"#utility.yul\":19612:19746   */\n    tag_208:\n        /* \"#utility.yul\":19703:19707   */\n      0x00\n        /* \"#utility.yul\":19735:19739   */\n      0x20\n        /* \"#utility.yul\":19730:19733   */\n      dup3\n        /* \"#utility.yul\":19726:19740   */\n      add\n        /* \"#utility.yul\":19718:19740   */\n      swap1\n      pop\n        /* \"#utility.yul\":19612:19746   */\n      swap2\n      swap1\n      pop\n      jump\t// out\n        /* \"#utility.yul\":19790:20668   */\n    tag_209:\n        /* \"#utility.yul\":19972:20047   */\n      tag_443\n        /* \"#utility.yul\":20041:20046   */\n      dup2\n        /* \"#utility.yul\":19972:20047   */\n      tag_202\n      jump\t// in\n    tag_443:\n        /* \"#utility.yul\":20063:20170   */\n      tag_444\n        /* \"#utility.yul\":20163:20169   */\n      dup2\n        /* \"#utility.yul\":20158:20161   */\n      dup5\n        /* \"#utility.yul\":20063:20170   */\n      tag_203\n      jump\t// in\n    tag_444:\n        /* \"#utility.yul\":20056:20170   */\n      swap3\n      pop\n        /* \"#utility.yul\":20194:20271   */\n      tag_445\n        /* \"#utility.yul\":20265:20270   */\n      dup3\n        /* \"#utility.yul\":20194:20271   */\n      tag_204\n      jump\t// in\n    tag_445:\n        /* \"#utility.yul\":20294:20301   */\n      dup1\n        /* \"#utility.yul\":20325:20326   */\n      0x00\n        /* \"#utility.yul\":20310:20661   */\n    tag_446:\n        /* \"#utility.yul\":20335:20341   */\n      dup4\n        /* \"#utility.yul\":20332:20333   */\n      dup2\n        /* \"#utility.yul\":20329:20342   */\n      lt\n        /* \"#utility.yul\":20310:20661   */\n      iszero\n      tag_448\n      jumpi\n        /* \"#utility.yul\":20411:20417   */\n      dup2\n        /* \"#utility.yul\":20405:20418   */\n      mload\n        /* \"#utility.yul\":20438:20547   */\n      tag_449\n        /* \"#utility.yul\":20543:20546   */\n      dup8\n        /* \"#utility.yul\":20528:20541   */\n      dup3\n        /* \"#utility.yul\":20438:20547   */\n      tag_207\n      jump\t// in\n    tag_449:\n        /* \"#utility.yul\":20431:20547   */\n      swap7\n      pop\n        /* \"#utility.yul\":20570:20651   */\n      tag_450\n        /* \"#utility.yul\":20644:20650   */\n      dup4\n        /* \"#utility.yul\":20570:20651   */\n      tag_208\n      jump\t// in\n    tag_450:\n        /* \"#utility.yul\":20560:20651   */\n      swap3\n      pop\n        /* \"#utility.yul\":20370:20661   */\n      pop\n        /* \"#utility.yul\":20357:20358   */\n      0x01\n        /* \"#utility.yul\":20354:20355   */\n      dup2\n        /* \"#utility.yul\":20350:20359   */\n      add\n        /* \"#utility.yul\":20345:20359   */\n      swap1\n      pop\n        /* \"#utility.yul\":20310:20661   */\n      jump(tag_446)\n    tag_448:\n        /* \"#utility.yul\":20314:20328   */\n      pop\n        /* \"#utility.yul\":19948:20668   */\n      pop\n      pop\n      pop\n        /* \"#utility.yul\":19790:20668   */\n      pop\n      pop\n      jump\t// out\n        /* \"#utility.yul\":20674:20778   */\n    tag_210:\n        /* \"#utility.yul\":20739:20745   */\n      0x00\n        /* \"#utility.yul\":20767:20771   */\n      0x05\n        /* \"#utility.yul\":20757:20771   */\n      swap1\n      pop\n        /* \"#utility.yul\":20674:20778   */\n      swap2\n      swap1\n      pop\n      jump\t// out\n        /* \"#utility.yul\":20784:20927   */\n    tag_211:\n        /* \"#utility.yul\":20881:20892   */\n      0x00\n        /* \"#utility.yul\":20918:20921   */\n      dup2\n        /* \"#utility.yul\":20903:20921   */\n      swap1\n      pop\n        /* \"#utility.yul\":20784:20927   */\n      swap3\n      swap2\n      pop\n      pop\n      jump\t// out\n        /* \"#utility.yul\":20933:21031   */\n    tag_212:\n        /* \"#utility.yul\":20998:21002   */\n      0x00\n        /* \"#utility.yul\":21021:21024   */\n      dup2\n        /* \"#utility.yul\":21013:21024   */\n      swap1\n      pop\n        /* \"#utility.yul\":20933:21031   */\n      swap2\n      swap1\n      pop\n      jump\t// out\n        /* \"#utility.yul\":21037:21148   */\n    tag_213:\n        /* \"#utility.yul\":21105:21109   */\n      0x00\n        /* \"#utility.yul\":21137:21141   */\n      0x20\n        /* \"#utility.yul\":21132:21135   */\n      dup3\n        /* \"#utility.yul\":21128:21142   */\n      add\n        /* \"#utility.yul\":21120:21142   */\n      swap1\n      pop\n        /* \"#utility.yul\":21037:21148   */\n      swap2\n      swap1\n      pop\n      jump\t// out\n        /* \"#utility.yul\":21186:21880   */\n    tag_214:\n        /* \"#utility.yul\":21322:21374   */\n      tag_456\n        /* \"#utility.yul\":21368:21373   */\n      dup2\n        /* \"#utility.yul\":21322:21374   */\n      tag_210\n      jump\t// in\n    tag_456:\n        /* \"#utility.yul\":21390:21474   */\n      tag_457\n        /* \"#utility.yul\":21467:21473   */\n      dup2\n        /* \"#utility.yul\":21462:21465   */\n      dup5\n        /* \"#utility.yul\":21390:21474   */\n      tag_211\n      jump\t// in\n    tag_457:\n        /* \"#utility.yul\":21383:21474   */\n      swap3\n      pop\n        /* \"#utility.yul\":21498:21552   */\n      tag_458\n        /* \"#utility.yul\":21546:21551   */\n      dup3\n        /* \"#utility.yul\":21498:21552   */\n      tag_212\n      jump\t// in\n    tag_458:\n        /* \"#utility.yul\":21575:21582   */\n      dup1\n        /* \"#utility.yul\":21606:21607   */\n      0x00\n        /* \"#utility.yul\":21591:21873   */\n    tag_459:\n        /* \"#utility.yul\":21616:21622   */\n      dup4\n        /* \"#utility.yul\":21613:21614   */\n      dup2\n        /* \"#utility.yul\":21610:21623   */\n      lt\n        /* \"#utility.yul\":21591:21873   */\n      iszero\n      tag_461\n      jumpi\n        /* \"#utility.yul\":21692:21698   */\n      dup2\n        /* \"#utility.yul\":21686:21699   */\n      mload\n        /* \"#utility.yul\":21719:21782   */\n      tag_462\n        /* \"#utility.yul\":21778:21781   */\n      dup8\n        /* \"#utility.yul\":21763:21776   */\n      dup3\n        /* \"#utility.yul\":21719:21782   */\n      tag_199\n      jump\t// in\n    tag_462:\n        /* \"#utility.yul\":21712:21782   */\n      swap7\n      pop\n        /* \"#utility.yul\":21805:21863   */\n      tag_463\n        /* \"#utility.yul\":21856:21862   */\n      dup4\n        /* \"#utility.yul\":21805:21863   */\n      tag_213\n      jump\t// in\n    tag_463:\n        /* \"#utility.yul\":21795:21863   */\n      swap3\n      pop\n        /* \"#utility.yul\":21651:21873   */\n      pop\n        /* \"#utility.yul\":21638:21639   */\n      0x01\n        /* \"#utility.yul\":21635:21636   */\n      dup2\n        /* \"#utility.yul\":21631:21640   */\n      add\n        /* \"#utility.yul\":21626:21640   */\n      swap1\n      pop\n        /* \"#utility.yul\":21591:21873   */\n      jump(tag_459)\n    tag_461:\n        /* \"#utility.yul\":21595:21609   */\n      pop\n        /* \"#utility.yul\":21298:21880   */\n      pop\n      pop\n      pop\n        /* \"#utility.yul\":21186:21880   */\n      pop\n      pop\n      jump\t// out\n        /* \"#utility.yul\":21886:22901   */\n    tag_95:\n        /* \"#utility.yul\":22293:22297   */\n      0x00\n        /* \"#utility.yul\":22331:22334   */\n      0x01a0\n        /* \"#utility.yul\":22320:22329   */\n      dup3\n        /* \"#utility.yul\":22316:22335   */\n      add\n        /* \"#utility.yul\":22308:22335   */\n      swap1\n      pop\n        /* \"#utility.yul\":22345:22462   */\n      tag_465\n        /* \"#utility.yul\":22459:22460   */\n      0x00\n        /* \"#utility.yul\":22448:22457   */\n      dup4\n        /* \"#utility.yul\":22444:22461   */\n      add\n        /* \"#utility.yul\":22435:22441   */\n      dup8\n        /* \"#utility.yul\":22345:22462   */\n      tag_201\n      jump\t// in\n    tag_465:\n        /* \"#utility.yul\":22472:22636   */\n      tag_466\n        /* \"#utility.yul\":22632:22634   */\n      0x40\n        /* \"#utility.yul\":22621:22630   */\n      dup4\n        /* \"#utility.yul\":22617:22635   */\n      add\n        /* \"#utility.yul\":22608:22614   */\n      dup7\n        /* \"#utility.yul\":22472:22636   */\n      tag_209\n      jump\t// in\n    tag_466:\n        /* \"#utility.yul\":22646:22765   */\n      tag_467\n        /* \"#utility.yul\":22760:22763   */\n      0xc0\n        /* \"#utility.yul\":22749:22758   */\n      dup4\n        /* \"#utility.yul\":22745:22764   */\n      add\n        /* \"#utility.yul\":22736:22742   */\n      dup6\n        /* \"#utility.yul\":22646:22765   */\n      tag_201\n      jump\t// in\n    tag_467:\n        /* \"#utility.yul\":22775:22894   */\n      tag_468\n        /* \"#utility.yul\":22889:22892   */\n      0x0100\n        /* \"#utility.yul\":22878:22887   */\n      dup4\n        /* \"#utility.yul\":22874:22893   */\n      add\n        /* \"#utility.yul\":22865:22871   */\n      dup5\n        /* \"#utility.yul\":22775:22894   */\n      tag_214\n      jump\t// in\n    tag_468:\n        /* \"#utility.yul\":21886:22901   */\n      swap6\n      swap5\n      pop\n      pop\n      pop\n      pop\n      pop\n      jump\t// out\n        /* \"#utility.yul\":22907:23023   */\n    tag_215:\n        /* \"#utility.yul\":22977:22998   */\n      tag_470\n        /* \"#utility.yul\":22992:22997   */\n      dup2\n        /* \"#utility.yul\":22977:22998   */\n      tag_158\n      jump\t// in\n    tag_470:\n        /* \"#utility.yul\":22970:22975   */\n      dup2\n        /* \"#utility.yul\":22967:22999   */\n      eq\n        /* \"#utility.yul\":22957:23017   */\n      tag_471\n      jumpi\n        /* \"#utility.yul\":23013:23014   */\n      0x00\n        /* \"#utility.yul\":23010:23011   */\n      dup1\n        /* \"#utility.yul\":23003:23015   */\n      revert\n        /* \"#utility.yul\":22957:23017   */\n    tag_471:\n        /* \"#utility.yul\":22907:23023   */\n      pop\n      jump\t// out\n        /* \"#utility.yul\":23029:23166   */\n    tag_216:\n        /* \"#utility.yul\":23083:23088   */\n      0x00\n        /* \"#utility.yul\":23114:23120   */\n      dup2\n        /* \"#utility.yul\":23108:23121   */\n      mload\n        /* \"#utility.yul\":23099:23121   */\n      swap1\n      pop\n        /* \"#utility.yul\":23130:23160   */\n      tag_473\n        /* \"#utility.yul\":23154:23159   */\n      dup2\n        /* \"#utility.yul\":23130:23160   */\n      tag_215\n      jump\t// in\n    tag_473:\n        /* \"#utility.yul\":23029:23166   */\n      swap3\n      swap2\n      pop\n      pop\n      jump\t// out\n        /* \"#utility.yul\":23172:23517   */\n    tag_99:\n        /* \"#utility.yul\":23239:23245   */\n      0x00\n        /* \"#utility.yul\":23288:23290   */\n      0x20\n        /* \"#utility.yul\":23276:23285   */\n      dup3\n        /* \"#utility.yul\":23267:23274   */\n      dup5\n        /* \"#utility.yul\":23263:23286   */\n      sub\n        /* \"#utility.yul\":23259:23291   */\n      slt\n        /* \"#utility.yul\":23256:23375   */\n      iszero\n      tag_475\n      jumpi\n        /* \"#utility.yul\":23294:23373   */\n      tag_476\n      tag_148\n      jump\t// in\n    tag_476:\n        /* \"#utility.yul\":23256:23375   */\n    tag_475:\n        /* \"#utility.yul\":23414:23415   */\n      0x00\n        /* \"#utility.yul\":23439:23500   */\n      tag_477\n        /* \"#utility.yul\":23492:23499   */\n      dup5\n        /* \"#utility.yul\":23483:23489   */\n      dup3\n        /* \"#utility.yul\":23472:23481   */\n      dup6\n        /* \"#utility.yul\":23468:23490   */\n      add\n        /* \"#utility.yul\":23439:23500   */\n      tag_216\n      jump\t// in\n    tag_477:\n        /* \"#utility.yul\":23429:23500   */\n      swap2\n      pop\n        /* \"#utility.yul\":23385:23510   */\n      pop\n        /* \"#utility.yul\":23172:23517   */\n      swap3\n      swap2\n      pop\n      pop\n      jump\t// out\n        /* \"#utility.yul\":23523:23703   */\n    tag_106:\n        /* \"#utility.yul\":23571:23648   */\n      0x4e487b7100000000000000000000000000000000000000000000000000000000\n        /* \"#utility.yul\":23568:23569   */\n      0x00\n        /* \"#utility.yul\":23561:23649   */\n      mstore\n        /* \"#utility.yul\":23668:23672   */\n      0x21\n        /* \"#utility.yul\":23665:23666   */\n      0x04\n        /* \"#utility.yul\":23658:23673   */\n      mstore\n        /* \"#utility.yul\":23692:23696   */\n      0x24\n        /* \"#utility.yul\":23689:23690   */\n      0x00\n        /* \"#utility.yul\":23682:23697   */\n      revert\n        /* \"#utility.yul\":23709:23856   */\n    tag_217:\n        /* \"#utility.yul\":23810:23821   */\n      0x00\n        /* \"#utility.yul\":23847:23850   */\n      dup2\n        /* \"#utility.yul\":23832:23850   */\n      swap1\n      pop\n        /* \"#utility.yul\":23709:23856   */\n      swap3\n      swap2\n      pop\n      pop\n      jump\t// out\n        /* \"#utility.yul\":23862:24030   */\n    tag_218:\n        /* \"#utility.yul\":24002:24022   */\n      0x72697363302e52656365697074436c61696d0000000000000000000000000000\n        /* \"#utility.yul\":23998:23999   */\n      0x00\n        /* \"#utility.yul\":23990:23996   */\n      dup3\n        /* \"#utility.yul\":23986:24000   */\n      add\n        /* \"#utility.yul\":23979:24023   */\n      mstore\n        /* \"#utility.yul\":23862:24030   */\n      pop\n      jump\t// out\n        /* \"#utility.yul\":24036:24436   */\n    tag_219:\n        /* \"#utility.yul\":24195:24198   */\n      0x00\n        /* \"#utility.yul\":24216:24300   */\n      tag_482\n        /* \"#utility.yul\":24297:24299   */\n      0x12\n        /* \"#utility.yul\":24292:24295   */\n      dup4\n        /* \"#utility.yul\":24216:24300   */\n      tag_217\n      jump\t// in\n    tag_482:\n        /* \"#utility.yul\":24209:24300   */\n      swap2\n      pop\n        /* \"#utility.yul\":24309:24402   */\n      tag_483\n        /* \"#utility.yul\":24398:24401   */\n      dup3\n        /* \"#utility.yul\":24309:24402   */\n      tag_218\n      jump\t// in\n    tag_483:\n        /* \"#utility.yul\":24427:24429   */\n      0x12\n        /* \"#utility.yul\":24422:24425   */\n      dup3\n        /* \"#utility.yul\":24418:24430   */\n      add\n        /* \"#utility.yul\":24411:24430   */\n      swap1\n      pop\n        /* \"#utility.yul\":24036:24436   */\n      swap2\n      swap1\n      pop\n      jump\t// out\n        /* \"#utility.yul\":24442:24821   */\n    tag_111:\n        /* \"#utility.yul\":24626:24629   */\n      0x00\n        /* \"#utility.yul\":24648:24795   */\n      tag_485\n        /* \"#utility.yul\":24791:24794   */\n      dup3\n        /* \"#utility.yul\":24648:24795   */\n      tag_219\n      jump\t// in\n    tag_485:\n        /* \"#utility.yul\":24641:24795   */\n      swap2\n      pop\n        /* \"#utility.yul\":24812:24815   */\n      dup2\n        /* \"#utility.yul\":24805:24815   */\n      swap1\n      pop\n        /* \"#utility.yul\":24442:24821   */\n      swap2\n      swap1\n      pop\n      jump\t// out\n        /* \"#utility.yul\":24827:24970   */\n    tag_220:\n        /* \"#utility.yul\":24884:24889   */\n      0x00\n        /* \"#utility.yul\":24915:24921   */\n      dup2\n        /* \"#utility.yul\":24909:24922   */\n      mload\n        /* \"#utility.yul\":24900:24922   */\n      swap1\n      pop\n        /* \"#utility.yul\":24931:24964   */\n      tag_487\n        /* \"#utility.yul\":24958:24963   */\n      dup2\n        /* \"#utility.yul\":24931:24964   */\n      tag_165\n      jump\t// in\n    tag_487:\n        /* \"#utility.yul\":24827:24970   */\n      swap3\n      swap2\n      pop\n      pop\n      jump\t// out\n        /* \"#utility.yul\":24976:25327   */\n    tag_115:\n        /* \"#utility.yul\":25046:25052   */\n      0x00\n        /* \"#utility.yul\":25095:25097   */\n      0x20\n        /* \"#utility.yul\":25083:25092   */\n      dup3\n        /* \"#utility.yul\":25074:25081   */\n      dup5\n        /* \"#utility.yul\":25070:25093   */\n      sub\n        /* \"#utility.yul\":25066:25098   */\n      slt\n        /* \"#utility.yul\":25063:25182   */\n      iszero\n      tag_489\n      jumpi\n        /* \"#utility.yul\":25101:25180   */\n      tag_490\n      tag_148\n      jump\t// in\n    tag_490:\n        /* \"#utility.yul\":25063:25182   */\n    tag_489:\n        /* \"#utility.yul\":25221:25222   */\n      0x00\n        /* \"#utility.yul\":25246:25310   */\n      tag_491\n        /* \"#utility.yul\":25302:25309   */\n      dup5\n        /* \"#utility.yul\":25293:25299   */\n      dup3\n        /* \"#utility.yul\":25282:25291   */\n      dup6\n        /* \"#utility.yul\":25278:25300   */\n      add\n        /* \"#utility.yul\":25246:25310   */\n      tag_220\n      jump\t// in\n    tag_491:\n        /* \"#utility.yul\":25236:25310   */\n      swap2\n      pop\n        /* \"#utility.yul\":25192:25320   */\n      pop\n        /* \"#utility.yul\":24976:25327   */\n      swap3\n      swap2\n      pop\n      pop\n      jump\t// out\n        /* \"#utility.yul\":25333:25412   */\n    tag_221:\n        /* \"#utility.yul\":25372:25379   */\n      0x00\n        /* \"#utility.yul\":25401:25406   */\n      dup2\n        /* \"#utility.yul\":25390:25406   */\n      swap1\n      pop\n        /* \"#utility.yul\":25333:25412   */\n      swap2\n      swap1\n      pop\n      jump\t// out\n        /* \"#utility.yul\":25418:25575   */\n    tag_222:\n        /* \"#utility.yul\":25523:25568   */\n      tag_494\n        /* \"#utility.yul\":25543:25567   */\n      tag_495\n        /* \"#utility.yul\":25561:25566   */\n      dup3\n        /* \"#utility.yul\":25543:25567   */\n      tag_152\n      jump\t// in\n    tag_495:\n        /* \"#utility.yul\":25523:25568   */\n      tag_221\n      jump\t// in\n    tag_494:\n        /* \"#utility.yul\":25518:25521   */\n      dup3\n        /* \"#utility.yul\":25511:25569   */\n      mstore\n        /* \"#utility.yul\":25418:25575   */\n      pop\n      pop\n      jump\t// out\n        /* \"#utility.yul\":25581:25674   */\n    tag_223:\n        /* \"#utility.yul\":25617:25624   */\n      0x00\n        /* \"#utility.yul\":25657:25667   */\n      0xffffffff\n        /* \"#utility.yul\":25650:25655   */\n      dup3\n        /* \"#utility.yul\":25646:25668   */\n      and\n        /* \"#utility.yul\":25635:25668   */\n      swap1\n      pop\n        /* \"#utility.yul\":25581:25674   */\n      swap2\n      swap1\n      pop\n      jump\t// out\n        /* \"#utility.yul\":25680:25776   */\n    tag_224:\n        /* \"#utility.yul\":25714:25722   */\n      0x00\n        /* \"#utility.yul\":25763:25768   */\n      dup2\n        /* \"#utility.yul\":25758:25761   */\n      0xe0\n        /* \"#utility.yul\":25754:25769   */\n      shl\n        /* \"#utility.yul\":25733:25769   */\n      swap1\n      pop\n        /* \"#utility.yul\":25680:25776   */\n      swap2\n      swap1\n      pop\n      jump\t// out\n        /* \"#utility.yul\":25782:25876   */\n    tag_225:\n        /* \"#utility.yul\":25820:25827   */\n      0x00\n        /* \"#utility.yul\":25849:25870   */\n      tag_499\n        /* \"#utility.yul\":25864:25869   */\n      dup3\n        /* \"#utility.yul\":25849:25870   */\n      tag_224\n      jump\t// in\n    tag_499:\n        /* \"#utility.yul\":25838:25870   */\n      swap1\n      pop\n        /* \"#utility.yul\":25782:25876   */\n      swap2\n      swap1\n      pop\n      jump\t// out\n        /* \"#utility.yul\":25882:26035   */\n    tag_226:\n        /* \"#utility.yul\":25985:26028   */\n      tag_501\n        /* \"#utility.yul\":26004:26027   */\n      tag_502\n        /* \"#utility.yul\":26021:26026   */\n      dup3\n        /* \"#utility.yul\":26004:26027   */\n      tag_223\n      jump\t// in\n    tag_502:\n        /* \"#utility.yul\":25985:26028   */\n      tag_225\n      jump\t// in\n    tag_501:\n        /* \"#utility.yul\":25980:25983   */\n      dup3\n        /* \"#utility.yul\":25973:26029   */\n      mstore\n        /* \"#utility.yul\":25882:26035   */\n      pop\n      pop\n      jump\t// out\n        /* \"#utility.yul\":26041:26130   */\n    tag_227:\n        /* \"#utility.yul\":26077:26084   */\n      0x00\n        /* \"#utility.yul\":26117:26123   */\n      0xffff\n        /* \"#utility.yul\":26110:26115   */\n      dup3\n        /* \"#utility.yul\":26106:26124   */\n      and\n        /* \"#utility.yul\":26095:26124   */\n      swap1\n      pop\n        /* \"#utility.yul\":26041:26130   */\n      swap2\n      swap1\n      pop\n      jump\t// out\n        /* \"#utility.yul\":26136:26232   */\n    tag_228:\n        /* \"#utility.yul\":26170:26178   */\n      0x00\n        /* \"#utility.yul\":26219:26224   */\n      dup2\n        /* \"#utility.yul\":26214:26217   */\n      0xf0\n        /* \"#utility.yul\":26210:26225   */\n      shl\n        /* \"#utility.yul\":26189:26225   */\n      swap1\n      pop\n        /* \"#utility.yul\":26136:26232   */\n      swap2\n      swap1\n      pop\n      jump\t// out\n        /* \"#utility.yul\":26238:26332   */\n    tag_229:\n        /* \"#utility.yul\":26276:26283   */\n      0x00\n        /* \"#utility.yul\":26305:26326   */\n      tag_506\n        /* \"#utility.yul\":26320:26325   */\n      dup3\n        /* \"#utility.yul\":26305:26326   */\n      tag_228\n      jump\t// in\n    tag_506:\n        /* \"#utility.yul\":26294:26326   */\n      swap1\n      pop\n        /* \"#utility.yul\":26238:26332   */\n      swap2\n      swap1\n      pop\n      jump\t// out\n        /* \"#utility.yul\":26338:26491   */\n    tag_230:\n        /* \"#utility.yul\":26441:26484   */\n      tag_508\n        /* \"#utility.yul\":26460:26483   */\n      tag_509\n        /* \"#utility.yul\":26477:26482   */\n      dup3\n        /* \"#utility.yul\":26460:26483   */\n      tag_227\n      jump\t// in\n    tag_509:\n        /* \"#utility.yul\":26441:26484   */\n      tag_229\n      jump\t// in\n    tag_508:\n        /* \"#utility.yul\":26436:26439   */\n      dup3\n        /* \"#utility.yul\":26429:26485   */\n      mstore\n        /* \"#utility.yul\":26338:26491   */\n      pop\n      pop\n      jump\t// out\n        /* \"#utility.yul\":26497:27725   */\n    tag_119:\n        /* \"#utility.yul\":26799:26802   */\n      0x00\n        /* \"#utility.yul\":26814:26889   */\n      tag_511\n        /* \"#utility.yul\":26885:26888   */\n      dup3\n        /* \"#utility.yul\":26876:26882   */\n      dup12\n        /* \"#utility.yul\":26814:26889   */\n      tag_222\n      jump\t// in\n    tag_511:\n        /* \"#utility.yul\":26914:26916   */\n      0x20\n        /* \"#utility.yul\":26909:26912   */\n      dup3\n        /* \"#utility.yul\":26905:26917   */\n      add\n        /* \"#utility.yul\":26898:26917   */\n      swap2\n      pop\n        /* \"#utility.yul\":26927:27002   */\n      tag_512\n        /* \"#utility.yul\":26998:27001   */\n      dup3\n        /* \"#utility.yul\":26989:26995   */\n      dup11\n        /* \"#utility.yul\":26927:27002   */\n      tag_222\n      jump\t// in\n    tag_512:\n        /* \"#utility.yul\":27027:27029   */\n      0x20\n        /* \"#utility.yul\":27022:27025   */\n      dup3\n        /* \"#utility.yul\":27018:27030   */\n      add\n        /* \"#utility.yul\":27011:27030   */\n      swap2\n      pop\n        /* \"#utility.yul\":27040:27115   */\n      tag_513\n        /* \"#utility.yul\":27111:27114   */\n      dup3\n        /* \"#utility.yul\":27102:27108   */\n      dup10\n        /* \"#utility.yul\":27040:27115   */\n      tag_222\n      jump\t// in\n    tag_513:\n        /* \"#utility.yul\":27140:27142   */\n      0x20\n        /* \"#utility.yul\":27135:27138   */\n      dup3\n        /* \"#utility.yul\":27131:27143   */\n      add\n        /* \"#utility.yul\":27124:27143   */\n      swap2\n      pop\n        /* \"#utility.yul\":27153:27228   */\n      tag_514\n        /* \"#utility.yul\":27224:27227   */\n      dup3\n        /* \"#utility.yul\":27215:27221   */\n      dup9\n        /* \"#utility.yul\":27153:27228   */\n      tag_222\n      jump\t// in\n    tag_514:\n        /* \"#utility.yul\":27253:27255   */\n      0x20\n        /* \"#utility.yul\":27248:27251   */\n      dup3\n        /* \"#utility.yul\":27244:27256   */\n      add\n        /* \"#utility.yul\":27237:27256   */\n      swap2\n      pop\n        /* \"#utility.yul\":27266:27341   */\n      tag_515\n        /* \"#utility.yul\":27337:27340   */\n      dup3\n        /* \"#utility.yul\":27328:27334   */\n      dup8\n        /* \"#utility.yul\":27266:27341   */\n      tag_222\n      jump\t// in\n    tag_515:\n        /* \"#utility.yul\":27366:27368   */\n      0x20\n        /* \"#utility.yul\":27361:27364   */\n      dup3\n        /* \"#utility.yul\":27357:27369   */\n      add\n        /* \"#utility.yul\":27350:27369   */\n      swap2\n      pop\n        /* \"#utility.yul\":27379:27452   */\n      tag_516\n        /* \"#utility.yul\":27448:27451   */\n      dup3\n        /* \"#utility.yul\":27439:27445   */\n      dup7\n        /* \"#utility.yul\":27379:27452   */\n      tag_226\n      jump\t// in\n    tag_516:\n        /* \"#utility.yul\":27477:27478   */\n      0x04\n        /* \"#utility.yul\":27472:27475   */\n      dup3\n        /* \"#utility.yul\":27468:27479   */\n      add\n        /* \"#utility.yul\":27461:27479   */\n      swap2\n      pop\n        /* \"#utility.yul\":27489:27562   */\n      tag_517\n        /* \"#utility.yul\":27558:27561   */\n      dup3\n        /* \"#utility.yul\":27549:27555   */\n      dup6\n        /* \"#utility.yul\":27489:27562   */\n      tag_226\n      jump\t// in\n    tag_517:\n        /* \"#utility.yul\":27587:27588   */\n      0x04\n        /* \"#utility.yul\":27582:27585   */\n      dup3\n        /* \"#utility.yul\":27578:27589   */\n      add\n        /* \"#utility.yul\":27571:27589   */\n      swap2\n      pop\n        /* \"#utility.yul\":27599:27672   */\n      tag_518\n        /* \"#utility.yul\":27668:27671   */\n      dup3\n        /* \"#utility.yul\":27659:27665   */\n      dup5\n        /* \"#utility.yul\":27599:27672   */\n      tag_230\n      jump\t// in\n    tag_518:\n        /* \"#utility.yul\":27697:27698   */\n      0x02\n        /* \"#utility.yul\":27692:27695   */\n      dup3\n        /* \"#utility.yul\":27688:27699   */\n      add\n        /* \"#utility.yul\":27681:27699   */\n      swap2\n      pop\n        /* \"#utility.yul\":27716:27719   */\n      dup2\n        /* \"#utility.yul\":27709:27719   */\n      swap1\n      pop\n        /* \"#utility.yul\":26497:27725   */\n      swap10\n      swap9\n      pop\n      pop\n      pop\n      pop\n      pop\n      pop\n      pop\n      pop\n      pop\n      jump\t// out\n        /* \"#utility.yul\":27731:27829   */\n    tag_231:\n        /* \"#utility.yul\":27782:27788   */\n      0x00\n        /* \"#utility.yul\":27816:27821   */\n      dup2\n        /* \"#utility.yul\":27810:27822   */\n      mload\n        /* \"#utility.yul\":27800:27822   */\n      swap1\n      pop\n        /* \"#utility.yul\":27731:27829   */\n      swap2\n      swap1\n      pop\n      jump\t// out\n        /* \"#utility.yul\":27835:28221   */\n    tag_232:\n        /* \"#utility.yul\":27939:27942   */\n      0x00\n        /* \"#utility.yul\":27967:28005   */\n      tag_521\n        /* \"#utility.yul\":27999:28004   */\n      dup3\n        /* \"#utility.yul\":27967:28005   */\n      tag_231\n      jump\t// in\n    tag_521:\n        /* \"#utility.yul\":28021:28109   */\n      tag_522\n        /* \"#utility.yul\":28102:28108   */\n      dup2\n        /* \"#utility.yul\":28097:28100   */\n      dup6\n        /* \"#utility.yul\":28021:28109   */\n      tag_217\n      jump\t// in\n    tag_522:\n        /* \"#utility.yul\":28014:28109   */\n      swap4\n      pop\n        /* \"#utility.yul\":28118:28183   */\n      tag_523\n        /* \"#utility.yul\":28176:28182   */\n      dup2\n        /* \"#utility.yul\":28171:28174   */\n      dup6\n        /* \"#utility.yul\":28164:28168   */\n      0x20\n        /* \"#utility.yul\":28157:28162   */\n      dup7\n        /* \"#utility.yul\":28153:28169   */\n      add\n        /* \"#utility.yul\":28118:28183   */\n      tag_169\n      jump\t// in\n    tag_523:\n        /* \"#utility.yul\":28208:28214   */\n      dup1\n        /* \"#utility.yul\":28203:28206   */\n      dup5\n        /* \"#utility.yul\":28199:28215   */\n      add\n        /* \"#utility.yul\":28192:28215   */\n      swap2\n      pop\n        /* \"#utility.yul\":27943:28221   */\n      pop\n        /* \"#utility.yul\":27835:28221   */\n      swap3\n      swap2\n      pop\n      pop\n      jump\t// out\n        /* \"#utility.yul\":28227:28498   */\n    tag_121:\n        /* \"#utility.yul\":28357:28360   */\n      0x00\n        /* \"#utility.yul\":28379:28472   */\n      tag_525\n        /* \"#utility.yul\":28468:28471   */\n      dup3\n        /* \"#utility.yul\":28459:28465   */\n      dup5\n        /* \"#utility.yul\":28379:28472   */\n      tag_232\n      jump\t// in\n    tag_525:\n        /* \"#utility.yul\":28372:28472   */\n      swap2\n      pop\n        /* \"#utility.yul\":28489:28492   */\n      dup2\n        /* \"#utility.yul\":28482:28492   */\n      swap1\n      pop\n        /* \"#utility.yul\":28227:28498   */\n      swap3\n      swap2\n      pop\n      pop\n      jump\t// out\n        /* \"#utility.yul\":28504:28666   */\n    tag_233:\n        /* \"#utility.yul\":28644:28658   */\n      0x72697363302e4f75747075740000000000000000000000000000000000000000\n        /* \"#utility.yul\":28640:28641   */\n      0x00\n        /* \"#utility.yul\":28632:28638   */\n      dup3\n        /* \"#utility.yul\":28628:28642   */\n      add\n        /* \"#utility.yul\":28621:28659   */\n      mstore\n        /* \"#utility.yul\":28504:28666   */\n      pop\n      jump\t// out\n        /* \"#utility.yul\":28672:29072   */\n    tag_234:\n        /* \"#utility.yul\":28831:28834   */\n      0x00\n        /* \"#utility.yul\":28852:28936   */\n      tag_528\n        /* \"#utility.yul\":28933:28935   */\n      0x0c\n        /* \"#utility.yul\":28928:28931   */\n      dup4\n        /* \"#utility.yul\":28852:28936   */\n      tag_217\n      jump\t// in\n    tag_528:\n        /* \"#utility.yul\":28845:28936   */\n      swap2\n      pop\n        /* \"#utility.yul\":28945:29038   */\n      tag_529\n        /* \"#utility.yul\":29034:29037   */\n      dup3\n        /* \"#utility.yul\":28945:29038   */\n      tag_233\n      jump\t// in\n    tag_529:\n        /* \"#utility.yul\":29063:29065   */\n      0x0c\n        /* \"#utility.yul\":29058:29061   */\n      dup3\n        /* \"#utility.yul\":29054:29066   */\n      add\n        /* \"#utility.yul\":29047:29066   */\n      swap1\n      pop\n        /* \"#utility.yul\":28672:29072   */\n      swap2\n      swap1\n      pop\n      jump\t// out\n        /* \"#utility.yul\":29078:29457   */\n    tag_130:\n        /* \"#utility.yul\":29262:29265   */\n      0x00\n        /* \"#utility.yul\":29284:29431   */\n      tag_531\n        /* \"#utility.yul\":29427:29430   */\n      dup3\n        /* \"#utility.yul\":29284:29431   */\n      tag_234\n      jump\t// in\n    tag_531:\n        /* \"#utility.yul\":29277:29431   */\n      swap2\n      pop\n        /* \"#utility.yul\":29448:29451   */\n      dup2\n        /* \"#utility.yul\":29441:29451   */\n      swap1\n      pop\n        /* \"#utility.yul\":29078:29457   */\n      swap2\n      swap1\n      pop\n      jump\t// out\n        /* \"#utility.yul\":29463:30137   */\n    tag_135:\n        /* \"#utility.yul\":29657:29660   */\n      0x00\n        /* \"#utility.yul\":29672:29747   */\n      tag_533\n        /* \"#utility.yul\":29743:29746   */\n      dup3\n        /* \"#utility.yul\":29734:29740   */\n      dup8\n        /* \"#utility.yul\":29672:29747   */\n      tag_222\n      jump\t// in\n    tag_533:\n        /* \"#utility.yul\":29772:29774   */\n      0x20\n        /* \"#utility.yul\":29767:29770   */\n      dup3\n        /* \"#utility.yul\":29763:29775   */\n      add\n        /* \"#utility.yul\":29756:29775   */\n      swap2\n      pop\n        /* \"#utility.yul\":29785:29860   */\n      tag_534\n        /* \"#utility.yul\":29856:29859   */\n      dup3\n        /* \"#utility.yul\":29847:29853   */\n      dup7\n        /* \"#utility.yul\":29785:29860   */\n      tag_222\n      jump\t// in\n    tag_534:\n        /* \"#utility.yul\":29885:29887   */\n      0x20\n        /* \"#utility.yul\":29880:29883   */\n      dup3\n        /* \"#utility.yul\":29876:29888   */\n      add\n        /* \"#utility.yul\":29869:29888   */\n      swap2\n      pop\n        /* \"#utility.yul\":29898:29973   */\n      tag_535\n        /* \"#utility.yul\":29969:29972   */\n      dup3\n        /* \"#utility.yul\":29960:29966   */\n      dup6\n        /* \"#utility.yul\":29898:29973   */\n      tag_222\n      jump\t// in\n    tag_535:\n        /* \"#utility.yul\":29998:30000   */\n      0x20\n        /* \"#utility.yul\":29993:29996   */\n      dup3\n        /* \"#utility.yul\":29989:30001   */\n      add\n        /* \"#utility.yul\":29982:30001   */\n      swap2\n      pop\n        /* \"#utility.yul\":30011:30084   */\n      tag_536\n        /* \"#utility.yul\":30080:30083   */\n      dup3\n        /* \"#utility.yul\":30071:30077   */\n      dup5\n        /* \"#utility.yul\":30011:30084   */\n      tag_230\n      jump\t// in\n    tag_536:\n        /* \"#utility.yul\":30109:30110   */\n      0x02\n        /* \"#utility.yul\":30104:30107   */\n      dup3\n        /* \"#utility.yul\":30100:30111   */\n      add\n        /* \"#utility.yul\":30093:30111   */\n      swap2\n      pop\n        /* \"#utility.yul\":30128:30131   */\n      dup2\n        /* \"#utility.yul\":30121:30131   */\n      swap1\n      pop\n        /* \"#utility.yul\":29463:30137   */\n      swap6\n      swap5\n      pop\n      pop\n      pop\n      pop\n      pop\n      jump\t// out\n\n    auxdata: 0xa2646970667358221220c801801b5d106f4e576670fc979ab19437ad73cb6d8b6d39b215a87402ca52db64736f6c63430008140033\n}\n",
				"bytecode": {
					"linkReferences": {},
					"object": "61010060405234801562000011575f80fd5b50604051620035c0380380620035c083398181016040528101906200003791906200109d565b6200004882620001ee60201b60201c565b806fffffffffffffffffffffffffffffffff191660a0906fffffffffffffffffffffffffffffffff1916815250816fffffffffffffffffffffffffffffffff19166080906fffffffffffffffffffffffffffffffff191681525050508060c08181525050600280604051620000bd9062001160565b602060405180830381855afa158015620000d9573d5f803e3d5ffd5b5050506040513d601f19601f82011682018060405250810190620000fe919062001176565b8362000112845f1c6200021c60201b60201c565b620001226200036760201b60201c565b6008600361ffff16901b604051602001620001429594939291906200123e565b60405160208183030381529060405260405162000160919062001310565b602060405180830381855afa1580156200017c573d5f803e3d5ffd5b5050506040513d601f19601f82011682018060405250810190620001a1919062001176565b7bffffffffffffffffffffffffffffffffffffffffffffffffffffffff191660e0817bffffffffffffffffffffffffffffffffffffffffffffffffffffffff1916815250505050620017fe565b5f805f62000204845f1c6200021c60201b60201c565b90508060801b608082901c60801b9250925050915091565b5f81905060087eff00ff00ff00ff00ff00ff00ff00ff00ff00ff00ff00ff00ff00ff00ff00ff8216901b60087fff00ff00ff00ff00ff00ff00ff00ff00ff00ff00ff00ff00ff00ff00ff00ff008316901c17905060107dffff0000ffff0000ffff0000ffff0000ffff0000ffff0000ffff0000ffff8216901b60107fffff0000ffff0000ffff0000ffff0000ffff0000ffff0000ffff0000ffff00008316901c17905060207bffffffff00000000ffffffff00000000ffffffff00000000ffffffff8216901b60207fffffffff00000000ffffffff00000000ffffffff00000000ffffffff000000008316901c179050604077ffffffffffffffff0000000000000000ffffffffffffffff8216901b60407fffffffffffffffff0000000000000000ffffffffffffffff00000000000000008316901c179050608081901b608082901c179050919050565b5f80600667ffffffffffffffff81111562000387576200038662001328565b5b604051908082528060200260200182016040528015620003b65781602001602082028036833780820191505090505b50905060027f12ac9a25dcd5e1a832a9061a082c15dd1d61aa9c4d553505739d0f5d65dc3be47f025aa744581ebe7ad91731911c898569106ff5a2d30f3eee2b23c60ee980acd46040516020016200041092919062001355565b6040516020818303038152906040526040516200042e919062001310565b602060405180830381855afa1580156200044a573d5f803e3d5ffd5b5050506040513d601f19601f820116820180604052508101906200046f919062001176565b815f8151811062000485576200048462001384565b5b60200260200101818152505060027f0707b920bc978c02f292fae2036e057be54294114ccc3c8769d883f688a1423f7f2e32a094b7589554f7bc357bf63481acd2d55555c203383782a4650787ff6642604051602001620004e892919062001355565b60405160208183030381529060405260405162000506919062001310565b602060405180830381855afa15801562000522573d5f803e3d5ffd5b5050506040513d601f19601f8201168201806040525081019062000547919062001176565b816001815181106200055e576200055d62001384565b5b60200260200101818152505060027f0bca36e2cbe6394b3e249751853f961511011c7148e336f4fd974644850fc3477f2ede7c9acf48cf3a3729fa3d68714e2a8435d4fa6db8f7f409c153b1fcdf9b8b604051602001620005c192919062001355565b604051602081830303815290604052604051620005df919062001310565b602060405180830381855afa158015620005fb573d5f803e3d5ffd5b5050506040513d601f19601f8201168201806040525081019062000620919062001176565b8160028151811062000637576200063662001384565b5b60200260200101818152505060027f1b8af999dbfbb3927c091cc2aaf201e488cbacc3e2c6b6fb5a25f9112e04f2a77f2b91a26aa92e1b6f5722949f192a81c850d586d81a60157f3e9cf04f679cccd66040516020016200069a92919062001355565b604051602081830303815290604052604051620006b8919062001310565b602060405180830381855afa158015620006d4573d5f803e3d5ffd5b5050506040513d601f19601f82011682018060405250810190620006f9919062001176565b8160038151811062000710576200070f62001384565b5b60200260200101818152505060027f2b5f494ed674235b8ac1750bdfd5a7615f002d4a1dcefeddd06eda5a076ccd0d7f2fe520ad2020aab9cbba817fcbb9a863b8a76ff88f14f912c5e71665b2ad5e826040516020016200077392919062001355565b60405160208183030381529060405260405162000791919062001310565b602060405180830381855afa158015620007ad573d5f803e3d5ffd5b5050506040513d601f19601f82011682018060405250810190620007d2919062001176565b81600481518110620007e957620007e862001384565b5b60200260200101818152505060027f0f1c3c0d5d9da0fa03666843cde4e82e869ba5252fce3c25d5940320b1c4d4937f214bfcff74f425f6fe8c0d07b307482d8bc8bb2f3608f68287aa01bd0b69e8096040516020016200084c92919062001355565b6040516020818303038152906040526040516200086a919062001310565b602060405180830381855afa15801562000886573d5f803e3d5ffd5b5050506040513d601f19601f82011682018060405250810190620008ab919062001176565b81600581518110620008c257620008c162001384565b5b602002602001018181525050600280604051620008df90620013ff565b602060405180830381855afa158015620008fb573d5f803e3d5ffd5b5050506040513d601f19601f8201168201806040525081019062000920919062001176565b60027f2d4d9aa7e302d9df41749d5507949d05dbea33fbb16c643b22f599a2be6df2e27f14bedd503c37ceb061d8ec60209fe345ce89830a19230301f076caff004d19266040516020016200097792919062001355565b60405160208183030381529060405260405162000995919062001310565b602060405180830381855afa158015620009b1573d5f803e3d5ffd5b5050506040513d601f19601f82011682018060405250810190620009d6919062001176565b60027f0967032fcbf776d1afc985f88877f182d38480a653f2decaa9794cbc3bf3060c7f0e187847ad4c798374d0d6732bf501847dd68bc0e071241e0213bc7fc13db7ab7f304cfbd1e08a704a99f5e847d93f8c3caafddec46b7a0d379da69a4d112346a77f1739c1b1a457a8c7313123d24d2f9192f896b7c63eea05a9d57f06547ad0cec860405160200162000a71949392919062001415565b60405160208183030381529060405260405162000a8f919062001310565b602060405180830381855afa15801562000aab573d5f803e3d5ffd5b5050506040513d601f19601f8201168201806040525081019062000ad0919062001176565b60027f198e9393920d483a7260bfb731fb5d25f1aa493335a9e71297e485b7aef312c27f1800deef121f1e76426a00665e5c4479674322d4f75edadd46debd5cd992f6ed7f090689d0585ff075ec9e99ad690c3395bc4b313370b38ef355acdadcd122975b7f12c85ea5db8c6deb4aab71808dcb408fe3d1e7690c43d37b4ce6cc0166fa7daa60405160200162000b6b949392919062001415565b60405160208183030381529060405260405162000b89919062001310565b602060405180830381855afa15801562000ba5573d5f803e3d5ffd5b5050506040513d601f19601f8201168201806040525081019062000bca919062001176565b60027f03b03cd5effa95ac9bee94f1f5ef907157bda4812ccf0b4c91f42bb629f83a1c7f1aa085ff28179a12d922dba0547057ccaae94b9d69cfaa4e60401fea7f3e03337f110c10134f200b19f6490846d518c9aea868366efb7228ca5c91d2940d0307627f1e60f31fcbf757e837e867178318832d0b2d74d59e2fea1c7142df187d3fc6d360405160200162000c65949392919062001415565b60405160208183030381529060405260405162000c83919062001310565b602060405180830381855afa15801562000c9f573d5f803e3d5ffd5b5050506040513d601f19601f8201168201806040525081019062000cc4919062001176565b62000d26600260405162000cd890620014b8565b602060405180830381855afa15801562000cf4573d5f803e3d5ffd5b5050506040513d601f19601f8201168201806040525081019062000d19919062001176565b8862000dad60201b60201c565b6008600561ffff16901b60405160200162000d489796959493929190620014ce565b60405160208183030381529060405260405162000d66919062001310565b602060405180830381855afa15801562000d82573d5f803e3d5ffd5b5050506040513d601f19601f8201168201806040525081019062000da7919062001176565b91505090565b5f805f801b90505f5b835181101562000e245762000e0c8585836001885162000dd7919062001589565b62000de3919062001589565b8151811062000df75762000df662001384565b5b60200260200101518462000e2f60201b60201c565b9150808062000e1b90620015c3565b91505062000db6565b508091505092915050565b5f80600267ffffffffffffffff81111562000e4f5762000e4e62001328565b5b60405190808252806020026020018201604052801562000e7e5781602001602082028036833780820191505090505b50905083815f8151811062000e985762000e9762001384565b5b602002602001018181525050828160018151811062000ebc5762000ebb62001384565b5b60200260200101818152505062000eda858262000ee460201b60201c565b9150509392505050565b5f805f67ffffffffffffffff81111562000f035762000f0262001328565b5b6040519080825280601f01601f19166020018201604052801562000f365781602001600182028036833780820191505090505b50905062000f4c84848362000f5560201b60201c565b91505092915050565b5f8062000f6984516200100960201b60201c565b90505f60088261ffff16901c60088361ffff16901b1760f01b905060028686868460405160200162000f9f94939291906200171f565b60405160208183030381529060405260405162000fbd919062001310565b602060405180830381855afa15801562000fd9573d5f803e3d5ffd5b5050506040513d601f19601f8201168201806040525081019062000ffe919062001176565b925050509392505050565b5f61ffff801682111562001059576010826040517f6dfcc65000000000000000000000000000000000000000000000000000000000815260040162001050929190620017d3565b60405180910390fd5b819050919050565b5f80fd5b5f819050919050565b620010798162001065565b811462001084575f80fd5b50565b5f8151905062001097816200106e565b92915050565b5f8060408385031215620010b657620010b562001061565b5b5f620010c58582860162001087565b9250506020620010d88582860162001087565b9150509250929050565b5f81905092915050565b7f72697363302e47726f74683136526563656970745665726966696572506172615f8201527f6d65746572730000000000000000000000000000000000000000000000000000602082015250565b5f62001148602683620010e2565b91506200115582620010ec565b602682019050919050565b5f6200116c826200113a565b9150819050919050565b5f602082840312156200118e576200118d62001061565b5b5f6200119d8482850162001087565b91505092915050565b5f819050919050565b620011c4620011be8262001065565b620011a6565b82525050565b5f819050919050565b5f819050919050565b620011f1620011eb82620011ca565b620011d3565b82525050565b5f61ffff82169050919050565b5f8160f01b9050919050565b5f6200121c8262001204565b9050919050565b620012386200123282620011f7565b62001210565b82525050565b5f6200124b8288620011af565b6020820191506200125d8287620011af565b6020820191506200126f8286620011dc565b602082019150620012818285620011af565b60208201915062001293828462001223565b6002820191508190509695505050505050565b5f81519050919050565b5f5b83811015620012cf578082015181840152602081019050620012b2565b5f8484015250505050565b5f620012e682620012a6565b620012f28185620010e2565b935062001304818560208601620012b0565b80840191505092915050565b5f6200131d8284620012da565b915081905092915050565b7f4e487b71000000000000000000000000000000000000000000000000000000005f52604160045260245ffd5b5f620013628285620011dc565b602082019150620013748284620011dc565b6020820191508190509392505050565b7f4e487b71000000000000000000000000000000000000000000000000000000005f52603260045260245ffd5b7f72697363305f67726f746831362e566572696679696e674b65790000000000005f82015250565b5f620013e7601a83620010e2565b9150620013f482620013b1565b601a82019050919050565b5f6200140b82620013d9565b9150819050919050565b5f620014228287620011dc565b602082019150620014348286620011dc565b602082019150620014468285620011dc565b602082019150620014588284620011dc565b60208201915081905095945050505050565b7f72697363305f67726f746831362e566572696679696e674b65792e49430000005f82015250565b5f620014a0601d83620010e2565b9150620014ad826200146a565b601d82019050919050565b5f620014c48262001492565b9150819050919050565b5f620014db828a620011af565b602082019150620014ed8289620011af565b602082019150620014ff8288620011af565b602082019150620015118287620011af565b602082019150620015238286620011af565b602082019150620015358285620011af565b60208201915062001547828462001223565b60028201915081905098975050505050505050565b7f4e487b71000000000000000000000000000000000000000000000000000000005f52601160045260245ffd5b5f6200159582620011ca565b9150620015a283620011ca565b9250828203905081811115620015bd57620015bc6200155c565b5b92915050565b5f620015cf82620011ca565b91507fffffffffffffffffffffffffffffffffffffffffffffffffffffffffffffffff82036200160457620016036200155c565b5b600182019050919050565b5f81519050919050565b5f81905092915050565b5f819050602082019050919050565b6200163d8162001065565b82525050565b5f62001650838362001632565b60208301905092915050565b5f602082019050919050565b5f62001674826200160f565b62001680818562001619565b93506200168d8362001623565b805f5b83811015620016c3578151620016a7888262001643565b9750620016b4836200165c565b92505060018101905062001690565b5085935050505092915050565b5f7fffff00000000000000000000000000000000000000000000000000000000000082169050919050565b5f819050919050565b620017196200171382620016d0565b620016fb565b82525050565b5f6200172c8287620011af565b6020820191506200173e828662001668565b91506200174c8285620012da565b91506200175a828462001704565b60028201915081905095945050505050565b5f819050919050565b5f60ff82169050919050565b5f819050919050565b5f620017aa620017a46200179e846200176c565b62001781565b62001775565b9050919050565b620017bc816200178a565b82525050565b620017cd81620011ca565b82525050565b5f604082019050620017e85f830185620017b1565b620017f76020830184620017c2565b9392505050565b60805160a05160c05160e051611d6b620018555f395f818161018a0152818161089e015261090101525f81816101cd0152610a7301525f81816107be0152610a0201525f81816107e201526109c70152611d6b5ff3fe608060405234801561000f575f80fd5b5060043610610086575f3560e01c80638989fa2e116100595780638989fa2e146101125780639181e4b114610130578063ab750e751461014e578063ffa1ad741461016a57610086565b8063053c238d1461008a5780631599ead5146100a8578063258038e2146100c457806334baeab9146100e2575b5f80fd5b610092610188565b60405161009f9190610fe0565b60405180910390f35b6100c260048036038101906100bd919061102c565b6101ac565b005b6100cc6101cb565b6040516100d9919061108b565b60405180910390f35b6100fc60048036038101906100f7919061110b565b6101ef565b604051610109919061118b565b60405180910390f35b61011a6107bc565b60405161012791906111de565b60405180910390f35b6101386107e0565b60405161014591906111de565b60405180910390f35b6101686004803603810190610163919061127e565b610804565b005b610172610826565b60405161017f9190611379565b60405180910390f35b7f000000000000000000000000000000000000000000000000000000000000000081565b6101c881805f01906101be91906113a5565b836020013561085f565b50565b7f000000000000000000000000000000000000000000000000000000000000000081565b5f61074f565b7f30644e72e131a029b85045b68181585d2833e84879b9709143e1f593f00000018110610224575f805260205ff35b50565b5f60405183815284602082015285604082015260408160608360076107d05a03fa915081610257575f805260205ff35b825160408201526020830151606082015260408360808360066107d05a03fa915081610285575f805260205ff35b505050505050565b5f608086015f87017f12ac9a25dcd5e1a832a9061a082c15dd1d61aa9c4d553505739d0f5d65dc3be481527f025aa744581ebe7ad91731911c898569106ff5a2d30f3eee2b23c60ee980acd4602082015261032d5f8801357f2e32a094b7589554f7bc357bf63481acd2d55555c203383782a4650787ff66427f0707b920bc978c02f292fae2036e057be54294114ccc3c8769d883f688a1423f84610227565b61037d60208801357f2ede7c9acf48cf3a3729fa3d68714e2a8435d4fa6db8f7f409c153b1fcdf9b8b7f0bca36e2cbe6394b3e249751853f961511011c7148e336f4fd974644850fc34784610227565b6103cd60408801357f2b91a26aa92e1b6f5722949f192a81c850d586d81a60157f3e9cf04f679cccd67f1b8af999dbfbb3927c091cc2aaf201e488cbacc3e2c6b6fb5a25f9112e04f2a784610227565b61041d60608801357f2fe520ad2020aab9cbba817fcbb9a863b8a76ff88f14f912c5e71665b2ad5e827f2b5f494ed674235b8ac1750bdfd5a7615f002d4a1dcefeddd06eda5a076ccd0d84610227565b61046d60808801357f214bfcff74f425f6fe8c0d07b307482d8bc8bb2f3608f68287aa01bd0b69e8097f0f1c3c0d5d9da0fa03666843cde4e82e869ba5252fce3c25d5940320b1c4d49384610227565b833582527f30644e72e131a029b85045b68181585d97816a916871ca8d3c208c16d87cfd4760208501357f30644e72e131a029b85045b68181585d97816a916871ca8d3c208c16d87cfd4703066020830152843560408301526020850135606083015260408501356080830152606085013560a08301527f2d4d9aa7e302d9df41749d5507949d05dbea33fbb16c643b22f599a2be6df2e260c08301527f14bedd503c37ceb061d8ec60209fe345ce89830a19230301f076caff004d192660e08301527f0967032fcbf776d1afc985f88877f182d38480a653f2decaa9794cbc3bf3060c6101008301527f0e187847ad4c798374d0d6732bf501847dd68bc0e071241e0213bc7fc13db7ab6101208301527f304cfbd1e08a704a99f5e847d93f8c3caafddec46b7a0d379da69a4d112346a76101408301527f1739c1b1a457a8c7313123d24d2f9192f896b7c63eea05a9d57f06547ad0cec86101608301525f88015161018083015260205f018801516101a08301527f198e9393920d483a7260bfb731fb5d25f1aa493335a9e71297e485b7aef312c26101c08301527f1800deef121f1e76426a00665e5c4479674322d4f75edadd46debd5cd992f6ed6101e08301527f090689d0585ff075ec9e99ad690c3395bc4b313370b38ef355acdadcd122975b6102008301527f12c85ea5db8c6deb4aab71808dcb408fe3d1e7690c43d37b4ce6cc0166fa7daa610220830152853561024083015260208601356102608301527f03b03cd5effa95ac9bee94f1f5ef907157bda4812ccf0b4c91f42bb629f83a1c6102808301527f1aa085ff28179a12d922dba0547057ccaae94b9d69cfaa4e60401fea7f3e03336102a08301527f110c10134f200b19f6490846d518c9aea868366efb7228ca5c91d2940d0307626102c08301527f1e60f31fcbf757e837e867178318832d0b2d74d59e2fea1c7142df187d3fc6d36102e08301526020826103008460086107d05a03fa82518116935050505095945050505050565b60405161038081016040526107665f8401356101f5565b61077360208401356101f5565b61078060408401356101f5565b61078d60608401356101f5565b61079a60808401356101f5565b6107a760a08401356101f5565b6107b4818486888a61028d565b805f5260205ff35b7f000000000000000000000000000000000000000000000000000000000000000081565b7f000000000000000000000000000000000000000000000000000000000000000081565b610820848461081b6108168686610b37565b610bd9565b61085f565b50505050565b6040518060400160405280600581526020017f312e322e3000000000000000000000000000000000000000000000000000000081525081565b82825f906004926108729392919061140f565b9061087d919061145f565b7bffffffffffffffffffffffffffffffffffffffffffffffffffffffff19167f00000000000000000000000000000000000000000000000000000000000000007bffffffffffffffffffffffffffffffffffffffffffffffffffffffff19161461095d5782825f906004926108f49392919061140f565b906108ff919061145f565b7f00000000000000000000000000000000000000000000000000000000000000006040517fb8b38d4c0000000000000000000000000000000000000000000000000000000081526004016109549291906114bd565b60405180910390fd5b5f8061096883610cf6565b915091505f858560049080926109809392919061140f565b81019061098d9190611751565b90505f3073ffffffffffffffffffffffffffffffffffffffff166334baeab9835f0151846020015185604001516040518060a001604052807f000000000000000000000000000000000000000000000000000000000000000060801c6fffffffffffffffffffffffffffffffff1681526020017f000000000000000000000000000000000000000000000000000000000000000060801c6fffffffffffffffffffffffffffffffff1681526020018a60801c6fffffffffffffffffffffffffffffffff1681526020018960801c6fffffffffffffffffffffffffffffffff1681526020017f00000000000000000000000000000000000000000000000000000000000000005f1c8152506040518563ffffffff1660e01b8152600401610ab69493929190611997565b602060405180830381865afa158015610ad1573d5f803e3d5ffd5b505050506040513d601f19601f82011682018060405250810190610af59190611a06565b905080610b2e576040517f439cc0cd00000000000000000000000000000000000000000000000000000000815260040160405180910390fd5b50505050505050565b610b3f610f3c565b6040518060a001604052808481526020017fa3acc27117418996340b84e5a90f3ef4c49d22c79e44aad822ec9c313e1eb8e25f1b815260200160405180604001604052805f6002811115610b9657610b95611a31565b5b81526020015f60ff1681525081526020015f801b8152602001610bce60405180604001604052808681526020015f801b815250610d1c565b815250905092915050565b5f600280604051610be990611ab2565b602060405180830381855afa158015610c04573d5f803e3d5ffd5b5050506040513d601f19601f82011682018060405250810190610c279190611ada565b8360600151845f015185602001518660800151601888604001515f01516002811115610c5657610c55611a31565b5b63ffffffff16901b601889604001516020015160ff1663ffffffff16901b6008600461ffff16901b604051602001610c95989796959493929190611ba9565b604051602081830303815290604052604051610cb19190611c74565b602060405180830381855afa158015610ccc573d5f803e3d5ffd5b5050506040513d601f19601f82011682018060405250810190610cef9190611ada565b9050919050565b5f805f610d04845f1c610df1565b90508060801b608082901c60801b9250925050915091565b5f600280604051610d2c90611cd4565b602060405180830381855afa158015610d47573d5f803e3d5ffd5b5050506040513d601f19601f82011682018060405250810190610d6a9190611ada565b835f015184602001516008600261ffff16901b604051602001610d909493929190611ce8565b604051602081830303815290604052604051610dac9190611c74565b602060405180830381855afa158015610dc7573d5f803e3d5ffd5b5050506040513d601f19601f82011682018060405250810190610dea9190611ada565b9050919050565b5f81905060087eff00ff00ff00ff00ff00ff00ff00ff00ff00ff00ff00ff00ff00ff00ff00ff8216901b60087fff00ff00ff00ff00ff00ff00ff00ff00ff00ff00ff00ff00ff00ff00ff00ff008316901c17905060107dffff0000ffff0000ffff0000ffff0000ffff0000ffff0000ffff0000ffff8216901b60107fffff0000ffff0000ffff0000ffff0000ffff0000ffff0000ffff0000ffff00008316901c17905060207bffffffff00000000ffffffff00000000ffffffff00000000ffffffff8216901b60207fffffffff00000000ffffffff00000000ffffffff00000000ffffffff000000008316901c179050604077ffffffffffffffff0000000000000000ffffffffffffffff8216901b60407fffffffffffffffff0000000000000000ffffffffffffffff00000000000000008316901c179050608081901b608082901c179050919050565b6040518060a001604052805f80191681526020015f8019168152602001610f61610f79565b81526020015f80191681526020015f80191681525090565b60405180604001604052805f6002811115610f9757610f96611a31565b5b81526020015f60ff1681525090565b5f7fffffffff0000000000000000000000000000000000000000000000000000000082169050919050565b610fda81610fa6565b82525050565b5f602082019050610ff35f830184610fd1565b92915050565b5f604051905090565b5f80fd5b5f80fd5b5f80fd5b5f604082840312156110235761102261100a565b5b81905092915050565b5f6020828403121561104157611040611002565b5b5f82013567ffffffffffffffff81111561105e5761105d611006565b5b61106a8482850161100e565b91505092915050565b5f819050919050565b61108581611073565b82525050565b5f60208201905061109e5f83018461107c565b92915050565b5f80fd5b5f819050826020600202820111156110c3576110c26110a4565b5b92915050565b5f819050826040600202820111156110e4576110e36110a4565b5b92915050565b5f81905082602060050282011115611105576111046110a4565b5b92915050565b5f805f806101a0858703121561112457611123611002565b5b5f611131878288016110a8565b9450506040611142878288016110c9565b93505060c0611153878288016110a8565b925050610100611165878288016110ea565b91505092959194509250565b5f8115159050919050565b61118581611171565b82525050565b5f60208201905061119e5f83018461117c565b92915050565b5f7fffffffffffffffffffffffffffffffff0000000000000000000000000000000082169050919050565b6111d8816111a4565b82525050565b5f6020820190506111f15f8301846111cf565b92915050565b5f80fd5b5f80fd5b5f8083601f840112611214576112136111f7565b5b8235905067ffffffffffffffff811115611231576112306111fb565b5b60208301915083600182028301111561124d5761124c6110a4565b5b9250929050565b61125d81611073565b8114611267575f80fd5b50565b5f8135905061127881611254565b92915050565b5f805f806060858703121561129657611295611002565b5b5f85013567ffffffffffffffff8111156112b3576112b2611006565b5b6112bf878288016111ff565b945094505060206112d28782880161126a565b92505060406112e38782880161126a565b91505092959194509250565b5f81519050919050565b5f82825260208201905092915050565b5f5b8381101561132657808201518184015260208101905061130b565b5f8484015250505050565b5f601f19601f8301169050919050565b5f61134b826112ef565b61135581856112f9565b9350611365818560208601611309565b61136e81611331565b840191505092915050565b5f6020820190508181035f8301526113918184611341565b905092915050565b5f80fd5b5f80fd5b5f80fd5b5f80833560016020038436030381126113c1576113c0611399565b5b80840192508235915067ffffffffffffffff8211156113e3576113e261139d565b5b6020830192506001820236038313156113ff576113fe6113a1565b5b509250929050565b5f80fd5b5f80fd5b5f808585111561142257611421611407565b5b838611156114335761143261140b565b5b6001850283019150848603905094509492505050565b5f82905092915050565b5f82821b905092915050565b5f61146a8383611449565b826114758135610fa6565b925060048210156114b5576114b07fffffffff0000000000000000000000000000000000000000000000000000000083600403600802611453565b831692505b505092915050565b5f6040820190506114d05f830185610fd1565b6114dd6020830184610fd1565b9392505050565b5f80fd5b7f4e487b71000000000000000000000000000000000000000000000000000000005f52604160045260245ffd5b61151e82611331565b810181811067ffffffffffffffff8211171561153d5761153c6114e8565b5b80604052505050565b5f61154f610ff9565b905061155b8282611515565b919050565b5f67ffffffffffffffff82111561157a576115796114e8565b5b602082029050919050565b5f819050919050565b61159781611585565b81146115a1575f80fd5b50565b5f813590506115b28161158e565b92915050565b5f6115ca6115c584611560565b611546565b905080602084028301858111156115e4576115e36110a4565b5b835b8181101561160d57806115f988826115a4565b8452602084019350506020810190506115e6565b5050509392505050565b5f82601f83011261162b5761162a6111f7565b5b60026116388482856115b8565b91505092915050565b5f67ffffffffffffffff82111561165b5761165a6114e8565b5b602082029050919050565b5f61167861167384611641565b611546565b90508060408402830185811115611692576116916110a4565b5b835b818110156116bb57806116a78882611617565b845260208401935050604081019050611694565b5050509392505050565b5f82601f8301126116d9576116d86111f7565b5b60026116e6848285611666565b91505092915050565b5f6101008284031215611705576117046114e4565b5b61170f6060611546565b90505f61171e84828501611617565b5f830152506040611731848285016116c5565b60208301525060c061174584828501611617565b60408301525092915050565b5f610100828403121561176757611766611002565b5b5f611774848285016116ef565b91505092915050565b5f60029050919050565b5f81905092915050565b5f819050919050565b6117a381611585565b82525050565b5f6117b4838361179a565b60208301905092915050565b5f602082019050919050565b6117d58161177d565b6117df8184611787565b92506117ea82611791565b805f5b8381101561181a57815161180187826117a9565b965061180c836117c0565b9250506001810190506117ed565b505050505050565b5f60029050919050565b5f81905092915050565b5f819050919050565b5f81905092915050565b6118528161177d565b61185c818461183f565b925061186782611791565b805f5b8381101561189757815161187e87826117a9565b9650611889836117c0565b92505060018101905061186a565b505050505050565b5f6118aa8383611849565b60408301905092915050565b5f602082019050919050565b6118cb81611822565b6118d5818461182c565b92506118e082611836565b805f5b838110156119105781516118f7878261189f565b9650611902836118b6565b9250506001810190506118e3565b505050505050565b5f60059050919050565b5f81905092915050565b5f819050919050565b5f602082019050919050565b61194a81611918565b6119548184611922565b925061195f8261192c565b805f5b8381101561198f57815161197687826117a9565b965061198183611935565b925050600181019050611962565b505050505050565b5f6101a0820190506119ab5f8301876117cc565b6119b860408301866118c2565b6119c560c08301856117cc565b6119d3610100830184611941565b95945050505050565b6119e581611171565b81146119ef575f80fd5b50565b5f81519050611a00816119dc565b92915050565b5f60208284031215611a1b57611a1a611002565b5b5f611a28848285016119f2565b91505092915050565b7f4e487b71000000000000000000000000000000000000000000000000000000005f52602160045260245ffd5b5f81905092915050565b7f72697363302e52656365697074436c61696d00000000000000000000000000005f82015250565b5f611a9c601283611a5e565b9150611aa782611a68565b601282019050919050565b5f611abc82611a90565b9150819050919050565b5f81519050611ad481611254565b92915050565b5f60208284031215611aef57611aee611002565b5b5f611afc84828501611ac6565b91505092915050565b5f819050919050565b611b1f611b1a82611073565b611b05565b82525050565b5f63ffffffff82169050919050565b5f8160e01b9050919050565b5f611b4a82611b34565b9050919050565b611b62611b5d82611b25565b611b40565b82525050565b5f61ffff82169050919050565b5f8160f01b9050919050565b5f611b8b82611b75565b9050919050565b611ba3611b9e82611b68565b611b81565b82525050565b5f611bb4828b611b0e565b602082019150611bc4828a611b0e565b602082019150611bd48289611b0e565b602082019150611be48288611b0e565b602082019150611bf48287611b0e565b602082019150611c048286611b51565b600482019150611c148285611b51565b600482019150611c248284611b92565b6002820191508190509998505050505050505050565b5f81519050919050565b5f611c4e82611c3a565b611c588185611a5e565b9350611c68818560208601611309565b80840191505092915050565b5f611c7f8284611c44565b915081905092915050565b7f72697363302e4f757470757400000000000000000000000000000000000000005f82015250565b5f611cbe600c83611a5e565b9150611cc982611c8a565b600c82019050919050565b5f611cde82611cb2565b9150819050919050565b5f611cf38287611b0e565b602082019150611d038286611b0e565b602082019150611d138285611b0e565b602082019150611d238284611b92565b6002820191508190509594505050505056fea2646970667358221220c801801b5d106f4e576670fc979ab19437ad73cb6d8b6d39b215a87402ca52db64736f6c63430008140033",
					"opcodes": "PUSH2 0x100 PUSH1 0x40 MSTORE CALLVALUE DUP1 ISZERO PUSH3 0x11 JUMPI PUSH0 DUP1 REVERT JUMPDEST POP PUSH1 0x40 MLOAD PUSH3 0x35C0 CODESIZE SUB DUP1 PUSH3 0x35C0 DUP4 CODECOPY DUP2 DUP2 ADD PUSH1 0x40 MSTORE DUP2 ADD SWAP1 PUSH3 0x37 SWAP2 SWAP1 PUSH3 0x109D JUMP JUMPDEST PUSH3 0x48 DUP3 PUSH3 0x1EE PUSH1 0x20 SHL PUSH1 0x20 SHR JUMP JUMPDEST DUP1 PUSH16 0xFFFFFFFFFFFFFFFFFFFFFFFFFFFFFFFF NOT AND PUSH1 0xA0 SWAP1 PUSH16 0xFFFFFFFFFFFFFFFFFFFFFFFFFFFFFFFF NOT AND DUP2 MSTORE POP DUP2 PUSH16 0xFFFFFFFFFFFFFFFFFFFFFFFFFFFFFFFF NOT AND PUSH1 0x80 SWAP1 PUSH16 0xFFFFFFFFFFFFFFFFFFFFFFFFFFFFFFFF NOT AND DUP2 MSTORE POP POP POP DUP1 PUSH1 0xC0 DUP2 DUP2 MSTORE POP POP PUSH1 0x2 DUP1 PUSH1 0x40 MLOAD PUSH3 0xBD SWAP1 PUSH3 0x1160 JUMP JUMPDEST PUSH1 0x20 PUSH1 0x40 MLOAD DUP1 DUP4 SUB DUP2 DUP6 GAS STATICCALL ISZERO DUP1 ISZERO PUSH3 0xD9 JUMPI RETURNDATASIZE PUSH0 DUP1 RETURNDATACOPY RETURNDATASIZE PUSH0 REVERT JUMPDEST POP POP POP PUSH1 0x40 MLOAD RETURNDATASIZE PUSH1 0x1F NOT PUSH1 0x1F DUP3 ADD AND DUP3 ADD DUP1 PUSH1 0x40 MSTORE POP DUP2 ADD SWAP1 PUSH3 0xFE SWAP2 SWAP1 PUSH3 0x1176 JUMP JUMPDEST DUP4 PUSH3 0x112 DUP5 PUSH0 SHR PUSH3 0x21C PUSH1 0x20 SHL PUSH1 0x20 SHR JUMP JUMPDEST PUSH3 0x122 PUSH3 0x367 PUSH1 0x20 SHL PUSH1 0x20 SHR JUMP JUMPDEST PUSH1 0x8 PUSH1 0x3 PUSH2 0xFFFF AND SWAP1 SHL PUSH1 0x40 MLOAD PUSH1 0x20 ADD PUSH3 0x142 SWAP6 SWAP5 SWAP4 SWAP3 SWAP2 SWAP1 PUSH3 0x123E JUMP JUMPDEST PUSH1 0x40 MLOAD PUSH1 0x20 DUP2 DUP4 SUB SUB DUP2 MSTORE SWAP1 PUSH1 0x40 MSTORE PUSH1 0x40 MLOAD PUSH3 0x160 SWAP2 SWAP1 PUSH3 0x1310 JUMP JUMPDEST PUSH1 0x20 PUSH1 0x40 MLOAD DUP1 DUP4 SUB DUP2 DUP6 GAS STATICCALL ISZERO DUP1 ISZERO PUSH3 0x17C JUMPI RETURNDATASIZE PUSH0 DUP1 RETURNDATACOPY RETURNDATASIZE PUSH0 REVERT JUMPDEST POP POP POP PUSH1 0x40 MLOAD RETURNDATASIZE PUSH1 0x1F NOT PUSH1 0x1F DUP3 ADD AND DUP3 ADD DUP1 PUSH1 0x40 MSTORE POP DUP2 ADD SWAP1 PUSH3 0x1A1 SWAP2 SWAP1 PUSH3 0x1176 JUMP JUMPDEST PUSH28 0xFFFFFFFFFFFFFFFFFFFFFFFFFFFFFFFFFFFFFFFFFFFFFFFFFFFFFFFF NOT AND PUSH1 0xE0 DUP2 PUSH28 0xFFFFFFFFFFFFFFFFFFFFFFFFFFFFFFFFFFFFFFFFFFFFFFFFFFFFFFFF NOT AND DUP2 MSTORE POP POP POP POP PUSH3 0x17FE JUMP JUMPDEST PUSH0 DUP1 PUSH0 PUSH3 0x204 DUP5 PUSH0 SHR PUSH3 0x21C PUSH1 0x20 SHL PUSH1 0x20 SHR JUMP JUMPDEST SWAP1 POP DUP1 PUSH1 0x80 SHL PUSH1 0x80 DUP3 SWAP1 SHR PUSH1 0x80 SHL SWAP3 POP SWAP3 POP POP SWAP2 POP SWAP2 JUMP JUMPDEST PUSH0 DUP2 SWAP1 POP PUSH1 0x8 PUSH31 0xFF00FF00FF00FF00FF00FF00FF00FF00FF00FF00FF00FF00FF00FF00FF00FF DUP3 AND SWAP1 SHL PUSH1 0x8 PUSH32 0xFF00FF00FF00FF00FF00FF00FF00FF00FF00FF00FF00FF00FF00FF00FF00FF00 DUP4 AND SWAP1 SHR OR SWAP1 POP PUSH1 0x10 PUSH30 0xFFFF0000FFFF0000FFFF0000FFFF0000FFFF0000FFFF0000FFFF0000FFFF DUP3 AND SWAP1 SHL PUSH1 0x10 PUSH32 0xFFFF0000FFFF0000FFFF0000FFFF0000FFFF0000FFFF0000FFFF0000FFFF0000 DUP4 AND SWAP1 SHR OR SWAP1 POP PUSH1 0x20 PUSH28 0xFFFFFFFF00000000FFFFFFFF00000000FFFFFFFF00000000FFFFFFFF DUP3 AND SWAP1 SHL PUSH1 0x20 PUSH32 0xFFFFFFFF00000000FFFFFFFF00000000FFFFFFFF00000000FFFFFFFF00000000 DUP4 AND SWAP1 SHR OR SWAP1 POP PUSH1 0x40 PUSH24 0xFFFFFFFFFFFFFFFF0000000000000000FFFFFFFFFFFFFFFF DUP3 AND SWAP1 SHL PUSH1 0x40 PUSH32 0xFFFFFFFFFFFFFFFF0000000000000000FFFFFFFFFFFFFFFF0000000000000000 DUP4 AND SWAP1 SHR OR SWAP1 POP PUSH1 0x80 DUP2 SWAP1 SHL PUSH1 0x80 DUP3 SWAP1 SHR OR SWAP1 POP SWAP2 SWAP1 POP JUMP JUMPDEST PUSH0 DUP1 PUSH1 0x6 PUSH8 0xFFFFFFFFFFFFFFFF DUP2 GT ISZERO PUSH3 0x387 JUMPI PUSH3 0x386 PUSH3 0x1328 JUMP JUMPDEST JUMPDEST PUSH1 0x40 MLOAD SWAP1 DUP1 DUP3 MSTORE DUP1 PUSH1 0x20 MUL PUSH1 0x20 ADD DUP3 ADD PUSH1 0x40 MSTORE DUP1 ISZERO PUSH3 0x3B6 JUMPI DUP2 PUSH1 0x20 ADD PUSH1 0x20 DUP3 MUL DUP1 CALLDATASIZE DUP4 CALLDATACOPY DUP1 DUP3 ADD SWAP2 POP POP SWAP1 POP JUMPDEST POP SWAP1 POP PUSH1 0x2 PUSH32 0x12AC9A25DCD5E1A832A9061A082C15DD1D61AA9C4D553505739D0F5D65DC3BE4 PUSH32 0x25AA744581EBE7AD91731911C898569106FF5A2D30F3EEE2B23C60EE980ACD4 PUSH1 0x40 MLOAD PUSH1 0x20 ADD PUSH3 0x410 SWAP3 SWAP2 SWAP1 PUSH3 0x1355 JUMP JUMPDEST PUSH1 0x40 MLOAD PUSH1 0x20 DUP2 DUP4 SUB SUB DUP2 MSTORE SWAP1 PUSH1 0x40 MSTORE PUSH1 0x40 MLOAD PUSH3 0x42E SWAP2 SWAP1 PUSH3 0x1310 JUMP JUMPDEST PUSH1 0x20 PUSH1 0x40 MLOAD DUP1 DUP4 SUB DUP2 DUP6 GAS STATICCALL ISZERO DUP1 ISZERO PUSH3 0x44A JUMPI RETURNDATASIZE PUSH0 DUP1 RETURNDATACOPY RETURNDATASIZE PUSH0 REVERT JUMPDEST POP POP POP PUSH1 0x40 MLOAD RETURNDATASIZE PUSH1 0x1F NOT PUSH1 0x1F DUP3 ADD AND DUP3 ADD DUP1 PUSH1 0x40 MSTORE POP DUP2 ADD SWAP1 PUSH3 0x46F SWAP2 SWAP1 PUSH3 0x1176 JUMP JUMPDEST DUP2 PUSH0 DUP2 MLOAD DUP2 LT PUSH3 0x485 JUMPI PUSH3 0x484 PUSH3 0x1384 JUMP JUMPDEST JUMPDEST PUSH1 0x20 MUL PUSH1 0x20 ADD ADD DUP2 DUP2 MSTORE POP POP PUSH1 0x2 PUSH32 0x707B920BC978C02F292FAE2036E057BE54294114CCC3C8769D883F688A1423F PUSH32 0x2E32A094B7589554F7BC357BF63481ACD2D55555C203383782A4650787FF6642 PUSH1 0x40 MLOAD PUSH1 0x20 ADD PUSH3 0x4E8 SWAP3 SWAP2 SWAP1 PUSH3 0x1355 JUMP JUMPDEST PUSH1 0x40 MLOAD PUSH1 0x20 DUP2 DUP4 SUB SUB DUP2 MSTORE SWAP1 PUSH1 0x40 MSTORE PUSH1 0x40 MLOAD PUSH3 0x506 SWAP2 SWAP1 PUSH3 0x1310 JUMP JUMPDEST PUSH1 0x20 PUSH1 0x40 MLOAD DUP1 DUP4 SUB DUP2 DUP6 GAS STATICCALL ISZERO DUP1 ISZERO PUSH3 0x522 JUMPI RETURNDATASIZE PUSH0 DUP1 RETURNDATACOPY RETURNDATASIZE PUSH0 REVERT JUMPDEST POP POP POP PUSH1 0x40 MLOAD RETURNDATASIZE PUSH1 0x1F NOT PUSH1 0x1F DUP3 ADD AND DUP3 ADD DUP1 PUSH1 0x40 MSTORE POP DUP2 ADD SWAP1 PUSH3 0x547 SWAP2 SWAP1 PUSH3 0x1176 JUMP JUMPDEST DUP2 PUSH1 0x1 DUP2 MLOAD DUP2 LT PUSH3 0x55E JUMPI PUSH3 0x55D PUSH3 0x1384 JUMP JUMPDEST JUMPDEST PUSH1 0x20 MUL PUSH1 0x20 ADD ADD DUP2 DUP2 MSTORE POP POP PUSH1 0x2 PUSH32 0xBCA36E2CBE6394B3E249751853F961511011C7148E336F4FD974644850FC347 PUSH32 0x2EDE7C9ACF48CF3A3729FA3D68714E2A8435D4FA6DB8F7F409C153B1FCDF9B8B PUSH1 0x40 MLOAD PUSH1 0x20 ADD PUSH3 0x5C1 SWAP3 SWAP2 SWAP1 PUSH3 0x1355 JUMP JUMPDEST PUSH1 0x40 MLOAD PUSH1 0x20 DUP2 DUP4 SUB SUB DUP2 MSTORE SWAP1 PUSH1 0x40 MSTORE PUSH1 0x40 MLOAD PUSH3 0x5DF SWAP2 SWAP1 PUSH3 0x1310 JUMP JUMPDEST PUSH1 0x20 PUSH1 0x40 MLOAD DUP1 DUP4 SUB DUP2 DUP6 GAS STATICCALL ISZERO DUP1 ISZERO PUSH3 0x5FB JUMPI RETURNDATASIZE PUSH0 DUP1 RETURNDATACOPY RETURNDATASIZE PUSH0 REVERT JUMPDEST POP POP POP PUSH1 0x40 MLOAD RETURNDATASIZE PUSH1 0x1F NOT PUSH1 0x1F DUP3 ADD AND DUP3 ADD DUP1 PUSH1 0x40 MSTORE POP DUP2 ADD SWAP1 PUSH3 0x620 SWAP2 SWAP1 PUSH3 0x1176 JUMP JUMPDEST DUP2 PUSH1 0x2 DUP2 MLOAD DUP2 LT PUSH3 0x637 JUMPI PUSH3 0x636 PUSH3 0x1384 JUMP JUMPDEST JUMPDEST PUSH1 0x20 MUL PUSH1 0x20 ADD ADD DUP2 DUP2 MSTORE POP POP PUSH1 0x2 PUSH32 0x1B8AF999DBFBB3927C091CC2AAF201E488CBACC3E2C6B6FB5A25F9112E04F2A7 PUSH32 0x2B91A26AA92E1B6F5722949F192A81C850D586D81A60157F3E9CF04F679CCCD6 PUSH1 0x40 MLOAD PUSH1 0x20 ADD PUSH3 0x69A SWAP3 SWAP2 SWAP1 PUSH3 0x1355 JUMP JUMPDEST PUSH1 0x40 MLOAD PUSH1 0x20 DUP2 DUP4 SUB SUB DUP2 MSTORE SWAP1 PUSH1 0x40 MSTORE PUSH1 0x40 MLOAD PUSH3 0x6B8 SWAP2 SWAP1 PUSH3 0x1310 JUMP JUMPDEST PUSH1 0x20 PUSH1 0x40 MLOAD DUP1 DUP4 SUB DUP2 DUP6 GAS STATICCALL ISZERO DUP1 ISZERO PUSH3 0x6D4 JUMPI RETURNDATASIZE PUSH0 DUP1 RETURNDATACOPY RETURNDATASIZE PUSH0 REVERT JUMPDEST POP POP POP PUSH1 0x40 MLOAD RETURNDATASIZE PUSH1 0x1F NOT PUSH1 0x1F DUP3 ADD AND DUP3 ADD DUP1 PUSH1 0x40 MSTORE POP DUP2 ADD SWAP1 PUSH3 0x6F9 SWAP2 SWAP1 PUSH3 0x1176 JUMP JUMPDEST DUP2 PUSH1 0x3 DUP2 MLOAD DUP2 LT PUSH3 0x710 JUMPI PUSH3 0x70F PUSH3 0x1384 JUMP JUMPDEST JUMPDEST PUSH1 0x20 MUL PUSH1 0x20 ADD ADD DUP2 DUP2 MSTORE POP POP PUSH1 0x2 PUSH32 0x2B5F494ED674235B8AC1750BDFD5A7615F002D4A1DCEFEDDD06EDA5A076CCD0D PUSH32 0x2FE520AD2020AAB9CBBA817FCBB9A863B8A76FF88F14F912C5E71665B2AD5E82 PUSH1 0x40 MLOAD PUSH1 0x20 ADD PUSH3 0x773 SWAP3 SWAP2 SWAP1 PUSH3 0x1355 JUMP JUMPDEST PUSH1 0x40 MLOAD PUSH1 0x20 DUP2 DUP4 SUB SUB DUP2 MSTORE SWAP1 PUSH1 0x40 MSTORE PUSH1 0x40 MLOAD PUSH3 0x791 SWAP2 SWAP1 PUSH3 0x1310 JUMP JUMPDEST PUSH1 0x20 PUSH1 0x40 MLOAD DUP1 DUP4 SUB DUP2 DUP6 GAS STATICCALL ISZERO DUP1 ISZERO PUSH3 0x7AD JUMPI RETURNDATASIZE PUSH0 DUP1 RETURNDATACOPY RETURNDATASIZE PUSH0 REVERT JUMPDEST POP POP POP PUSH1 0x40 MLOAD RETURNDATASIZE PUSH1 0x1F NOT PUSH1 0x1F DUP3 ADD AND DUP3 ADD DUP1 PUSH1 0x40 MSTORE POP DUP2 ADD SWAP1 PUSH3 0x7D2 SWAP2 SWAP1 PUSH3 0x1176 JUMP JUMPDEST DUP2 PUSH1 0x4 DUP2 MLOAD DUP2 LT PUSH3 0x7E9 JUMPI PUSH3 0x7E8 PUSH3 0x1384 JUMP JUMPDEST JUMPDEST PUSH1 0x20 MUL PUSH1 0x20 ADD ADD DUP2 DUP2 MSTORE POP POP PUSH1 0x2 PUSH32 0xF1C3C0D5D9DA0FA03666843CDE4E82E869BA5252FCE3C25D5940320B1C4D493 PUSH32 0x214BFCFF74F425F6FE8C0D07B307482D8BC8BB2F3608F68287AA01BD0B69E809 PUSH1 0x40 MLOAD PUSH1 0x20 ADD PUSH3 0x84C SWAP3 SWAP2 SWAP1 PUSH3 0x1355 JUMP JUMPDEST PUSH1 0x40 MLOAD PUSH1 0x20 DUP2 DUP4 SUB SUB DUP2 MSTORE SWAP1 PUSH1 0x40 MSTORE PUSH1 0x40 MLOAD PUSH3 0x86A SWAP2 SWAP1 PUSH3 0x1310 JUMP JUMPDEST PUSH1 0x20 PUSH1 0x40 MLOAD DUP1 DUP4 SUB DUP2 DUP6 GAS STATICCALL ISZERO DUP1 ISZERO PUSH3 0x886 JUMPI RETURNDATASIZE PUSH0 DUP1 RETURNDATACOPY RETURNDATASIZE PUSH0 REVERT JUMPDEST POP POP POP PUSH1 0x40 MLOAD RETURNDATASIZE PUSH1 0x1F NOT PUSH1 0x1F DUP3 ADD AND DUP3 ADD DUP1 PUSH1 0x40 MSTORE POP DUP2 ADD SWAP1 PUSH3 0x8AB SWAP2 SWAP1 PUSH3 0x1176 JUMP JUMPDEST DUP2 PUSH1 0x5 DUP2 MLOAD DUP2 LT PUSH3 0x8C2 JUMPI PUSH3 0x8C1 PUSH3 0x1384 JUMP JUMPDEST JUMPDEST PUSH1 0x20 MUL PUSH1 0x20 ADD ADD DUP2 DUP2 MSTORE POP POP PUSH1 0x2 DUP1 PUSH1 0x40 MLOAD PUSH3 0x8DF SWAP1 PUSH3 0x13FF JUMP JUMPDEST PUSH1 0x20 PUSH1 0x40 MLOAD DUP1 DUP4 SUB DUP2 DUP6 GAS STATICCALL ISZERO DUP1 ISZERO PUSH3 0x8FB JUMPI RETURNDATASIZE PUSH0 DUP1 RETURNDATACOPY RETURNDATASIZE PUSH0 REVERT JUMPDEST POP POP POP PUSH1 0x40 MLOAD RETURNDATASIZE PUSH1 0x1F NOT PUSH1 0x1F DUP3 ADD AND DUP3 ADD DUP1 PUSH1 0x40 MSTORE POP DUP2 ADD SWAP1 PUSH3 0x920 SWAP2 SWAP1 PUSH3 0x1176 JUMP JUMPDEST PUSH1 0x2 PUSH32 0x2D4D9AA7E302D9DF41749D5507949D05DBEA33FBB16C643B22F599A2BE6DF2E2 PUSH32 0x14BEDD503C37CEB061D8EC60209FE345CE89830A19230301F076CAFF004D1926 PUSH1 0x40 MLOAD PUSH1 0x20 ADD PUSH3 0x977 SWAP3 SWAP2 SWAP1 PUSH3 0x1355 JUMP JUMPDEST PUSH1 0x40 MLOAD PUSH1 0x20 DUP2 DUP4 SUB SUB DUP2 MSTORE SWAP1 PUSH1 0x40 MSTORE PUSH1 0x40 MLOAD PUSH3 0x995 SWAP2 SWAP1 PUSH3 0x1310 JUMP JUMPDEST PUSH1 0x20 PUSH1 0x40 MLOAD DUP1 DUP4 SUB DUP2 DUP6 GAS STATICCALL ISZERO DUP1 ISZERO PUSH3 0x9B1 JUMPI RETURNDATASIZE PUSH0 DUP1 RETURNDATACOPY RETURNDATASIZE PUSH0 REVERT JUMPDEST POP POP POP PUSH1 0x40 MLOAD RETURNDATASIZE PUSH1 0x1F NOT PUSH1 0x1F DUP3 ADD AND DUP3 ADD DUP1 PUSH1 0x40 MSTORE POP DUP2 ADD SWAP1 PUSH3 0x9D6 SWAP2 SWAP1 PUSH3 0x1176 JUMP JUMPDEST PUSH1 0x2 PUSH32 0x967032FCBF776D1AFC985F88877F182D38480A653F2DECAA9794CBC3BF3060C PUSH32 0xE187847AD4C798374D0D6732BF501847DD68BC0E071241E0213BC7FC13DB7AB PUSH32 0x304CFBD1E08A704A99F5E847D93F8C3CAAFDDEC46B7A0D379DA69A4D112346A7 PUSH32 0x1739C1B1A457A8C7313123D24D2F9192F896B7C63EEA05A9D57F06547AD0CEC8 PUSH1 0x40 MLOAD PUSH1 0x20 ADD PUSH3 0xA71 SWAP5 SWAP4 SWAP3 SWAP2 SWAP1 PUSH3 0x1415 JUMP JUMPDEST PUSH1 0x40 MLOAD PUSH1 0x20 DUP2 DUP4 SUB SUB DUP2 MSTORE SWAP1 PUSH1 0x40 MSTORE PUSH1 0x40 MLOAD PUSH3 0xA8F SWAP2 SWAP1 PUSH3 0x1310 JUMP JUMPDEST PUSH1 0x20 PUSH1 0x40 MLOAD DUP1 DUP4 SUB DUP2 DUP6 GAS STATICCALL ISZERO DUP1 ISZERO PUSH3 0xAAB JUMPI RETURNDATASIZE PUSH0 DUP1 RETURNDATACOPY RETURNDATASIZE PUSH0 REVERT JUMPDEST POP POP POP PUSH1 0x40 MLOAD RETURNDATASIZE PUSH1 0x1F NOT PUSH1 0x1F DUP3 ADD AND DUP3 ADD DUP1 PUSH1 0x40 MSTORE POP DUP2 ADD SWAP1 PUSH3 0xAD0 SWAP2 SWAP1 PUSH3 0x1176 JUMP JUMPDEST PUSH1 0x2 PUSH32 0x198E9393920D483A7260BFB731FB5D25F1AA493335A9E71297E485B7AEF312C2 PUSH32 0x1800DEEF121F1E76426A00665E5C4479674322D4F75EDADD46DEBD5CD992F6ED PUSH32 0x90689D0585FF075EC9E99AD690C3395BC4B313370B38EF355ACDADCD122975B PUSH32 0x12C85EA5DB8C6DEB4AAB71808DCB408FE3D1E7690C43D37B4CE6CC0166FA7DAA PUSH1 0x40 MLOAD PUSH1 0x20 ADD PUSH3 0xB6B SWAP5 SWAP4 SWAP3 SWAP2 SWAP1 PUSH3 0x1415 JUMP JUMPDEST PUSH1 0x40 MLOAD PUSH1 0x20 DUP2 DUP4 SUB SUB DUP2 MSTORE SWAP1 PUSH1 0x40 MSTORE PUSH1 0x40 MLOAD PUSH3 0xB89 SWAP2 SWAP1 PUSH3 0x1310 JUMP JUMPDEST PUSH1 0x20 PUSH1 0x40 MLOAD DUP1 DUP4 SUB DUP2 DUP6 GAS STATICCALL ISZERO DUP1 ISZERO PUSH3 0xBA5 JUMPI RETURNDATASIZE PUSH0 DUP1 RETURNDATACOPY RETURNDATASIZE PUSH0 REVERT JUMPDEST POP POP POP PUSH1 0x40 MLOAD RETURNDATASIZE PUSH1 0x1F NOT PUSH1 0x1F DUP3 ADD AND DUP3 ADD DUP1 PUSH1 0x40 MSTORE POP DUP2 ADD SWAP1 PUSH3 0xBCA SWAP2 SWAP1 PUSH3 0x1176 JUMP JUMPDEST PUSH1 0x2 PUSH32 0x3B03CD5EFFA95AC9BEE94F1F5EF907157BDA4812CCF0B4C91F42BB629F83A1C PUSH32 0x1AA085FF28179A12D922DBA0547057CCAAE94B9D69CFAA4E60401FEA7F3E0333 PUSH32 0x110C10134F200B19F6490846D518C9AEA868366EFB7228CA5C91D2940D030762 PUSH32 0x1E60F31FCBF757E837E867178318832D0B2D74D59E2FEA1C7142DF187D3FC6D3 PUSH1 0x40 MLOAD PUSH1 0x20 ADD PUSH3 0xC65 SWAP5 SWAP4 SWAP3 SWAP2 SWAP1 PUSH3 0x1415 JUMP JUMPDEST PUSH1 0x40 MLOAD PUSH1 0x20 DUP2 DUP4 SUB SUB DUP2 MSTORE SWAP1 PUSH1 0x40 MSTORE PUSH1 0x40 MLOAD PUSH3 0xC83 SWAP2 SWAP1 PUSH3 0x1310 JUMP JUMPDEST PUSH1 0x20 PUSH1 0x40 MLOAD DUP1 DUP4 SUB DUP2 DUP6 GAS STATICCALL ISZERO DUP1 ISZERO PUSH3 0xC9F JUMPI RETURNDATASIZE PUSH0 DUP1 RETURNDATACOPY RETURNDATASIZE PUSH0 REVERT JUMPDEST POP POP POP PUSH1 0x40 MLOAD RETURNDATASIZE PUSH1 0x1F NOT PUSH1 0x1F DUP3 ADD AND DUP3 ADD DUP1 PUSH1 0x40 MSTORE POP DUP2 ADD SWAP1 PUSH3 0xCC4 SWAP2 SWAP1 PUSH3 0x1176 JUMP JUMPDEST PUSH3 0xD26 PUSH1 0x2 PUSH1 0x40 MLOAD PUSH3 0xCD8 SWAP1 PUSH3 0x14B8 JUMP JUMPDEST PUSH1 0x20 PUSH1 0x40 MLOAD DUP1 DUP4 SUB DUP2 DUP6 GAS STATICCALL ISZERO DUP1 ISZERO PUSH3 0xCF4 JUMPI RETURNDATASIZE PUSH0 DUP1 RETURNDATACOPY RETURNDATASIZE PUSH0 REVERT JUMPDEST POP POP POP PUSH1 0x40 MLOAD RETURNDATASIZE PUSH1 0x1F NOT PUSH1 0x1F DUP3 ADD AND DUP3 ADD DUP1 PUSH1 0x40 MSTORE POP DUP2 ADD SWAP1 PUSH3 0xD19 SWAP2 SWAP1 PUSH3 0x1176 JUMP JUMPDEST DUP9 PUSH3 0xDAD PUSH1 0x20 SHL PUSH1 0x20 SHR JUMP JUMPDEST PUSH1 0x8 PUSH1 0x5 PUSH2 0xFFFF AND SWAP1 SHL PUSH1 0x40 MLOAD PUSH1 0x20 ADD PUSH3 0xD48 SWAP8 SWAP7 SWAP6 SWAP5 SWAP4 SWAP3 SWAP2 SWAP1 PUSH3 0x14CE JUMP JUMPDEST PUSH1 0x40 MLOAD PUSH1 0x20 DUP2 DUP4 SUB SUB DUP2 MSTORE SWAP1 PUSH1 0x40 MSTORE PUSH1 0x40 MLOAD PUSH3 0xD66 SWAP2 SWAP1 PUSH3 0x1310 JUMP JUMPDEST PUSH1 0x20 PUSH1 0x40 MLOAD DUP1 DUP4 SUB DUP2 DUP6 GAS STATICCALL ISZERO DUP1 ISZERO PUSH3 0xD82 JUMPI RETURNDATASIZE PUSH0 DUP1 RETURNDATACOPY RETURNDATASIZE PUSH0 REVERT JUMPDEST POP POP POP PUSH1 0x40 MLOAD RETURNDATASIZE PUSH1 0x1F NOT PUSH1 0x1F DUP3 ADD AND DUP3 ADD DUP1 PUSH1 0x40 MSTORE POP DUP2 ADD SWAP1 PUSH3 0xDA7 SWAP2 SWAP1 PUSH3 0x1176 JUMP JUMPDEST SWAP2 POP POP SWAP1 JUMP JUMPDEST PUSH0 DUP1 PUSH0 DUP1 SHL SWAP1 POP PUSH0 JUMPDEST DUP4 MLOAD DUP2 LT ISZERO PUSH3 0xE24 JUMPI PUSH3 0xE0C DUP6 DUP6 DUP4 PUSH1 0x1 DUP9 MLOAD PUSH3 0xDD7 SWAP2 SWAP1 PUSH3 0x1589 JUMP JUMPDEST PUSH3 0xDE3 SWAP2 SWAP1 PUSH3 0x1589 JUMP JUMPDEST DUP2 MLOAD DUP2 LT PUSH3 0xDF7 JUMPI PUSH3 0xDF6 PUSH3 0x1384 JUMP JUMPDEST JUMPDEST PUSH1 0x20 MUL PUSH1 0x20 ADD ADD MLOAD DUP5 PUSH3 0xE2F PUSH1 0x20 SHL PUSH1 0x20 SHR JUMP JUMPDEST SWAP2 POP DUP1 DUP1 PUSH3 0xE1B SWAP1 PUSH3 0x15C3 JUMP JUMPDEST SWAP2 POP POP PUSH3 0xDB6 JUMP JUMPDEST POP DUP1 SWAP2 POP POP SWAP3 SWAP2 POP POP JUMP JUMPDEST PUSH0 DUP1 PUSH1 0x2 PUSH8 0xFFFFFFFFFFFFFFFF DUP2 GT ISZERO PUSH3 0xE4F JUMPI PUSH3 0xE4E PUSH3 0x1328 JUMP JUMPDEST JUMPDEST PUSH1 0x40 MLOAD SWAP1 DUP1 DUP3 MSTORE DUP1 PUSH1 0x20 MUL PUSH1 0x20 ADD DUP3 ADD PUSH1 0x40 MSTORE DUP1 ISZERO PUSH3 0xE7E JUMPI DUP2 PUSH1 0x20 ADD PUSH1 0x20 DUP3 MUL DUP1 CALLDATASIZE DUP4 CALLDATACOPY DUP1 DUP3 ADD SWAP2 POP POP SWAP1 POP JUMPDEST POP SWAP1 POP DUP4 DUP2 PUSH0 DUP2 MLOAD DUP2 LT PUSH3 0xE98 JUMPI PUSH3 0xE97 PUSH3 0x1384 JUMP JUMPDEST JUMPDEST PUSH1 0x20 MUL PUSH1 0x20 ADD ADD DUP2 DUP2 MSTORE POP POP DUP3 DUP2 PUSH1 0x1 DUP2 MLOAD DUP2 LT PUSH3 0xEBC JUMPI PUSH3 0xEBB PUSH3 0x1384 JUMP JUMPDEST JUMPDEST PUSH1 0x20 MUL PUSH1 0x20 ADD ADD DUP2 DUP2 MSTORE POP POP PUSH3 0xEDA DUP6 DUP3 PUSH3 0xEE4 PUSH1 0x20 SHL PUSH1 0x20 SHR JUMP JUMPDEST SWAP2 POP POP SWAP4 SWAP3 POP POP POP JUMP JUMPDEST PUSH0 DUP1 PUSH0 PUSH8 0xFFFFFFFFFFFFFFFF DUP2 GT ISZERO PUSH3 0xF03 JUMPI PUSH3 0xF02 PUSH3 0x1328 JUMP JUMPDEST JUMPDEST PUSH1 0x40 MLOAD SWAP1 DUP1 DUP3 MSTORE DUP1 PUSH1 0x1F ADD PUSH1 0x1F NOT AND PUSH1 0x20 ADD DUP3 ADD PUSH1 0x40 MSTORE DUP1 ISZERO PUSH3 0xF36 JUMPI DUP2 PUSH1 0x20 ADD PUSH1 0x1 DUP3 MUL DUP1 CALLDATASIZE DUP4 CALLDATACOPY DUP1 DUP3 ADD SWAP2 POP POP SWAP1 POP JUMPDEST POP SWAP1 POP PUSH3 0xF4C DUP5 DUP5 DUP4 PUSH3 0xF55 PUSH1 0x20 SHL PUSH1 0x20 SHR JUMP JUMPDEST SWAP2 POP POP SWAP3 SWAP2 POP POP JUMP JUMPDEST PUSH0 DUP1 PUSH3 0xF69 DUP5 MLOAD PUSH3 0x1009 PUSH1 0x20 SHL PUSH1 0x20 SHR JUMP JUMPDEST SWAP1 POP PUSH0 PUSH1 0x8 DUP3 PUSH2 0xFFFF AND SWAP1 SHR PUSH1 0x8 DUP4 PUSH2 0xFFFF AND SWAP1 SHL OR PUSH1 0xF0 SHL SWAP1 POP PUSH1 0x2 DUP7 DUP7 DUP7 DUP5 PUSH1 0x40 MLOAD PUSH1 0x20 ADD PUSH3 0xF9F SWAP5 SWAP4 SWAP3 SWAP2 SWAP1 PUSH3 0x171F JUMP JUMPDEST PUSH1 0x40 MLOAD PUSH1 0x20 DUP2 DUP4 SUB SUB DUP2 MSTORE SWAP1 PUSH1 0x40 MSTORE PUSH1 0x40 MLOAD PUSH3 0xFBD SWAP2 SWAP1 PUSH3 0x1310 JUMP JUMPDEST PUSH1 0x20 PUSH1 0x40 MLOAD DUP1 DUP4 SUB DUP2 DUP6 GAS STATICCALL ISZERO DUP1 ISZERO PUSH3 0xFD9 JUMPI RETURNDATASIZE PUSH0 DUP1 RETURNDATACOPY RETURNDATASIZE PUSH0 REVERT JUMPDEST POP POP POP PUSH1 0x40 MLOAD RETURNDATASIZE PUSH1 0x1F NOT PUSH1 0x1F DUP3 ADD AND DUP3 ADD DUP1 PUSH1 0x40 MSTORE POP DUP2 ADD SWAP1 PUSH3 0xFFE SWAP2 SWAP1 PUSH3 0x1176 JUMP JUMPDEST SWAP3 POP POP POP SWAP4 SWAP3 POP POP POP JUMP JUMPDEST PUSH0 PUSH2 0xFFFF DUP1 AND DUP3 GT ISZERO PUSH3 0x1059 JUMPI PUSH1 0x10 DUP3 PUSH1 0x40 MLOAD PUSH32 0x6DFCC65000000000000000000000000000000000000000000000000000000000 DUP2 MSTORE PUSH1 0x4 ADD PUSH3 0x1050 SWAP3 SWAP2 SWAP1 PUSH3 0x17D3 JUMP JUMPDEST PUSH1 0x40 MLOAD DUP1 SWAP2 SUB SWAP1 REVERT JUMPDEST DUP2 SWAP1 POP SWAP2 SWAP1 POP JUMP JUMPDEST PUSH0 DUP1 REVERT JUMPDEST PUSH0 DUP2 SWAP1 POP SWAP2 SWAP1 POP JUMP JUMPDEST PUSH3 0x1079 DUP2 PUSH3 0x1065 JUMP JUMPDEST DUP2 EQ PUSH3 0x1084 JUMPI PUSH0 DUP1 REVERT JUMPDEST POP JUMP JUMPDEST PUSH0 DUP2 MLOAD SWAP1 POP PUSH3 0x1097 DUP2 PUSH3 0x106E JUMP JUMPDEST SWAP3 SWAP2 POP POP JUMP JUMPDEST PUSH0 DUP1 PUSH1 0x40 DUP4 DUP6 SUB SLT ISZERO PUSH3 0x10B6 JUMPI PUSH3 0x10B5 PUSH3 0x1061 JUMP JUMPDEST JUMPDEST PUSH0 PUSH3 0x10C5 DUP6 DUP3 DUP7 ADD PUSH3 0x1087 JUMP JUMPDEST SWAP3 POP POP PUSH1 0x20 PUSH3 0x10D8 DUP6 DUP3 DUP7 ADD PUSH3 0x1087 JUMP JUMPDEST SWAP2 POP POP SWAP3 POP SWAP3 SWAP1 POP JUMP JUMPDEST PUSH0 DUP2 SWAP1 POP SWAP3 SWAP2 POP POP JUMP JUMPDEST PUSH32 0x72697363302E47726F7468313652656365697074566572696669657250617261 PUSH0 DUP3 ADD MSTORE PUSH32 0x6D65746572730000000000000000000000000000000000000000000000000000 PUSH1 0x20 DUP3 ADD MSTORE POP JUMP JUMPDEST PUSH0 PUSH3 0x1148 PUSH1 0x26 DUP4 PUSH3 0x10E2 JUMP JUMPDEST SWAP2 POP PUSH3 0x1155 DUP3 PUSH3 0x10EC JUMP JUMPDEST PUSH1 0x26 DUP3 ADD SWAP1 POP SWAP2 SWAP1 POP JUMP JUMPDEST PUSH0 PUSH3 0x116C DUP3 PUSH3 0x113A JUMP JUMPDEST SWAP2 POP DUP2 SWAP1 POP SWAP2 SWAP1 POP JUMP JUMPDEST PUSH0 PUSH1 0x20 DUP3 DUP5 SUB SLT ISZERO PUSH3 0x118E JUMPI PUSH3 0x118D PUSH3 0x1061 JUMP JUMPDEST JUMPDEST PUSH0 PUSH3 0x119D DUP5 DUP3 DUP6 ADD PUSH3 0x1087 JUMP JUMPDEST SWAP2 POP POP SWAP3 SWAP2 POP POP JUMP JUMPDEST PUSH0 DUP2 SWAP1 POP SWAP2 SWAP1 POP JUMP JUMPDEST PUSH3 0x11C4 PUSH3 0x11BE DUP3 PUSH3 0x1065 JUMP JUMPDEST PUSH3 0x11A6 JUMP JUMPDEST DUP3 MSTORE POP POP JUMP JUMPDEST PUSH0 DUP2 SWAP1 POP SWAP2 SWAP1 POP JUMP JUMPDEST PUSH0 DUP2 SWAP1 POP SWAP2 SWAP1 POP JUMP JUMPDEST PUSH3 0x11F1 PUSH3 0x11EB DUP3 PUSH3 0x11CA JUMP JUMPDEST PUSH3 0x11D3 JUMP JUMPDEST DUP3 MSTORE POP POP JUMP JUMPDEST PUSH0 PUSH2 0xFFFF DUP3 AND SWAP1 POP SWAP2 SWAP1 POP JUMP JUMPDEST PUSH0 DUP2 PUSH1 0xF0 SHL SWAP1 POP SWAP2 SWAP1 POP JUMP JUMPDEST PUSH0 PUSH3 0x121C DUP3 PUSH3 0x1204 JUMP JUMPDEST SWAP1 POP SWAP2 SWAP1 POP JUMP JUMPDEST PUSH3 0x1238 PUSH3 0x1232 DUP3 PUSH3 0x11F7 JUMP JUMPDEST PUSH3 0x1210 JUMP JUMPDEST DUP3 MSTORE POP POP JUMP JUMPDEST PUSH0 PUSH3 0x124B DUP3 DUP9 PUSH3 0x11AF JUMP JUMPDEST PUSH1 0x20 DUP3 ADD SWAP2 POP PUSH3 0x125D DUP3 DUP8 PUSH3 0x11AF JUMP JUMPDEST PUSH1 0x20 DUP3 ADD SWAP2 POP PUSH3 0x126F DUP3 DUP7 PUSH3 0x11DC JUMP JUMPDEST PUSH1 0x20 DUP3 ADD SWAP2 POP PUSH3 0x1281 DUP3 DUP6 PUSH3 0x11AF JUMP JUMPDEST PUSH1 0x20 DUP3 ADD SWAP2 POP PUSH3 0x1293 DUP3 DUP5 PUSH3 0x1223 JUMP JUMPDEST PUSH1 0x2 DUP3 ADD SWAP2 POP DUP2 SWAP1 POP SWAP7 SWAP6 POP POP POP POP POP POP JUMP JUMPDEST PUSH0 DUP2 MLOAD SWAP1 POP SWAP2 SWAP1 POP JUMP JUMPDEST PUSH0 JUMPDEST DUP4 DUP2 LT ISZERO PUSH3 0x12CF JUMPI DUP1 DUP3 ADD MLOAD DUP2 DUP5 ADD MSTORE PUSH1 0x20 DUP2 ADD SWAP1 POP PUSH3 0x12B2 JUMP JUMPDEST PUSH0 DUP5 DUP5 ADD MSTORE POP POP POP POP JUMP JUMPDEST PUSH0 PUSH3 0x12E6 DUP3 PUSH3 0x12A6 JUMP JUMPDEST PUSH3 0x12F2 DUP2 DUP6 PUSH3 0x10E2 JUMP JUMPDEST SWAP4 POP PUSH3 0x1304 DUP2 DUP6 PUSH1 0x20 DUP7 ADD PUSH3 0x12B0 JUMP JUMPDEST DUP1 DUP5 ADD SWAP2 POP POP SWAP3 SWAP2 POP POP JUMP JUMPDEST PUSH0 PUSH3 0x131D DUP3 DUP5 PUSH3 0x12DA JUMP JUMPDEST SWAP2 POP DUP2 SWAP1 POP SWAP3 SWAP2 POP POP JUMP JUMPDEST PUSH32 0x4E487B7100000000000000000000000000000000000000000000000000000000 PUSH0 MSTORE PUSH1 0x41 PUSH1 0x4 MSTORE PUSH1 0x24 PUSH0 REVERT JUMPDEST PUSH0 PUSH3 0x1362 DUP3 DUP6 PUSH3 0x11DC JUMP JUMPDEST PUSH1 0x20 DUP3 ADD SWAP2 POP PUSH3 0x1374 DUP3 DUP5 PUSH3 0x11DC JUMP JUMPDEST PUSH1 0x20 DUP3 ADD SWAP2 POP DUP2 SWAP1 POP SWAP4 SWAP3 POP POP POP JUMP JUMPDEST PUSH32 0x4E487B7100000000000000000000000000000000000000000000000000000000 PUSH0 MSTORE PUSH1 0x32 PUSH1 0x4 MSTORE PUSH1 0x24 PUSH0 REVERT JUMPDEST PUSH32 0x72697363305F67726F746831362E566572696679696E674B6579000000000000 PUSH0 DUP3 ADD MSTORE POP JUMP JUMPDEST PUSH0 PUSH3 0x13E7 PUSH1 0x1A DUP4 PUSH3 0x10E2 JUMP JUMPDEST SWAP2 POP PUSH3 0x13F4 DUP3 PUSH3 0x13B1 JUMP JUMPDEST PUSH1 0x1A DUP3 ADD SWAP1 POP SWAP2 SWAP1 POP JUMP JUMPDEST PUSH0 PUSH3 0x140B DUP3 PUSH3 0x13D9 JUMP JUMPDEST SWAP2 POP DUP2 SWAP1 POP SWAP2 SWAP1 POP JUMP JUMPDEST PUSH0 PUSH3 0x1422 DUP3 DUP8 PUSH3 0x11DC JUMP JUMPDEST PUSH1 0x20 DUP3 ADD SWAP2 POP PUSH3 0x1434 DUP3 DUP7 PUSH3 0x11DC JUMP JUMPDEST PUSH1 0x20 DUP3 ADD SWAP2 POP PUSH3 0x1446 DUP3 DUP6 PUSH3 0x11DC JUMP JUMPDEST PUSH1 0x20 DUP3 ADD SWAP2 POP PUSH3 0x1458 DUP3 DUP5 PUSH3 0x11DC JUMP JUMPDEST PUSH1 0x20 DUP3 ADD SWAP2 POP DUP2 SWAP1 POP SWAP6 SWAP5 POP POP POP POP POP JUMP JUMPDEST PUSH32 0x72697363305F67726F746831362E566572696679696E674B65792E4943000000 PUSH0 DUP3 ADD MSTORE POP JUMP JUMPDEST PUSH0 PUSH3 0x14A0 PUSH1 0x1D DUP4 PUSH3 0x10E2 JUMP JUMPDEST SWAP2 POP PUSH3 0x14AD DUP3 PUSH3 0x146A JUMP JUMPDEST PUSH1 0x1D DUP3 ADD SWAP1 POP SWAP2 SWAP1 POP JUMP JUMPDEST PUSH0 PUSH3 0x14C4 DUP3 PUSH3 0x1492 JUMP JUMPDEST SWAP2 POP DUP2 SWAP1 POP SWAP2 SWAP1 POP JUMP JUMPDEST PUSH0 PUSH3 0x14DB DUP3 DUP11 PUSH3 0x11AF JUMP JUMPDEST PUSH1 0x20 DUP3 ADD SWAP2 POP PUSH3 0x14ED DUP3 DUP10 PUSH3 0x11AF JUMP JUMPDEST PUSH1 0x20 DUP3 ADD SWAP2 POP PUSH3 0x14FF DUP3 DUP9 PUSH3 0x11AF JUMP JUMPDEST PUSH1 0x20 DUP3 ADD SWAP2 POP PUSH3 0x1511 DUP3 DUP8 PUSH3 0x11AF JUMP JUMPDEST PUSH1 0x20 DUP3 ADD SWAP2 POP PUSH3 0x1523 DUP3 DUP7 PUSH3 0x11AF JUMP JUMPDEST PUSH1 0x20 DUP3 ADD SWAP2 POP PUSH3 0x1535 DUP3 DUP6 PUSH3 0x11AF JUMP JUMPDEST PUSH1 0x20 DUP3 ADD SWAP2 POP PUSH3 0x1547 DUP3 DUP5 PUSH3 0x1223 JUMP JUMPDEST PUSH1 0x2 DUP3 ADD SWAP2 POP DUP2 SWAP1 POP SWAP9 SWAP8 POP POP POP POP POP POP POP POP JUMP JUMPDEST PUSH32 0x4E487B7100000000000000000000000000000000000000000000000000000000 PUSH0 MSTORE PUSH1 0x11 PUSH1 0x4 MSTORE PUSH1 0x24 PUSH0 REVERT JUMPDEST PUSH0 PUSH3 0x1595 DUP3 PUSH3 0x11CA JUMP JUMPDEST SWAP2 POP PUSH3 0x15A2 DUP4 PUSH3 0x11CA JUMP JUMPDEST SWAP3 POP DUP3 DUP3 SUB SWAP1 POP DUP2 DUP2 GT ISZERO PUSH3 0x15BD JUMPI PUSH3 0x15BC PUSH3 0x155C JUMP JUMPDEST JUMPDEST SWAP3 SWAP2 POP POP JUMP JUMPDEST PUSH0 PUSH3 0x15CF DUP3 PUSH3 0x11CA JUMP JUMPDEST SWAP2 POP PUSH32 0xFFFFFFFFFFFFFFFFFFFFFFFFFFFFFFFFFFFFFFFFFFFFFFFFFFFFFFFFFFFFFFFF DUP3 SUB PUSH3 0x1604 JUMPI PUSH3 0x1603 PUSH3 0x155C JUMP JUMPDEST JUMPDEST PUSH1 0x1 DUP3 ADD SWAP1 POP SWAP2 SWAP1 POP JUMP JUMPDEST PUSH0 DUP2 MLOAD SWAP1 POP SWAP2 SWAP1 POP JUMP JUMPDEST PUSH0 DUP2 SWAP1 POP SWAP3 SWAP2 POP POP JUMP JUMPDEST PUSH0 DUP2 SWAP1 POP PUSH1 0x20 DUP3 ADD SWAP1 POP SWAP2 SWAP1 POP JUMP JUMPDEST PUSH3 0x163D DUP2 PUSH3 0x1065 JUMP JUMPDEST DUP3 MSTORE POP POP JUMP JUMPDEST PUSH0 PUSH3 0x1650 DUP4 DUP4 PUSH3 0x1632 JUMP JUMPDEST PUSH1 0x20 DUP4 ADD SWAP1 POP SWAP3 SWAP2 POP POP JUMP JUMPDEST PUSH0 PUSH1 0x20 DUP3 ADD SWAP1 POP SWAP2 SWAP1 POP JUMP JUMPDEST PUSH0 PUSH3 0x1674 DUP3 PUSH3 0x160F JUMP JUMPDEST PUSH3 0x1680 DUP2 DUP6 PUSH3 0x1619 JUMP JUMPDEST SWAP4 POP PUSH3 0x168D DUP4 PUSH3 0x1623 JUMP JUMPDEST DUP1 PUSH0 JUMPDEST DUP4 DUP2 LT ISZERO PUSH3 0x16C3 JUMPI DUP2 MLOAD PUSH3 0x16A7 DUP9 DUP3 PUSH3 0x1643 JUMP JUMPDEST SWAP8 POP PUSH3 0x16B4 DUP4 PUSH3 0x165C JUMP JUMPDEST SWAP3 POP POP PUSH1 0x1 DUP2 ADD SWAP1 POP PUSH3 0x1690 JUMP JUMPDEST POP DUP6 SWAP4 POP POP POP POP SWAP3 SWAP2 POP POP JUMP JUMPDEST PUSH0 PUSH32 0xFFFF000000000000000000000000000000000000000000000000000000000000 DUP3 AND SWAP1 POP SWAP2 SWAP1 POP JUMP JUMPDEST PUSH0 DUP2 SWAP1 POP SWAP2 SWAP1 POP JUMP JUMPDEST PUSH3 0x1719 PUSH3 0x1713 DUP3 PUSH3 0x16D0 JUMP JUMPDEST PUSH3 0x16FB JUMP JUMPDEST DUP3 MSTORE POP POP JUMP JUMPDEST PUSH0 PUSH3 0x172C DUP3 DUP8 PUSH3 0x11AF JUMP JUMPDEST PUSH1 0x20 DUP3 ADD SWAP2 POP PUSH3 0x173E DUP3 DUP7 PUSH3 0x1668 JUMP JUMPDEST SWAP2 POP PUSH3 0x174C DUP3 DUP6 PUSH3 0x12DA JUMP JUMPDEST SWAP2 POP PUSH3 0x175A DUP3 DUP5 PUSH3 0x1704 JUMP JUMPDEST PUSH1 0x2 DUP3 ADD SWAP2 POP DUP2 SWAP1 POP SWAP6 SWAP5 POP POP POP POP POP JUMP JUMPDEST PUSH0 DUP2 SWAP1 POP SWAP2 SWAP1 POP JUMP JUMPDEST PUSH0 PUSH1 0xFF DUP3 AND SWAP1 POP SWAP2 SWAP1 POP JUMP JUMPDEST PUSH0 DUP2 SWAP1 POP SWAP2 SWAP1 POP JUMP JUMPDEST PUSH0 PUSH3 0x17AA PUSH3 0x17A4 PUSH3 0x179E DUP5 PUSH3 0x176C JUMP JUMPDEST PUSH3 0x1781 JUMP JUMPDEST PUSH3 0x1775 JUMP JUMPDEST SWAP1 POP SWAP2 SWAP1 POP JUMP JUMPDEST PUSH3 0x17BC DUP2 PUSH3 0x178A JUMP JUMPDEST DUP3 MSTORE POP POP JUMP JUMPDEST PUSH3 0x17CD DUP2 PUSH3 0x11CA JUMP JUMPDEST DUP3 MSTORE POP POP JUMP JUMPDEST PUSH0 PUSH1 0x40 DUP3 ADD SWAP1 POP PUSH3 0x17E8 PUSH0 DUP4 ADD DUP6 PUSH3 0x17B1 JUMP JUMPDEST PUSH3 0x17F7 PUSH1 0x20 DUP4 ADD DUP5 PUSH3 0x17C2 JUMP JUMPDEST SWAP4 SWAP3 POP POP POP JUMP JUMPDEST PUSH1 0x80 MLOAD PUSH1 0xA0 MLOAD PUSH1 0xC0 MLOAD PUSH1 0xE0 MLOAD PUSH2 0x1D6B PUSH3 0x1855 PUSH0 CODECOPY PUSH0 DUP2 DUP2 PUSH2 0x18A ADD MSTORE DUP2 DUP2 PUSH2 0x89E ADD MSTORE PUSH2 0x901 ADD MSTORE PUSH0 DUP2 DUP2 PUSH2 0x1CD ADD MSTORE PUSH2 0xA73 ADD MSTORE PUSH0 DUP2 DUP2 PUSH2 0x7BE ADD MSTORE PUSH2 0xA02 ADD MSTORE PUSH0 DUP2 DUP2 PUSH2 0x7E2 ADD MSTORE PUSH2 0x9C7 ADD MSTORE PUSH2 0x1D6B PUSH0 RETURN INVALID PUSH1 0x80 PUSH1 0x40 MSTORE CALLVALUE DUP1 ISZERO PUSH2 0xF JUMPI PUSH0 DUP1 REVERT JUMPDEST POP PUSH1 0x4 CALLDATASIZE LT PUSH2 0x86 JUMPI PUSH0 CALLDATALOAD PUSH1 0xE0 SHR DUP1 PUSH4 0x8989FA2E GT PUSH2 0x59 JUMPI DUP1 PUSH4 0x8989FA2E EQ PUSH2 0x112 JUMPI DUP1 PUSH4 0x9181E4B1 EQ PUSH2 0x130 JUMPI DUP1 PUSH4 0xAB750E75 EQ PUSH2 0x14E JUMPI DUP1 PUSH4 0xFFA1AD74 EQ PUSH2 0x16A JUMPI PUSH2 0x86 JUMP JUMPDEST DUP1 PUSH4 0x53C238D EQ PUSH2 0x8A JUMPI DUP1 PUSH4 0x1599EAD5 EQ PUSH2 0xA8 JUMPI DUP1 PUSH4 0x258038E2 EQ PUSH2 0xC4 JUMPI DUP1 PUSH4 0x34BAEAB9 EQ PUSH2 0xE2 JUMPI JUMPDEST PUSH0 DUP1 REVERT JUMPDEST PUSH2 0x92 PUSH2 0x188 JUMP JUMPDEST PUSH1 0x40 MLOAD PUSH2 0x9F SWAP2 SWAP1 PUSH2 0xFE0 JUMP JUMPDEST PUSH1 0x40 MLOAD DUP1 SWAP2 SUB SWAP1 RETURN JUMPDEST PUSH2 0xC2 PUSH1 0x4 DUP1 CALLDATASIZE SUB DUP2 ADD SWAP1 PUSH2 0xBD SWAP2 SWAP1 PUSH2 0x102C JUMP JUMPDEST PUSH2 0x1AC JUMP JUMPDEST STOP JUMPDEST PUSH2 0xCC PUSH2 0x1CB JUMP JUMPDEST PUSH1 0x40 MLOAD PUSH2 0xD9 SWAP2 SWAP1 PUSH2 0x108B JUMP JUMPDEST PUSH1 0x40 MLOAD DUP1 SWAP2 SUB SWAP1 RETURN JUMPDEST PUSH2 0xFC PUSH1 0x4 DUP1 CALLDATASIZE SUB DUP2 ADD SWAP1 PUSH2 0xF7 SWAP2 SWAP1 PUSH2 0x110B JUMP JUMPDEST PUSH2 0x1EF JUMP JUMPDEST PUSH1 0x40 MLOAD PUSH2 0x109 SWAP2 SWAP1 PUSH2 0x118B JUMP JUMPDEST PUSH1 0x40 MLOAD DUP1 SWAP2 SUB SWAP1 RETURN JUMPDEST PUSH2 0x11A PUSH2 0x7BC JUMP JUMPDEST PUSH1 0x40 MLOAD PUSH2 0x127 SWAP2 SWAP1 PUSH2 0x11DE JUMP JUMPDEST PUSH1 0x40 MLOAD DUP1 SWAP2 SUB SWAP1 RETURN JUMPDEST PUSH2 0x138 PUSH2 0x7E0 JUMP JUMPDEST PUSH1 0x40 MLOAD PUSH2 0x145 SWAP2 SWAP1 PUSH2 0x11DE JUMP JUMPDEST PUSH1 0x40 MLOAD DUP1 SWAP2 SUB SWAP1 RETURN JUMPDEST PUSH2 0x168 PUSH1 0x4 DUP1 CALLDATASIZE SUB DUP2 ADD SWAP1 PUSH2 0x163 SWAP2 SWAP1 PUSH2 0x127E JUMP JUMPDEST PUSH2 0x804 JUMP JUMPDEST STOP JUMPDEST PUSH2 0x172 PUSH2 0x826 JUMP JUMPDEST PUSH1 0x40 MLOAD PUSH2 0x17F SWAP2 SWAP1 PUSH2 0x1379 JUMP JUMPDEST PUSH1 0x40 MLOAD DUP1 SWAP2 SUB SWAP1 RETURN JUMPDEST PUSH32 0x0 DUP2 JUMP JUMPDEST PUSH2 0x1C8 DUP2 DUP1 PUSH0 ADD SWAP1 PUSH2 0x1BE SWAP2 SWAP1 PUSH2 0x13A5 JUMP JUMPDEST DUP4 PUSH1 0x20 ADD CALLDATALOAD PUSH2 0x85F JUMP JUMPDEST POP JUMP JUMPDEST PUSH32 0x0 DUP2 JUMP JUMPDEST PUSH0 PUSH2 0x74F JUMP JUMPDEST PUSH32 0x30644E72E131A029B85045B68181585D2833E84879B9709143E1F593F0000001 DUP2 LT PUSH2 0x224 JUMPI PUSH0 DUP1 MSTORE PUSH1 0x20 PUSH0 RETURN JUMPDEST POP JUMP JUMPDEST PUSH0 PUSH1 0x40 MLOAD DUP4 DUP2 MSTORE DUP5 PUSH1 0x20 DUP3 ADD MSTORE DUP6 PUSH1 0x40 DUP3 ADD MSTORE PUSH1 0x40 DUP2 PUSH1 0x60 DUP4 PUSH1 0x7 PUSH2 0x7D0 GAS SUB STATICCALL SWAP2 POP DUP2 PUSH2 0x257 JUMPI PUSH0 DUP1 MSTORE PUSH1 0x20 PUSH0 RETURN JUMPDEST DUP3 MLOAD PUSH1 0x40 DUP3 ADD MSTORE PUSH1 0x20 DUP4 ADD MLOAD PUSH1 0x60 DUP3 ADD MSTORE PUSH1 0x40 DUP4 PUSH1 0x80 DUP4 PUSH1 0x6 PUSH2 0x7D0 GAS SUB STATICCALL SWAP2 POP DUP2 PUSH2 0x285 JUMPI PUSH0 DUP1 MSTORE PUSH1 0x20 PUSH0 RETURN JUMPDEST POP POP POP POP POP POP JUMP JUMPDEST PUSH0 PUSH1 0x80 DUP7 ADD PUSH0 DUP8 ADD PUSH32 0x12AC9A25DCD5E1A832A9061A082C15DD1D61AA9C4D553505739D0F5D65DC3BE4 DUP2 MSTORE PUSH32 0x25AA744581EBE7AD91731911C898569106FF5A2D30F3EEE2B23C60EE980ACD4 PUSH1 0x20 DUP3 ADD MSTORE PUSH2 0x32D PUSH0 DUP9 ADD CALLDATALOAD PUSH32 0x2E32A094B7589554F7BC357BF63481ACD2D55555C203383782A4650787FF6642 PUSH32 0x707B920BC978C02F292FAE2036E057BE54294114CCC3C8769D883F688A1423F DUP5 PUSH2 0x227 JUMP JUMPDEST PUSH2 0x37D PUSH1 0x20 DUP9 ADD CALLDATALOAD PUSH32 0x2EDE7C9ACF48CF3A3729FA3D68714E2A8435D4FA6DB8F7F409C153B1FCDF9B8B PUSH32 0xBCA36E2CBE6394B3E249751853F961511011C7148E336F4FD974644850FC347 DUP5 PUSH2 0x227 JUMP JUMPDEST PUSH2 0x3CD PUSH1 0x40 DUP9 ADD CALLDATALOAD PUSH32 0x2B91A26AA92E1B6F5722949F192A81C850D586D81A60157F3E9CF04F679CCCD6 PUSH32 0x1B8AF999DBFBB3927C091CC2AAF201E488CBACC3E2C6B6FB5A25F9112E04F2A7 DUP5 PUSH2 0x227 JUMP JUMPDEST PUSH2 0x41D PUSH1 0x60 DUP9 ADD CALLDATALOAD PUSH32 0x2FE520AD2020AAB9CBBA817FCBB9A863B8A76FF88F14F912C5E71665B2AD5E82 PUSH32 0x2B5F494ED674235B8AC1750BDFD5A7615F002D4A1DCEFEDDD06EDA5A076CCD0D DUP5 PUSH2 0x227 JUMP JUMPDEST PUSH2 0x46D PUSH1 0x80 DUP9 ADD CALLDATALOAD PUSH32 0x214BFCFF74F425F6FE8C0D07B307482D8BC8BB2F3608F68287AA01BD0B69E809 PUSH32 0xF1C3C0D5D9DA0FA03666843CDE4E82E869BA5252FCE3C25D5940320B1C4D493 DUP5 PUSH2 0x227 JUMP JUMPDEST DUP4 CALLDATALOAD DUP3 MSTORE PUSH32 0x30644E72E131A029B85045B68181585D97816A916871CA8D3C208C16D87CFD47 PUSH1 0x20 DUP6 ADD CALLDATALOAD PUSH32 0x30644E72E131A029B85045B68181585D97816A916871CA8D3C208C16D87CFD47 SUB MOD PUSH1 0x20 DUP4 ADD MSTORE DUP5 CALLDATALOAD PUSH1 0x40 DUP4 ADD MSTORE PUSH1 0x20 DUP6 ADD CALLDATALOAD PUSH1 0x60 DUP4 ADD MSTORE PUSH1 0x40 DUP6 ADD CALLDATALOAD PUSH1 0x80 DUP4 ADD MSTORE PUSH1 0x60 DUP6 ADD CALLDATALOAD PUSH1 0xA0 DUP4 ADD MSTORE PUSH32 0x2D4D9AA7E302D9DF41749D5507949D05DBEA33FBB16C643B22F599A2BE6DF2E2 PUSH1 0xC0 DUP4 ADD MSTORE PUSH32 0x14BEDD503C37CEB061D8EC60209FE345CE89830A19230301F076CAFF004D1926 PUSH1 0xE0 DUP4 ADD MSTORE PUSH32 0x967032FCBF776D1AFC985F88877F182D38480A653F2DECAA9794CBC3BF3060C PUSH2 0x100 DUP4 ADD MSTORE PUSH32 0xE187847AD4C798374D0D6732BF501847DD68BC0E071241E0213BC7FC13DB7AB PUSH2 0x120 DUP4 ADD MSTORE PUSH32 0x304CFBD1E08A704A99F5E847D93F8C3CAAFDDEC46B7A0D379DA69A4D112346A7 PUSH2 0x140 DUP4 ADD MSTORE PUSH32 0x1739C1B1A457A8C7313123D24D2F9192F896B7C63EEA05A9D57F06547AD0CEC8 PUSH2 0x160 DUP4 ADD MSTORE PUSH0 DUP9 ADD MLOAD PUSH2 0x180 DUP4 ADD MSTORE PUSH1 0x20 PUSH0 ADD DUP9 ADD MLOAD PUSH2 0x1A0 DUP4 ADD MSTORE PUSH32 0x198E9393920D483A7260BFB731FB5D25F1AA493335A9E71297E485B7AEF312C2 PUSH2 0x1C0 DUP4 ADD MSTORE PUSH32 0x1800DEEF121F1E76426A00665E5C4479674322D4F75EDADD46DEBD5CD992F6ED PUSH2 0x1E0 DUP4 ADD MSTORE PUSH32 0x90689D0585FF075EC9E99AD690C3395BC4B313370B38EF355ACDADCD122975B PUSH2 0x200 DUP4 ADD MSTORE PUSH32 0x12C85EA5DB8C6DEB4AAB71808DCB408FE3D1E7690C43D37B4CE6CC0166FA7DAA PUSH2 0x220 DUP4 ADD MSTORE DUP6 CALLDATALOAD PUSH2 0x240 DUP4 ADD MSTORE PUSH1 0x20 DUP7 ADD CALLDATALOAD PUSH2 0x260 DUP4 ADD MSTORE PUSH32 0x3B03CD5EFFA95AC9BEE94F1F5EF907157BDA4812CCF0B4C91F42BB629F83A1C PUSH2 0x280 DUP4 ADD MSTORE PUSH32 0x1AA085FF28179A12D922DBA0547057CCAAE94B9D69CFAA4E60401FEA7F3E0333 PUSH2 0x2A0 DUP4 ADD MSTORE PUSH32 0x110C10134F200B19F6490846D518C9AEA868366EFB7228CA5C91D2940D030762 PUSH2 0x2C0 DUP4 ADD MSTORE PUSH32 0x1E60F31FCBF757E837E867178318832D0B2D74D59E2FEA1C7142DF187D3FC6D3 PUSH2 0x2E0 DUP4 ADD MSTORE PUSH1 0x20 DUP3 PUSH2 0x300 DUP5 PUSH1 0x8 PUSH2 0x7D0 GAS SUB STATICCALL DUP3 MLOAD DUP2 AND SWAP4 POP POP POP POP SWAP6 SWAP5 POP POP POP POP POP JUMP JUMPDEST PUSH1 0x40 MLOAD PUSH2 0x380 DUP2 ADD PUSH1 0x40 MSTORE PUSH2 0x766 PUSH0 DUP5 ADD CALLDATALOAD PUSH2 0x1F5 JUMP JUMPDEST PUSH2 0x773 PUSH1 0x20 DUP5 ADD CALLDATALOAD PUSH2 0x1F5 JUMP JUMPDEST PUSH2 0x780 PUSH1 0x40 DUP5 ADD CALLDATALOAD PUSH2 0x1F5 JUMP JUMPDEST PUSH2 0x78D PUSH1 0x60 DUP5 ADD CALLDATALOAD PUSH2 0x1F5 JUMP JUMPDEST PUSH2 0x79A PUSH1 0x80 DUP5 ADD CALLDATALOAD PUSH2 0x1F5 JUMP JUMPDEST PUSH2 0x7A7 PUSH1 0xA0 DUP5 ADD CALLDATALOAD PUSH2 0x1F5 JUMP JUMPDEST PUSH2 0x7B4 DUP2 DUP5 DUP7 DUP9 DUP11 PUSH2 0x28D JUMP JUMPDEST DUP1 PUSH0 MSTORE PUSH1 0x20 PUSH0 RETURN JUMPDEST PUSH32 0x0 DUP2 JUMP JUMPDEST PUSH32 0x0 DUP2 JUMP JUMPDEST PUSH2 0x820 DUP5 DUP5 PUSH2 0x81B PUSH2 0x816 DUP7 DUP7 PUSH2 0xB37 JUMP JUMPDEST PUSH2 0xBD9 JUMP JUMPDEST PUSH2 0x85F JUMP JUMPDEST POP POP POP POP JUMP JUMPDEST PUSH1 0x40 MLOAD DUP1 PUSH1 0x40 ADD PUSH1 0x40 MSTORE DUP1 PUSH1 0x5 DUP2 MSTORE PUSH1 0x20 ADD PUSH32 0x312E322E30000000000000000000000000000000000000000000000000000000 DUP2 MSTORE POP DUP2 JUMP JUMPDEST DUP3 DUP3 PUSH0 SWAP1 PUSH1 0x4 SWAP3 PUSH2 0x872 SWAP4 SWAP3 SWAP2 SWAP1 PUSH2 0x140F JUMP JUMPDEST SWAP1 PUSH2 0x87D SWAP2 SWAP1 PUSH2 0x145F JUMP JUMPDEST PUSH28 0xFFFFFFFFFFFFFFFFFFFFFFFFFFFFFFFFFFFFFFFFFFFFFFFFFFFFFFFF NOT AND PUSH32 0x0 PUSH28 0xFFFFFFFFFFFFFFFFFFFFFFFFFFFFFFFFFFFFFFFFFFFFFFFFFFFFFFFF NOT AND EQ PUSH2 0x95D JUMPI DUP3 DUP3 PUSH0 SWAP1 PUSH1 0x4 SWAP3 PUSH2 0x8F4 SWAP4 SWAP3 SWAP2 SWAP1 PUSH2 0x140F JUMP JUMPDEST SWAP1 PUSH2 0x8FF SWAP2 SWAP1 PUSH2 0x145F JUMP JUMPDEST PUSH32 0x0 PUSH1 0x40 MLOAD PUSH32 0xB8B38D4C00000000000000000000000000000000000000000000000000000000 DUP2 MSTORE PUSH1 0x4 ADD PUSH2 0x954 SWAP3 SWAP2 SWAP1 PUSH2 0x14BD JUMP JUMPDEST PUSH1 0x40 MLOAD DUP1 SWAP2 SUB SWAP1 REVERT JUMPDEST PUSH0 DUP1 PUSH2 0x968 DUP4 PUSH2 0xCF6 JUMP JUMPDEST SWAP2 POP SWAP2 POP PUSH0 DUP6 DUP6 PUSH1 0x4 SWAP1 DUP1 SWAP3 PUSH2 0x980 SWAP4 SWAP3 SWAP2 SWAP1 PUSH2 0x140F JUMP JUMPDEST DUP2 ADD SWAP1 PUSH2 0x98D SWAP2 SWAP1 PUSH2 0x1751 JUMP JUMPDEST SWAP1 POP PUSH0 ADDRESS PUSH20 0xFFFFFFFFFFFFFFFFFFFFFFFFFFFFFFFFFFFFFFFF AND PUSH4 0x34BAEAB9 DUP4 PUSH0 ADD MLOAD DUP5 PUSH1 0x20 ADD MLOAD DUP6 PUSH1 0x40 ADD MLOAD PUSH1 0x40 MLOAD DUP1 PUSH1 0xA0 ADD PUSH1 0x40 MSTORE DUP1 PUSH32 0x0 PUSH1 0x80 SHR PUSH16 0xFFFFFFFFFFFFFFFFFFFFFFFFFFFFFFFF AND DUP2 MSTORE PUSH1 0x20 ADD PUSH32 0x0 PUSH1 0x80 SHR PUSH16 0xFFFFFFFFFFFFFFFFFFFFFFFFFFFFFFFF AND DUP2 MSTORE PUSH1 0x20 ADD DUP11 PUSH1 0x80 SHR PUSH16 0xFFFFFFFFFFFFFFFFFFFFFFFFFFFFFFFF AND DUP2 MSTORE PUSH1 0x20 ADD DUP10 PUSH1 0x80 SHR PUSH16 0xFFFFFFFFFFFFFFFFFFFFFFFFFFFFFFFF AND DUP2 MSTORE PUSH1 0x20 ADD PUSH32 0x0 PUSH0 SHR DUP2 MSTORE POP PUSH1 0x40 MLOAD DUP6 PUSH4 0xFFFFFFFF AND PUSH1 0xE0 SHL DUP2 MSTORE PUSH1 0x4 ADD PUSH2 0xAB6 SWAP5 SWAP4 SWAP3 SWAP2 SWAP1 PUSH2 0x1997 JUMP JUMPDEST PUSH1 0x20 PUSH1 0x40 MLOAD DUP1 DUP4 SUB DUP2 DUP7 GAS STATICCALL ISZERO DUP1 ISZERO PUSH2 0xAD1 JUMPI RETURNDATASIZE PUSH0 DUP1 RETURNDATACOPY RETURNDATASIZE PUSH0 REVERT JUMPDEST POP POP POP POP PUSH1 0x40 MLOAD RETURNDATASIZE PUSH1 0x1F NOT PUSH1 0x1F DUP3 ADD AND DUP3 ADD DUP1 PUSH1 0x40 MSTORE POP DUP2 ADD SWAP1 PUSH2 0xAF5 SWAP2 SWAP1 PUSH2 0x1A06 JUMP JUMPDEST SWAP1 POP DUP1 PUSH2 0xB2E JUMPI PUSH1 0x40 MLOAD PUSH32 0x439CC0CD00000000000000000000000000000000000000000000000000000000 DUP2 MSTORE PUSH1 0x4 ADD PUSH1 0x40 MLOAD DUP1 SWAP2 SUB SWAP1 REVERT JUMPDEST POP POP POP POP POP POP POP JUMP JUMPDEST PUSH2 0xB3F PUSH2 0xF3C JUMP JUMPDEST PUSH1 0x40 MLOAD DUP1 PUSH1 0xA0 ADD PUSH1 0x40 MSTORE DUP1 DUP5 DUP2 MSTORE PUSH1 0x20 ADD PUSH32 0xA3ACC27117418996340B84E5A90F3EF4C49D22C79E44AAD822EC9C313E1EB8E2 PUSH0 SHL DUP2 MSTORE PUSH1 0x20 ADD PUSH1 0x40 MLOAD DUP1 PUSH1 0x40 ADD PUSH1 0x40 MSTORE DUP1 PUSH0 PUSH1 0x2 DUP2 GT ISZERO PUSH2 0xB96 JUMPI PUSH2 0xB95 PUSH2 0x1A31 JUMP JUMPDEST JUMPDEST DUP2 MSTORE PUSH1 0x20 ADD PUSH0 PUSH1 0xFF AND DUP2 MSTORE POP DUP2 MSTORE PUSH1 0x20 ADD PUSH0 DUP1 SHL DUP2 MSTORE PUSH1 0x20 ADD PUSH2 0xBCE PUSH1 0x40 MLOAD DUP1 PUSH1 0x40 ADD PUSH1 0x40 MSTORE DUP1 DUP7 DUP2 MSTORE PUSH1 0x20 ADD PUSH0 DUP1 SHL DUP2 MSTORE POP PUSH2 0xD1C JUMP JUMPDEST DUP2 MSTORE POP SWAP1 POP SWAP3 SWAP2 POP POP JUMP JUMPDEST PUSH0 PUSH1 0x2 DUP1 PUSH1 0x40 MLOAD PUSH2 0xBE9 SWAP1 PUSH2 0x1AB2 JUMP JUMPDEST PUSH1 0x20 PUSH1 0x40 MLOAD DUP1 DUP4 SUB DUP2 DUP6 GAS STATICCALL ISZERO DUP1 ISZERO PUSH2 0xC04 JUMPI RETURNDATASIZE PUSH0 DUP1 RETURNDATACOPY RETURNDATASIZE PUSH0 REVERT JUMPDEST POP POP POP PUSH1 0x40 MLOAD RETURNDATASIZE PUSH1 0x1F NOT PUSH1 0x1F DUP3 ADD AND DUP3 ADD DUP1 PUSH1 0x40 MSTORE POP DUP2 ADD SWAP1 PUSH2 0xC27 SWAP2 SWAP1 PUSH2 0x1ADA JUMP JUMPDEST DUP4 PUSH1 0x60 ADD MLOAD DUP5 PUSH0 ADD MLOAD DUP6 PUSH1 0x20 ADD MLOAD DUP7 PUSH1 0x80 ADD MLOAD PUSH1 0x18 DUP9 PUSH1 0x40 ADD MLOAD PUSH0 ADD MLOAD PUSH1 0x2 DUP2 GT ISZERO PUSH2 0xC56 JUMPI PUSH2 0xC55 PUSH2 0x1A31 JUMP JUMPDEST JUMPDEST PUSH4 0xFFFFFFFF AND SWAP1 SHL PUSH1 0x18 DUP10 PUSH1 0x40 ADD MLOAD PUSH1 0x20 ADD MLOAD PUSH1 0xFF AND PUSH4 0xFFFFFFFF AND SWAP1 SHL PUSH1 0x8 PUSH1 0x4 PUSH2 0xFFFF AND SWAP1 SHL PUSH1 0x40 MLOAD PUSH1 0x20 ADD PUSH2 0xC95 SWAP9 SWAP8 SWAP7 SWAP6 SWAP5 SWAP4 SWAP3 SWAP2 SWAP1 PUSH2 0x1BA9 JUMP JUMPDEST PUSH1 0x40 MLOAD PUSH1 0x20 DUP2 DUP4 SUB SUB DUP2 MSTORE SWAP1 PUSH1 0x40 MSTORE PUSH1 0x40 MLOAD PUSH2 0xCB1 SWAP2 SWAP1 PUSH2 0x1C74 JUMP JUMPDEST PUSH1 0x20 PUSH1 0x40 MLOAD DUP1 DUP4 SUB DUP2 DUP6 GAS STATICCALL ISZERO DUP1 ISZERO PUSH2 0xCCC JUMPI RETURNDATASIZE PUSH0 DUP1 RETURNDATACOPY RETURNDATASIZE PUSH0 REVERT JUMPDEST POP POP POP PUSH1 0x40 MLOAD RETURNDATASIZE PUSH1 0x1F NOT PUSH1 0x1F DUP3 ADD AND DUP3 ADD DUP1 PUSH1 0x40 MSTORE POP DUP2 ADD SWAP1 PUSH2 0xCEF SWAP2 SWAP1 PUSH2 0x1ADA JUMP JUMPDEST SWAP1 POP SWAP2 SWAP1 POP JUMP JUMPDEST PUSH0 DUP1 PUSH0 PUSH2 0xD04 DUP5 PUSH0 SHR PUSH2 0xDF1 JUMP JUMPDEST SWAP1 POP DUP1 PUSH1 0x80 SHL PUSH1 0x80 DUP3 SWAP1 SHR PUSH1 0x80 SHL SWAP3 POP SWAP3 POP POP SWAP2 POP SWAP2 JUMP JUMPDEST PUSH0 PUSH1 0x2 DUP1 PUSH1 0x40 MLOAD PUSH2 0xD2C SWAP1 PUSH2 0x1CD4 JUMP JUMPDEST PUSH1 0x20 PUSH1 0x40 MLOAD DUP1 DUP4 SUB DUP2 DUP6 GAS STATICCALL ISZERO DUP1 ISZERO PUSH2 0xD47 JUMPI RETURNDATASIZE PUSH0 DUP1 RETURNDATACOPY RETURNDATASIZE PUSH0 REVERT JUMPDEST POP POP POP PUSH1 0x40 MLOAD RETURNDATASIZE PUSH1 0x1F NOT PUSH1 0x1F DUP3 ADD AND DUP3 ADD DUP1 PUSH1 0x40 MSTORE POP DUP2 ADD SWAP1 PUSH2 0xD6A SWAP2 SWAP1 PUSH2 0x1ADA JUMP JUMPDEST DUP4 PUSH0 ADD MLOAD DUP5 PUSH1 0x20 ADD MLOAD PUSH1 0x8 PUSH1 0x2 PUSH2 0xFFFF AND SWAP1 SHL PUSH1 0x40 MLOAD PUSH1 0x20 ADD PUSH2 0xD90 SWAP5 SWAP4 SWAP3 SWAP2 SWAP1 PUSH2 0x1CE8 JUMP JUMPDEST PUSH1 0x40 MLOAD PUSH1 0x20 DUP2 DUP4 SUB SUB DUP2 MSTORE SWAP1 PUSH1 0x40 MSTORE PUSH1 0x40 MLOAD PUSH2 0xDAC SWAP2 SWAP1 PUSH2 0x1C74 JUMP JUMPDEST PUSH1 0x20 PUSH1 0x40 MLOAD DUP1 DUP4 SUB DUP2 DUP6 GAS STATICCALL ISZERO DUP1 ISZERO PUSH2 0xDC7 JUMPI RETURNDATASIZE PUSH0 DUP1 RETURNDATACOPY RETURNDATASIZE PUSH0 REVERT JUMPDEST POP POP POP PUSH1 0x40 MLOAD RETURNDATASIZE PUSH1 0x1F NOT PUSH1 0x1F DUP3 ADD AND DUP3 ADD DUP1 PUSH1 0x40 MSTORE POP DUP2 ADD SWAP1 PUSH2 0xDEA SWAP2 SWAP1 PUSH2 0x1ADA JUMP JUMPDEST SWAP1 POP SWAP2 SWAP1 POP JUMP JUMPDEST PUSH0 DUP2 SWAP1 POP PUSH1 0x8 PUSH31 0xFF00FF00FF00FF00FF00FF00FF00FF00FF00FF00FF00FF00FF00FF00FF00FF DUP3 AND SWAP1 SHL PUSH1 0x8 PUSH32 0xFF00FF00FF00FF00FF00FF00FF00FF00FF00FF00FF00FF00FF00FF00FF00FF00 DUP4 AND SWAP1 SHR OR SWAP1 POP PUSH1 0x10 PUSH30 0xFFFF0000FFFF0000FFFF0000FFFF0000FFFF0000FFFF0000FFFF0000FFFF DUP3 AND SWAP1 SHL PUSH1 0x10 PUSH32 0xFFFF0000FFFF0000FFFF0000FFFF0000FFFF0000FFFF0000FFFF0000FFFF0000 DUP4 AND SWAP1 SHR OR SWAP1 POP PUSH1 0x20 PUSH28 0xFFFFFFFF00000000FFFFFFFF00000000FFFFFFFF00000000FFFFFFFF DUP3 AND SWAP1 SHL PUSH1 0x20 PUSH32 0xFFFFFFFF00000000FFFFFFFF00000000FFFFFFFF00000000FFFFFFFF00000000 DUP4 AND SWAP1 SHR OR SWAP1 POP PUSH1 0x40 PUSH24 0xFFFFFFFFFFFFFFFF0000000000000000FFFFFFFFFFFFFFFF DUP3 AND SWAP1 SHL PUSH1 0x40 PUSH32 0xFFFFFFFFFFFFFFFF0000000000000000FFFFFFFFFFFFFFFF0000000000000000 DUP4 AND SWAP1 SHR OR SWAP1 POP PUSH1 0x80 DUP2 SWAP1 SHL PUSH1 0x80 DUP3 SWAP1 SHR OR SWAP1 POP SWAP2 SWAP1 POP JUMP JUMPDEST PUSH1 0x40 MLOAD DUP1 PUSH1 0xA0 ADD PUSH1 0x40 MSTORE DUP1 PUSH0 DUP1 NOT AND DUP2 MSTORE PUSH1 0x20 ADD PUSH0 DUP1 NOT AND DUP2 MSTORE PUSH1 0x20 ADD PUSH2 0xF61 PUSH2 0xF79 JUMP JUMPDEST DUP2 MSTORE PUSH1 0x20 ADD PUSH0 DUP1 NOT AND DUP2 MSTORE PUSH1 0x20 ADD PUSH0 DUP1 NOT AND DUP2 MSTORE POP SWAP1 JUMP JUMPDEST PUSH1 0x40 MLOAD DUP1 PUSH1 0x40 ADD PUSH1 0x40 MSTORE DUP1 PUSH0 PUSH1 0x2 DUP2 GT ISZERO PUSH2 0xF97 JUMPI PUSH2 0xF96 PUSH2 0x1A31 JUMP JUMPDEST JUMPDEST DUP2 MSTORE PUSH1 0x20 ADD PUSH0 PUSH1 0xFF AND DUP2 MSTORE POP SWAP1 JUMP JUMPDEST PUSH0 PUSH32 0xFFFFFFFF00000000000000000000000000000000000000000000000000000000 DUP3 AND SWAP1 POP SWAP2 SWAP1 POP JUMP JUMPDEST PUSH2 0xFDA DUP2 PUSH2 0xFA6 JUMP JUMPDEST DUP3 MSTORE POP POP JUMP JUMPDEST PUSH0 PUSH1 0x20 DUP3 ADD SWAP1 POP PUSH2 0xFF3 PUSH0 DUP4 ADD DUP5 PUSH2 0xFD1 JUMP JUMPDEST SWAP3 SWAP2 POP POP JUMP JUMPDEST PUSH0 PUSH1 0x40 MLOAD SWAP1 POP SWAP1 JUMP JUMPDEST PUSH0 DUP1 REVERT JUMPDEST PUSH0 DUP1 REVERT JUMPDEST PUSH0 DUP1 REVERT JUMPDEST PUSH0 PUSH1 0x40 DUP3 DUP5 SUB SLT ISZERO PUSH2 0x1023 JUMPI PUSH2 0x1022 PUSH2 0x100A JUMP JUMPDEST JUMPDEST DUP2 SWAP1 POP SWAP3 SWAP2 POP POP JUMP JUMPDEST PUSH0 PUSH1 0x20 DUP3 DUP5 SUB SLT ISZERO PUSH2 0x1041 JUMPI PUSH2 0x1040 PUSH2 0x1002 JUMP JUMPDEST JUMPDEST PUSH0 DUP3 ADD CALLDATALOAD PUSH8 0xFFFFFFFFFFFFFFFF DUP2 GT ISZERO PUSH2 0x105E JUMPI PUSH2 0x105D PUSH2 0x1006 JUMP JUMPDEST JUMPDEST PUSH2 0x106A DUP5 DUP3 DUP6 ADD PUSH2 0x100E JUMP JUMPDEST SWAP2 POP POP SWAP3 SWAP2 POP POP JUMP JUMPDEST PUSH0 DUP2 SWAP1 POP SWAP2 SWAP1 POP JUMP JUMPDEST PUSH2 0x1085 DUP2 PUSH2 0x1073 JUMP JUMPDEST DUP3 MSTORE POP POP JUMP JUMPDEST PUSH0 PUSH1 0x20 DUP3 ADD SWAP1 POP PUSH2 0x109E PUSH0 DUP4 ADD DUP5 PUSH2 0x107C JUMP JUMPDEST SWAP3 SWAP2 POP POP JUMP JUMPDEST PUSH0 DUP1 REVERT JUMPDEST PUSH0 DUP2 SWAP1 POP DUP3 PUSH1 0x20 PUSH1 0x2 MUL DUP3 ADD GT ISZERO PUSH2 0x10C3 JUMPI PUSH2 0x10C2 PUSH2 0x10A4 JUMP JUMPDEST JUMPDEST SWAP3 SWAP2 POP POP JUMP JUMPDEST PUSH0 DUP2 SWAP1 POP DUP3 PUSH1 0x40 PUSH1 0x2 MUL DUP3 ADD GT ISZERO PUSH2 0x10E4 JUMPI PUSH2 0x10E3 PUSH2 0x10A4 JUMP JUMPDEST JUMPDEST SWAP3 SWAP2 POP POP JUMP JUMPDEST PUSH0 DUP2 SWAP1 POP DUP3 PUSH1 0x20 PUSH1 0x5 MUL DUP3 ADD GT ISZERO PUSH2 0x1105 JUMPI PUSH2 0x1104 PUSH2 0x10A4 JUMP JUMPDEST JUMPDEST SWAP3 SWAP2 POP POP JUMP JUMPDEST PUSH0 DUP1 PUSH0 DUP1 PUSH2 0x1A0 DUP6 DUP8 SUB SLT ISZERO PUSH2 0x1124 JUMPI PUSH2 0x1123 PUSH2 0x1002 JUMP JUMPDEST JUMPDEST PUSH0 PUSH2 0x1131 DUP8 DUP3 DUP9 ADD PUSH2 0x10A8 JUMP JUMPDEST SWAP5 POP POP PUSH1 0x40 PUSH2 0x1142 DUP8 DUP3 DUP9 ADD PUSH2 0x10C9 JUMP JUMPDEST SWAP4 POP POP PUSH1 0xC0 PUSH2 0x1153 DUP8 DUP3 DUP9 ADD PUSH2 0x10A8 JUMP JUMPDEST SWAP3 POP POP PUSH2 0x100 PUSH2 0x1165 DUP8 DUP3 DUP9 ADD PUSH2 0x10EA JUMP JUMPDEST SWAP2 POP POP SWAP3 SWAP6 SWAP2 SWAP5 POP SWAP3 POP JUMP JUMPDEST PUSH0 DUP2 ISZERO ISZERO SWAP1 POP SWAP2 SWAP1 POP JUMP JUMPDEST PUSH2 0x1185 DUP2 PUSH2 0x1171 JUMP JUMPDEST DUP3 MSTORE POP POP JUMP JUMPDEST PUSH0 PUSH1 0x20 DUP3 ADD SWAP1 POP PUSH2 0x119E PUSH0 DUP4 ADD DUP5 PUSH2 0x117C JUMP JUMPDEST SWAP3 SWAP2 POP POP JUMP JUMPDEST PUSH0 PUSH32 0xFFFFFFFFFFFFFFFFFFFFFFFFFFFFFFFF00000000000000000000000000000000 DUP3 AND SWAP1 POP SWAP2 SWAP1 POP JUMP JUMPDEST PUSH2 0x11D8 DUP2 PUSH2 0x11A4 JUMP JUMPDEST DUP3 MSTORE POP POP JUMP JUMPDEST PUSH0 PUSH1 0x20 DUP3 ADD SWAP1 POP PUSH2 0x11F1 PUSH0 DUP4 ADD DUP5 PUSH2 0x11CF JUMP JUMPDEST SWAP3 SWAP2 POP POP JUMP JUMPDEST PUSH0 DUP1 REVERT JUMPDEST PUSH0 DUP1 REVERT JUMPDEST PUSH0 DUP1 DUP4 PUSH1 0x1F DUP5 ADD SLT PUSH2 0x1214 JUMPI PUSH2 0x1213 PUSH2 0x11F7 JUMP JUMPDEST JUMPDEST DUP3 CALLDATALOAD SWAP1 POP PUSH8 0xFFFFFFFFFFFFFFFF DUP2 GT ISZERO PUSH2 0x1231 JUMPI PUSH2 0x1230 PUSH2 0x11FB JUMP JUMPDEST JUMPDEST PUSH1 0x20 DUP4 ADD SWAP2 POP DUP4 PUSH1 0x1 DUP3 MUL DUP4 ADD GT ISZERO PUSH2 0x124D JUMPI PUSH2 0x124C PUSH2 0x10A4 JUMP JUMPDEST JUMPDEST SWAP3 POP SWAP3 SWAP1 POP JUMP JUMPDEST PUSH2 0x125D DUP2 PUSH2 0x1073 JUMP JUMPDEST DUP2 EQ PUSH2 0x1267 JUMPI PUSH0 DUP1 REVERT JUMPDEST POP JUMP JUMPDEST PUSH0 DUP2 CALLDATALOAD SWAP1 POP PUSH2 0x1278 DUP2 PUSH2 0x1254 JUMP JUMPDEST SWAP3 SWAP2 POP POP JUMP JUMPDEST PUSH0 DUP1 PUSH0 DUP1 PUSH1 0x60 DUP6 DUP8 SUB SLT ISZERO PUSH2 0x1296 JUMPI PUSH2 0x1295 PUSH2 0x1002 JUMP JUMPDEST JUMPDEST PUSH0 DUP6 ADD CALLDATALOAD PUSH8 0xFFFFFFFFFFFFFFFF DUP2 GT ISZERO PUSH2 0x12B3 JUMPI PUSH2 0x12B2 PUSH2 0x1006 JUMP JUMPDEST JUMPDEST PUSH2 0x12BF DUP8 DUP3 DUP9 ADD PUSH2 0x11FF JUMP JUMPDEST SWAP5 POP SWAP5 POP POP PUSH1 0x20 PUSH2 0x12D2 DUP8 DUP3 DUP9 ADD PUSH2 0x126A JUMP JUMPDEST SWAP3 POP POP PUSH1 0x40 PUSH2 0x12E3 DUP8 DUP3 DUP9 ADD PUSH2 0x126A JUMP JUMPDEST SWAP2 POP POP SWAP3 SWAP6 SWAP2 SWAP5 POP SWAP3 POP JUMP JUMPDEST PUSH0 DUP2 MLOAD SWAP1 POP SWAP2 SWAP1 POP JUMP JUMPDEST PUSH0 DUP3 DUP3 MSTORE PUSH1 0x20 DUP3 ADD SWAP1 POP SWAP3 SWAP2 POP POP JUMP JUMPDEST PUSH0 JUMPDEST DUP4 DUP2 LT ISZERO PUSH2 0x1326 JUMPI DUP1 DUP3 ADD MLOAD DUP2 DUP5 ADD MSTORE PUSH1 0x20 DUP2 ADD SWAP1 POP PUSH2 0x130B JUMP JUMPDEST PUSH0 DUP5 DUP5 ADD MSTORE POP POP POP POP JUMP JUMPDEST PUSH0 PUSH1 0x1F NOT PUSH1 0x1F DUP4 ADD AND SWAP1 POP SWAP2 SWAP1 POP JUMP JUMPDEST PUSH0 PUSH2 0x134B DUP3 PUSH2 0x12EF JUMP JUMPDEST PUSH2 0x1355 DUP2 DUP6 PUSH2 0x12F9 JUMP JUMPDEST SWAP4 POP PUSH2 0x1365 DUP2 DUP6 PUSH1 0x20 DUP7 ADD PUSH2 0x1309 JUMP JUMPDEST PUSH2 0x136E DUP2 PUSH2 0x1331 JUMP JUMPDEST DUP5 ADD SWAP2 POP POP SWAP3 SWAP2 POP POP JUMP JUMPDEST PUSH0 PUSH1 0x20 DUP3 ADD SWAP1 POP DUP2 DUP2 SUB PUSH0 DUP4 ADD MSTORE PUSH2 0x1391 DUP2 DUP5 PUSH2 0x1341 JUMP JUMPDEST SWAP1 POP SWAP3 SWAP2 POP POP JUMP JUMPDEST PUSH0 DUP1 REVERT JUMPDEST PUSH0 DUP1 REVERT JUMPDEST PUSH0 DUP1 REVERT JUMPDEST PUSH0 DUP1 DUP4 CALLDATALOAD PUSH1 0x1 PUSH1 0x20 SUB DUP5 CALLDATASIZE SUB SUB DUP2 SLT PUSH2 0x13C1 JUMPI PUSH2 0x13C0 PUSH2 0x1399 JUMP JUMPDEST JUMPDEST DUP1 DUP5 ADD SWAP3 POP DUP3 CALLDATALOAD SWAP2 POP PUSH8 0xFFFFFFFFFFFFFFFF DUP3 GT ISZERO PUSH2 0x13E3 JUMPI PUSH2 0x13E2 PUSH2 0x139D JUMP JUMPDEST JUMPDEST PUSH1 0x20 DUP4 ADD SWAP3 POP PUSH1 0x1 DUP3 MUL CALLDATASIZE SUB DUP4 SGT ISZERO PUSH2 0x13FF JUMPI PUSH2 0x13FE PUSH2 0x13A1 JUMP JUMPDEST JUMPDEST POP SWAP3 POP SWAP3 SWAP1 POP JUMP JUMPDEST PUSH0 DUP1 REVERT JUMPDEST PUSH0 DUP1 REVERT JUMPDEST PUSH0 DUP1 DUP6 DUP6 GT ISZERO PUSH2 0x1422 JUMPI PUSH2 0x1421 PUSH2 0x1407 JUMP JUMPDEST JUMPDEST DUP4 DUP7 GT ISZERO PUSH2 0x1433 JUMPI PUSH2 0x1432 PUSH2 0x140B JUMP JUMPDEST JUMPDEST PUSH1 0x1 DUP6 MUL DUP4 ADD SWAP2 POP DUP5 DUP7 SUB SWAP1 POP SWAP5 POP SWAP5 SWAP3 POP POP POP JUMP JUMPDEST PUSH0 DUP3 SWAP1 POP SWAP3 SWAP2 POP POP JUMP JUMPDEST PUSH0 DUP3 DUP3 SHL SWAP1 POP SWAP3 SWAP2 POP POP JUMP JUMPDEST PUSH0 PUSH2 0x146A DUP4 DUP4 PUSH2 0x1449 JUMP JUMPDEST DUP3 PUSH2 0x1475 DUP2 CALLDATALOAD PUSH2 0xFA6 JUMP JUMPDEST SWAP3 POP PUSH1 0x4 DUP3 LT ISZERO PUSH2 0x14B5 JUMPI PUSH2 0x14B0 PUSH32 0xFFFFFFFF00000000000000000000000000000000000000000000000000000000 DUP4 PUSH1 0x4 SUB PUSH1 0x8 MUL PUSH2 0x1453 JUMP JUMPDEST DUP4 AND SWAP3 POP JUMPDEST POP POP SWAP3 SWAP2 POP POP JUMP JUMPDEST PUSH0 PUSH1 0x40 DUP3 ADD SWAP1 POP PUSH2 0x14D0 PUSH0 DUP4 ADD DUP6 PUSH2 0xFD1 JUMP JUMPDEST PUSH2 0x14DD PUSH1 0x20 DUP4 ADD DUP5 PUSH2 0xFD1 JUMP JUMPDEST SWAP4 SWAP3 POP POP POP JUMP JUMPDEST PUSH0 DUP1 REVERT JUMPDEST PUSH32 0x4E487B7100000000000000000000000000000000000000000000000000000000 PUSH0 MSTORE PUSH1 0x41 PUSH1 0x4 MSTORE PUSH1 0x24 PUSH0 REVERT JUMPDEST PUSH2 0x151E DUP3 PUSH2 0x1331 JUMP JUMPDEST DUP2 ADD DUP2 DUP2 LT PUSH8 0xFFFFFFFFFFFFFFFF DUP3 GT OR ISZERO PUSH2 0x153D JUMPI PUSH2 0x153C PUSH2 0x14E8 JUMP JUMPDEST JUMPDEST DUP1 PUSH1 0x40 MSTORE POP POP POP JUMP JUMPDEST PUSH0 PUSH2 0x154F PUSH2 0xFF9 JUMP JUMPDEST SWAP1 POP PUSH2 0x155B DUP3 DUP3 PUSH2 0x1515 JUMP JUMPDEST SWAP2 SWAP1 POP JUMP JUMPDEST PUSH0 PUSH8 0xFFFFFFFFFFFFFFFF DUP3 GT ISZERO PUSH2 0x157A JUMPI PUSH2 0x1579 PUSH2 0x14E8 JUMP JUMPDEST JUMPDEST PUSH1 0x20 DUP3 MUL SWAP1 POP SWAP2 SWAP1 POP JUMP JUMPDEST PUSH0 DUP2 SWAP1 POP SWAP2 SWAP1 POP JUMP JUMPDEST PUSH2 0x1597 DUP2 PUSH2 0x1585 JUMP JUMPDEST DUP2 EQ PUSH2 0x15A1 JUMPI PUSH0 DUP1 REVERT JUMPDEST POP JUMP JUMPDEST PUSH0 DUP2 CALLDATALOAD SWAP1 POP PUSH2 0x15B2 DUP2 PUSH2 0x158E JUMP JUMPDEST SWAP3 SWAP2 POP POP JUMP JUMPDEST PUSH0 PUSH2 0x15CA PUSH2 0x15C5 DUP5 PUSH2 0x1560 JUMP JUMPDEST PUSH2 0x1546 JUMP JUMPDEST SWAP1 POP DUP1 PUSH1 0x20 DUP5 MUL DUP4 ADD DUP6 DUP2 GT ISZERO PUSH2 0x15E4 JUMPI PUSH2 0x15E3 PUSH2 0x10A4 JUMP JUMPDEST JUMPDEST DUP4 JUMPDEST DUP2 DUP2 LT ISZERO PUSH2 0x160D JUMPI DUP1 PUSH2 0x15F9 DUP9 DUP3 PUSH2 0x15A4 JUMP JUMPDEST DUP5 MSTORE PUSH1 0x20 DUP5 ADD SWAP4 POP POP PUSH1 0x20 DUP2 ADD SWAP1 POP PUSH2 0x15E6 JUMP JUMPDEST POP POP POP SWAP4 SWAP3 POP POP POP JUMP JUMPDEST PUSH0 DUP3 PUSH1 0x1F DUP4 ADD SLT PUSH2 0x162B JUMPI PUSH2 0x162A PUSH2 0x11F7 JUMP JUMPDEST JUMPDEST PUSH1 0x2 PUSH2 0x1638 DUP5 DUP3 DUP6 PUSH2 0x15B8 JUMP JUMPDEST SWAP2 POP POP SWAP3 SWAP2 POP POP JUMP JUMPDEST PUSH0 PUSH8 0xFFFFFFFFFFFFFFFF DUP3 GT ISZERO PUSH2 0x165B JUMPI PUSH2 0x165A PUSH2 0x14E8 JUMP JUMPDEST JUMPDEST PUSH1 0x20 DUP3 MUL SWAP1 POP SWAP2 SWAP1 POP JUMP JUMPDEST PUSH0 PUSH2 0x1678 PUSH2 0x1673 DUP5 PUSH2 0x1641 JUMP JUMPDEST PUSH2 0x1546 JUMP JUMPDEST SWAP1 POP DUP1 PUSH1 0x40 DUP5 MUL DUP4 ADD DUP6 DUP2 GT ISZERO PUSH2 0x1692 JUMPI PUSH2 0x1691 PUSH2 0x10A4 JUMP JUMPDEST JUMPDEST DUP4 JUMPDEST DUP2 DUP2 LT ISZERO PUSH2 0x16BB JUMPI DUP1 PUSH2 0x16A7 DUP9 DUP3 PUSH2 0x1617 JUMP JUMPDEST DUP5 MSTORE PUSH1 0x20 DUP5 ADD SWAP4 POP POP PUSH1 0x40 DUP2 ADD SWAP1 POP PUSH2 0x1694 JUMP JUMPDEST POP POP POP SWAP4 SWAP3 POP POP POP JUMP JUMPDEST PUSH0 DUP3 PUSH1 0x1F DUP4 ADD SLT PUSH2 0x16D9 JUMPI PUSH2 0x16D8 PUSH2 0x11F7 JUMP JUMPDEST JUMPDEST PUSH1 0x2 PUSH2 0x16E6 DUP5 DUP3 DUP6 PUSH2 0x1666 JUMP JUMPDEST SWAP2 POP POP SWAP3 SWAP2 POP POP JUMP JUMPDEST PUSH0 PUSH2 0x100 DUP3 DUP5 SUB SLT ISZERO PUSH2 0x1705 JUMPI PUSH2 0x1704 PUSH2 0x14E4 JUMP JUMPDEST JUMPDEST PUSH2 0x170F PUSH1 0x60 PUSH2 0x1546 JUMP JUMPDEST SWAP1 POP PUSH0 PUSH2 0x171E DUP5 DUP3 DUP6 ADD PUSH2 0x1617 JUMP JUMPDEST PUSH0 DUP4 ADD MSTORE POP PUSH1 0x40 PUSH2 0x1731 DUP5 DUP3 DUP6 ADD PUSH2 0x16C5 JUMP JUMPDEST PUSH1 0x20 DUP4 ADD MSTORE POP PUSH1 0xC0 PUSH2 0x1745 DUP5 DUP3 DUP6 ADD PUSH2 0x1617 JUMP JUMPDEST PUSH1 0x40 DUP4 ADD MSTORE POP SWAP3 SWAP2 POP POP JUMP JUMPDEST PUSH0 PUSH2 0x100 DUP3 DUP5 SUB SLT ISZERO PUSH2 0x1767 JUMPI PUSH2 0x1766 PUSH2 0x1002 JUMP JUMPDEST JUMPDEST PUSH0 PUSH2 0x1774 DUP5 DUP3 DUP6 ADD PUSH2 0x16EF JUMP JUMPDEST SWAP2 POP POP SWAP3 SWAP2 POP POP JUMP JUMPDEST PUSH0 PUSH1 0x2 SWAP1 POP SWAP2 SWAP1 POP JUMP JUMPDEST PUSH0 DUP2 SWAP1 POP SWAP3 SWAP2 POP POP JUMP JUMPDEST PUSH0 DUP2 SWAP1 POP SWAP2 SWAP1 POP JUMP JUMPDEST PUSH2 0x17A3 DUP2 PUSH2 0x1585 JUMP JUMPDEST DUP3 MSTORE POP POP JUMP JUMPDEST PUSH0 PUSH2 0x17B4 DUP4 DUP4 PUSH2 0x179A JUMP JUMPDEST PUSH1 0x20 DUP4 ADD SWAP1 POP SWAP3 SWAP2 POP POP JUMP JUMPDEST PUSH0 PUSH1 0x20 DUP3 ADD SWAP1 POP SWAP2 SWAP1 POP JUMP JUMPDEST PUSH2 0x17D5 DUP2 PUSH2 0x177D JUMP JUMPDEST PUSH2 0x17DF DUP2 DUP5 PUSH2 0x1787 JUMP JUMPDEST SWAP3 POP PUSH2 0x17EA DUP3 PUSH2 0x1791 JUMP JUMPDEST DUP1 PUSH0 JUMPDEST DUP4 DUP2 LT ISZERO PUSH2 0x181A JUMPI DUP2 MLOAD PUSH2 0x1801 DUP8 DUP3 PUSH2 0x17A9 JUMP JUMPDEST SWAP7 POP PUSH2 0x180C DUP4 PUSH2 0x17C0 JUMP JUMPDEST SWAP3 POP POP PUSH1 0x1 DUP2 ADD SWAP1 POP PUSH2 0x17ED JUMP JUMPDEST POP POP POP POP POP POP JUMP JUMPDEST PUSH0 PUSH1 0x2 SWAP1 POP SWAP2 SWAP1 POP JUMP JUMPDEST PUSH0 DUP2 SWAP1 POP SWAP3 SWAP2 POP POP JUMP JUMPDEST PUSH0 DUP2 SWAP1 POP SWAP2 SWAP1 POP JUMP JUMPDEST PUSH0 DUP2 SWAP1 POP SWAP3 SWAP2 POP POP JUMP JUMPDEST PUSH2 0x1852 DUP2 PUSH2 0x177D JUMP JUMPDEST PUSH2 0x185C DUP2 DUP5 PUSH2 0x183F JUMP JUMPDEST SWAP3 POP PUSH2 0x1867 DUP3 PUSH2 0x1791 JUMP JUMPDEST DUP1 PUSH0 JUMPDEST DUP4 DUP2 LT ISZERO PUSH2 0x1897 JUMPI DUP2 MLOAD PUSH2 0x187E DUP8 DUP3 PUSH2 0x17A9 JUMP JUMPDEST SWAP7 POP PUSH2 0x1889 DUP4 PUSH2 0x17C0 JUMP JUMPDEST SWAP3 POP POP PUSH1 0x1 DUP2 ADD SWAP1 POP PUSH2 0x186A JUMP JUMPDEST POP POP POP POP POP POP JUMP JUMPDEST PUSH0 PUSH2 0x18AA DUP4 DUP4 PUSH2 0x1849 JUMP JUMPDEST PUSH1 0x40 DUP4 ADD SWAP1 POP SWAP3 SWAP2 POP POP JUMP JUMPDEST PUSH0 PUSH1 0x20 DUP3 ADD SWAP1 POP SWAP2 SWAP1 POP JUMP JUMPDEST PUSH2 0x18CB DUP2 PUSH2 0x1822 JUMP JUMPDEST PUSH2 0x18D5 DUP2 DUP5 PUSH2 0x182C JUMP JUMPDEST SWAP3 POP PUSH2 0x18E0 DUP3 PUSH2 0x1836 JUMP JUMPDEST DUP1 PUSH0 JUMPDEST DUP4 DUP2 LT ISZERO PUSH2 0x1910 JUMPI DUP2 MLOAD PUSH2 0x18F7 DUP8 DUP3 PUSH2 0x189F JUMP JUMPDEST SWAP7 POP PUSH2 0x1902 DUP4 PUSH2 0x18B6 JUMP JUMPDEST SWAP3 POP POP PUSH1 0x1 DUP2 ADD SWAP1 POP PUSH2 0x18E3 JUMP JUMPDEST POP POP POP POP POP POP JUMP JUMPDEST PUSH0 PUSH1 0x5 SWAP1 POP SWAP2 SWAP1 POP JUMP JUMPDEST PUSH0 DUP2 SWAP1 POP SWAP3 SWAP2 POP POP JUMP JUMPDEST PUSH0 DUP2 SWAP1 POP SWAP2 SWAP1 POP JUMP JUMPDEST PUSH0 PUSH1 0x20 DUP3 ADD SWAP1 POP SWAP2 SWAP1 POP JUMP JUMPDEST PUSH2 0x194A DUP2 PUSH2 0x1918 JUMP JUMPDEST PUSH2 0x1954 DUP2 DUP5 PUSH2 0x1922 JUMP JUMPDEST SWAP3 POP PUSH2 0x195F DUP3 PUSH2 0x192C JUMP JUMPDEST DUP1 PUSH0 JUMPDEST DUP4 DUP2 LT ISZERO PUSH2 0x198F JUMPI DUP2 MLOAD PUSH2 0x1976 DUP8 DUP3 PUSH2 0x17A9 JUMP JUMPDEST SWAP7 POP PUSH2 0x1981 DUP4 PUSH2 0x1935 JUMP JUMPDEST SWAP3 POP POP PUSH1 0x1 DUP2 ADD SWAP1 POP PUSH2 0x1962 JUMP JUMPDEST POP POP POP POP POP POP JUMP JUMPDEST PUSH0 PUSH2 0x1A0 DUP3 ADD SWAP1 POP PUSH2 0x19AB PUSH0 DUP4 ADD DUP8 PUSH2 0x17CC JUMP JUMPDEST PUSH2 0x19B8 PUSH1 0x40 DUP4 ADD DUP7 PUSH2 0x18C2 JUMP JUMPDEST PUSH2 0x19C5 PUSH1 0xC0 DUP4 ADD DUP6 PUSH2 0x17CC JUMP JUMPDEST PUSH2 0x19D3 PUSH2 0x100 DUP4 ADD DUP5 PUSH2 0x1941 JUMP JUMPDEST SWAP6 SWAP5 POP POP POP POP POP JUMP JUMPDEST PUSH2 0x19E5 DUP2 PUSH2 0x1171 JUMP JUMPDEST DUP2 EQ PUSH2 0x19EF JUMPI PUSH0 DUP1 REVERT JUMPDEST POP JUMP JUMPDEST PUSH0 DUP2 MLOAD SWAP1 POP PUSH2 0x1A00 DUP2 PUSH2 0x19DC JUMP JUMPDEST SWAP3 SWAP2 POP POP JUMP JUMPDEST PUSH0 PUSH1 0x20 DUP3 DUP5 SUB SLT ISZERO PUSH2 0x1A1B JUMPI PUSH2 0x1A1A PUSH2 0x1002 JUMP JUMPDEST JUMPDEST PUSH0 PUSH2 0x1A28 DUP5 DUP3 DUP6 ADD PUSH2 0x19F2 JUMP JUMPDEST SWAP2 POP POP SWAP3 SWAP2 POP POP JUMP JUMPDEST PUSH32 0x4E487B7100000000000000000000000000000000000000000000000000000000 PUSH0 MSTORE PUSH1 0x21 PUSH1 0x4 MSTORE PUSH1 0x24 PUSH0 REVERT JUMPDEST PUSH0 DUP2 SWAP1 POP SWAP3 SWAP2 POP POP JUMP JUMPDEST PUSH32 0x72697363302E52656365697074436C61696D0000000000000000000000000000 PUSH0 DUP3 ADD MSTORE POP JUMP JUMPDEST PUSH0 PUSH2 0x1A9C PUSH1 0x12 DUP4 PUSH2 0x1A5E JUMP JUMPDEST SWAP2 POP PUSH2 0x1AA7 DUP3 PUSH2 0x1A68 JUMP JUMPDEST PUSH1 0x12 DUP3 ADD SWAP1 POP SWAP2 SWAP1 POP JUMP JUMPDEST PUSH0 PUSH2 0x1ABC DUP3 PUSH2 0x1A90 JUMP JUMPDEST SWAP2 POP DUP2 SWAP1 POP SWAP2 SWAP1 POP JUMP JUMPDEST PUSH0 DUP2 MLOAD SWAP1 POP PUSH2 0x1AD4 DUP2 PUSH2 0x1254 JUMP JUMPDEST SWAP3 SWAP2 POP POP JUMP JUMPDEST PUSH0 PUSH1 0x20 DUP3 DUP5 SUB SLT ISZERO PUSH2 0x1AEF JUMPI PUSH2 0x1AEE PUSH2 0x1002 JUMP JUMPDEST JUMPDEST PUSH0 PUSH2 0x1AFC DUP5 DUP3 DUP6 ADD PUSH2 0x1AC6 JUMP JUMPDEST SWAP2 POP POP SWAP3 SWAP2 POP POP JUMP JUMPDEST PUSH0 DUP2 SWAP1 POP SWAP2 SWAP1 POP JUMP JUMPDEST PUSH2 0x1B1F PUSH2 0x1B1A DUP3 PUSH2 0x1073 JUMP JUMPDEST PUSH2 0x1B05 JUMP JUMPDEST DUP3 MSTORE POP POP JUMP JUMPDEST PUSH0 PUSH4 0xFFFFFFFF DUP3 AND SWAP1 POP SWAP2 SWAP1 POP JUMP JUMPDEST PUSH0 DUP2 PUSH1 0xE0 SHL SWAP1 POP SWAP2 SWAP1 POP JUMP JUMPDEST PUSH0 PUSH2 0x1B4A DUP3 PUSH2 0x1B34 JUMP JUMPDEST SWAP1 POP SWAP2 SWAP1 POP JUMP JUMPDEST PUSH2 0x1B62 PUSH2 0x1B5D DUP3 PUSH2 0x1B25 JUMP JUMPDEST PUSH2 0x1B40 JUMP JUMPDEST DUP3 MSTORE POP POP JUMP JUMPDEST PUSH0 PUSH2 0xFFFF DUP3 AND SWAP1 POP SWAP2 SWAP1 POP JUMP JUMPDEST PUSH0 DUP2 PUSH1 0xF0 SHL SWAP1 POP SWAP2 SWAP1 POP JUMP JUMPDEST PUSH0 PUSH2 0x1B8B DUP3 PUSH2 0x1B75 JUMP JUMPDEST SWAP1 POP SWAP2 SWAP1 POP JUMP JUMPDEST PUSH2 0x1BA3 PUSH2 0x1B9E DUP3 PUSH2 0x1B68 JUMP JUMPDEST PUSH2 0x1B81 JUMP JUMPDEST DUP3 MSTORE POP POP JUMP JUMPDEST PUSH0 PUSH2 0x1BB4 DUP3 DUP12 PUSH2 0x1B0E JUMP JUMPDEST PUSH1 0x20 DUP3 ADD SWAP2 POP PUSH2 0x1BC4 DUP3 DUP11 PUSH2 0x1B0E JUMP JUMPDEST PUSH1 0x20 DUP3 ADD SWAP2 POP PUSH2 0x1BD4 DUP3 DUP10 PUSH2 0x1B0E JUMP JUMPDEST PUSH1 0x20 DUP3 ADD SWAP2 POP PUSH2 0x1BE4 DUP3 DUP9 PUSH2 0x1B0E JUMP JUMPDEST PUSH1 0x20 DUP3 ADD SWAP2 POP PUSH2 0x1BF4 DUP3 DUP8 PUSH2 0x1B0E JUMP JUMPDEST PUSH1 0x20 DUP3 ADD SWAP2 POP PUSH2 0x1C04 DUP3 DUP7 PUSH2 0x1B51 JUMP JUMPDEST PUSH1 0x4 DUP3 ADD SWAP2 POP PUSH2 0x1C14 DUP3 DUP6 PUSH2 0x1B51 JUMP JUMPDEST PUSH1 0x4 DUP3 ADD SWAP2 POP PUSH2 0x1C24 DUP3 DUP5 PUSH2 0x1B92 JUMP JUMPDEST PUSH1 0x2 DUP3 ADD SWAP2 POP DUP2 SWAP1 POP SWAP10 SWAP9 POP POP POP POP POP POP POP POP POP JUMP JUMPDEST PUSH0 DUP2 MLOAD SWAP1 POP SWAP2 SWAP1 POP JUMP JUMPDEST PUSH0 PUSH2 0x1C4E DUP3 PUSH2 0x1C3A JUMP JUMPDEST PUSH2 0x1C58 DUP2 DUP6 PUSH2 0x1A5E JUMP JUMPDEST SWAP4 POP PUSH2 0x1C68 DUP2 DUP6 PUSH1 0x20 DUP7 ADD PUSH2 0x1309 JUMP JUMPDEST DUP1 DUP5 ADD SWAP2 POP POP SWAP3 SWAP2 POP POP JUMP JUMPDEST PUSH0 PUSH2 0x1C7F DUP3 DUP5 PUSH2 0x1C44 JUMP JUMPDEST SWAP2 POP DUP2 SWAP1 POP SWAP3 SWAP2 POP POP JUMP JUMPDEST PUSH32 0x72697363302E4F75747075740000000000000000000000000000000000000000 PUSH0 DUP3 ADD MSTORE POP JUMP JUMPDEST PUSH0 PUSH2 0x1CBE PUSH1 0xC DUP4 PUSH2 0x1A5E JUMP JUMPDEST SWAP2 POP PUSH2 0x1CC9 DUP3 PUSH2 0x1C8A JUMP JUMPDEST PUSH1 0xC DUP3 ADD SWAP1 POP SWAP2 SWAP1 POP JUMP JUMPDEST PUSH0 PUSH2 0x1CDE DUP3 PUSH2 0x1CB2 JUMP JUMPDEST SWAP2 POP DUP2 SWAP1 POP SWAP2 SWAP1 POP JUMP JUMPDEST PUSH0 PUSH2 0x1CF3 DUP3 DUP8 PUSH2 0x1B0E JUMP JUMPDEST PUSH1 0x20 DUP3 ADD SWAP2 POP PUSH2 0x1D03 DUP3 DUP7 PUSH2 0x1B0E JUMP JUMPDEST PUSH1 0x20 DUP3 ADD SWAP2 POP PUSH2 0x1D13 DUP3 DUP6 PUSH2 0x1B0E JUMP JUMPDEST PUSH1 0x20 DUP3 ADD SWAP2 POP PUSH2 0x1D23 DUP3 DUP5 PUSH2 0x1B92 JUMP JUMPDEST PUSH1 0x2 DUP3 ADD SWAP2 POP DUP2 SWAP1 POP SWAP6 SWAP5 POP POP POP POP POP JUMP INVALID LOG2 PUSH5 0x6970667358 0x22 SLT KECCAK256 0xC8 ADD DUP1 SHL 0x5D LT PUSH16 0x4E576670FC979AB19437AD73CB6D8B6D CODECOPY 0xB2 ISZERO 0xA8 PUSH21 0x2CA52DB64736F6C63430008140033000000000000 "
				},
				"gasEstimates": {
					"creation": {
						"codeDepositCost": "1506200",
						"executionCost": "infinite",
						"totalCost": "infinite"
					},
					"external": {
						"BN254_CONTROL_ID()": "infinite",
						"CONTROL_ROOT_0()": "infinite",
						"CONTROL_ROOT_1()": "infinite",
						"SELECTOR()": "infinite",
						"VERSION()": "infinite",
						"verify(bytes,bytes32,bytes32)": "infinite",
						"verifyIntegrity((bytes,bytes32))": "infinite",
						"verifyProof(uint256[2],uint256[2][2],uint256[2],uint256[5])": "infinite"
					},
					"internal": {
						"_verifyIntegrity(bytes calldata,bytes32)": "infinite",
						"splitDigest(bytes32)": "326",
						"verifier_key_digest()": "infinite"
					}
				},
				"methodIdentifiers": {
					"BN254_CONTROL_ID()": "258038e2",
					"CONTROL_ROOT_0()": "9181e4b1",
					"CONTROL_ROOT_1()": "8989fa2e",
					"SELECTOR()": "053c238d",
					"VERSION()": "ffa1ad74",
					"verify(bytes,bytes32,bytes32)": "ab750e75",
					"verifyIntegrity((bytes,bytes32))": "1599ead5",
					"verifyProof(uint256[2],uint256[2][2],uint256[2],uint256[5])": "34baeab9"
				}
			},
			"storageLayout": {
				"storage": [],
				"types": null
			},
			"userdoc": {
				"errors": {
					"SelectorMismatch(bytes4,bytes4)": [
						{
							"notice": "Error raised when this verifier receives a receipt with a selector that does not match         its own. The selector value is calculated from the verifier parameters, and so this         usually indicates a mismatch between the version of the prover and this verifier."
						}
					],
					"VerificationFailed()": [
						{
							"notice": "Error raised when cryptographic verification of the zero-knowledge proof fails."
						}
					]
				},
				"kind": "user",
				"methods": {
					"CONTROL_ROOT_0()": {
						"notice": "Control root hash binding the set of circuits in the RISC Zero system."
					},
					"SELECTOR()": {
						"notice": "A short key attached to the seal to select the correct verifier implementation."
					},
					"VERSION()": {
						"notice": "Semantic version of the the RISC Zero system of which this contract is part."
					},
					"verify(bytes,bytes32,bytes32)": {
						"notice": "Verify that the given seal is a valid RISC Zero proof of execution with the     given image ID and journal digest. Reverts on failure."
					},
					"verifyIntegrity((bytes,bytes32))": {
						"notice": "Verify that the given receipt is a valid RISC Zero receipt, ensuring the `seal` is valid a cryptographic proof of the execution with the given `claim`. Reverts on failure."
					}
				},
				"notice": "Groth16 verifier contract for RISC Zero receipts of execution.",
				"version": 1
			}
		}
	}
}