{
	"data": {
		"bytecode": {
			"linkReferences": {},
			"object": "60806040525f60055f6101000a81548167ffffffffffffffff021916908367ffffffffffffffff1602179055505f600c5f6101000a81548167ffffffffffffffff021916908367ffffffffffffffff16021790555034801562000060575f80fd5b506040516200447d3803806200447d833981810160405281019062000086919062000824565b825f73ffffffffffffffffffffffffffffffffffffffff168173ffffffffffffffffffffffffffffffffffffffff1603620000fa575f6040517f1e4fbdf7000000000000000000000000000000000000000000000000000000008152600401620000f19190620008ec565b60405180910390fd5b6200010b816200035860201b60201c565b50600180819055505f73ffffffffffffffffffffffffffffffffffffffff168673ffffffffffffffffffffffffffffffffffffffff160362000179576040517f10c40e8c00000000000000000000000000000000000000000000000000000000815260040160405180910390fd5b5f73ffffffffffffffffffffffffffffffffffffffff168573ffffffffffffffffffffffffffffffffffffffff1603620001df576040517f1eb00b0600000000000000000000000000000000000000000000000000000000815260040160405180910390fd5b5f801b84036200021b576040517f0ac2b81600000000000000000000000000000000000000000000000000000000815260040160405180910390fd5b8560035f6101000a81548173ffffffffffffffffffffffffffffffffffffffff021916908373ffffffffffffffffffffffffffffffffffffffff1602179055508460025f6101000a81548173ffffffffffffffffffffffffffffffffffffffff021916908373ffffffffffffffffffffffffffffffffffffffff16021790555083600481905550816006819055505f5b81518110156200034b575f73ffffffffffffffffffffffffffffffffffffffff16828281518110620002e257620002e162000907565b5b602002602001015173ffffffffffffffffffffffffffffffffffffffff161462000335576200033482828151811062000320576200031f62000907565b5b60200260200101516200041960201b60201c565b5b808062000342906200096a565b915050620002ab565b5050505050505062000b67565b5f805f9054906101000a900473ffffffffffffffffffffffffffffffffffffffff169050815f806101000a81548173ffffffffffffffffffffffffffffffffffffffff021916908373ffffffffffffffffffffffffffffffffffffffff1602179055508173ffffffffffffffffffffffffffffffffffffffff168173ffffffffffffffffffffffffffffffffffffffff167f8be0079c531659141344cd1fd0a4f28419497f9722a3daafe3b4186f6b6457e060405160405180910390a35050565b5f73ffffffffffffffffffffffffffffffffffffffff168173ffffffffffffffffffffffffffffffffffffffff16036200048a576040517f08c379a0000000000000000000000000000000000000000000000000000000008152600401620004819062000a14565b60405180910390fd5b60025f9054906101000a900473ffffffffffffffffffffffffffffffffffffffff1673ffffffffffffffffffffffffffffffffffffffff168173ffffffffffffffffffffffffffffffffffffffff16036200051c576040517f08c379a0000000000000000000000000000000000000000000000000000000008152600401620005139062000a82565b60405180910390fd5b5f8173ffffffffffffffffffffffffffffffffffffffff163b1162000578576040517f08c379a00000000000000000000000000000000000000000000000000000000081526004016200056f9062000af0565b60405180910390fd5b600160085f8373ffffffffffffffffffffffffffffffffffffffff1673ffffffffffffffffffffffffffffffffffffffff1681526020019081526020015f205f6101000a81548160ff0219169083151502179055507ffcc700e01dfba1d69e020718052f56a2d2f5a9a37af6fae0f41d6d9a691912198160015f604051620006039392919062000b2c565b60405180910390a150565b5f604051905090565b5f80fd5b5f80fd5b5f73ffffffffffffffffffffffffffffffffffffffff82169050919050565b5f6200064a826200061f565b9050919050565b6200065c816200063e565b811462000667575f80fd5b50565b5f815190506200067a8162000651565b92915050565b5f819050919050565b620006948162000680565b81146200069f575f80fd5b50565b5f81519050620006b28162000689565b92915050565b5f80fd5b5f601f19601f8301169050919050565b7f4e487b71000000000000000000000000000000000000000000000000000000005f52604160045260245ffd5b6200070482620006bc565b810181811067ffffffffffffffff82111715620007265762000725620006cc565b5b80604052505050565b5f6200073a6200060e565b9050620007488282620006f9565b919050565b5f67ffffffffffffffff8211156200076a5762000769620006cc565b5b602082029050602081019050919050565b5f80fd5b5f620007956200078f846200074d565b6200072f565b90508083825260208201905060208402830185811115620007bb57620007ba6200077b565b5b835b81811015620007e85780620007d388826200066a565b845260208401935050602081019050620007bd565b5050509392505050565b5f82601f830112620008095762000808620006b8565b5b81516200081b8482602086016200077f565b91505092915050565b5f805f805f8060c0878903121562000841576200084062000617565b5b5f6200085089828a016200066a565b96505060206200086389828a016200066a565b95505060406200087689828a01620006a2565b94505060606200088989828a016200066a565b93505060806200089c89828a01620006a2565b92505060a087015167ffffffffffffffff811115620008c057620008bf6200061b565b5b620008ce89828a01620007f2565b9150509295509295509295565b620008e6816200063e565b82525050565b5f602082019050620009015f830184620008db565b92915050565b7f4e487b71000000000000000000000000000000000000000000000000000000005f52603260045260245ffd5b7f4e487b71000000000000000000000000000000000000000000000000000000005f52601160045260245ffd5b5f819050919050565b5f620009768262000961565b91507fffffffffffffffffffffffffffffffffffffffffffffffffffffffffffffffff8203620009ab57620009aa62000934565b5b600182019050919050565b5f82825260208201905092915050565b7f496e76616c696420746f6b656e206164647265737300000000000000000000005f82015250565b5f620009fc601583620009b6565b915062000a0982620009c6565b602082019050919050565b5f6020820190508181035f83015262000a2d81620009ee565b9050919050565b7f43616e6e6f74206d6f64696679206e617469766520746f6b656e0000000000005f82015250565b5f62000a6a601a83620009b6565b915062000a778262000a34565b602082019050919050565b5f6020820190508181035f83015262000a9b8162000a5c565b9050919050565b7f4e6f74206120636f6e74726163740000000000000000000000000000000000005f82015250565b5f62000ad8600e83620009b6565b915062000ae58262000aa2565b602082019050919050565b5f6020820190508181035f83015262000b098162000aca565b9050919050565b5f8115159050919050565b62000b268162000b10565b82525050565b5f60608201905062000b415f830186620008db565b62000b50602083018562000b1b565b62000b5f604083018462000b1b565b949350505050565b6139088062000b755f395ff3fe608060405234801561000f575f80fd5b50600436106101a7575f3560e01c806387c16d4f116100f7578063bbcd5bbe11610095578063da1bb7931161006f578063da1bb79314610495578063dcac07db146104b1578063e7741137146104cf578063f2fde38b146104eb576101a7565b8063bbcd5bbe1461042d578063c4b75f1614610449578063d7d1d52014610479576101a7565b80638f965b99116100d15780638f965b99146103bb578063901129c2146103d957806395ccea67146103f5578063aab8ab0c14610411576101a7565b806387c16d4f1461034e5780638d0064381461036a5780638da5cb5b1461039d576101a7565b8063549206ed116101645780636d69fcaf1161013e5780636d69fcaf146102ec578063715018a614610308578063743ae7ad14610312578063849a158614610330576101a7565b8063549206ed1461026e57806358e09bdd1461028c57806368c4ac26146102bc576101a7565b8063078d3b79146101ab57806307f8e853146101c757806323cb7b35146101e55780632ba8d939146102185780633a5abead146102345780635437988d14610252575b5f80fd5b6101c560048036038101906101c0919061283b565b610507565b005b6101cf610a52565b6040516101dc91906128ad565b60405180910390f35b6101ff60048036038101906101fa91906128f0565b610a6b565b60405161020f9493929190612954565b60405180910390f35b610232600480360381019061022d9190612997565b610b04565b005b61023c610c73565b6040516102499190612a1d565b60405180910390f35b61026c60048036038101906102679190612997565b610c98565b005b610276610d9a565b6040516102839190612a4e565b60405180910390f35b6102a660048036038101906102a19190612997565b610da0565b6040516102b39190612a81565b60405180910390f35b6102d660048036038101906102d19190612997565b610dbd565b6040516102e39190612a81565b60405180910390f35b61030660048036038101906103019190612997565b610dda565b005b610310610de6565b005b61031a610df9565b6040516103279190612a4e565b60405180910390f35b610338610dff565b6040516103459190612aba565b60405180910390f35b61036860048036038101906103639190612b34565b610e24565b005b610384600480360381019061037f91906128f0565b611035565b6040516103949493929190612bc1565b60405180910390f35b6103a56110b2565b6040516103b29190612c04565b60405180910390f35b6103c36110d9565b6040516103d091906128ad565b60405180910390f35b6103f360048036038101906103ee9190612c47565b6110f5565b005b61040f600480360381019061040a9190612c72565b61113a565b005b61042b600480360381019061042691906128f0565b6111fc565b005b61044760048036038101906104429190612997565b6116f5565b005b610463600480360381019061045e91906128f0565b6117f7565b6040516104709190612a81565b60405180910390f35b610493600480360381019061048e9190612c47565b611831565b005b6104af60048036038101906104aa9190612cb0565b61183b565b005b6104b9611a4e565b6040516104c691906128ad565b60405180910390f35b6104e960048036038101906104e49190612d8a565b611a67565b005b61050560048036038101906105009190612997565b611b84565b005b61050f611c08565b5f8103610548576040517f1f2a200500000000000000000000000000000000000000000000000000000000815260040160405180910390fd5b5f73ffffffffffffffffffffffffffffffffffffffff168373ffffffffffffffffffffffffffffffffffffffff16036105ad576040517f5566df5c00000000000000000000000000000000000000000000000000000000815260040160405180910390fd5b5f60055f81819054906101000a900467ffffffffffffffff166105cf90612df5565b91906101000a81548167ffffffffffffffff021916908367ffffffffffffffff160217905590505f73ffffffffffffffffffffffffffffffffffffffff168373ffffffffffffffffffffffffffffffffffffffff16036106b75760025f9054906101000a900473ffffffffffffffffffffffffffffffffffffffff1673ffffffffffffffffffffffffffffffffffffffff166379cc679033846040518363ffffffff1660e01b8152600401610685929190612e24565b5f604051808303815f87803b15801561069c575f80fd5b505af11580156106ae573d5f803e3d5ffd5b505050506108bb565b60085f8473ffffffffffffffffffffffffffffffffffffffff1673ffffffffffffffffffffffffffffffffffffffff1681526020019081526020015f205f9054906101000a900460ff16610737576040517f6a17288200000000000000000000000000000000000000000000000000000000815260040160405180910390fd5b60095f8473ffffffffffffffffffffffffffffffffffffffff1673ffffffffffffffffffffffffffffffffffffffff1681526020019081526020015f205f9054906101000a900460ff16156107c357826040517f1fac2d780000000000000000000000000000000000000000000000000000000081526004016107ba9190612c04565b60405180910390fd5b5f8390505f8173ffffffffffffffffffffffffffffffffffffffff1663dd62ed3e33306040518363ffffffff1660e01b8152600401610803929190612e4b565b602060405180830381865afa15801561081e573d5f803e3d5ffd5b505050506040513d601f19601f820116820180604052508101906108429190612e86565b90508381101561088b5780846040517f2a1b2dd8000000000000000000000000000000000000000000000000000000008152600401610882929190612eb1565b60405180910390fd5b6108b83330868573ffffffffffffffffffffffffffffffffffffffff16611c4e909392919063ffffffff16565b50505b60405180608001604052808573ffffffffffffffffffffffffffffffffffffffff1681526020018473ffffffffffffffffffffffffffffffffffffffff1681526020018381526020018267ffffffffffffffff16815250600d5f8367ffffffffffffffff1667ffffffffffffffff1681526020019081526020015f205f820151815f015f6101000a81548173ffffffffffffffffffffffffffffffffffffffff021916908373ffffffffffffffffffffffffffffffffffffffff1602179055506020820151816001015f6101000a81548173ffffffffffffffffffffffffffffffffffffffff021916908373ffffffffffffffffffffffffffffffffffffffff160217905550604082015181600201556060820151816003015f6101000a81548167ffffffffffffffff021916908367ffffffffffffffff1602179055509050508067ffffffffffffffff167f666763f91f5d72cf0042eed6507b970a82544c60c6f93daf652ae7d0dcfd4f0733868686604051610a3c9493929190612ed8565b60405180910390a250610a4d611cd0565b505050565b60055f9054906101000a900467ffffffffffffffff1681565b600e602052805f5260405f205f91509050805f015f9054906101000a900473ffffffffffffffffffffffffffffffffffffffff1690806001015f9054906101000a900473ffffffffffffffffffffffffffffffffffffffff1690806002015f9054906101000a90046fffffffffffffffffffffffffffffffff16908060020160109054906101000a900467ffffffffffffffff16905084565b60085f8273ffffffffffffffffffffffffffffffffffffffff1673ffffffffffffffffffffffffffffffffffffffff1681526020019081526020015f205f9054906101000a900460ff16610b8d576040517f08c379a0000000000000000000000000000000000000000000000000000000008152600401610b8490612f75565b60405180910390fd5b5f60085f8373ffffffffffffffffffffffffffffffffffffffff1673ffffffffffffffffffffffffffffffffffffffff1681526020019081526020015f205f6101000a81548160ff0219169083151502179055505f60095f8373ffffffffffffffffffffffffffffffffffffffff1673ffffffffffffffffffffffffffffffffffffffff1681526020019081526020015f205f6101000a81548160ff0219169083151502179055507ffcc700e01dfba1d69e020718052f56a2d2f5a9a37af6fae0f41d6d9a69191219815f80604051610c6893929190612f93565b60405180910390a150565b60025f9054906101000a900473ffffffffffffffffffffffffffffffffffffffff1681565b5f73ffffffffffffffffffffffffffffffffffffffff168173ffffffffffffffffffffffffffffffffffffffff1603610cfd576040517f10c40e8c00000000000000000000000000000000000000000000000000000000815260040160405180910390fd5b7f0ddda8be1021ab00f63727c5c5504ad96b163269770a3fe8ac3dd0bcb40208df60035f9054906101000a900473ffffffffffffffffffffffffffffffffffffffff1682604051610d4f929190612e4b565b60405180910390a18060035f6101000a81548173ffffffffffffffffffffffffffffffffffffffff021916908373ffffffffffffffffffffffffffffffffffffffff16021790555050565b60045481565b6009602052805f5260405f205f915054906101000a900460ff1681565b6008602052805f5260405f205f915054906101000a900460ff1681565b610de381611cd9565b50565b610dee611ec3565b610df75f611f4a565b565b60065481565b60035f9054906101000a900473ffffffffffffffffffffffffffffffffffffffff1681565b610e2c611c08565b60035f9054906101000a900473ffffffffffffffffffffffffffffffffffffffff1673ffffffffffffffffffffffffffffffffffffffff1663092c15bc858560045486866040518663ffffffff1660e01b8152600401610e90959493929190613022565b5f6040518083038186803b158015610ea6575f80fd5b505afa925050508015610eb7575060015b610f9357610ec3613075565b806308c379a003610f225750610ed76130f2565b80610ee25750610f24565b6004547f1b274bac0e8bb49d3ad90709790a3bf2aa1b86313b4c1a7ae5af9cb7832f720482604051610f1491906131eb565b60405180910390a250610f8e565b505b3d805f8114610f4e576040519150601f19603f3d011682016040523d82523d5f602084013e610f53565b606091505b506004547f1b274bac0e8bb49d3ad90709790a3bf2aa1b86313b4c1a7ae5af9cb7832f7204604051610f8490613255565b60405180910390a2505b611027565b610f9d828261200b565b6004547f2a0cba4a87b6aee1ae5ce93610a04b1f87dd14b381544e4c6c9e336a1b42d60360028484604051610fd39291906132a1565b602060405180830381855afa158015610fee573d5f803e3d5ffd5b5050506040513d601f19601f8201168201806040525081019061101191906132cd565b60405161101e9190612a4e565b60405180910390a25b61102f611cd0565b50505050565b600d602052805f5260405f205f91509050805f015f9054906101000a900473ffffffffffffffffffffffffffffffffffffffff1690806001015f9054906101000a900473ffffffffffffffffffffffffffffffffffffffff1690806002015490806003015f9054906101000a900467ffffffffffffffff16905084565b5f805f9054906101000a900473ffffffffffffffffffffffffffffffffffffffff16905090565b5f600c5f9054906101000a900467ffffffffffffffff16905090565b5f801b8103611130576040517f0ac2b81600000000000000000000000000000000000000000000000000000000815260040160405180910390fd5b8060048190555050565b611142611ec3565b5f73ffffffffffffffffffffffffffffffffffffffff168273ffffffffffffffffffffffffffffffffffffffff16036111c55761117d6110b2565b73ffffffffffffffffffffffffffffffffffffffff166108fc8290811502906040515f60405180830381858888f193505050501580156111bf573d5f803e3d5ffd5b506111f8565b6111f76111d06110b2565b828473ffffffffffffffffffffffffffffffffffffffff1661267c9092919063ffffffff16565b5b5050565b611204611c08565b5f600e5f8367ffffffffffffffff1667ffffffffffffffff1681526020019081526020015f2090505f8160020160109054906101000a900467ffffffffffffffff1667ffffffffffffffff16148061128b5750600a5f8367ffffffffffffffff1667ffffffffffffffff1681526020019081526020015f205f9054906101000a900460ff16155b156112c2576040517f9aecf11200000000000000000000000000000000000000000000000000000000815260040160405180910390fd5b600b5f8367ffffffffffffffff1667ffffffffffffffff1681526020019081526020015f205f9054906101000a900460ff161561132b576040517f247ff34500000000000000000000000000000000000000000000000000000000815260040160405180910390fd5b5f816002015f9054906101000a90046fffffffffffffffffffffffffffffffff1690505f826001015f9054906101000a900473ffffffffffffffffffffffffffffffffffffffff1690505f73ffffffffffffffffffffffffffffffffffffffff168173ffffffffffffffffffffffffffffffffffffffff16036114585760025f9054906101000a900473ffffffffffffffffffffffffffffffffffffffff1673ffffffffffffffffffffffffffffffffffffffff166340c10f19845f015f9054906101000a900473ffffffffffffffffffffffffffffffffffffffff16846040518363ffffffff1660e01b8152600401611426929190613328565b5f604051808303815f87803b15801561143d575f80fd5b505af115801561144f573d5f803e3d5ffd5b5050505061161d565b60085f8273ffffffffffffffffffffffffffffffffffffffff1673ffffffffffffffffffffffffffffffffffffffff1681526020019081526020015f205f9054906101000a900460ff166114d8576040517f6a17288200000000000000000000000000000000000000000000000000000000815260040160405180910390fd5b60095f8273ffffffffffffffffffffffffffffffffffffffff1673ffffffffffffffffffffffffffffffffffffffff1681526020019081526020015f205f9054906101000a900460ff161561156457806040517f1fac2d7800000000000000000000000000000000000000000000000000000000815260040161155b9190612c04565b60405180910390fd5b5f8173ffffffffffffffffffffffffffffffffffffffff163b116115bd576040517f08c379a00000000000000000000000000000000000000000000000000000000081526004016115b490613399565b60405180910390fd5b61161c835f015f9054906101000a900473ffffffffffffffffffffffffffffffffffffffff16836fffffffffffffffffffffffffffffffff168373ffffffffffffffffffffffffffffffffffffffff1661267c9092919063ffffffff16565b5b6001600b5f8667ffffffffffffffff1667ffffffffffffffff1681526020019081526020015f205f6101000a81548160ff0219169083151502179055508367ffffffffffffffff167f0178aeb03a9e919223a68859be2922c17fb6fa05b5dbf80e3fe785ea3eed83c4845f015f9054906101000a900473ffffffffffffffffffffffffffffffffffffffff16856001015f9054906101000a900473ffffffffffffffffffffffffffffffffffffffff1685426040516116df94939291906133b7565b60405180910390a25050506116f2611cd0565b50565b5f73ffffffffffffffffffffffffffffffffffffffff168173ffffffffffffffffffffffffffffffffffffffff160361175a576040517f1eb00b0600000000000000000000000000000000000000000000000000000000815260040160405180910390fd5b7f77eb83e5a99d4c074eb700f13ac00ff604c6325fe03fc8720fa7ae2b5909387d60025f9054906101000a900473ffffffffffffffffffffffffffffffffffffffff16826040516117ac929190612e4b565b60405180910390a18060025f6101000a81548173ffffffffffffffffffffffffffffffffffffffff021916908373ffffffffffffffffffffffffffffffffffffffff16021790555050565b5f600b5f8367ffffffffffffffff1667ffffffffffffffff1681526020019081526020015f205f9054906101000a900460ff169050919050565b8060068190555050565b611843611c08565b60035f9054906101000a900473ffffffffffffffffffffffffffffffffffffffff1673ffffffffffffffffffffffffffffffffffffffff1663092c15bc878760045488886040518663ffffffff1660e01b81526004016118a7959493929190613022565b5f6040518083038186803b1580156118bd575f80fd5b505afa9250505080156118ce575060015b6119aa576118da613075565b806308c379a00361193957506118ee6130f2565b806118f9575061193b565b6004547f1b274bac0e8bb49d3ad90709790a3bf2aa1b86313b4c1a7ae5af9cb7832f72048260405161192b91906131eb565b60405180910390a2506119a5565b505b3d805f8114611965576040519150601f19603f3d011682016040523d82523d5f602084013e61196a565b606091505b506004547f1b274bac0e8bb49d3ad90709790a3bf2aa1b86313b4c1a7ae5af9cb7832f720460405161199b90613255565b60405180910390a2505b611a3e565b6119b4828261200b565b6004547f2a0cba4a87b6aee1ae5ce93610a04b1f87dd14b381544e4c6c9e336a1b42d603600286866040516119ea9291906132a1565b602060405180830381855afa158015611a05573d5f803e3d5ffd5b5050506040513d601f19601f82011682018060405250810190611a2891906132cd565b604051611a359190612a4e565b60405180910390a25b611a46611cd0565b505050505050565b60075f9054906101000a900467ffffffffffffffff1681565b60085f8373ffffffffffffffffffffffffffffffffffffffff1673ffffffffffffffffffffffffffffffffffffffff1681526020019081526020015f205f9054906101000a900460ff16611af0576040517f08c379a0000000000000000000000000000000000000000000000000000000008152600401611ae790612f75565b60405180910390fd5b8060095f8473ffffffffffffffffffffffffffffffffffffffff1673ffffffffffffffffffffffffffffffffffffffff1681526020019081526020015f205f6101000a81548160ff0219169083151502179055507ffcc700e01dfba1d69e020718052f56a2d2f5a9a37af6fae0f41d6d9a6919121982600183604051611b7893929190612f93565b60405180910390a15050565b611b8c611ec3565b5f73ffffffffffffffffffffffffffffffffffffffff168173ffffffffffffffffffffffffffffffffffffffff1603611bfc575f6040517f1e4fbdf7000000000000000000000000000000000000000000000000000000008152600401611bf39190612c04565b60405180910390fd5b611c0581611f4a565b50565b600260015403611c44576040517f3ee5aeb500000000000000000000000000000000000000000000000000000000815260040160405180910390fd5b6002600181905550565b611cca848573ffffffffffffffffffffffffffffffffffffffff166323b872dd868686604051602401611c83939291906133fa565b604051602081830303815290604052915060e01b6020820180517bffffffffffffffffffffffffffffffffffffffffffffffffffffffff83818316178352505050506126fb565b50505050565b60018081905550565b5f73ffffffffffffffffffffffffffffffffffffffff168173ffffffffffffffffffffffffffffffffffffffff1603611d47576040517f08c379a0000000000000000000000000000000000000000000000000000000008152600401611d3e90613479565b60405180910390fd5b60025f9054906101000a900473ffffffffffffffffffffffffffffffffffffffff1673ffffffffffffffffffffffffffffffffffffffff168173ffffffffffffffffffffffffffffffffffffffff1603611dd6576040517f08c379a0000000000000000000000000000000000000000000000000000000008152600401611dcd906134e1565b60405180910390fd5b5f8173ffffffffffffffffffffffffffffffffffffffff163b11611e2f576040517f08c379a0000000000000000000000000000000000000000000000000000000008152600401611e2690613549565b60405180910390fd5b600160085f8373ffffffffffffffffffffffffffffffffffffffff1673ffffffffffffffffffffffffffffffffffffffff1681526020019081526020015f205f6101000a81548160ff0219169083151502179055507ffcc700e01dfba1d69e020718052f56a2d2f5a9a37af6fae0f41d6d9a691912198160015f604051611eb893929190612f93565b60405180910390a150565b611ecb612796565b73ffffffffffffffffffffffffffffffffffffffff16611ee96110b2565b73ffffffffffffffffffffffffffffffffffffffff1614611f4857611f0c612796565b6040517f118cdaa7000000000000000000000000000000000000000000000000000000008152600401611f3f9190612c04565b60405180910390fd5b565b5f805f9054906101000a900473ffffffffffffffffffffffffffffffffffffffff169050815f806101000a81548173ffffffffffffffffffffffffffffffffffffffff021916908373ffffffffffffffffffffffffffffffffffffffff1602179055508173ffffffffffffffffffffffffffffffffffffffff168173ffffffffffffffffffffffffffffffffffffffff167f8be0079c531659141344cd1fd0a4f28419497f9722a3daafe3b4186f6b6457e060405160405180910390a35050565b5f805f848481019061201d9190613786565b9250925092506020835114158061203657506020815114155b1561206d576040517f6f7b6c0300000000000000000000000000000000000000000000000000000000815260040160405180910390fd5b5f8380602001905181019061208291906132cd565b90505f8280602001905181019061209991906132cd565b905060065481036120d6576040517fe2b1f19400000000000000000000000000000000000000000000000000000000815260040160405180910390fd5b5f801b81141580156120ea57506006548214155b15612121576040517f8405b42d00000000000000000000000000000000000000000000000000000000815260040160405180910390fd5b5f845190505f811115612632575f60075f9054906101000a900467ffffffffffffffff1690505f5b82811015612607575f8782815181106121655761216461382a565b5b602002602001015190505f816060015190505f825f015190505f836040015190505f8460200151905060018761219b9190613857565b67ffffffffffffffff168467ffffffffffffffff1614612200576001876121c29190613857565b846040517fe0e017920000000000000000000000000000000000000000000000000000000081526004016121f7929190613892565b60405180910390fd5b8396505f73ffffffffffffffffffffffffffffffffffffffff168173ffffffffffffffffffffffffffffffffffffffff161461239c5760085f8273ffffffffffffffffffffffffffffffffffffffff1673ffffffffffffffffffffffffffffffffffffffff1681526020019081526020015f205f9054906101000a900460ff166122b6576040517f6a17288200000000000000000000000000000000000000000000000000000000815260040160405180910390fd5b60095f8273ffffffffffffffffffffffffffffffffffffffff1673ffffffffffffffffffffffffffffffffffffffff1681526020019081526020015f205f9054906101000a900460ff161561234257806040517f1fac2d780000000000000000000000000000000000000000000000000000000081526004016123399190612c04565b60405180910390fd5b5f8173ffffffffffffffffffffffffffffffffffffffff163b1161239b576040517f08c379a000000000000000000000000000000000000000000000000000000000815260040161239290613399565b60405180910390fd5b5b60405180608001604052808473ffffffffffffffffffffffffffffffffffffffff1681526020018273ffffffffffffffffffffffffffffffffffffffff168152602001836fffffffffffffffffffffffffffffffff1681526020018567ffffffffffffffff16815250600e5f8667ffffffffffffffff1667ffffffffffffffff1681526020019081526020015f205f820151815f015f6101000a81548173ffffffffffffffffffffffffffffffffffffffff021916908373ffffffffffffffffffffffffffffffffffffffff1602179055506020820151816001015f6101000a81548173ffffffffffffffffffffffffffffffffffffffff021916908373ffffffffffffffffffffffffffffffffffffffff1602179055506040820151816002015f6101000a8154816fffffffffffffffffffffffffffffffff02191690836fffffffffffffffffffffffffffffffff16021790555060608201518160020160106101000a81548167ffffffffffffffff021916908367ffffffffffffffff1602179055509050506001600a5f8667ffffffffffffffff1667ffffffffffffffff1681526020019081526020015f205f6101000a81548160ff021916908315150217905550600c5f81819054906101000a900467ffffffffffffffff168092919061258690612df5565b91906101000a81548167ffffffffffffffff021916908367ffffffffffffffff160217905550508367ffffffffffffffff167f13c4e4ab476a4fe0765bdbacf68d0e4f95c9057c7d2dbc5164b2fde972461c41848385426040516125ed94939291906133b7565b60405180910390a285806001019650505050505050612149565b508060075f6101000a81548167ffffffffffffffff021916908367ffffffffffffffff160217905550505b8160068190555081837fb6354a0ae57c57c360dc75df59dfb88263b4ebf89ca9f2c2c61c15ab05c5d72b8360405161266a91906138b9565b60405180910390a35050505050505050565b6126f6838473ffffffffffffffffffffffffffffffffffffffff1663a9059cbb85856040516024016126af929190612e24565b604051602081830303815290604052915060e01b6020820180517bffffffffffffffffffffffffffffffffffffffffffffffffffffffff83818316178352505050506126fb565b505050565b5f8060205f8451602086015f885af18061271a576040513d5f823e3d81fd5b3d92505f519150505f821461273357600181141561274e565b5f8473ffffffffffffffffffffffffffffffffffffffff163b145b1561279057836040517f5274afe70000000000000000000000000000000000000000000000000000000081526004016127879190612c04565b60405180910390fd5b50505050565b5f33905090565b5f604051905090565b5f80fd5b5f80fd5b5f73ffffffffffffffffffffffffffffffffffffffff82169050919050565b5f6127d7826127ae565b9050919050565b6127e7816127cd565b81146127f1575f80fd5b50565b5f81359050612802816127de565b92915050565b5f819050919050565b61281a81612808565b8114612824575f80fd5b50565b5f8135905061283581612811565b92915050565b5f805f60608486031215612852576128516127a6565b5b5f61285f868287016127f4565b9350506020612870868287016127f4565b925050604061288186828701612827565b9150509250925092565b5f67ffffffffffffffff82169050919050565b6128a78161288b565b82525050565b5f6020820190506128c05f83018461289e565b92915050565b6128cf8161288b565b81146128d9575f80fd5b50565b5f813590506128ea816128c6565b92915050565b5f60208284031215612905576129046127a6565b5b5f612912848285016128dc565b91505092915050565b612924816127cd565b82525050565b5f6fffffffffffffffffffffffffffffffff82169050919050565b61294e8161292a565b82525050565b5f6080820190506129675f83018761291b565b612974602083018661291b565b6129816040830185612945565b61298e606083018461289e565b95945050505050565b5f602082840312156129ac576129ab6127a6565b5b5f6129b9848285016127f4565b91505092915050565b5f819050919050565b5f6129e56129e06129db846127ae565b6129c2565b6127ae565b9050919050565b5f6129f6826129cb565b9050919050565b5f612a07826129ec565b9050919050565b612a17816129fd565b82525050565b5f602082019050612a305f830184612a0e565b92915050565b5f819050919050565b612a4881612a36565b82525050565b5f602082019050612a615f830184612a3f565b92915050565b5f8115159050919050565b612a7b81612a67565b82525050565b5f602082019050612a945f830184612a72565b92915050565b5f612aa4826129ec565b9050919050565b612ab481612a9a565b82525050565b5f602082019050612acd5f830184612aab565b92915050565b5f80fd5b5f80fd5b5f80fd5b5f8083601f840112612af457612af3612ad3565b5b8235905067ffffffffffffffff811115612b1157612b10612ad7565b5b602083019150836001820283011115612b2d57612b2c612adb565b5b9250929050565b5f805f8060408587031215612b4c57612b4b6127a6565b5b5f85013567ffffffffffffffff811115612b6957612b686127aa565b5b612b7587828801612adf565b9450945050602085013567ffffffffffffffff811115612b9857612b976127aa565b5b612ba487828801612adf565b925092505092959194509250565b612bbb81612808565b82525050565b5f608082019050612bd45f83018761291b565b612be1602083018661291b565b612bee6040830185612bb2565b612bfb606083018461289e565b95945050505050565b5f602082019050612c175f83018461291b565b92915050565b612c2681612a36565b8114612c30575f80fd5b50565b5f81359050612c4181612c1d565b92915050565b5f60208284031215612c5c57612c5b6127a6565b5b5f612c6984828501612c33565b91505092915050565b5f8060408385031215612c8857612c876127a6565b5b5f612c95858286016127f4565b9250506020612ca685828601612827565b9150509250929050565b5f805f805f8060608789031215612cca57612cc96127a6565b5b5f87013567ffffffffffffffff811115612ce757612ce66127aa565b5b612cf389828a01612adf565b9650965050602087013567ffffffffffffffff811115612d1657612d156127aa565b5b612d2289828a01612adf565b9450945050604087013567ffffffffffffffff811115612d4557612d446127aa565b5b612d5189828a01612adf565b92509250509295509295509295565b612d6981612a67565b8114612d73575f80fd5b50565b5f81359050612d8481612d60565b92915050565b5f8060408385031215612da057612d9f6127a6565b5b5f612dad858286016127f4565b9250506020612dbe85828601612d76565b9150509250929050565b7f4e487b71000000000000000000000000000000000000000000000000000000005f52601160045260245ffd5b5f612dff8261288b565b915067ffffffffffffffff8203612e1957612e18612dc8565b5b600182019050919050565b5f604082019050612e375f83018561291b565b612e446020830184612bb2565b9392505050565b5f604082019050612e5e5f83018561291b565b612e6b602083018461291b565b9392505050565b5f81519050612e8081612811565b92915050565b5f60208284031215612e9b57612e9a6127a6565b5b5f612ea884828501612e72565b91505092915050565b5f604082019050612ec45f830185612bb2565b612ed16020830184612bb2565b9392505050565b5f608082019050612eeb5f83018761291b565b612ef8602083018661291b565b612f05604083018561291b565b612f126060830184612bb2565b95945050505050565b5f82825260208201905092915050565b7f546f6b656e206e6f7420737570706f72746564000000000000000000000000005f82015250565b5f612f5f601383612f1b565b9150612f6a82612f2b565b602082019050919050565b5f6020820190508181035f830152612f8c81612f53565b9050919050565b5f606082019050612fa65f83018661291b565b612fb36020830185612a72565b612fc06040830184612a72565b949350505050565b5f82825260208201905092915050565b828183375f83830152505050565b5f601f19601f8301169050919050565b5f6130018385612fc8565b935061300e838584612fd8565b61301783612fe6565b840190509392505050565b5f6060820190508181035f83015261303b818789612ff6565b905061304a6020830186612a3f565b818103604083015261305d818486612ff6565b90509695505050505050565b5f8160e01c9050919050565b5f60033d11156130915760045f803e61308e5f51613069565b90505b90565b7f4e487b71000000000000000000000000000000000000000000000000000000005f52604160045260245ffd5b6130ca82612fe6565b810181811067ffffffffffffffff821117156130e9576130e8613094565b5b80604052505050565b5f60443d1061317e5761310361279d565b60043d036004823e80513d602482011167ffffffffffffffff8211171561312b57505061317e565b808201805167ffffffffffffffff811115613149575050505061317e565b80602083010160043d03850181111561316657505050505061317e565b613175826020018501866130c1565b82955050505050505b90565b5f81519050919050565b5f5b838110156131a857808201518184015260208101905061318d565b5f8484015250505050565b5f6131bd82613181565b6131c78185612f1b565b93506131d781856020860161318b565b6131e081612fe6565b840191505092915050565b5f6020820190508181035f83015261320381846131b3565b905092915050565b7f4c6f772d6c6576656c20766572696669636174696f6e206572726f72000000005f82015250565b5f61323f601c83612f1b565b915061324a8261320b565b602082019050919050565b5f6020820190508181035f83015261326c81613233565b9050919050565b5f81905092915050565b5f6132888385613273565b9350613295838584612fd8565b82840190509392505050565b5f6132ad82848661327d565b91508190509392505050565b5f815190506132c781612c1d565b92915050565b5f602082840312156132e2576132e16127a6565b5b5f6132ef848285016132b9565b91505092915050565b5f61331261330d6133088461292a565b6129c2565b612808565b9050919050565b613322816132f8565b82525050565b5f60408201905061333b5f83018561291b565b6133486020830184613319565b9392505050565b7f496e76616c696420746f6b656e20636f6e7472616374000000000000000000005f82015250565b5f613383601683612f1b565b915061338e8261334f565b602082019050919050565b5f6020820190508181035f8301526133b081613377565b9050919050565b5f6080820190506133ca5f83018761291b565b6133d7602083018661291b565b6133e46040830185612945565b6133f16060830184612bb2565b95945050505050565b5f60608201905061340d5f83018661291b565b61341a602083018561291b565b6134276040830184612bb2565b949350505050565b7f496e76616c696420746f6b656e206164647265737300000000000000000000005f82015250565b5f613463601583612f1b565b915061346e8261342f565b602082019050919050565b5f6020820190508181035f83015261349081613457565b9050919050565b7f43616e6e6f74206d6f64696679206e617469766520746f6b656e0000000000005f82015250565b5f6134cb601a83612f1b565b91506134d682613497565b602082019050919050565b5f6020820190508181035f8301526134f8816134bf565b9050919050565b7f4e6f74206120636f6e74726163740000000000000000000000000000000000005f82015250565b5f613533600e83612f1b565b915061353e826134ff565b602082019050919050565b5f6020820190508181035f83015261356081613527565b9050919050565b5f80fd5b5f61357461279d565b905061358082826130c1565b919050565b5f67ffffffffffffffff82111561359f5761359e613094565b5b6135a882612fe6565b9050602081019050919050565b5f6135c76135c284613585565b61356b565b9050828152602081018484840111156135e3576135e2613567565b5b6135ee848285612fd8565b509392505050565b5f82601f83011261360a57613609612ad3565b5b813561361a8482602086016135b5565b91505092915050565b5f67ffffffffffffffff82111561363d5761363c613094565b5b602082029050602081019050919050565b5f80fd5b61365b8161292a565b8114613665575f80fd5b50565b5f8135905061367681613652565b92915050565b5f608082840312156136915761369061364e565b5b61369b608061356b565b90505f6136aa848285016127f4565b5f8301525060206136bd848285016127f4565b60208301525060406136d184828501613668565b60408301525060606136e5848285016128dc565b60608301525092915050565b5f6137036136fe84613623565b61356b565b9050808382526020820190506080840283018581111561372657613725612adb565b5b835b8181101561374f578061373b888261367c565b845260208401935050608081019050613728565b5050509392505050565b5f82601f83011261376d5761376c612ad3565b5b813561377d8482602086016136f1565b91505092915050565b5f805f6060848603121561379d5761379c6127a6565b5b5f84013567ffffffffffffffff8111156137ba576137b96127aa565b5b6137c6868287016135f6565b935050602084013567ffffffffffffffff8111156137e7576137e66127aa565b5b6137f386828701613759565b925050604084013567ffffffffffffffff811115613814576138136127aa565b5b613820868287016135f6565b9150509250925092565b7f4e487b71000000000000000000000000000000000000000000000000000000005f52603260045260245ffd5b5f6138618261288b565b915061386c8361288b565b9250828201905067ffffffffffffffff81111561388c5761388b612dc8565b5b92915050565b5f6040820190506138a55f83018561289e565b6138b2602083018461289e565b9392505050565b5f6020820190506138cc5f830184612bb2565b9291505056fea2646970667358221220a23ebb92d6dc3de5f49dbdac501804317afd79bc72e86e25faaca7153ad0e01364736f6c63430008140033",
			"opcodes": "PUSH1 0x80 PUSH1 0x40 MSTORE PUSH0 PUSH1 0x5 PUSH0 PUSH2 0x100 EXP DUP2 SLOAD DUP2 PUSH8 0xFFFFFFFFFFFFFFFF MUL NOT AND SWAP1 DUP4 PUSH8 0xFFFFFFFFFFFFFFFF AND MUL OR SWAP1 SSTORE POP PUSH0 PUSH1 0xC PUSH0 PUSH2 0x100 EXP DUP2 SLOAD DUP2 PUSH8 0xFFFFFFFFFFFFFFFF MUL NOT AND SWAP1 DUP4 PUSH8 0xFFFFFFFFFFFFFFFF AND MUL OR SWAP1 SSTORE POP CALLVALUE DUP1 ISZERO PUSH3 0x60 JUMPI PUSH0 DUP1 REVERT JUMPDEST POP PUSH1 0x40 MLOAD PUSH3 0x447D CODESIZE SUB DUP1 PUSH3 0x447D DUP4 CODECOPY DUP2 DUP2 ADD PUSH1 0x40 MSTORE DUP2 ADD SWAP1 PUSH3 0x86 SWAP2 SWAP1 PUSH3 0x824 JUMP JUMPDEST DUP3 PUSH0 PUSH20 0xFFFFFFFFFFFFFFFFFFFFFFFFFFFFFFFFFFFFFFFF AND DUP2 PUSH20 0xFFFFFFFFFFFFFFFFFFFFFFFFFFFFFFFFFFFFFFFF AND SUB PUSH3 0xFA JUMPI PUSH0 PUSH1 0x40 MLOAD PUSH32 0x1E4FBDF700000000000000000000000000000000000000000000000000000000 DUP2 MSTORE PUSH1 0x4 ADD PUSH3 0xF1 SWAP2 SWAP1 PUSH3 0x8EC JUMP JUMPDEST PUSH1 0x40 MLOAD DUP1 SWAP2 SUB SWAP1 REVERT JUMPDEST PUSH3 0x10B DUP2 PUSH3 0x358 PUSH1 0x20 SHL PUSH1 0x20 SHR JUMP JUMPDEST POP PUSH1 0x1 DUP1 DUP2 SWAP1 SSTORE POP PUSH0 PUSH20 0xFFFFFFFFFFFFFFFFFFFFFFFFFFFFFFFFFFFFFFFF AND DUP7 PUSH20 0xFFFFFFFFFFFFFFFFFFFFFFFFFFFFFFFFFFFFFFFF AND SUB PUSH3 0x179 JUMPI PUSH1 0x40 MLOAD PUSH32 0x10C40E8C00000000000000000000000000000000000000000000000000000000 DUP2 MSTORE PUSH1 0x4 ADD PUSH1 0x40 MLOAD DUP1 SWAP2 SUB SWAP1 REVERT JUMPDEST PUSH0 PUSH20 0xFFFFFFFFFFFFFFFFFFFFFFFFFFFFFFFFFFFFFFFF AND DUP6 PUSH20 0xFFFFFFFFFFFFFFFFFFFFFFFFFFFFFFFFFFFFFFFF AND SUB PUSH3 0x1DF JUMPI PUSH1 0x40 MLOAD PUSH32 0x1EB00B0600000000000000000000000000000000000000000000000000000000 DUP2 MSTORE PUSH1 0x4 ADD PUSH1 0x40 MLOAD DUP1 SWAP2 SUB SWAP1 REVERT JUMPDEST PUSH0 DUP1 SHL DUP5 SUB PUSH3 0x21B JUMPI PUSH1 0x40 MLOAD PUSH32 0xAC2B81600000000000000000000000000000000000000000000000000000000 DUP2 MSTORE PUSH1 0x4 ADD PUSH1 0x40 MLOAD DUP1 SWAP2 SUB SWAP1 REVERT JUMPDEST DUP6 PUSH1 0x3 PUSH0 PUSH2 0x100 EXP DUP2 SLOAD DUP2 PUSH20 0xFFFFFFFFFFFFFFFFFFFFFFFFFFFFFFFFFFFFFFFF MUL NOT AND SWAP1 DUP4 PUSH20 0xFFFFFFFFFFFFFFFFFFFFFFFFFFFFFFFFFFFFFFFF AND MUL OR SWAP1 SSTORE POP DUP5 PUSH1 0x2 PUSH0 PUSH2 0x100 EXP DUP2 SLOAD DUP2 PUSH20 0xFFFFFFFFFFFFFFFFFFFFFFFFFFFFFFFFFFFFFFFF MUL NOT AND SWAP1 DUP4 PUSH20 0xFFFFFFFFFFFFFFFFFFFFFFFFFFFFFFFFFFFFFFFF AND MUL OR SWAP1 SSTORE POP DUP4 PUSH1 0x4 DUP2 SWAP1 SSTORE POP DUP2 PUSH1 0x6 DUP2 SWAP1 SSTORE POP PUSH0 JUMPDEST DUP2 MLOAD DUP2 LT ISZERO PUSH3 0x34B JUMPI PUSH0 PUSH20 0xFFFFFFFFFFFFFFFFFFFFFFFFFFFFFFFFFFFFFFFF AND DUP3 DUP3 DUP2 MLOAD DUP2 LT PUSH3 0x2E2 JUMPI PUSH3 0x2E1 PUSH3 0x907 JUMP JUMPDEST JUMPDEST PUSH1 0x20 MUL PUSH1 0x20 ADD ADD MLOAD PUSH20 0xFFFFFFFFFFFFFFFFFFFFFFFFFFFFFFFFFFFFFFFF AND EQ PUSH3 0x335 JUMPI PUSH3 0x334 DUP3 DUP3 DUP2 MLOAD DUP2 LT PUSH3 0x320 JUMPI PUSH3 0x31F PUSH3 0x907 JUMP JUMPDEST JUMPDEST PUSH1 0x20 MUL PUSH1 0x20 ADD ADD MLOAD PUSH3 0x419 PUSH1 0x20 SHL PUSH1 0x20 SHR JUMP JUMPDEST JUMPDEST DUP1 DUP1 PUSH3 0x342 SWAP1 PUSH3 0x96A JUMP JUMPDEST SWAP2 POP POP PUSH3 0x2AB JUMP JUMPDEST POP POP POP POP POP POP POP PUSH3 0xB67 JUMP JUMPDEST PUSH0 DUP1 PUSH0 SWAP1 SLOAD SWAP1 PUSH2 0x100 EXP SWAP1 DIV PUSH20 0xFFFFFFFFFFFFFFFFFFFFFFFFFFFFFFFFFFFFFFFF AND SWAP1 POP DUP2 PUSH0 DUP1 PUSH2 0x100 EXP DUP2 SLOAD DUP2 PUSH20 0xFFFFFFFFFFFFFFFFFFFFFFFFFFFFFFFFFFFFFFFF MUL NOT AND SWAP1 DUP4 PUSH20 0xFFFFFFFFFFFFFFFFFFFFFFFFFFFFFFFFFFFFFFFF AND MUL OR SWAP1 SSTORE POP DUP2 PUSH20 0xFFFFFFFFFFFFFFFFFFFFFFFFFFFFFFFFFFFFFFFF AND DUP2 PUSH20 0xFFFFFFFFFFFFFFFFFFFFFFFFFFFFFFFFFFFFFFFF AND PUSH32 0x8BE0079C531659141344CD1FD0A4F28419497F9722A3DAAFE3B4186F6B6457E0 PUSH1 0x40 MLOAD PUSH1 0x40 MLOAD DUP1 SWAP2 SUB SWAP1 LOG3 POP POP JUMP JUMPDEST PUSH0 PUSH20 0xFFFFFFFFFFFFFFFFFFFFFFFFFFFFFFFFFFFFFFFF AND DUP2 PUSH20 0xFFFFFFFFFFFFFFFFFFFFFFFFFFFFFFFFFFFFFFFF AND SUB PUSH3 0x48A JUMPI PUSH1 0x40 MLOAD PUSH32 0x8C379A000000000000000000000000000000000000000000000000000000000 DUP2 MSTORE PUSH1 0x4 ADD PUSH3 0x481 SWAP1 PUSH3 0xA14 JUMP JUMPDEST PUSH1 0x40 MLOAD DUP1 SWAP2 SUB SWAP1 REVERT JUMPDEST PUSH1 0x2 PUSH0 SWAP1 SLOAD SWAP1 PUSH2 0x100 EXP SWAP1 DIV PUSH20 0xFFFFFFFFFFFFFFFFFFFFFFFFFFFFFFFFFFFFFFFF AND PUSH20 0xFFFFFFFFFFFFFFFFFFFFFFFFFFFFFFFFFFFFFFFF AND DUP2 PUSH20 0xFFFFFFFFFFFFFFFFFFFFFFFFFFFFFFFFFFFFFFFF AND SUB PUSH3 0x51C JUMPI PUSH1 0x40 MLOAD PUSH32 0x8C379A000000000000000000000000000000000000000000000000000000000 DUP2 MSTORE PUSH1 0x4 ADD PUSH3 0x513 SWAP1 PUSH3 0xA82 JUMP JUMPDEST PUSH1 0x40 MLOAD DUP1 SWAP2 SUB SWAP1 REVERT JUMPDEST PUSH0 DUP2 PUSH20 0xFFFFFFFFFFFFFFFFFFFFFFFFFFFFFFFFFFFFFFFF AND EXTCODESIZE GT PUSH3 0x578 JUMPI PUSH1 0x40 MLOAD PUSH32 0x8C379A000000000000000000000000000000000000000000000000000000000 DUP2 MSTORE PUSH1 0x4 ADD PUSH3 0x56F SWAP1 PUSH3 0xAF0 JUMP JUMPDEST PUSH1 0x40 MLOAD DUP1 SWAP2 SUB SWAP1 REVERT JUMPDEST PUSH1 0x1 PUSH1 0x8 PUSH0 DUP4 PUSH20 0xFFFFFFFFFFFFFFFFFFFFFFFFFFFFFFFFFFFFFFFF AND PUSH20 0xFFFFFFFFFFFFFFFFFFFFFFFFFFFFFFFFFFFFFFFF AND DUP2 MSTORE PUSH1 0x20 ADD SWAP1 DUP2 MSTORE PUSH1 0x20 ADD PUSH0 KECCAK256 PUSH0 PUSH2 0x100 EXP DUP2 SLOAD DUP2 PUSH1 0xFF MUL NOT AND SWAP1 DUP4 ISZERO ISZERO MUL OR SWAP1 SSTORE POP PUSH32 0xFCC700E01DFBA1D69E020718052F56A2D2F5A9A37AF6FAE0F41D6D9A69191219 DUP2 PUSH1 0x1 PUSH0 PUSH1 0x40 MLOAD PUSH3 0x603 SWAP4 SWAP3 SWAP2 SWAP1 PUSH3 0xB2C JUMP JUMPDEST PUSH1 0x40 MLOAD DUP1 SWAP2 SUB SWAP1 LOG1 POP JUMP JUMPDEST PUSH0 PUSH1 0x40 MLOAD SWAP1 POP SWAP1 JUMP JUMPDEST PUSH0 DUP1 REVERT JUMPDEST PUSH0 DUP1 REVERT JUMPDEST PUSH0 PUSH20 0xFFFFFFFFFFFFFFFFFFFFFFFFFFFFFFFFFFFFFFFF DUP3 AND SWAP1 POP SWAP2 SWAP1 POP JUMP JUMPDEST PUSH0 PUSH3 0x64A DUP3 PUSH3 0x61F JUMP JUMPDEST SWAP1 POP SWAP2 SWAP1 POP JUMP JUMPDEST PUSH3 0x65C DUP2 PUSH3 0x63E JUMP JUMPDEST DUP2 EQ PUSH3 0x667 JUMPI PUSH0 DUP1 REVERT JUMPDEST POP JUMP JUMPDEST PUSH0 DUP2 MLOAD SWAP1 POP PUSH3 0x67A DUP2 PUSH3 0x651 JUMP JUMPDEST SWAP3 SWAP2 POP POP JUMP JUMPDEST PUSH0 DUP2 SWAP1 POP SWAP2 SWAP1 POP JUMP JUMPDEST PUSH3 0x694 DUP2 PUSH3 0x680 JUMP JUMPDEST DUP2 EQ PUSH3 0x69F JUMPI PUSH0 DUP1 REVERT JUMPDEST POP JUMP JUMPDEST PUSH0 DUP2 MLOAD SWAP1 POP PUSH3 0x6B2 DUP2 PUSH3 0x689 JUMP JUMPDEST SWAP3 SWAP2 POP POP JUMP JUMPDEST PUSH0 DUP1 REVERT JUMPDEST PUSH0 PUSH1 0x1F NOT PUSH1 0x1F DUP4 ADD AND SWAP1 POP SWAP2 SWAP1 POP JUMP JUMPDEST PUSH32 0x4E487B7100000000000000000000000000000000000000000000000000000000 PUSH0 MSTORE PUSH1 0x41 PUSH1 0x4 MSTORE PUSH1 0x24 PUSH0 REVERT JUMPDEST PUSH3 0x704 DUP3 PUSH3 0x6BC JUMP JUMPDEST DUP2 ADD DUP2 DUP2 LT PUSH8 0xFFFFFFFFFFFFFFFF DUP3 GT OR ISZERO PUSH3 0x726 JUMPI PUSH3 0x725 PUSH3 0x6CC JUMP JUMPDEST JUMPDEST DUP1 PUSH1 0x40 MSTORE POP POP POP JUMP JUMPDEST PUSH0 PUSH3 0x73A PUSH3 0x60E JUMP JUMPDEST SWAP1 POP PUSH3 0x748 DUP3 DUP3 PUSH3 0x6F9 JUMP JUMPDEST SWAP2 SWAP1 POP JUMP JUMPDEST PUSH0 PUSH8 0xFFFFFFFFFFFFFFFF DUP3 GT ISZERO PUSH3 0x76A JUMPI PUSH3 0x769 PUSH3 0x6CC JUMP JUMPDEST JUMPDEST PUSH1 0x20 DUP3 MUL SWAP1 POP PUSH1 0x20 DUP2 ADD SWAP1 POP SWAP2 SWAP1 POP JUMP JUMPDEST PUSH0 DUP1 REVERT JUMPDEST PUSH0 PUSH3 0x795 PUSH3 0x78F DUP5 PUSH3 0x74D JUMP JUMPDEST PUSH3 0x72F JUMP JUMPDEST SWAP1 POP DUP1 DUP4 DUP3 MSTORE PUSH1 0x20 DUP3 ADD SWAP1 POP PUSH1 0x20 DUP5 MUL DUP4 ADD DUP6 DUP2 GT ISZERO PUSH3 0x7BB JUMPI PUSH3 0x7BA PUSH3 0x77B JUMP JUMPDEST JUMPDEST DUP4 JUMPDEST DUP2 DUP2 LT ISZERO PUSH3 0x7E8 JUMPI DUP1 PUSH3 0x7D3 DUP9 DUP3 PUSH3 0x66A JUMP JUMPDEST DUP5 MSTORE PUSH1 0x20 DUP5 ADD SWAP4 POP POP PUSH1 0x20 DUP2 ADD SWAP1 POP PUSH3 0x7BD JUMP JUMPDEST POP POP POP SWAP4 SWAP3 POP POP POP JUMP JUMPDEST PUSH0 DUP3 PUSH1 0x1F DUP4 ADD SLT PUSH3 0x809 JUMPI PUSH3 0x808 PUSH3 0x6B8 JUMP JUMPDEST JUMPDEST DUP2 MLOAD PUSH3 0x81B DUP5 DUP3 PUSH1 0x20 DUP7 ADD PUSH3 0x77F JUMP JUMPDEST SWAP2 POP POP SWAP3 SWAP2 POP POP JUMP JUMPDEST PUSH0 DUP1 PUSH0 DUP1 PUSH0 DUP1 PUSH1 0xC0 DUP8 DUP10 SUB SLT ISZERO PUSH3 0x841 JUMPI PUSH3 0x840 PUSH3 0x617 JUMP JUMPDEST JUMPDEST PUSH0 PUSH3 0x850 DUP10 DUP3 DUP11 ADD PUSH3 0x66A JUMP JUMPDEST SWAP7 POP POP PUSH1 0x20 PUSH3 0x863 DUP10 DUP3 DUP11 ADD PUSH3 0x66A JUMP JUMPDEST SWAP6 POP POP PUSH1 0x40 PUSH3 0x876 DUP10 DUP3 DUP11 ADD PUSH3 0x6A2 JUMP JUMPDEST SWAP5 POP POP PUSH1 0x60 PUSH3 0x889 DUP10 DUP3 DUP11 ADD PUSH3 0x66A JUMP JUMPDEST SWAP4 POP POP PUSH1 0x80 PUSH3 0x89C DUP10 DUP3 DUP11 ADD PUSH3 0x6A2 JUMP JUMPDEST SWAP3 POP POP PUSH1 0xA0 DUP8 ADD MLOAD PUSH8 0xFFFFFFFFFFFFFFFF DUP2 GT ISZERO PUSH3 0x8C0 JUMPI PUSH3 0x8BF PUSH3 0x61B JUMP JUMPDEST JUMPDEST PUSH3 0x8CE DUP10 DUP3 DUP11 ADD PUSH3 0x7F2 JUMP JUMPDEST SWAP2 POP POP SWAP3 SWAP6 POP SWAP3 SWAP6 POP SWAP3 SWAP6 JUMP JUMPDEST PUSH3 0x8E6 DUP2 PUSH3 0x63E JUMP JUMPDEST DUP3 MSTORE POP POP JUMP JUMPDEST PUSH0 PUSH1 0x20 DUP3 ADD SWAP1 POP PUSH3 0x901 PUSH0 DUP4 ADD DUP5 PUSH3 0x8DB JUMP JUMPDEST SWAP3 SWAP2 POP POP JUMP JUMPDEST PUSH32 0x4E487B7100000000000000000000000000000000000000000000000000000000 PUSH0 MSTORE PUSH1 0x32 PUSH1 0x4 MSTORE PUSH1 0x24 PUSH0 REVERT JUMPDEST PUSH32 0x4E487B7100000000000000000000000000000000000000000000000000000000 PUSH0 MSTORE PUSH1 0x11 PUSH1 0x4 MSTORE PUSH1 0x24 PUSH0 REVERT JUMPDEST PUSH0 DUP2 SWAP1 POP SWAP2 SWAP1 POP JUMP JUMPDEST PUSH0 PUSH3 0x976 DUP3 PUSH3 0x961 JUMP JUMPDEST SWAP2 POP PUSH32 0xFFFFFFFFFFFFFFFFFFFFFFFFFFFFFFFFFFFFFFFFFFFFFFFFFFFFFFFFFFFFFFFF DUP3 SUB PUSH3 0x9AB JUMPI PUSH3 0x9AA PUSH3 0x934 JUMP JUMPDEST JUMPDEST PUSH1 0x1 DUP3 ADD SWAP1 POP SWAP2 SWAP1 POP JUMP JUMPDEST PUSH0 DUP3 DUP3 MSTORE PUSH1 0x20 DUP3 ADD SWAP1 POP SWAP3 SWAP2 POP POP JUMP JUMPDEST PUSH32 0x496E76616C696420746F6B656E20616464726573730000000000000000000000 PUSH0 DUP3 ADD MSTORE POP JUMP JUMPDEST PUSH0 PUSH3 0x9FC PUSH1 0x15 DUP4 PUSH3 0x9B6 JUMP JUMPDEST SWAP2 POP PUSH3 0xA09 DUP3 PUSH3 0x9C6 JUMP JUMPDEST PUSH1 0x20 DUP3 ADD SWAP1 POP SWAP2 SWAP1 POP JUMP JUMPDEST PUSH0 PUSH1 0x20 DUP3 ADD SWAP1 POP DUP2 DUP2 SUB PUSH0 DUP4 ADD MSTORE PUSH3 0xA2D DUP2 PUSH3 0x9EE JUMP JUMPDEST SWAP1 POP SWAP2 SWAP1 POP JUMP JUMPDEST PUSH32 0x43616E6E6F74206D6F64696679206E617469766520746F6B656E000000000000 PUSH0 DUP3 ADD MSTORE POP JUMP JUMPDEST PUSH0 PUSH3 0xA6A PUSH1 0x1A DUP4 PUSH3 0x9B6 JUMP JUMPDEST SWAP2 POP PUSH3 0xA77 DUP3 PUSH3 0xA34 JUMP JUMPDEST PUSH1 0x20 DUP3 ADD SWAP1 POP SWAP2 SWAP1 POP JUMP JUMPDEST PUSH0 PUSH1 0x20 DUP3 ADD SWAP1 POP DUP2 DUP2 SUB PUSH0 DUP4 ADD MSTORE PUSH3 0xA9B DUP2 PUSH3 0xA5C JUMP JUMPDEST SWAP1 POP SWAP2 SWAP1 POP JUMP JUMPDEST PUSH32 0x4E6F74206120636F6E7472616374000000000000000000000000000000000000 PUSH0 DUP3 ADD MSTORE POP JUMP JUMPDEST PUSH0 PUSH3 0xAD8 PUSH1 0xE DUP4 PUSH3 0x9B6 JUMP JUMPDEST SWAP2 POP PUSH3 0xAE5 DUP3 PUSH3 0xAA2 JUMP JUMPDEST PUSH1 0x20 DUP3 ADD SWAP1 POP SWAP2 SWAP1 POP JUMP JUMPDEST PUSH0 PUSH1 0x20 DUP3 ADD SWAP1 POP DUP2 DUP2 SUB PUSH0 DUP4 ADD MSTORE PUSH3 0xB09 DUP2 PUSH3 0xACA JUMP JUMPDEST SWAP1 POP SWAP2 SWAP1 POP JUMP JUMPDEST PUSH0 DUP2 ISZERO ISZERO SWAP1 POP SWAP2 SWAP1 POP JUMP JUMPDEST PUSH3 0xB26 DUP2 PUSH3 0xB10 JUMP JUMPDEST DUP3 MSTORE POP POP JUMP JUMPDEST PUSH0 PUSH1 0x60 DUP3 ADD SWAP1 POP PUSH3 0xB41 PUSH0 DUP4 ADD DUP7 PUSH3 0x8DB JUMP JUMPDEST PUSH3 0xB50 PUSH1 0x20 DUP4 ADD DUP6 PUSH3 0xB1B JUMP JUMPDEST PUSH3 0xB5F PUSH1 0x40 DUP4 ADD DUP5 PUSH3 0xB1B JUMP JUMPDEST SWAP5 SWAP4 POP POP POP POP JUMP JUMPDEST PUSH2 0x3908 DUP1 PUSH3 0xB75 PUSH0 CODECOPY PUSH0 RETURN INVALID PUSH1 0x80 PUSH1 0x40 MSTORE CALLVALUE DUP1 ISZERO PUSH2 0xF JUMPI PUSH0 DUP1 REVERT JUMPDEST POP PUSH1 0x4 CALLDATASIZE LT PUSH2 0x1A7 JUMPI PUSH0 CALLDATALOAD PUSH1 0xE0 SHR DUP1 PUSH4 0x87C16D4F GT PUSH2 0xF7 JUMPI DUP1 PUSH4 0xBBCD5BBE GT PUSH2 0x95 JUMPI DUP1 PUSH4 0xDA1BB793 GT PUSH2 0x6F JUMPI DUP1 PUSH4 0xDA1BB793 EQ PUSH2 0x495 JUMPI DUP1 PUSH4 0xDCAC07DB EQ PUSH2 0x4B1 JUMPI DUP1 PUSH4 0xE7741137 EQ PUSH2 0x4CF JUMPI DUP1 PUSH4 0xF2FDE38B EQ PUSH2 0x4EB JUMPI PUSH2 0x1A7 JUMP JUMPDEST DUP1 PUSH4 0xBBCD5BBE EQ PUSH2 0x42D JUMPI DUP1 PUSH4 0xC4B75F16 EQ PUSH2 0x449 JUMPI DUP1 PUSH4 0xD7D1D520 EQ PUSH2 0x479 JUMPI PUSH2 0x1A7 JUMP JUMPDEST DUP1 PUSH4 0x8F965B99 GT PUSH2 0xD1 JUMPI DUP1 PUSH4 0x8F965B99 EQ PUSH2 0x3BB JUMPI DUP1 PUSH4 0x901129C2 EQ PUSH2 0x3D9 JUMPI DUP1 PUSH4 0x95CCEA67 EQ PUSH2 0x3F5 JUMPI DUP1 PUSH4 0xAAB8AB0C EQ PUSH2 0x411 JUMPI PUSH2 0x1A7 JUMP JUMPDEST DUP1 PUSH4 0x87C16D4F EQ PUSH2 0x34E JUMPI DUP1 PUSH4 0x8D006438 EQ PUSH2 0x36A JUMPI DUP1 PUSH4 0x8DA5CB5B EQ PUSH2 0x39D JUMPI PUSH2 0x1A7 JUMP JUMPDEST DUP1 PUSH4 0x549206ED GT PUSH2 0x164 JUMPI DUP1 PUSH4 0x6D69FCAF GT PUSH2 0x13E JUMPI DUP1 PUSH4 0x6D69FCAF EQ PUSH2 0x2EC JUMPI DUP1 PUSH4 0x715018A6 EQ PUSH2 0x308 JUMPI DUP1 PUSH4 0x743AE7AD EQ PUSH2 0x312 JUMPI DUP1 PUSH4 0x849A1586 EQ PUSH2 0x330 JUMPI PUSH2 0x1A7 JUMP JUMPDEST DUP1 PUSH4 0x549206ED EQ PUSH2 0x26E JUMPI DUP1 PUSH4 0x58E09BDD EQ PUSH2 0x28C JUMPI DUP1 PUSH4 0x68C4AC26 EQ PUSH2 0x2BC JUMPI PUSH2 0x1A7 JUMP JUMPDEST DUP1 PUSH4 0x78D3B79 EQ PUSH2 0x1AB JUMPI DUP1 PUSH4 0x7F8E853 EQ PUSH2 0x1C7 JUMPI DUP1 PUSH4 0x23CB7B35 EQ PUSH2 0x1E5 JUMPI DUP1 PUSH4 0x2BA8D939 EQ PUSH2 0x218 JUMPI DUP1 PUSH4 0x3A5ABEAD EQ PUSH2 0x234 JUMPI DUP1 PUSH4 0x5437988D EQ PUSH2 0x252 JUMPI JUMPDEST PUSH0 DUP1 REVERT JUMPDEST PUSH2 0x1C5 PUSH1 0x4 DUP1 CALLDATASIZE SUB DUP2 ADD SWAP1 PUSH2 0x1C0 SWAP2 SWAP1 PUSH2 0x283B JUMP JUMPDEST PUSH2 0x507 JUMP JUMPDEST STOP JUMPDEST PUSH2 0x1CF PUSH2 0xA52 JUMP JUMPDEST PUSH1 0x40 MLOAD PUSH2 0x1DC SWAP2 SWAP1 PUSH2 0x28AD JUMP JUMPDEST PUSH1 0x40 MLOAD DUP1 SWAP2 SUB SWAP1 RETURN JUMPDEST PUSH2 0x1FF PUSH1 0x4 DUP1 CALLDATASIZE SUB DUP2 ADD SWAP1 PUSH2 0x1FA SWAP2 SWAP1 PUSH2 0x28F0 JUMP JUMPDEST PUSH2 0xA6B JUMP JUMPDEST PUSH1 0x40 MLOAD PUSH2 0x20F SWAP5 SWAP4 SWAP3 SWAP2 SWAP1 PUSH2 0x2954 JUMP JUMPDEST PUSH1 0x40 MLOAD DUP1 SWAP2 SUB SWAP1 RETURN JUMPDEST PUSH2 0x232 PUSH1 0x4 DUP1 CALLDATASIZE SUB DUP2 ADD SWAP1 PUSH2 0x22D SWAP2 SWAP1 PUSH2 0x2997 JUMP JUMPDEST PUSH2 0xB04 JUMP JUMPDEST STOP JUMPDEST PUSH2 0x23C PUSH2 0xC73 JUMP JUMPDEST PUSH1 0x40 MLOAD PUSH2 0x249 SWAP2 SWAP1 PUSH2 0x2A1D JUMP JUMPDEST PUSH1 0x40 MLOAD DUP1 SWAP2 SUB SWAP1 RETURN JUMPDEST PUSH2 0x26C PUSH1 0x4 DUP1 CALLDATASIZE SUB DUP2 ADD SWAP1 PUSH2 0x267 SWAP2 SWAP1 PUSH2 0x2997 JUMP JUMPDEST PUSH2 0xC98 JUMP JUMPDEST STOP JUMPDEST PUSH2 0x276 PUSH2 0xD9A JUMP JUMPDEST PUSH1 0x40 MLOAD PUSH2 0x283 SWAP2 SWAP1 PUSH2 0x2A4E JUMP JUMPDEST PUSH1 0x40 MLOAD DUP1 SWAP2 SUB SWAP1 RETURN JUMPDEST PUSH2 0x2A6 PUSH1 0x4 DUP1 CALLDATASIZE SUB DUP2 ADD SWAP1 PUSH2 0x2A1 SWAP2 SWAP1 PUSH2 0x2997 JUMP JUMPDEST PUSH2 0xDA0 JUMP JUMPDEST PUSH1 0x40 MLOAD PUSH2 0x2B3 SWAP2 SWAP1 PUSH2 0x2A81 JUMP JUMPDEST PUSH1 0x40 MLOAD DUP1 SWAP2 SUB SWAP1 RETURN JUMPDEST PUSH2 0x2D6 PUSH1 0x4 DUP1 CALLDATASIZE SUB DUP2 ADD SWAP1 PUSH2 0x2D1 SWAP2 SWAP1 PUSH2 0x2997 JUMP JUMPDEST PUSH2 0xDBD JUMP JUMPDEST PUSH1 0x40 MLOAD PUSH2 0x2E3 SWAP2 SWAP1 PUSH2 0x2A81 JUMP JUMPDEST PUSH1 0x40 MLOAD DUP1 SWAP2 SUB SWAP1 RETURN JUMPDEST PUSH2 0x306 PUSH1 0x4 DUP1 CALLDATASIZE SUB DUP2 ADD SWAP1 PUSH2 0x301 SWAP2 SWAP1 PUSH2 0x2997 JUMP JUMPDEST PUSH2 0xDDA JUMP JUMPDEST STOP JUMPDEST PUSH2 0x310 PUSH2 0xDE6 JUMP JUMPDEST STOP JUMPDEST PUSH2 0x31A PUSH2 0xDF9 JUMP JUMPDEST PUSH1 0x40 MLOAD PUSH2 0x327 SWAP2 SWAP1 PUSH2 0x2A4E JUMP JUMPDEST PUSH1 0x40 MLOAD DUP1 SWAP2 SUB SWAP1 RETURN JUMPDEST PUSH2 0x338 PUSH2 0xDFF JUMP JUMPDEST PUSH1 0x40 MLOAD PUSH2 0x345 SWAP2 SWAP1 PUSH2 0x2ABA JUMP JUMPDEST PUSH1 0x40 MLOAD DUP1 SWAP2 SUB SWAP1 RETURN JUMPDEST PUSH2 0x368 PUSH1 0x4 DUP1 CALLDATASIZE SUB DUP2 ADD SWAP1 PUSH2 0x363 SWAP2 SWAP1 PUSH2 0x2B34 JUMP JUMPDEST PUSH2 0xE24 JUMP JUMPDEST STOP JUMPDEST PUSH2 0x384 PUSH1 0x4 DUP1 CALLDATASIZE SUB DUP2 ADD SWAP1 PUSH2 0x37F SWAP2 SWAP1 PUSH2 0x28F0 JUMP JUMPDEST PUSH2 0x1035 JUMP JUMPDEST PUSH1 0x40 MLOAD PUSH2 0x394 SWAP5 SWAP4 SWAP3 SWAP2 SWAP1 PUSH2 0x2BC1 JUMP JUMPDEST PUSH1 0x40 MLOAD DUP1 SWAP2 SUB SWAP1 RETURN JUMPDEST PUSH2 0x3A5 PUSH2 0x10B2 JUMP JUMPDEST PUSH1 0x40 MLOAD PUSH2 0x3B2 SWAP2 SWAP1 PUSH2 0x2C04 JUMP JUMPDEST PUSH1 0x40 MLOAD DUP1 SWAP2 SUB SWAP1 RETURN JUMPDEST PUSH2 0x3C3 PUSH2 0x10D9 JUMP JUMPDEST PUSH1 0x40 MLOAD PUSH2 0x3D0 SWAP2 SWAP1 PUSH2 0x28AD JUMP JUMPDEST PUSH1 0x40 MLOAD DUP1 SWAP2 SUB SWAP1 RETURN JUMPDEST PUSH2 0x3F3 PUSH1 0x4 DUP1 CALLDATASIZE SUB DUP2 ADD SWAP1 PUSH2 0x3EE SWAP2 SWAP1 PUSH2 0x2C47 JUMP JUMPDEST PUSH2 0x10F5 JUMP JUMPDEST STOP JUMPDEST PUSH2 0x40F PUSH1 0x4 DUP1 CALLDATASIZE SUB DUP2 ADD SWAP1 PUSH2 0x40A SWAP2 SWAP1 PUSH2 0x2C72 JUMP JUMPDEST PUSH2 0x113A JUMP JUMPDEST STOP JUMPDEST PUSH2 0x42B PUSH1 0x4 DUP1 CALLDATASIZE SUB DUP2 ADD SWAP1 PUSH2 0x426 SWAP2 SWAP1 PUSH2 0x28F0 JUMP JUMPDEST PUSH2 0x11FC JUMP JUMPDEST STOP JUMPDEST PUSH2 0x447 PUSH1 0x4 DUP1 CALLDATASIZE SUB DUP2 ADD SWAP1 PUSH2 0x442 SWAP2 SWAP1 PUSH2 0x2997 JUMP JUMPDEST PUSH2 0x16F5 JUMP JUMPDEST STOP JUMPDEST PUSH2 0x463 PUSH1 0x4 DUP1 CALLDATASIZE SUB DUP2 ADD SWAP1 PUSH2 0x45E SWAP2 SWAP1 PUSH2 0x28F0 JUMP JUMPDEST PUSH2 0x17F7 JUMP JUMPDEST PUSH1 0x40 MLOAD PUSH2 0x470 SWAP2 SWAP1 PUSH2 0x2A81 JUMP JUMPDEST PUSH1 0x40 MLOAD DUP1 SWAP2 SUB SWAP1 RETURN JUMPDEST PUSH2 0x493 PUSH1 0x4 DUP1 CALLDATASIZE SUB DUP2 ADD SWAP1 PUSH2 0x48E SWAP2 SWAP1 PUSH2 0x2C47 JUMP JUMPDEST PUSH2 0x1831 JUMP JUMPDEST STOP JUMPDEST PUSH2 0x4AF PUSH1 0x4 DUP1 CALLDATASIZE SUB DUP2 ADD SWAP1 PUSH2 0x4AA SWAP2 SWAP1 PUSH2 0x2CB0 JUMP JUMPDEST PUSH2 0x183B JUMP JUMPDEST STOP JUMPDEST PUSH2 0x4B9 PUSH2 0x1A4E JUMP JUMPDEST PUSH1 0x40 MLOAD PUSH2 0x4C6 SWAP2 SWAP1 PUSH2 0x28AD JUMP JUMPDEST PUSH1 0x40 MLOAD DUP1 SWAP2 SUB SWAP1 RETURN JUMPDEST PUSH2 0x4E9 PUSH1 0x4 DUP1 CALLDATASIZE SUB DUP2 ADD SWAP1 PUSH2 0x4E4 SWAP2 SWAP1 PUSH2 0x2D8A JUMP JUMPDEST PUSH2 0x1A67 JUMP JUMPDEST STOP JUMPDEST PUSH2 0x505 PUSH1 0x4 DUP1 CALLDATASIZE SUB DUP2 ADD SWAP1 PUSH2 0x500 SWAP2 SWAP1 PUSH2 0x2997 JUMP JUMPDEST PUSH2 0x1B84 JUMP JUMPDEST STOP JUMPDEST PUSH2 0x50F PUSH2 0x1C08 JUMP JUMPDEST PUSH0 DUP2 SUB PUSH2 0x548 JUMPI PUSH1 0x40 MLOAD PUSH32 0x1F2A200500000000000000000000000000000000000000000000000000000000 DUP2 MSTORE PUSH1 0x4 ADD PUSH1 0x40 MLOAD DUP1 SWAP2 SUB SWAP1 REVERT JUMPDEST PUSH0 PUSH20 0xFFFFFFFFFFFFFFFFFFFFFFFFFFFFFFFFFFFFFFFF AND DUP4 PUSH20 0xFFFFFFFFFFFFFFFFFFFFFFFFFFFFFFFFFFFFFFFF AND SUB PUSH2 0x5AD JUMPI PUSH1 0x40 MLOAD PUSH32 0x5566DF5C00000000000000000000000000000000000000000000000000000000 DUP2 MSTORE PUSH1 0x4 ADD PUSH1 0x40 MLOAD DUP1 SWAP2 SUB SWAP1 REVERT JUMPDEST PUSH0 PUSH1 0x5 PUSH0 DUP2 DUP2 SWAP1 SLOAD SWAP1 PUSH2 0x100 EXP SWAP1 DIV PUSH8 0xFFFFFFFFFFFFFFFF AND PUSH2 0x5CF SWAP1 PUSH2 0x2DF5 JUMP JUMPDEST SWAP2 SWAP1 PUSH2 0x100 EXP DUP2 SLOAD DUP2 PUSH8 0xFFFFFFFFFFFFFFFF MUL NOT AND SWAP1 DUP4 PUSH8 0xFFFFFFFFFFFFFFFF AND MUL OR SWAP1 SSTORE SWAP1 POP PUSH0 PUSH20 0xFFFFFFFFFFFFFFFFFFFFFFFFFFFFFFFFFFFFFFFF AND DUP4 PUSH20 0xFFFFFFFFFFFFFFFFFFFFFFFFFFFFFFFFFFFFFFFF AND SUB PUSH2 0x6B7 JUMPI PUSH1 0x2 PUSH0 SWAP1 SLOAD SWAP1 PUSH2 0x100 EXP SWAP1 DIV PUSH20 0xFFFFFFFFFFFFFFFFFFFFFFFFFFFFFFFFFFFFFFFF AND PUSH20 0xFFFFFFFFFFFFFFFFFFFFFFFFFFFFFFFFFFFFFFFF AND PUSH4 0x79CC6790 CALLER DUP5 PUSH1 0x40 MLOAD DUP4 PUSH4 0xFFFFFFFF AND PUSH1 0xE0 SHL DUP2 MSTORE PUSH1 0x4 ADD PUSH2 0x685 SWAP3 SWAP2 SWAP1 PUSH2 0x2E24 JUMP JUMPDEST PUSH0 PUSH1 0x40 MLOAD DUP1 DUP4 SUB DUP2 PUSH0 DUP8 DUP1 EXTCODESIZE ISZERO DUP1 ISZERO PUSH2 0x69C JUMPI PUSH0 DUP1 REVERT JUMPDEST POP GAS CALL ISZERO DUP1 ISZERO PUSH2 0x6AE JUMPI RETURNDATASIZE PUSH0 DUP1 RETURNDATACOPY RETURNDATASIZE PUSH0 REVERT JUMPDEST POP POP POP POP PUSH2 0x8BB JUMP JUMPDEST PUSH1 0x8 PUSH0 DUP5 PUSH20 0xFFFFFFFFFFFFFFFFFFFFFFFFFFFFFFFFFFFFFFFF AND PUSH20 0xFFFFFFFFFFFFFFFFFFFFFFFFFFFFFFFFFFFFFFFF AND DUP2 MSTORE PUSH1 0x20 ADD SWAP1 DUP2 MSTORE PUSH1 0x20 ADD PUSH0 KECCAK256 PUSH0 SWAP1 SLOAD SWAP1 PUSH2 0x100 EXP SWAP1 DIV PUSH1 0xFF AND PUSH2 0x737 JUMPI PUSH1 0x40 MLOAD PUSH32 0x6A17288200000000000000000000000000000000000000000000000000000000 DUP2 MSTORE PUSH1 0x4 ADD PUSH1 0x40 MLOAD DUP1 SWAP2 SUB SWAP1 REVERT JUMPDEST PUSH1 0x9 PUSH0 DUP5 PUSH20 0xFFFFFFFFFFFFFFFFFFFFFFFFFFFFFFFFFFFFFFFF AND PUSH20 0xFFFFFFFFFFFFFFFFFFFFFFFFFFFFFFFFFFFFFFFF AND DUP2 MSTORE PUSH1 0x20 ADD SWAP1 DUP2 MSTORE PUSH1 0x20 ADD PUSH0 KECCAK256 PUSH0 SWAP1 SLOAD SWAP1 PUSH2 0x100 EXP SWAP1 DIV PUSH1 0xFF AND ISZERO PUSH2 0x7C3 JUMPI DUP3 PUSH1 0x40 MLOAD PUSH32 0x1FAC2D7800000000000000000000000000000000000000000000000000000000 DUP2 MSTORE PUSH1 0x4 ADD PUSH2 0x7BA SWAP2 SWAP1 PUSH2 0x2C04 JUMP JUMPDEST PUSH1 0x40 MLOAD DUP1 SWAP2 SUB SWAP1 REVERT JUMPDEST PUSH0 DUP4 SWAP1 POP PUSH0 DUP2 PUSH20 0xFFFFFFFFFFFFFFFFFFFFFFFFFFFFFFFFFFFFFFFF AND PUSH4 0xDD62ED3E CALLER ADDRESS PUSH1 0x40 MLOAD DUP4 PUSH4 0xFFFFFFFF AND PUSH1 0xE0 SHL DUP2 MSTORE PUSH1 0x4 ADD PUSH2 0x803 SWAP3 SWAP2 SWAP1 PUSH2 0x2E4B JUMP JUMPDEST PUSH1 0x20 PUSH1 0x40 MLOAD DUP1 DUP4 SUB DUP2 DUP7 GAS STATICCALL ISZERO DUP1 ISZERO PUSH2 0x81E JUMPI RETURNDATASIZE PUSH0 DUP1 RETURNDATACOPY RETURNDATASIZE PUSH0 REVERT JUMPDEST POP POP POP POP PUSH1 0x40 MLOAD RETURNDATASIZE PUSH1 0x1F NOT PUSH1 0x1F DUP3 ADD AND DUP3 ADD DUP1 PUSH1 0x40 MSTORE POP DUP2 ADD SWAP1 PUSH2 0x842 SWAP2 SWAP1 PUSH2 0x2E86 JUMP JUMPDEST SWAP1 POP DUP4 DUP2 LT ISZERO PUSH2 0x88B JUMPI DUP1 DUP5 PUSH1 0x40 MLOAD PUSH32 0x2A1B2DD800000000000000000000000000000000000000000000000000000000 DUP2 MSTORE PUSH1 0x4 ADD PUSH2 0x882 SWAP3 SWAP2 SWAP1 PUSH2 0x2EB1 JUMP JUMPDEST PUSH1 0x40 MLOAD DUP1 SWAP2 SUB SWAP1 REVERT JUMPDEST PUSH2 0x8B8 CALLER ADDRESS DUP7 DUP6 PUSH20 0xFFFFFFFFFFFFFFFFFFFFFFFFFFFFFFFFFFFFFFFF AND PUSH2 0x1C4E SWAP1 SWAP4 SWAP3 SWAP2 SWAP1 PUSH4 0xFFFFFFFF AND JUMP JUMPDEST POP POP JUMPDEST PUSH1 0x40 MLOAD DUP1 PUSH1 0x80 ADD PUSH1 0x40 MSTORE DUP1 DUP6 PUSH20 0xFFFFFFFFFFFFFFFFFFFFFFFFFFFFFFFFFFFFFFFF AND DUP2 MSTORE PUSH1 0x20 ADD DUP5 PUSH20 0xFFFFFFFFFFFFFFFFFFFFFFFFFFFFFFFFFFFFFFFF AND DUP2 MSTORE PUSH1 0x20 ADD DUP4 DUP2 MSTORE PUSH1 0x20 ADD DUP3 PUSH8 0xFFFFFFFFFFFFFFFF AND DUP2 MSTORE POP PUSH1 0xD PUSH0 DUP4 PUSH8 0xFFFFFFFFFFFFFFFF AND PUSH8 0xFFFFFFFFFFFFFFFF AND DUP2 MSTORE PUSH1 0x20 ADD SWAP1 DUP2 MSTORE PUSH1 0x20 ADD PUSH0 KECCAK256 PUSH0 DUP3 ADD MLOAD DUP2 PUSH0 ADD PUSH0 PUSH2 0x100 EXP DUP2 SLOAD DUP2 PUSH20 0xFFFFFFFFFFFFFFFFFFFFFFFFFFFFFFFFFFFFFFFF MUL NOT AND SWAP1 DUP4 PUSH20 0xFFFFFFFFFFFFFFFFFFFFFFFFFFFFFFFFFFFFFFFF AND MUL OR SWAP1 SSTORE POP PUSH1 0x20 DUP3 ADD MLOAD DUP2 PUSH1 0x1 ADD PUSH0 PUSH2 0x100 EXP DUP2 SLOAD DUP2 PUSH20 0xFFFFFFFFFFFFFFFFFFFFFFFFFFFFFFFFFFFFFFFF MUL NOT AND SWAP1 DUP4 PUSH20 0xFFFFFFFFFFFFFFFFFFFFFFFFFFFFFFFFFFFFFFFF AND MUL OR SWAP1 SSTORE POP PUSH1 0x40 DUP3 ADD MLOAD DUP2 PUSH1 0x2 ADD SSTORE PUSH1 0x60 DUP3 ADD MLOAD DUP2 PUSH1 0x3 ADD PUSH0 PUSH2 0x100 EXP DUP2 SLOAD DUP2 PUSH8 0xFFFFFFFFFFFFFFFF MUL NOT AND SWAP1 DUP4 PUSH8 0xFFFFFFFFFFFFFFFF AND MUL OR SWAP1 SSTORE POP SWAP1 POP POP DUP1 PUSH8 0xFFFFFFFFFFFFFFFF AND PUSH32 0x666763F91F5D72CF0042EED6507B970A82544C60C6F93DAF652AE7D0DCFD4F07 CALLER DUP7 DUP7 DUP7 PUSH1 0x40 MLOAD PUSH2 0xA3C SWAP5 SWAP4 SWAP3 SWAP2 SWAP1 PUSH2 0x2ED8 JUMP JUMPDEST PUSH1 0x40 MLOAD DUP1 SWAP2 SUB SWAP1 LOG2 POP PUSH2 0xA4D PUSH2 0x1CD0 JUMP JUMPDEST POP POP POP JUMP JUMPDEST PUSH1 0x5 PUSH0 SWAP1 SLOAD SWAP1 PUSH2 0x100 EXP SWAP1 DIV PUSH8 0xFFFFFFFFFFFFFFFF AND DUP2 JUMP JUMPDEST PUSH1 0xE PUSH1 0x20 MSTORE DUP1 PUSH0 MSTORE PUSH1 0x40 PUSH0 KECCAK256 PUSH0 SWAP2 POP SWAP1 POP DUP1 PUSH0 ADD PUSH0 SWAP1 SLOAD SWAP1 PUSH2 0x100 EXP SWAP1 DIV PUSH20 0xFFFFFFFFFFFFFFFFFFFFFFFFFFFFFFFFFFFFFFFF AND SWAP1 DUP1 PUSH1 0x1 ADD PUSH0 SWAP1 SLOAD SWAP1 PUSH2 0x100 EXP SWAP1 DIV PUSH20 0xFFFFFFFFFFFFFFFFFFFFFFFFFFFFFFFFFFFFFFFF AND SWAP1 DUP1 PUSH1 0x2 ADD PUSH0 SWAP1 SLOAD SWAP1 PUSH2 0x100 EXP SWAP1 DIV PUSH16 0xFFFFFFFFFFFFFFFFFFFFFFFFFFFFFFFF AND SWAP1 DUP1 PUSH1 0x2 ADD PUSH1 0x10 SWAP1 SLOAD SWAP1 PUSH2 0x100 EXP SWAP1 DIV PUSH8 0xFFFFFFFFFFFFFFFF AND SWAP1 POP DUP5 JUMP JUMPDEST PUSH1 0x8 PUSH0 DUP3 PUSH20 0xFFFFFFFFFFFFFFFFFFFFFFFFFFFFFFFFFFFFFFFF AND PUSH20 0xFFFFFFFFFFFFFFFFFFFFFFFFFFFFFFFFFFFFFFFF AND DUP2 MSTORE PUSH1 0x20 ADD SWAP1 DUP2 MSTORE PUSH1 0x20 ADD PUSH0 KECCAK256 PUSH0 SWAP1 SLOAD SWAP1 PUSH2 0x100 EXP SWAP1 DIV PUSH1 0xFF AND PUSH2 0xB8D JUMPI PUSH1 0x40 MLOAD PUSH32 0x8C379A000000000000000000000000000000000000000000000000000000000 DUP2 MSTORE PUSH1 0x4 ADD PUSH2 0xB84 SWAP1 PUSH2 0x2F75 JUMP JUMPDEST PUSH1 0x40 MLOAD DUP1 SWAP2 SUB SWAP1 REVERT JUMPDEST PUSH0 PUSH1 0x8 PUSH0 DUP4 PUSH20 0xFFFFFFFFFFFFFFFFFFFFFFFFFFFFFFFFFFFFFFFF AND PUSH20 0xFFFFFFFFFFFFFFFFFFFFFFFFFFFFFFFFFFFFFFFF AND DUP2 MSTORE PUSH1 0x20 ADD SWAP1 DUP2 MSTORE PUSH1 0x20 ADD PUSH0 KECCAK256 PUSH0 PUSH2 0x100 EXP DUP2 SLOAD DUP2 PUSH1 0xFF MUL NOT AND SWAP1 DUP4 ISZERO ISZERO MUL OR SWAP1 SSTORE POP PUSH0 PUSH1 0x9 PUSH0 DUP4 PUSH20 0xFFFFFFFFFFFFFFFFFFFFFFFFFFFFFFFFFFFFFFFF AND PUSH20 0xFFFFFFFFFFFFFFFFFFFFFFFFFFFFFFFFFFFFFFFF AND DUP2 MSTORE PUSH1 0x20 ADD SWAP1 DUP2 MSTORE PUSH1 0x20 ADD PUSH0 KECCAK256 PUSH0 PUSH2 0x100 EXP DUP2 SLOAD DUP2 PUSH1 0xFF MUL NOT AND SWAP1 DUP4 ISZERO ISZERO MUL OR SWAP1 SSTORE POP PUSH32 0xFCC700E01DFBA1D69E020718052F56A2D2F5A9A37AF6FAE0F41D6D9A69191219 DUP2 PUSH0 DUP1 PUSH1 0x40 MLOAD PUSH2 0xC68 SWAP4 SWAP3 SWAP2 SWAP1 PUSH2 0x2F93 JUMP JUMPDEST PUSH1 0x40 MLOAD DUP1 SWAP2 SUB SWAP1 LOG1 POP JUMP JUMPDEST PUSH1 0x2 PUSH0 SWAP1 SLOAD SWAP1 PUSH2 0x100 EXP SWAP1 DIV PUSH20 0xFFFFFFFFFFFFFFFFFFFFFFFFFFFFFFFFFFFFFFFF AND DUP2 JUMP JUMPDEST PUSH0 PUSH20 0xFFFFFFFFFFFFFFFFFFFFFFFFFFFFFFFFFFFFFFFF AND DUP2 PUSH20 0xFFFFFFFFFFFFFFFFFFFFFFFFFFFFFFFFFFFFFFFF AND SUB PUSH2 0xCFD JUMPI PUSH1 0x40 MLOAD PUSH32 0x10C40E8C00000000000000000000000000000000000000000000000000000000 DUP2 MSTORE PUSH1 0x4 ADD PUSH1 0x40 MLOAD DUP1 SWAP2 SUB SWAP1 REVERT JUMPDEST PUSH32 0xDDDA8BE1021AB00F63727C5C5504AD96B163269770A3FE8AC3DD0BCB40208DF PUSH1 0x3 PUSH0 SWAP1 SLOAD SWAP1 PUSH2 0x100 EXP SWAP1 DIV PUSH20 0xFFFFFFFFFFFFFFFFFFFFFFFFFFFFFFFFFFFFFFFF AND DUP3 PUSH1 0x40 MLOAD PUSH2 0xD4F SWAP3 SWAP2 SWAP1 PUSH2 0x2E4B JUMP JUMPDEST PUSH1 0x40 MLOAD DUP1 SWAP2 SUB SWAP1 LOG1 DUP1 PUSH1 0x3 PUSH0 PUSH2 0x100 EXP DUP2 SLOAD DUP2 PUSH20 0xFFFFFFFFFFFFFFFFFFFFFFFFFFFFFFFFFFFFFFFF MUL NOT AND SWAP1 DUP4 PUSH20 0xFFFFFFFFFFFFFFFFFFFFFFFFFFFFFFFFFFFFFFFF AND MUL OR SWAP1 SSTORE POP POP JUMP JUMPDEST PUSH1 0x4 SLOAD DUP2 JUMP JUMPDEST PUSH1 0x9 PUSH1 0x20 MSTORE DUP1 PUSH0 MSTORE PUSH1 0x40 PUSH0 KECCAK256 PUSH0 SWAP2 POP SLOAD SWAP1 PUSH2 0x100 EXP SWAP1 DIV PUSH1 0xFF AND DUP2 JUMP JUMPDEST PUSH1 0x8 PUSH1 0x20 MSTORE DUP1 PUSH0 MSTORE PUSH1 0x40 PUSH0 KECCAK256 PUSH0 SWAP2 POP SLOAD SWAP1 PUSH2 0x100 EXP SWAP1 DIV PUSH1 0xFF AND DUP2 JUMP JUMPDEST PUSH2 0xDE3 DUP2 PUSH2 0x1CD9 JUMP JUMPDEST POP JUMP JUMPDEST PUSH2 0xDEE PUSH2 0x1EC3 JUMP JUMPDEST PUSH2 0xDF7 PUSH0 PUSH2 0x1F4A JUMP JUMPDEST JUMP JUMPDEST PUSH1 0x6 SLOAD DUP2 JUMP JUMPDEST PUSH1 0x3 PUSH0 SWAP1 SLOAD SWAP1 PUSH2 0x100 EXP SWAP1 DIV PUSH20 0xFFFFFFFFFFFFFFFFFFFFFFFFFFFFFFFFFFFFFFFF AND DUP2 JUMP JUMPDEST PUSH2 0xE2C PUSH2 0x1C08 JUMP JUMPDEST PUSH1 0x3 PUSH0 SWAP1 SLOAD SWAP1 PUSH2 0x100 EXP SWAP1 DIV PUSH20 0xFFFFFFFFFFFFFFFFFFFFFFFFFFFFFFFFFFFFFFFF AND PUSH20 0xFFFFFFFFFFFFFFFFFFFFFFFFFFFFFFFFFFFFFFFF AND PUSH4 0x92C15BC DUP6 DUP6 PUSH1 0x4 SLOAD DUP7 DUP7 PUSH1 0x40 MLOAD DUP7 PUSH4 0xFFFFFFFF AND PUSH1 0xE0 SHL DUP2 MSTORE PUSH1 0x4 ADD PUSH2 0xE90 SWAP6 SWAP5 SWAP4 SWAP3 SWAP2 SWAP1 PUSH2 0x3022 JUMP JUMPDEST PUSH0 PUSH1 0x40 MLOAD DUP1 DUP4 SUB DUP2 DUP7 DUP1 EXTCODESIZE ISZERO DUP1 ISZERO PUSH2 0xEA6 JUMPI PUSH0 DUP1 REVERT JUMPDEST POP GAS STATICCALL SWAP3 POP POP POP DUP1 ISZERO PUSH2 0xEB7 JUMPI POP PUSH1 0x1 JUMPDEST PUSH2 0xF93 JUMPI PUSH2 0xEC3 PUSH2 0x3075 JUMP JUMPDEST DUP1 PUSH4 0x8C379A0 SUB PUSH2 0xF22 JUMPI POP PUSH2 0xED7 PUSH2 0x30F2 JUMP JUMPDEST DUP1 PUSH2 0xEE2 JUMPI POP PUSH2 0xF24 JUMP JUMPDEST PUSH1 0x4 SLOAD PUSH32 0x1B274BAC0E8BB49D3AD90709790A3BF2AA1B86313B4C1A7AE5AF9CB7832F7204 DUP3 PUSH1 0x40 MLOAD PUSH2 0xF14 SWAP2 SWAP1 PUSH2 0x31EB JUMP JUMPDEST PUSH1 0x40 MLOAD DUP1 SWAP2 SUB SWAP1 LOG2 POP PUSH2 0xF8E JUMP JUMPDEST POP JUMPDEST RETURNDATASIZE DUP1 PUSH0 DUP2 EQ PUSH2 0xF4E JUMPI PUSH1 0x40 MLOAD SWAP2 POP PUSH1 0x1F NOT PUSH1 0x3F RETURNDATASIZE ADD AND DUP3 ADD PUSH1 0x40 MSTORE RETURNDATASIZE DUP3 MSTORE RETURNDATASIZE PUSH0 PUSH1 0x20 DUP5 ADD RETURNDATACOPY PUSH2 0xF53 JUMP JUMPDEST PUSH1 0x60 SWAP2 POP JUMPDEST POP PUSH1 0x4 SLOAD PUSH32 0x1B274BAC0E8BB49D3AD90709790A3BF2AA1B86313B4C1A7AE5AF9CB7832F7204 PUSH1 0x40 MLOAD PUSH2 0xF84 SWAP1 PUSH2 0x3255 JUMP JUMPDEST PUSH1 0x40 MLOAD DUP1 SWAP2 SUB SWAP1 LOG2 POP JUMPDEST PUSH2 0x1027 JUMP JUMPDEST PUSH2 0xF9D DUP3 DUP3 PUSH2 0x200B JUMP JUMPDEST PUSH1 0x4 SLOAD PUSH32 0x2A0CBA4A87B6AEE1AE5CE93610A04B1F87DD14B381544E4C6C9E336A1B42D603 PUSH1 0x2 DUP5 DUP5 PUSH1 0x40 MLOAD PUSH2 0xFD3 SWAP3 SWAP2 SWAP1 PUSH2 0x32A1 JUMP JUMPDEST PUSH1 0x20 PUSH1 0x40 MLOAD DUP1 DUP4 SUB DUP2 DUP6 GAS STATICCALL ISZERO DUP1 ISZERO PUSH2 0xFEE JUMPI RETURNDATASIZE PUSH0 DUP1 RETURNDATACOPY RETURNDATASIZE PUSH0 REVERT JUMPDEST POP POP POP PUSH1 0x40 MLOAD RETURNDATASIZE PUSH1 0x1F NOT PUSH1 0x1F DUP3 ADD AND DUP3 ADD DUP1 PUSH1 0x40 MSTORE POP DUP2 ADD SWAP1 PUSH2 0x1011 SWAP2 SWAP1 PUSH2 0x32CD JUMP JUMPDEST PUSH1 0x40 MLOAD PUSH2 0x101E SWAP2 SWAP1 PUSH2 0x2A4E JUMP JUMPDEST PUSH1 0x40 MLOAD DUP1 SWAP2 SUB SWAP1 LOG2 JUMPDEST PUSH2 0x102F PUSH2 0x1CD0 JUMP JUMPDEST POP POP POP POP JUMP JUMPDEST PUSH1 0xD PUSH1 0x20 MSTORE DUP1 PUSH0 MSTORE PUSH1 0x40 PUSH0 KECCAK256 PUSH0 SWAP2 POP SWAP1 POP DUP1 PUSH0 ADD PUSH0 SWAP1 SLOAD SWAP1 PUSH2 0x100 EXP SWAP1 DIV PUSH20 0xFFFFFFFFFFFFFFFFFFFFFFFFFFFFFFFFFFFFFFFF AND SWAP1 DUP1 PUSH1 0x1 ADD PUSH0 SWAP1 SLOAD SWAP1 PUSH2 0x100 EXP SWAP1 DIV PUSH20 0xFFFFFFFFFFFFFFFFFFFFFFFFFFFFFFFFFFFFFFFF AND SWAP1 DUP1 PUSH1 0x2 ADD SLOAD SWAP1 DUP1 PUSH1 0x3 ADD PUSH0 SWAP1 SLOAD SWAP1 PUSH2 0x100 EXP SWAP1 DIV PUSH8 0xFFFFFFFFFFFFFFFF AND SWAP1 POP DUP5 JUMP JUMPDEST PUSH0 DUP1 PUSH0 SWAP1 SLOAD SWAP1 PUSH2 0x100 EXP SWAP1 DIV PUSH20 0xFFFFFFFFFFFFFFFFFFFFFFFFFFFFFFFFFFFFFFFF AND SWAP1 POP SWAP1 JUMP JUMPDEST PUSH0 PUSH1 0xC PUSH0 SWAP1 SLOAD SWAP1 PUSH2 0x100 EXP SWAP1 DIV PUSH8 0xFFFFFFFFFFFFFFFF AND SWAP1 POP SWAP1 JUMP JUMPDEST PUSH0 DUP1 SHL DUP2 SUB PUSH2 0x1130 JUMPI PUSH1 0x40 MLOAD PUSH32 0xAC2B81600000000000000000000000000000000000000000000000000000000 DUP2 MSTORE PUSH1 0x4 ADD PUSH1 0x40 MLOAD DUP1 SWAP2 SUB SWAP1 REVERT JUMPDEST DUP1 PUSH1 0x4 DUP2 SWAP1 SSTORE POP POP JUMP JUMPDEST PUSH2 0x1142 PUSH2 0x1EC3 JUMP JUMPDEST PUSH0 PUSH20 0xFFFFFFFFFFFFFFFFFFFFFFFFFFFFFFFFFFFFFFFF AND DUP3 PUSH20 0xFFFFFFFFFFFFFFFFFFFFFFFFFFFFFFFFFFFFFFFF AND SUB PUSH2 0x11C5 JUMPI PUSH2 0x117D PUSH2 0x10B2 JUMP JUMPDEST PUSH20 0xFFFFFFFFFFFFFFFFFFFFFFFFFFFFFFFFFFFFFFFF AND PUSH2 0x8FC DUP3 SWAP1 DUP2 ISZERO MUL SWAP1 PUSH1 0x40 MLOAD PUSH0 PUSH1 0x40 MLOAD DUP1 DUP4 SUB DUP2 DUP6 DUP9 DUP9 CALL SWAP4 POP POP POP POP ISZERO DUP1 ISZERO PUSH2 0x11BF JUMPI RETURNDATASIZE PUSH0 DUP1 RETURNDATACOPY RETURNDATASIZE PUSH0 REVERT JUMPDEST POP PUSH2 0x11F8 JUMP JUMPDEST PUSH2 0x11F7 PUSH2 0x11D0 PUSH2 0x10B2 JUMP JUMPDEST DUP3 DUP5 PUSH20 0xFFFFFFFFFFFFFFFFFFFFFFFFFFFFFFFFFFFFFFFF AND PUSH2 0x267C SWAP1 SWAP3 SWAP2 SWAP1 PUSH4 0xFFFFFFFF AND JUMP JUMPDEST JUMPDEST POP POP JUMP JUMPDEST PUSH2 0x1204 PUSH2 0x1C08 JUMP JUMPDEST PUSH0 PUSH1 0xE PUSH0 DUP4 PUSH8 0xFFFFFFFFFFFFFFFF AND PUSH8 0xFFFFFFFFFFFFFFFF AND DUP2 MSTORE PUSH1 0x20 ADD SWAP1 DUP2 MSTORE PUSH1 0x20 ADD PUSH0 KECCAK256 SWAP1 POP PUSH0 DUP2 PUSH1 0x2 ADD PUSH1 0x10 SWAP1 SLOAD SWAP1 PUSH2 0x100 EXP SWAP1 DIV PUSH8 0xFFFFFFFFFFFFFFFF AND PUSH8 0xFFFFFFFFFFFFFFFF AND EQ DUP1 PUSH2 0x128B JUMPI POP PUSH1 0xA PUSH0 DUP4 PUSH8 0xFFFFFFFFFFFFFFFF AND PUSH8 0xFFFFFFFFFFFFFFFF AND DUP2 MSTORE PUSH1 0x20 ADD SWAP1 DUP2 MSTORE PUSH1 0x20 ADD PUSH0 KECCAK256 PUSH0 SWAP1 SLOAD SWAP1 PUSH2 0x100 EXP SWAP1 DIV PUSH1 0xFF AND ISZERO JUMPDEST ISZERO PUSH2 0x12C2 JUMPI PUSH1 0x40 MLOAD PUSH32 0x9AECF11200000000000000000000000000000000000000000000000000000000 DUP2 MSTORE PUSH1 0x4 ADD PUSH1 0x40 MLOAD DUP1 SWAP2 SUB SWAP1 REVERT JUMPDEST PUSH1 0xB PUSH0 DUP4 PUSH8 0xFFFFFFFFFFFFFFFF AND PUSH8 0xFFFFFFFFFFFFFFFF AND DUP2 MSTORE PUSH1 0x20 ADD SWAP1 DUP2 MSTORE PUSH1 0x20 ADD PUSH0 KECCAK256 PUSH0 SWAP1 SLOAD SWAP1 PUSH2 0x100 EXP SWAP1 DIV PUSH1 0xFF AND ISZERO PUSH2 0x132B JUMPI PUSH1 0x40 MLOAD PUSH32 0x247FF34500000000000000000000000000000000000000000000000000000000 DUP2 MSTORE PUSH1 0x4 ADD PUSH1 0x40 MLOAD DUP1 SWAP2 SUB SWAP1 REVERT JUMPDEST PUSH0 DUP2 PUSH1 0x2 ADD PUSH0 SWAP1 SLOAD SWAP1 PUSH2 0x100 EXP SWAP1 DIV PUSH16 0xFFFFFFFFFFFFFFFFFFFFFFFFFFFFFFFF AND SWAP1 POP PUSH0 DUP3 PUSH1 0x1 ADD PUSH0 SWAP1 SLOAD SWAP1 PUSH2 0x100 EXP SWAP1 DIV PUSH20 0xFFFFFFFFFFFFFFFFFFFFFFFFFFFFFFFFFFFFFFFF AND SWAP1 POP PUSH0 PUSH20 0xFFFFFFFFFFFFFFFFFFFFFFFFFFFFFFFFFFFFFFFF AND DUP2 PUSH20 0xFFFFFFFFFFFFFFFFFFFFFFFFFFFFFFFFFFFFFFFF AND SUB PUSH2 0x1458 JUMPI PUSH1 0x2 PUSH0 SWAP1 SLOAD SWAP1 PUSH2 0x100 EXP SWAP1 DIV PUSH20 0xFFFFFFFFFFFFFFFFFFFFFFFFFFFFFFFFFFFFFFFF AND PUSH20 0xFFFFFFFFFFFFFFFFFFFFFFFFFFFFFFFFFFFFFFFF AND PUSH4 0x40C10F19 DUP5 PUSH0 ADD PUSH0 SWAP1 SLOAD SWAP1 PUSH2 0x100 EXP SWAP1 DIV PUSH20 0xFFFFFFFFFFFFFFFFFFFFFFFFFFFFFFFFFFFFFFFF AND DUP5 PUSH1 0x40 MLOAD DUP4 PUSH4 0xFFFFFFFF AND PUSH1 0xE0 SHL DUP2 MSTORE PUSH1 0x4 ADD PUSH2 0x1426 SWAP3 SWAP2 SWAP1 PUSH2 0x3328 JUMP JUMPDEST PUSH0 PUSH1 0x40 MLOAD DUP1 DUP4 SUB DUP2 PUSH0 DUP8 DUP1 EXTCODESIZE ISZERO DUP1 ISZERO PUSH2 0x143D JUMPI PUSH0 DUP1 REVERT JUMPDEST POP GAS CALL ISZERO DUP1 ISZERO PUSH2 0x144F JUMPI RETURNDATASIZE PUSH0 DUP1 RETURNDATACOPY RETURNDATASIZE PUSH0 REVERT JUMPDEST POP POP POP POP PUSH2 0x161D JUMP JUMPDEST PUSH1 0x8 PUSH0 DUP3 PUSH20 0xFFFFFFFFFFFFFFFFFFFFFFFFFFFFFFFFFFFFFFFF AND PUSH20 0xFFFFFFFFFFFFFFFFFFFFFFFFFFFFFFFFFFFFFFFF AND DUP2 MSTORE PUSH1 0x20 ADD SWAP1 DUP2 MSTORE PUSH1 0x20 ADD PUSH0 KECCAK256 PUSH0 SWAP1 SLOAD SWAP1 PUSH2 0x100 EXP SWAP1 DIV PUSH1 0xFF AND PUSH2 0x14D8 JUMPI PUSH1 0x40 MLOAD PUSH32 0x6A17288200000000000000000000000000000000000000000000000000000000 DUP2 MSTORE PUSH1 0x4 ADD PUSH1 0x40 MLOAD DUP1 SWAP2 SUB SWAP1 REVERT JUMPDEST PUSH1 0x9 PUSH0 DUP3 PUSH20 0xFFFFFFFFFFFFFFFFFFFFFFFFFFFFFFFFFFFFFFFF AND PUSH20 0xFFFFFFFFFFFFFFFFFFFFFFFFFFFFFFFFFFFFFFFF AND DUP2 MSTORE PUSH1 0x20 ADD SWAP1 DUP2 MSTORE PUSH1 0x20 ADD PUSH0 KECCAK256 PUSH0 SWAP1 SLOAD SWAP1 PUSH2 0x100 EXP SWAP1 DIV PUSH1 0xFF AND ISZERO PUSH2 0x1564 JUMPI DUP1 PUSH1 0x40 MLOAD PUSH32 0x1FAC2D7800000000000000000000000000000000000000000000000000000000 DUP2 MSTORE PUSH1 0x4 ADD PUSH2 0x155B SWAP2 SWAP1 PUSH2 0x2C04 JUMP JUMPDEST PUSH1 0x40 MLOAD DUP1 SWAP2 SUB SWAP1 REVERT JUMPDEST PUSH0 DUP2 PUSH20 0xFFFFFFFFFFFFFFFFFFFFFFFFFFFFFFFFFFFFFFFF AND EXTCODESIZE GT PUSH2 0x15BD JUMPI PUSH1 0x40 MLOAD PUSH32 0x8C379A000000000000000000000000000000000000000000000000000000000 DUP2 MSTORE PUSH1 0x4 ADD PUSH2 0x15B4 SWAP1 PUSH2 0x3399 JUMP JUMPDEST PUSH1 0x40 MLOAD DUP1 SWAP2 SUB SWAP1 REVERT JUMPDEST PUSH2 0x161C DUP4 PUSH0 ADD PUSH0 SWAP1 SLOAD SWAP1 PUSH2 0x100 EXP SWAP1 DIV PUSH20 0xFFFFFFFFFFFFFFFFFFFFFFFFFFFFFFFFFFFFFFFF AND DUP4 PUSH16 0xFFFFFFFFFFFFFFFFFFFFFFFFFFFFFFFF AND DUP4 PUSH20 0xFFFFFFFFFFFFFFFFFFFFFFFFFFFFFFFFFFFFFFFF AND PUSH2 0x267C SWAP1 SWAP3 SWAP2 SWAP1 PUSH4 0xFFFFFFFF AND JUMP JUMPDEST JUMPDEST PUSH1 0x1 PUSH1 0xB PUSH0 DUP7 PUSH8 0xFFFFFFFFFFFFFFFF AND PUSH8 0xFFFFFFFFFFFFFFFF AND DUP2 MSTORE PUSH1 0x20 ADD SWAP1 DUP2 MSTORE PUSH1 0x20 ADD PUSH0 KECCAK256 PUSH0 PUSH2 0x100 EXP DUP2 SLOAD DUP2 PUSH1 0xFF MUL NOT AND SWAP1 DUP4 ISZERO ISZERO MUL OR SWAP1 SSTORE POP DUP4 PUSH8 0xFFFFFFFFFFFFFFFF AND PUSH32 0x178AEB03A9E919223A68859BE2922C17FB6FA05B5DBF80E3FE785EA3EED83C4 DUP5 PUSH0 ADD PUSH0 SWAP1 SLOAD SWAP1 PUSH2 0x100 EXP SWAP1 DIV PUSH20 0xFFFFFFFFFFFFFFFFFFFFFFFFFFFFFFFFFFFFFFFF AND DUP6 PUSH1 0x1 ADD PUSH0 SWAP1 SLOAD SWAP1 PUSH2 0x100 EXP SWAP1 DIV PUSH20 0xFFFFFFFFFFFFFFFFFFFFFFFFFFFFFFFFFFFFFFFF AND DUP6 TIMESTAMP PUSH1 0x40 MLOAD PUSH2 0x16DF SWAP5 SWAP4 SWAP3 SWAP2 SWAP1 PUSH2 0x33B7 JUMP JUMPDEST PUSH1 0x40 MLOAD DUP1 SWAP2 SUB SWAP1 LOG2 POP POP POP PUSH2 0x16F2 PUSH2 0x1CD0 JUMP JUMPDEST POP JUMP JUMPDEST PUSH0 PUSH20 0xFFFFFFFFFFFFFFFFFFFFFFFFFFFFFFFFFFFFFFFF AND DUP2 PUSH20 0xFFFFFFFFFFFFFFFFFFFFFFFFFFFFFFFFFFFFFFFF AND SUB PUSH2 0x175A JUMPI PUSH1 0x40 MLOAD PUSH32 0x1EB00B0600000000000000000000000000000000000000000000000000000000 DUP2 MSTORE PUSH1 0x4 ADD PUSH1 0x40 MLOAD DUP1 SWAP2 SUB SWAP1 REVERT JUMPDEST PUSH32 0x77EB83E5A99D4C074EB700F13AC00FF604C6325FE03FC8720FA7AE2B5909387D PUSH1 0x2 PUSH0 SWAP1 SLOAD SWAP1 PUSH2 0x100 EXP SWAP1 DIV PUSH20 0xFFFFFFFFFFFFFFFFFFFFFFFFFFFFFFFFFFFFFFFF AND DUP3 PUSH1 0x40 MLOAD PUSH2 0x17AC SWAP3 SWAP2 SWAP1 PUSH2 0x2E4B JUMP JUMPDEST PUSH1 0x40 MLOAD DUP1 SWAP2 SUB SWAP1 LOG1 DUP1 PUSH1 0x2 PUSH0 PUSH2 0x100 EXP DUP2 SLOAD DUP2 PUSH20 0xFFFFFFFFFFFFFFFFFFFFFFFFFFFFFFFFFFFFFFFF MUL NOT AND SWAP1 DUP4 PUSH20 0xFFFFFFFFFFFFFFFFFFFFFFFFFFFFFFFFFFFFFFFF AND MUL OR SWAP1 SSTORE POP POP JUMP JUMPDEST PUSH0 PUSH1 0xB PUSH0 DUP4 PUSH8 0xFFFFFFFFFFFFFFFF AND PUSH8 0xFFFFFFFFFFFFFFFF AND DUP2 MSTORE PUSH1 0x20 ADD SWAP1 DUP2 MSTORE PUSH1 0x20 ADD PUSH0 KECCAK256 PUSH0 SWAP1 SLOAD SWAP1 PUSH2 0x100 EXP SWAP1 DIV PUSH1 0xFF AND SWAP1 POP SWAP2 SWAP1 POP JUMP JUMPDEST DUP1 PUSH1 0x6 DUP2 SWAP1 SSTORE POP POP JUMP JUMPDEST PUSH2 0x1843 PUSH2 0x1C08 JUMP JUMPDEST PUSH1 0x3 PUSH0 SWAP1 SLOAD SWAP1 PUSH2 0x100 EXP SWAP1 DIV PUSH20 0xFFFFFFFFFFFFFFFFFFFFFFFFFFFFFFFFFFFFFFFF AND PUSH20 0xFFFFFFFFFFFFFFFFFFFFFFFFFFFFFFFFFFFFFFFF AND PUSH4 0x92C15BC DUP8 DUP8 PUSH1 0x4 SLOAD DUP9 DUP9 PUSH1 0x40 MLOAD DUP7 PUSH4 0xFFFFFFFF AND PUSH1 0xE0 SHL DUP2 MSTORE PUSH1 0x4 ADD PUSH2 0x18A7 SWAP6 SWAP5 SWAP4 SWAP3 SWAP2 SWAP1 PUSH2 0x3022 JUMP JUMPDEST PUSH0 PUSH1 0x40 MLOAD DUP1 DUP4 SUB DUP2 DUP7 DUP1 EXTCODESIZE ISZERO DUP1 ISZERO PUSH2 0x18BD JUMPI PUSH0 DUP1 REVERT JUMPDEST POP GAS STATICCALL SWAP3 POP POP POP DUP1 ISZERO PUSH2 0x18CE JUMPI POP PUSH1 0x1 JUMPDEST PUSH2 0x19AA JUMPI PUSH2 0x18DA PUSH2 0x3075 JUMP JUMPDEST DUP1 PUSH4 0x8C379A0 SUB PUSH2 0x1939 JUMPI POP PUSH2 0x18EE PUSH2 0x30F2 JUMP JUMPDEST DUP1 PUSH2 0x18F9 JUMPI POP PUSH2 0x193B JUMP JUMPDEST PUSH1 0x4 SLOAD PUSH32 0x1B274BAC0E8BB49D3AD90709790A3BF2AA1B86313B4C1A7AE5AF9CB7832F7204 DUP3 PUSH1 0x40 MLOAD PUSH2 0x192B SWAP2 SWAP1 PUSH2 0x31EB JUMP JUMPDEST PUSH1 0x40 MLOAD DUP1 SWAP2 SUB SWAP1 LOG2 POP PUSH2 0x19A5 JUMP JUMPDEST POP JUMPDEST RETURNDATASIZE DUP1 PUSH0 DUP2 EQ PUSH2 0x1965 JUMPI PUSH1 0x40 MLOAD SWAP2 POP PUSH1 0x1F NOT PUSH1 0x3F RETURNDATASIZE ADD AND DUP3 ADD PUSH1 0x40 MSTORE RETURNDATASIZE DUP3 MSTORE RETURNDATASIZE PUSH0 PUSH1 0x20 DUP5 ADD RETURNDATACOPY PUSH2 0x196A JUMP JUMPDEST PUSH1 0x60 SWAP2 POP JUMPDEST POP PUSH1 0x4 SLOAD PUSH32 0x1B274BAC0E8BB49D3AD90709790A3BF2AA1B86313B4C1A7AE5AF9CB7832F7204 PUSH1 0x40 MLOAD PUSH2 0x199B SWAP1 PUSH2 0x3255 JUMP JUMPDEST PUSH1 0x40 MLOAD DUP1 SWAP2 SUB SWAP1 LOG2 POP JUMPDEST PUSH2 0x1A3E JUMP JUMPDEST PUSH2 0x19B4 DUP3 DUP3 PUSH2 0x200B JUMP JUMPDEST PUSH1 0x4 SLOAD PUSH32 0x2A0CBA4A87B6AEE1AE5CE93610A04B1F87DD14B381544E4C6C9E336A1B42D603 PUSH1 0x2 DUP7 DUP7 PUSH1 0x40 MLOAD PUSH2 0x19EA SWAP3 SWAP2 SWAP1 PUSH2 0x32A1 JUMP JUMPDEST PUSH1 0x20 PUSH1 0x40 MLOAD DUP1 DUP4 SUB DUP2 DUP6 GAS STATICCALL ISZERO DUP1 ISZERO PUSH2 0x1A05 JUMPI RETURNDATASIZE PUSH0 DUP1 RETURNDATACOPY RETURNDATASIZE PUSH0 REVERT JUMPDEST POP POP POP PUSH1 0x40 MLOAD RETURNDATASIZE PUSH1 0x1F NOT PUSH1 0x1F DUP3 ADD AND DUP3 ADD DUP1 PUSH1 0x40 MSTORE POP DUP2 ADD SWAP1 PUSH2 0x1A28 SWAP2 SWAP1 PUSH2 0x32CD JUMP JUMPDEST PUSH1 0x40 MLOAD PUSH2 0x1A35 SWAP2 SWAP1 PUSH2 0x2A4E JUMP JUMPDEST PUSH1 0x40 MLOAD DUP1 SWAP2 SUB SWAP1 LOG2 JUMPDEST PUSH2 0x1A46 PUSH2 0x1CD0 JUMP JUMPDEST POP POP POP POP POP POP JUMP JUMPDEST PUSH1 0x7 PUSH0 SWAP1 SLOAD SWAP1 PUSH2 0x100 EXP SWAP1 DIV PUSH8 0xFFFFFFFFFFFFFFFF AND DUP2 JUMP JUMPDEST PUSH1 0x8 PUSH0 DUP4 PUSH20 0xFFFFFFFFFFFFFFFFFFFFFFFFFFFFFFFFFFFFFFFF AND PUSH20 0xFFFFFFFFFFFFFFFFFFFFFFFFFFFFFFFFFFFFFFFF AND DUP2 MSTORE PUSH1 0x20 ADD SWAP1 DUP2 MSTORE PUSH1 0x20 ADD PUSH0 KECCAK256 PUSH0 SWAP1 SLOAD SWAP1 PUSH2 0x100 EXP SWAP1 DIV PUSH1 0xFF AND PUSH2 0x1AF0 JUMPI PUSH1 0x40 MLOAD PUSH32 0x8C379A000000000000000000000000000000000000000000000000000000000 DUP2 MSTORE PUSH1 0x4 ADD PUSH2 0x1AE7 SWAP1 PUSH2 0x2F75 JUMP JUMPDEST PUSH1 0x40 MLOAD DUP1 SWAP2 SUB SWAP1 REVERT JUMPDEST DUP1 PUSH1 0x9 PUSH0 DUP5 PUSH20 0xFFFFFFFFFFFFFFFFFFFFFFFFFFFFFFFFFFFFFFFF AND PUSH20 0xFFFFFFFFFFFFFFFFFFFFFFFFFFFFFFFFFFFFFFFF AND DUP2 MSTORE PUSH1 0x20 ADD SWAP1 DUP2 MSTORE PUSH1 0x20 ADD PUSH0 KECCAK256 PUSH0 PUSH2 0x100 EXP DUP2 SLOAD DUP2 PUSH1 0xFF MUL NOT AND SWAP1 DUP4 ISZERO ISZERO MUL OR SWAP1 SSTORE POP PUSH32 0xFCC700E01DFBA1D69E020718052F56A2D2F5A9A37AF6FAE0F41D6D9A69191219 DUP3 PUSH1 0x1 DUP4 PUSH1 0x40 MLOAD PUSH2 0x1B78 SWAP4 SWAP3 SWAP2 SWAP1 PUSH2 0x2F93 JUMP JUMPDEST PUSH1 0x40 MLOAD DUP1 SWAP2 SUB SWAP1 LOG1 POP POP JUMP JUMPDEST PUSH2 0x1B8C PUSH2 0x1EC3 JUMP JUMPDEST PUSH0 PUSH20 0xFFFFFFFFFFFFFFFFFFFFFFFFFFFFFFFFFFFFFFFF AND DUP2 PUSH20 0xFFFFFFFFFFFFFFFFFFFFFFFFFFFFFFFFFFFFFFFF AND SUB PUSH2 0x1BFC JUMPI PUSH0 PUSH1 0x40 MLOAD PUSH32 0x1E4FBDF700000000000000000000000000000000000000000000000000000000 DUP2 MSTORE PUSH1 0x4 ADD PUSH2 0x1BF3 SWAP2 SWAP1 PUSH2 0x2C04 JUMP JUMPDEST PUSH1 0x40 MLOAD DUP1 SWAP2 SUB SWAP1 REVERT JUMPDEST PUSH2 0x1C05 DUP2 PUSH2 0x1F4A JUMP JUMPDEST POP JUMP JUMPDEST PUSH1 0x2 PUSH1 0x1 SLOAD SUB PUSH2 0x1C44 JUMPI PUSH1 0x40 MLOAD PUSH32 0x3EE5AEB500000000000000000000000000000000000000000000000000000000 DUP2 MSTORE PUSH1 0x4 ADD PUSH1 0x40 MLOAD DUP1 SWAP2 SUB SWAP1 REVERT JUMPDEST PUSH1 0x2 PUSH1 0x1 DUP2 SWAP1 SSTORE POP JUMP JUMPDEST PUSH2 0x1CCA DUP5 DUP6 PUSH20 0xFFFFFFFFFFFFFFFFFFFFFFFFFFFFFFFFFFFFFFFF AND PUSH4 0x23B872DD DUP7 DUP7 DUP7 PUSH1 0x40 MLOAD PUSH1 0x24 ADD PUSH2 0x1C83 SWAP4 SWAP3 SWAP2 SWAP1 PUSH2 0x33FA JUMP JUMPDEST PUSH1 0x40 MLOAD PUSH1 0x20 DUP2 DUP4 SUB SUB DUP2 MSTORE SWAP1 PUSH1 0x40 MSTORE SWAP2 POP PUSH1 0xE0 SHL PUSH1 0x20 DUP3 ADD DUP1 MLOAD PUSH28 0xFFFFFFFFFFFFFFFFFFFFFFFFFFFFFFFFFFFFFFFFFFFFFFFFFFFFFFFF DUP4 DUP2 DUP4 AND OR DUP4 MSTORE POP POP POP POP PUSH2 0x26FB JUMP JUMPDEST POP POP POP POP JUMP JUMPDEST PUSH1 0x1 DUP1 DUP2 SWAP1 SSTORE POP JUMP JUMPDEST PUSH0 PUSH20 0xFFFFFFFFFFFFFFFFFFFFFFFFFFFFFFFFFFFFFFFF AND DUP2 PUSH20 0xFFFFFFFFFFFFFFFFFFFFFFFFFFFFFFFFFFFFFFFF AND SUB PUSH2 0x1D47 JUMPI PUSH1 0x40 MLOAD PUSH32 0x8C379A000000000000000000000000000000000000000000000000000000000 DUP2 MSTORE PUSH1 0x4 ADD PUSH2 0x1D3E SWAP1 PUSH2 0x3479 JUMP JUMPDEST PUSH1 0x40 MLOAD DUP1 SWAP2 SUB SWAP1 REVERT JUMPDEST PUSH1 0x2 PUSH0 SWAP1 SLOAD SWAP1 PUSH2 0x100 EXP SWAP1 DIV PUSH20 0xFFFFFFFFFFFFFFFFFFFFFFFFFFFFFFFFFFFFFFFF AND PUSH20 0xFFFFFFFFFFFFFFFFFFFFFFFFFFFFFFFFFFFFFFFF AND DUP2 PUSH20 0xFFFFFFFFFFFFFFFFFFFFFFFFFFFFFFFFFFFFFFFF AND SUB PUSH2 0x1DD6 JUMPI PUSH1 0x40 MLOAD PUSH32 0x8C379A000000000000000000000000000000000000000000000000000000000 DUP2 MSTORE PUSH1 0x4 ADD PUSH2 0x1DCD SWAP1 PUSH2 0x34E1 JUMP JUMPDEST PUSH1 0x40 MLOAD DUP1 SWAP2 SUB SWAP1 REVERT JUMPDEST PUSH0 DUP2 PUSH20 0xFFFFFFFFFFFFFFFFFFFFFFFFFFFFFFFFFFFFFFFF AND EXTCODESIZE GT PUSH2 0x1E2F JUMPI PUSH1 0x40 MLOAD PUSH32 0x8C379A000000000000000000000000000000000000000000000000000000000 DUP2 MSTORE PUSH1 0x4 ADD PUSH2 0x1E26 SWAP1 PUSH2 0x3549 JUMP JUMPDEST PUSH1 0x40 MLOAD DUP1 SWAP2 SUB SWAP1 REVERT JUMPDEST PUSH1 0x1 PUSH1 0x8 PUSH0 DUP4 PUSH20 0xFFFFFFFFFFFFFFFFFFFFFFFFFFFFFFFFFFFFFFFF AND PUSH20 0xFFFFFFFFFFFFFFFFFFFFFFFFFFFFFFFFFFFFFFFF AND DUP2 MSTORE PUSH1 0x20 ADD SWAP1 DUP2 MSTORE PUSH1 0x20 ADD PUSH0 KECCAK256 PUSH0 PUSH2 0x100 EXP DUP2 SLOAD DUP2 PUSH1 0xFF MUL NOT AND SWAP1 DUP4 ISZERO ISZERO MUL OR SWAP1 SSTORE POP PUSH32 0xFCC700E01DFBA1D69E020718052F56A2D2F5A9A37AF6FAE0F41D6D9A69191219 DUP2 PUSH1 0x1 PUSH0 PUSH1 0x40 MLOAD PUSH2 0x1EB8 SWAP4 SWAP3 SWAP2 SWAP1 PUSH2 0x2F93 JUMP JUMPDEST PUSH1 0x40 MLOAD DUP1 SWAP2 SUB SWAP1 LOG1 POP JUMP JUMPDEST PUSH2 0x1ECB PUSH2 0x2796 JUMP JUMPDEST PUSH20 0xFFFFFFFFFFFFFFFFFFFFFFFFFFFFFFFFFFFFFFFF AND PUSH2 0x1EE9 PUSH2 0x10B2 JUMP JUMPDEST PUSH20 0xFFFFFFFFFFFFFFFFFFFFFFFFFFFFFFFFFFFFFFFF AND EQ PUSH2 0x1F48 JUMPI PUSH2 0x1F0C PUSH2 0x2796 JUMP JUMPDEST PUSH1 0x40 MLOAD PUSH32 0x118CDAA700000000000000000000000000000000000000000000000000000000 DUP2 MSTORE PUSH1 0x4 ADD PUSH2 0x1F3F SWAP2 SWAP1 PUSH2 0x2C04 JUMP JUMPDEST PUSH1 0x40 MLOAD DUP1 SWAP2 SUB SWAP1 REVERT JUMPDEST JUMP JUMPDEST PUSH0 DUP1 PUSH0 SWAP1 SLOAD SWAP1 PUSH2 0x100 EXP SWAP1 DIV PUSH20 0xFFFFFFFFFFFFFFFFFFFFFFFFFFFFFFFFFFFFFFFF AND SWAP1 POP DUP2 PUSH0 DUP1 PUSH2 0x100 EXP DUP2 SLOAD DUP2 PUSH20 0xFFFFFFFFFFFFFFFFFFFFFFFFFFFFFFFFFFFFFFFF MUL NOT AND SWAP1 DUP4 PUSH20 0xFFFFFFFFFFFFFFFFFFFFFFFFFFFFFFFFFFFFFFFF AND MUL OR SWAP1 SSTORE POP DUP2 PUSH20 0xFFFFFFFFFFFFFFFFFFFFFFFFFFFFFFFFFFFFFFFF AND DUP2 PUSH20 0xFFFFFFFFFFFFFFFFFFFFFFFFFFFFFFFFFFFFFFFF AND PUSH32 0x8BE0079C531659141344CD1FD0A4F28419497F9722A3DAAFE3B4186F6B6457E0 PUSH1 0x40 MLOAD PUSH1 0x40 MLOAD DUP1 SWAP2 SUB SWAP1 LOG3 POP POP JUMP JUMPDEST PUSH0 DUP1 PUSH0 DUP5 DUP5 DUP2 ADD SWAP1 PUSH2 0x201D SWAP2 SWAP1 PUSH2 0x3786 JUMP JUMPDEST SWAP3 POP SWAP3 POP SWAP3 POP PUSH1 0x20 DUP4 MLOAD EQ ISZERO DUP1 PUSH2 0x2036 JUMPI POP PUSH1 0x20 DUP2 MLOAD EQ ISZERO JUMPDEST ISZERO PUSH2 0x206D JUMPI PUSH1 0x40 MLOAD PUSH32 0x6F7B6C0300000000000000000000000000000000000000000000000000000000 DUP2 MSTORE PUSH1 0x4 ADD PUSH1 0x40 MLOAD DUP1 SWAP2 SUB SWAP1 REVERT JUMPDEST PUSH0 DUP4 DUP1 PUSH1 0x20 ADD SWAP1 MLOAD DUP2 ADD SWAP1 PUSH2 0x2082 SWAP2 SWAP1 PUSH2 0x32CD JUMP JUMPDEST SWAP1 POP PUSH0 DUP3 DUP1 PUSH1 0x20 ADD SWAP1 MLOAD DUP2 ADD SWAP1 PUSH2 0x2099 SWAP2 SWAP1 PUSH2 0x32CD JUMP JUMPDEST SWAP1 POP PUSH1 0x6 SLOAD DUP2 SUB PUSH2 0x20D6 JUMPI PUSH1 0x40 MLOAD PUSH32 0xE2B1F19400000000000000000000000000000000000000000000000000000000 DUP2 MSTORE PUSH1 0x4 ADD PUSH1 0x40 MLOAD DUP1 SWAP2 SUB SWAP1 REVERT JUMPDEST PUSH0 DUP1 SHL DUP2 EQ ISZERO DUP1 ISZERO PUSH2 0x20EA JUMPI POP PUSH1 0x6 SLOAD DUP3 EQ ISZERO JUMPDEST ISZERO PUSH2 0x2121 JUMPI PUSH1 0x40 MLOAD PUSH32 0x8405B42D00000000000000000000000000000000000000000000000000000000 DUP2 MSTORE PUSH1 0x4 ADD PUSH1 0x40 MLOAD DUP1 SWAP2 SUB SWAP1 REVERT JUMPDEST PUSH0 DUP5 MLOAD SWAP1 POP PUSH0 DUP2 GT ISZERO PUSH2 0x2632 JUMPI PUSH0 PUSH1 0x7 PUSH0 SWAP1 SLOAD SWAP1 PUSH2 0x100 EXP SWAP1 DIV PUSH8 0xFFFFFFFFFFFFFFFF AND SWAP1 POP PUSH0 JUMPDEST DUP3 DUP2 LT ISZERO PUSH2 0x2607 JUMPI PUSH0 DUP8 DUP3 DUP2 MLOAD DUP2 LT PUSH2 0x2165 JUMPI PUSH2 0x2164 PUSH2 0x382A JUMP JUMPDEST JUMPDEST PUSH1 0x20 MUL PUSH1 0x20 ADD ADD MLOAD SWAP1 POP PUSH0 DUP2 PUSH1 0x60 ADD MLOAD SWAP1 POP PUSH0 DUP3 PUSH0 ADD MLOAD SWAP1 POP PUSH0 DUP4 PUSH1 0x40 ADD MLOAD SWAP1 POP PUSH0 DUP5 PUSH1 0x20 ADD MLOAD SWAP1 POP PUSH1 0x1 DUP8 PUSH2 0x219B SWAP2 SWAP1 PUSH2 0x3857 JUMP JUMPDEST PUSH8 0xFFFFFFFFFFFFFFFF AND DUP5 PUSH8 0xFFFFFFFFFFFFFFFF AND EQ PUSH2 0x2200 JUMPI PUSH1 0x1 DUP8 PUSH2 0x21C2 SWAP2 SWAP1 PUSH2 0x3857 JUMP JUMPDEST DUP5 PUSH1 0x40 MLOAD PUSH32 0xE0E0179200000000000000000000000000000000000000000000000000000000 DUP2 MSTORE PUSH1 0x4 ADD PUSH2 0x21F7 SWAP3 SWAP2 SWAP1 PUSH2 0x3892 JUMP JUMPDEST PUSH1 0x40 MLOAD DUP1 SWAP2 SUB SWAP1 REVERT JUMPDEST DUP4 SWAP7 POP PUSH0 PUSH20 0xFFFFFFFFFFFFFFFFFFFFFFFFFFFFFFFFFFFFFFFF AND DUP2 PUSH20 0xFFFFFFFFFFFFFFFFFFFFFFFFFFFFFFFFFFFFFFFF AND EQ PUSH2 0x239C JUMPI PUSH1 0x8 PUSH0 DUP3 PUSH20 0xFFFFFFFFFFFFFFFFFFFFFFFFFFFFFFFFFFFFFFFF AND PUSH20 0xFFFFFFFFFFFFFFFFFFFFFFFFFFFFFFFFFFFFFFFF AND DUP2 MSTORE PUSH1 0x20 ADD SWAP1 DUP2 MSTORE PUSH1 0x20 ADD PUSH0 KECCAK256 PUSH0 SWAP1 SLOAD SWAP1 PUSH2 0x100 EXP SWAP1 DIV PUSH1 0xFF AND PUSH2 0x22B6 JUMPI PUSH1 0x40 MLOAD PUSH32 0x6A17288200000000000000000000000000000000000000000000000000000000 DUP2 MSTORE PUSH1 0x4 ADD PUSH1 0x40 MLOAD DUP1 SWAP2 SUB SWAP1 REVERT JUMPDEST PUSH1 0x9 PUSH0 DUP3 PUSH20 0xFFFFFFFFFFFFFFFFFFFFFFFFFFFFFFFFFFFFFFFF AND PUSH20 0xFFFFFFFFFFFFFFFFFFFFFFFFFFFFFFFFFFFFFFFF AND DUP2 MSTORE PUSH1 0x20 ADD SWAP1 DUP2 MSTORE PUSH1 0x20 ADD PUSH0 KECCAK256 PUSH0 SWAP1 SLOAD SWAP1 PUSH2 0x100 EXP SWAP1 DIV PUSH1 0xFF AND ISZERO PUSH2 0x2342 JUMPI DUP1 PUSH1 0x40 MLOAD PUSH32 0x1FAC2D7800000000000000000000000000000000000000000000000000000000 DUP2 MSTORE PUSH1 0x4 ADD PUSH2 0x2339 SWAP2 SWAP1 PUSH2 0x2C04 JUMP JUMPDEST PUSH1 0x40 MLOAD DUP1 SWAP2 SUB SWAP1 REVERT JUMPDEST PUSH0 DUP2 PUSH20 0xFFFFFFFFFFFFFFFFFFFFFFFFFFFFFFFFFFFFFFFF AND EXTCODESIZE GT PUSH2 0x239B JUMPI PUSH1 0x40 MLOAD PUSH32 0x8C379A000000000000000000000000000000000000000000000000000000000 DUP2 MSTORE PUSH1 0x4 ADD PUSH2 0x2392 SWAP1 PUSH2 0x3399 JUMP JUMPDEST PUSH1 0x40 MLOAD DUP1 SWAP2 SUB SWAP1 REVERT JUMPDEST JUMPDEST PUSH1 0x40 MLOAD DUP1 PUSH1 0x80 ADD PUSH1 0x40 MSTORE DUP1 DUP5 PUSH20 0xFFFFFFFFFFFFFFFFFFFFFFFFFFFFFFFFFFFFFFFF AND DUP2 MSTORE PUSH1 0x20 ADD DUP3 PUSH20 0xFFFFFFFFFFFFFFFFFFFFFFFFFFFFFFFFFFFFFFFF AND DUP2 MSTORE PUSH1 0x20 ADD DUP4 PUSH16 0xFFFFFFFFFFFFFFFFFFFFFFFFFFFFFFFF AND DUP2 MSTORE PUSH1 0x20 ADD DUP6 PUSH8 0xFFFFFFFFFFFFFFFF AND DUP2 MSTORE POP PUSH1 0xE PUSH0 DUP7 PUSH8 0xFFFFFFFFFFFFFFFF AND PUSH8 0xFFFFFFFFFFFFFFFF AND DUP2 MSTORE PUSH1 0x20 ADD SWAP1 DUP2 MSTORE PUSH1 0x20 ADD PUSH0 KECCAK256 PUSH0 DUP3 ADD MLOAD DUP2 PUSH0 ADD PUSH0 PUSH2 0x100 EXP DUP2 SLOAD DUP2 PUSH20 0xFFFFFFFFFFFFFFFFFFFFFFFFFFFFFFFFFFFFFFFF MUL NOT AND SWAP1 DUP4 PUSH20 0xFFFFFFFFFFFFFFFFFFFFFFFFFFFFFFFFFFFFFFFF AND MUL OR SWAP1 SSTORE POP PUSH1 0x20 DUP3 ADD MLOAD DUP2 PUSH1 0x1 ADD PUSH0 PUSH2 0x100 EXP DUP2 SLOAD DUP2 PUSH20 0xFFFFFFFFFFFFFFFFFFFFFFFFFFFFFFFFFFFFFFFF MUL NOT AND SWAP1 DUP4 PUSH20 0xFFFFFFFFFFFFFFFFFFFFFFFFFFFFFFFFFFFFFFFF AND MUL OR SWAP1 SSTORE POP PUSH1 0x40 DUP3 ADD MLOAD DUP2 PUSH1 0x2 ADD PUSH0 PUSH2 0x100 EXP DUP2 SLOAD DUP2 PUSH16 0xFFFFFFFFFFFFFFFFFFFFFFFFFFFFFFFF MUL NOT AND SWAP1 DUP4 PUSH16 0xFFFFFFFFFFFFFFFFFFFFFFFFFFFFFFFF AND MUL OR SWAP1 SSTORE POP PUSH1 0x60 DUP3 ADD MLOAD DUP2 PUSH1 0x2 ADD PUSH1 0x10 PUSH2 0x100 EXP DUP2 SLOAD DUP2 PUSH8 0xFFFFFFFFFFFFFFFF MUL NOT AND SWAP1 DUP4 PUSH8 0xFFFFFFFFFFFFFFFF AND MUL OR SWAP1 SSTORE POP SWAP1 POP POP PUSH1 0x1 PUSH1 0xA PUSH0 DUP7 PUSH8 0xFFFFFFFFFFFFFFFF AND PUSH8 0xFFFFFFFFFFFFFFFF AND DUP2 MSTORE PUSH1 0x20 ADD SWAP1 DUP2 MSTORE PUSH1 0x20 ADD PUSH0 KECCAK256 PUSH0 PUSH2 0x100 EXP DUP2 SLOAD DUP2 PUSH1 0xFF MUL NOT AND SWAP1 DUP4 ISZERO ISZERO MUL OR SWAP1 SSTORE POP PUSH1 0xC PUSH0 DUP2 DUP2 SWAP1 SLOAD SWAP1 PUSH2 0x100 EXP SWAP1 DIV PUSH8 0xFFFFFFFFFFFFFFFF AND DUP1 SWAP3 SWAP2 SWAP1 PUSH2 0x2586 SWAP1 PUSH2 0x2DF5 JUMP JUMPDEST SWAP2 SWAP1 PUSH2 0x100 EXP DUP2 SLOAD DUP2 PUSH8 0xFFFFFFFFFFFFFFFF MUL NOT AND SWAP1 DUP4 PUSH8 0xFFFFFFFFFFFFFFFF AND MUL OR SWAP1 SSTORE POP POP DUP4 PUSH8 0xFFFFFFFFFFFFFFFF AND PUSH32 0x13C4E4AB476A4FE0765BDBACF68D0E4F95C9057C7D2DBC5164B2FDE972461C41 DUP5 DUP4 DUP6 TIMESTAMP PUSH1 0x40 MLOAD PUSH2 0x25ED SWAP5 SWAP4 SWAP3 SWAP2 SWAP1 PUSH2 0x33B7 JUMP JUMPDEST PUSH1 0x40 MLOAD DUP1 SWAP2 SUB SWAP1 LOG2 DUP6 DUP1 PUSH1 0x1 ADD SWAP7 POP POP POP POP POP POP POP PUSH2 0x2149 JUMP JUMPDEST POP DUP1 PUSH1 0x7 PUSH0 PUSH2 0x100 EXP DUP2 SLOAD DUP2 PUSH8 0xFFFFFFFFFFFFFFFF MUL NOT AND SWAP1 DUP4 PUSH8 0xFFFFFFFFFFFFFFFF AND MUL OR SWAP1 SSTORE POP POP JUMPDEST DUP2 PUSH1 0x6 DUP2 SWAP1 SSTORE POP DUP2 DUP4 PUSH32 0xB6354A0AE57C57C360DC75DF59DFB88263B4EBF89CA9F2C2C61C15AB05C5D72B DUP4 PUSH1 0x40 MLOAD PUSH2 0x266A SWAP2 SWAP1 PUSH2 0x38B9 JUMP JUMPDEST PUSH1 0x40 MLOAD DUP1 SWAP2 SUB SWAP1 LOG3 POP POP POP POP POP POP POP POP JUMP JUMPDEST PUSH2 0x26F6 DUP4 DUP5 PUSH20 0xFFFFFFFFFFFFFFFFFFFFFFFFFFFFFFFFFFFFFFFF AND PUSH4 0xA9059CBB DUP6 DUP6 PUSH1 0x40 MLOAD PUSH1 0x24 ADD PUSH2 0x26AF SWAP3 SWAP2 SWAP1 PUSH2 0x2E24 JUMP JUMPDEST PUSH1 0x40 MLOAD PUSH1 0x20 DUP2 DUP4 SUB SUB DUP2 MSTORE SWAP1 PUSH1 0x40 MSTORE SWAP2 POP PUSH1 0xE0 SHL PUSH1 0x20 DUP3 ADD DUP1 MLOAD PUSH28 0xFFFFFFFFFFFFFFFFFFFFFFFFFFFFFFFFFFFFFFFFFFFFFFFFFFFFFFFF DUP4 DUP2 DUP4 AND OR DUP4 MSTORE POP POP POP POP PUSH2 0x26FB JUMP JUMPDEST POP POP POP JUMP JUMPDEST PUSH0 DUP1 PUSH1 0x20 PUSH0 DUP5 MLOAD PUSH1 0x20 DUP7 ADD PUSH0 DUP9 GAS CALL DUP1 PUSH2 0x271A JUMPI PUSH1 0x40 MLOAD RETURNDATASIZE PUSH0 DUP3 RETURNDATACOPY RETURNDATASIZE DUP2 REVERT JUMPDEST RETURNDATASIZE SWAP3 POP PUSH0 MLOAD SWAP2 POP POP PUSH0 DUP3 EQ PUSH2 0x2733 JUMPI PUSH1 0x1 DUP2 EQ ISZERO PUSH2 0x274E JUMP JUMPDEST PUSH0 DUP5 PUSH20 0xFFFFFFFFFFFFFFFFFFFFFFFFFFFFFFFFFFFFFFFF AND EXTCODESIZE EQ JUMPDEST ISZERO PUSH2 0x2790 JUMPI DUP4 PUSH1 0x40 MLOAD PUSH32 0x5274AFE700000000000000000000000000000000000000000000000000000000 DUP2 MSTORE PUSH1 0x4 ADD PUSH2 0x2787 SWAP2 SWAP1 PUSH2 0x2C04 JUMP JUMPDEST PUSH1 0x40 MLOAD DUP1 SWAP2 SUB SWAP1 REVERT JUMPDEST POP POP POP POP JUMP JUMPDEST PUSH0 CALLER SWAP1 POP SWAP1 JUMP JUMPDEST PUSH0 PUSH1 0x40 MLOAD SWAP1 POP SWAP1 JUMP JUMPDEST PUSH0 DUP1 REVERT JUMPDEST PUSH0 DUP1 REVERT JUMPDEST PUSH0 PUSH20 0xFFFFFFFFFFFFFFFFFFFFFFFFFFFFFFFFFFFFFFFF DUP3 AND SWAP1 POP SWAP2 SWAP1 POP JUMP JUMPDEST PUSH0 PUSH2 0x27D7 DUP3 PUSH2 0x27AE JUMP JUMPDEST SWAP1 POP SWAP2 SWAP1 POP JUMP JUMPDEST PUSH2 0x27E7 DUP2 PUSH2 0x27CD JUMP JUMPDEST DUP2 EQ PUSH2 0x27F1 JUMPI PUSH0 DUP1 REVERT JUMPDEST POP JUMP JUMPDEST PUSH0 DUP2 CALLDATALOAD SWAP1 POP PUSH2 0x2802 DUP2 PUSH2 0x27DE JUMP JUMPDEST SWAP3 SWAP2 POP POP JUMP JUMPDEST PUSH0 DUP2 SWAP1 POP SWAP2 SWAP1 POP JUMP JUMPDEST PUSH2 0x281A DUP2 PUSH2 0x2808 JUMP JUMPDEST DUP2 EQ PUSH2 0x2824 JUMPI PUSH0 DUP1 REVERT JUMPDEST POP JUMP JUMPDEST PUSH0 DUP2 CALLDATALOAD SWAP1 POP PUSH2 0x2835 DUP2 PUSH2 0x2811 JUMP JUMPDEST SWAP3 SWAP2 POP POP JUMP JUMPDEST PUSH0 DUP1 PUSH0 PUSH1 0x60 DUP5 DUP7 SUB SLT ISZERO PUSH2 0x2852 JUMPI PUSH2 0x2851 PUSH2 0x27A6 JUMP JUMPDEST JUMPDEST PUSH0 PUSH2 0x285F DUP7 DUP3 DUP8 ADD PUSH2 0x27F4 JUMP JUMPDEST SWAP4 POP POP PUSH1 0x20 PUSH2 0x2870 DUP7 DUP3 DUP8 ADD PUSH2 0x27F4 JUMP JUMPDEST SWAP3 POP POP PUSH1 0x40 PUSH2 0x2881 DUP7 DUP3 DUP8 ADD PUSH2 0x2827 JUMP JUMPDEST SWAP2 POP POP SWAP3 POP SWAP3 POP SWAP3 JUMP JUMPDEST PUSH0 PUSH8 0xFFFFFFFFFFFFFFFF DUP3 AND SWAP1 POP SWAP2 SWAP1 POP JUMP JUMPDEST PUSH2 0x28A7 DUP2 PUSH2 0x288B JUMP JUMPDEST DUP3 MSTORE POP POP JUMP JUMPDEST PUSH0 PUSH1 0x20 DUP3 ADD SWAP1 POP PUSH2 0x28C0 PUSH0 DUP4 ADD DUP5 PUSH2 0x289E JUMP JUMPDEST SWAP3 SWAP2 POP POP JUMP JUMPDEST PUSH2 0x28CF DUP2 PUSH2 0x288B JUMP JUMPDEST DUP2 EQ PUSH2 0x28D9 JUMPI PUSH0 DUP1 REVERT JUMPDEST POP JUMP JUMPDEST PUSH0 DUP2 CALLDATALOAD SWAP1 POP PUSH2 0x28EA DUP2 PUSH2 0x28C6 JUMP JUMPDEST SWAP3 SWAP2 POP POP JUMP JUMPDEST PUSH0 PUSH1 0x20 DUP3 DUP5 SUB SLT ISZERO PUSH2 0x2905 JUMPI PUSH2 0x2904 PUSH2 0x27A6 JUMP JUMPDEST JUMPDEST PUSH0 PUSH2 0x2912 DUP5 DUP3 DUP6 ADD PUSH2 0x28DC JUMP JUMPDEST SWAP2 POP POP SWAP3 SWAP2 POP POP JUMP JUMPDEST PUSH2 0x2924 DUP2 PUSH2 0x27CD JUMP JUMPDEST DUP3 MSTORE POP POP JUMP JUMPDEST PUSH0 PUSH16 0xFFFFFFFFFFFFFFFFFFFFFFFFFFFFFFFF DUP3 AND SWAP1 POP SWAP2 SWAP1 POP JUMP JUMPDEST PUSH2 0x294E DUP2 PUSH2 0x292A JUMP JUMPDEST DUP3 MSTORE POP POP JUMP JUMPDEST PUSH0 PUSH1 0x80 DUP3 ADD SWAP1 POP PUSH2 0x2967 PUSH0 DUP4 ADD DUP8 PUSH2 0x291B JUMP JUMPDEST PUSH2 0x2974 PUSH1 0x20 DUP4 ADD DUP7 PUSH2 0x291B JUMP JUMPDEST PUSH2 0x2981 PUSH1 0x40 DUP4 ADD DUP6 PUSH2 0x2945 JUMP JUMPDEST PUSH2 0x298E PUSH1 0x60 DUP4 ADD DUP5 PUSH2 0x289E JUMP JUMPDEST SWAP6 SWAP5 POP POP POP POP POP JUMP JUMPDEST PUSH0 PUSH1 0x20 DUP3 DUP5 SUB SLT ISZERO PUSH2 0x29AC JUMPI PUSH2 0x29AB PUSH2 0x27A6 JUMP JUMPDEST JUMPDEST PUSH0 PUSH2 0x29B9 DUP5 DUP3 DUP6 ADD PUSH2 0x27F4 JUMP JUMPDEST SWAP2 POP POP SWAP3 SWAP2 POP POP JUMP JUMPDEST PUSH0 DUP2 SWAP1 POP SWAP2 SWAP1 POP JUMP JUMPDEST PUSH0 PUSH2 0x29E5 PUSH2 0x29E0 PUSH2 0x29DB DUP5 PUSH2 0x27AE JUMP JUMPDEST PUSH2 0x29C2 JUMP JUMPDEST PUSH2 0x27AE JUMP JUMPDEST SWAP1 POP SWAP2 SWAP1 POP JUMP JUMPDEST PUSH0 PUSH2 0x29F6 DUP3 PUSH2 0x29CB JUMP JUMPDEST SWAP1 POP SWAP2 SWAP1 POP JUMP JUMPDEST PUSH0 PUSH2 0x2A07 DUP3 PUSH2 0x29EC JUMP JUMPDEST SWAP1 POP SWAP2 SWAP1 POP JUMP JUMPDEST PUSH2 0x2A17 DUP2 PUSH2 0x29FD JUMP JUMPDEST DUP3 MSTORE POP POP JUMP JUMPDEST PUSH0 PUSH1 0x20 DUP3 ADD SWAP1 POP PUSH2 0x2A30 PUSH0 DUP4 ADD DUP5 PUSH2 0x2A0E JUMP JUMPDEST SWAP3 SWAP2 POP POP JUMP JUMPDEST PUSH0 DUP2 SWAP1 POP SWAP2 SWAP1 POP JUMP JUMPDEST PUSH2 0x2A48 DUP2 PUSH2 0x2A36 JUMP JUMPDEST DUP3 MSTORE POP POP JUMP JUMPDEST PUSH0 PUSH1 0x20 DUP3 ADD SWAP1 POP PUSH2 0x2A61 PUSH0 DUP4 ADD DUP5 PUSH2 0x2A3F JUMP JUMPDEST SWAP3 SWAP2 POP POP JUMP JUMPDEST PUSH0 DUP2 ISZERO ISZERO SWAP1 POP SWAP2 SWAP1 POP JUMP JUMPDEST PUSH2 0x2A7B DUP2 PUSH2 0x2A67 JUMP JUMPDEST DUP3 MSTORE POP POP JUMP JUMPDEST PUSH0 PUSH1 0x20 DUP3 ADD SWAP1 POP PUSH2 0x2A94 PUSH0 DUP4 ADD DUP5 PUSH2 0x2A72 JUMP JUMPDEST SWAP3 SWAP2 POP POP JUMP JUMPDEST PUSH0 PUSH2 0x2AA4 DUP3 PUSH2 0x29EC JUMP JUMPDEST SWAP1 POP SWAP2 SWAP1 POP JUMP JUMPDEST PUSH2 0x2AB4 DUP2 PUSH2 0x2A9A JUMP JUMPDEST DUP3 MSTORE POP POP JUMP JUMPDEST PUSH0 PUSH1 0x20 DUP3 ADD SWAP1 POP PUSH2 0x2ACD PUSH0 DUP4 ADD DUP5 PUSH2 0x2AAB JUMP JUMPDEST SWAP3 SWAP2 POP POP JUMP JUMPDEST PUSH0 DUP1 REVERT JUMPDEST PUSH0 DUP1 REVERT JUMPDEST PUSH0 DUP1 REVERT JUMPDEST PUSH0 DUP1 DUP4 PUSH1 0x1F DUP5 ADD SLT PUSH2 0x2AF4 JUMPI PUSH2 0x2AF3 PUSH2 0x2AD3 JUMP JUMPDEST JUMPDEST DUP3 CALLDATALOAD SWAP1 POP PUSH8 0xFFFFFFFFFFFFFFFF DUP2 GT ISZERO PUSH2 0x2B11 JUMPI PUSH2 0x2B10 PUSH2 0x2AD7 JUMP JUMPDEST JUMPDEST PUSH1 0x20 DUP4 ADD SWAP2 POP DUP4 PUSH1 0x1 DUP3 MUL DUP4 ADD GT ISZERO PUSH2 0x2B2D JUMPI PUSH2 0x2B2C PUSH2 0x2ADB JUMP JUMPDEST JUMPDEST SWAP3 POP SWAP3 SWAP1 POP JUMP JUMPDEST PUSH0 DUP1 PUSH0 DUP1 PUSH1 0x40 DUP6 DUP8 SUB SLT ISZERO PUSH2 0x2B4C JUMPI PUSH2 0x2B4B PUSH2 0x27A6 JUMP JUMPDEST JUMPDEST PUSH0 DUP6 ADD CALLDATALOAD PUSH8 0xFFFFFFFFFFFFFFFF DUP2 GT ISZERO PUSH2 0x2B69 JUMPI PUSH2 0x2B68 PUSH2 0x27AA JUMP JUMPDEST JUMPDEST PUSH2 0x2B75 DUP8 DUP3 DUP9 ADD PUSH2 0x2ADF JUMP JUMPDEST SWAP5 POP SWAP5 POP POP PUSH1 0x20 DUP6 ADD CALLDATALOAD PUSH8 0xFFFFFFFFFFFFFFFF DUP2 GT ISZERO PUSH2 0x2B98 JUMPI PUSH2 0x2B97 PUSH2 0x27AA JUMP JUMPDEST JUMPDEST PUSH2 0x2BA4 DUP8 DUP3 DUP9 ADD PUSH2 0x2ADF JUMP JUMPDEST SWAP3 POP SWAP3 POP POP SWAP3 SWAP6 SWAP2 SWAP5 POP SWAP3 POP JUMP JUMPDEST PUSH2 0x2BBB DUP2 PUSH2 0x2808 JUMP JUMPDEST DUP3 MSTORE POP POP JUMP JUMPDEST PUSH0 PUSH1 0x80 DUP3 ADD SWAP1 POP PUSH2 0x2BD4 PUSH0 DUP4 ADD DUP8 PUSH2 0x291B JUMP JUMPDEST PUSH2 0x2BE1 PUSH1 0x20 DUP4 ADD DUP7 PUSH2 0x291B JUMP JUMPDEST PUSH2 0x2BEE PUSH1 0x40 DUP4 ADD DUP6 PUSH2 0x2BB2 JUMP JUMPDEST PUSH2 0x2BFB PUSH1 0x60 DUP4 ADD DUP5 PUSH2 0x289E JUMP JUMPDEST SWAP6 SWAP5 POP POP POP POP POP JUMP JUMPDEST PUSH0 PUSH1 0x20 DUP3 ADD SWAP1 POP PUSH2 0x2C17 PUSH0 DUP4 ADD DUP5 PUSH2 0x291B JUMP JUMPDEST SWAP3 SWAP2 POP POP JUMP JUMPDEST PUSH2 0x2C26 DUP2 PUSH2 0x2A36 JUMP JUMPDEST DUP2 EQ PUSH2 0x2C30 JUMPI PUSH0 DUP1 REVERT JUMPDEST POP JUMP JUMPDEST PUSH0 DUP2 CALLDATALOAD SWAP1 POP PUSH2 0x2C41 DUP2 PUSH2 0x2C1D JUMP JUMPDEST SWAP3 SWAP2 POP POP JUMP JUMPDEST PUSH0 PUSH1 0x20 DUP3 DUP5 SUB SLT ISZERO PUSH2 0x2C5C JUMPI PUSH2 0x2C5B PUSH2 0x27A6 JUMP JUMPDEST JUMPDEST PUSH0 PUSH2 0x2C69 DUP5 DUP3 DUP6 ADD PUSH2 0x2C33 JUMP JUMPDEST SWAP2 POP POP SWAP3 SWAP2 POP POP JUMP JUMPDEST PUSH0 DUP1 PUSH1 0x40 DUP4 DUP6 SUB SLT ISZERO PUSH2 0x2C88 JUMPI PUSH2 0x2C87 PUSH2 0x27A6 JUMP JUMPDEST JUMPDEST PUSH0 PUSH2 0x2C95 DUP6 DUP3 DUP7 ADD PUSH2 0x27F4 JUMP JUMPDEST SWAP3 POP POP PUSH1 0x20 PUSH2 0x2CA6 DUP6 DUP3 DUP7 ADD PUSH2 0x2827 JUMP JUMPDEST SWAP2 POP POP SWAP3 POP SWAP3 SWAP1 POP JUMP JUMPDEST PUSH0 DUP1 PUSH0 DUP1 PUSH0 DUP1 PUSH1 0x60 DUP8 DUP10 SUB SLT ISZERO PUSH2 0x2CCA JUMPI PUSH2 0x2CC9 PUSH2 0x27A6 JUMP JUMPDEST JUMPDEST PUSH0 DUP8 ADD CALLDATALOAD PUSH8 0xFFFFFFFFFFFFFFFF DUP2 GT ISZERO PUSH2 0x2CE7 JUMPI PUSH2 0x2CE6 PUSH2 0x27AA JUMP JUMPDEST JUMPDEST PUSH2 0x2CF3 DUP10 DUP3 DUP11 ADD PUSH2 0x2ADF JUMP JUMPDEST SWAP7 POP SWAP7 POP POP PUSH1 0x20 DUP8 ADD CALLDATALOAD PUSH8 0xFFFFFFFFFFFFFFFF DUP2 GT ISZERO PUSH2 0x2D16 JUMPI PUSH2 0x2D15 PUSH2 0x27AA JUMP JUMPDEST JUMPDEST PUSH2 0x2D22 DUP10 DUP3 DUP11 ADD PUSH2 0x2ADF JUMP JUMPDEST SWAP5 POP SWAP5 POP POP PUSH1 0x40 DUP8 ADD CALLDATALOAD PUSH8 0xFFFFFFFFFFFFFFFF DUP2 GT ISZERO PUSH2 0x2D45 JUMPI PUSH2 0x2D44 PUSH2 0x27AA JUMP JUMPDEST JUMPDEST PUSH2 0x2D51 DUP10 DUP3 DUP11 ADD PUSH2 0x2ADF JUMP JUMPDEST SWAP3 POP SWAP3 POP POP SWAP3 SWAP6 POP SWAP3 SWAP6 POP SWAP3 SWAP6 JUMP JUMPDEST PUSH2 0x2D69 DUP2 PUSH2 0x2A67 JUMP JUMPDEST DUP2 EQ PUSH2 0x2D73 JUMPI PUSH0 DUP1 REVERT JUMPDEST POP JUMP JUMPDEST PUSH0 DUP2 CALLDATALOAD SWAP1 POP PUSH2 0x2D84 DUP2 PUSH2 0x2D60 JUMP JUMPDEST SWAP3 SWAP2 POP POP JUMP JUMPDEST PUSH0 DUP1 PUSH1 0x40 DUP4 DUP6 SUB SLT ISZERO PUSH2 0x2DA0 JUMPI PUSH2 0x2D9F PUSH2 0x27A6 JUMP JUMPDEST JUMPDEST PUSH0 PUSH2 0x2DAD DUP6 DUP3 DUP7 ADD PUSH2 0x27F4 JUMP JUMPDEST SWAP3 POP POP PUSH1 0x20 PUSH2 0x2DBE DUP6 DUP3 DUP7 ADD PUSH2 0x2D76 JUMP JUMPDEST SWAP2 POP POP SWAP3 POP SWAP3 SWAP1 POP JUMP JUMPDEST PUSH32 0x4E487B7100000000000000000000000000000000000000000000000000000000 PUSH0 MSTORE PUSH1 0x11 PUSH1 0x4 MSTORE PUSH1 0x24 PUSH0 REVERT JUMPDEST PUSH0 PUSH2 0x2DFF DUP3 PUSH2 0x288B JUMP JUMPDEST SWAP2 POP PUSH8 0xFFFFFFFFFFFFFFFF DUP3 SUB PUSH2 0x2E19 JUMPI PUSH2 0x2E18 PUSH2 0x2DC8 JUMP JUMPDEST JUMPDEST PUSH1 0x1 DUP3 ADD SWAP1 POP SWAP2 SWAP1 POP JUMP JUMPDEST PUSH0 PUSH1 0x40 DUP3 ADD SWAP1 POP PUSH2 0x2E37 PUSH0 DUP4 ADD DUP6 PUSH2 0x291B JUMP JUMPDEST PUSH2 0x2E44 PUSH1 0x20 DUP4 ADD DUP5 PUSH2 0x2BB2 JUMP JUMPDEST SWAP4 SWAP3 POP POP POP JUMP JUMPDEST PUSH0 PUSH1 0x40 DUP3 ADD SWAP1 POP PUSH2 0x2E5E PUSH0 DUP4 ADD DUP6 PUSH2 0x291B JUMP JUMPDEST PUSH2 0x2E6B PUSH1 0x20 DUP4 ADD DUP5 PUSH2 0x291B JUMP JUMPDEST SWAP4 SWAP3 POP POP POP JUMP JUMPDEST PUSH0 DUP2 MLOAD SWAP1 POP PUSH2 0x2E80 DUP2 PUSH2 0x2811 JUMP JUMPDEST SWAP3 SWAP2 POP POP JUMP JUMPDEST PUSH0 PUSH1 0x20 DUP3 DUP5 SUB SLT ISZERO PUSH2 0x2E9B JUMPI PUSH2 0x2E9A PUSH2 0x27A6 JUMP JUMPDEST JUMPDEST PUSH0 PUSH2 0x2EA8 DUP5 DUP3 DUP6 ADD PUSH2 0x2E72 JUMP JUMPDEST SWAP2 POP POP SWAP3 SWAP2 POP POP JUMP JUMPDEST PUSH0 PUSH1 0x40 DUP3 ADD SWAP1 POP PUSH2 0x2EC4 PUSH0 DUP4 ADD DUP6 PUSH2 0x2BB2 JUMP JUMPDEST PUSH2 0x2ED1 PUSH1 0x20 DUP4 ADD DUP5 PUSH2 0x2BB2 JUMP JUMPDEST SWAP4 SWAP3 POP POP POP JUMP JUMPDEST PUSH0 PUSH1 0x80 DUP3 ADD SWAP1 POP PUSH2 0x2EEB PUSH0 DUP4 ADD DUP8 PUSH2 0x291B JUMP JUMPDEST PUSH2 0x2EF8 PUSH1 0x20 DUP4 ADD DUP7 PUSH2 0x291B JUMP JUMPDEST PUSH2 0x2F05 PUSH1 0x40 DUP4 ADD DUP6 PUSH2 0x291B JUMP JUMPDEST PUSH2 0x2F12 PUSH1 0x60 DUP4 ADD DUP5 PUSH2 0x2BB2 JUMP JUMPDEST SWAP6 SWAP5 POP POP POP POP POP JUMP JUMPDEST PUSH0 DUP3 DUP3 MSTORE PUSH1 0x20 DUP3 ADD SWAP1 POP SWAP3 SWAP2 POP POP JUMP JUMPDEST PUSH32 0x546F6B656E206E6F7420737570706F7274656400000000000000000000000000 PUSH0 DUP3 ADD MSTORE POP JUMP JUMPDEST PUSH0 PUSH2 0x2F5F PUSH1 0x13 DUP4 PUSH2 0x2F1B JUMP JUMPDEST SWAP2 POP PUSH2 0x2F6A DUP3 PUSH2 0x2F2B JUMP JUMPDEST PUSH1 0x20 DUP3 ADD SWAP1 POP SWAP2 SWAP1 POP JUMP JUMPDEST PUSH0 PUSH1 0x20 DUP3 ADD SWAP1 POP DUP2 DUP2 SUB PUSH0 DUP4 ADD MSTORE PUSH2 0x2F8C DUP2 PUSH2 0x2F53 JUMP JUMPDEST SWAP1 POP SWAP2 SWAP1 POP JUMP JUMPDEST PUSH0 PUSH1 0x60 DUP3 ADD SWAP1 POP PUSH2 0x2FA6 PUSH0 DUP4 ADD DUP7 PUSH2 0x291B JUMP JUMPDEST PUSH2 0x2FB3 PUSH1 0x20 DUP4 ADD DUP6 PUSH2 0x2A72 JUMP JUMPDEST PUSH2 0x2FC0 PUSH1 0x40 DUP4 ADD DUP5 PUSH2 0x2A72 JUMP JUMPDEST SWAP5 SWAP4 POP POP POP POP JUMP JUMPDEST PUSH0 DUP3 DUP3 MSTORE PUSH1 0x20 DUP3 ADD SWAP1 POP SWAP3 SWAP2 POP POP JUMP JUMPDEST DUP3 DUP2 DUP4 CALLDATACOPY PUSH0 DUP4 DUP4 ADD MSTORE POP POP POP JUMP JUMPDEST PUSH0 PUSH1 0x1F NOT PUSH1 0x1F DUP4 ADD AND SWAP1 POP SWAP2 SWAP1 POP JUMP JUMPDEST PUSH0 PUSH2 0x3001 DUP4 DUP6 PUSH2 0x2FC8 JUMP JUMPDEST SWAP4 POP PUSH2 0x300E DUP4 DUP6 DUP5 PUSH2 0x2FD8 JUMP JUMPDEST PUSH2 0x3017 DUP4 PUSH2 0x2FE6 JUMP JUMPDEST DUP5 ADD SWAP1 POP SWAP4 SWAP3 POP POP POP JUMP JUMPDEST PUSH0 PUSH1 0x60 DUP3 ADD SWAP1 POP DUP2 DUP2 SUB PUSH0 DUP4 ADD MSTORE PUSH2 0x303B DUP2 DUP8 DUP10 PUSH2 0x2FF6 JUMP JUMPDEST SWAP1 POP PUSH2 0x304A PUSH1 0x20 DUP4 ADD DUP7 PUSH2 0x2A3F JUMP JUMPDEST DUP2 DUP2 SUB PUSH1 0x40 DUP4 ADD MSTORE PUSH2 0x305D DUP2 DUP5 DUP7 PUSH2 0x2FF6 JUMP JUMPDEST SWAP1 POP SWAP7 SWAP6 POP POP POP POP POP POP JUMP JUMPDEST PUSH0 DUP2 PUSH1 0xE0 SHR SWAP1 POP SWAP2 SWAP1 POP JUMP JUMPDEST PUSH0 PUSH1 0x3 RETURNDATASIZE GT ISZERO PUSH2 0x3091 JUMPI PUSH1 0x4 PUSH0 DUP1 RETURNDATACOPY PUSH2 0x308E PUSH0 MLOAD PUSH2 0x3069 JUMP JUMPDEST SWAP1 POP JUMPDEST SWAP1 JUMP JUMPDEST PUSH32 0x4E487B7100000000000000000000000000000000000000000000000000000000 PUSH0 MSTORE PUSH1 0x41 PUSH1 0x4 MSTORE PUSH1 0x24 PUSH0 REVERT JUMPDEST PUSH2 0x30CA DUP3 PUSH2 0x2FE6 JUMP JUMPDEST DUP2 ADD DUP2 DUP2 LT PUSH8 0xFFFFFFFFFFFFFFFF DUP3 GT OR ISZERO PUSH2 0x30E9 JUMPI PUSH2 0x30E8 PUSH2 0x3094 JUMP JUMPDEST JUMPDEST DUP1 PUSH1 0x40 MSTORE POP POP POP JUMP JUMPDEST PUSH0 PUSH1 0x44 RETURNDATASIZE LT PUSH2 0x317E JUMPI PUSH2 0x3103 PUSH2 0x279D JUMP JUMPDEST PUSH1 0x4 RETURNDATASIZE SUB PUSH1 0x4 DUP3 RETURNDATACOPY DUP1 MLOAD RETURNDATASIZE PUSH1 0x24 DUP3 ADD GT PUSH8 0xFFFFFFFFFFFFFFFF DUP3 GT OR ISZERO PUSH2 0x312B JUMPI POP POP PUSH2 0x317E JUMP JUMPDEST DUP1 DUP3 ADD DUP1 MLOAD PUSH8 0xFFFFFFFFFFFFFFFF DUP2 GT ISZERO PUSH2 0x3149 JUMPI POP POP POP POP PUSH2 0x317E JUMP JUMPDEST DUP1 PUSH1 0x20 DUP4 ADD ADD PUSH1 0x4 RETURNDATASIZE SUB DUP6 ADD DUP2 GT ISZERO PUSH2 0x3166 JUMPI POP POP POP POP POP PUSH2 0x317E JUMP JUMPDEST PUSH2 0x3175 DUP3 PUSH1 0x20 ADD DUP6 ADD DUP7 PUSH2 0x30C1 JUMP JUMPDEST DUP3 SWAP6 POP POP POP POP POP POP JUMPDEST SWAP1 JUMP JUMPDEST PUSH0 DUP2 MLOAD SWAP1 POP SWAP2 SWAP1 POP JUMP JUMPDEST PUSH0 JUMPDEST DUP4 DUP2 LT ISZERO PUSH2 0x31A8 JUMPI DUP1 DUP3 ADD MLOAD DUP2 DUP5 ADD MSTORE PUSH1 0x20 DUP2 ADD SWAP1 POP PUSH2 0x318D JUMP JUMPDEST PUSH0 DUP5 DUP5 ADD MSTORE POP POP POP POP JUMP JUMPDEST PUSH0 PUSH2 0x31BD DUP3 PUSH2 0x3181 JUMP JUMPDEST PUSH2 0x31C7 DUP2 DUP6 PUSH2 0x2F1B JUMP JUMPDEST SWAP4 POP PUSH2 0x31D7 DUP2 DUP6 PUSH1 0x20 DUP7 ADD PUSH2 0x318B JUMP JUMPDEST PUSH2 0x31E0 DUP2 PUSH2 0x2FE6 JUMP JUMPDEST DUP5 ADD SWAP2 POP POP SWAP3 SWAP2 POP POP JUMP JUMPDEST PUSH0 PUSH1 0x20 DUP3 ADD SWAP1 POP DUP2 DUP2 SUB PUSH0 DUP4 ADD MSTORE PUSH2 0x3203 DUP2 DUP5 PUSH2 0x31B3 JUMP JUMPDEST SWAP1 POP SWAP3 SWAP2 POP POP JUMP JUMPDEST PUSH32 0x4C6F772D6C6576656C20766572696669636174696F6E206572726F7200000000 PUSH0 DUP3 ADD MSTORE POP JUMP JUMPDEST PUSH0 PUSH2 0x323F PUSH1 0x1C DUP4 PUSH2 0x2F1B JUMP JUMPDEST SWAP2 POP PUSH2 0x324A DUP3 PUSH2 0x320B JUMP JUMPDEST PUSH1 0x20 DUP3 ADD SWAP1 POP SWAP2 SWAP1 POP JUMP JUMPDEST PUSH0 PUSH1 0x20 DUP3 ADD SWAP1 POP DUP2 DUP2 SUB PUSH0 DUP4 ADD MSTORE PUSH2 0x326C DUP2 PUSH2 0x3233 JUMP JUMPDEST SWAP1 POP SWAP2 SWAP1 POP JUMP JUMPDEST PUSH0 DUP2 SWAP1 POP SWAP3 SWAP2 POP POP JUMP JUMPDEST PUSH0 PUSH2 0x3288 DUP4 DUP6 PUSH2 0x3273 JUMP JUMPDEST SWAP4 POP PUSH2 0x3295 DUP4 DUP6 DUP5 PUSH2 0x2FD8 JUMP JUMPDEST DUP3 DUP5 ADD SWAP1 POP SWAP4 SWAP3 POP POP POP JUMP JUMPDEST PUSH0 PUSH2 0x32AD DUP3 DUP5 DUP7 PUSH2 0x327D JUMP JUMPDEST SWAP2 POP DUP2 SWAP1 POP SWAP4 SWAP3 POP POP POP JUMP JUMPDEST PUSH0 DUP2 MLOAD SWAP1 POP PUSH2 0x32C7 DUP2 PUSH2 0x2C1D JUMP JUMPDEST SWAP3 SWAP2 POP POP JUMP JUMPDEST PUSH0 PUSH1 0x20 DUP3 DUP5 SUB SLT ISZERO PUSH2 0x32E2 JUMPI PUSH2 0x32E1 PUSH2 0x27A6 JUMP JUMPDEST JUMPDEST PUSH0 PUSH2 0x32EF DUP5 DUP3 DUP6 ADD PUSH2 0x32B9 JUMP JUMPDEST SWAP2 POP POP SWAP3 SWAP2 POP POP JUMP JUMPDEST PUSH0 PUSH2 0x3312 PUSH2 0x330D PUSH2 0x3308 DUP5 PUSH2 0x292A JUMP JUMPDEST PUSH2 0x29C2 JUMP JUMPDEST PUSH2 0x2808 JUMP JUMPDEST SWAP1 POP SWAP2 SWAP1 POP JUMP JUMPDEST PUSH2 0x3322 DUP2 PUSH2 0x32F8 JUMP JUMPDEST DUP3 MSTORE POP POP JUMP JUMPDEST PUSH0 PUSH1 0x40 DUP3 ADD SWAP1 POP PUSH2 0x333B PUSH0 DUP4 ADD DUP6 PUSH2 0x291B JUMP JUMPDEST PUSH2 0x3348 PUSH1 0x20 DUP4 ADD DUP5 PUSH2 0x3319 JUMP JUMPDEST SWAP4 SWAP3 POP POP POP JUMP JUMPDEST PUSH32 0x496E76616C696420746F6B656E20636F6E747261637400000000000000000000 PUSH0 DUP3 ADD MSTORE POP JUMP JUMPDEST PUSH0 PUSH2 0x3383 PUSH1 0x16 DUP4 PUSH2 0x2F1B JUMP JUMPDEST SWAP2 POP PUSH2 0x338E DUP3 PUSH2 0x334F JUMP JUMPDEST PUSH1 0x20 DUP3 ADD SWAP1 POP SWAP2 SWAP1 POP JUMP JUMPDEST PUSH0 PUSH1 0x20 DUP3 ADD SWAP1 POP DUP2 DUP2 SUB PUSH0 DUP4 ADD MSTORE PUSH2 0x33B0 DUP2 PUSH2 0x3377 JUMP JUMPDEST SWAP1 POP SWAP2 SWAP1 POP JUMP JUMPDEST PUSH0 PUSH1 0x80 DUP3 ADD SWAP1 POP PUSH2 0x33CA PUSH0 DUP4 ADD DUP8 PUSH2 0x291B JUMP JUMPDEST PUSH2 0x33D7 PUSH1 0x20 DUP4 ADD DUP7 PUSH2 0x291B JUMP JUMPDEST PUSH2 0x33E4 PUSH1 0x40 DUP4 ADD DUP6 PUSH2 0x2945 JUMP JUMPDEST PUSH2 0x33F1 PUSH1 0x60 DUP4 ADD DUP5 PUSH2 0x2BB2 JUMP JUMPDEST SWAP6 SWAP5 POP POP POP POP POP JUMP JUMPDEST PUSH0 PUSH1 0x60 DUP3 ADD SWAP1 POP PUSH2 0x340D PUSH0 DUP4 ADD DUP7 PUSH2 0x291B JUMP JUMPDEST PUSH2 0x341A PUSH1 0x20 DUP4 ADD DUP6 PUSH2 0x291B JUMP JUMPDEST PUSH2 0x3427 PUSH1 0x40 DUP4 ADD DUP5 PUSH2 0x2BB2 JUMP JUMPDEST SWAP5 SWAP4 POP POP POP POP JUMP JUMPDEST PUSH32 0x496E76616C696420746F6B656E20616464726573730000000000000000000000 PUSH0 DUP3 ADD MSTORE POP JUMP JUMPDEST PUSH0 PUSH2 0x3463 PUSH1 0x15 DUP4 PUSH2 0x2F1B JUMP JUMPDEST SWAP2 POP PUSH2 0x346E DUP3 PUSH2 0x342F JUMP JUMPDEST PUSH1 0x20 DUP3 ADD SWAP1 POP SWAP2 SWAP1 POP JUMP JUMPDEST PUSH0 PUSH1 0x20 DUP3 ADD SWAP1 POP DUP2 DUP2 SUB PUSH0 DUP4 ADD MSTORE PUSH2 0x3490 DUP2 PUSH2 0x3457 JUMP JUMPDEST SWAP1 POP SWAP2 SWAP1 POP JUMP JUMPDEST PUSH32 0x43616E6E6F74206D6F64696679206E617469766520746F6B656E000000000000 PUSH0 DUP3 ADD MSTORE POP JUMP JUMPDEST PUSH0 PUSH2 0x34CB PUSH1 0x1A DUP4 PUSH2 0x2F1B JUMP JUMPDEST SWAP2 POP PUSH2 0x34D6 DUP3 PUSH2 0x3497 JUMP JUMPDEST PUSH1 0x20 DUP3 ADD SWAP1 POP SWAP2 SWAP1 POP JUMP JUMPDEST PUSH0 PUSH1 0x20 DUP3 ADD SWAP1 POP DUP2 DUP2 SUB PUSH0 DUP4 ADD MSTORE PUSH2 0x34F8 DUP2 PUSH2 0x34BF JUMP JUMPDEST SWAP1 POP SWAP2 SWAP1 POP JUMP JUMPDEST PUSH32 0x4E6F74206120636F6E7472616374000000000000000000000000000000000000 PUSH0 DUP3 ADD MSTORE POP JUMP JUMPDEST PUSH0 PUSH2 0x3533 PUSH1 0xE DUP4 PUSH2 0x2F1B JUMP JUMPDEST SWAP2 POP PUSH2 0x353E DUP3 PUSH2 0x34FF JUMP JUMPDEST PUSH1 0x20 DUP3 ADD SWAP1 POP SWAP2 SWAP1 POP JUMP JUMPDEST PUSH0 PUSH1 0x20 DUP3 ADD SWAP1 POP DUP2 DUP2 SUB PUSH0 DUP4 ADD MSTORE PUSH2 0x3560 DUP2 PUSH2 0x3527 JUMP JUMPDEST SWAP1 POP SWAP2 SWAP1 POP JUMP JUMPDEST PUSH0 DUP1 REVERT JUMPDEST PUSH0 PUSH2 0x3574 PUSH2 0x279D JUMP JUMPDEST SWAP1 POP PUSH2 0x3580 DUP3 DUP3 PUSH2 0x30C1 JUMP JUMPDEST SWAP2 SWAP1 POP JUMP JUMPDEST PUSH0 PUSH8 0xFFFFFFFFFFFFFFFF DUP3 GT ISZERO PUSH2 0x359F JUMPI PUSH2 0x359E PUSH2 0x3094 JUMP JUMPDEST JUMPDEST PUSH2 0x35A8 DUP3 PUSH2 0x2FE6 JUMP JUMPDEST SWAP1 POP PUSH1 0x20 DUP2 ADD SWAP1 POP SWAP2 SWAP1 POP JUMP JUMPDEST PUSH0 PUSH2 0x35C7 PUSH2 0x35C2 DUP5 PUSH2 0x3585 JUMP JUMPDEST PUSH2 0x356B JUMP JUMPDEST SWAP1 POP DUP3 DUP2 MSTORE PUSH1 0x20 DUP2 ADD DUP5 DUP5 DUP5 ADD GT ISZERO PUSH2 0x35E3 JUMPI PUSH2 0x35E2 PUSH2 0x3567 JUMP JUMPDEST JUMPDEST PUSH2 0x35EE DUP5 DUP3 DUP6 PUSH2 0x2FD8 JUMP JUMPDEST POP SWAP4 SWAP3 POP POP POP JUMP JUMPDEST PUSH0 DUP3 PUSH1 0x1F DUP4 ADD SLT PUSH2 0x360A JUMPI PUSH2 0x3609 PUSH2 0x2AD3 JUMP JUMPDEST JUMPDEST DUP2 CALLDATALOAD PUSH2 0x361A DUP5 DUP3 PUSH1 0x20 DUP7 ADD PUSH2 0x35B5 JUMP JUMPDEST SWAP2 POP POP SWAP3 SWAP2 POP POP JUMP JUMPDEST PUSH0 PUSH8 0xFFFFFFFFFFFFFFFF DUP3 GT ISZERO PUSH2 0x363D JUMPI PUSH2 0x363C PUSH2 0x3094 JUMP JUMPDEST JUMPDEST PUSH1 0x20 DUP3 MUL SWAP1 POP PUSH1 0x20 DUP2 ADD SWAP1 POP SWAP2 SWAP1 POP JUMP JUMPDEST PUSH0 DUP1 REVERT JUMPDEST PUSH2 0x365B DUP2 PUSH2 0x292A JUMP JUMPDEST DUP2 EQ PUSH2 0x3665 JUMPI PUSH0 DUP1 REVERT JUMPDEST POP JUMP JUMPDEST PUSH0 DUP2 CALLDATALOAD SWAP1 POP PUSH2 0x3676 DUP2 PUSH2 0x3652 JUMP JUMPDEST SWAP3 SWAP2 POP POP JUMP JUMPDEST PUSH0 PUSH1 0x80 DUP3 DUP5 SUB SLT ISZERO PUSH2 0x3691 JUMPI PUSH2 0x3690 PUSH2 0x364E JUMP JUMPDEST JUMPDEST PUSH2 0x369B PUSH1 0x80 PUSH2 0x356B JUMP JUMPDEST SWAP1 POP PUSH0 PUSH2 0x36AA DUP5 DUP3 DUP6 ADD PUSH2 0x27F4 JUMP JUMPDEST PUSH0 DUP4 ADD MSTORE POP PUSH1 0x20 PUSH2 0x36BD DUP5 DUP3 DUP6 ADD PUSH2 0x27F4 JUMP JUMPDEST PUSH1 0x20 DUP4 ADD MSTORE POP PUSH1 0x40 PUSH2 0x36D1 DUP5 DUP3 DUP6 ADD PUSH2 0x3668 JUMP JUMPDEST PUSH1 0x40 DUP4 ADD MSTORE POP PUSH1 0x60 PUSH2 0x36E5 DUP5 DUP3 DUP6 ADD PUSH2 0x28DC JUMP JUMPDEST PUSH1 0x60 DUP4 ADD MSTORE POP SWAP3 SWAP2 POP POP JUMP JUMPDEST PUSH0 PUSH2 0x3703 PUSH2 0x36FE DUP5 PUSH2 0x3623 JUMP JUMPDEST PUSH2 0x356B JUMP JUMPDEST SWAP1 POP DUP1 DUP4 DUP3 MSTORE PUSH1 0x20 DUP3 ADD SWAP1 POP PUSH1 0x80 DUP5 MUL DUP4 ADD DUP6 DUP2 GT ISZERO PUSH2 0x3726 JUMPI PUSH2 0x3725 PUSH2 0x2ADB JUMP JUMPDEST JUMPDEST DUP4 JUMPDEST DUP2 DUP2 LT ISZERO PUSH2 0x374F JUMPI DUP1 PUSH2 0x373B DUP9 DUP3 PUSH2 0x367C JUMP JUMPDEST DUP5 MSTORE PUSH1 0x20 DUP5 ADD SWAP4 POP POP PUSH1 0x80 DUP2 ADD SWAP1 POP PUSH2 0x3728 JUMP JUMPDEST POP POP POP SWAP4 SWAP3 POP POP POP JUMP JUMPDEST PUSH0 DUP3 PUSH1 0x1F DUP4 ADD SLT PUSH2 0x376D JUMPI PUSH2 0x376C PUSH2 0x2AD3 JUMP JUMPDEST JUMPDEST DUP2 CALLDATALOAD PUSH2 0x377D DUP5 DUP3 PUSH1 0x20 DUP7 ADD PUSH2 0x36F1 JUMP JUMPDEST SWAP2 POP POP SWAP3 SWAP2 POP POP JUMP JUMPDEST PUSH0 DUP1 PUSH0 PUSH1 0x60 DUP5 DUP7 SUB SLT ISZERO PUSH2 0x379D JUMPI PUSH2 0x379C PUSH2 0x27A6 JUMP JUMPDEST JUMPDEST PUSH0 DUP5 ADD CALLDATALOAD PUSH8 0xFFFFFFFFFFFFFFFF DUP2 GT ISZERO PUSH2 0x37BA JUMPI PUSH2 0x37B9 PUSH2 0x27AA JUMP JUMPDEST JUMPDEST PUSH2 0x37C6 DUP7 DUP3 DUP8 ADD PUSH2 0x35F6 JUMP JUMPDEST SWAP4 POP POP PUSH1 0x20 DUP5 ADD CALLDATALOAD PUSH8 0xFFFFFFFFFFFFFFFF DUP2 GT ISZERO PUSH2 0x37E7 JUMPI PUSH2 0x37E6 PUSH2 0x27AA JUMP JUMPDEST JUMPDEST PUSH2 0x37F3 DUP7 DUP3 DUP8 ADD PUSH2 0x3759 JUMP JUMPDEST SWAP3 POP POP PUSH1 0x40 DUP5 ADD CALLDATALOAD PUSH8 0xFFFFFFFFFFFFFFFF DUP2 GT ISZERO PUSH2 0x3814 JUMPI PUSH2 0x3813 PUSH2 0x27AA JUMP JUMPDEST JUMPDEST PUSH2 0x3820 DUP7 DUP3 DUP8 ADD PUSH2 0x35F6 JUMP JUMPDEST SWAP2 POP POP SWAP3 POP SWAP3 POP SWAP3 JUMP JUMPDEST PUSH32 0x4E487B7100000000000000000000000000000000000000000000000000000000 PUSH0 MSTORE PUSH1 0x32 PUSH1 0x4 MSTORE PUSH1 0x24 PUSH0 REVERT JUMPDEST PUSH0 PUSH2 0x3861 DUP3 PUSH2 0x288B JUMP JUMPDEST SWAP2 POP PUSH2 0x386C DUP4 PUSH2 0x288B JUMP JUMPDEST SWAP3 POP DUP3 DUP3 ADD SWAP1 POP PUSH8 0xFFFFFFFFFFFFFFFF DUP2 GT ISZERO PUSH2 0x388C JUMPI PUSH2 0x388B PUSH2 0x2DC8 JUMP JUMPDEST JUMPDEST SWAP3 SWAP2 POP POP JUMP JUMPDEST PUSH0 PUSH1 0x40 DUP3 ADD SWAP1 POP PUSH2 0x38A5 PUSH0 DUP4 ADD DUP6 PUSH2 0x289E JUMP JUMPDEST PUSH2 0x38B2 PUSH1 0x20 DUP4 ADD DUP5 PUSH2 0x289E JUMP JUMPDEST SWAP4 SWAP3 POP POP POP JUMP JUMPDEST PUSH0 PUSH1 0x20 DUP3 ADD SWAP1 POP PUSH2 0x38CC PUSH0 DUP4 ADD DUP5 PUSH2 0x2BB2 JUMP JUMPDEST SWAP3 SWAP2 POP POP JUMP INVALID LOG2 PUSH5 0x6970667358 0x22 SLT KECCAK256 LOG2 RETURNDATACOPY 0xBB SWAP3 0xD6 0xDC RETURNDATASIZE 0xE5 DELEGATECALL SWAP14 0xBD 0xAC POP XOR DIV BALANCE PUSH27 0xFD79BC72E86E25FAACA7153AD0E01364736F6C6343000814003300 "
		},
		"gasEstimates": {
			"creation": {
				"codeDepositCost": "2920000",
				"executionCost": "infinite",
				"totalCost": "infinite"
			},
			"external": {
				"IMAGE_ID()": "2471",
				"addSupportedToken(address)": "infinite",
				"bridgeWithVerification(bytes,bytes)": "infinite",
				"bridgeWithVerificationDebug(bytes,bytes,bytes)": "infinite",
				"claim(uint64)": "infinite",
				"emergencyWithdraw(address,uint256)": "infinite",
				"getInwardNonceCount()": "2518",
				"inwardTransfers(uint64)": "infinite",
				"isNonceClaimed(uint64)": "2895",
				"lastFinalizedHash()": "2514",
				"lastInwardNonce()": "2532",
				"outwardNonce()": "2512",
				"outwardTransfers(uint64)": "infinite",
				"owner()": "2605",
				"qToken()": "infinite",
				"removeTokenSupport(address)": "infinite",
				"renounceOwnership()": "infinite",
				"setImageId(bytes32)": "22610",
				"setLastFinalizedHash(bytes32)": "22604",
				"setTokenContract(address)": "infinite",
				"setTokenDisabled(address,bool)": "infinite",
				"setVerifier(address)": "infinite",
				"supportedTokens(address)": "2923",
				"tokenDisabled(address)": "2901",
				"transferOut(address,address,uint256)": "infinite",
				"transferOwnership(address)": "infinite",
				"verifierRouter()": "infinite"
			},
			"internal": {
				"_addTokenSupport(address)": "infinite",
				"_processVerifiedTransaction(bytes calldata)": "infinite"
			}
		},
		"methodIdentifiers": {
			"IMAGE_ID()": "549206ed",
			"addSupportedToken(address)": "6d69fcaf",
			"bridgeWithVerification(bytes,bytes)": "87c16d4f",
			"bridgeWithVerificationDebug(bytes,bytes,bytes)": "da1bb793",
			"claim(uint64)": "aab8ab0c",
			"emergencyWithdraw(address,uint256)": "95ccea67",
			"getInwardNonceCount()": "8f965b99",
			"inwardTransfers(uint64)": "23cb7b35",
			"isNonceClaimed(uint64)": "c4b75f16",
			"lastFinalizedHash()": "743ae7ad",
			"lastInwardNonce()": "dcac07db",
			"outwardNonce()": "07f8e853",
			"outwardTransfers(uint64)": "8d006438",
			"owner()": "8da5cb5b",
			"qToken()": "3a5abead",
			"removeTokenSupport(address)": "2ba8d939",
			"renounceOwnership()": "715018a6",
			"setImageId(bytes32)": "901129c2",
			"setLastFinalizedHash(bytes32)": "d7d1d520",
			"setTokenContract(address)": "bbcd5bbe",
			"setTokenDisabled(address,bool)": "e7741137",
			"setVerifier(address)": "5437988d",
			"supportedTokens(address)": "68c4ac26",
			"tokenDisabled(address)": "58e09bdd",
			"transferOut(address,address,uint256)": "078d3b79",
			"transferOwnership(address)": "f2fde38b",
			"verifierRouter()": "849a1586"
		}
	},
	"abi": [
		{
			"inputs": [
				{
					"internalType": "address",
					"name": "verifierAddress",
					"type": "address"
				},
				{
					"internalType": "address",
					"name": "tokenAddress",
					"type": "address"
				},
				{
					"internalType": "bytes32",
					"name": "_imageId",
					"type": "bytes32"
				},
				{
					"internalType": "address",
					"name": "initialOwner",
					"type": "address"
				},
				{
					"internalType": "bytes32",
					"name": "_lastFinalizedHash",
					"type": "bytes32"
				},
				{
					"internalType": "address[]",
					"name": "initialTokens",
					"type": "address[]"
				}
			],
			"stateMutability": "nonpayable",
			"type": "constructor"
		},
		{
			"inputs": [],
			"name": "BatchAlreadyProcessed",
			"type": "error"
		},
		{
			"inputs": [
				{
					"internalType": "uint256",
					"name": "current",
					"type": "uint256"
				},
				{
					"internalType": "uint256",
					"name": "required",
					"type": "uint256"
				}
			],
			"name": "InsufficientAllowance",
			"type": "error"
		},
		{
			"inputs": [],
			"name": "InvalidBeneficiary",
			"type": "error"
		},
		{
			"inputs": [],
			"name": "InvalidHashLength",
			"type": "error"
		},
		{
			"inputs": [],
			"name": "InvalidHashSequence",
			"type": "error"
		},
		{
			"inputs": [],
			"name": "InvalidImageId",
			"type": "error"
		},
		{
			"inputs": [],
			"name": "InvalidTokenAddress",
			"type": "error"
		},
		{
			"inputs": [],
			"name": "InvalidVerifierAddress",
			"type": "error"
		},
		{
			"inputs": [],
			"name": "NonceDoesNotExist",
			"type": "error"
		},
		{
			"inputs": [
				{
					"internalType": "uint64",
					"name": "expected",
					"type": "uint64"
				},
				{
					"internalType": "uint64",
					"name": "actual",
					"type": "uint64"
				}
			],
			"name": "NonceSequenceViolation",
			"type": "error"
		},
		{
			"inputs": [
				{
					"internalType": "address",
					"name": "owner",
					"type": "address"
				}
			],
			"name": "OwnableInvalidOwner",
			"type": "error"
		},
		{
			"inputs": [
				{
					"internalType": "address",
					"name": "account",
					"type": "address"
				}
			],
			"name": "OwnableUnauthorizedAccount",
			"type": "error"
		},
		{
			"inputs": [],
			"name": "ReentrancyGuardReentrantCall",
			"type": "error"
		},
		{
			"inputs": [
				{
					"internalType": "address",
					"name": "token",
					"type": "address"
				}
			],
			"name": "SafeERC20FailedOperation",
			"type": "error"
		},
		{
			"inputs": [
				{
					"internalType": "address",
					"name": "token",
					"type": "address"
				}
			],
			"name": "TokenDisabled",
			"type": "error"
		},
		{
			"inputs": [],
			"name": "TransferAlreadyProcessed",
			"type": "error"
		},
		{
			"inputs": [],
			"name": "UnsupportedToken",
			"type": "error"
		},
		{
			"inputs": [],
			"name": "ZeroAmount",
			"type": "error"
		},
		{
			"anonymous": false,
			"inputs": [
				{
					"indexed": true,
					"internalType": "uint64",
					"name": "nonce",
					"type": "uint64"
				},
				{
					"indexed": false,
					"internalType": "address",
					"name": "beneficiary",
					"type": "address"
				},
				{
					"indexed": false,
					"internalType": "address",
					"name": "token_address",
					"type": "address"
				},
				{
					"indexed": false,
					"internalType": "uint128",
					"name": "amount",
					"type": "uint128"
				},
				{
					"indexed": false,
					"internalType": "uint256",
					"name": "timestamp",
					"type": "uint256"
				}
			],
			"name": "InboundTransferRecorded",
			"type": "event"
		},
		{
			"anonymous": false,
			"inputs": [
				{
					"indexed": true,
					"internalType": "uint64",
					"name": "nonce",
					"type": "uint64"
				},
				{
					"indexed": false,
					"internalType": "address",
					"name": "sender",
					"type": "address"
				},
				{
					"indexed": false,
					"internalType": "address",
					"name": "beneficiary",
					"type": "address"
				},
				{
					"indexed": false,
					"internalType": "address",
					"name": "token_address",
					"type": "address"
				},
				{
					"indexed": false,
					"internalType": "uint256",
					"name": "amount",
					"type": "uint256"
				}
			],
			"name": "OutboundTransferInitiated",
			"type": "event"
		},
		{
			"anonymous": false,
			"inputs": [
				{
					"indexed": true,
					"internalType": "address",
					"name": "previousOwner",
					"type": "address"
				},
				{
					"indexed": true,
					"internalType": "address",
					"name": "newOwner",
					"type": "address"
				}
			],
			"name": "OwnershipTransferred",
			"type": "event"
		},
		{
			"anonymous": false,
			"inputs": [
				{
					"indexed": true,
					"internalType": "bytes32",
					"name": "lastFinalizedHash",
					"type": "bytes32"
				},
				{
					"indexed": true,
					"internalType": "bytes32",
					"name": "latestFinalizedHash",
					"type": "bytes32"
				},
				{
					"indexed": false,
					"internalType": "uint256",
					"name": "count",
					"type": "uint256"
				}
			],
			"name": "ProcessedTransaction",
			"type": "event"
		},
		{
			"anonymous": false,
			"inputs": [
				{
					"indexed": false,
					"internalType": "address",
					"name": "oldToken",
					"type": "address"
				},
				{
					"indexed": false,
					"internalType": "address",
					"name": "newToken",
					"type": "address"
				}
			],
			"name": "TokenContractChanged",
			"type": "event"
		},
		{
			"anonymous": false,
			"inputs": [
				{
					"indexed": false,
					"internalType": "address",
					"name": "token",
					"type": "address"
				},
				{
					"indexed": false,
					"internalType": "bool",
					"name": "supported",
					"type": "bool"
				},
				{
					"indexed": false,
					"internalType": "bool",
					"name": "disabled",
					"type": "bool"
				}
			],
			"name": "TokenSupportUpdated",
			"type": "event"
		},
		{
			"anonymous": false,
			"inputs": [
				{
					"indexed": true,
					"internalType": "uint64",
					"name": "nonce",
					"type": "uint64"
				},
				{
					"indexed": false,
					"internalType": "address",
					"name": "claimer",
					"type": "address"
				},
				{
					"indexed": false,
					"internalType": "address",
					"name": "token_address",
					"type": "address"
				},
				{
					"indexed": false,
					"internalType": "uint128",
					"name": "amount",
					"type": "uint128"
				},
				{
					"indexed": false,
					"internalType": "uint256",
					"name": "timestamp",
					"type": "uint256"
				}
			],
			"name": "TransferClaimed",
			"type": "event"
		},
		{
			"anonymous": false,
			"inputs": [
				{
					"indexed": true,
					"internalType": "bytes32",
					"name": "imageId",
					"type": "bytes32"
				},
				{
					"indexed": false,
					"internalType": "string",
					"name": "reason",
					"type": "string"
				}
			],
			"name": "VerificationFailed",
			"type": "event"
		},
		{
			"anonymous": false,
			"inputs": [
				{
					"indexed": true,
					"internalType": "bytes32",
					"name": "imageId",
					"type": "bytes32"
				},
				{
					"indexed": false,
					"internalType": "bytes32",
					"name": "journalHash",
					"type": "bytes32"
				}
			],
			"name": "VerificationSuccess",
			"type": "event"
		},
		{
			"anonymous": false,
			"inputs": [
				{
					"indexed": false,
					"internalType": "address",
					"name": "oldVerifier",
					"type": "address"
				},
				{
					"indexed": false,
					"internalType": "address",
					"name": "newVerifier",
					"type": "address"
				}
			],
			"name": "VerifierChanged",
			"type": "event"
		},
		{
			"inputs": [],
			"name": "IMAGE_ID",
			"outputs": [
				{
					"internalType": "bytes32",
					"name": "",
					"type": "bytes32"
				}
			],
			"stateMutability": "view",
			"type": "function"
		},
		{
			"inputs": [
				{
					"internalType": "address",
					"name": "token",
					"type": "address"
				}
			],
			"name": "addSupportedToken",
			"outputs": [],
			"stateMutability": "nonpayable",
			"type": "function"
		},
		{
			"inputs": [
				{
					"internalType": "bytes",
					"name": "seal",
					"type": "bytes"
				},
				{
					"internalType": "bytes",
					"name": "journal",
					"type": "bytes"
				}
			],
			"name": "bridgeWithVerification",
			"outputs": [],
			"stateMutability": "nonpayable",
			"type": "function"
		},
		{
			"inputs": [
				{
					"internalType": "bytes",
					"name": "seal",
					"type": "bytes"
				},
				{
					"internalType": "bytes",
					"name": "journal",
					"type": "bytes"
				},
				{
					"internalType": "bytes",
					"name": "journal2",
					"type": "bytes"
				}
			],
			"name": "bridgeWithVerificationDebug",
			"outputs": [],
			"stateMutability": "nonpayable",
			"type": "function"
		},
		{
			"inputs": [
				{
					"internalType": "uint64",
					"name": "nonce",
					"type": "uint64"
				}
			],
			"name": "claim",
			"outputs": [],
			"stateMutability": "nonpayable",
			"type": "function"
		},
		{
			"inputs": [
				{
					"internalType": "address",
					"name": "token",
					"type": "address"
				},
				{
					"internalType": "uint256",
					"name": "amount",
					"type": "uint256"
				}
			],
			"name": "emergencyWithdraw",
			"outputs": [],
			"stateMutability": "nonpayable",
			"type": "function"
		},
		{
			"inputs": [],
			"name": "getInwardNonceCount",
			"outputs": [
				{
					"internalType": "uint64",
					"name": "",
					"type": "uint64"
				}
			],
			"stateMutability": "view",
			"type": "function"
		},
		{
			"inputs": [
				{
					"internalType": "uint64",
					"name": "",
					"type": "uint64"
				}
			],
			"name": "inwardTransfers",
			"outputs": [
				{
					"internalType": "address",
					"name": "beneficiary",
					"type": "address"
				},
				{
					"internalType": "address",
					"name": "token_address",
					"type": "address"
				},
				{
					"internalType": "uint128",
					"name": "amount",
					"type": "uint128"
				},
				{
					"internalType": "uint64",
					"name": "nonce",
					"type": "uint64"
				}
			],
			"stateMutability": "view",
			"type": "function"
		},
		{
			"inputs": [
				{
					"internalType": "uint64",
					"name": "nonce",
					"type": "uint64"
				}
			],
			"name": "isNonceClaimed",
			"outputs": [
				{
					"internalType": "bool",
					"name": "",
					"type": "bool"
				}
			],
			"stateMutability": "view",
			"type": "function"
		},
		{
			"inputs": [],
			"name": "lastFinalizedHash",
			"outputs": [
				{
					"internalType": "bytes32",
					"name": "",
					"type": "bytes32"
				}
			],
			"stateMutability": "view",
			"type": "function"
		},
		{
			"inputs": [],
			"name": "lastInwardNonce",
			"outputs": [
				{
					"internalType": "uint64",
					"name": "",
					"type": "uint64"
				}
			],
			"stateMutability": "view",
			"type": "function"
		},
		{
			"inputs": [],
			"name": "outwardNonce",
			"outputs": [
				{
					"internalType": "uint64",
					"name": "",
					"type": "uint64"
				}
			],
			"stateMutability": "view",
			"type": "function"
		},
		{
			"inputs": [
				{
					"internalType": "uint64",
					"name": "",
					"type": "uint64"
				}
			],
			"name": "outwardTransfers",
			"outputs": [
				{
					"internalType": "address",
					"name": "beneficiary",
					"type": "address"
				},
				{
					"internalType": "address",
					"name": "token_address",
					"type": "address"
				},
				{
					"internalType": "uint256",
					"name": "amount",
					"type": "uint256"
				},
				{
					"internalType": "uint64",
					"name": "nonce",
					"type": "uint64"
				}
			],
			"stateMutability": "view",
			"type": "function"
		},
		{
			"inputs": [],
			"name": "owner",
			"outputs": [
				{
					"internalType": "address",
					"name": "",
					"type": "address"
				}
			],
			"stateMutability": "view",
			"type": "function"
		},
		{
			"inputs": [],
			"name": "qToken",
			"outputs": [
				{
					"internalType": "contract QTOVToken",
					"name": "",
					"type": "address"
				}
			],
			"stateMutability": "view",
			"type": "function"
		},
		{
			"inputs": [
				{
					"internalType": "address",
					"name": "token",
					"type": "address"
				}
			],
			"name": "removeTokenSupport",
			"outputs": [],
			"stateMutability": "nonpayable",
			"type": "function"
		},
		{
			"inputs": [],
			"name": "renounceOwnership",
			"outputs": [],
			"stateMutability": "nonpayable",
			"type": "function"
		},
		{
			"inputs": [
				{
					"internalType": "bytes32",
					"name": "_imageId",
					"type": "bytes32"
				}
			],
			"name": "setImageId",
			"outputs": [],
			"stateMutability": "nonpayable",
			"type": "function"
		},
		{
			"inputs": [
				{
					"internalType": "bytes32",
					"name": "_hash",
					"type": "bytes32"
				}
			],
			"name": "setLastFinalizedHash",
			"outputs": [],
			"stateMutability": "nonpayable",
			"type": "function"
		},
		{
			"inputs": [
				{
					"internalType": "address",
					"name": "newToken",
					"type": "address"
				}
			],
			"name": "setTokenContract",
			"outputs": [],
			"stateMutability": "nonpayable",
			"type": "function"
		},
		{
			"inputs": [
				{
					"internalType": "address",
					"name": "token",
					"type": "address"
				},
				{
					"internalType": "bool",
					"name": "disabled",
					"type": "bool"
				}
			],
			"name": "setTokenDisabled",
			"outputs": [],
			"stateMutability": "nonpayable",
			"type": "function"
		},
		{
			"inputs": [
				{
					"internalType": "address",
					"name": "newVerifier",
					"type": "address"
				}
			],
			"name": "setVerifier",
			"outputs": [],
			"stateMutability": "nonpayable",
			"type": "function"
		},
		{
			"inputs": [
				{
					"internalType": "address",
					"name": "",
					"type": "address"
				}
			],
			"name": "supportedTokens",
			"outputs": [
				{
					"internalType": "bool",
					"name": "",
					"type": "bool"
				}
			],
			"stateMutability": "view",
			"type": "function"
		},
		{
			"inputs": [
				{
					"internalType": "address",
					"name": "",
					"type": "address"
				}
			],
			"name": "tokenDisabled",
			"outputs": [
				{
					"internalType": "bool",
					"name": "",
					"type": "bool"
				}
			],
			"stateMutability": "view",
			"type": "function"
		},
		{
			"inputs": [
				{
					"internalType": "address",
					"name": "beneficiary",
					"type": "address"
				},
				{
					"internalType": "address",
					"name": "token_address",
					"type": "address"
				},
				{
					"internalType": "uint256",
					"name": "amount",
					"type": "uint256"
				}
			],
			"name": "transferOut",
			"outputs": [],
			"stateMutability": "nonpayable",
			"type": "function"
		},
		{
			"inputs": [
				{
					"internalType": "address",
					"name": "newOwner",
					"type": "address"
				}
			],
			"name": "transferOwnership",
			"outputs": [],
			"stateMutability": "nonpayable",
			"type": "function"
		},
		{
			"inputs": [],
			"name": "verifierRouter",
			"outputs": [
				{
					"internalType": "contract RiscZeroVerifierRouter",
					"name": "",
					"type": "address"
				}
			],
			"stateMutability": "view",
			"type": "function"
		}
	]
}