{
	"data": {
		"bytecode": {
			"linkReferences": {},
			"object": "60806040525f60055f6101000a81548167ffffffffffffffff021916908367ffffffffffffffff1602179055505f6009553480156200003c575f80fd5b50604051620027bd380380620027bd833981810160405281019062000062919062000415565b815f73ffffffffffffffffffffffffffffffffffffffff168173ffffffffffffffffffffffffffffffffffffffff1603620000d6575f6040517f1e4fbdf7000000000000000000000000000000000000000000000000000000008152600401620000cd9190620004aa565b60405180910390fd5b620000e781620002b760201b60201c565b50600180819055505f73ffffffffffffffffffffffffffffffffffffffff168573ffffffffffffffffffffffffffffffffffffffff16036200016257846040517f66861b66000000000000000000000000000000000000000000000000000000008152600401620001599190620004aa565b60405180910390fd5b5f73ffffffffffffffffffffffffffffffffffffffff168473ffffffffffffffffffffffffffffffffffffffff1603620001d557836040517f73306803000000000000000000000000000000000000000000000000000000008152600401620001cc9190620004aa565b60405180910390fd5b5f801b83036200021e57826040517ff72e3c6c000000000000000000000000000000000000000000000000000000008152600401620002159190620004d6565b60405180910390fd5b8460035f6101000a81548173ffffffffffffffffffffffffffffffffffffffff021916908373ffffffffffffffffffffffffffffffffffffffff1602179055508360025f6101000a81548173ffffffffffffffffffffffffffffffffffffffff021916908373ffffffffffffffffffffffffffffffffffffffff16021790555082600481905550806006819055505050505050620004f1565b5f805f9054906101000a900473ffffffffffffffffffffffffffffffffffffffff169050815f806101000a81548173ffffffffffffffffffffffffffffffffffffffff021916908373ffffffffffffffffffffffffffffffffffffffff1602179055508173ffffffffffffffffffffffffffffffffffffffff168173ffffffffffffffffffffffffffffffffffffffff167f8be0079c531659141344cd1fd0a4f28419497f9722a3daafe3b4186f6b6457e060405160405180910390a35050565b5f80fd5b5f73ffffffffffffffffffffffffffffffffffffffff82169050919050565b5f620003a7826200037c565b9050919050565b620003b9816200039b565b8114620003c4575f80fd5b50565b5f81519050620003d781620003ae565b92915050565b5f819050919050565b620003f181620003dd565b8114620003fc575f80fd5b50565b5f815190506200040f81620003e6565b92915050565b5f805f805f60a0868803121562000431576200043062000378565b5b5f6200044088828901620003c7565b95505060206200045388828901620003c7565b94505060406200046688828901620003ff565b93505060606200047988828901620003c7565b92505060806200048c88828901620003ff565b9150509295509295909350565b620004a4816200039b565b82525050565b5f602082019050620004bf5f83018462000499565b92915050565b620004d081620003dd565b82525050565b5f602082019050620004eb5f830184620004c5565b92915050565b6122be80620004ff5f395ff3fe608060405234801561000f575f80fd5b506004361061012a575f3560e01c806387c16d4f116100ab578063d7d1d5201161006f578063d7d1d520146102e5578063da1bb79314610301578063dcac07db1461031d578063f17f51061461033b578063f2fde38b1461036e5761012a565b806387c16d4f146102555780638da5cb5b146102715780638f965b991461028f578063901129c2146102ad578063bbcd5bbe146102c95761012a565b8063549206ed116100f2578063549206ed146101d5578063715018a6146101f3578063743ae7ad146101fd57806376890c581461021b578063849a1586146102375761012a565b806307f8e8531461012e5780630ed163391461014c578063379607f51461017f5780633a5abead1461019b5780635437988d146101b9575b5f80fd5b61013661038a565b6040516101439190611655565b60405180910390f35b610166600480360381019061016191906116b2565b6103a3565b6040516101769493929190611745565b60405180910390f35b610199600480360381019061019491906116b2565b610406565b005b6101a361061f565b6040516101b091906117e3565b60405180910390f35b6101d360048036038101906101ce9190611826565b610644565b005b6101dd61075e565b6040516101ea9190611869565b60405180910390f35b6101fb610764565b005b610205610777565b6040516102129190611869565b60405180910390f35b61023560048036038101906102309190611882565b61077d565b005b61023f6109dd565b60405161024c91906118e0565b60405180910390f35b61026f600480360381019061026a919061195a565b610a02565b005b610279610c13565b60405161028691906119d8565b60405180910390f35b610297610c3a565b6040516102a491906119f1565b60405180910390f35b6102c760048036038101906102c29190611a34565b610c43565b005b6102e360048036038101906102de9190611826565b610c4d565b005b6102ff60048036038101906102fa9190611a34565b610d67565b005b61031b60048036038101906103169190611a5f565b610d71565b005b610325610f84565b60405161033291906119f1565b60405180910390f35b610355600480360381019061035091906116b2565b610f8a565b6040516103659493929190611745565b60405180910390f35b61038860048036038101906103839190611826565b610fed565b005b60055f9054906101000a900467ffffffffffffffff1681565b600a602052805f5260405f205f91509050805f015f9054906101000a900460ff1690805f0160019054906101000a900460ff1690806001015490806002015f9054906101000a900473ffffffffffffffffffffffffffffffffffffffff16905084565b61040e611071565b5f600b5f8381526020019081526020015f209050805f0160019054906101000a900460ff1661048457805f0160019054906101000a900460ff166040517f4b9f111700000000000000000000000000000000000000000000000000000000815260040161047b9190611b0f565b60405180910390fd5b805f015f9054906101000a900460ff16156104e557805f015f9054906101000a900460ff166040517fa459d8cb0000000000000000000000000000000000000000000000000000000081526004016104dc9190611b0f565b60405180910390fd5b6001815f015f6101000a81548160ff02191690831515021790555060025f9054906101000a900473ffffffffffffffffffffffffffffffffffffffff1673ffffffffffffffffffffffffffffffffffffffff166340c10f19826002015f9054906101000a900473ffffffffffffffffffffffffffffffffffffffff1683600101546040518363ffffffff1660e01b8152600401610583929190611b28565b5f604051808303815f87803b15801561059a575f80fd5b505af11580156105ac573d5f803e3d5ffd5b50505050817f9424bec80b0ea7db14d21c4dc7533685e431ff5fdb1bf2d322e8ec4d2d2427f9826002015f9054906101000a900473ffffffffffffffffffffffffffffffffffffffff1683600101544260405161060b93929190611b4f565b60405180910390a25061061c6110b7565b50565b60025f9054906101000a900473ffffffffffffffffffffffffffffffffffffffff1681565b61064c6110c0565b5f73ffffffffffffffffffffffffffffffffffffffff168173ffffffffffffffffffffffffffffffffffffffff16036106bc57806040517f66861b660000000000000000000000000000000000000000000000000000000081526004016106b391906119d8565b60405180910390fd5b5f60035f9054906101000a900473ffffffffffffffffffffffffffffffffffffffff1690508160035f6101000a81548173ffffffffffffffffffffffffffffffffffffffff021916908373ffffffffffffffffffffffffffffffffffffffff1602179055507f0ddda8be1021ab00f63727c5c5504ad96b163269770a3fe8ac3dd0bcb40208df8183604051610752929190611b84565b60405180910390a15050565b60045481565b61076c6110c0565b6107755f611147565b565b60065481565b610785611071565b5f81036107c957806040517f9af704480000000000000000000000000000000000000000000000000000000081526004016107c091906119f1565b60405180910390fd5b5f73ffffffffffffffffffffffffffffffffffffffff168273ffffffffffffffffffffffffffffffffffffffff160361083957816040517f1a3b45fd00000000000000000000000000000000000000000000000000000000815260040161083091906119d8565b60405180910390fd5b5f60055f81819054906101000a900467ffffffffffffffff1661085b90611bd8565b91906101000a81548167ffffffffffffffff021916908367ffffffffffffffff1602179055905081600a5f8367ffffffffffffffff1681526020019081526020015f206001018190555082600a5f8367ffffffffffffffff1681526020019081526020015f206002015f6101000a81548173ffffffffffffffffffffffffffffffffffffffff021916908373ffffffffffffffffffffffffffffffffffffffff16021790555060025f9054906101000a900473ffffffffffffffffffffffffffffffffffffffff1673ffffffffffffffffffffffffffffffffffffffff166379cc679033846040518363ffffffff1660e01b815260040161095d929190611b28565b5f604051808303815f87803b158015610974575f80fd5b505af1158015610986573d5f803e3d5ffd5b505050508067ffffffffffffffff167f47dccf24ea61533ca1d41d19af350570ddd2b25bc220a875f7cadad102bd876d3385856040516109c893929190611c07565b60405180910390a2506109d96110b7565b5050565b60035f9054906101000a900473ffffffffffffffffffffffffffffffffffffffff1681565b610a0a611071565b60035f9054906101000a900473ffffffffffffffffffffffffffffffffffffffff1673ffffffffffffffffffffffffffffffffffffffff1663092c15bc858560045486866040518663ffffffff1660e01b8152600401610a6e959493929190611c96565b5f6040518083038186803b158015610a84575f80fd5b505afa925050508015610a95575060015b610b7157610aa1611ce9565b806308c379a003610b005750610ab5611d66565b80610ac05750610b02565b6004547f1b274bac0e8bb49d3ad90709790a3bf2aa1b86313b4c1a7ae5af9cb7832f720482604051610af29190611e6f565b60405180910390a250610b6c565b505b3d805f8114610b2c576040519150601f19603f3d011682016040523d82523d5f602084013e610b31565b606091505b506004547f1b274bac0e8bb49d3ad90709790a3bf2aa1b86313b4c1a7ae5af9cb7832f7204604051610b6290611ed9565b60405180910390a2505b610c05565b610b7b8282611208565b6004547f2a0cba4a87b6aee1ae5ce93610a04b1f87dd14b381544e4c6c9e336a1b42d60360028484604051610bb1929190611f25565b602060405180830381855afa158015610bcc573d5f803e3d5ffd5b5050506040513d601f19601f82011682018060405250810190610bef9190611f51565b604051610bfc9190611869565b60405180910390a25b610c0d6110b7565b50505050565b5f805f9054906101000a900473ffffffffffffffffffffffffffffffffffffffff16905090565b5f600954905090565b8060048190555050565b610c556110c0565b5f73ffffffffffffffffffffffffffffffffffffffff168173ffffffffffffffffffffffffffffffffffffffff1603610cc557806040517f73306803000000000000000000000000000000000000000000000000000000008152600401610cbc91906119d8565b60405180910390fd5b5f60025f9054906101000a900473ffffffffffffffffffffffffffffffffffffffff1690508160025f6101000a81548173ffffffffffffffffffffffffffffffffffffffff021916908373ffffffffffffffffffffffffffffffffffffffff1602179055507f77eb83e5a99d4c074eb700f13ac00ff604c6325fe03fc8720fa7ae2b5909387d8183604051610d5b929190611b84565b60405180910390a15050565b8060068190555050565b610d79611071565b60035f9054906101000a900473ffffffffffffffffffffffffffffffffffffffff1673ffffffffffffffffffffffffffffffffffffffff1663092c15bc878760045488886040518663ffffffff1660e01b8152600401610ddd959493929190611c96565b5f6040518083038186803b158015610df3575f80fd5b505afa925050508015610e04575060015b610ee057610e10611ce9565b806308c379a003610e6f5750610e24611d66565b80610e2f5750610e71565b6004547f1b274bac0e8bb49d3ad90709790a3bf2aa1b86313b4c1a7ae5af9cb7832f720482604051610e619190611e6f565b60405180910390a250610edb565b505b3d805f8114610e9b576040519150601f19603f3d011682016040523d82523d5f602084013e610ea0565b606091505b506004547f1b274bac0e8bb49d3ad90709790a3bf2aa1b86313b4c1a7ae5af9cb7832f7204604051610ed190611ed9565b60405180910390a2505b610f74565b610eea8282611208565b6004547f2a0cba4a87b6aee1ae5ce93610a04b1f87dd14b381544e4c6c9e336a1b42d60360028686604051610f20929190611f25565b602060405180830381855afa158015610f3b573d5f803e3d5ffd5b5050506040513d601f19601f82011682018060405250810190610f5e9190611f51565b604051610f6b9190611869565b60405180910390a25b610f7c6110b7565b505050505050565b60075481565b600b602052805f5260405f205f91509050805f015f9054906101000a900460ff1690805f0160019054906101000a900460ff1690806001015490806002015f9054906101000a900473ffffffffffffffffffffffffffffffffffffffff16905084565b610ff56110c0565b5f73ffffffffffffffffffffffffffffffffffffffff168173ffffffffffffffffffffffffffffffffffffffff1603611065575f6040517f1e4fbdf700000000000000000000000000000000000000000000000000000000815260040161105c91906119d8565b60405180910390fd5b61106e81611147565b50565b6002600154036110ad576040517f3ee5aeb500000000000000000000000000000000000000000000000000000000815260040160405180910390fd5b6002600181905550565b60018081905550565b6110c861162c565b73ffffffffffffffffffffffffffffffffffffffff166110e6610c13565b73ffffffffffffffffffffffffffffffffffffffff16146111455761110961162c565b6040517f118cdaa700000000000000000000000000000000000000000000000000000000815260040161113c91906119d8565b60405180910390fd5b565b5f805f9054906101000a900473ffffffffffffffffffffffffffffffffffffffff169050815f806101000a81548173ffffffffffffffffffffffffffffffffffffffff021916908373ffffffffffffffffffffffffffffffffffffffff1602179055508173ffffffffffffffffffffffffffffffffffffffff168173ffffffffffffffffffffffffffffffffffffffff167f8be0079c531659141344cd1fd0a4f28419497f9722a3daafe3b4186f6b6457e060405160405180910390a35050565b5f805f848481019061121a919061215d565b9250925092506020835114158061123357506020815114155b1561126a576040517f6f7b6c0300000000000000000000000000000000000000000000000000000000815260040160405180910390fd5b5f8380602001905181019061127f9190611f51565b90505f828060200190518101906112969190611f51565b905060065481036112d3576040517fe2b1f19400000000000000000000000000000000000000000000000000000000815260040160405180910390fd5b5f801b81141580156112e757506006548214155b1561131e576040517f8405b42d00000000000000000000000000000000000000000000000000000000815260040160405180910390fd5b5f845190505f8111156115e2575f805f90505b828110156115df575f60016007546113499190612201565b90505f88838151811061135f5761135e612234565b5b60200260200101515f015190508181146113b25781816040517fe51a15d70000000000000000000000000000000000000000000000000000000081526004016113a9929190612261565b60405180910390fd5b5f8984815181106113c6576113c5612234565b5b602002602001015190505f841115611431576001856113e59190612201565b815f0151146114305784815f01516040517fe51a15d7000000000000000000000000000000000000000000000000000000008152600401611427929190612261565b60405180910390fd5b5b805f01519450600b5f825f015181526020019081526020015f205f0160019054906101000a900460ff16156114a057805f01516040517f8519a58d00000000000000000000000000000000000000000000000000000000815260040161149791906119f1565b60405180910390fd5b5f600b5f835f015181526020019081526020015f2090505f815f015f6101000a81548160ff0219169083151502179055506001815f0160016101000a81548160ff021916908315150217905550816040015181600101819055508160200151816002015f6101000a81548173ffffffffffffffffffffffffffffffffffffffff021916908373ffffffffffffffffffffffffffffffffffffffff160217905550600160085f845f015181526020019081526020015f205f6101000a81548160ff02191690831515021790555060095f8154809291906001019190505550815f0151600781905550815f01517fa8b5340e621e212fbe48c04ce9974ec382161108b88e51abaf7f82bf25dcfdcf83602001518460400151426040516115c693929190611b4f565b60405180910390a2848060010195505050505050611331565b50505b8160068190555081837fb6354a0ae57c57c360dc75df59dfb88263b4ebf89ca9f2c2c61c15ab05c5d72b8360405161161a91906119f1565b60405180910390a35050505050505050565b5f33905090565b5f67ffffffffffffffff82169050919050565b61164f81611633565b82525050565b5f6020820190506116685f830184611646565b92915050565b5f604051905090565b5f80fd5b5f80fd5b5f819050919050565b6116918161167f565b811461169b575f80fd5b50565b5f813590506116ac81611688565b92915050565b5f602082840312156116c7576116c6611677565b5b5f6116d48482850161169e565b91505092915050565b5f8115159050919050565b6116f1816116dd565b82525050565b6117008161167f565b82525050565b5f73ffffffffffffffffffffffffffffffffffffffff82169050919050565b5f61172f82611706565b9050919050565b61173f81611725565b82525050565b5f6080820190506117585f8301876116e8565b61176560208301866116e8565b61177260408301856116f7565b61177f6060830184611736565b95945050505050565b5f819050919050565b5f6117ab6117a66117a184611706565b611788565b611706565b9050919050565b5f6117bc82611791565b9050919050565b5f6117cd826117b2565b9050919050565b6117dd816117c3565b82525050565b5f6020820190506117f65f8301846117d4565b92915050565b61180581611725565b811461180f575f80fd5b50565b5f81359050611820816117fc565b92915050565b5f6020828403121561183b5761183a611677565b5b5f61184884828501611812565b91505092915050565b5f819050919050565b61186381611851565b82525050565b5f60208201905061187c5f83018461185a565b92915050565b5f806040838503121561189857611897611677565b5b5f6118a585828601611812565b92505060206118b68582860161169e565b9150509250929050565b5f6118ca826117b2565b9050919050565b6118da816118c0565b82525050565b5f6020820190506118f35f8301846118d1565b92915050565b5f80fd5b5f80fd5b5f80fd5b5f8083601f84011261191a576119196118f9565b5b8235905067ffffffffffffffff811115611937576119366118fd565b5b60208301915083600182028301111561195357611952611901565b5b9250929050565b5f805f806040858703121561197257611971611677565b5b5f85013567ffffffffffffffff81111561198f5761198e61167b565b5b61199b87828801611905565b9450945050602085013567ffffffffffffffff8111156119be576119bd61167b565b5b6119ca87828801611905565b925092505092959194509250565b5f6020820190506119eb5f830184611736565b92915050565b5f602082019050611a045f8301846116f7565b92915050565b611a1381611851565b8114611a1d575f80fd5b50565b5f81359050611a2e81611a0a565b92915050565b5f60208284031215611a4957611a48611677565b5b5f611a5684828501611a20565b91505092915050565b5f805f805f8060608789031215611a7957611a78611677565b5b5f87013567ffffffffffffffff811115611a9657611a9561167b565b5b611aa289828a01611905565b9650965050602087013567ffffffffffffffff811115611ac557611ac461167b565b5b611ad189828a01611905565b9450945050604087013567ffffffffffffffff811115611af457611af361167b565b5b611b0089828a01611905565b92509250509295509295509295565b5f602082019050611b225f8301846116e8565b92915050565b5f604082019050611b3b5f830185611736565b611b4860208301846116f7565b9392505050565b5f606082019050611b625f830186611736565b611b6f60208301856116f7565b611b7c60408301846116f7565b949350505050565b5f604082019050611b975f830185611736565b611ba46020830184611736565b9392505050565b7f4e487b71000000000000000000000000000000000000000000000000000000005f52601160045260245ffd5b5f611be282611633565b915067ffffffffffffffff8203611bfc57611bfb611bab565b5b600182019050919050565b5f606082019050611c1a5f830186611736565b611c276020830185611736565b611c3460408301846116f7565b949350505050565b5f82825260208201905092915050565b828183375f83830152505050565b5f601f19601f8301169050919050565b5f611c758385611c3c565b9350611c82838584611c4c565b611c8b83611c5a565b840190509392505050565b5f6060820190508181035f830152611caf818789611c6a565b9050611cbe602083018661185a565b8181036040830152611cd1818486611c6a565b90509695505050505050565b5f8160e01c9050919050565b5f60033d1115611d055760045f803e611d025f51611cdd565b90505b90565b7f4e487b71000000000000000000000000000000000000000000000000000000005f52604160045260245ffd5b611d3e82611c5a565b810181811067ffffffffffffffff82111715611d5d57611d5c611d08565b5b80604052505050565b5f60443d10611df257611d7761166e565b60043d036004823e80513d602482011167ffffffffffffffff82111715611d9f575050611df2565b808201805167ffffffffffffffff811115611dbd5750505050611df2565b80602083010160043d038501811115611dda575050505050611df2565b611de982602001850186611d35565b82955050505050505b90565b5f81519050919050565b5f82825260208201905092915050565b5f5b83811015611e2c578082015181840152602081019050611e11565b5f8484015250505050565b5f611e4182611df5565b611e4b8185611dff565b9350611e5b818560208601611e0f565b611e6481611c5a565b840191505092915050565b5f6020820190508181035f830152611e878184611e37565b905092915050565b7f4c6f772d6c6576656c20766572696669636174696f6e206572726f72000000005f82015250565b5f611ec3601c83611dff565b9150611ece82611e8f565b602082019050919050565b5f6020820190508181035f830152611ef081611eb7565b9050919050565b5f81905092915050565b5f611f0c8385611ef7565b9350611f19838584611c4c565b82840190509392505050565b5f611f31828486611f01565b91508190509392505050565b5f81519050611f4b81611a0a565b92915050565b5f60208284031215611f6657611f65611677565b5b5f611f7384828501611f3d565b91505092915050565b5f80fd5b5f611f8961166e565b9050611f958282611d35565b919050565b5f67ffffffffffffffff821115611fb457611fb3611d08565b5b611fbd82611c5a565b9050602081019050919050565b5f611fdc611fd784611f9a565b611f80565b905082815260208101848484011115611ff857611ff7611f7c565b5b612003848285611c4c565b509392505050565b5f82601f83011261201f5761201e6118f9565b5b813561202f848260208601611fca565b91505092915050565b5f67ffffffffffffffff82111561205257612051611d08565b5b602082029050602081019050919050565b5f80fd5b5f6060828403121561207c5761207b612063565b5b6120866060611f80565b90505f6120958482850161169e565b5f8301525060206120a884828501611812565b60208301525060406120bc8482850161169e565b60408301525092915050565b5f6120da6120d584612038565b611f80565b905080838252602082019050606084028301858111156120fd576120fc611901565b5b835b8181101561212657806121128882612067565b8452602084019350506060810190506120ff565b5050509392505050565b5f82601f830112612144576121436118f9565b5b81356121548482602086016120c8565b91505092915050565b5f805f6060848603121561217457612173611677565b5b5f84013567ffffffffffffffff8111156121915761219061167b565b5b61219d8682870161200b565b935050602084013567ffffffffffffffff8111156121be576121bd61167b565b5b6121ca86828701612130565b925050604084013567ffffffffffffffff8111156121eb576121ea61167b565b5b6121f78682870161200b565b9150509250925092565b5f61220b8261167f565b91506122168361167f565b925082820190508082111561222e5761222d611bab565b5b92915050565b7f4e487b71000000000000000000000000000000000000000000000000000000005f52603260045260245ffd5b5f6040820190506122745f8301856116f7565b61228160208301846116f7565b939250505056fea2646970667358221220fd1c60dba39a616a26ad588fa294ef0c605bfd9c147bf6b28833589a3debe57364736f6c63430008140033",
			"opcodes": "PUSH1 0x80 PUSH1 0x40 MSTORE PUSH0 PUSH1 0x5 PUSH0 PUSH2 0x100 EXP DUP2 SLOAD DUP2 PUSH8 0xFFFFFFFFFFFFFFFF MUL NOT AND SWAP1 DUP4 PUSH8 0xFFFFFFFFFFFFFFFF AND MUL OR SWAP1 SSTORE POP PUSH0 PUSH1 0x9 SSTORE CALLVALUE DUP1 ISZERO PUSH3 0x3C JUMPI PUSH0 DUP1 REVERT JUMPDEST POP PUSH1 0x40 MLOAD PUSH3 0x27BD CODESIZE SUB DUP1 PUSH3 0x27BD DUP4 CODECOPY DUP2 DUP2 ADD PUSH1 0x40 MSTORE DUP2 ADD SWAP1 PUSH3 0x62 SWAP2 SWAP1 PUSH3 0x415 JUMP JUMPDEST DUP2 PUSH0 PUSH20 0xFFFFFFFFFFFFFFFFFFFFFFFFFFFFFFFFFFFFFFFF AND DUP2 PUSH20 0xFFFFFFFFFFFFFFFFFFFFFFFFFFFFFFFFFFFFFFFF AND SUB PUSH3 0xD6 JUMPI PUSH0 PUSH1 0x40 MLOAD PUSH32 0x1E4FBDF700000000000000000000000000000000000000000000000000000000 DUP2 MSTORE PUSH1 0x4 ADD PUSH3 0xCD SWAP2 SWAP1 PUSH3 0x4AA JUMP JUMPDEST PUSH1 0x40 MLOAD DUP1 SWAP2 SUB SWAP1 REVERT JUMPDEST PUSH3 0xE7 DUP2 PUSH3 0x2B7 PUSH1 0x20 SHL PUSH1 0x20 SHR JUMP JUMPDEST POP PUSH1 0x1 DUP1 DUP2 SWAP1 SSTORE POP PUSH0 PUSH20 0xFFFFFFFFFFFFFFFFFFFFFFFFFFFFFFFFFFFFFFFF AND DUP6 PUSH20 0xFFFFFFFFFFFFFFFFFFFFFFFFFFFFFFFFFFFFFFFF AND SUB PUSH3 0x162 JUMPI DUP5 PUSH1 0x40 MLOAD PUSH32 0x66861B6600000000000000000000000000000000000000000000000000000000 DUP2 MSTORE PUSH1 0x4 ADD PUSH3 0x159 SWAP2 SWAP1 PUSH3 0x4AA JUMP JUMPDEST PUSH1 0x40 MLOAD DUP1 SWAP2 SUB SWAP1 REVERT JUMPDEST PUSH0 PUSH20 0xFFFFFFFFFFFFFFFFFFFFFFFFFFFFFFFFFFFFFFFF AND DUP5 PUSH20 0xFFFFFFFFFFFFFFFFFFFFFFFFFFFFFFFFFFFFFFFF AND SUB PUSH3 0x1D5 JUMPI DUP4 PUSH1 0x40 MLOAD PUSH32 0x7330680300000000000000000000000000000000000000000000000000000000 DUP2 MSTORE PUSH1 0x4 ADD PUSH3 0x1CC SWAP2 SWAP1 PUSH3 0x4AA JUMP JUMPDEST PUSH1 0x40 MLOAD DUP1 SWAP2 SUB SWAP1 REVERT JUMPDEST PUSH0 DUP1 SHL DUP4 SUB PUSH3 0x21E JUMPI DUP3 PUSH1 0x40 MLOAD PUSH32 0xF72E3C6C00000000000000000000000000000000000000000000000000000000 DUP2 MSTORE PUSH1 0x4 ADD PUSH3 0x215 SWAP2 SWAP1 PUSH3 0x4D6 JUMP JUMPDEST PUSH1 0x40 MLOAD DUP1 SWAP2 SUB SWAP1 REVERT JUMPDEST DUP5 PUSH1 0x3 PUSH0 PUSH2 0x100 EXP DUP2 SLOAD DUP2 PUSH20 0xFFFFFFFFFFFFFFFFFFFFFFFFFFFFFFFFFFFFFFFF MUL NOT AND SWAP1 DUP4 PUSH20 0xFFFFFFFFFFFFFFFFFFFFFFFFFFFFFFFFFFFFFFFF AND MUL OR SWAP1 SSTORE POP DUP4 PUSH1 0x2 PUSH0 PUSH2 0x100 EXP DUP2 SLOAD DUP2 PUSH20 0xFFFFFFFFFFFFFFFFFFFFFFFFFFFFFFFFFFFFFFFF MUL NOT AND SWAP1 DUP4 PUSH20 0xFFFFFFFFFFFFFFFFFFFFFFFFFFFFFFFFFFFFFFFF AND MUL OR SWAP1 SSTORE POP DUP3 PUSH1 0x4 DUP2 SWAP1 SSTORE POP DUP1 PUSH1 0x6 DUP2 SWAP1 SSTORE POP POP POP POP POP POP PUSH3 0x4F1 JUMP JUMPDEST PUSH0 DUP1 PUSH0 SWAP1 SLOAD SWAP1 PUSH2 0x100 EXP SWAP1 DIV PUSH20 0xFFFFFFFFFFFFFFFFFFFFFFFFFFFFFFFFFFFFFFFF AND SWAP1 POP DUP2 PUSH0 DUP1 PUSH2 0x100 EXP DUP2 SLOAD DUP2 PUSH20 0xFFFFFFFFFFFFFFFFFFFFFFFFFFFFFFFFFFFFFFFF MUL NOT AND SWAP1 DUP4 PUSH20 0xFFFFFFFFFFFFFFFFFFFFFFFFFFFFFFFFFFFFFFFF AND MUL OR SWAP1 SSTORE POP DUP2 PUSH20 0xFFFFFFFFFFFFFFFFFFFFFFFFFFFFFFFFFFFFFFFF AND DUP2 PUSH20 0xFFFFFFFFFFFFFFFFFFFFFFFFFFFFFFFFFFFFFFFF AND PUSH32 0x8BE0079C531659141344CD1FD0A4F28419497F9722A3DAAFE3B4186F6B6457E0 PUSH1 0x40 MLOAD PUSH1 0x40 MLOAD DUP1 SWAP2 SUB SWAP1 LOG3 POP POP JUMP JUMPDEST PUSH0 DUP1 REVERT JUMPDEST PUSH0 PUSH20 0xFFFFFFFFFFFFFFFFFFFFFFFFFFFFFFFFFFFFFFFF DUP3 AND SWAP1 POP SWAP2 SWAP1 POP JUMP JUMPDEST PUSH0 PUSH3 0x3A7 DUP3 PUSH3 0x37C JUMP JUMPDEST SWAP1 POP SWAP2 SWAP1 POP JUMP JUMPDEST PUSH3 0x3B9 DUP2 PUSH3 0x39B JUMP JUMPDEST DUP2 EQ PUSH3 0x3C4 JUMPI PUSH0 DUP1 REVERT JUMPDEST POP JUMP JUMPDEST PUSH0 DUP2 MLOAD SWAP1 POP PUSH3 0x3D7 DUP2 PUSH3 0x3AE JUMP JUMPDEST SWAP3 SWAP2 POP POP JUMP JUMPDEST PUSH0 DUP2 SWAP1 POP SWAP2 SWAP1 POP JUMP JUMPDEST PUSH3 0x3F1 DUP2 PUSH3 0x3DD JUMP JUMPDEST DUP2 EQ PUSH3 0x3FC JUMPI PUSH0 DUP1 REVERT JUMPDEST POP JUMP JUMPDEST PUSH0 DUP2 MLOAD SWAP1 POP PUSH3 0x40F DUP2 PUSH3 0x3E6 JUMP JUMPDEST SWAP3 SWAP2 POP POP JUMP JUMPDEST PUSH0 DUP1 PUSH0 DUP1 PUSH0 PUSH1 0xA0 DUP7 DUP9 SUB SLT ISZERO PUSH3 0x431 JUMPI PUSH3 0x430 PUSH3 0x378 JUMP JUMPDEST JUMPDEST PUSH0 PUSH3 0x440 DUP9 DUP3 DUP10 ADD PUSH3 0x3C7 JUMP JUMPDEST SWAP6 POP POP PUSH1 0x20 PUSH3 0x453 DUP9 DUP3 DUP10 ADD PUSH3 0x3C7 JUMP JUMPDEST SWAP5 POP POP PUSH1 0x40 PUSH3 0x466 DUP9 DUP3 DUP10 ADD PUSH3 0x3FF JUMP JUMPDEST SWAP4 POP POP PUSH1 0x60 PUSH3 0x479 DUP9 DUP3 DUP10 ADD PUSH3 0x3C7 JUMP JUMPDEST SWAP3 POP POP PUSH1 0x80 PUSH3 0x48C DUP9 DUP3 DUP10 ADD PUSH3 0x3FF JUMP JUMPDEST SWAP2 POP POP SWAP3 SWAP6 POP SWAP3 SWAP6 SWAP1 SWAP4 POP JUMP JUMPDEST PUSH3 0x4A4 DUP2 PUSH3 0x39B JUMP JUMPDEST DUP3 MSTORE POP POP JUMP JUMPDEST PUSH0 PUSH1 0x20 DUP3 ADD SWAP1 POP PUSH3 0x4BF PUSH0 DUP4 ADD DUP5 PUSH3 0x499 JUMP JUMPDEST SWAP3 SWAP2 POP POP JUMP JUMPDEST PUSH3 0x4D0 DUP2 PUSH3 0x3DD JUMP JUMPDEST DUP3 MSTORE POP POP JUMP JUMPDEST PUSH0 PUSH1 0x20 DUP3 ADD SWAP1 POP PUSH3 0x4EB PUSH0 DUP4 ADD DUP5 PUSH3 0x4C5 JUMP JUMPDEST SWAP3 SWAP2 POP POP JUMP JUMPDEST PUSH2 0x22BE DUP1 PUSH3 0x4FF PUSH0 CODECOPY PUSH0 RETURN INVALID PUSH1 0x80 PUSH1 0x40 MSTORE CALLVALUE DUP1 ISZERO PUSH2 0xF JUMPI PUSH0 DUP1 REVERT JUMPDEST POP PUSH1 0x4 CALLDATASIZE LT PUSH2 0x12A JUMPI PUSH0 CALLDATALOAD PUSH1 0xE0 SHR DUP1 PUSH4 0x87C16D4F GT PUSH2 0xAB JUMPI DUP1 PUSH4 0xD7D1D520 GT PUSH2 0x6F JUMPI DUP1 PUSH4 0xD7D1D520 EQ PUSH2 0x2E5 JUMPI DUP1 PUSH4 0xDA1BB793 EQ PUSH2 0x301 JUMPI DUP1 PUSH4 0xDCAC07DB EQ PUSH2 0x31D JUMPI DUP1 PUSH4 0xF17F5106 EQ PUSH2 0x33B JUMPI DUP1 PUSH4 0xF2FDE38B EQ PUSH2 0x36E JUMPI PUSH2 0x12A JUMP JUMPDEST DUP1 PUSH4 0x87C16D4F EQ PUSH2 0x255 JUMPI DUP1 PUSH4 0x8DA5CB5B EQ PUSH2 0x271 JUMPI DUP1 PUSH4 0x8F965B99 EQ PUSH2 0x28F JUMPI DUP1 PUSH4 0x901129C2 EQ PUSH2 0x2AD JUMPI DUP1 PUSH4 0xBBCD5BBE EQ PUSH2 0x2C9 JUMPI PUSH2 0x12A JUMP JUMPDEST DUP1 PUSH4 0x549206ED GT PUSH2 0xF2 JUMPI DUP1 PUSH4 0x549206ED EQ PUSH2 0x1D5 JUMPI DUP1 PUSH4 0x715018A6 EQ PUSH2 0x1F3 JUMPI DUP1 PUSH4 0x743AE7AD EQ PUSH2 0x1FD JUMPI DUP1 PUSH4 0x76890C58 EQ PUSH2 0x21B JUMPI DUP1 PUSH4 0x849A1586 EQ PUSH2 0x237 JUMPI PUSH2 0x12A JUMP JUMPDEST DUP1 PUSH4 0x7F8E853 EQ PUSH2 0x12E JUMPI DUP1 PUSH4 0xED16339 EQ PUSH2 0x14C JUMPI DUP1 PUSH4 0x379607F5 EQ PUSH2 0x17F JUMPI DUP1 PUSH4 0x3A5ABEAD EQ PUSH2 0x19B JUMPI DUP1 PUSH4 0x5437988D EQ PUSH2 0x1B9 JUMPI JUMPDEST PUSH0 DUP1 REVERT JUMPDEST PUSH2 0x136 PUSH2 0x38A JUMP JUMPDEST PUSH1 0x40 MLOAD PUSH2 0x143 SWAP2 SWAP1 PUSH2 0x1655 JUMP JUMPDEST PUSH1 0x40 MLOAD DUP1 SWAP2 SUB SWAP1 RETURN JUMPDEST PUSH2 0x166 PUSH1 0x4 DUP1 CALLDATASIZE SUB DUP2 ADD SWAP1 PUSH2 0x161 SWAP2 SWAP1 PUSH2 0x16B2 JUMP JUMPDEST PUSH2 0x3A3 JUMP JUMPDEST PUSH1 0x40 MLOAD PUSH2 0x176 SWAP5 SWAP4 SWAP3 SWAP2 SWAP1 PUSH2 0x1745 JUMP JUMPDEST PUSH1 0x40 MLOAD DUP1 SWAP2 SUB SWAP1 RETURN JUMPDEST PUSH2 0x199 PUSH1 0x4 DUP1 CALLDATASIZE SUB DUP2 ADD SWAP1 PUSH2 0x194 SWAP2 SWAP1 PUSH2 0x16B2 JUMP JUMPDEST PUSH2 0x406 JUMP JUMPDEST STOP JUMPDEST PUSH2 0x1A3 PUSH2 0x61F JUMP JUMPDEST PUSH1 0x40 MLOAD PUSH2 0x1B0 SWAP2 SWAP1 PUSH2 0x17E3 JUMP JUMPDEST PUSH1 0x40 MLOAD DUP1 SWAP2 SUB SWAP1 RETURN JUMPDEST PUSH2 0x1D3 PUSH1 0x4 DUP1 CALLDATASIZE SUB DUP2 ADD SWAP1 PUSH2 0x1CE SWAP2 SWAP1 PUSH2 0x1826 JUMP JUMPDEST PUSH2 0x644 JUMP JUMPDEST STOP JUMPDEST PUSH2 0x1DD PUSH2 0x75E JUMP JUMPDEST PUSH1 0x40 MLOAD PUSH2 0x1EA SWAP2 SWAP1 PUSH2 0x1869 JUMP JUMPDEST PUSH1 0x40 MLOAD DUP1 SWAP2 SUB SWAP1 RETURN JUMPDEST PUSH2 0x1FB PUSH2 0x764 JUMP JUMPDEST STOP JUMPDEST PUSH2 0x205 PUSH2 0x777 JUMP JUMPDEST PUSH1 0x40 MLOAD PUSH2 0x212 SWAP2 SWAP1 PUSH2 0x1869 JUMP JUMPDEST PUSH1 0x40 MLOAD DUP1 SWAP2 SUB SWAP1 RETURN JUMPDEST PUSH2 0x235 PUSH1 0x4 DUP1 CALLDATASIZE SUB DUP2 ADD SWAP1 PUSH2 0x230 SWAP2 SWAP1 PUSH2 0x1882 JUMP JUMPDEST PUSH2 0x77D JUMP JUMPDEST STOP JUMPDEST PUSH2 0x23F PUSH2 0x9DD JUMP JUMPDEST PUSH1 0x40 MLOAD PUSH2 0x24C SWAP2 SWAP1 PUSH2 0x18E0 JUMP JUMPDEST PUSH1 0x40 MLOAD DUP1 SWAP2 SUB SWAP1 RETURN JUMPDEST PUSH2 0x26F PUSH1 0x4 DUP1 CALLDATASIZE SUB DUP2 ADD SWAP1 PUSH2 0x26A SWAP2 SWAP1 PUSH2 0x195A JUMP JUMPDEST PUSH2 0xA02 JUMP JUMPDEST STOP JUMPDEST PUSH2 0x279 PUSH2 0xC13 JUMP JUMPDEST PUSH1 0x40 MLOAD PUSH2 0x286 SWAP2 SWAP1 PUSH2 0x19D8 JUMP JUMPDEST PUSH1 0x40 MLOAD DUP1 SWAP2 SUB SWAP1 RETURN JUMPDEST PUSH2 0x297 PUSH2 0xC3A JUMP JUMPDEST PUSH1 0x40 MLOAD PUSH2 0x2A4 SWAP2 SWAP1 PUSH2 0x19F1 JUMP JUMPDEST PUSH1 0x40 MLOAD DUP1 SWAP2 SUB SWAP1 RETURN JUMPDEST PUSH2 0x2C7 PUSH1 0x4 DUP1 CALLDATASIZE SUB DUP2 ADD SWAP1 PUSH2 0x2C2 SWAP2 SWAP1 PUSH2 0x1A34 JUMP JUMPDEST PUSH2 0xC43 JUMP JUMPDEST STOP JUMPDEST PUSH2 0x2E3 PUSH1 0x4 DUP1 CALLDATASIZE SUB DUP2 ADD SWAP1 PUSH2 0x2DE SWAP2 SWAP1 PUSH2 0x1826 JUMP JUMPDEST PUSH2 0xC4D JUMP JUMPDEST STOP JUMPDEST PUSH2 0x2FF PUSH1 0x4 DUP1 CALLDATASIZE SUB DUP2 ADD SWAP1 PUSH2 0x2FA SWAP2 SWAP1 PUSH2 0x1A34 JUMP JUMPDEST PUSH2 0xD67 JUMP JUMPDEST STOP JUMPDEST PUSH2 0x31B PUSH1 0x4 DUP1 CALLDATASIZE SUB DUP2 ADD SWAP1 PUSH2 0x316 SWAP2 SWAP1 PUSH2 0x1A5F JUMP JUMPDEST PUSH2 0xD71 JUMP JUMPDEST STOP JUMPDEST PUSH2 0x325 PUSH2 0xF84 JUMP JUMPDEST PUSH1 0x40 MLOAD PUSH2 0x332 SWAP2 SWAP1 PUSH2 0x19F1 JUMP JUMPDEST PUSH1 0x40 MLOAD DUP1 SWAP2 SUB SWAP1 RETURN JUMPDEST PUSH2 0x355 PUSH1 0x4 DUP1 CALLDATASIZE SUB DUP2 ADD SWAP1 PUSH2 0x350 SWAP2 SWAP1 PUSH2 0x16B2 JUMP JUMPDEST PUSH2 0xF8A JUMP JUMPDEST PUSH1 0x40 MLOAD PUSH2 0x365 SWAP5 SWAP4 SWAP3 SWAP2 SWAP1 PUSH2 0x1745 JUMP JUMPDEST PUSH1 0x40 MLOAD DUP1 SWAP2 SUB SWAP1 RETURN JUMPDEST PUSH2 0x388 PUSH1 0x4 DUP1 CALLDATASIZE SUB DUP2 ADD SWAP1 PUSH2 0x383 SWAP2 SWAP1 PUSH2 0x1826 JUMP JUMPDEST PUSH2 0xFED JUMP JUMPDEST STOP JUMPDEST PUSH1 0x5 PUSH0 SWAP1 SLOAD SWAP1 PUSH2 0x100 EXP SWAP1 DIV PUSH8 0xFFFFFFFFFFFFFFFF AND DUP2 JUMP JUMPDEST PUSH1 0xA PUSH1 0x20 MSTORE DUP1 PUSH0 MSTORE PUSH1 0x40 PUSH0 KECCAK256 PUSH0 SWAP2 POP SWAP1 POP DUP1 PUSH0 ADD PUSH0 SWAP1 SLOAD SWAP1 PUSH2 0x100 EXP SWAP1 DIV PUSH1 0xFF AND SWAP1 DUP1 PUSH0 ADD PUSH1 0x1 SWAP1 SLOAD SWAP1 PUSH2 0x100 EXP SWAP1 DIV PUSH1 0xFF AND SWAP1 DUP1 PUSH1 0x1 ADD SLOAD SWAP1 DUP1 PUSH1 0x2 ADD PUSH0 SWAP1 SLOAD SWAP1 PUSH2 0x100 EXP SWAP1 DIV PUSH20 0xFFFFFFFFFFFFFFFFFFFFFFFFFFFFFFFFFFFFFFFF AND SWAP1 POP DUP5 JUMP JUMPDEST PUSH2 0x40E PUSH2 0x1071 JUMP JUMPDEST PUSH0 PUSH1 0xB PUSH0 DUP4 DUP2 MSTORE PUSH1 0x20 ADD SWAP1 DUP2 MSTORE PUSH1 0x20 ADD PUSH0 KECCAK256 SWAP1 POP DUP1 PUSH0 ADD PUSH1 0x1 SWAP1 SLOAD SWAP1 PUSH2 0x100 EXP SWAP1 DIV PUSH1 0xFF AND PUSH2 0x484 JUMPI DUP1 PUSH0 ADD PUSH1 0x1 SWAP1 SLOAD SWAP1 PUSH2 0x100 EXP SWAP1 DIV PUSH1 0xFF AND PUSH1 0x40 MLOAD PUSH32 0x4B9F111700000000000000000000000000000000000000000000000000000000 DUP2 MSTORE PUSH1 0x4 ADD PUSH2 0x47B SWAP2 SWAP1 PUSH2 0x1B0F JUMP JUMPDEST PUSH1 0x40 MLOAD DUP1 SWAP2 SUB SWAP1 REVERT JUMPDEST DUP1 PUSH0 ADD PUSH0 SWAP1 SLOAD SWAP1 PUSH2 0x100 EXP SWAP1 DIV PUSH1 0xFF AND ISZERO PUSH2 0x4E5 JUMPI DUP1 PUSH0 ADD PUSH0 SWAP1 SLOAD SWAP1 PUSH2 0x100 EXP SWAP1 DIV PUSH1 0xFF AND PUSH1 0x40 MLOAD PUSH32 0xA459D8CB00000000000000000000000000000000000000000000000000000000 DUP2 MSTORE PUSH1 0x4 ADD PUSH2 0x4DC SWAP2 SWAP1 PUSH2 0x1B0F JUMP JUMPDEST PUSH1 0x40 MLOAD DUP1 SWAP2 SUB SWAP1 REVERT JUMPDEST PUSH1 0x1 DUP2 PUSH0 ADD PUSH0 PUSH2 0x100 EXP DUP2 SLOAD DUP2 PUSH1 0xFF MUL NOT AND SWAP1 DUP4 ISZERO ISZERO MUL OR SWAP1 SSTORE POP PUSH1 0x2 PUSH0 SWAP1 SLOAD SWAP1 PUSH2 0x100 EXP SWAP1 DIV PUSH20 0xFFFFFFFFFFFFFFFFFFFFFFFFFFFFFFFFFFFFFFFF AND PUSH20 0xFFFFFFFFFFFFFFFFFFFFFFFFFFFFFFFFFFFFFFFF AND PUSH4 0x40C10F19 DUP3 PUSH1 0x2 ADD PUSH0 SWAP1 SLOAD SWAP1 PUSH2 0x100 EXP SWAP1 DIV PUSH20 0xFFFFFFFFFFFFFFFFFFFFFFFFFFFFFFFFFFFFFFFF AND DUP4 PUSH1 0x1 ADD SLOAD PUSH1 0x40 MLOAD DUP4 PUSH4 0xFFFFFFFF AND PUSH1 0xE0 SHL DUP2 MSTORE PUSH1 0x4 ADD PUSH2 0x583 SWAP3 SWAP2 SWAP1 PUSH2 0x1B28 JUMP JUMPDEST PUSH0 PUSH1 0x40 MLOAD DUP1 DUP4 SUB DUP2 PUSH0 DUP8 DUP1 EXTCODESIZE ISZERO DUP1 ISZERO PUSH2 0x59A JUMPI PUSH0 DUP1 REVERT JUMPDEST POP GAS CALL ISZERO DUP1 ISZERO PUSH2 0x5AC JUMPI RETURNDATASIZE PUSH0 DUP1 RETURNDATACOPY RETURNDATASIZE PUSH0 REVERT JUMPDEST POP POP POP POP DUP2 PUSH32 0x9424BEC80B0EA7DB14D21C4DC7533685E431FF5FDB1BF2D322E8EC4D2D2427F9 DUP3 PUSH1 0x2 ADD PUSH0 SWAP1 SLOAD SWAP1 PUSH2 0x100 EXP SWAP1 DIV PUSH20 0xFFFFFFFFFFFFFFFFFFFFFFFFFFFFFFFFFFFFFFFF AND DUP4 PUSH1 0x1 ADD SLOAD TIMESTAMP PUSH1 0x40 MLOAD PUSH2 0x60B SWAP4 SWAP3 SWAP2 SWAP1 PUSH2 0x1B4F JUMP JUMPDEST PUSH1 0x40 MLOAD DUP1 SWAP2 SUB SWAP1 LOG2 POP PUSH2 0x61C PUSH2 0x10B7 JUMP JUMPDEST POP JUMP JUMPDEST PUSH1 0x2 PUSH0 SWAP1 SLOAD SWAP1 PUSH2 0x100 EXP SWAP1 DIV PUSH20 0xFFFFFFFFFFFFFFFFFFFFFFFFFFFFFFFFFFFFFFFF AND DUP2 JUMP JUMPDEST PUSH2 0x64C PUSH2 0x10C0 JUMP JUMPDEST PUSH0 PUSH20 0xFFFFFFFFFFFFFFFFFFFFFFFFFFFFFFFFFFFFFFFF AND DUP2 PUSH20 0xFFFFFFFFFFFFFFFFFFFFFFFFFFFFFFFFFFFFFFFF AND SUB PUSH2 0x6BC JUMPI DUP1 PUSH1 0x40 MLOAD PUSH32 0x66861B6600000000000000000000000000000000000000000000000000000000 DUP2 MSTORE PUSH1 0x4 ADD PUSH2 0x6B3 SWAP2 SWAP1 PUSH2 0x19D8 JUMP JUMPDEST PUSH1 0x40 MLOAD DUP1 SWAP2 SUB SWAP1 REVERT JUMPDEST PUSH0 PUSH1 0x3 PUSH0 SWAP1 SLOAD SWAP1 PUSH2 0x100 EXP SWAP1 DIV PUSH20 0xFFFFFFFFFFFFFFFFFFFFFFFFFFFFFFFFFFFFFFFF AND SWAP1 POP DUP2 PUSH1 0x3 PUSH0 PUSH2 0x100 EXP DUP2 SLOAD DUP2 PUSH20 0xFFFFFFFFFFFFFFFFFFFFFFFFFFFFFFFFFFFFFFFF MUL NOT AND SWAP1 DUP4 PUSH20 0xFFFFFFFFFFFFFFFFFFFFFFFFFFFFFFFFFFFFFFFF AND MUL OR SWAP1 SSTORE POP PUSH32 0xDDDA8BE1021AB00F63727C5C5504AD96B163269770A3FE8AC3DD0BCB40208DF DUP2 DUP4 PUSH1 0x40 MLOAD PUSH2 0x752 SWAP3 SWAP2 SWAP1 PUSH2 0x1B84 JUMP JUMPDEST PUSH1 0x40 MLOAD DUP1 SWAP2 SUB SWAP1 LOG1 POP POP JUMP JUMPDEST PUSH1 0x4 SLOAD DUP2 JUMP JUMPDEST PUSH2 0x76C PUSH2 0x10C0 JUMP JUMPDEST PUSH2 0x775 PUSH0 PUSH2 0x1147 JUMP JUMPDEST JUMP JUMPDEST PUSH1 0x6 SLOAD DUP2 JUMP JUMPDEST PUSH2 0x785 PUSH2 0x1071 JUMP JUMPDEST PUSH0 DUP2 SUB PUSH2 0x7C9 JUMPI DUP1 PUSH1 0x40 MLOAD PUSH32 0x9AF7044800000000000000000000000000000000000000000000000000000000 DUP2 MSTORE PUSH1 0x4 ADD PUSH2 0x7C0 SWAP2 SWAP1 PUSH2 0x19F1 JUMP JUMPDEST PUSH1 0x40 MLOAD DUP1 SWAP2 SUB SWAP1 REVERT JUMPDEST PUSH0 PUSH20 0xFFFFFFFFFFFFFFFFFFFFFFFFFFFFFFFFFFFFFFFF AND DUP3 PUSH20 0xFFFFFFFFFFFFFFFFFFFFFFFFFFFFFFFFFFFFFFFF AND SUB PUSH2 0x839 JUMPI DUP2 PUSH1 0x40 MLOAD PUSH32 0x1A3B45FD00000000000000000000000000000000000000000000000000000000 DUP2 MSTORE PUSH1 0x4 ADD PUSH2 0x830 SWAP2 SWAP1 PUSH2 0x19D8 JUMP JUMPDEST PUSH1 0x40 MLOAD DUP1 SWAP2 SUB SWAP1 REVERT JUMPDEST PUSH0 PUSH1 0x5 PUSH0 DUP2 DUP2 SWAP1 SLOAD SWAP1 PUSH2 0x100 EXP SWAP1 DIV PUSH8 0xFFFFFFFFFFFFFFFF AND PUSH2 0x85B SWAP1 PUSH2 0x1BD8 JUMP JUMPDEST SWAP2 SWAP1 PUSH2 0x100 EXP DUP2 SLOAD DUP2 PUSH8 0xFFFFFFFFFFFFFFFF MUL NOT AND SWAP1 DUP4 PUSH8 0xFFFFFFFFFFFFFFFF AND MUL OR SWAP1 SSTORE SWAP1 POP DUP2 PUSH1 0xA PUSH0 DUP4 PUSH8 0xFFFFFFFFFFFFFFFF AND DUP2 MSTORE PUSH1 0x20 ADD SWAP1 DUP2 MSTORE PUSH1 0x20 ADD PUSH0 KECCAK256 PUSH1 0x1 ADD DUP2 SWAP1 SSTORE POP DUP3 PUSH1 0xA PUSH0 DUP4 PUSH8 0xFFFFFFFFFFFFFFFF AND DUP2 MSTORE PUSH1 0x20 ADD SWAP1 DUP2 MSTORE PUSH1 0x20 ADD PUSH0 KECCAK256 PUSH1 0x2 ADD PUSH0 PUSH2 0x100 EXP DUP2 SLOAD DUP2 PUSH20 0xFFFFFFFFFFFFFFFFFFFFFFFFFFFFFFFFFFFFFFFF MUL NOT AND SWAP1 DUP4 PUSH20 0xFFFFFFFFFFFFFFFFFFFFFFFFFFFFFFFFFFFFFFFF AND MUL OR SWAP1 SSTORE POP PUSH1 0x2 PUSH0 SWAP1 SLOAD SWAP1 PUSH2 0x100 EXP SWAP1 DIV PUSH20 0xFFFFFFFFFFFFFFFFFFFFFFFFFFFFFFFFFFFFFFFF AND PUSH20 0xFFFFFFFFFFFFFFFFFFFFFFFFFFFFFFFFFFFFFFFF AND PUSH4 0x79CC6790 CALLER DUP5 PUSH1 0x40 MLOAD DUP4 PUSH4 0xFFFFFFFF AND PUSH1 0xE0 SHL DUP2 MSTORE PUSH1 0x4 ADD PUSH2 0x95D SWAP3 SWAP2 SWAP1 PUSH2 0x1B28 JUMP JUMPDEST PUSH0 PUSH1 0x40 MLOAD DUP1 DUP4 SUB DUP2 PUSH0 DUP8 DUP1 EXTCODESIZE ISZERO DUP1 ISZERO PUSH2 0x974 JUMPI PUSH0 DUP1 REVERT JUMPDEST POP GAS CALL ISZERO DUP1 ISZERO PUSH2 0x986 JUMPI RETURNDATASIZE PUSH0 DUP1 RETURNDATACOPY RETURNDATASIZE PUSH0 REVERT JUMPDEST POP POP POP POP DUP1 PUSH8 0xFFFFFFFFFFFFFFFF AND PUSH32 0x47DCCF24EA61533CA1D41D19AF350570DDD2B25BC220A875F7CADAD102BD876D CALLER DUP6 DUP6 PUSH1 0x40 MLOAD PUSH2 0x9C8 SWAP4 SWAP3 SWAP2 SWAP1 PUSH2 0x1C07 JUMP JUMPDEST PUSH1 0x40 MLOAD DUP1 SWAP2 SUB SWAP1 LOG2 POP PUSH2 0x9D9 PUSH2 0x10B7 JUMP JUMPDEST POP POP JUMP JUMPDEST PUSH1 0x3 PUSH0 SWAP1 SLOAD SWAP1 PUSH2 0x100 EXP SWAP1 DIV PUSH20 0xFFFFFFFFFFFFFFFFFFFFFFFFFFFFFFFFFFFFFFFF AND DUP2 JUMP JUMPDEST PUSH2 0xA0A PUSH2 0x1071 JUMP JUMPDEST PUSH1 0x3 PUSH0 SWAP1 SLOAD SWAP1 PUSH2 0x100 EXP SWAP1 DIV PUSH20 0xFFFFFFFFFFFFFFFFFFFFFFFFFFFFFFFFFFFFFFFF AND PUSH20 0xFFFFFFFFFFFFFFFFFFFFFFFFFFFFFFFFFFFFFFFF AND PUSH4 0x92C15BC DUP6 DUP6 PUSH1 0x4 SLOAD DUP7 DUP7 PUSH1 0x40 MLOAD DUP7 PUSH4 0xFFFFFFFF AND PUSH1 0xE0 SHL DUP2 MSTORE PUSH1 0x4 ADD PUSH2 0xA6E SWAP6 SWAP5 SWAP4 SWAP3 SWAP2 SWAP1 PUSH2 0x1C96 JUMP JUMPDEST PUSH0 PUSH1 0x40 MLOAD DUP1 DUP4 SUB DUP2 DUP7 DUP1 EXTCODESIZE ISZERO DUP1 ISZERO PUSH2 0xA84 JUMPI PUSH0 DUP1 REVERT JUMPDEST POP GAS STATICCALL SWAP3 POP POP POP DUP1 ISZERO PUSH2 0xA95 JUMPI POP PUSH1 0x1 JUMPDEST PUSH2 0xB71 JUMPI PUSH2 0xAA1 PUSH2 0x1CE9 JUMP JUMPDEST DUP1 PUSH4 0x8C379A0 SUB PUSH2 0xB00 JUMPI POP PUSH2 0xAB5 PUSH2 0x1D66 JUMP JUMPDEST DUP1 PUSH2 0xAC0 JUMPI POP PUSH2 0xB02 JUMP JUMPDEST PUSH1 0x4 SLOAD PUSH32 0x1B274BAC0E8BB49D3AD90709790A3BF2AA1B86313B4C1A7AE5AF9CB7832F7204 DUP3 PUSH1 0x40 MLOAD PUSH2 0xAF2 SWAP2 SWAP1 PUSH2 0x1E6F JUMP JUMPDEST PUSH1 0x40 MLOAD DUP1 SWAP2 SUB SWAP1 LOG2 POP PUSH2 0xB6C JUMP JUMPDEST POP JUMPDEST RETURNDATASIZE DUP1 PUSH0 DUP2 EQ PUSH2 0xB2C JUMPI PUSH1 0x40 MLOAD SWAP2 POP PUSH1 0x1F NOT PUSH1 0x3F RETURNDATASIZE ADD AND DUP3 ADD PUSH1 0x40 MSTORE RETURNDATASIZE DUP3 MSTORE RETURNDATASIZE PUSH0 PUSH1 0x20 DUP5 ADD RETURNDATACOPY PUSH2 0xB31 JUMP JUMPDEST PUSH1 0x60 SWAP2 POP JUMPDEST POP PUSH1 0x4 SLOAD PUSH32 0x1B274BAC0E8BB49D3AD90709790A3BF2AA1B86313B4C1A7AE5AF9CB7832F7204 PUSH1 0x40 MLOAD PUSH2 0xB62 SWAP1 PUSH2 0x1ED9 JUMP JUMPDEST PUSH1 0x40 MLOAD DUP1 SWAP2 SUB SWAP1 LOG2 POP JUMPDEST PUSH2 0xC05 JUMP JUMPDEST PUSH2 0xB7B DUP3 DUP3 PUSH2 0x1208 JUMP JUMPDEST PUSH1 0x4 SLOAD PUSH32 0x2A0CBA4A87B6AEE1AE5CE93610A04B1F87DD14B381544E4C6C9E336A1B42D603 PUSH1 0x2 DUP5 DUP5 PUSH1 0x40 MLOAD PUSH2 0xBB1 SWAP3 SWAP2 SWAP1 PUSH2 0x1F25 JUMP JUMPDEST PUSH1 0x20 PUSH1 0x40 MLOAD DUP1 DUP4 SUB DUP2 DUP6 GAS STATICCALL ISZERO DUP1 ISZERO PUSH2 0xBCC JUMPI RETURNDATASIZE PUSH0 DUP1 RETURNDATACOPY RETURNDATASIZE PUSH0 REVERT JUMPDEST POP POP POP PUSH1 0x40 MLOAD RETURNDATASIZE PUSH1 0x1F NOT PUSH1 0x1F DUP3 ADD AND DUP3 ADD DUP1 PUSH1 0x40 MSTORE POP DUP2 ADD SWAP1 PUSH2 0xBEF SWAP2 SWAP1 PUSH2 0x1F51 JUMP JUMPDEST PUSH1 0x40 MLOAD PUSH2 0xBFC SWAP2 SWAP1 PUSH2 0x1869 JUMP JUMPDEST PUSH1 0x40 MLOAD DUP1 SWAP2 SUB SWAP1 LOG2 JUMPDEST PUSH2 0xC0D PUSH2 0x10B7 JUMP JUMPDEST POP POP POP POP JUMP JUMPDEST PUSH0 DUP1 PUSH0 SWAP1 SLOAD SWAP1 PUSH2 0x100 EXP SWAP1 DIV PUSH20 0xFFFFFFFFFFFFFFFFFFFFFFFFFFFFFFFFFFFFFFFF AND SWAP1 POP SWAP1 JUMP JUMPDEST PUSH0 PUSH1 0x9 SLOAD SWAP1 POP SWAP1 JUMP JUMPDEST DUP1 PUSH1 0x4 DUP2 SWAP1 SSTORE POP POP JUMP JUMPDEST PUSH2 0xC55 PUSH2 0x10C0 JUMP JUMPDEST PUSH0 PUSH20 0xFFFFFFFFFFFFFFFFFFFFFFFFFFFFFFFFFFFFFFFF AND DUP2 PUSH20 0xFFFFFFFFFFFFFFFFFFFFFFFFFFFFFFFFFFFFFFFF AND SUB PUSH2 0xCC5 JUMPI DUP1 PUSH1 0x40 MLOAD PUSH32 0x7330680300000000000000000000000000000000000000000000000000000000 DUP2 MSTORE PUSH1 0x4 ADD PUSH2 0xCBC SWAP2 SWAP1 PUSH2 0x19D8 JUMP JUMPDEST PUSH1 0x40 MLOAD DUP1 SWAP2 SUB SWAP1 REVERT JUMPDEST PUSH0 PUSH1 0x2 PUSH0 SWAP1 SLOAD SWAP1 PUSH2 0x100 EXP SWAP1 DIV PUSH20 0xFFFFFFFFFFFFFFFFFFFFFFFFFFFFFFFFFFFFFFFF AND SWAP1 POP DUP2 PUSH1 0x2 PUSH0 PUSH2 0x100 EXP DUP2 SLOAD DUP2 PUSH20 0xFFFFFFFFFFFFFFFFFFFFFFFFFFFFFFFFFFFFFFFF MUL NOT AND SWAP1 DUP4 PUSH20 0xFFFFFFFFFFFFFFFFFFFFFFFFFFFFFFFFFFFFFFFF AND MUL OR SWAP1 SSTORE POP PUSH32 0x77EB83E5A99D4C074EB700F13AC00FF604C6325FE03FC8720FA7AE2B5909387D DUP2 DUP4 PUSH1 0x40 MLOAD PUSH2 0xD5B SWAP3 SWAP2 SWAP1 PUSH2 0x1B84 JUMP JUMPDEST PUSH1 0x40 MLOAD DUP1 SWAP2 SUB SWAP1 LOG1 POP POP JUMP JUMPDEST DUP1 PUSH1 0x6 DUP2 SWAP1 SSTORE POP POP JUMP JUMPDEST PUSH2 0xD79 PUSH2 0x1071 JUMP JUMPDEST PUSH1 0x3 PUSH0 SWAP1 SLOAD SWAP1 PUSH2 0x100 EXP SWAP1 DIV PUSH20 0xFFFFFFFFFFFFFFFFFFFFFFFFFFFFFFFFFFFFFFFF AND PUSH20 0xFFFFFFFFFFFFFFFFFFFFFFFFFFFFFFFFFFFFFFFF AND PUSH4 0x92C15BC DUP8 DUP8 PUSH1 0x4 SLOAD DUP9 DUP9 PUSH1 0x40 MLOAD DUP7 PUSH4 0xFFFFFFFF AND PUSH1 0xE0 SHL DUP2 MSTORE PUSH1 0x4 ADD PUSH2 0xDDD SWAP6 SWAP5 SWAP4 SWAP3 SWAP2 SWAP1 PUSH2 0x1C96 JUMP JUMPDEST PUSH0 PUSH1 0x40 MLOAD DUP1 DUP4 SUB DUP2 DUP7 DUP1 EXTCODESIZE ISZERO DUP1 ISZERO PUSH2 0xDF3 JUMPI PUSH0 DUP1 REVERT JUMPDEST POP GAS STATICCALL SWAP3 POP POP POP DUP1 ISZERO PUSH2 0xE04 JUMPI POP PUSH1 0x1 JUMPDEST PUSH2 0xEE0 JUMPI PUSH2 0xE10 PUSH2 0x1CE9 JUMP JUMPDEST DUP1 PUSH4 0x8C379A0 SUB PUSH2 0xE6F JUMPI POP PUSH2 0xE24 PUSH2 0x1D66 JUMP JUMPDEST DUP1 PUSH2 0xE2F JUMPI POP PUSH2 0xE71 JUMP JUMPDEST PUSH1 0x4 SLOAD PUSH32 0x1B274BAC0E8BB49D3AD90709790A3BF2AA1B86313B4C1A7AE5AF9CB7832F7204 DUP3 PUSH1 0x40 MLOAD PUSH2 0xE61 SWAP2 SWAP1 PUSH2 0x1E6F JUMP JUMPDEST PUSH1 0x40 MLOAD DUP1 SWAP2 SUB SWAP1 LOG2 POP PUSH2 0xEDB JUMP JUMPDEST POP JUMPDEST RETURNDATASIZE DUP1 PUSH0 DUP2 EQ PUSH2 0xE9B JUMPI PUSH1 0x40 MLOAD SWAP2 POP PUSH1 0x1F NOT PUSH1 0x3F RETURNDATASIZE ADD AND DUP3 ADD PUSH1 0x40 MSTORE RETURNDATASIZE DUP3 MSTORE RETURNDATASIZE PUSH0 PUSH1 0x20 DUP5 ADD RETURNDATACOPY PUSH2 0xEA0 JUMP JUMPDEST PUSH1 0x60 SWAP2 POP JUMPDEST POP PUSH1 0x4 SLOAD PUSH32 0x1B274BAC0E8BB49D3AD90709790A3BF2AA1B86313B4C1A7AE5AF9CB7832F7204 PUSH1 0x40 MLOAD PUSH2 0xED1 SWAP1 PUSH2 0x1ED9 JUMP JUMPDEST PUSH1 0x40 MLOAD DUP1 SWAP2 SUB SWAP1 LOG2 POP JUMPDEST PUSH2 0xF74 JUMP JUMPDEST PUSH2 0xEEA DUP3 DUP3 PUSH2 0x1208 JUMP JUMPDEST PUSH1 0x4 SLOAD PUSH32 0x2A0CBA4A87B6AEE1AE5CE93610A04B1F87DD14B381544E4C6C9E336A1B42D603 PUSH1 0x2 DUP7 DUP7 PUSH1 0x40 MLOAD PUSH2 0xF20 SWAP3 SWAP2 SWAP1 PUSH2 0x1F25 JUMP JUMPDEST PUSH1 0x20 PUSH1 0x40 MLOAD DUP1 DUP4 SUB DUP2 DUP6 GAS STATICCALL ISZERO DUP1 ISZERO PUSH2 0xF3B JUMPI RETURNDATASIZE PUSH0 DUP1 RETURNDATACOPY RETURNDATASIZE PUSH0 REVERT JUMPDEST POP POP POP PUSH1 0x40 MLOAD RETURNDATASIZE PUSH1 0x1F NOT PUSH1 0x1F DUP3 ADD AND DUP3 ADD DUP1 PUSH1 0x40 MSTORE POP DUP2 ADD SWAP1 PUSH2 0xF5E SWAP2 SWAP1 PUSH2 0x1F51 JUMP JUMPDEST PUSH1 0x40 MLOAD PUSH2 0xF6B SWAP2 SWAP1 PUSH2 0x1869 JUMP JUMPDEST PUSH1 0x40 MLOAD DUP1 SWAP2 SUB SWAP1 LOG2 JUMPDEST PUSH2 0xF7C PUSH2 0x10B7 JUMP JUMPDEST POP POP POP POP POP POP JUMP JUMPDEST PUSH1 0x7 SLOAD DUP2 JUMP JUMPDEST PUSH1 0xB PUSH1 0x20 MSTORE DUP1 PUSH0 MSTORE PUSH1 0x40 PUSH0 KECCAK256 PUSH0 SWAP2 POP SWAP1 POP DUP1 PUSH0 ADD PUSH0 SWAP1 SLOAD SWAP1 PUSH2 0x100 EXP SWAP1 DIV PUSH1 0xFF AND SWAP1 DUP1 PUSH0 ADD PUSH1 0x1 SWAP1 SLOAD SWAP1 PUSH2 0x100 EXP SWAP1 DIV PUSH1 0xFF AND SWAP1 DUP1 PUSH1 0x1 ADD SLOAD SWAP1 DUP1 PUSH1 0x2 ADD PUSH0 SWAP1 SLOAD SWAP1 PUSH2 0x100 EXP SWAP1 DIV PUSH20 0xFFFFFFFFFFFFFFFFFFFFFFFFFFFFFFFFFFFFFFFF AND SWAP1 POP DUP5 JUMP JUMPDEST PUSH2 0xFF5 PUSH2 0x10C0 JUMP JUMPDEST PUSH0 PUSH20 0xFFFFFFFFFFFFFFFFFFFFFFFFFFFFFFFFFFFFFFFF AND DUP2 PUSH20 0xFFFFFFFFFFFFFFFFFFFFFFFFFFFFFFFFFFFFFFFF AND SUB PUSH2 0x1065 JUMPI PUSH0 PUSH1 0x40 MLOAD PUSH32 0x1E4FBDF700000000000000000000000000000000000000000000000000000000 DUP2 MSTORE PUSH1 0x4 ADD PUSH2 0x105C SWAP2 SWAP1 PUSH2 0x19D8 JUMP JUMPDEST PUSH1 0x40 MLOAD DUP1 SWAP2 SUB SWAP1 REVERT JUMPDEST PUSH2 0x106E DUP2 PUSH2 0x1147 JUMP JUMPDEST POP JUMP JUMPDEST PUSH1 0x2 PUSH1 0x1 SLOAD SUB PUSH2 0x10AD JUMPI PUSH1 0x40 MLOAD PUSH32 0x3EE5AEB500000000000000000000000000000000000000000000000000000000 DUP2 MSTORE PUSH1 0x4 ADD PUSH1 0x40 MLOAD DUP1 SWAP2 SUB SWAP1 REVERT JUMPDEST PUSH1 0x2 PUSH1 0x1 DUP2 SWAP1 SSTORE POP JUMP JUMPDEST PUSH1 0x1 DUP1 DUP2 SWAP1 SSTORE POP JUMP JUMPDEST PUSH2 0x10C8 PUSH2 0x162C JUMP JUMPDEST PUSH20 0xFFFFFFFFFFFFFFFFFFFFFFFFFFFFFFFFFFFFFFFF AND PUSH2 0x10E6 PUSH2 0xC13 JUMP JUMPDEST PUSH20 0xFFFFFFFFFFFFFFFFFFFFFFFFFFFFFFFFFFFFFFFF AND EQ PUSH2 0x1145 JUMPI PUSH2 0x1109 PUSH2 0x162C JUMP JUMPDEST PUSH1 0x40 MLOAD PUSH32 0x118CDAA700000000000000000000000000000000000000000000000000000000 DUP2 MSTORE PUSH1 0x4 ADD PUSH2 0x113C SWAP2 SWAP1 PUSH2 0x19D8 JUMP JUMPDEST PUSH1 0x40 MLOAD DUP1 SWAP2 SUB SWAP1 REVERT JUMPDEST JUMP JUMPDEST PUSH0 DUP1 PUSH0 SWAP1 SLOAD SWAP1 PUSH2 0x100 EXP SWAP1 DIV PUSH20 0xFFFFFFFFFFFFFFFFFFFFFFFFFFFFFFFFFFFFFFFF AND SWAP1 POP DUP2 PUSH0 DUP1 PUSH2 0x100 EXP DUP2 SLOAD DUP2 PUSH20 0xFFFFFFFFFFFFFFFFFFFFFFFFFFFFFFFFFFFFFFFF MUL NOT AND SWAP1 DUP4 PUSH20 0xFFFFFFFFFFFFFFFFFFFFFFFFFFFFFFFFFFFFFFFF AND MUL OR SWAP1 SSTORE POP DUP2 PUSH20 0xFFFFFFFFFFFFFFFFFFFFFFFFFFFFFFFFFFFFFFFF AND DUP2 PUSH20 0xFFFFFFFFFFFFFFFFFFFFFFFFFFFFFFFFFFFFFFFF AND PUSH32 0x8BE0079C531659141344CD1FD0A4F28419497F9722A3DAAFE3B4186F6B6457E0 PUSH1 0x40 MLOAD PUSH1 0x40 MLOAD DUP1 SWAP2 SUB SWAP1 LOG3 POP POP JUMP JUMPDEST PUSH0 DUP1 PUSH0 DUP5 DUP5 DUP2 ADD SWAP1 PUSH2 0x121A SWAP2 SWAP1 PUSH2 0x215D JUMP JUMPDEST SWAP3 POP SWAP3 POP SWAP3 POP PUSH1 0x20 DUP4 MLOAD EQ ISZERO DUP1 PUSH2 0x1233 JUMPI POP PUSH1 0x20 DUP2 MLOAD EQ ISZERO JUMPDEST ISZERO PUSH2 0x126A JUMPI PUSH1 0x40 MLOAD PUSH32 0x6F7B6C0300000000000000000000000000000000000000000000000000000000 DUP2 MSTORE PUSH1 0x4 ADD PUSH1 0x40 MLOAD DUP1 SWAP2 SUB SWAP1 REVERT JUMPDEST PUSH0 DUP4 DUP1 PUSH1 0x20 ADD SWAP1 MLOAD DUP2 ADD SWAP1 PUSH2 0x127F SWAP2 SWAP1 PUSH2 0x1F51 JUMP JUMPDEST SWAP1 POP PUSH0 DUP3 DUP1 PUSH1 0x20 ADD SWAP1 MLOAD DUP2 ADD SWAP1 PUSH2 0x1296 SWAP2 SWAP1 PUSH2 0x1F51 JUMP JUMPDEST SWAP1 POP PUSH1 0x6 SLOAD DUP2 SUB PUSH2 0x12D3 JUMPI PUSH1 0x40 MLOAD PUSH32 0xE2B1F19400000000000000000000000000000000000000000000000000000000 DUP2 MSTORE PUSH1 0x4 ADD PUSH1 0x40 MLOAD DUP1 SWAP2 SUB SWAP1 REVERT JUMPDEST PUSH0 DUP1 SHL DUP2 EQ ISZERO DUP1 ISZERO PUSH2 0x12E7 JUMPI POP PUSH1 0x6 SLOAD DUP3 EQ ISZERO JUMPDEST ISZERO PUSH2 0x131E JUMPI PUSH1 0x40 MLOAD PUSH32 0x8405B42D00000000000000000000000000000000000000000000000000000000 DUP2 MSTORE PUSH1 0x4 ADD PUSH1 0x40 MLOAD DUP1 SWAP2 SUB SWAP1 REVERT JUMPDEST PUSH0 DUP5 MLOAD SWAP1 POP PUSH0 DUP2 GT ISZERO PUSH2 0x15E2 JUMPI PUSH0 DUP1 PUSH0 SWAP1 POP JUMPDEST DUP3 DUP2 LT ISZERO PUSH2 0x15DF JUMPI PUSH0 PUSH1 0x1 PUSH1 0x7 SLOAD PUSH2 0x1349 SWAP2 SWAP1 PUSH2 0x2201 JUMP JUMPDEST SWAP1 POP PUSH0 DUP9 DUP4 DUP2 MLOAD DUP2 LT PUSH2 0x135F JUMPI PUSH2 0x135E PUSH2 0x2234 JUMP JUMPDEST JUMPDEST PUSH1 0x20 MUL PUSH1 0x20 ADD ADD MLOAD PUSH0 ADD MLOAD SWAP1 POP DUP2 DUP2 EQ PUSH2 0x13B2 JUMPI DUP2 DUP2 PUSH1 0x40 MLOAD PUSH32 0xE51A15D700000000000000000000000000000000000000000000000000000000 DUP2 MSTORE PUSH1 0x4 ADD PUSH2 0x13A9 SWAP3 SWAP2 SWAP1 PUSH2 0x2261 JUMP JUMPDEST PUSH1 0x40 MLOAD DUP1 SWAP2 SUB SWAP1 REVERT JUMPDEST PUSH0 DUP10 DUP5 DUP2 MLOAD DUP2 LT PUSH2 0x13C6 JUMPI PUSH2 0x13C5 PUSH2 0x2234 JUMP JUMPDEST JUMPDEST PUSH1 0x20 MUL PUSH1 0x20 ADD ADD MLOAD SWAP1 POP PUSH0 DUP5 GT ISZERO PUSH2 0x1431 JUMPI PUSH1 0x1 DUP6 PUSH2 0x13E5 SWAP2 SWAP1 PUSH2 0x2201 JUMP JUMPDEST DUP2 PUSH0 ADD MLOAD EQ PUSH2 0x1430 JUMPI DUP5 DUP2 PUSH0 ADD MLOAD PUSH1 0x40 MLOAD PUSH32 0xE51A15D700000000000000000000000000000000000000000000000000000000 DUP2 MSTORE PUSH1 0x4 ADD PUSH2 0x1427 SWAP3 SWAP2 SWAP1 PUSH2 0x2261 JUMP JUMPDEST PUSH1 0x40 MLOAD DUP1 SWAP2 SUB SWAP1 REVERT JUMPDEST JUMPDEST DUP1 PUSH0 ADD MLOAD SWAP5 POP PUSH1 0xB PUSH0 DUP3 PUSH0 ADD MLOAD DUP2 MSTORE PUSH1 0x20 ADD SWAP1 DUP2 MSTORE PUSH1 0x20 ADD PUSH0 KECCAK256 PUSH0 ADD PUSH1 0x1 SWAP1 SLOAD SWAP1 PUSH2 0x100 EXP SWAP1 DIV PUSH1 0xFF AND ISZERO PUSH2 0x14A0 JUMPI DUP1 PUSH0 ADD MLOAD PUSH1 0x40 MLOAD PUSH32 0x8519A58D00000000000000000000000000000000000000000000000000000000 DUP2 MSTORE PUSH1 0x4 ADD PUSH2 0x1497 SWAP2 SWAP1 PUSH2 0x19F1 JUMP JUMPDEST PUSH1 0x40 MLOAD DUP1 SWAP2 SUB SWAP1 REVERT JUMPDEST PUSH0 PUSH1 0xB PUSH0 DUP4 PUSH0 ADD MLOAD DUP2 MSTORE PUSH1 0x20 ADD SWAP1 DUP2 MSTORE PUSH1 0x20 ADD PUSH0 KECCAK256 SWAP1 POP PUSH0 DUP2 PUSH0 ADD PUSH0 PUSH2 0x100 EXP DUP2 SLOAD DUP2 PUSH1 0xFF MUL NOT AND SWAP1 DUP4 ISZERO ISZERO MUL OR SWAP1 SSTORE POP PUSH1 0x1 DUP2 PUSH0 ADD PUSH1 0x1 PUSH2 0x100 EXP DUP2 SLOAD DUP2 PUSH1 0xFF MUL NOT AND SWAP1 DUP4 ISZERO ISZERO MUL OR SWAP1 SSTORE POP DUP2 PUSH1 0x40 ADD MLOAD DUP2 PUSH1 0x1 ADD DUP2 SWAP1 SSTORE POP DUP2 PUSH1 0x20 ADD MLOAD DUP2 PUSH1 0x2 ADD PUSH0 PUSH2 0x100 EXP DUP2 SLOAD DUP2 PUSH20 0xFFFFFFFFFFFFFFFFFFFFFFFFFFFFFFFFFFFFFFFF MUL NOT AND SWAP1 DUP4 PUSH20 0xFFFFFFFFFFFFFFFFFFFFFFFFFFFFFFFFFFFFFFFF AND MUL OR SWAP1 SSTORE POP PUSH1 0x1 PUSH1 0x8 PUSH0 DUP5 PUSH0 ADD MLOAD DUP2 MSTORE PUSH1 0x20 ADD SWAP1 DUP2 MSTORE PUSH1 0x20 ADD PUSH0 KECCAK256 PUSH0 PUSH2 0x100 EXP DUP2 SLOAD DUP2 PUSH1 0xFF MUL NOT AND SWAP1 DUP4 ISZERO ISZERO MUL OR SWAP1 SSTORE POP PUSH1 0x9 PUSH0 DUP2 SLOAD DUP1 SWAP3 SWAP2 SWAP1 PUSH1 0x1 ADD SWAP2 SWAP1 POP SSTORE POP DUP2 PUSH0 ADD MLOAD PUSH1 0x7 DUP2 SWAP1 SSTORE POP DUP2 PUSH0 ADD MLOAD PUSH32 0xA8B5340E621E212FBE48C04CE9974EC382161108B88E51ABAF7F82BF25DCFDCF DUP4 PUSH1 0x20 ADD MLOAD DUP5 PUSH1 0x40 ADD MLOAD TIMESTAMP PUSH1 0x40 MLOAD PUSH2 0x15C6 SWAP4 SWAP3 SWAP2 SWAP1 PUSH2 0x1B4F JUMP JUMPDEST PUSH1 0x40 MLOAD DUP1 SWAP2 SUB SWAP1 LOG2 DUP5 DUP1 PUSH1 0x1 ADD SWAP6 POP POP POP POP POP POP PUSH2 0x1331 JUMP JUMPDEST POP POP JUMPDEST DUP2 PUSH1 0x6 DUP2 SWAP1 SSTORE POP DUP2 DUP4 PUSH32 0xB6354A0AE57C57C360DC75DF59DFB88263B4EBF89CA9F2C2C61C15AB05C5D72B DUP4 PUSH1 0x40 MLOAD PUSH2 0x161A SWAP2 SWAP1 PUSH2 0x19F1 JUMP JUMPDEST PUSH1 0x40 MLOAD DUP1 SWAP2 SUB SWAP1 LOG3 POP POP POP POP POP POP POP POP JUMP JUMPDEST PUSH0 CALLER SWAP1 POP SWAP1 JUMP JUMPDEST PUSH0 PUSH8 0xFFFFFFFFFFFFFFFF DUP3 AND SWAP1 POP SWAP2 SWAP1 POP JUMP JUMPDEST PUSH2 0x164F DUP2 PUSH2 0x1633 JUMP JUMPDEST DUP3 MSTORE POP POP JUMP JUMPDEST PUSH0 PUSH1 0x20 DUP3 ADD SWAP1 POP PUSH2 0x1668 PUSH0 DUP4 ADD DUP5 PUSH2 0x1646 JUMP JUMPDEST SWAP3 SWAP2 POP POP JUMP JUMPDEST PUSH0 PUSH1 0x40 MLOAD SWAP1 POP SWAP1 JUMP JUMPDEST PUSH0 DUP1 REVERT JUMPDEST PUSH0 DUP1 REVERT JUMPDEST PUSH0 DUP2 SWAP1 POP SWAP2 SWAP1 POP JUMP JUMPDEST PUSH2 0x1691 DUP2 PUSH2 0x167F JUMP JUMPDEST DUP2 EQ PUSH2 0x169B JUMPI PUSH0 DUP1 REVERT JUMPDEST POP JUMP JUMPDEST PUSH0 DUP2 CALLDATALOAD SWAP1 POP PUSH2 0x16AC DUP2 PUSH2 0x1688 JUMP JUMPDEST SWAP3 SWAP2 POP POP JUMP JUMPDEST PUSH0 PUSH1 0x20 DUP3 DUP5 SUB SLT ISZERO PUSH2 0x16C7 JUMPI PUSH2 0x16C6 PUSH2 0x1677 JUMP JUMPDEST JUMPDEST PUSH0 PUSH2 0x16D4 DUP5 DUP3 DUP6 ADD PUSH2 0x169E JUMP JUMPDEST SWAP2 POP POP SWAP3 SWAP2 POP POP JUMP JUMPDEST PUSH0 DUP2 ISZERO ISZERO SWAP1 POP SWAP2 SWAP1 POP JUMP JUMPDEST PUSH2 0x16F1 DUP2 PUSH2 0x16DD JUMP JUMPDEST DUP3 MSTORE POP POP JUMP JUMPDEST PUSH2 0x1700 DUP2 PUSH2 0x167F JUMP JUMPDEST DUP3 MSTORE POP POP JUMP JUMPDEST PUSH0 PUSH20 0xFFFFFFFFFFFFFFFFFFFFFFFFFFFFFFFFFFFFFFFF DUP3 AND SWAP1 POP SWAP2 SWAP1 POP JUMP JUMPDEST PUSH0 PUSH2 0x172F DUP3 PUSH2 0x1706 JUMP JUMPDEST SWAP1 POP SWAP2 SWAP1 POP JUMP JUMPDEST PUSH2 0x173F DUP2 PUSH2 0x1725 JUMP JUMPDEST DUP3 MSTORE POP POP JUMP JUMPDEST PUSH0 PUSH1 0x80 DUP3 ADD SWAP1 POP PUSH2 0x1758 PUSH0 DUP4 ADD DUP8 PUSH2 0x16E8 JUMP JUMPDEST PUSH2 0x1765 PUSH1 0x20 DUP4 ADD DUP7 PUSH2 0x16E8 JUMP JUMPDEST PUSH2 0x1772 PUSH1 0x40 DUP4 ADD DUP6 PUSH2 0x16F7 JUMP JUMPDEST PUSH2 0x177F PUSH1 0x60 DUP4 ADD DUP5 PUSH2 0x1736 JUMP JUMPDEST SWAP6 SWAP5 POP POP POP POP POP JUMP JUMPDEST PUSH0 DUP2 SWAP1 POP SWAP2 SWAP1 POP JUMP JUMPDEST PUSH0 PUSH2 0x17AB PUSH2 0x17A6 PUSH2 0x17A1 DUP5 PUSH2 0x1706 JUMP JUMPDEST PUSH2 0x1788 JUMP JUMPDEST PUSH2 0x1706 JUMP JUMPDEST SWAP1 POP SWAP2 SWAP1 POP JUMP JUMPDEST PUSH0 PUSH2 0x17BC DUP3 PUSH2 0x1791 JUMP JUMPDEST SWAP1 POP SWAP2 SWAP1 POP JUMP JUMPDEST PUSH0 PUSH2 0x17CD DUP3 PUSH2 0x17B2 JUMP JUMPDEST SWAP1 POP SWAP2 SWAP1 POP JUMP JUMPDEST PUSH2 0x17DD DUP2 PUSH2 0x17C3 JUMP JUMPDEST DUP3 MSTORE POP POP JUMP JUMPDEST PUSH0 PUSH1 0x20 DUP3 ADD SWAP1 POP PUSH2 0x17F6 PUSH0 DUP4 ADD DUP5 PUSH2 0x17D4 JUMP JUMPDEST SWAP3 SWAP2 POP POP JUMP JUMPDEST PUSH2 0x1805 DUP2 PUSH2 0x1725 JUMP JUMPDEST DUP2 EQ PUSH2 0x180F JUMPI PUSH0 DUP1 REVERT JUMPDEST POP JUMP JUMPDEST PUSH0 DUP2 CALLDATALOAD SWAP1 POP PUSH2 0x1820 DUP2 PUSH2 0x17FC JUMP JUMPDEST SWAP3 SWAP2 POP POP JUMP JUMPDEST PUSH0 PUSH1 0x20 DUP3 DUP5 SUB SLT ISZERO PUSH2 0x183B JUMPI PUSH2 0x183A PUSH2 0x1677 JUMP JUMPDEST JUMPDEST PUSH0 PUSH2 0x1848 DUP5 DUP3 DUP6 ADD PUSH2 0x1812 JUMP JUMPDEST SWAP2 POP POP SWAP3 SWAP2 POP POP JUMP JUMPDEST PUSH0 DUP2 SWAP1 POP SWAP2 SWAP1 POP JUMP JUMPDEST PUSH2 0x1863 DUP2 PUSH2 0x1851 JUMP JUMPDEST DUP3 MSTORE POP POP JUMP JUMPDEST PUSH0 PUSH1 0x20 DUP3 ADD SWAP1 POP PUSH2 0x187C PUSH0 DUP4 ADD DUP5 PUSH2 0x185A JUMP JUMPDEST SWAP3 SWAP2 POP POP JUMP JUMPDEST PUSH0 DUP1 PUSH1 0x40 DUP4 DUP6 SUB SLT ISZERO PUSH2 0x1898 JUMPI PUSH2 0x1897 PUSH2 0x1677 JUMP JUMPDEST JUMPDEST PUSH0 PUSH2 0x18A5 DUP6 DUP3 DUP7 ADD PUSH2 0x1812 JUMP JUMPDEST SWAP3 POP POP PUSH1 0x20 PUSH2 0x18B6 DUP6 DUP3 DUP7 ADD PUSH2 0x169E JUMP JUMPDEST SWAP2 POP POP SWAP3 POP SWAP3 SWAP1 POP JUMP JUMPDEST PUSH0 PUSH2 0x18CA DUP3 PUSH2 0x17B2 JUMP JUMPDEST SWAP1 POP SWAP2 SWAP1 POP JUMP JUMPDEST PUSH2 0x18DA DUP2 PUSH2 0x18C0 JUMP JUMPDEST DUP3 MSTORE POP POP JUMP JUMPDEST PUSH0 PUSH1 0x20 DUP3 ADD SWAP1 POP PUSH2 0x18F3 PUSH0 DUP4 ADD DUP5 PUSH2 0x18D1 JUMP JUMPDEST SWAP3 SWAP2 POP POP JUMP JUMPDEST PUSH0 DUP1 REVERT JUMPDEST PUSH0 DUP1 REVERT JUMPDEST PUSH0 DUP1 REVERT JUMPDEST PUSH0 DUP1 DUP4 PUSH1 0x1F DUP5 ADD SLT PUSH2 0x191A JUMPI PUSH2 0x1919 PUSH2 0x18F9 JUMP JUMPDEST JUMPDEST DUP3 CALLDATALOAD SWAP1 POP PUSH8 0xFFFFFFFFFFFFFFFF DUP2 GT ISZERO PUSH2 0x1937 JUMPI PUSH2 0x1936 PUSH2 0x18FD JUMP JUMPDEST JUMPDEST PUSH1 0x20 DUP4 ADD SWAP2 POP DUP4 PUSH1 0x1 DUP3 MUL DUP4 ADD GT ISZERO PUSH2 0x1953 JUMPI PUSH2 0x1952 PUSH2 0x1901 JUMP JUMPDEST JUMPDEST SWAP3 POP SWAP3 SWAP1 POP JUMP JUMPDEST PUSH0 DUP1 PUSH0 DUP1 PUSH1 0x40 DUP6 DUP8 SUB SLT ISZERO PUSH2 0x1972 JUMPI PUSH2 0x1971 PUSH2 0x1677 JUMP JUMPDEST JUMPDEST PUSH0 DUP6 ADD CALLDATALOAD PUSH8 0xFFFFFFFFFFFFFFFF DUP2 GT ISZERO PUSH2 0x198F JUMPI PUSH2 0x198E PUSH2 0x167B JUMP JUMPDEST JUMPDEST PUSH2 0x199B DUP8 DUP3 DUP9 ADD PUSH2 0x1905 JUMP JUMPDEST SWAP5 POP SWAP5 POP POP PUSH1 0x20 DUP6 ADD CALLDATALOAD PUSH8 0xFFFFFFFFFFFFFFFF DUP2 GT ISZERO PUSH2 0x19BE JUMPI PUSH2 0x19BD PUSH2 0x167B JUMP JUMPDEST JUMPDEST PUSH2 0x19CA DUP8 DUP3 DUP9 ADD PUSH2 0x1905 JUMP JUMPDEST SWAP3 POP SWAP3 POP POP SWAP3 SWAP6 SWAP2 SWAP5 POP SWAP3 POP JUMP JUMPDEST PUSH0 PUSH1 0x20 DUP3 ADD SWAP1 POP PUSH2 0x19EB PUSH0 DUP4 ADD DUP5 PUSH2 0x1736 JUMP JUMPDEST SWAP3 SWAP2 POP POP JUMP JUMPDEST PUSH0 PUSH1 0x20 DUP3 ADD SWAP1 POP PUSH2 0x1A04 PUSH0 DUP4 ADD DUP5 PUSH2 0x16F7 JUMP JUMPDEST SWAP3 SWAP2 POP POP JUMP JUMPDEST PUSH2 0x1A13 DUP2 PUSH2 0x1851 JUMP JUMPDEST DUP2 EQ PUSH2 0x1A1D JUMPI PUSH0 DUP1 REVERT JUMPDEST POP JUMP JUMPDEST PUSH0 DUP2 CALLDATALOAD SWAP1 POP PUSH2 0x1A2E DUP2 PUSH2 0x1A0A JUMP JUMPDEST SWAP3 SWAP2 POP POP JUMP JUMPDEST PUSH0 PUSH1 0x20 DUP3 DUP5 SUB SLT ISZERO PUSH2 0x1A49 JUMPI PUSH2 0x1A48 PUSH2 0x1677 JUMP JUMPDEST JUMPDEST PUSH0 PUSH2 0x1A56 DUP5 DUP3 DUP6 ADD PUSH2 0x1A20 JUMP JUMPDEST SWAP2 POP POP SWAP3 SWAP2 POP POP JUMP JUMPDEST PUSH0 DUP1 PUSH0 DUP1 PUSH0 DUP1 PUSH1 0x60 DUP8 DUP10 SUB SLT ISZERO PUSH2 0x1A79 JUMPI PUSH2 0x1A78 PUSH2 0x1677 JUMP JUMPDEST JUMPDEST PUSH0 DUP8 ADD CALLDATALOAD PUSH8 0xFFFFFFFFFFFFFFFF DUP2 GT ISZERO PUSH2 0x1A96 JUMPI PUSH2 0x1A95 PUSH2 0x167B JUMP JUMPDEST JUMPDEST PUSH2 0x1AA2 DUP10 DUP3 DUP11 ADD PUSH2 0x1905 JUMP JUMPDEST SWAP7 POP SWAP7 POP POP PUSH1 0x20 DUP8 ADD CALLDATALOAD PUSH8 0xFFFFFFFFFFFFFFFF DUP2 GT ISZERO PUSH2 0x1AC5 JUMPI PUSH2 0x1AC4 PUSH2 0x167B JUMP JUMPDEST JUMPDEST PUSH2 0x1AD1 DUP10 DUP3 DUP11 ADD PUSH2 0x1905 JUMP JUMPDEST SWAP5 POP SWAP5 POP POP PUSH1 0x40 DUP8 ADD CALLDATALOAD PUSH8 0xFFFFFFFFFFFFFFFF DUP2 GT ISZERO PUSH2 0x1AF4 JUMPI PUSH2 0x1AF3 PUSH2 0x167B JUMP JUMPDEST JUMPDEST PUSH2 0x1B00 DUP10 DUP3 DUP11 ADD PUSH2 0x1905 JUMP JUMPDEST SWAP3 POP SWAP3 POP POP SWAP3 SWAP6 POP SWAP3 SWAP6 POP SWAP3 SWAP6 JUMP JUMPDEST PUSH0 PUSH1 0x20 DUP3 ADD SWAP1 POP PUSH2 0x1B22 PUSH0 DUP4 ADD DUP5 PUSH2 0x16E8 JUMP JUMPDEST SWAP3 SWAP2 POP POP JUMP JUMPDEST PUSH0 PUSH1 0x40 DUP3 ADD SWAP1 POP PUSH2 0x1B3B PUSH0 DUP4 ADD DUP6 PUSH2 0x1736 JUMP JUMPDEST PUSH2 0x1B48 PUSH1 0x20 DUP4 ADD DUP5 PUSH2 0x16F7 JUMP JUMPDEST SWAP4 SWAP3 POP POP POP JUMP JUMPDEST PUSH0 PUSH1 0x60 DUP3 ADD SWAP1 POP PUSH2 0x1B62 PUSH0 DUP4 ADD DUP7 PUSH2 0x1736 JUMP JUMPDEST PUSH2 0x1B6F PUSH1 0x20 DUP4 ADD DUP6 PUSH2 0x16F7 JUMP JUMPDEST PUSH2 0x1B7C PUSH1 0x40 DUP4 ADD DUP5 PUSH2 0x16F7 JUMP JUMPDEST SWAP5 SWAP4 POP POP POP POP JUMP JUMPDEST PUSH0 PUSH1 0x40 DUP3 ADD SWAP1 POP PUSH2 0x1B97 PUSH0 DUP4 ADD DUP6 PUSH2 0x1736 JUMP JUMPDEST PUSH2 0x1BA4 PUSH1 0x20 DUP4 ADD DUP5 PUSH2 0x1736 JUMP JUMPDEST SWAP4 SWAP3 POP POP POP JUMP JUMPDEST PUSH32 0x4E487B7100000000000000000000000000000000000000000000000000000000 PUSH0 MSTORE PUSH1 0x11 PUSH1 0x4 MSTORE PUSH1 0x24 PUSH0 REVERT JUMPDEST PUSH0 PUSH2 0x1BE2 DUP3 PUSH2 0x1633 JUMP JUMPDEST SWAP2 POP PUSH8 0xFFFFFFFFFFFFFFFF DUP3 SUB PUSH2 0x1BFC JUMPI PUSH2 0x1BFB PUSH2 0x1BAB JUMP JUMPDEST JUMPDEST PUSH1 0x1 DUP3 ADD SWAP1 POP SWAP2 SWAP1 POP JUMP JUMPDEST PUSH0 PUSH1 0x60 DUP3 ADD SWAP1 POP PUSH2 0x1C1A PUSH0 DUP4 ADD DUP7 PUSH2 0x1736 JUMP JUMPDEST PUSH2 0x1C27 PUSH1 0x20 DUP4 ADD DUP6 PUSH2 0x1736 JUMP JUMPDEST PUSH2 0x1C34 PUSH1 0x40 DUP4 ADD DUP5 PUSH2 0x16F7 JUMP JUMPDEST SWAP5 SWAP4 POP POP POP POP JUMP JUMPDEST PUSH0 DUP3 DUP3 MSTORE PUSH1 0x20 DUP3 ADD SWAP1 POP SWAP3 SWAP2 POP POP JUMP JUMPDEST DUP3 DUP2 DUP4 CALLDATACOPY PUSH0 DUP4 DUP4 ADD MSTORE POP POP POP JUMP JUMPDEST PUSH0 PUSH1 0x1F NOT PUSH1 0x1F DUP4 ADD AND SWAP1 POP SWAP2 SWAP1 POP JUMP JUMPDEST PUSH0 PUSH2 0x1C75 DUP4 DUP6 PUSH2 0x1C3C JUMP JUMPDEST SWAP4 POP PUSH2 0x1C82 DUP4 DUP6 DUP5 PUSH2 0x1C4C JUMP JUMPDEST PUSH2 0x1C8B DUP4 PUSH2 0x1C5A JUMP JUMPDEST DUP5 ADD SWAP1 POP SWAP4 SWAP3 POP POP POP JUMP JUMPDEST PUSH0 PUSH1 0x60 DUP3 ADD SWAP1 POP DUP2 DUP2 SUB PUSH0 DUP4 ADD MSTORE PUSH2 0x1CAF DUP2 DUP8 DUP10 PUSH2 0x1C6A JUMP JUMPDEST SWAP1 POP PUSH2 0x1CBE PUSH1 0x20 DUP4 ADD DUP7 PUSH2 0x185A JUMP JUMPDEST DUP2 DUP2 SUB PUSH1 0x40 DUP4 ADD MSTORE PUSH2 0x1CD1 DUP2 DUP5 DUP7 PUSH2 0x1C6A JUMP JUMPDEST SWAP1 POP SWAP7 SWAP6 POP POP POP POP POP POP JUMP JUMPDEST PUSH0 DUP2 PUSH1 0xE0 SHR SWAP1 POP SWAP2 SWAP1 POP JUMP JUMPDEST PUSH0 PUSH1 0x3 RETURNDATASIZE GT ISZERO PUSH2 0x1D05 JUMPI PUSH1 0x4 PUSH0 DUP1 RETURNDATACOPY PUSH2 0x1D02 PUSH0 MLOAD PUSH2 0x1CDD JUMP JUMPDEST SWAP1 POP JUMPDEST SWAP1 JUMP JUMPDEST PUSH32 0x4E487B7100000000000000000000000000000000000000000000000000000000 PUSH0 MSTORE PUSH1 0x41 PUSH1 0x4 MSTORE PUSH1 0x24 PUSH0 REVERT JUMPDEST PUSH2 0x1D3E DUP3 PUSH2 0x1C5A JUMP JUMPDEST DUP2 ADD DUP2 DUP2 LT PUSH8 0xFFFFFFFFFFFFFFFF DUP3 GT OR ISZERO PUSH2 0x1D5D JUMPI PUSH2 0x1D5C PUSH2 0x1D08 JUMP JUMPDEST JUMPDEST DUP1 PUSH1 0x40 MSTORE POP POP POP JUMP JUMPDEST PUSH0 PUSH1 0x44 RETURNDATASIZE LT PUSH2 0x1DF2 JUMPI PUSH2 0x1D77 PUSH2 0x166E JUMP JUMPDEST PUSH1 0x4 RETURNDATASIZE SUB PUSH1 0x4 DUP3 RETURNDATACOPY DUP1 MLOAD RETURNDATASIZE PUSH1 0x24 DUP3 ADD GT PUSH8 0xFFFFFFFFFFFFFFFF DUP3 GT OR ISZERO PUSH2 0x1D9F JUMPI POP POP PUSH2 0x1DF2 JUMP JUMPDEST DUP1 DUP3 ADD DUP1 MLOAD PUSH8 0xFFFFFFFFFFFFFFFF DUP2 GT ISZERO PUSH2 0x1DBD JUMPI POP POP POP POP PUSH2 0x1DF2 JUMP JUMPDEST DUP1 PUSH1 0x20 DUP4 ADD ADD PUSH1 0x4 RETURNDATASIZE SUB DUP6 ADD DUP2 GT ISZERO PUSH2 0x1DDA JUMPI POP POP POP POP POP PUSH2 0x1DF2 JUMP JUMPDEST PUSH2 0x1DE9 DUP3 PUSH1 0x20 ADD DUP6 ADD DUP7 PUSH2 0x1D35 JUMP JUMPDEST DUP3 SWAP6 POP POP POP POP POP POP JUMPDEST SWAP1 JUMP JUMPDEST PUSH0 DUP2 MLOAD SWAP1 POP SWAP2 SWAP1 POP JUMP JUMPDEST PUSH0 DUP3 DUP3 MSTORE PUSH1 0x20 DUP3 ADD SWAP1 POP SWAP3 SWAP2 POP POP JUMP JUMPDEST PUSH0 JUMPDEST DUP4 DUP2 LT ISZERO PUSH2 0x1E2C JUMPI DUP1 DUP3 ADD MLOAD DUP2 DUP5 ADD MSTORE PUSH1 0x20 DUP2 ADD SWAP1 POP PUSH2 0x1E11 JUMP JUMPDEST PUSH0 DUP5 DUP5 ADD MSTORE POP POP POP POP JUMP JUMPDEST PUSH0 PUSH2 0x1E41 DUP3 PUSH2 0x1DF5 JUMP JUMPDEST PUSH2 0x1E4B DUP2 DUP6 PUSH2 0x1DFF JUMP JUMPDEST SWAP4 POP PUSH2 0x1E5B DUP2 DUP6 PUSH1 0x20 DUP7 ADD PUSH2 0x1E0F JUMP JUMPDEST PUSH2 0x1E64 DUP2 PUSH2 0x1C5A JUMP JUMPDEST DUP5 ADD SWAP2 POP POP SWAP3 SWAP2 POP POP JUMP JUMPDEST PUSH0 PUSH1 0x20 DUP3 ADD SWAP1 POP DUP2 DUP2 SUB PUSH0 DUP4 ADD MSTORE PUSH2 0x1E87 DUP2 DUP5 PUSH2 0x1E37 JUMP JUMPDEST SWAP1 POP SWAP3 SWAP2 POP POP JUMP JUMPDEST PUSH32 0x4C6F772D6C6576656C20766572696669636174696F6E206572726F7200000000 PUSH0 DUP3 ADD MSTORE POP JUMP JUMPDEST PUSH0 PUSH2 0x1EC3 PUSH1 0x1C DUP4 PUSH2 0x1DFF JUMP JUMPDEST SWAP2 POP PUSH2 0x1ECE DUP3 PUSH2 0x1E8F JUMP JUMPDEST PUSH1 0x20 DUP3 ADD SWAP1 POP SWAP2 SWAP1 POP JUMP JUMPDEST PUSH0 PUSH1 0x20 DUP3 ADD SWAP1 POP DUP2 DUP2 SUB PUSH0 DUP4 ADD MSTORE PUSH2 0x1EF0 DUP2 PUSH2 0x1EB7 JUMP JUMPDEST SWAP1 POP SWAP2 SWAP1 POP JUMP JUMPDEST PUSH0 DUP2 SWAP1 POP SWAP3 SWAP2 POP POP JUMP JUMPDEST PUSH0 PUSH2 0x1F0C DUP4 DUP6 PUSH2 0x1EF7 JUMP JUMPDEST SWAP4 POP PUSH2 0x1F19 DUP4 DUP6 DUP5 PUSH2 0x1C4C JUMP JUMPDEST DUP3 DUP5 ADD SWAP1 POP SWAP4 SWAP3 POP POP POP JUMP JUMPDEST PUSH0 PUSH2 0x1F31 DUP3 DUP5 DUP7 PUSH2 0x1F01 JUMP JUMPDEST SWAP2 POP DUP2 SWAP1 POP SWAP4 SWAP3 POP POP POP JUMP JUMPDEST PUSH0 DUP2 MLOAD SWAP1 POP PUSH2 0x1F4B DUP2 PUSH2 0x1A0A JUMP JUMPDEST SWAP3 SWAP2 POP POP JUMP JUMPDEST PUSH0 PUSH1 0x20 DUP3 DUP5 SUB SLT ISZERO PUSH2 0x1F66 JUMPI PUSH2 0x1F65 PUSH2 0x1677 JUMP JUMPDEST JUMPDEST PUSH0 PUSH2 0x1F73 DUP5 DUP3 DUP6 ADD PUSH2 0x1F3D JUMP JUMPDEST SWAP2 POP POP SWAP3 SWAP2 POP POP JUMP JUMPDEST PUSH0 DUP1 REVERT JUMPDEST PUSH0 PUSH2 0x1F89 PUSH2 0x166E JUMP JUMPDEST SWAP1 POP PUSH2 0x1F95 DUP3 DUP3 PUSH2 0x1D35 JUMP JUMPDEST SWAP2 SWAP1 POP JUMP JUMPDEST PUSH0 PUSH8 0xFFFFFFFFFFFFFFFF DUP3 GT ISZERO PUSH2 0x1FB4 JUMPI PUSH2 0x1FB3 PUSH2 0x1D08 JUMP JUMPDEST JUMPDEST PUSH2 0x1FBD DUP3 PUSH2 0x1C5A JUMP JUMPDEST SWAP1 POP PUSH1 0x20 DUP2 ADD SWAP1 POP SWAP2 SWAP1 POP JUMP JUMPDEST PUSH0 PUSH2 0x1FDC PUSH2 0x1FD7 DUP5 PUSH2 0x1F9A JUMP JUMPDEST PUSH2 0x1F80 JUMP JUMPDEST SWAP1 POP DUP3 DUP2 MSTORE PUSH1 0x20 DUP2 ADD DUP5 DUP5 DUP5 ADD GT ISZERO PUSH2 0x1FF8 JUMPI PUSH2 0x1FF7 PUSH2 0x1F7C JUMP JUMPDEST JUMPDEST PUSH2 0x2003 DUP5 DUP3 DUP6 PUSH2 0x1C4C JUMP JUMPDEST POP SWAP4 SWAP3 POP POP POP JUMP JUMPDEST PUSH0 DUP3 PUSH1 0x1F DUP4 ADD SLT PUSH2 0x201F JUMPI PUSH2 0x201E PUSH2 0x18F9 JUMP JUMPDEST JUMPDEST DUP2 CALLDATALOAD PUSH2 0x202F DUP5 DUP3 PUSH1 0x20 DUP7 ADD PUSH2 0x1FCA JUMP JUMPDEST SWAP2 POP POP SWAP3 SWAP2 POP POP JUMP JUMPDEST PUSH0 PUSH8 0xFFFFFFFFFFFFFFFF DUP3 GT ISZERO PUSH2 0x2052 JUMPI PUSH2 0x2051 PUSH2 0x1D08 JUMP JUMPDEST JUMPDEST PUSH1 0x20 DUP3 MUL SWAP1 POP PUSH1 0x20 DUP2 ADD SWAP1 POP SWAP2 SWAP1 POP JUMP JUMPDEST PUSH0 DUP1 REVERT JUMPDEST PUSH0 PUSH1 0x60 DUP3 DUP5 SUB SLT ISZERO PUSH2 0x207C JUMPI PUSH2 0x207B PUSH2 0x2063 JUMP JUMPDEST JUMPDEST PUSH2 0x2086 PUSH1 0x60 PUSH2 0x1F80 JUMP JUMPDEST SWAP1 POP PUSH0 PUSH2 0x2095 DUP5 DUP3 DUP6 ADD PUSH2 0x169E JUMP JUMPDEST PUSH0 DUP4 ADD MSTORE POP PUSH1 0x20 PUSH2 0x20A8 DUP5 DUP3 DUP6 ADD PUSH2 0x1812 JUMP JUMPDEST PUSH1 0x20 DUP4 ADD MSTORE POP PUSH1 0x40 PUSH2 0x20BC DUP5 DUP3 DUP6 ADD PUSH2 0x169E JUMP JUMPDEST PUSH1 0x40 DUP4 ADD MSTORE POP SWAP3 SWAP2 POP POP JUMP JUMPDEST PUSH0 PUSH2 0x20DA PUSH2 0x20D5 DUP5 PUSH2 0x2038 JUMP JUMPDEST PUSH2 0x1F80 JUMP JUMPDEST SWAP1 POP DUP1 DUP4 DUP3 MSTORE PUSH1 0x20 DUP3 ADD SWAP1 POP PUSH1 0x60 DUP5 MUL DUP4 ADD DUP6 DUP2 GT ISZERO PUSH2 0x20FD JUMPI PUSH2 0x20FC PUSH2 0x1901 JUMP JUMPDEST JUMPDEST DUP4 JUMPDEST DUP2 DUP2 LT ISZERO PUSH2 0x2126 JUMPI DUP1 PUSH2 0x2112 DUP9 DUP3 PUSH2 0x2067 JUMP JUMPDEST DUP5 MSTORE PUSH1 0x20 DUP5 ADD SWAP4 POP POP PUSH1 0x60 DUP2 ADD SWAP1 POP PUSH2 0x20FF JUMP JUMPDEST POP POP POP SWAP4 SWAP3 POP POP POP JUMP JUMPDEST PUSH0 DUP3 PUSH1 0x1F DUP4 ADD SLT PUSH2 0x2144 JUMPI PUSH2 0x2143 PUSH2 0x18F9 JUMP JUMPDEST JUMPDEST DUP2 CALLDATALOAD PUSH2 0x2154 DUP5 DUP3 PUSH1 0x20 DUP7 ADD PUSH2 0x20C8 JUMP JUMPDEST SWAP2 POP POP SWAP3 SWAP2 POP POP JUMP JUMPDEST PUSH0 DUP1 PUSH0 PUSH1 0x60 DUP5 DUP7 SUB SLT ISZERO PUSH2 0x2174 JUMPI PUSH2 0x2173 PUSH2 0x1677 JUMP JUMPDEST JUMPDEST PUSH0 DUP5 ADD CALLDATALOAD PUSH8 0xFFFFFFFFFFFFFFFF DUP2 GT ISZERO PUSH2 0x2191 JUMPI PUSH2 0x2190 PUSH2 0x167B JUMP JUMPDEST JUMPDEST PUSH2 0x219D DUP7 DUP3 DUP8 ADD PUSH2 0x200B JUMP JUMPDEST SWAP4 POP POP PUSH1 0x20 DUP5 ADD CALLDATALOAD PUSH8 0xFFFFFFFFFFFFFFFF DUP2 GT ISZERO PUSH2 0x21BE JUMPI PUSH2 0x21BD PUSH2 0x167B JUMP JUMPDEST JUMPDEST PUSH2 0x21CA DUP7 DUP3 DUP8 ADD PUSH2 0x2130 JUMP JUMPDEST SWAP3 POP POP PUSH1 0x40 DUP5 ADD CALLDATALOAD PUSH8 0xFFFFFFFFFFFFFFFF DUP2 GT ISZERO PUSH2 0x21EB JUMPI PUSH2 0x21EA PUSH2 0x167B JUMP JUMPDEST JUMPDEST PUSH2 0x21F7 DUP7 DUP3 DUP8 ADD PUSH2 0x200B JUMP JUMPDEST SWAP2 POP POP SWAP3 POP SWAP3 POP SWAP3 JUMP JUMPDEST PUSH0 PUSH2 0x220B DUP3 PUSH2 0x167F JUMP JUMPDEST SWAP2 POP PUSH2 0x2216 DUP4 PUSH2 0x167F JUMP JUMPDEST SWAP3 POP DUP3 DUP3 ADD SWAP1 POP DUP1 DUP3 GT ISZERO PUSH2 0x222E JUMPI PUSH2 0x222D PUSH2 0x1BAB JUMP JUMPDEST JUMPDEST SWAP3 SWAP2 POP POP JUMP JUMPDEST PUSH32 0x4E487B7100000000000000000000000000000000000000000000000000000000 PUSH0 MSTORE PUSH1 0x32 PUSH1 0x4 MSTORE PUSH1 0x24 PUSH0 REVERT JUMPDEST PUSH0 PUSH1 0x40 DUP3 ADD SWAP1 POP PUSH2 0x2274 PUSH0 DUP4 ADD DUP6 PUSH2 0x16F7 JUMP JUMPDEST PUSH2 0x2281 PUSH1 0x20 DUP4 ADD DUP5 PUSH2 0x16F7 JUMP JUMPDEST SWAP4 SWAP3 POP POP POP JUMP INVALID LOG2 PUSH5 0x6970667358 0x22 SLT KECCAK256 REVERT SHR PUSH1 0xDB LOG3 SWAP11 PUSH2 0x6A26 0xAD PC DUP16 LOG2 SWAP5 0xEF 0xC PUSH1 0x5B REVERT SWAP13 EQ PUSH28 0xF6B28833589A3DEBE57364736F6C6343000814003300000000000000 "
		},
		"gasEstimates": {
			"creation": {
				"codeDepositCost": "1778800",
				"executionCost": "infinite",
				"totalCost": "infinite"
			},
			"external": {
				"IMAGE_ID()": "2448",
				"bridgeWithVerification(bytes,bytes)": "infinite",
				"bridgeWithVerificationDebug(bytes,bytes,bytes)": "infinite",
				"claim(uint256)": "infinite",
				"getInwardNonceCount()": "2499",
				"inwardClaims(uint256)": "infinite",
				"lastFinalizedHash()": "2492",
				"lastInwardNonce()": "2491",
				"outwardNonce()": "2490",
				"outwardTransfers(uint256)": "infinite",
				"owner()": "2560",
				"qToken()": "infinite",
				"renounceOwnership()": "infinite",
				"setImageId(bytes32)": "22604",
				"setLastFinalizedHash(bytes32)": "22537",
				"setTokenContract(address)": "infinite",
				"setVerifier(address)": "infinite",
				"transferOut(address,uint256)": "infinite",
				"transferOwnership(address)": "infinite",
				"verifierRouter()": "infinite"
			},
			"internal": {
				"_processVerifiedTransaction(bytes calldata)": "infinite"
			}
		},
		"methodIdentifiers": {
			"IMAGE_ID()": "549206ed",
			"bridgeWithVerification(bytes,bytes)": "87c16d4f",
			"bridgeWithVerificationDebug(bytes,bytes,bytes)": "da1bb793",
			"claim(uint256)": "379607f5",
			"getInwardNonceCount()": "8f965b99",
			"inwardClaims(uint256)": "f17f5106",
			"lastFinalizedHash()": "743ae7ad",
			"lastInwardNonce()": "dcac07db",
			"outwardNonce()": "07f8e853",
			"outwardTransfers(uint256)": "0ed16339",
			"owner()": "8da5cb5b",
			"qToken()": "3a5abead",
			"renounceOwnership()": "715018a6",
			"setImageId(bytes32)": "901129c2",
			"setLastFinalizedHash(bytes32)": "d7d1d520",
			"setTokenContract(address)": "bbcd5bbe",
			"setVerifier(address)": "5437988d",
			"transferOut(address,uint256)": "76890c58",
			"transferOwnership(address)": "f2fde38b",
			"verifierRouter()": "849a1586"
		}
	},
	"abi": [
		{
			"inputs": [
				{
					"internalType": "address",
					"name": "verifierAddress",
					"type": "address"
				},
				{
					"internalType": "address",
					"name": "tokenAddress",
					"type": "address"
				},
				{
					"internalType": "bytes32",
					"name": "_imageId",
					"type": "bytes32"
				},
				{
					"internalType": "address",
					"name": "initialOwner",
					"type": "address"
				},
				{
					"internalType": "bytes32",
					"name": "_lastFinalizedHash",
					"type": "bytes32"
				}
			],
			"stateMutability": "nonpayable",
			"type": "constructor"
		},
		{
			"inputs": [],
			"name": "BatchAlreadyProcessed",
			"type": "error"
		},
		{
			"inputs": [
				{
					"internalType": "address",
					"name": "beneficiary",
					"type": "address"
				}
			],
			"name": "InvalidBeneficiary",
			"type": "error"
		},
		{
			"inputs": [],
			"name": "InvalidHashLength",
			"type": "error"
		},
		{
			"inputs": [],
			"name": "InvalidHashSequence",
			"type": "error"
		},
		{
			"inputs": [
				{
					"internalType": "bytes32",
					"name": "_imageId",
					"type": "bytes32"
				}
			],
			"name": "InvalidImageId",
			"type": "error"
		},
		{
			"inputs": [
				{
					"internalType": "address",
					"name": "tokenAddress",
					"type": "address"
				}
			],
			"name": "InvalidTokenAddress",
			"type": "error"
		},
		{
			"inputs": [
				{
					"internalType": "address",
					"name": "verifierAddress",
					"type": "address"
				}
			],
			"name": "InvalidVerifierAddress",
			"type": "error"
		},
		{
			"inputs": [
				{
					"internalType": "bool",
					"name": "claimed",
					"type": "bool"
				}
			],
			"name": "NonceAlreadyClaimed",
			"type": "error"
		},
		{
			"inputs": [
				{
					"internalType": "bool",
					"name": "processed",
					"type": "bool"
				}
			],
			"name": "NonceDoesNotExist",
			"type": "error"
		},
		{
			"inputs": [
				{
					"internalType": "uint256",
					"name": "expected",
					"type": "uint256"
				},
				{
					"internalType": "uint256",
					"name": "actual",
					"type": "uint256"
				}
			],
			"name": "NonceSequenceViolation",
			"type": "error"
		},
		{
			"inputs": [
				{
					"internalType": "address",
					"name": "owner",
					"type": "address"
				}
			],
			"name": "OwnableInvalidOwner",
			"type": "error"
		},
		{
			"inputs": [
				{
					"internalType": "address",
					"name": "account",
					"type": "address"
				}
			],
			"name": "OwnableUnauthorizedAccount",
			"type": "error"
		},
		{
			"inputs": [],
			"name": "ReentrancyGuardReentrantCall",
			"type": "error"
		},
		{
			"inputs": [
				{
					"internalType": "uint256",
					"name": "nonce",
					"type": "uint256"
				}
			],
			"name": "TransferAlreadyProcessed",
			"type": "error"
		},
		{
			"inputs": [
				{
					"internalType": "uint256",
					"name": "amount",
					"type": "uint256"
				}
			],
			"name": "ZeroAmount",
			"type": "error"
		},
		{
			"anonymous": false,
			"inputs": [
				{
					"indexed": true,
					"internalType": "uint256",
					"name": "nonce",
					"type": "uint256"
				},
				{
					"indexed": false,
					"internalType": "address",
					"name": "beneficiary",
					"type": "address"
				},
				{
					"indexed": false,
					"internalType": "uint256",
					"name": "amount",
					"type": "uint256"
				},
				{
					"indexed": false,
					"internalType": "uint256",
					"name": "timestamp",
					"type": "uint256"
				}
			],
			"name": "ClaimNonceRecord",
			"type": "event"
		},
		{
			"anonymous": false,
			"inputs": [
				{
					"indexed": true,
					"internalType": "uint256",
					"name": "nonce",
					"type": "uint256"
				},
				{
					"indexed": false,
					"internalType": "address",
					"name": "claimer",
					"type": "address"
				},
				{
					"indexed": false,
					"internalType": "uint256",
					"name": "amount",
					"type": "uint256"
				},
				{
					"indexed": false,
					"internalType": "uint256",
					"name": "timestamp",
					"type": "uint256"
				}
			],
			"name": "NonceClaimed",
			"type": "event"
		},
		{
			"anonymous": false,
			"inputs": [
				{
					"indexed": true,
					"internalType": "uint64",
					"name": "nonce",
					"type": "uint64"
				},
				{
					"indexed": false,
					"internalType": "address",
					"name": "sender",
					"type": "address"
				},
				{
					"indexed": false,
					"internalType": "address",
					"name": "beneficiary",
					"type": "address"
				},
				{
					"indexed": false,
					"internalType": "uint256",
					"name": "amount",
					"type": "uint256"
				}
			],
			"name": "OutboundTransferInitiated",
			"type": "event"
		},
		{
			"anonymous": false,
			"inputs": [
				{
					"indexed": true,
					"internalType": "address",
					"name": "previousOwner",
					"type": "address"
				},
				{
					"indexed": true,
					"internalType": "address",
					"name": "newOwner",
					"type": "address"
				}
			],
			"name": "OwnershipTransferred",
			"type": "event"
		},
		{
			"anonymous": false,
			"inputs": [
				{
					"indexed": true,
					"internalType": "bytes32",
					"name": "lastFinalizedHash",
					"type": "bytes32"
				},
				{
					"indexed": true,
					"internalType": "bytes32",
					"name": "latestFinalizedHash",
					"type": "bytes32"
				},
				{
					"indexed": false,
					"internalType": "uint256",
					"name": "count",
					"type": "uint256"
				}
			],
			"name": "ProcessedTransaction",
			"type": "event"
		},
		{
			"anonymous": false,
			"inputs": [
				{
					"indexed": false,
					"internalType": "address",
					"name": "oldToken",
					"type": "address"
				},
				{
					"indexed": false,
					"internalType": "address",
					"name": "newToken",
					"type": "address"
				}
			],
			"name": "TokenContractChanged",
			"type": "event"
		},
		{
			"anonymous": false,
			"inputs": [
				{
					"indexed": true,
					"internalType": "bytes32",
					"name": "imageId",
					"type": "bytes32"
				},
				{
					"indexed": false,
					"internalType": "string",
					"name": "reason",
					"type": "string"
				}
			],
			"name": "VerificationFailed",
			"type": "event"
		},
		{
			"anonymous": false,
			"inputs": [
				{
					"indexed": true,
					"internalType": "bytes32",
					"name": "imageId",
					"type": "bytes32"
				},
				{
					"indexed": false,
					"internalType": "bytes32",
					"name": "journalHash",
					"type": "bytes32"
				}
			],
			"name": "VerificationSuccess",
			"type": "event"
		},
		{
			"anonymous": false,
			"inputs": [
				{
					"indexed": false,
					"internalType": "address",
					"name": "oldVerifier",
					"type": "address"
				},
				{
					"indexed": false,
					"internalType": "address",
					"name": "newVerifier",
					"type": "address"
				}
			],
			"name": "VerifierChanged",
			"type": "event"
		},
		{
			"inputs": [],
			"name": "IMAGE_ID",
			"outputs": [
				{
					"internalType": "bytes32",
					"name": "",
					"type": "bytes32"
				}
			],
			"stateMutability": "view",
			"type": "function"
		},
		{
			"inputs": [
				{
					"internalType": "bytes",
					"name": "seal",
					"type": "bytes"
				},
				{
					"internalType": "bytes",
					"name": "journal",
					"type": "bytes"
				}
			],
			"name": "bridgeWithVerification",
			"outputs": [],
			"stateMutability": "nonpayable",
			"type": "function"
		},
		{
			"inputs": [
				{
					"internalType": "bytes",
					"name": "seal",
					"type": "bytes"
				},
				{
					"internalType": "bytes",
					"name": "journal",
					"type": "bytes"
				},
				{
					"internalType": "bytes",
					"name": "journal2",
					"type": "bytes"
				}
			],
			"name": "bridgeWithVerificationDebug",
			"outputs": [],
			"stateMutability": "nonpayable",
			"type": "function"
		},
		{
			"inputs": [
				{
					"internalType": "uint256",
					"name": "nonce",
					"type": "uint256"
				}
			],
			"name": "claim",
			"outputs": [],
			"stateMutability": "nonpayable",
			"type": "function"
		},
		{
			"inputs": [],
			"name": "getInwardNonceCount",
			"outputs": [
				{
					"internalType": "uint256",
					"name": "",
					"type": "uint256"
				}
			],
			"stateMutability": "view",
			"type": "function"
		},
		{
			"inputs": [
				{
					"internalType": "uint256",
					"name": "",
					"type": "uint256"
				}
			],
			"name": "inwardClaims",
			"outputs": [
				{
					"internalType": "bool",
					"name": "claimed",
					"type": "bool"
				},
				{
					"internalType": "bool",
					"name": "processed",
					"type": "bool"
				},
				{
					"internalType": "uint256",
					"name": "amount",
					"type": "uint256"
				},
				{
					"internalType": "address",
					"name": "beneficiary",
					"type": "address"
				}
			],
			"stateMutability": "view",
			"type": "function"
		},
		{
			"inputs": [],
			"name": "lastFinalizedHash",
			"outputs": [
				{
					"internalType": "bytes32",
					"name": "",
					"type": "bytes32"
				}
			],
			"stateMutability": "view",
			"type": "function"
		},
		{
			"inputs": [],
			"name": "lastInwardNonce",
			"outputs": [
				{
					"internalType": "uint256",
					"name": "",
					"type": "uint256"
				}
			],
			"stateMutability": "view",
			"type": "function"
		},
		{
			"inputs": [],
			"name": "outwardNonce",
			"outputs": [
				{
					"internalType": "uint64",
					"name": "",
					"type": "uint64"
				}
			],
			"stateMutability": "view",
			"type": "function"
		},
		{
			"inputs": [
				{
					"internalType": "uint256",
					"name": "",
					"type": "uint256"
				}
			],
			"name": "outwardTransfers",
			"outputs": [
				{
					"internalType": "bool",
					"name": "claimed",
					"type": "bool"
				},
				{
					"internalType": "bool",
					"name": "processed",
					"type": "bool"
				},
				{
					"internalType": "uint256",
					"name": "amount",
					"type": "uint256"
				},
				{
					"internalType": "address",
					"name": "beneficiary",
					"type": "address"
				}
			],
			"stateMutability": "view",
			"type": "function"
		},
		{
			"inputs": [],
			"name": "owner",
			"outputs": [
				{
					"internalType": "address",
					"name": "",
					"type": "address"
				}
			],
			"stateMutability": "view",
			"type": "function"
		},
		{
			"inputs": [],
			"name": "qToken",
			"outputs": [
				{
					"internalType": "contract QTOVToken",
					"name": "",
					"type": "address"
				}
			],
			"stateMutability": "view",
			"type": "function"
		},
		{
			"inputs": [],
			"name": "renounceOwnership",
			"outputs": [],
			"stateMutability": "nonpayable",
			"type": "function"
		},
		{
			"inputs": [
				{
					"internalType": "bytes32",
					"name": "_imageId",
					"type": "bytes32"
				}
			],
			"name": "setImageId",
			"outputs": [],
			"stateMutability": "nonpayable",
			"type": "function"
		},
		{
			"inputs": [
				{
					"internalType": "bytes32",
					"name": "_hash",
					"type": "bytes32"
				}
			],
			"name": "setLastFinalizedHash",
			"outputs": [],
			"stateMutability": "nonpayable",
			"type": "function"
		},
		{
			"inputs": [
				{
					"internalType": "address",
					"name": "newToken",
					"type": "address"
				}
			],
			"name": "setTokenContract",
			"outputs": [],
			"stateMutability": "nonpayable",
			"type": "function"
		},
		{
			"inputs": [
				{
					"internalType": "address",
					"name": "newVerifier",
					"type": "address"
				}
			],
			"name": "setVerifier",
			"outputs": [],
			"stateMutability": "nonpayable",
			"type": "function"
		},
		{
			"inputs": [
				{
					"internalType": "address",
					"name": "beneficiary",
					"type": "address"
				},
				{
					"internalType": "uint256",
					"name": "amount",
					"type": "uint256"
				}
			],
			"name": "transferOut",
			"outputs": [],
			"stateMutability": "nonpayable",
			"type": "function"
		},
		{
			"inputs": [
				{
					"internalType": "address",
					"name": "newOwner",
					"type": "address"
				}
			],
			"name": "transferOwnership",
			"outputs": [],
			"stateMutability": "nonpayable",
			"type": "function"
		},
		{
			"inputs": [],
			"name": "verifierRouter",
			"outputs": [
				{
					"internalType": "contract RiscZeroVerifierRouter",
					"name": "",
					"type": "address"
				}
			],
			"stateMutability": "view",
			"type": "function"
		}
	]
}