{
	"data": {
		"bytecode": {
			"linkReferences": {},
			"object": "61011f61004e600b8282823980515f1a607314610042577f4e487b71000000000000000000000000000000000000000000000000000000005f525f60045260245ffd5b305f52607381538281f3fe7300000000000000000000000000000000000000003014608060405260043610603c575f3560e01c8063258038e2146040578063d3f4ed9114605a575b5f80fd5b60466074565b6040516051919060d2565b60405180910390f35b60606098565b604051606b919060d2565b60405180910390f35b7f04446e66d300eb7fb45c9726bb53c793dda407a62e9601618bb43c5c14657ac081565b7f8cdad9242664be3112aba377c5425a4df735eb1c6966472b561d2855932c046981565b5f819050919050565b60cc8160bc565b82525050565b5f60208201905060e35f83018460c5565b9291505056fea26469706673582212201b09149fcf6cb42eedcb30f8daf99e17cab4eea23a5004b1b4e2685932551d5464736f6c63430008140033",
			"opcodes": "PUSH2 0x11F PUSH2 0x4E PUSH1 0xB DUP3 DUP3 DUP3 CODECOPY DUP1 MLOAD PUSH0 BYTE PUSH1 0x73 EQ PUSH2 0x42 JUMPI PUSH32 0x4E487B7100000000000000000000000000000000000000000000000000000000 PUSH0 MSTORE PUSH0 PUSH1 0x4 MSTORE PUSH1 0x24 PUSH0 REVERT JUMPDEST ADDRESS PUSH0 MSTORE PUSH1 0x73 DUP2 MSTORE8 DUP3 DUP2 RETURN INVALID PUSH20 0x0 ADDRESS EQ PUSH1 0x80 PUSH1 0x40 MSTORE PUSH1 0x4 CALLDATASIZE LT PUSH1 0x3C JUMPI PUSH0 CALLDATALOAD PUSH1 0xE0 SHR DUP1 PUSH4 0x258038E2 EQ PUSH1 0x40 JUMPI DUP1 PUSH4 0xD3F4ED91 EQ PUSH1 0x5A JUMPI JUMPDEST PUSH0 DUP1 REVERT JUMPDEST PUSH1 0x46 PUSH1 0x74 JUMP JUMPDEST PUSH1 0x40 MLOAD PUSH1 0x51 SWAP2 SWAP1 PUSH1 0xD2 JUMP JUMPDEST PUSH1 0x40 MLOAD DUP1 SWAP2 SUB SWAP1 RETURN JUMPDEST PUSH1 0x60 PUSH1 0x98 JUMP JUMPDEST PUSH1 0x40 MLOAD PUSH1 0x6B SWAP2 SWAP1 PUSH1 0xD2 JUMP JUMPDEST PUSH1 0x40 MLOAD DUP1 SWAP2 SUB SWAP1 RETURN JUMPDEST PUSH32 0x4446E66D300EB7FB45C9726BB53C793DDA407A62E9601618BB43C5C14657AC0 DUP2 JUMP JUMPDEST PUSH32 0x8CDAD9242664BE3112ABA377C5425A4DF735EB1C6966472B561D2855932C0469 DUP2 JUMP JUMPDEST PUSH0 DUP2 SWAP1 POP SWAP2 SWAP1 POP JUMP JUMPDEST PUSH1 0xCC DUP2 PUSH1 0xBC JUMP JUMPDEST DUP3 MSTORE POP POP JUMP JUMPDEST PUSH0 PUSH1 0x20 DUP3 ADD SWAP1 POP PUSH1 0xE3 PUSH0 DUP4 ADD DUP5 PUSH1 0xC5 JUMP JUMPDEST SWAP3 SWAP2 POP POP JUMP INVALID LOG2 PUSH5 0x6970667358 0x22 SLT KECCAK256 SHL MULMOD EQ SWAP16 0xCF PUSH13 0xB42EEDCB30F8DAF99E17CAB4EE LOG2 GASPRICE POP DIV 0xB1 0xB4 0xE2 PUSH9 0x5932551D5464736F6C PUSH4 0x43000814 STOP CALLER "
		},
		"gasEstimates": {
			"creation": {
				"codeDepositCost": "57400",
				"executionCost": "131",
				"totalCost": "57531"
			},
			"external": {
				"BN254_CONTROL_ID()": "287",
				"CONTROL_ROOT()": "309"
			}
		},
		"methodIdentifiers": {
			"BN254_CONTROL_ID()": "258038e2",
			"CONTROL_ROOT()": "d3f4ed91"
		}
	},
	"abi": [
		{
			"inputs": [],
			"name": "BN254_CONTROL_ID",
			"outputs": [
				{
					"internalType": "bytes32",
					"name": "",
					"type": "bytes32"
				}
			],
			"stateMutability": "view",
			"type": "function"
		},
		{
			"inputs": [],
			"name": "CONTROL_ROOT",
			"outputs": [
				{
					"internalType": "bytes32",
					"name": "",
					"type": "bytes32"
				}
			],
			"stateMutability": "view",
			"type": "function"
		}
	]
}