{
	"data": {
		"bytecode": {
			"linkReferences": {},
			"object": "61010060405234801562000011575f80fd5b50604051620035c0380380620035c083398181016040528101906200003791906200109d565b6200004882620001ee60201b60201c565b806fffffffffffffffffffffffffffffffff191660a0906fffffffffffffffffffffffffffffffff1916815250816fffffffffffffffffffffffffffffffff19166080906fffffffffffffffffffffffffffffffff191681525050508060c08181525050600280604051620000bd9062001160565b602060405180830381855afa158015620000d9573d5f803e3d5ffd5b5050506040513d601f19601f82011682018060405250810190620000fe919062001176565b8362000112845f1c6200021c60201b60201c565b620001226200036760201b60201c565b6008600361ffff16901b604051602001620001429594939291906200123e565b60405160208183030381529060405260405162000160919062001310565b602060405180830381855afa1580156200017c573d5f803e3d5ffd5b5050506040513d601f19601f82011682018060405250810190620001a1919062001176565b7bffffffffffffffffffffffffffffffffffffffffffffffffffffffff191660e0817bffffffffffffffffffffffffffffffffffffffffffffffffffffffff1916815250505050620017fe565b5f805f62000204845f1c6200021c60201b60201c565b90508060801b608082901c60801b9250925050915091565b5f81905060087eff00ff00ff00ff00ff00ff00ff00ff00ff00ff00ff00ff00ff00ff00ff00ff8216901b60087fff00ff00ff00ff00ff00ff00ff00ff00ff00ff00ff00ff00ff00ff00ff00ff008316901c17905060107dffff0000ffff0000ffff0000ffff0000ffff0000ffff0000ffff0000ffff8216901b60107fffff0000ffff0000ffff0000ffff0000ffff0000ffff0000ffff0000ffff00008316901c17905060207bffffffff00000000ffffffff00000000ffffffff00000000ffffffff8216901b60207fffffffff00000000ffffffff00000000ffffffff00000000ffffffff000000008316901c179050604077ffffffffffffffff0000000000000000ffffffffffffffff8216901b60407fffffffffffffffff0000000000000000ffffffffffffffff00000000000000008316901c179050608081901b608082901c179050919050565b5f80600667ffffffffffffffff81111562000387576200038662001328565b5b604051908082528060200260200182016040528015620003b65781602001602082028036833780820191505090505b50905060027f12ac9a25dcd5e1a832a9061a082c15dd1d61aa9c4d553505739d0f5d65dc3be47f025aa744581ebe7ad91731911c898569106ff5a2d30f3eee2b23c60ee980acd46040516020016200041092919062001355565b6040516020818303038152906040526040516200042e919062001310565b602060405180830381855afa1580156200044a573d5f803e3d5ffd5b5050506040513d601f19601f820116820180604052508101906200046f919062001176565b815f8151811062000485576200048462001384565b5b60200260200101818152505060027f0707b920bc978c02f292fae2036e057be54294114ccc3c8769d883f688a1423f7f2e32a094b7589554f7bc357bf63481acd2d55555c203383782a4650787ff6642604051602001620004e892919062001355565b60405160208183030381529060405260405162000506919062001310565b602060405180830381855afa15801562000522573d5f803e3d5ffd5b5050506040513d601f19601f8201168201806040525081019062000547919062001176565b816001815181106200055e576200055d62001384565b5b60200260200101818152505060027f0bca36e2cbe6394b3e249751853f961511011c7148e336f4fd974644850fc3477f2ede7c9acf48cf3a3729fa3d68714e2a8435d4fa6db8f7f409c153b1fcdf9b8b604051602001620005c192919062001355565b604051602081830303815290604052604051620005df919062001310565b602060405180830381855afa158015620005fb573d5f803e3d5ffd5b5050506040513d601f19601f8201168201806040525081019062000620919062001176565b8160028151811062000637576200063662001384565b5b60200260200101818152505060027f1b8af999dbfbb3927c091cc2aaf201e488cbacc3e2c6b6fb5a25f9112e04f2a77f2b91a26aa92e1b6f5722949f192a81c850d586d81a60157f3e9cf04f679cccd66040516020016200069a92919062001355565b604051602081830303815290604052604051620006b8919062001310565b602060405180830381855afa158015620006d4573d5f803e3d5ffd5b5050506040513d601f19601f82011682018060405250810190620006f9919062001176565b8160038151811062000710576200070f62001384565b5b60200260200101818152505060027f2b5f494ed674235b8ac1750bdfd5a7615f002d4a1dcefeddd06eda5a076ccd0d7f2fe520ad2020aab9cbba817fcbb9a863b8a76ff88f14f912c5e71665b2ad5e826040516020016200077392919062001355565b60405160208183030381529060405260405162000791919062001310565b602060405180830381855afa158015620007ad573d5f803e3d5ffd5b5050506040513d601f19601f82011682018060405250810190620007d2919062001176565b81600481518110620007e957620007e862001384565b5b60200260200101818152505060027f0f1c3c0d5d9da0fa03666843cde4e82e869ba5252fce3c25d5940320b1c4d4937f214bfcff74f425f6fe8c0d07b307482d8bc8bb2f3608f68287aa01bd0b69e8096040516020016200084c92919062001355565b6040516020818303038152906040526040516200086a919062001310565b602060405180830381855afa15801562000886573d5f803e3d5ffd5b5050506040513d601f19601f82011682018060405250810190620008ab919062001176565b81600581518110620008c257620008c162001384565b5b602002602001018181525050600280604051620008df90620013ff565b602060405180830381855afa158015620008fb573d5f803e3d5ffd5b5050506040513d601f19601f8201168201806040525081019062000920919062001176565b60027f2d4d9aa7e302d9df41749d5507949d05dbea33fbb16c643b22f599a2be6df2e27f14bedd503c37ceb061d8ec60209fe345ce89830a19230301f076caff004d19266040516020016200097792919062001355565b60405160208183030381529060405260405162000995919062001310565b602060405180830381855afa158015620009b1573d5f803e3d5ffd5b5050506040513d601f19601f82011682018060405250810190620009d6919062001176565b60027f0967032fcbf776d1afc985f88877f182d38480a653f2decaa9794cbc3bf3060c7f0e187847ad4c798374d0d6732bf501847dd68bc0e071241e0213bc7fc13db7ab7f304cfbd1e08a704a99f5e847d93f8c3caafddec46b7a0d379da69a4d112346a77f1739c1b1a457a8c7313123d24d2f9192f896b7c63eea05a9d57f06547ad0cec860405160200162000a71949392919062001415565b60405160208183030381529060405260405162000a8f919062001310565b602060405180830381855afa15801562000aab573d5f803e3d5ffd5b5050506040513d601f19601f8201168201806040525081019062000ad0919062001176565b60027f198e9393920d483a7260bfb731fb5d25f1aa493335a9e71297e485b7aef312c27f1800deef121f1e76426a00665e5c4479674322d4f75edadd46debd5cd992f6ed7f090689d0585ff075ec9e99ad690c3395bc4b313370b38ef355acdadcd122975b7f12c85ea5db8c6deb4aab71808dcb408fe3d1e7690c43d37b4ce6cc0166fa7daa60405160200162000b6b949392919062001415565b60405160208183030381529060405260405162000b89919062001310565b602060405180830381855afa15801562000ba5573d5f803e3d5ffd5b5050506040513d601f19601f8201168201806040525081019062000bca919062001176565b60027f03b03cd5effa95ac9bee94f1f5ef907157bda4812ccf0b4c91f42bb629f83a1c7f1aa085ff28179a12d922dba0547057ccaae94b9d69cfaa4e60401fea7f3e03337f110c10134f200b19f6490846d518c9aea868366efb7228ca5c91d2940d0307627f1e60f31fcbf757e837e867178318832d0b2d74d59e2fea1c7142df187d3fc6d360405160200162000c65949392919062001415565b60405160208183030381529060405260405162000c83919062001310565b602060405180830381855afa15801562000c9f573d5f803e3d5ffd5b5050506040513d601f19601f8201168201806040525081019062000cc4919062001176565b62000d26600260405162000cd890620014b8565b602060405180830381855afa15801562000cf4573d5f803e3d5ffd5b5050506040513d601f19601f8201168201806040525081019062000d19919062001176565b8862000dad60201b60201c565b6008600561ffff16901b60405160200162000d489796959493929190620014ce565b60405160208183030381529060405260405162000d66919062001310565b602060405180830381855afa15801562000d82573d5f803e3d5ffd5b5050506040513d601f19601f8201168201806040525081019062000da7919062001176565b91505090565b5f805f801b90505f5b835181101562000e245762000e0c8585836001885162000dd7919062001589565b62000de3919062001589565b8151811062000df75762000df662001384565b5b60200260200101518462000e2f60201b60201c565b9150808062000e1b90620015c3565b91505062000db6565b508091505092915050565b5f80600267ffffffffffffffff81111562000e4f5762000e4e62001328565b5b60405190808252806020026020018201604052801562000e7e5781602001602082028036833780820191505090505b50905083815f8151811062000e985762000e9762001384565b5b602002602001018181525050828160018151811062000ebc5762000ebb62001384565b5b60200260200101818152505062000eda858262000ee460201b60201c565b9150509392505050565b5f805f67ffffffffffffffff81111562000f035762000f0262001328565b5b6040519080825280601f01601f19166020018201604052801562000f365781602001600182028036833780820191505090505b50905062000f4c84848362000f5560201b60201c565b91505092915050565b5f8062000f6984516200100960201b60201c565b90505f60088261ffff16901c60088361ffff16901b1760f01b905060028686868460405160200162000f9f94939291906200171f565b60405160208183030381529060405260405162000fbd919062001310565b602060405180830381855afa15801562000fd9573d5f803e3d5ffd5b5050506040513d601f19601f8201168201806040525081019062000ffe919062001176565b925050509392505050565b5f61ffff801682111562001059576010826040517f6dfcc65000000000000000000000000000000000000000000000000000000000815260040162001050929190620017d3565b60405180910390fd5b819050919050565b5f80fd5b5f819050919050565b620010798162001065565b811462001084575f80fd5b50565b5f8151905062001097816200106e565b92915050565b5f8060408385031215620010b657620010b562001061565b5b5f620010c58582860162001087565b9250506020620010d88582860162001087565b9150509250929050565b5f81905092915050565b7f72697363302e47726f74683136526563656970745665726966696572506172615f8201527f6d65746572730000000000000000000000000000000000000000000000000000602082015250565b5f62001148602683620010e2565b91506200115582620010ec565b602682019050919050565b5f6200116c826200113a565b9150819050919050565b5f602082840312156200118e576200118d62001061565b5b5f6200119d8482850162001087565b91505092915050565b5f819050919050565b620011c4620011be8262001065565b620011a6565b82525050565b5f819050919050565b5f819050919050565b620011f1620011eb82620011ca565b620011d3565b82525050565b5f61ffff82169050919050565b5f8160f01b9050919050565b5f6200121c8262001204565b9050919050565b620012386200123282620011f7565b62001210565b82525050565b5f6200124b8288620011af565b6020820191506200125d8287620011af565b6020820191506200126f8286620011dc565b602082019150620012818285620011af565b60208201915062001293828462001223565b6002820191508190509695505050505050565b5f81519050919050565b5f5b83811015620012cf578082015181840152602081019050620012b2565b5f8484015250505050565b5f620012e682620012a6565b620012f28185620010e2565b935062001304818560208601620012b0565b80840191505092915050565b5f6200131d8284620012da565b915081905092915050565b7f4e487b71000000000000000000000000000000000000000000000000000000005f52604160045260245ffd5b5f620013628285620011dc565b602082019150620013748284620011dc565b6020820191508190509392505050565b7f4e487b71000000000000000000000000000000000000000000000000000000005f52603260045260245ffd5b7f72697363305f67726f746831362e566572696679696e674b65790000000000005f82015250565b5f620013e7601a83620010e2565b9150620013f482620013b1565b601a82019050919050565b5f6200140b82620013d9565b9150819050919050565b5f620014228287620011dc565b602082019150620014348286620011dc565b602082019150620014468285620011dc565b602082019150620014588284620011dc565b60208201915081905095945050505050565b7f72697363305f67726f746831362e566572696679696e674b65792e49430000005f82015250565b5f620014a0601d83620010e2565b9150620014ad826200146a565b601d82019050919050565b5f620014c48262001492565b9150819050919050565b5f620014db828a620011af565b602082019150620014ed8289620011af565b602082019150620014ff8288620011af565b602082019150620015118287620011af565b602082019150620015238286620011af565b602082019150620015358285620011af565b60208201915062001547828462001223565b60028201915081905098975050505050505050565b7f4e487b71000000000000000000000000000000000000000000000000000000005f52601160045260245ffd5b5f6200159582620011ca565b9150620015a283620011ca565b9250828203905081811115620015bd57620015bc6200155c565b5b92915050565b5f620015cf82620011ca565b91507fffffffffffffffffffffffffffffffffffffffffffffffffffffffffffffffff82036200160457620016036200155c565b5b600182019050919050565b5f81519050919050565b5f81905092915050565b5f819050602082019050919050565b6200163d8162001065565b82525050565b5f62001650838362001632565b60208301905092915050565b5f602082019050919050565b5f62001674826200160f565b62001680818562001619565b93506200168d8362001623565b805f5b83811015620016c3578151620016a7888262001643565b9750620016b4836200165c565b92505060018101905062001690565b5085935050505092915050565b5f7fffff00000000000000000000000000000000000000000000000000000000000082169050919050565b5f819050919050565b620017196200171382620016d0565b620016fb565b82525050565b5f6200172c8287620011af565b6020820191506200173e828662001668565b91506200174c8285620012da565b91506200175a828462001704565b60028201915081905095945050505050565b5f819050919050565b5f60ff82169050919050565b5f819050919050565b5f620017aa620017a46200179e846200176c565b62001781565b62001775565b9050919050565b620017bc816200178a565b82525050565b620017cd81620011ca565b82525050565b5f604082019050620017e85f830185620017b1565b620017f76020830184620017c2565b9392505050565b60805160a05160c05160e051611d6b620018555f395f818161018a0152818161089e015261090101525f81816101cd0152610a7301525f81816107be0152610a0201525f81816107e201526109c70152611d6b5ff3fe608060405234801561000f575f80fd5b5060043610610086575f3560e01c80638989fa2e116100595780638989fa2e146101125780639181e4b114610130578063ab750e751461014e578063ffa1ad741461016a57610086565b8063053c238d1461008a5780631599ead5146100a8578063258038e2146100c457806334baeab9146100e2575b5f80fd5b610092610188565b60405161009f9190610fe0565b60405180910390f35b6100c260048036038101906100bd919061102c565b6101ac565b005b6100cc6101cb565b6040516100d9919061108b565b60405180910390f35b6100fc60048036038101906100f7919061110b565b6101ef565b604051610109919061118b565b60405180910390f35b61011a6107bc565b60405161012791906111de565b60405180910390f35b6101386107e0565b60405161014591906111de565b60405180910390f35b6101686004803603810190610163919061127e565b610804565b005b610172610826565b60405161017f9190611379565b60405180910390f35b7f000000000000000000000000000000000000000000000000000000000000000081565b6101c881805f01906101be91906113a5565b836020013561085f565b50565b7f000000000000000000000000000000000000000000000000000000000000000081565b5f61074f565b7f30644e72e131a029b85045b68181585d2833e84879b9709143e1f593f00000018110610224575f805260205ff35b50565b5f60405183815284602082015285604082015260408160608360076107d05a03fa915081610257575f805260205ff35b825160408201526020830151606082015260408360808360066107d05a03fa915081610285575f805260205ff35b505050505050565b5f608086015f87017f12ac9a25dcd5e1a832a9061a082c15dd1d61aa9c4d553505739d0f5d65dc3be481527f025aa744581ebe7ad91731911c898569106ff5a2d30f3eee2b23c60ee980acd4602082015261032d5f8801357f2e32a094b7589554f7bc357bf63481acd2d55555c203383782a4650787ff66427f0707b920bc978c02f292fae2036e057be54294114ccc3c8769d883f688a1423f84610227565b61037d60208801357f2ede7c9acf48cf3a3729fa3d68714e2a8435d4fa6db8f7f409c153b1fcdf9b8b7f0bca36e2cbe6394b3e249751853f961511011c7148e336f4fd974644850fc34784610227565b6103cd60408801357f2b91a26aa92e1b6f5722949f192a81c850d586d81a60157f3e9cf04f679cccd67f1b8af999dbfbb3927c091cc2aaf201e488cbacc3e2c6b6fb5a25f9112e04f2a784610227565b61041d60608801357f2fe520ad2020aab9cbba817fcbb9a863b8a76ff88f14f912c5e71665b2ad5e827f2b5f494ed674235b8ac1750bdfd5a7615f002d4a1dcefeddd06eda5a076ccd0d84610227565b61046d60808801357f214bfcff74f425f6fe8c0d07b307482d8bc8bb2f3608f68287aa01bd0b69e8097f0f1c3c0d5d9da0fa03666843cde4e82e869ba5252fce3c25d5940320b1c4d49384610227565b833582527f30644e72e131a029b85045b68181585d97816a916871ca8d3c208c16d87cfd4760208501357f30644e72e131a029b85045b68181585d97816a916871ca8d3c208c16d87cfd4703066020830152843560408301526020850135606083015260408501356080830152606085013560a08301527f2d4d9aa7e302d9df41749d5507949d05dbea33fbb16c643b22f599a2be6df2e260c08301527f14bedd503c37ceb061d8ec60209fe345ce89830a19230301f076caff004d192660e08301527f0967032fcbf776d1afc985f88877f182d38480a653f2decaa9794cbc3bf3060c6101008301527f0e187847ad4c798374d0d6732bf501847dd68bc0e071241e0213bc7fc13db7ab6101208301527f304cfbd1e08a704a99f5e847d93f8c3caafddec46b7a0d379da69a4d112346a76101408301527f1739c1b1a457a8c7313123d24d2f9192f896b7c63eea05a9d57f06547ad0cec86101608301525f88015161018083015260205f018801516101a08301527f198e9393920d483a7260bfb731fb5d25f1aa493335a9e71297e485b7aef312c26101c08301527f1800deef121f1e76426a00665e5c4479674322d4f75edadd46debd5cd992f6ed6101e08301527f090689d0585ff075ec9e99ad690c3395bc4b313370b38ef355acdadcd122975b6102008301527f12c85ea5db8c6deb4aab71808dcb408fe3d1e7690c43d37b4ce6cc0166fa7daa610220830152853561024083015260208601356102608301527f03b03cd5effa95ac9bee94f1f5ef907157bda4812ccf0b4c91f42bb629f83a1c6102808301527f1aa085ff28179a12d922dba0547057ccaae94b9d69cfaa4e60401fea7f3e03336102a08301527f110c10134f200b19f6490846d518c9aea868366efb7228ca5c91d2940d0307626102c08301527f1e60f31fcbf757e837e867178318832d0b2d74d59e2fea1c7142df187d3fc6d36102e08301526020826103008460086107d05a03fa82518116935050505095945050505050565b60405161038081016040526107665f8401356101f5565b61077360208401356101f5565b61078060408401356101f5565b61078d60608401356101f5565b61079a60808401356101f5565b6107a760a08401356101f5565b6107b4818486888a61028d565b805f5260205ff35b7f000000000000000000000000000000000000000000000000000000000000000081565b7f000000000000000000000000000000000000000000000000000000000000000081565b610820848461081b6108168686610b37565b610bd9565b61085f565b50505050565b6040518060400160405280600581526020017f312e322e3000000000000000000000000000000000000000000000000000000081525081565b82825f906004926108729392919061140f565b9061087d919061145f565b7bffffffffffffffffffffffffffffffffffffffffffffffffffffffff19167f00000000000000000000000000000000000000000000000000000000000000007bffffffffffffffffffffffffffffffffffffffffffffffffffffffff19161461095d5782825f906004926108f49392919061140f565b906108ff919061145f565b7f00000000000000000000000000000000000000000000000000000000000000006040517fb8b38d4c0000000000000000000000000000000000000000000000000000000081526004016109549291906114bd565b60405180910390fd5b5f8061096883610cf6565b915091505f858560049080926109809392919061140f565b81019061098d9190611751565b90505f3073ffffffffffffffffffffffffffffffffffffffff166334baeab9835f0151846020015185604001516040518060a001604052807f000000000000000000000000000000000000000000000000000000000000000060801c6fffffffffffffffffffffffffffffffff1681526020017f000000000000000000000000000000000000000000000000000000000000000060801c6fffffffffffffffffffffffffffffffff1681526020018a60801c6fffffffffffffffffffffffffffffffff1681526020018960801c6fffffffffffffffffffffffffffffffff1681526020017f00000000000000000000000000000000000000000000000000000000000000005f1c8152506040518563ffffffff1660e01b8152600401610ab69493929190611997565b602060405180830381865afa158015610ad1573d5f803e3d5ffd5b505050506040513d601f19601f82011682018060405250810190610af59190611a06565b905080610b2e576040517f439cc0cd00000000000000000000000000000000000000000000000000000000815260040160405180910390fd5b50505050505050565b610b3f610f3c565b6040518060a001604052808481526020017fa3acc27117418996340b84e5a90f3ef4c49d22c79e44aad822ec9c313e1eb8e25f1b815260200160405180604001604052805f6002811115610b9657610b95611a31565b5b81526020015f60ff1681525081526020015f801b8152602001610bce60405180604001604052808681526020015f801b815250610d1c565b815250905092915050565b5f600280604051610be990611ab2565b602060405180830381855afa158015610c04573d5f803e3d5ffd5b5050506040513d601f19601f82011682018060405250810190610c279190611ada565b8360600151845f015185602001518660800151601888604001515f01516002811115610c5657610c55611a31565b5b63ffffffff16901b601889604001516020015160ff1663ffffffff16901b6008600461ffff16901b604051602001610c95989796959493929190611ba9565b604051602081830303815290604052604051610cb19190611c74565b602060405180830381855afa158015610ccc573d5f803e3d5ffd5b5050506040513d601f19601f82011682018060405250810190610cef9190611ada565b9050919050565b5f805f610d04845f1c610df1565b90508060801b608082901c60801b9250925050915091565b5f600280604051610d2c90611cd4565b602060405180830381855afa158015610d47573d5f803e3d5ffd5b5050506040513d601f19601f82011682018060405250810190610d6a9190611ada565b835f015184602001516008600261ffff16901b604051602001610d909493929190611ce8565b604051602081830303815290604052604051610dac9190611c74565b602060405180830381855afa158015610dc7573d5f803e3d5ffd5b5050506040513d601f19601f82011682018060405250810190610dea9190611ada565b9050919050565b5f81905060087eff00ff00ff00ff00ff00ff00ff00ff00ff00ff00ff00ff00ff00ff00ff00ff8216901b60087fff00ff00ff00ff00ff00ff00ff00ff00ff00ff00ff00ff00ff00ff00ff00ff008316901c17905060107dffff0000ffff0000ffff0000ffff0000ffff0000ffff0000ffff0000ffff8216901b60107fffff0000ffff0000ffff0000ffff0000ffff0000ffff0000ffff0000ffff00008316901c17905060207bffffffff00000000ffffffff00000000ffffffff00000000ffffffff8216901b60207fffffffff00000000ffffffff00000000ffffffff00000000ffffffff000000008316901c179050604077ffffffffffffffff0000000000000000ffffffffffffffff8216901b60407fffffffffffffffff0000000000000000ffffffffffffffff00000000000000008316901c179050608081901b608082901c179050919050565b6040518060a001604052805f80191681526020015f8019168152602001610f61610f79565b81526020015f80191681526020015f80191681525090565b60405180604001604052805f6002811115610f9757610f96611a31565b5b81526020015f60ff1681525090565b5f7fffffffff0000000000000000000000000000000000000000000000000000000082169050919050565b610fda81610fa6565b82525050565b5f602082019050610ff35f830184610fd1565b92915050565b5f604051905090565b5f80fd5b5f80fd5b5f80fd5b5f604082840312156110235761102261100a565b5b81905092915050565b5f6020828403121561104157611040611002565b5b5f82013567ffffffffffffffff81111561105e5761105d611006565b5b61106a8482850161100e565b91505092915050565b5f819050919050565b61108581611073565b82525050565b5f60208201905061109e5f83018461107c565b92915050565b5f80fd5b5f819050826020600202820111156110c3576110c26110a4565b5b92915050565b5f819050826040600202820111156110e4576110e36110a4565b5b92915050565b5f81905082602060050282011115611105576111046110a4565b5b92915050565b5f805f806101a0858703121561112457611123611002565b5b5f611131878288016110a8565b9450506040611142878288016110c9565b93505060c0611153878288016110a8565b925050610100611165878288016110ea565b91505092959194509250565b5f8115159050919050565b61118581611171565b82525050565b5f60208201905061119e5f83018461117c565b92915050565b5f7fffffffffffffffffffffffffffffffff0000000000000000000000000000000082169050919050565b6111d8816111a4565b82525050565b5f6020820190506111f15f8301846111cf565b92915050565b5f80fd5b5f80fd5b5f8083601f840112611214576112136111f7565b5b8235905067ffffffffffffffff811115611231576112306111fb565b5b60208301915083600182028301111561124d5761124c6110a4565b5b9250929050565b61125d81611073565b8114611267575f80fd5b50565b5f8135905061127881611254565b92915050565b5f805f806060858703121561129657611295611002565b5b5f85013567ffffffffffffffff8111156112b3576112b2611006565b5b6112bf878288016111ff565b945094505060206112d28782880161126a565b92505060406112e38782880161126a565b91505092959194509250565b5f81519050919050565b5f82825260208201905092915050565b5f5b8381101561132657808201518184015260208101905061130b565b5f8484015250505050565b5f601f19601f8301169050919050565b5f61134b826112ef565b61135581856112f9565b9350611365818560208601611309565b61136e81611331565b840191505092915050565b5f6020820190508181035f8301526113918184611341565b905092915050565b5f80fd5b5f80fd5b5f80fd5b5f80833560016020038436030381126113c1576113c0611399565b5b80840192508235915067ffffffffffffffff8211156113e3576113e261139d565b5b6020830192506001820236038313156113ff576113fe6113a1565b5b509250929050565b5f80fd5b5f80fd5b5f808585111561142257611421611407565b5b838611156114335761143261140b565b5b6001850283019150848603905094509492505050565b5f82905092915050565b5f82821b905092915050565b5f61146a8383611449565b826114758135610fa6565b925060048210156114b5576114b07fffffffff0000000000000000000000000000000000000000000000000000000083600403600802611453565b831692505b505092915050565b5f6040820190506114d05f830185610fd1565b6114dd6020830184610fd1565b9392505050565b5f80fd5b7f4e487b71000000000000000000000000000000000000000000000000000000005f52604160045260245ffd5b61151e82611331565b810181811067ffffffffffffffff8211171561153d5761153c6114e8565b5b80604052505050565b5f61154f610ff9565b905061155b8282611515565b919050565b5f67ffffffffffffffff82111561157a576115796114e8565b5b602082029050919050565b5f819050919050565b61159781611585565b81146115a1575f80fd5b50565b5f813590506115b28161158e565b92915050565b5f6115ca6115c584611560565b611546565b905080602084028301858111156115e4576115e36110a4565b5b835b8181101561160d57806115f988826115a4565b8452602084019350506020810190506115e6565b5050509392505050565b5f82601f83011261162b5761162a6111f7565b5b60026116388482856115b8565b91505092915050565b5f67ffffffffffffffff82111561165b5761165a6114e8565b5b602082029050919050565b5f61167861167384611641565b611546565b90508060408402830185811115611692576116916110a4565b5b835b818110156116bb57806116a78882611617565b845260208401935050604081019050611694565b5050509392505050565b5f82601f8301126116d9576116d86111f7565b5b60026116e6848285611666565b91505092915050565b5f6101008284031215611705576117046114e4565b5b61170f6060611546565b90505f61171e84828501611617565b5f830152506040611731848285016116c5565b60208301525060c061174584828501611617565b60408301525092915050565b5f610100828403121561176757611766611002565b5b5f611774848285016116ef565b91505092915050565b5f60029050919050565b5f81905092915050565b5f819050919050565b6117a381611585565b82525050565b5f6117b4838361179a565b60208301905092915050565b5f602082019050919050565b6117d58161177d565b6117df8184611787565b92506117ea82611791565b805f5b8381101561181a57815161180187826117a9565b965061180c836117c0565b9250506001810190506117ed565b505050505050565b5f60029050919050565b5f81905092915050565b5f819050919050565b5f81905092915050565b6118528161177d565b61185c818461183f565b925061186782611791565b805f5b8381101561189757815161187e87826117a9565b9650611889836117c0565b92505060018101905061186a565b505050505050565b5f6118aa8383611849565b60408301905092915050565b5f602082019050919050565b6118cb81611822565b6118d5818461182c565b92506118e082611836565b805f5b838110156119105781516118f7878261189f565b9650611902836118b6565b9250506001810190506118e3565b505050505050565b5f60059050919050565b5f81905092915050565b5f819050919050565b5f602082019050919050565b61194a81611918565b6119548184611922565b925061195f8261192c565b805f5b8381101561198f57815161197687826117a9565b965061198183611935565b925050600181019050611962565b505050505050565b5f6101a0820190506119ab5f8301876117cc565b6119b860408301866118c2565b6119c560c08301856117cc565b6119d3610100830184611941565b95945050505050565b6119e581611171565b81146119ef575f80fd5b50565b5f81519050611a00816119dc565b92915050565b5f60208284031215611a1b57611a1a611002565b5b5f611a28848285016119f2565b91505092915050565b7f4e487b71000000000000000000000000000000000000000000000000000000005f52602160045260245ffd5b5f81905092915050565b7f72697363302e52656365697074436c61696d00000000000000000000000000005f82015250565b5f611a9c601283611a5e565b9150611aa782611a68565b601282019050919050565b5f611abc82611a90565b9150819050919050565b5f81519050611ad481611254565b92915050565b5f60208284031215611aef57611aee611002565b5b5f611afc84828501611ac6565b91505092915050565b5f819050919050565b611b1f611b1a82611073565b611b05565b82525050565b5f63ffffffff82169050919050565b5f8160e01b9050919050565b5f611b4a82611b34565b9050919050565b611b62611b5d82611b25565b611b40565b82525050565b5f61ffff82169050919050565b5f8160f01b9050919050565b5f611b8b82611b75565b9050919050565b611ba3611b9e82611b68565b611b81565b82525050565b5f611bb4828b611b0e565b602082019150611bc4828a611b0e565b602082019150611bd48289611b0e565b602082019150611be48288611b0e565b602082019150611bf48287611b0e565b602082019150611c048286611b51565b600482019150611c148285611b51565b600482019150611c248284611b92565b6002820191508190509998505050505050505050565b5f81519050919050565b5f611c4e82611c3a565b611c588185611a5e565b9350611c68818560208601611309565b80840191505092915050565b5f611c7f8284611c44565b915081905092915050565b7f72697363302e4f757470757400000000000000000000000000000000000000005f82015250565b5f611cbe600c83611a5e565b9150611cc982611c8a565b600c82019050919050565b5f611cde82611cb2565b9150819050919050565b5f611cf38287611b0e565b602082019150611d038286611b0e565b602082019150611d138285611b0e565b602082019150611d238284611b92565b6002820191508190509594505050505056fea2646970667358221220c801801b5d106f4e576670fc979ab19437ad73cb6d8b6d39b215a87402ca52db64736f6c63430008140033",
			"opcodes": "PUSH2 0x100 PUSH1 0x40 MSTORE CALLVALUE DUP1 ISZERO PUSH3 0x11 JUMPI PUSH0 DUP1 REVERT JUMPDEST POP PUSH1 0x40 MLOAD PUSH3 0x35C0 CODESIZE SUB DUP1 PUSH3 0x35C0 DUP4 CODECOPY DUP2 DUP2 ADD PUSH1 0x40 MSTORE DUP2 ADD SWAP1 PUSH3 0x37 SWAP2 SWAP1 PUSH3 0x109D JUMP JUMPDEST PUSH3 0x48 DUP3 PUSH3 0x1EE PUSH1 0x20 SHL PUSH1 0x20 SHR JUMP JUMPDEST DUP1 PUSH16 0xFFFFFFFFFFFFFFFFFFFFFFFFFFFFFFFF NOT AND PUSH1 0xA0 SWAP1 PUSH16 0xFFFFFFFFFFFFFFFFFFFFFFFFFFFFFFFF NOT AND DUP2 MSTORE POP DUP2 PUSH16 0xFFFFFFFFFFFFFFFFFFFFFFFFFFFFFFFF NOT AND PUSH1 0x80 SWAP1 PUSH16 0xFFFFFFFFFFFFFFFFFFFFFFFFFFFFFFFF NOT AND DUP2 MSTORE POP POP POP DUP1 PUSH1 0xC0 DUP2 DUP2 MSTORE POP POP PUSH1 0x2 DUP1 PUSH1 0x40 MLOAD PUSH3 0xBD SWAP1 PUSH3 0x1160 JUMP JUMPDEST PUSH1 0x20 PUSH1 0x40 MLOAD DUP1 DUP4 SUB DUP2 DUP6 GAS STATICCALL ISZERO DUP1 ISZERO PUSH3 0xD9 JUMPI RETURNDATASIZE PUSH0 DUP1 RETURNDATACOPY RETURNDATASIZE PUSH0 REVERT JUMPDEST POP POP POP PUSH1 0x40 MLOAD RETURNDATASIZE PUSH1 0x1F NOT PUSH1 0x1F DUP3 ADD AND DUP3 ADD DUP1 PUSH1 0x40 MSTORE POP DUP2 ADD SWAP1 PUSH3 0xFE SWAP2 SWAP1 PUSH3 0x1176 JUMP JUMPDEST DUP4 PUSH3 0x112 DUP5 PUSH0 SHR PUSH3 0x21C PUSH1 0x20 SHL PUSH1 0x20 SHR JUMP JUMPDEST PUSH3 0x122 PUSH3 0x367 PUSH1 0x20 SHL PUSH1 0x20 SHR JUMP JUMPDEST PUSH1 0x8 PUSH1 0x3 PUSH2 0xFFFF AND SWAP1 SHL PUSH1 0x40 MLOAD PUSH1 0x20 ADD PUSH3 0x142 SWAP6 SWAP5 SWAP4 SWAP3 SWAP2 SWAP1 PUSH3 0x123E JUMP JUMPDEST PUSH1 0x40 MLOAD PUSH1 0x20 DUP2 DUP4 SUB SUB DUP2 MSTORE SWAP1 PUSH1 0x40 MSTORE PUSH1 0x40 MLOAD PUSH3 0x160 SWAP2 SWAP1 PUSH3 0x1310 JUMP JUMPDEST PUSH1 0x20 PUSH1 0x40 MLOAD DUP1 DUP4 SUB DUP2 DUP6 GAS STATICCALL ISZERO DUP1 ISZERO PUSH3 0x17C JUMPI RETURNDATASIZE PUSH0 DUP1 RETURNDATACOPY RETURNDATASIZE PUSH0 REVERT JUMPDEST POP POP POP PUSH1 0x40 MLOAD RETURNDATASIZE PUSH1 0x1F NOT PUSH1 0x1F DUP3 ADD AND DUP3 ADD DUP1 PUSH1 0x40 MSTORE POP DUP2 ADD SWAP1 PUSH3 0x1A1 SWAP2 SWAP1 PUSH3 0x1176 JUMP JUMPDEST PUSH28 0xFFFFFFFFFFFFFFFFFFFFFFFFFFFFFFFFFFFFFFFFFFFFFFFFFFFFFFFF NOT AND PUSH1 0xE0 DUP2 PUSH28 0xFFFFFFFFFFFFFFFFFFFFFFFFFFFFFFFFFFFFFFFFFFFFFFFFFFFFFFFF NOT AND DUP2 MSTORE POP POP POP POP PUSH3 0x17FE JUMP JUMPDEST PUSH0 DUP1 PUSH0 PUSH3 0x204 DUP5 PUSH0 SHR PUSH3 0x21C PUSH1 0x20 SHL PUSH1 0x20 SHR JUMP JUMPDEST SWAP1 POP DUP1 PUSH1 0x80 SHL PUSH1 0x80 DUP3 SWAP1 SHR PUSH1 0x80 SHL SWAP3 POP SWAP3 POP POP SWAP2 POP SWAP2 JUMP JUMPDEST PUSH0 DUP2 SWAP1 POP PUSH1 0x8 PUSH31 0xFF00FF00FF00FF00FF00FF00FF00FF00FF00FF00FF00FF00FF00FF00FF00FF DUP3 AND SWAP1 SHL PUSH1 0x8 PUSH32 0xFF00FF00FF00FF00FF00FF00FF00FF00FF00FF00FF00FF00FF00FF00FF00FF00 DUP4 AND SWAP1 SHR OR SWAP1 POP PUSH1 0x10 PUSH30 0xFFFF0000FFFF0000FFFF0000FFFF0000FFFF0000FFFF0000FFFF0000FFFF DUP3 AND SWAP1 SHL PUSH1 0x10 PUSH32 0xFFFF0000FFFF0000FFFF0000FFFF0000FFFF0000FFFF0000FFFF0000FFFF0000 DUP4 AND SWAP1 SHR OR SWAP1 POP PUSH1 0x20 PUSH28 0xFFFFFFFF00000000FFFFFFFF00000000FFFFFFFF00000000FFFFFFFF DUP3 AND SWAP1 SHL PUSH1 0x20 PUSH32 0xFFFFFFFF00000000FFFFFFFF00000000FFFFFFFF00000000FFFFFFFF00000000 DUP4 AND SWAP1 SHR OR SWAP1 POP PUSH1 0x40 PUSH24 0xFFFFFFFFFFFFFFFF0000000000000000FFFFFFFFFFFFFFFF DUP3 AND SWAP1 SHL PUSH1 0x40 PUSH32 0xFFFFFFFFFFFFFFFF0000000000000000FFFFFFFFFFFFFFFF0000000000000000 DUP4 AND SWAP1 SHR OR SWAP1 POP PUSH1 0x80 DUP2 SWAP1 SHL PUSH1 0x80 DUP3 SWAP1 SHR OR SWAP1 POP SWAP2 SWAP1 POP JUMP JUMPDEST PUSH0 DUP1 PUSH1 0x6 PUSH8 0xFFFFFFFFFFFFFFFF DUP2 GT ISZERO PUSH3 0x387 JUMPI PUSH3 0x386 PUSH3 0x1328 JUMP JUMPDEST JUMPDEST PUSH1 0x40 MLOAD SWAP1 DUP1 DUP3 MSTORE DUP1 PUSH1 0x20 MUL PUSH1 0x20 ADD DUP3 ADD PUSH1 0x40 MSTORE DUP1 ISZERO PUSH3 0x3B6 JUMPI DUP2 PUSH1 0x20 ADD PUSH1 0x20 DUP3 MUL DUP1 CALLDATASIZE DUP4 CALLDATACOPY DUP1 DUP3 ADD SWAP2 POP POP SWAP1 POP JUMPDEST POP SWAP1 POP PUSH1 0x2 PUSH32 0x12AC9A25DCD5E1A832A9061A082C15DD1D61AA9C4D553505739D0F5D65DC3BE4 PUSH32 0x25AA744581EBE7AD91731911C898569106FF5A2D30F3EEE2B23C60EE980ACD4 PUSH1 0x40 MLOAD PUSH1 0x20 ADD PUSH3 0x410 SWAP3 SWAP2 SWAP1 PUSH3 0x1355 JUMP JUMPDEST PUSH1 0x40 MLOAD PUSH1 0x20 DUP2 DUP4 SUB SUB DUP2 MSTORE SWAP1 PUSH1 0x40 MSTORE PUSH1 0x40 MLOAD PUSH3 0x42E SWAP2 SWAP1 PUSH3 0x1310 JUMP JUMPDEST PUSH1 0x20 PUSH1 0x40 MLOAD DUP1 DUP4 SUB DUP2 DUP6 GAS STATICCALL ISZERO DUP1 ISZERO PUSH3 0x44A JUMPI RETURNDATASIZE PUSH0 DUP1 RETURNDATACOPY RETURNDATASIZE PUSH0 REVERT JUMPDEST POP POP POP PUSH1 0x40 MLOAD RETURNDATASIZE PUSH1 0x1F NOT PUSH1 0x1F DUP3 ADD AND DUP3 ADD DUP1 PUSH1 0x40 MSTORE POP DUP2 ADD SWAP1 PUSH3 0x46F SWAP2 SWAP1 PUSH3 0x1176 JUMP JUMPDEST DUP2 PUSH0 DUP2 MLOAD DUP2 LT PUSH3 0x485 JUMPI PUSH3 0x484 PUSH3 0x1384 JUMP JUMPDEST JUMPDEST PUSH1 0x20 MUL PUSH1 0x20 ADD ADD DUP2 DUP2 MSTORE POP POP PUSH1 0x2 PUSH32 0x707B920BC978C02F292FAE2036E057BE54294114CCC3C8769D883F688A1423F PUSH32 0x2E32A094B7589554F7BC357BF63481ACD2D55555C203383782A4650787FF6642 PUSH1 0x40 MLOAD PUSH1 0x20 ADD PUSH3 0x4E8 SWAP3 SWAP2 SWAP1 PUSH3 0x1355 JUMP JUMPDEST PUSH1 0x40 MLOAD PUSH1 0x20 DUP2 DUP4 SUB SUB DUP2 MSTORE SWAP1 PUSH1 0x40 MSTORE PUSH1 0x40 MLOAD PUSH3 0x506 SWAP2 SWAP1 PUSH3 0x1310 JUMP JUMPDEST PUSH1 0x20 PUSH1 0x40 MLOAD DUP1 DUP4 SUB DUP2 DUP6 GAS STATICCALL ISZERO DUP1 ISZERO PUSH3 0x522 JUMPI RETURNDATASIZE PUSH0 DUP1 RETURNDATACOPY RETURNDATASIZE PUSH0 REVERT JUMPDEST POP POP POP PUSH1 0x40 MLOAD RETURNDATASIZE PUSH1 0x1F NOT PUSH1 0x1F DUP3 ADD AND DUP3 ADD DUP1 PUSH1 0x40 MSTORE POP DUP2 ADD SWAP1 PUSH3 0x547 SWAP2 SWAP1 PUSH3 0x1176 JUMP JUMPDEST DUP2 PUSH1 0x1 DUP2 MLOAD DUP2 LT PUSH3 0x55E JUMPI PUSH3 0x55D PUSH3 0x1384 JUMP JUMPDEST JUMPDEST PUSH1 0x20 MUL PUSH1 0x20 ADD ADD DUP2 DUP2 MSTORE POP POP PUSH1 0x2 PUSH32 0xBCA36E2CBE6394B3E249751853F961511011C7148E336F4FD974644850FC347 PUSH32 0x2EDE7C9ACF48CF3A3729FA3D68714E2A8435D4FA6DB8F7F409C153B1FCDF9B8B PUSH1 0x40 MLOAD PUSH1 0x20 ADD PUSH3 0x5C1 SWAP3 SWAP2 SWAP1 PUSH3 0x1355 JUMP JUMPDEST PUSH1 0x40 MLOAD PUSH1 0x20 DUP2 DUP4 SUB SUB DUP2 MSTORE SWAP1 PUSH1 0x40 MSTORE PUSH1 0x40 MLOAD PUSH3 0x5DF SWAP2 SWAP1 PUSH3 0x1310 JUMP JUMPDEST PUSH1 0x20 PUSH1 0x40 MLOAD DUP1 DUP4 SUB DUP2 DUP6 GAS STATICCALL ISZERO DUP1 ISZERO PUSH3 0x5FB JUMPI RETURNDATASIZE PUSH0 DUP1 RETURNDATACOPY RETURNDATASIZE PUSH0 REVERT JUMPDEST POP POP POP PUSH1 0x40 MLOAD RETURNDATASIZE PUSH1 0x1F NOT PUSH1 0x1F DUP3 ADD AND DUP3 ADD DUP1 PUSH1 0x40 MSTORE POP DUP2 ADD SWAP1 PUSH3 0x620 SWAP2 SWAP1 PUSH3 0x1176 JUMP JUMPDEST DUP2 PUSH1 0x2 DUP2 MLOAD DUP2 LT PUSH3 0x637 JUMPI PUSH3 0x636 PUSH3 0x1384 JUMP JUMPDEST JUMPDEST PUSH1 0x20 MUL PUSH1 0x20 ADD ADD DUP2 DUP2 MSTORE POP POP PUSH1 0x2 PUSH32 0x1B8AF999DBFBB3927C091CC2AAF201E488CBACC3E2C6B6FB5A25F9112E04F2A7 PUSH32 0x2B91A26AA92E1B6F5722949F192A81C850D586D81A60157F3E9CF04F679CCCD6 PUSH1 0x40 MLOAD PUSH1 0x20 ADD PUSH3 0x69A SWAP3 SWAP2 SWAP1 PUSH3 0x1355 JUMP JUMPDEST PUSH1 0x40 MLOAD PUSH1 0x20 DUP2 DUP4 SUB SUB DUP2 MSTORE SWAP1 PUSH1 0x40 MSTORE PUSH1 0x40 MLOAD PUSH3 0x6B8 SWAP2 SWAP1 PUSH3 0x1310 JUMP JUMPDEST PUSH1 0x20 PUSH1 0x40 MLOAD DUP1 DUP4 SUB DUP2 DUP6 GAS STATICCALL ISZERO DUP1 ISZERO PUSH3 0x6D4 JUMPI RETURNDATASIZE PUSH0 DUP1 RETURNDATACOPY RETURNDATASIZE PUSH0 REVERT JUMPDEST POP POP POP PUSH1 0x40 MLOAD RETURNDATASIZE PUSH1 0x1F NOT PUSH1 0x1F DUP3 ADD AND DUP3 ADD DUP1 PUSH1 0x40 MSTORE POP DUP2 ADD SWAP1 PUSH3 0x6F9 SWAP2 SWAP1 PUSH3 0x1176 JUMP JUMPDEST DUP2 PUSH1 0x3 DUP2 MLOAD DUP2 LT PUSH3 0x710 JUMPI PUSH3 0x70F PUSH3 0x1384 JUMP JUMPDEST JUMPDEST PUSH1 0x20 MUL PUSH1 0x20 ADD ADD DUP2 DUP2 MSTORE POP POP PUSH1 0x2 PUSH32 0x2B5F494ED674235B8AC1750BDFD5A7615F002D4A1DCEFEDDD06EDA5A076CCD0D PUSH32 0x2FE520AD2020AAB9CBBA817FCBB9A863B8A76FF88F14F912C5E71665B2AD5E82 PUSH1 0x40 MLOAD PUSH1 0x20 ADD PUSH3 0x773 SWAP3 SWAP2 SWAP1 PUSH3 0x1355 JUMP JUMPDEST PUSH1 0x40 MLOAD PUSH1 0x20 DUP2 DUP4 SUB SUB DUP2 MSTORE SWAP1 PUSH1 0x40 MSTORE PUSH1 0x40 MLOAD PUSH3 0x791 SWAP2 SWAP1 PUSH3 0x1310 JUMP JUMPDEST PUSH1 0x20 PUSH1 0x40 MLOAD DUP1 DUP4 SUB DUP2 DUP6 GAS STATICCALL ISZERO DUP1 ISZERO PUSH3 0x7AD JUMPI RETURNDATASIZE PUSH0 DUP1 RETURNDATACOPY RETURNDATASIZE PUSH0 REVERT JUMPDEST POP POP POP PUSH1 0x40 MLOAD RETURNDATASIZE PUSH1 0x1F NOT PUSH1 0x1F DUP3 ADD AND DUP3 ADD DUP1 PUSH1 0x40 MSTORE POP DUP2 ADD SWAP1 PUSH3 0x7D2 SWAP2 SWAP1 PUSH3 0x1176 JUMP JUMPDEST DUP2 PUSH1 0x4 DUP2 MLOAD DUP2 LT PUSH3 0x7E9 JUMPI PUSH3 0x7E8 PUSH3 0x1384 JUMP JUMPDEST JUMPDEST PUSH1 0x20 MUL PUSH1 0x20 ADD ADD DUP2 DUP2 MSTORE POP POP PUSH1 0x2 PUSH32 0xF1C3C0D5D9DA0FA03666843CDE4E82E869BA5252FCE3C25D5940320B1C4D493 PUSH32 0x214BFCFF74F425F6FE8C0D07B307482D8BC8BB2F3608F68287AA01BD0B69E809 PUSH1 0x40 MLOAD PUSH1 0x20 ADD PUSH3 0x84C SWAP3 SWAP2 SWAP1 PUSH3 0x1355 JUMP JUMPDEST PUSH1 0x40 MLOAD PUSH1 0x20 DUP2 DUP4 SUB SUB DUP2 MSTORE SWAP1 PUSH1 0x40 MSTORE PUSH1 0x40 MLOAD PUSH3 0x86A SWAP2 SWAP1 PUSH3 0x1310 JUMP JUMPDEST PUSH1 0x20 PUSH1 0x40 MLOAD DUP1 DUP4 SUB DUP2 DUP6 GAS STATICCALL ISZERO DUP1 ISZERO PUSH3 0x886 JUMPI RETURNDATASIZE PUSH0 DUP1 RETURNDATACOPY RETURNDATASIZE PUSH0 REVERT JUMPDEST POP POP POP PUSH1 0x40 MLOAD RETURNDATASIZE PUSH1 0x1F NOT PUSH1 0x1F DUP3 ADD AND DUP3 ADD DUP1 PUSH1 0x40 MSTORE POP DUP2 ADD SWAP1 PUSH3 0x8AB SWAP2 SWAP1 PUSH3 0x1176 JUMP JUMPDEST DUP2 PUSH1 0x5 DUP2 MLOAD DUP2 LT PUSH3 0x8C2 JUMPI PUSH3 0x8C1 PUSH3 0x1384 JUMP JUMPDEST JUMPDEST PUSH1 0x20 MUL PUSH1 0x20 ADD ADD DUP2 DUP2 MSTORE POP POP PUSH1 0x2 DUP1 PUSH1 0x40 MLOAD PUSH3 0x8DF SWAP1 PUSH3 0x13FF JUMP JUMPDEST PUSH1 0x20 PUSH1 0x40 MLOAD DUP1 DUP4 SUB DUP2 DUP6 GAS STATICCALL ISZERO DUP1 ISZERO PUSH3 0x8FB JUMPI RETURNDATASIZE PUSH0 DUP1 RETURNDATACOPY RETURNDATASIZE PUSH0 REVERT JUMPDEST POP POP POP PUSH1 0x40 MLOAD RETURNDATASIZE PUSH1 0x1F NOT PUSH1 0x1F DUP3 ADD AND DUP3 ADD DUP1 PUSH1 0x40 MSTORE POP DUP2 ADD SWAP1 PUSH3 0x920 SWAP2 SWAP1 PUSH3 0x1176 JUMP JUMPDEST PUSH1 0x2 PUSH32 0x2D4D9AA7E302D9DF41749D5507949D05DBEA33FBB16C643B22F599A2BE6DF2E2 PUSH32 0x14BEDD503C37CEB061D8EC60209FE345CE89830A19230301F076CAFF004D1926 PUSH1 0x40 MLOAD PUSH1 0x20 ADD PUSH3 0x977 SWAP3 SWAP2 SWAP1 PUSH3 0x1355 JUMP JUMPDEST PUSH1 0x40 MLOAD PUSH1 0x20 DUP2 DUP4 SUB SUB DUP2 MSTORE SWAP1 PUSH1 0x40 MSTORE PUSH1 0x40 MLOAD PUSH3 0x995 SWAP2 SWAP1 PUSH3 0x1310 JUMP JUMPDEST PUSH1 0x20 PUSH1 0x40 MLOAD DUP1 DUP4 SUB DUP2 DUP6 GAS STATICCALL ISZERO DUP1 ISZERO PUSH3 0x9B1 JUMPI RETURNDATASIZE PUSH0 DUP1 RETURNDATACOPY RETURNDATASIZE PUSH0 REVERT JUMPDEST POP POP POP PUSH1 0x40 MLOAD RETURNDATASIZE PUSH1 0x1F NOT PUSH1 0x1F DUP3 ADD AND DUP3 ADD DUP1 PUSH1 0x40 MSTORE POP DUP2 ADD SWAP1 PUSH3 0x9D6 SWAP2 SWAP1 PUSH3 0x1176 JUMP JUMPDEST PUSH1 0x2 PUSH32 0x967032FCBF776D1AFC985F88877F182D38480A653F2DECAA9794CBC3BF3060C PUSH32 0xE187847AD4C798374D0D6732BF501847DD68BC0E071241E0213BC7FC13DB7AB PUSH32 0x304CFBD1E08A704A99F5E847D93F8C3CAAFDDEC46B7A0D379DA69A4D112346A7 PUSH32 0x1739C1B1A457A8C7313123D24D2F9192F896B7C63EEA05A9D57F06547AD0CEC8 PUSH1 0x40 MLOAD PUSH1 0x20 ADD PUSH3 0xA71 SWAP5 SWAP4 SWAP3 SWAP2 SWAP1 PUSH3 0x1415 JUMP JUMPDEST PUSH1 0x40 MLOAD PUSH1 0x20 DUP2 DUP4 SUB SUB DUP2 MSTORE SWAP1 PUSH1 0x40 MSTORE PUSH1 0x40 MLOAD PUSH3 0xA8F SWAP2 SWAP1 PUSH3 0x1310 JUMP JUMPDEST PUSH1 0x20 PUSH1 0x40 MLOAD DUP1 DUP4 SUB DUP2 DUP6 GAS STATICCALL ISZERO DUP1 ISZERO PUSH3 0xAAB JUMPI RETURNDATASIZE PUSH0 DUP1 RETURNDATACOPY RETURNDATASIZE PUSH0 REVERT JUMPDEST POP POP POP PUSH1 0x40 MLOAD RETURNDATASIZE PUSH1 0x1F NOT PUSH1 0x1F DUP3 ADD AND DUP3 ADD DUP1 PUSH1 0x40 MSTORE POP DUP2 ADD SWAP1 PUSH3 0xAD0 SWAP2 SWAP1 PUSH3 0x1176 JUMP JUMPDEST PUSH1 0x2 PUSH32 0x198E9393920D483A7260BFB731FB5D25F1AA493335A9E71297E485B7AEF312C2 PUSH32 0x1800DEEF121F1E76426A00665E5C4479674322D4F75EDADD46DEBD5CD992F6ED PUSH32 0x90689D0585FF075EC9E99AD690C3395BC4B313370B38EF355ACDADCD122975B PUSH32 0x12C85EA5DB8C6DEB4AAB71808DCB408FE3D1E7690C43D37B4CE6CC0166FA7DAA PUSH1 0x40 MLOAD PUSH1 0x20 ADD PUSH3 0xB6B SWAP5 SWAP4 SWAP3 SWAP2 SWAP1 PUSH3 0x1415 JUMP JUMPDEST PUSH1 0x40 MLOAD PUSH1 0x20 DUP2 DUP4 SUB SUB DUP2 MSTORE SWAP1 PUSH1 0x40 MSTORE PUSH1 0x40 MLOAD PUSH3 0xB89 SWAP2 SWAP1 PUSH3 0x1310 JUMP JUMPDEST PUSH1 0x20 PUSH1 0x40 MLOAD DUP1 DUP4 SUB DUP2 DUP6 GAS STATICCALL ISZERO DUP1 ISZERO PUSH3 0xBA5 JUMPI RETURNDATASIZE PUSH0 DUP1 RETURNDATACOPY RETURNDATASIZE PUSH0 REVERT JUMPDEST POP POP POP PUSH1 0x40 MLOAD RETURNDATASIZE PUSH1 0x1F NOT PUSH1 0x1F DUP3 ADD AND DUP3 ADD DUP1 PUSH1 0x40 MSTORE POP DUP2 ADD SWAP1 PUSH3 0xBCA SWAP2 SWAP1 PUSH3 0x1176 JUMP JUMPDEST PUSH1 0x2 PUSH32 0x3B03CD5EFFA95AC9BEE94F1F5EF907157BDA4812CCF0B4C91F42BB629F83A1C PUSH32 0x1AA085FF28179A12D922DBA0547057CCAAE94B9D69CFAA4E60401FEA7F3E0333 PUSH32 0x110C10134F200B19F6490846D518C9AEA868366EFB7228CA5C91D2940D030762 PUSH32 0x1E60F31FCBF757E837E867178318832D0B2D74D59E2FEA1C7142DF187D3FC6D3 PUSH1 0x40 MLOAD PUSH1 0x20 ADD PUSH3 0xC65 SWAP5 SWAP4 SWAP3 SWAP2 SWAP1 PUSH3 0x1415 JUMP JUMPDEST PUSH1 0x40 MLOAD PUSH1 0x20 DUP2 DUP4 SUB SUB DUP2 MSTORE SWAP1 PUSH1 0x40 MSTORE PUSH1 0x40 MLOAD PUSH3 0xC83 SWAP2 SWAP1 PUSH3 0x1310 JUMP JUMPDEST PUSH1 0x20 PUSH1 0x40 MLOAD DUP1 DUP4 SUB DUP2 DUP6 GAS STATICCALL ISZERO DUP1 ISZERO PUSH3 0xC9F JUMPI RETURNDATASIZE PUSH0 DUP1 RETURNDATACOPY RETURNDATASIZE PUSH0 REVERT JUMPDEST POP POP POP PUSH1 0x40 MLOAD RETURNDATASIZE PUSH1 0x1F NOT PUSH1 0x1F DUP3 ADD AND DUP3 ADD DUP1 PUSH1 0x40 MSTORE POP DUP2 ADD SWAP1 PUSH3 0xCC4 SWAP2 SWAP1 PUSH3 0x1176 JUMP JUMPDEST PUSH3 0xD26 PUSH1 0x2 PUSH1 0x40 MLOAD PUSH3 0xCD8 SWAP1 PUSH3 0x14B8 JUMP JUMPDEST PUSH1 0x20 PUSH1 0x40 MLOAD DUP1 DUP4 SUB DUP2 DUP6 GAS STATICCALL ISZERO DUP1 ISZERO PUSH3 0xCF4 JUMPI RETURNDATASIZE PUSH0 DUP1 RETURNDATACOPY RETURNDATASIZE PUSH0 REVERT JUMPDEST POP POP POP PUSH1 0x40 MLOAD RETURNDATASIZE PUSH1 0x1F NOT PUSH1 0x1F DUP3 ADD AND DUP3 ADD DUP1 PUSH1 0x40 MSTORE POP DUP2 ADD SWAP1 PUSH3 0xD19 SWAP2 SWAP1 PUSH3 0x1176 JUMP JUMPDEST DUP9 PUSH3 0xDAD PUSH1 0x20 SHL PUSH1 0x20 SHR JUMP JUMPDEST PUSH1 0x8 PUSH1 0x5 PUSH2 0xFFFF AND SWAP1 SHL PUSH1 0x40 MLOAD PUSH1 0x20 ADD PUSH3 0xD48 SWAP8 SWAP7 SWAP6 SWAP5 SWAP4 SWAP3 SWAP2 SWAP1 PUSH3 0x14CE JUMP JUMPDEST PUSH1 0x40 MLOAD PUSH1 0x20 DUP2 DUP4 SUB SUB DUP2 MSTORE SWAP1 PUSH1 0x40 MSTORE PUSH1 0x40 MLOAD PUSH3 0xD66 SWAP2 SWAP1 PUSH3 0x1310 JUMP JUMPDEST PUSH1 0x20 PUSH1 0x40 MLOAD DUP1 DUP4 SUB DUP2 DUP6 GAS STATICCALL ISZERO DUP1 ISZERO PUSH3 0xD82 JUMPI RETURNDATASIZE PUSH0 DUP1 RETURNDATACOPY RETURNDATASIZE PUSH0 REVERT JUMPDEST POP POP POP PUSH1 0x40 MLOAD RETURNDATASIZE PUSH1 0x1F NOT PUSH1 0x1F DUP3 ADD AND DUP3 ADD DUP1 PUSH1 0x40 MSTORE POP DUP2 ADD SWAP1 PUSH3 0xDA7 SWAP2 SWAP1 PUSH3 0x1176 JUMP JUMPDEST SWAP2 POP POP SWAP1 JUMP JUMPDEST PUSH0 DUP1 PUSH0 DUP1 SHL SWAP1 POP PUSH0 JUMPDEST DUP4 MLOAD DUP2 LT ISZERO PUSH3 0xE24 JUMPI PUSH3 0xE0C DUP6 DUP6 DUP4 PUSH1 0x1 DUP9 MLOAD PUSH3 0xDD7 SWAP2 SWAP1 PUSH3 0x1589 JUMP JUMPDEST PUSH3 0xDE3 SWAP2 SWAP1 PUSH3 0x1589 JUMP JUMPDEST DUP2 MLOAD DUP2 LT PUSH3 0xDF7 JUMPI PUSH3 0xDF6 PUSH3 0x1384 JUMP JUMPDEST JUMPDEST PUSH1 0x20 MUL PUSH1 0x20 ADD ADD MLOAD DUP5 PUSH3 0xE2F PUSH1 0x20 SHL PUSH1 0x20 SHR JUMP JUMPDEST SWAP2 POP DUP1 DUP1 PUSH3 0xE1B SWAP1 PUSH3 0x15C3 JUMP JUMPDEST SWAP2 POP POP PUSH3 0xDB6 JUMP JUMPDEST POP DUP1 SWAP2 POP POP SWAP3 SWAP2 POP POP JUMP JUMPDEST PUSH0 DUP1 PUSH1 0x2 PUSH8 0xFFFFFFFFFFFFFFFF DUP2 GT ISZERO PUSH3 0xE4F JUMPI PUSH3 0xE4E PUSH3 0x1328 JUMP JUMPDEST JUMPDEST PUSH1 0x40 MLOAD SWAP1 DUP1 DUP3 MSTORE DUP1 PUSH1 0x20 MUL PUSH1 0x20 ADD DUP3 ADD PUSH1 0x40 MSTORE DUP1 ISZERO PUSH3 0xE7E JUMPI DUP2 PUSH1 0x20 ADD PUSH1 0x20 DUP3 MUL DUP1 CALLDATASIZE DUP4 CALLDATACOPY DUP1 DUP3 ADD SWAP2 POP POP SWAP1 POP JUMPDEST POP SWAP1 POP DUP4 DUP2 PUSH0 DUP2 MLOAD DUP2 LT PUSH3 0xE98 JUMPI PUSH3 0xE97 PUSH3 0x1384 JUMP JUMPDEST JUMPDEST PUSH1 0x20 MUL PUSH1 0x20 ADD ADD DUP2 DUP2 MSTORE POP POP DUP3 DUP2 PUSH1 0x1 DUP2 MLOAD DUP2 LT PUSH3 0xEBC JUMPI PUSH3 0xEBB PUSH3 0x1384 JUMP JUMPDEST JUMPDEST PUSH1 0x20 MUL PUSH1 0x20 ADD ADD DUP2 DUP2 MSTORE POP POP PUSH3 0xEDA DUP6 DUP3 PUSH3 0xEE4 PUSH1 0x20 SHL PUSH1 0x20 SHR JUMP JUMPDEST SWAP2 POP POP SWAP4 SWAP3 POP POP POP JUMP JUMPDEST PUSH0 DUP1 PUSH0 PUSH8 0xFFFFFFFFFFFFFFFF DUP2 GT ISZERO PUSH3 0xF03 JUMPI PUSH3 0xF02 PUSH3 0x1328 JUMP JUMPDEST JUMPDEST PUSH1 0x40 MLOAD SWAP1 DUP1 DUP3 MSTORE DUP1 PUSH1 0x1F ADD PUSH1 0x1F NOT AND PUSH1 0x20 ADD DUP3 ADD PUSH1 0x40 MSTORE DUP1 ISZERO PUSH3 0xF36 JUMPI DUP2 PUSH1 0x20 ADD PUSH1 0x1 DUP3 MUL DUP1 CALLDATASIZE DUP4 CALLDATACOPY DUP1 DUP3 ADD SWAP2 POP POP SWAP1 POP JUMPDEST POP SWAP1 POP PUSH3 0xF4C DUP5 DUP5 DUP4 PUSH3 0xF55 PUSH1 0x20 SHL PUSH1 0x20 SHR JUMP JUMPDEST SWAP2 POP POP SWAP3 SWAP2 POP POP JUMP JUMPDEST PUSH0 DUP1 PUSH3 0xF69 DUP5 MLOAD PUSH3 0x1009 PUSH1 0x20 SHL PUSH1 0x20 SHR JUMP JUMPDEST SWAP1 POP PUSH0 PUSH1 0x8 DUP3 PUSH2 0xFFFF AND SWAP1 SHR PUSH1 0x8 DUP4 PUSH2 0xFFFF AND SWAP1 SHL OR PUSH1 0xF0 SHL SWAP1 POP PUSH1 0x2 DUP7 DUP7 DUP7 DUP5 PUSH1 0x40 MLOAD PUSH1 0x20 ADD PUSH3 0xF9F SWAP5 SWAP4 SWAP3 SWAP2 SWAP1 PUSH3 0x171F JUMP JUMPDEST PUSH1 0x40 MLOAD PUSH1 0x20 DUP2 DUP4 SUB SUB DUP2 MSTORE SWAP1 PUSH1 0x40 MSTORE PUSH1 0x40 MLOAD PUSH3 0xFBD SWAP2 SWAP1 PUSH3 0x1310 JUMP JUMPDEST PUSH1 0x20 PUSH1 0x40 MLOAD DUP1 DUP4 SUB DUP2 DUP6 GAS STATICCALL ISZERO DUP1 ISZERO PUSH3 0xFD9 JUMPI RETURNDATASIZE PUSH0 DUP1 RETURNDATACOPY RETURNDATASIZE PUSH0 REVERT JUMPDEST POP POP POP PUSH1 0x40 MLOAD RETURNDATASIZE PUSH1 0x1F NOT PUSH1 0x1F DUP3 ADD AND DUP3 ADD DUP1 PUSH1 0x40 MSTORE POP DUP2 ADD SWAP1 PUSH3 0xFFE SWAP2 SWAP1 PUSH3 0x1176 JUMP JUMPDEST SWAP3 POP POP POP SWAP4 SWAP3 POP POP POP JUMP JUMPDEST PUSH0 PUSH2 0xFFFF DUP1 AND DUP3 GT ISZERO PUSH3 0x1059 JUMPI PUSH1 0x10 DUP3 PUSH1 0x40 MLOAD PUSH32 0x6DFCC65000000000000000000000000000000000000000000000000000000000 DUP2 MSTORE PUSH1 0x4 ADD PUSH3 0x1050 SWAP3 SWAP2 SWAP1 PUSH3 0x17D3 JUMP JUMPDEST PUSH1 0x40 MLOAD DUP1 SWAP2 SUB SWAP1 REVERT JUMPDEST DUP2 SWAP1 POP SWAP2 SWAP1 POP JUMP JUMPDEST PUSH0 DUP1 REVERT JUMPDEST PUSH0 DUP2 SWAP1 POP SWAP2 SWAP1 POP JUMP JUMPDEST PUSH3 0x1079 DUP2 PUSH3 0x1065 JUMP JUMPDEST DUP2 EQ PUSH3 0x1084 JUMPI PUSH0 DUP1 REVERT JUMPDEST POP JUMP JUMPDEST PUSH0 DUP2 MLOAD SWAP1 POP PUSH3 0x1097 DUP2 PUSH3 0x106E JUMP JUMPDEST SWAP3 SWAP2 POP POP JUMP JUMPDEST PUSH0 DUP1 PUSH1 0x40 DUP4 DUP6 SUB SLT ISZERO PUSH3 0x10B6 JUMPI PUSH3 0x10B5 PUSH3 0x1061 JUMP JUMPDEST JUMPDEST PUSH0 PUSH3 0x10C5 DUP6 DUP3 DUP7 ADD PUSH3 0x1087 JUMP JUMPDEST SWAP3 POP POP PUSH1 0x20 PUSH3 0x10D8 DUP6 DUP3 DUP7 ADD PUSH3 0x1087 JUMP JUMPDEST SWAP2 POP POP SWAP3 POP SWAP3 SWAP1 POP JUMP JUMPDEST PUSH0 DUP2 SWAP1 POP SWAP3 SWAP2 POP POP JUMP JUMPDEST PUSH32 0x72697363302E47726F7468313652656365697074566572696669657250617261 PUSH0 DUP3 ADD MSTORE PUSH32 0x6D65746572730000000000000000000000000000000000000000000000000000 PUSH1 0x20 DUP3 ADD MSTORE POP JUMP JUMPDEST PUSH0 PUSH3 0x1148 PUSH1 0x26 DUP4 PUSH3 0x10E2 JUMP JUMPDEST SWAP2 POP PUSH3 0x1155 DUP3 PUSH3 0x10EC JUMP JUMPDEST PUSH1 0x26 DUP3 ADD SWAP1 POP SWAP2 SWAP1 POP JUMP JUMPDEST PUSH0 PUSH3 0x116C DUP3 PUSH3 0x113A JUMP JUMPDEST SWAP2 POP DUP2 SWAP1 POP SWAP2 SWAP1 POP JUMP JUMPDEST PUSH0 PUSH1 0x20 DUP3 DUP5 SUB SLT ISZERO PUSH3 0x118E JUMPI PUSH3 0x118D PUSH3 0x1061 JUMP JUMPDEST JUMPDEST PUSH0 PUSH3 0x119D DUP5 DUP3 DUP6 ADD PUSH3 0x1087 JUMP JUMPDEST SWAP2 POP POP SWAP3 SWAP2 POP POP JUMP JUMPDEST PUSH0 DUP2 SWAP1 POP SWAP2 SWAP1 POP JUMP JUMPDEST PUSH3 0x11C4 PUSH3 0x11BE DUP3 PUSH3 0x1065 JUMP JUMPDEST PUSH3 0x11A6 JUMP JUMPDEST DUP3 MSTORE POP POP JUMP JUMPDEST PUSH0 DUP2 SWAP1 POP SWAP2 SWAP1 POP JUMP JUMPDEST PUSH0 DUP2 SWAP1 POP SWAP2 SWAP1 POP JUMP JUMPDEST PUSH3 0x11F1 PUSH3 0x11EB DUP3 PUSH3 0x11CA JUMP JUMPDEST PUSH3 0x11D3 JUMP JUMPDEST DUP3 MSTORE POP POP JUMP JUMPDEST PUSH0 PUSH2 0xFFFF DUP3 AND SWAP1 POP SWAP2 SWAP1 POP JUMP JUMPDEST PUSH0 DUP2 PUSH1 0xF0 SHL SWAP1 POP SWAP2 SWAP1 POP JUMP JUMPDEST PUSH0 PUSH3 0x121C DUP3 PUSH3 0x1204 JUMP JUMPDEST SWAP1 POP SWAP2 SWAP1 POP JUMP JUMPDEST PUSH3 0x1238 PUSH3 0x1232 DUP3 PUSH3 0x11F7 JUMP JUMPDEST PUSH3 0x1210 JUMP JUMPDEST DUP3 MSTORE POP POP JUMP JUMPDEST PUSH0 PUSH3 0x124B DUP3 DUP9 PUSH3 0x11AF JUMP JUMPDEST PUSH1 0x20 DUP3 ADD SWAP2 POP PUSH3 0x125D DUP3 DUP8 PUSH3 0x11AF JUMP JUMPDEST PUSH1 0x20 DUP3 ADD SWAP2 POP PUSH3 0x126F DUP3 DUP7 PUSH3 0x11DC JUMP JUMPDEST PUSH1 0x20 DUP3 ADD SWAP2 POP PUSH3 0x1281 DUP3 DUP6 PUSH3 0x11AF JUMP JUMPDEST PUSH1 0x20 DUP3 ADD SWAP2 POP PUSH3 0x1293 DUP3 DUP5 PUSH3 0x1223 JUMP JUMPDEST PUSH1 0x2 DUP3 ADD SWAP2 POP DUP2 SWAP1 POP SWAP7 SWAP6 POP POP POP POP POP POP JUMP JUMPDEST PUSH0 DUP2 MLOAD SWAP1 POP SWAP2 SWAP1 POP JUMP JUMPDEST PUSH0 JUMPDEST DUP4 DUP2 LT ISZERO PUSH3 0x12CF JUMPI DUP1 DUP3 ADD MLOAD DUP2 DUP5 ADD MSTORE PUSH1 0x20 DUP2 ADD SWAP1 POP PUSH3 0x12B2 JUMP JUMPDEST PUSH0 DUP5 DUP5 ADD MSTORE POP POP POP POP JUMP JUMPDEST PUSH0 PUSH3 0x12E6 DUP3 PUSH3 0x12A6 JUMP JUMPDEST PUSH3 0x12F2 DUP2 DUP6 PUSH3 0x10E2 JUMP JUMPDEST SWAP4 POP PUSH3 0x1304 DUP2 DUP6 PUSH1 0x20 DUP7 ADD PUSH3 0x12B0 JUMP JUMPDEST DUP1 DUP5 ADD SWAP2 POP POP SWAP3 SWAP2 POP POP JUMP JUMPDEST PUSH0 PUSH3 0x131D DUP3 DUP5 PUSH3 0x12DA JUMP JUMPDEST SWAP2 POP DUP2 SWAP1 POP SWAP3 SWAP2 POP POP JUMP JUMPDEST PUSH32 0x4E487B7100000000000000000000000000000000000000000000000000000000 PUSH0 MSTORE PUSH1 0x41 PUSH1 0x4 MSTORE PUSH1 0x24 PUSH0 REVERT JUMPDEST PUSH0 PUSH3 0x1362 DUP3 DUP6 PUSH3 0x11DC JUMP JUMPDEST PUSH1 0x20 DUP3 ADD SWAP2 POP PUSH3 0x1374 DUP3 DUP5 PUSH3 0x11DC JUMP JUMPDEST PUSH1 0x20 DUP3 ADD SWAP2 POP DUP2 SWAP1 POP SWAP4 SWAP3 POP POP POP JUMP JUMPDEST PUSH32 0x4E487B7100000000000000000000000000000000000000000000000000000000 PUSH0 MSTORE PUSH1 0x32 PUSH1 0x4 MSTORE PUSH1 0x24 PUSH0 REVERT JUMPDEST PUSH32 0x72697363305F67726F746831362E566572696679696E674B6579000000000000 PUSH0 DUP3 ADD MSTORE POP JUMP JUMPDEST PUSH0 PUSH3 0x13E7 PUSH1 0x1A DUP4 PUSH3 0x10E2 JUMP JUMPDEST SWAP2 POP PUSH3 0x13F4 DUP3 PUSH3 0x13B1 JUMP JUMPDEST PUSH1 0x1A DUP3 ADD SWAP1 POP SWAP2 SWAP1 POP JUMP JUMPDEST PUSH0 PUSH3 0x140B DUP3 PUSH3 0x13D9 JUMP JUMPDEST SWAP2 POP DUP2 SWAP1 POP SWAP2 SWAP1 POP JUMP JUMPDEST PUSH0 PUSH3 0x1422 DUP3 DUP8 PUSH3 0x11DC JUMP JUMPDEST PUSH1 0x20 DUP3 ADD SWAP2 POP PUSH3 0x1434 DUP3 DUP7 PUSH3 0x11DC JUMP JUMPDEST PUSH1 0x20 DUP3 ADD SWAP2 POP PUSH3 0x1446 DUP3 DUP6 PUSH3 0x11DC JUMP JUMPDEST PUSH1 0x20 DUP3 ADD SWAP2 POP PUSH3 0x1458 DUP3 DUP5 PUSH3 0x11DC JUMP JUMPDEST PUSH1 0x20 DUP3 ADD SWAP2 POP DUP2 SWAP1 POP SWAP6 SWAP5 POP POP POP POP POP JUMP JUMPDEST PUSH32 0x72697363305F67726F746831362E566572696679696E674B65792E4943000000 PUSH0 DUP3 ADD MSTORE POP JUMP JUMPDEST PUSH0 PUSH3 0x14A0 PUSH1 0x1D DUP4 PUSH3 0x10E2 JUMP JUMPDEST SWAP2 POP PUSH3 0x14AD DUP3 PUSH3 0x146A JUMP JUMPDEST PUSH1 0x1D DUP3 ADD SWAP1 POP SWAP2 SWAP1 POP JUMP JUMPDEST PUSH0 PUSH3 0x14C4 DUP3 PUSH3 0x1492 JUMP JUMPDEST SWAP2 POP DUP2 SWAP1 POP SWAP2 SWAP1 POP JUMP JUMPDEST PUSH0 PUSH3 0x14DB DUP3 DUP11 PUSH3 0x11AF JUMP JUMPDEST PUSH1 0x20 DUP3 ADD SWAP2 POP PUSH3 0x14ED DUP3 DUP10 PUSH3 0x11AF JUMP JUMPDEST PUSH1 0x20 DUP3 ADD SWAP2 POP PUSH3 0x14FF DUP3 DUP9 PUSH3 0x11AF JUMP JUMPDEST PUSH1 0x20 DUP3 ADD SWAP2 POP PUSH3 0x1511 DUP3 DUP8 PUSH3 0x11AF JUMP JUMPDEST PUSH1 0x20 DUP3 ADD SWAP2 POP PUSH3 0x1523 DUP3 DUP7 PUSH3 0x11AF JUMP JUMPDEST PUSH1 0x20 DUP3 ADD SWAP2 POP PUSH3 0x1535 DUP3 DUP6 PUSH3 0x11AF JUMP JUMPDEST PUSH1 0x20 DUP3 ADD SWAP2 POP PUSH3 0x1547 DUP3 DUP5 PUSH3 0x1223 JUMP JUMPDEST PUSH1 0x2 DUP3 ADD SWAP2 POP DUP2 SWAP1 POP SWAP9 SWAP8 POP POP POP POP POP POP POP POP JUMP JUMPDEST PUSH32 0x4E487B7100000000000000000000000000000000000000000000000000000000 PUSH0 MSTORE PUSH1 0x11 PUSH1 0x4 MSTORE PUSH1 0x24 PUSH0 REVERT JUMPDEST PUSH0 PUSH3 0x1595 DUP3 PUSH3 0x11CA JUMP JUMPDEST SWAP2 POP PUSH3 0x15A2 DUP4 PUSH3 0x11CA JUMP JUMPDEST SWAP3 POP DUP3 DUP3 SUB SWAP1 POP DUP2 DUP2 GT ISZERO PUSH3 0x15BD JUMPI PUSH3 0x15BC PUSH3 0x155C JUMP JUMPDEST JUMPDEST SWAP3 SWAP2 POP POP JUMP JUMPDEST PUSH0 PUSH3 0x15CF DUP3 PUSH3 0x11CA JUMP JUMPDEST SWAP2 POP PUSH32 0xFFFFFFFFFFFFFFFFFFFFFFFFFFFFFFFFFFFFFFFFFFFFFFFFFFFFFFFFFFFFFFFF DUP3 SUB PUSH3 0x1604 JUMPI PUSH3 0x1603 PUSH3 0x155C JUMP JUMPDEST JUMPDEST PUSH1 0x1 DUP3 ADD SWAP1 POP SWAP2 SWAP1 POP JUMP JUMPDEST PUSH0 DUP2 MLOAD SWAP1 POP SWAP2 SWAP1 POP JUMP JUMPDEST PUSH0 DUP2 SWAP1 POP SWAP3 SWAP2 POP POP JUMP JUMPDEST PUSH0 DUP2 SWAP1 POP PUSH1 0x20 DUP3 ADD SWAP1 POP SWAP2 SWAP1 POP JUMP JUMPDEST PUSH3 0x163D DUP2 PUSH3 0x1065 JUMP JUMPDEST DUP3 MSTORE POP POP JUMP JUMPDEST PUSH0 PUSH3 0x1650 DUP4 DUP4 PUSH3 0x1632 JUMP JUMPDEST PUSH1 0x20 DUP4 ADD SWAP1 POP SWAP3 SWAP2 POP POP JUMP JUMPDEST PUSH0 PUSH1 0x20 DUP3 ADD SWAP1 POP SWAP2 SWAP1 POP JUMP JUMPDEST PUSH0 PUSH3 0x1674 DUP3 PUSH3 0x160F JUMP JUMPDEST PUSH3 0x1680 DUP2 DUP6 PUSH3 0x1619 JUMP JUMPDEST SWAP4 POP PUSH3 0x168D DUP4 PUSH3 0x1623 JUMP JUMPDEST DUP1 PUSH0 JUMPDEST DUP4 DUP2 LT ISZERO PUSH3 0x16C3 JUMPI DUP2 MLOAD PUSH3 0x16A7 DUP9 DUP3 PUSH3 0x1643 JUMP JUMPDEST SWAP8 POP PUSH3 0x16B4 DUP4 PUSH3 0x165C JUMP JUMPDEST SWAP3 POP POP PUSH1 0x1 DUP2 ADD SWAP1 POP PUSH3 0x1690 JUMP JUMPDEST POP DUP6 SWAP4 POP POP POP POP SWAP3 SWAP2 POP POP JUMP JUMPDEST PUSH0 PUSH32 0xFFFF000000000000000000000000000000000000000000000000000000000000 DUP3 AND SWAP1 POP SWAP2 SWAP1 POP JUMP JUMPDEST PUSH0 DUP2 SWAP1 POP SWAP2 SWAP1 POP JUMP JUMPDEST PUSH3 0x1719 PUSH3 0x1713 DUP3 PUSH3 0x16D0 JUMP JUMPDEST PUSH3 0x16FB JUMP JUMPDEST DUP3 MSTORE POP POP JUMP JUMPDEST PUSH0 PUSH3 0x172C DUP3 DUP8 PUSH3 0x11AF JUMP JUMPDEST PUSH1 0x20 DUP3 ADD SWAP2 POP PUSH3 0x173E DUP3 DUP7 PUSH3 0x1668 JUMP JUMPDEST SWAP2 POP PUSH3 0x174C DUP3 DUP6 PUSH3 0x12DA JUMP JUMPDEST SWAP2 POP PUSH3 0x175A DUP3 DUP5 PUSH3 0x1704 JUMP JUMPDEST PUSH1 0x2 DUP3 ADD SWAP2 POP DUP2 SWAP1 POP SWAP6 SWAP5 POP POP POP POP POP JUMP JUMPDEST PUSH0 DUP2 SWAP1 POP SWAP2 SWAP1 POP JUMP JUMPDEST PUSH0 PUSH1 0xFF DUP3 AND SWAP1 POP SWAP2 SWAP1 POP JUMP JUMPDEST PUSH0 DUP2 SWAP1 POP SWAP2 SWAP1 POP JUMP JUMPDEST PUSH0 PUSH3 0x17AA PUSH3 0x17A4 PUSH3 0x179E DUP5 PUSH3 0x176C JUMP JUMPDEST PUSH3 0x1781 JUMP JUMPDEST PUSH3 0x1775 JUMP JUMPDEST SWAP1 POP SWAP2 SWAP1 POP JUMP JUMPDEST PUSH3 0x17BC DUP2 PUSH3 0x178A JUMP JUMPDEST DUP3 MSTORE POP POP JUMP JUMPDEST PUSH3 0x17CD DUP2 PUSH3 0x11CA JUMP JUMPDEST DUP3 MSTORE POP POP JUMP JUMPDEST PUSH0 PUSH1 0x40 DUP3 ADD SWAP1 POP PUSH3 0x17E8 PUSH0 DUP4 ADD DUP6 PUSH3 0x17B1 JUMP JUMPDEST PUSH3 0x17F7 PUSH1 0x20 DUP4 ADD DUP5 PUSH3 0x17C2 JUMP JUMPDEST SWAP4 SWAP3 POP POP POP JUMP JUMPDEST PUSH1 0x80 MLOAD PUSH1 0xA0 MLOAD PUSH1 0xC0 MLOAD PUSH1 0xE0 MLOAD PUSH2 0x1D6B PUSH3 0x1855 PUSH0 CODECOPY PUSH0 DUP2 DUP2 PUSH2 0x18A ADD MSTORE DUP2 DUP2 PUSH2 0x89E ADD MSTORE PUSH2 0x901 ADD MSTORE PUSH0 DUP2 DUP2 PUSH2 0x1CD ADD MSTORE PUSH2 0xA73 ADD MSTORE PUSH0 DUP2 DUP2 PUSH2 0x7BE ADD MSTORE PUSH2 0xA02 ADD MSTORE PUSH0 DUP2 DUP2 PUSH2 0x7E2 ADD MSTORE PUSH2 0x9C7 ADD MSTORE PUSH2 0x1D6B PUSH0 RETURN INVALID PUSH1 0x80 PUSH1 0x40 MSTORE CALLVALUE DUP1 ISZERO PUSH2 0xF JUMPI PUSH0 DUP1 REVERT JUMPDEST POP PUSH1 0x4 CALLDATASIZE LT PUSH2 0x86 JUMPI PUSH0 CALLDATALOAD PUSH1 0xE0 SHR DUP1 PUSH4 0x8989FA2E GT PUSH2 0x59 JUMPI DUP1 PUSH4 0x8989FA2E EQ PUSH2 0x112 JUMPI DUP1 PUSH4 0x9181E4B1 EQ PUSH2 0x130 JUMPI DUP1 PUSH4 0xAB750E75 EQ PUSH2 0x14E JUMPI DUP1 PUSH4 0xFFA1AD74 EQ PUSH2 0x16A JUMPI PUSH2 0x86 JUMP JUMPDEST DUP1 PUSH4 0x53C238D EQ PUSH2 0x8A JUMPI DUP1 PUSH4 0x1599EAD5 EQ PUSH2 0xA8 JUMPI DUP1 PUSH4 0x258038E2 EQ PUSH2 0xC4 JUMPI DUP1 PUSH4 0x34BAEAB9 EQ PUSH2 0xE2 JUMPI JUMPDEST PUSH0 DUP1 REVERT JUMPDEST PUSH2 0x92 PUSH2 0x188 JUMP JUMPDEST PUSH1 0x40 MLOAD PUSH2 0x9F SWAP2 SWAP1 PUSH2 0xFE0 JUMP JUMPDEST PUSH1 0x40 MLOAD DUP1 SWAP2 SUB SWAP1 RETURN JUMPDEST PUSH2 0xC2 PUSH1 0x4 DUP1 CALLDATASIZE SUB DUP2 ADD SWAP1 PUSH2 0xBD SWAP2 SWAP1 PUSH2 0x102C JUMP JUMPDEST PUSH2 0x1AC JUMP JUMPDEST STOP JUMPDEST PUSH2 0xCC PUSH2 0x1CB JUMP JUMPDEST PUSH1 0x40 MLOAD PUSH2 0xD9 SWAP2 SWAP1 PUSH2 0x108B JUMP JUMPDEST PUSH1 0x40 MLOAD DUP1 SWAP2 SUB SWAP1 RETURN JUMPDEST PUSH2 0xFC PUSH1 0x4 DUP1 CALLDATASIZE SUB DUP2 ADD SWAP1 PUSH2 0xF7 SWAP2 SWAP1 PUSH2 0x110B JUMP JUMPDEST PUSH2 0x1EF JUMP JUMPDEST PUSH1 0x40 MLOAD PUSH2 0x109 SWAP2 SWAP1 PUSH2 0x118B JUMP JUMPDEST PUSH1 0x40 MLOAD DUP1 SWAP2 SUB SWAP1 RETURN JUMPDEST PUSH2 0x11A PUSH2 0x7BC JUMP JUMPDEST PUSH1 0x40 MLOAD PUSH2 0x127 SWAP2 SWAP1 PUSH2 0x11DE JUMP JUMPDEST PUSH1 0x40 MLOAD DUP1 SWAP2 SUB SWAP1 RETURN JUMPDEST PUSH2 0x138 PUSH2 0x7E0 JUMP JUMPDEST PUSH1 0x40 MLOAD PUSH2 0x145 SWAP2 SWAP1 PUSH2 0x11DE JUMP JUMPDEST PUSH1 0x40 MLOAD DUP1 SWAP2 SUB SWAP1 RETURN JUMPDEST PUSH2 0x168 PUSH1 0x4 DUP1 CALLDATASIZE SUB DUP2 ADD SWAP1 PUSH2 0x163 SWAP2 SWAP1 PUSH2 0x127E JUMP JUMPDEST PUSH2 0x804 JUMP JUMPDEST STOP JUMPDEST PUSH2 0x172 PUSH2 0x826 JUMP JUMPDEST PUSH1 0x40 MLOAD PUSH2 0x17F SWAP2 SWAP1 PUSH2 0x1379 JUMP JUMPDEST PUSH1 0x40 MLOAD DUP1 SWAP2 SUB SWAP1 RETURN JUMPDEST PUSH32 0x0 DUP2 JUMP JUMPDEST PUSH2 0x1C8 DUP2 DUP1 PUSH0 ADD SWAP1 PUSH2 0x1BE SWAP2 SWAP1 PUSH2 0x13A5 JUMP JUMPDEST DUP4 PUSH1 0x20 ADD CALLDATALOAD PUSH2 0x85F JUMP JUMPDEST POP JUMP JUMPDEST PUSH32 0x0 DUP2 JUMP JUMPDEST PUSH0 PUSH2 0x74F JUMP JUMPDEST PUSH32 0x30644E72E131A029B85045B68181585D2833E84879B9709143E1F593F0000001 DUP2 LT PUSH2 0x224 JUMPI PUSH0 DUP1 MSTORE PUSH1 0x20 PUSH0 RETURN JUMPDEST POP JUMP JUMPDEST PUSH0 PUSH1 0x40 MLOAD DUP4 DUP2 MSTORE DUP5 PUSH1 0x20 DUP3 ADD MSTORE DUP6 PUSH1 0x40 DUP3 ADD MSTORE PUSH1 0x40 DUP2 PUSH1 0x60 DUP4 PUSH1 0x7 PUSH2 0x7D0 GAS SUB STATICCALL SWAP2 POP DUP2 PUSH2 0x257 JUMPI PUSH0 DUP1 MSTORE PUSH1 0x20 PUSH0 RETURN JUMPDEST DUP3 MLOAD PUSH1 0x40 DUP3 ADD MSTORE PUSH1 0x20 DUP4 ADD MLOAD PUSH1 0x60 DUP3 ADD MSTORE PUSH1 0x40 DUP4 PUSH1 0x80 DUP4 PUSH1 0x6 PUSH2 0x7D0 GAS SUB STATICCALL SWAP2 POP DUP2 PUSH2 0x285 JUMPI PUSH0 DUP1 MSTORE PUSH1 0x20 PUSH0 RETURN JUMPDEST POP POP POP POP POP POP JUMP JUMPDEST PUSH0 PUSH1 0x80 DUP7 ADD PUSH0 DUP8 ADD PUSH32 0x12AC9A25DCD5E1A832A9061A082C15DD1D61AA9C4D553505739D0F5D65DC3BE4 DUP2 MSTORE PUSH32 0x25AA744581EBE7AD91731911C898569106FF5A2D30F3EEE2B23C60EE980ACD4 PUSH1 0x20 DUP3 ADD MSTORE PUSH2 0x32D PUSH0 DUP9 ADD CALLDATALOAD PUSH32 0x2E32A094B7589554F7BC357BF63481ACD2D55555C203383782A4650787FF6642 PUSH32 0x707B920BC978C02F292FAE2036E057BE54294114CCC3C8769D883F688A1423F DUP5 PUSH2 0x227 JUMP JUMPDEST PUSH2 0x37D PUSH1 0x20 DUP9 ADD CALLDATALOAD PUSH32 0x2EDE7C9ACF48CF3A3729FA3D68714E2A8435D4FA6DB8F7F409C153B1FCDF9B8B PUSH32 0xBCA36E2CBE6394B3E249751853F961511011C7148E336F4FD974644850FC347 DUP5 PUSH2 0x227 JUMP JUMPDEST PUSH2 0x3CD PUSH1 0x40 DUP9 ADD CALLDATALOAD PUSH32 0x2B91A26AA92E1B6F5722949F192A81C850D586D81A60157F3E9CF04F679CCCD6 PUSH32 0x1B8AF999DBFBB3927C091CC2AAF201E488CBACC3E2C6B6FB5A25F9112E04F2A7 DUP5 PUSH2 0x227 JUMP JUMPDEST PUSH2 0x41D PUSH1 0x60 DUP9 ADD CALLDATALOAD PUSH32 0x2FE520AD2020AAB9CBBA817FCBB9A863B8A76FF88F14F912C5E71665B2AD5E82 PUSH32 0x2B5F494ED674235B8AC1750BDFD5A7615F002D4A1DCEFEDDD06EDA5A076CCD0D DUP5 PUSH2 0x227 JUMP JUMPDEST PUSH2 0x46D PUSH1 0x80 DUP9 ADD CALLDATALOAD PUSH32 0x214BFCFF74F425F6FE8C0D07B307482D8BC8BB2F3608F68287AA01BD0B69E809 PUSH32 0xF1C3C0D5D9DA0FA03666843CDE4E82E869BA5252FCE3C25D5940320B1C4D493 DUP5 PUSH2 0x227 JUMP JUMPDEST DUP4 CALLDATALOAD DUP3 MSTORE PUSH32 0x30644E72E131A029B85045B68181585D97816A916871CA8D3C208C16D87CFD47 PUSH1 0x20 DUP6 ADD CALLDATALOAD PUSH32 0x30644E72E131A029B85045B68181585D97816A916871CA8D3C208C16D87CFD47 SUB MOD PUSH1 0x20 DUP4 ADD MSTORE DUP5 CALLDATALOAD PUSH1 0x40 DUP4 ADD MSTORE PUSH1 0x20 DUP6 ADD CALLDATALOAD PUSH1 0x60 DUP4 ADD MSTORE PUSH1 0x40 DUP6 ADD CALLDATALOAD PUSH1 0x80 DUP4 ADD MSTORE PUSH1 0x60 DUP6 ADD CALLDATALOAD PUSH1 0xA0 DUP4 ADD MSTORE PUSH32 0x2D4D9AA7E302D9DF41749D5507949D05DBEA33FBB16C643B22F599A2BE6DF2E2 PUSH1 0xC0 DUP4 ADD MSTORE PUSH32 0x14BEDD503C37CEB061D8EC60209FE345CE89830A19230301F076CAFF004D1926 PUSH1 0xE0 DUP4 ADD MSTORE PUSH32 0x967032FCBF776D1AFC985F88877F182D38480A653F2DECAA9794CBC3BF3060C PUSH2 0x100 DUP4 ADD MSTORE PUSH32 0xE187847AD4C798374D0D6732BF501847DD68BC0E071241E0213BC7FC13DB7AB PUSH2 0x120 DUP4 ADD MSTORE PUSH32 0x304CFBD1E08A704A99F5E847D93F8C3CAAFDDEC46B7A0D379DA69A4D112346A7 PUSH2 0x140 DUP4 ADD MSTORE PUSH32 0x1739C1B1A457A8C7313123D24D2F9192F896B7C63EEA05A9D57F06547AD0CEC8 PUSH2 0x160 DUP4 ADD MSTORE PUSH0 DUP9 ADD MLOAD PUSH2 0x180 DUP4 ADD MSTORE PUSH1 0x20 PUSH0 ADD DUP9 ADD MLOAD PUSH2 0x1A0 DUP4 ADD MSTORE PUSH32 0x198E9393920D483A7260BFB731FB5D25F1AA493335A9E71297E485B7AEF312C2 PUSH2 0x1C0 DUP4 ADD MSTORE PUSH32 0x1800DEEF121F1E76426A00665E5C4479674322D4F75EDADD46DEBD5CD992F6ED PUSH2 0x1E0 DUP4 ADD MSTORE PUSH32 0x90689D0585FF075EC9E99AD690C3395BC4B313370B38EF355ACDADCD122975B PUSH2 0x200 DUP4 ADD MSTORE PUSH32 0x12C85EA5DB8C6DEB4AAB71808DCB408FE3D1E7690C43D37B4CE6CC0166FA7DAA PUSH2 0x220 DUP4 ADD MSTORE DUP6 CALLDATALOAD PUSH2 0x240 DUP4 ADD MSTORE PUSH1 0x20 DUP7 ADD CALLDATALOAD PUSH2 0x260 DUP4 ADD MSTORE PUSH32 0x3B03CD5EFFA95AC9BEE94F1F5EF907157BDA4812CCF0B4C91F42BB629F83A1C PUSH2 0x280 DUP4 ADD MSTORE PUSH32 0x1AA085FF28179A12D922DBA0547057CCAAE94B9D69CFAA4E60401FEA7F3E0333 PUSH2 0x2A0 DUP4 ADD MSTORE PUSH32 0x110C10134F200B19F6490846D518C9AEA868366EFB7228CA5C91D2940D030762 PUSH2 0x2C0 DUP4 ADD MSTORE PUSH32 0x1E60F31FCBF757E837E867178318832D0B2D74D59E2FEA1C7142DF187D3FC6D3 PUSH2 0x2E0 DUP4 ADD MSTORE PUSH1 0x20 DUP3 PUSH2 0x300 DUP5 PUSH1 0x8 PUSH2 0x7D0 GAS SUB STATICCALL DUP3 MLOAD DUP2 AND SWAP4 POP POP POP POP SWAP6 SWAP5 POP POP POP POP POP JUMP JUMPDEST PUSH1 0x40 MLOAD PUSH2 0x380 DUP2 ADD PUSH1 0x40 MSTORE PUSH2 0x766 PUSH0 DUP5 ADD CALLDATALOAD PUSH2 0x1F5 JUMP JUMPDEST PUSH2 0x773 PUSH1 0x20 DUP5 ADD CALLDATALOAD PUSH2 0x1F5 JUMP JUMPDEST PUSH2 0x780 PUSH1 0x40 DUP5 ADD CALLDATALOAD PUSH2 0x1F5 JUMP JUMPDEST PUSH2 0x78D PUSH1 0x60 DUP5 ADD CALLDATALOAD PUSH2 0x1F5 JUMP JUMPDEST PUSH2 0x79A PUSH1 0x80 DUP5 ADD CALLDATALOAD PUSH2 0x1F5 JUMP JUMPDEST PUSH2 0x7A7 PUSH1 0xA0 DUP5 ADD CALLDATALOAD PUSH2 0x1F5 JUMP JUMPDEST PUSH2 0x7B4 DUP2 DUP5 DUP7 DUP9 DUP11 PUSH2 0x28D JUMP JUMPDEST DUP1 PUSH0 MSTORE PUSH1 0x20 PUSH0 RETURN JUMPDEST PUSH32 0x0 DUP2 JUMP JUMPDEST PUSH32 0x0 DUP2 JUMP JUMPDEST PUSH2 0x820 DUP5 DUP5 PUSH2 0x81B PUSH2 0x816 DUP7 DUP7 PUSH2 0xB37 JUMP JUMPDEST PUSH2 0xBD9 JUMP JUMPDEST PUSH2 0x85F JUMP JUMPDEST POP POP POP POP JUMP JUMPDEST PUSH1 0x40 MLOAD DUP1 PUSH1 0x40 ADD PUSH1 0x40 MSTORE DUP1 PUSH1 0x5 DUP2 MSTORE PUSH1 0x20 ADD PUSH32 0x312E322E30000000000000000000000000000000000000000000000000000000 DUP2 MSTORE POP DUP2 JUMP JUMPDEST DUP3 DUP3 PUSH0 SWAP1 PUSH1 0x4 SWAP3 PUSH2 0x872 SWAP4 SWAP3 SWAP2 SWAP1 PUSH2 0x140F JUMP JUMPDEST SWAP1 PUSH2 0x87D SWAP2 SWAP1 PUSH2 0x145F JUMP JUMPDEST PUSH28 0xFFFFFFFFFFFFFFFFFFFFFFFFFFFFFFFFFFFFFFFFFFFFFFFFFFFFFFFF NOT AND PUSH32 0x0 PUSH28 0xFFFFFFFFFFFFFFFFFFFFFFFFFFFFFFFFFFFFFFFFFFFFFFFFFFFFFFFF NOT AND EQ PUSH2 0x95D JUMPI DUP3 DUP3 PUSH0 SWAP1 PUSH1 0x4 SWAP3 PUSH2 0x8F4 SWAP4 SWAP3 SWAP2 SWAP1 PUSH2 0x140F JUMP JUMPDEST SWAP1 PUSH2 0x8FF SWAP2 SWAP1 PUSH2 0x145F JUMP JUMPDEST PUSH32 0x0 PUSH1 0x40 MLOAD PUSH32 0xB8B38D4C00000000000000000000000000000000000000000000000000000000 DUP2 MSTORE PUSH1 0x4 ADD PUSH2 0x954 SWAP3 SWAP2 SWAP1 PUSH2 0x14BD JUMP JUMPDEST PUSH1 0x40 MLOAD DUP1 SWAP2 SUB SWAP1 REVERT JUMPDEST PUSH0 DUP1 PUSH2 0x968 DUP4 PUSH2 0xCF6 JUMP JUMPDEST SWAP2 POP SWAP2 POP PUSH0 DUP6 DUP6 PUSH1 0x4 SWAP1 DUP1 SWAP3 PUSH2 0x980 SWAP4 SWAP3 SWAP2 SWAP1 PUSH2 0x140F JUMP JUMPDEST DUP2 ADD SWAP1 PUSH2 0x98D SWAP2 SWAP1 PUSH2 0x1751 JUMP JUMPDEST SWAP1 POP PUSH0 ADDRESS PUSH20 0xFFFFFFFFFFFFFFFFFFFFFFFFFFFFFFFFFFFFFFFF AND PUSH4 0x34BAEAB9 DUP4 PUSH0 ADD MLOAD DUP5 PUSH1 0x20 ADD MLOAD DUP6 PUSH1 0x40 ADD MLOAD PUSH1 0x40 MLOAD DUP1 PUSH1 0xA0 ADD PUSH1 0x40 MSTORE DUP1 PUSH32 0x0 PUSH1 0x80 SHR PUSH16 0xFFFFFFFFFFFFFFFFFFFFFFFFFFFFFFFF AND DUP2 MSTORE PUSH1 0x20 ADD PUSH32 0x0 PUSH1 0x80 SHR PUSH16 0xFFFFFFFFFFFFFFFFFFFFFFFFFFFFFFFF AND DUP2 MSTORE PUSH1 0x20 ADD DUP11 PUSH1 0x80 SHR PUSH16 0xFFFFFFFFFFFFFFFFFFFFFFFFFFFFFFFF AND DUP2 MSTORE PUSH1 0x20 ADD DUP10 PUSH1 0x80 SHR PUSH16 0xFFFFFFFFFFFFFFFFFFFFFFFFFFFFFFFF AND DUP2 MSTORE PUSH1 0x20 ADD PUSH32 0x0 PUSH0 SHR DUP2 MSTORE POP PUSH1 0x40 MLOAD DUP6 PUSH4 0xFFFFFFFF AND PUSH1 0xE0 SHL DUP2 MSTORE PUSH1 0x4 ADD PUSH2 0xAB6 SWAP5 SWAP4 SWAP3 SWAP2 SWAP1 PUSH2 0x1997 JUMP JUMPDEST PUSH1 0x20 PUSH1 0x40 MLOAD DUP1 DUP4 SUB DUP2 DUP7 GAS STATICCALL ISZERO DUP1 ISZERO PUSH2 0xAD1 JUMPI RETURNDATASIZE PUSH0 DUP1 RETURNDATACOPY RETURNDATASIZE PUSH0 REVERT JUMPDEST POP POP POP POP PUSH1 0x40 MLOAD RETURNDATASIZE PUSH1 0x1F NOT PUSH1 0x1F DUP3 ADD AND DUP3 ADD DUP1 PUSH1 0x40 MSTORE POP DUP2 ADD SWAP1 PUSH2 0xAF5 SWAP2 SWAP1 PUSH2 0x1A06 JUMP JUMPDEST SWAP1 POP DUP1 PUSH2 0xB2E JUMPI PUSH1 0x40 MLOAD PUSH32 0x439CC0CD00000000000000000000000000000000000000000000000000000000 DUP2 MSTORE PUSH1 0x4 ADD PUSH1 0x40 MLOAD DUP1 SWAP2 SUB SWAP1 REVERT JUMPDEST POP POP POP POP POP POP POP JUMP JUMPDEST PUSH2 0xB3F PUSH2 0xF3C JUMP JUMPDEST PUSH1 0x40 MLOAD DUP1 PUSH1 0xA0 ADD PUSH1 0x40 MSTORE DUP1 DUP5 DUP2 MSTORE PUSH1 0x20 ADD PUSH32 0xA3ACC27117418996340B84E5A90F3EF4C49D22C79E44AAD822EC9C313E1EB8E2 PUSH0 SHL DUP2 MSTORE PUSH1 0x20 ADD PUSH1 0x40 MLOAD DUP1 PUSH1 0x40 ADD PUSH1 0x40 MSTORE DUP1 PUSH0 PUSH1 0x2 DUP2 GT ISZERO PUSH2 0xB96 JUMPI PUSH2 0xB95 PUSH2 0x1A31 JUMP JUMPDEST JUMPDEST DUP2 MSTORE PUSH1 0x20 ADD PUSH0 PUSH1 0xFF AND DUP2 MSTORE POP DUP2 MSTORE PUSH1 0x20 ADD PUSH0 DUP1 SHL DUP2 MSTORE PUSH1 0x20 ADD PUSH2 0xBCE PUSH1 0x40 MLOAD DUP1 PUSH1 0x40 ADD PUSH1 0x40 MSTORE DUP1 DUP7 DUP2 MSTORE PUSH1 0x20 ADD PUSH0 DUP1 SHL DUP2 MSTORE POP PUSH2 0xD1C JUMP JUMPDEST DUP2 MSTORE POP SWAP1 POP SWAP3 SWAP2 POP POP JUMP JUMPDEST PUSH0 PUSH1 0x2 DUP1 PUSH1 0x40 MLOAD PUSH2 0xBE9 SWAP1 PUSH2 0x1AB2 JUMP JUMPDEST PUSH1 0x20 PUSH1 0x40 MLOAD DUP1 DUP4 SUB DUP2 DUP6 GAS STATICCALL ISZERO DUP1 ISZERO PUSH2 0xC04 JUMPI RETURNDATASIZE PUSH0 DUP1 RETURNDATACOPY RETURNDATASIZE PUSH0 REVERT JUMPDEST POP POP POP PUSH1 0x40 MLOAD RETURNDATASIZE PUSH1 0x1F NOT PUSH1 0x1F DUP3 ADD AND DUP3 ADD DUP1 PUSH1 0x40 MSTORE POP DUP2 ADD SWAP1 PUSH2 0xC27 SWAP2 SWAP1 PUSH2 0x1ADA JUMP JUMPDEST DUP4 PUSH1 0x60 ADD MLOAD DUP5 PUSH0 ADD MLOAD DUP6 PUSH1 0x20 ADD MLOAD DUP7 PUSH1 0x80 ADD MLOAD PUSH1 0x18 DUP9 PUSH1 0x40 ADD MLOAD PUSH0 ADD MLOAD PUSH1 0x2 DUP2 GT ISZERO PUSH2 0xC56 JUMPI PUSH2 0xC55 PUSH2 0x1A31 JUMP JUMPDEST JUMPDEST PUSH4 0xFFFFFFFF AND SWAP1 SHL PUSH1 0x18 DUP10 PUSH1 0x40 ADD MLOAD PUSH1 0x20 ADD MLOAD PUSH1 0xFF AND PUSH4 0xFFFFFFFF AND SWAP1 SHL PUSH1 0x8 PUSH1 0x4 PUSH2 0xFFFF AND SWAP1 SHL PUSH1 0x40 MLOAD PUSH1 0x20 ADD PUSH2 0xC95 SWAP9 SWAP8 SWAP7 SWAP6 SWAP5 SWAP4 SWAP3 SWAP2 SWAP1 PUSH2 0x1BA9 JUMP JUMPDEST PUSH1 0x40 MLOAD PUSH1 0x20 DUP2 DUP4 SUB SUB DUP2 MSTORE SWAP1 PUSH1 0x40 MSTORE PUSH1 0x40 MLOAD PUSH2 0xCB1 SWAP2 SWAP1 PUSH2 0x1C74 JUMP JUMPDEST PUSH1 0x20 PUSH1 0x40 MLOAD DUP1 DUP4 SUB DUP2 DUP6 GAS STATICCALL ISZERO DUP1 ISZERO PUSH2 0xCCC JUMPI RETURNDATASIZE PUSH0 DUP1 RETURNDATACOPY RETURNDATASIZE PUSH0 REVERT JUMPDEST POP POP POP PUSH1 0x40 MLOAD RETURNDATASIZE PUSH1 0x1F NOT PUSH1 0x1F DUP3 ADD AND DUP3 ADD DUP1 PUSH1 0x40 MSTORE POP DUP2 ADD SWAP1 PUSH2 0xCEF SWAP2 SWAP1 PUSH2 0x1ADA JUMP JUMPDEST SWAP1 POP SWAP2 SWAP1 POP JUMP JUMPDEST PUSH0 DUP1 PUSH0 PUSH2 0xD04 DUP5 PUSH0 SHR PUSH2 0xDF1 JUMP JUMPDEST SWAP1 POP DUP1 PUSH1 0x80 SHL PUSH1 0x80 DUP3 SWAP1 SHR PUSH1 0x80 SHL SWAP3 POP SWAP3 POP POP SWAP2 POP SWAP2 JUMP JUMPDEST PUSH0 PUSH1 0x2 DUP1 PUSH1 0x40 MLOAD PUSH2 0xD2C SWAP1 PUSH2 0x1CD4 JUMP JUMPDEST PUSH1 0x20 PUSH1 0x40 MLOAD DUP1 DUP4 SUB DUP2 DUP6 GAS STATICCALL ISZERO DUP1 ISZERO PUSH2 0xD47 JUMPI RETURNDATASIZE PUSH0 DUP1 RETURNDATACOPY RETURNDATASIZE PUSH0 REVERT JUMPDEST POP POP POP PUSH1 0x40 MLOAD RETURNDATASIZE PUSH1 0x1F NOT PUSH1 0x1F DUP3 ADD AND DUP3 ADD DUP1 PUSH1 0x40 MSTORE POP DUP2 ADD SWAP1 PUSH2 0xD6A SWAP2 SWAP1 PUSH2 0x1ADA JUMP JUMPDEST DUP4 PUSH0 ADD MLOAD DUP5 PUSH1 0x20 ADD MLOAD PUSH1 0x8 PUSH1 0x2 PUSH2 0xFFFF AND SWAP1 SHL PUSH1 0x40 MLOAD PUSH1 0x20 ADD PUSH2 0xD90 SWAP5 SWAP4 SWAP3 SWAP2 SWAP1 PUSH2 0x1CE8 JUMP JUMPDEST PUSH1 0x40 MLOAD PUSH1 0x20 DUP2 DUP4 SUB SUB DUP2 MSTORE SWAP1 PUSH1 0x40 MSTORE PUSH1 0x40 MLOAD PUSH2 0xDAC SWAP2 SWAP1 PUSH2 0x1C74 JUMP JUMPDEST PUSH1 0x20 PUSH1 0x40 MLOAD DUP1 DUP4 SUB DUP2 DUP6 GAS STATICCALL ISZERO DUP1 ISZERO PUSH2 0xDC7 JUMPI RETURNDATASIZE PUSH0 DUP1 RETURNDATACOPY RETURNDATASIZE PUSH0 REVERT JUMPDEST POP POP POP PUSH1 0x40 MLOAD RETURNDATASIZE PUSH1 0x1F NOT PUSH1 0x1F DUP3 ADD AND DUP3 ADD DUP1 PUSH1 0x40 MSTORE POP DUP2 ADD SWAP1 PUSH2 0xDEA SWAP2 SWAP1 PUSH2 0x1ADA JUMP JUMPDEST SWAP1 POP SWAP2 SWAP1 POP JUMP JUMPDEST PUSH0 DUP2 SWAP1 POP PUSH1 0x8 PUSH31 0xFF00FF00FF00FF00FF00FF00FF00FF00FF00FF00FF00FF00FF00FF00FF00FF DUP3 AND SWAP1 SHL PUSH1 0x8 PUSH32 0xFF00FF00FF00FF00FF00FF00FF00FF00FF00FF00FF00FF00FF00FF00FF00FF00 DUP4 AND SWAP1 SHR OR SWAP1 POP PUSH1 0x10 PUSH30 0xFFFF0000FFFF0000FFFF0000FFFF0000FFFF0000FFFF0000FFFF0000FFFF DUP3 AND SWAP1 SHL PUSH1 0x10 PUSH32 0xFFFF0000FFFF0000FFFF0000FFFF0000FFFF0000FFFF0000FFFF0000FFFF0000 DUP4 AND SWAP1 SHR OR SWAP1 POP PUSH1 0x20 PUSH28 0xFFFFFFFF00000000FFFFFFFF00000000FFFFFFFF00000000FFFFFFFF DUP3 AND SWAP1 SHL PUSH1 0x20 PUSH32 0xFFFFFFFF00000000FFFFFFFF00000000FFFFFFFF00000000FFFFFFFF00000000 DUP4 AND SWAP1 SHR OR SWAP1 POP PUSH1 0x40 PUSH24 0xFFFFFFFFFFFFFFFF0000000000000000FFFFFFFFFFFFFFFF DUP3 AND SWAP1 SHL PUSH1 0x40 PUSH32 0xFFFFFFFFFFFFFFFF0000000000000000FFFFFFFFFFFFFFFF0000000000000000 DUP4 AND SWAP1 SHR OR SWAP1 POP PUSH1 0x80 DUP2 SWAP1 SHL PUSH1 0x80 DUP3 SWAP1 SHR OR SWAP1 POP SWAP2 SWAP1 POP JUMP JUMPDEST PUSH1 0x40 MLOAD DUP1 PUSH1 0xA0 ADD PUSH1 0x40 MSTORE DUP1 PUSH0 DUP1 NOT AND DUP2 MSTORE PUSH1 0x20 ADD PUSH0 DUP1 NOT AND DUP2 MSTORE PUSH1 0x20 ADD PUSH2 0xF61 PUSH2 0xF79 JUMP JUMPDEST DUP2 MSTORE PUSH1 0x20 ADD PUSH0 DUP1 NOT AND DUP2 MSTORE PUSH1 0x20 ADD PUSH0 DUP1 NOT AND DUP2 MSTORE POP SWAP1 JUMP JUMPDEST PUSH1 0x40 MLOAD DUP1 PUSH1 0x40 ADD PUSH1 0x40 MSTORE DUP1 PUSH0 PUSH1 0x2 DUP2 GT ISZERO PUSH2 0xF97 JUMPI PUSH2 0xF96 PUSH2 0x1A31 JUMP JUMPDEST JUMPDEST DUP2 MSTORE PUSH1 0x20 ADD PUSH0 PUSH1 0xFF AND DUP2 MSTORE POP SWAP1 JUMP JUMPDEST PUSH0 PUSH32 0xFFFFFFFF00000000000000000000000000000000000000000000000000000000 DUP3 AND SWAP1 POP SWAP2 SWAP1 POP JUMP JUMPDEST PUSH2 0xFDA DUP2 PUSH2 0xFA6 JUMP JUMPDEST DUP3 MSTORE POP POP JUMP JUMPDEST PUSH0 PUSH1 0x20 DUP3 ADD SWAP1 POP PUSH2 0xFF3 PUSH0 DUP4 ADD DUP5 PUSH2 0xFD1 JUMP JUMPDEST SWAP3 SWAP2 POP POP JUMP JUMPDEST PUSH0 PUSH1 0x40 MLOAD SWAP1 POP SWAP1 JUMP JUMPDEST PUSH0 DUP1 REVERT JUMPDEST PUSH0 DUP1 REVERT JUMPDEST PUSH0 DUP1 REVERT JUMPDEST PUSH0 PUSH1 0x40 DUP3 DUP5 SUB SLT ISZERO PUSH2 0x1023 JUMPI PUSH2 0x1022 PUSH2 0x100A JUMP JUMPDEST JUMPDEST DUP2 SWAP1 POP SWAP3 SWAP2 POP POP JUMP JUMPDEST PUSH0 PUSH1 0x20 DUP3 DUP5 SUB SLT ISZERO PUSH2 0x1041 JUMPI PUSH2 0x1040 PUSH2 0x1002 JUMP JUMPDEST JUMPDEST PUSH0 DUP3 ADD CALLDATALOAD PUSH8 0xFFFFFFFFFFFFFFFF DUP2 GT ISZERO PUSH2 0x105E JUMPI PUSH2 0x105D PUSH2 0x1006 JUMP JUMPDEST JUMPDEST PUSH2 0x106A DUP5 DUP3 DUP6 ADD PUSH2 0x100E JUMP JUMPDEST SWAP2 POP POP SWAP3 SWAP2 POP POP JUMP JUMPDEST PUSH0 DUP2 SWAP1 POP SWAP2 SWAP1 POP JUMP JUMPDEST PUSH2 0x1085 DUP2 PUSH2 0x1073 JUMP JUMPDEST DUP3 MSTORE POP POP JUMP JUMPDEST PUSH0 PUSH1 0x20 DUP3 ADD SWAP1 POP PUSH2 0x109E PUSH0 DUP4 ADD DUP5 PUSH2 0x107C JUMP JUMPDEST SWAP3 SWAP2 POP POP JUMP JUMPDEST PUSH0 DUP1 REVERT JUMPDEST PUSH0 DUP2 SWAP1 POP DUP3 PUSH1 0x20 PUSH1 0x2 MUL DUP3 ADD GT ISZERO PUSH2 0x10C3 JUMPI PUSH2 0x10C2 PUSH2 0x10A4 JUMP JUMPDEST JUMPDEST SWAP3 SWAP2 POP POP JUMP JUMPDEST PUSH0 DUP2 SWAP1 POP DUP3 PUSH1 0x40 PUSH1 0x2 MUL DUP3 ADD GT ISZERO PUSH2 0x10E4 JUMPI PUSH2 0x10E3 PUSH2 0x10A4 JUMP JUMPDEST JUMPDEST SWAP3 SWAP2 POP POP JUMP JUMPDEST PUSH0 DUP2 SWAP1 POP DUP3 PUSH1 0x20 PUSH1 0x5 MUL DUP3 ADD GT ISZERO PUSH2 0x1105 JUMPI PUSH2 0x1104 PUSH2 0x10A4 JUMP JUMPDEST JUMPDEST SWAP3 SWAP2 POP POP JUMP JUMPDEST PUSH0 DUP1 PUSH0 DUP1 PUSH2 0x1A0 DUP6 DUP8 SUB SLT ISZERO PUSH2 0x1124 JUMPI PUSH2 0x1123 PUSH2 0x1002 JUMP JUMPDEST JUMPDEST PUSH0 PUSH2 0x1131 DUP8 DUP3 DUP9 ADD PUSH2 0x10A8 JUMP JUMPDEST SWAP5 POP POP PUSH1 0x40 PUSH2 0x1142 DUP8 DUP3 DUP9 ADD PUSH2 0x10C9 JUMP JUMPDEST SWAP4 POP POP PUSH1 0xC0 PUSH2 0x1153 DUP8 DUP3 DUP9 ADD PUSH2 0x10A8 JUMP JUMPDEST SWAP3 POP POP PUSH2 0x100 PUSH2 0x1165 DUP8 DUP3 DUP9 ADD PUSH2 0x10EA JUMP JUMPDEST SWAP2 POP POP SWAP3 SWAP6 SWAP2 SWAP5 POP SWAP3 POP JUMP JUMPDEST PUSH0 DUP2 ISZERO ISZERO SWAP1 POP SWAP2 SWAP1 POP JUMP JUMPDEST PUSH2 0x1185 DUP2 PUSH2 0x1171 JUMP JUMPDEST DUP3 MSTORE POP POP JUMP JUMPDEST PUSH0 PUSH1 0x20 DUP3 ADD SWAP1 POP PUSH2 0x119E PUSH0 DUP4 ADD DUP5 PUSH2 0x117C JUMP JUMPDEST SWAP3 SWAP2 POP POP JUMP JUMPDEST PUSH0 PUSH32 0xFFFFFFFFFFFFFFFFFFFFFFFFFFFFFFFF00000000000000000000000000000000 DUP3 AND SWAP1 POP SWAP2 SWAP1 POP JUMP JUMPDEST PUSH2 0x11D8 DUP2 PUSH2 0x11A4 JUMP JUMPDEST DUP3 MSTORE POP POP JUMP JUMPDEST PUSH0 PUSH1 0x20 DUP3 ADD SWAP1 POP PUSH2 0x11F1 PUSH0 DUP4 ADD DUP5 PUSH2 0x11CF JUMP JUMPDEST SWAP3 SWAP2 POP POP JUMP JUMPDEST PUSH0 DUP1 REVERT JUMPDEST PUSH0 DUP1 REVERT JUMPDEST PUSH0 DUP1 DUP4 PUSH1 0x1F DUP5 ADD SLT PUSH2 0x1214 JUMPI PUSH2 0x1213 PUSH2 0x11F7 JUMP JUMPDEST JUMPDEST DUP3 CALLDATALOAD SWAP1 POP PUSH8 0xFFFFFFFFFFFFFFFF DUP2 GT ISZERO PUSH2 0x1231 JUMPI PUSH2 0x1230 PUSH2 0x11FB JUMP JUMPDEST JUMPDEST PUSH1 0x20 DUP4 ADD SWAP2 POP DUP4 PUSH1 0x1 DUP3 MUL DUP4 ADD GT ISZERO PUSH2 0x124D JUMPI PUSH2 0x124C PUSH2 0x10A4 JUMP JUMPDEST JUMPDEST SWAP3 POP SWAP3 SWAP1 POP JUMP JUMPDEST PUSH2 0x125D DUP2 PUSH2 0x1073 JUMP JUMPDEST DUP2 EQ PUSH2 0x1267 JUMPI PUSH0 DUP1 REVERT JUMPDEST POP JUMP JUMPDEST PUSH0 DUP2 CALLDATALOAD SWAP1 POP PUSH2 0x1278 DUP2 PUSH2 0x1254 JUMP JUMPDEST SWAP3 SWAP2 POP POP JUMP JUMPDEST PUSH0 DUP1 PUSH0 DUP1 PUSH1 0x60 DUP6 DUP8 SUB SLT ISZERO PUSH2 0x1296 JUMPI PUSH2 0x1295 PUSH2 0x1002 JUMP JUMPDEST JUMPDEST PUSH0 DUP6 ADD CALLDATALOAD PUSH8 0xFFFFFFFFFFFFFFFF DUP2 GT ISZERO PUSH2 0x12B3 JUMPI PUSH2 0x12B2 PUSH2 0x1006 JUMP JUMPDEST JUMPDEST PUSH2 0x12BF DUP8 DUP3 DUP9 ADD PUSH2 0x11FF JUMP JUMPDEST SWAP5 POP SWAP5 POP POP PUSH1 0x20 PUSH2 0x12D2 DUP8 DUP3 DUP9 ADD PUSH2 0x126A JUMP JUMPDEST SWAP3 POP POP PUSH1 0x40 PUSH2 0x12E3 DUP8 DUP3 DUP9 ADD PUSH2 0x126A JUMP JUMPDEST SWAP2 POP POP SWAP3 SWAP6 SWAP2 SWAP5 POP SWAP3 POP JUMP JUMPDEST PUSH0 DUP2 MLOAD SWAP1 POP SWAP2 SWAP1 POP JUMP JUMPDEST PUSH0 DUP3 DUP3 MSTORE PUSH1 0x20 DUP3 ADD SWAP1 POP SWAP3 SWAP2 POP POP JUMP JUMPDEST PUSH0 JUMPDEST DUP4 DUP2 LT ISZERO PUSH2 0x1326 JUMPI DUP1 DUP3 ADD MLOAD DUP2 DUP5 ADD MSTORE PUSH1 0x20 DUP2 ADD SWAP1 POP PUSH2 0x130B JUMP JUMPDEST PUSH0 DUP5 DUP5 ADD MSTORE POP POP POP POP JUMP JUMPDEST PUSH0 PUSH1 0x1F NOT PUSH1 0x1F DUP4 ADD AND SWAP1 POP SWAP2 SWAP1 POP JUMP JUMPDEST PUSH0 PUSH2 0x134B DUP3 PUSH2 0x12EF JUMP JUMPDEST PUSH2 0x1355 DUP2 DUP6 PUSH2 0x12F9 JUMP JUMPDEST SWAP4 POP PUSH2 0x1365 DUP2 DUP6 PUSH1 0x20 DUP7 ADD PUSH2 0x1309 JUMP JUMPDEST PUSH2 0x136E DUP2 PUSH2 0x1331 JUMP JUMPDEST DUP5 ADD SWAP2 POP POP SWAP3 SWAP2 POP POP JUMP JUMPDEST PUSH0 PUSH1 0x20 DUP3 ADD SWAP1 POP DUP2 DUP2 SUB PUSH0 DUP4 ADD MSTORE PUSH2 0x1391 DUP2 DUP5 PUSH2 0x1341 JUMP JUMPDEST SWAP1 POP SWAP3 SWAP2 POP POP JUMP JUMPDEST PUSH0 DUP1 REVERT JUMPDEST PUSH0 DUP1 REVERT JUMPDEST PUSH0 DUP1 REVERT JUMPDEST PUSH0 DUP1 DUP4 CALLDATALOAD PUSH1 0x1 PUSH1 0x20 SUB DUP5 CALLDATASIZE SUB SUB DUP2 SLT PUSH2 0x13C1 JUMPI PUSH2 0x13C0 PUSH2 0x1399 JUMP JUMPDEST JUMPDEST DUP1 DUP5 ADD SWAP3 POP DUP3 CALLDATALOAD SWAP2 POP PUSH8 0xFFFFFFFFFFFFFFFF DUP3 GT ISZERO PUSH2 0x13E3 JUMPI PUSH2 0x13E2 PUSH2 0x139D JUMP JUMPDEST JUMPDEST PUSH1 0x20 DUP4 ADD SWAP3 POP PUSH1 0x1 DUP3 MUL CALLDATASIZE SUB DUP4 SGT ISZERO PUSH2 0x13FF JUMPI PUSH2 0x13FE PUSH2 0x13A1 JUMP JUMPDEST JUMPDEST POP SWAP3 POP SWAP3 SWAP1 POP JUMP JUMPDEST PUSH0 DUP1 REVERT JUMPDEST PUSH0 DUP1 REVERT JUMPDEST PUSH0 DUP1 DUP6 DUP6 GT ISZERO PUSH2 0x1422 JUMPI PUSH2 0x1421 PUSH2 0x1407 JUMP JUMPDEST JUMPDEST DUP4 DUP7 GT ISZERO PUSH2 0x1433 JUMPI PUSH2 0x1432 PUSH2 0x140B JUMP JUMPDEST JUMPDEST PUSH1 0x1 DUP6 MUL DUP4 ADD SWAP2 POP DUP5 DUP7 SUB SWAP1 POP SWAP5 POP SWAP5 SWAP3 POP POP POP JUMP JUMPDEST PUSH0 DUP3 SWAP1 POP SWAP3 SWAP2 POP POP JUMP JUMPDEST PUSH0 DUP3 DUP3 SHL SWAP1 POP SWAP3 SWAP2 POP POP JUMP JUMPDEST PUSH0 PUSH2 0x146A DUP4 DUP4 PUSH2 0x1449 JUMP JUMPDEST DUP3 PUSH2 0x1475 DUP2 CALLDATALOAD PUSH2 0xFA6 JUMP JUMPDEST SWAP3 POP PUSH1 0x4 DUP3 LT ISZERO PUSH2 0x14B5 JUMPI PUSH2 0x14B0 PUSH32 0xFFFFFFFF00000000000000000000000000000000000000000000000000000000 DUP4 PUSH1 0x4 SUB PUSH1 0x8 MUL PUSH2 0x1453 JUMP JUMPDEST DUP4 AND SWAP3 POP JUMPDEST POP POP SWAP3 SWAP2 POP POP JUMP JUMPDEST PUSH0 PUSH1 0x40 DUP3 ADD SWAP1 POP PUSH2 0x14D0 PUSH0 DUP4 ADD DUP6 PUSH2 0xFD1 JUMP JUMPDEST PUSH2 0x14DD PUSH1 0x20 DUP4 ADD DUP5 PUSH2 0xFD1 JUMP JUMPDEST SWAP4 SWAP3 POP POP POP JUMP JUMPDEST PUSH0 DUP1 REVERT JUMPDEST PUSH32 0x4E487B7100000000000000000000000000000000000000000000000000000000 PUSH0 MSTORE PUSH1 0x41 PUSH1 0x4 MSTORE PUSH1 0x24 PUSH0 REVERT JUMPDEST PUSH2 0x151E DUP3 PUSH2 0x1331 JUMP JUMPDEST DUP2 ADD DUP2 DUP2 LT PUSH8 0xFFFFFFFFFFFFFFFF DUP3 GT OR ISZERO PUSH2 0x153D JUMPI PUSH2 0x153C PUSH2 0x14E8 JUMP JUMPDEST JUMPDEST DUP1 PUSH1 0x40 MSTORE POP POP POP JUMP JUMPDEST PUSH0 PUSH2 0x154F PUSH2 0xFF9 JUMP JUMPDEST SWAP1 POP PUSH2 0x155B DUP3 DUP3 PUSH2 0x1515 JUMP JUMPDEST SWAP2 SWAP1 POP JUMP JUMPDEST PUSH0 PUSH8 0xFFFFFFFFFFFFFFFF DUP3 GT ISZERO PUSH2 0x157A JUMPI PUSH2 0x1579 PUSH2 0x14E8 JUMP JUMPDEST JUMPDEST PUSH1 0x20 DUP3 MUL SWAP1 POP SWAP2 SWAP1 POP JUMP JUMPDEST PUSH0 DUP2 SWAP1 POP SWAP2 SWAP1 POP JUMP JUMPDEST PUSH2 0x1597 DUP2 PUSH2 0x1585 JUMP JUMPDEST DUP2 EQ PUSH2 0x15A1 JUMPI PUSH0 DUP1 REVERT JUMPDEST POP JUMP JUMPDEST PUSH0 DUP2 CALLDATALOAD SWAP1 POP PUSH2 0x15B2 DUP2 PUSH2 0x158E JUMP JUMPDEST SWAP3 SWAP2 POP POP JUMP JUMPDEST PUSH0 PUSH2 0x15CA PUSH2 0x15C5 DUP5 PUSH2 0x1560 JUMP JUMPDEST PUSH2 0x1546 JUMP JUMPDEST SWAP1 POP DUP1 PUSH1 0x20 DUP5 MUL DUP4 ADD DUP6 DUP2 GT ISZERO PUSH2 0x15E4 JUMPI PUSH2 0x15E3 PUSH2 0x10A4 JUMP JUMPDEST JUMPDEST DUP4 JUMPDEST DUP2 DUP2 LT ISZERO PUSH2 0x160D JUMPI DUP1 PUSH2 0x15F9 DUP9 DUP3 PUSH2 0x15A4 JUMP JUMPDEST DUP5 MSTORE PUSH1 0x20 DUP5 ADD SWAP4 POP POP PUSH1 0x20 DUP2 ADD SWAP1 POP PUSH2 0x15E6 JUMP JUMPDEST POP POP POP SWAP4 SWAP3 POP POP POP JUMP JUMPDEST PUSH0 DUP3 PUSH1 0x1F DUP4 ADD SLT PUSH2 0x162B JUMPI PUSH2 0x162A PUSH2 0x11F7 JUMP JUMPDEST JUMPDEST PUSH1 0x2 PUSH2 0x1638 DUP5 DUP3 DUP6 PUSH2 0x15B8 JUMP JUMPDEST SWAP2 POP POP SWAP3 SWAP2 POP POP JUMP JUMPDEST PUSH0 PUSH8 0xFFFFFFFFFFFFFFFF DUP3 GT ISZERO PUSH2 0x165B JUMPI PUSH2 0x165A PUSH2 0x14E8 JUMP JUMPDEST JUMPDEST PUSH1 0x20 DUP3 MUL SWAP1 POP SWAP2 SWAP1 POP JUMP JUMPDEST PUSH0 PUSH2 0x1678 PUSH2 0x1673 DUP5 PUSH2 0x1641 JUMP JUMPDEST PUSH2 0x1546 JUMP JUMPDEST SWAP1 POP DUP1 PUSH1 0x40 DUP5 MUL DUP4 ADD DUP6 DUP2 GT ISZERO PUSH2 0x1692 JUMPI PUSH2 0x1691 PUSH2 0x10A4 JUMP JUMPDEST JUMPDEST DUP4 JUMPDEST DUP2 DUP2 LT ISZERO PUSH2 0x16BB JUMPI DUP1 PUSH2 0x16A7 DUP9 DUP3 PUSH2 0x1617 JUMP JUMPDEST DUP5 MSTORE PUSH1 0x20 DUP5 ADD SWAP4 POP POP PUSH1 0x40 DUP2 ADD SWAP1 POP PUSH2 0x1694 JUMP JUMPDEST POP POP POP SWAP4 SWAP3 POP POP POP JUMP JUMPDEST PUSH0 DUP3 PUSH1 0x1F DUP4 ADD SLT PUSH2 0x16D9 JUMPI PUSH2 0x16D8 PUSH2 0x11F7 JUMP JUMPDEST JUMPDEST PUSH1 0x2 PUSH2 0x16E6 DUP5 DUP3 DUP6 PUSH2 0x1666 JUMP JUMPDEST SWAP2 POP POP SWAP3 SWAP2 POP POP JUMP JUMPDEST PUSH0 PUSH2 0x100 DUP3 DUP5 SUB SLT ISZERO PUSH2 0x1705 JUMPI PUSH2 0x1704 PUSH2 0x14E4 JUMP JUMPDEST JUMPDEST PUSH2 0x170F PUSH1 0x60 PUSH2 0x1546 JUMP JUMPDEST SWAP1 POP PUSH0 PUSH2 0x171E DUP5 DUP3 DUP6 ADD PUSH2 0x1617 JUMP JUMPDEST PUSH0 DUP4 ADD MSTORE POP PUSH1 0x40 PUSH2 0x1731 DUP5 DUP3 DUP6 ADD PUSH2 0x16C5 JUMP JUMPDEST PUSH1 0x20 DUP4 ADD MSTORE POP PUSH1 0xC0 PUSH2 0x1745 DUP5 DUP3 DUP6 ADD PUSH2 0x1617 JUMP JUMPDEST PUSH1 0x40 DUP4 ADD MSTORE POP SWAP3 SWAP2 POP POP JUMP JUMPDEST PUSH0 PUSH2 0x100 DUP3 DUP5 SUB SLT ISZERO PUSH2 0x1767 JUMPI PUSH2 0x1766 PUSH2 0x1002 JUMP JUMPDEST JUMPDEST PUSH0 PUSH2 0x1774 DUP5 DUP3 DUP6 ADD PUSH2 0x16EF JUMP JUMPDEST SWAP2 POP POP SWAP3 SWAP2 POP POP JUMP JUMPDEST PUSH0 PUSH1 0x2 SWAP1 POP SWAP2 SWAP1 POP JUMP JUMPDEST PUSH0 DUP2 SWAP1 POP SWAP3 SWAP2 POP POP JUMP JUMPDEST PUSH0 DUP2 SWAP1 POP SWAP2 SWAP1 POP JUMP JUMPDEST PUSH2 0x17A3 DUP2 PUSH2 0x1585 JUMP JUMPDEST DUP3 MSTORE POP POP JUMP JUMPDEST PUSH0 PUSH2 0x17B4 DUP4 DUP4 PUSH2 0x179A JUMP JUMPDEST PUSH1 0x20 DUP4 ADD SWAP1 POP SWAP3 SWAP2 POP POP JUMP JUMPDEST PUSH0 PUSH1 0x20 DUP3 ADD SWAP1 POP SWAP2 SWAP1 POP JUMP JUMPDEST PUSH2 0x17D5 DUP2 PUSH2 0x177D JUMP JUMPDEST PUSH2 0x17DF DUP2 DUP5 PUSH2 0x1787 JUMP JUMPDEST SWAP3 POP PUSH2 0x17EA DUP3 PUSH2 0x1791 JUMP JUMPDEST DUP1 PUSH0 JUMPDEST DUP4 DUP2 LT ISZERO PUSH2 0x181A JUMPI DUP2 MLOAD PUSH2 0x1801 DUP8 DUP3 PUSH2 0x17A9 JUMP JUMPDEST SWAP7 POP PUSH2 0x180C DUP4 PUSH2 0x17C0 JUMP JUMPDEST SWAP3 POP POP PUSH1 0x1 DUP2 ADD SWAP1 POP PUSH2 0x17ED JUMP JUMPDEST POP POP POP POP POP POP JUMP JUMPDEST PUSH0 PUSH1 0x2 SWAP1 POP SWAP2 SWAP1 POP JUMP JUMPDEST PUSH0 DUP2 SWAP1 POP SWAP3 SWAP2 POP POP JUMP JUMPDEST PUSH0 DUP2 SWAP1 POP SWAP2 SWAP1 POP JUMP JUMPDEST PUSH0 DUP2 SWAP1 POP SWAP3 SWAP2 POP POP JUMP JUMPDEST PUSH2 0x1852 DUP2 PUSH2 0x177D JUMP JUMPDEST PUSH2 0x185C DUP2 DUP5 PUSH2 0x183F JUMP JUMPDEST SWAP3 POP PUSH2 0x1867 DUP3 PUSH2 0x1791 JUMP JUMPDEST DUP1 PUSH0 JUMPDEST DUP4 DUP2 LT ISZERO PUSH2 0x1897 JUMPI DUP2 MLOAD PUSH2 0x187E DUP8 DUP3 PUSH2 0x17A9 JUMP JUMPDEST SWAP7 POP PUSH2 0x1889 DUP4 PUSH2 0x17C0 JUMP JUMPDEST SWAP3 POP POP PUSH1 0x1 DUP2 ADD SWAP1 POP PUSH2 0x186A JUMP JUMPDEST POP POP POP POP POP POP JUMP JUMPDEST PUSH0 PUSH2 0x18AA DUP4 DUP4 PUSH2 0x1849 JUMP JUMPDEST PUSH1 0x40 DUP4 ADD SWAP1 POP SWAP3 SWAP2 POP POP JUMP JUMPDEST PUSH0 PUSH1 0x20 DUP3 ADD SWAP1 POP SWAP2 SWAP1 POP JUMP JUMPDEST PUSH2 0x18CB DUP2 PUSH2 0x1822 JUMP JUMPDEST PUSH2 0x18D5 DUP2 DUP5 PUSH2 0x182C JUMP JUMPDEST SWAP3 POP PUSH2 0x18E0 DUP3 PUSH2 0x1836 JUMP JUMPDEST DUP1 PUSH0 JUMPDEST DUP4 DUP2 LT ISZERO PUSH2 0x1910 JUMPI DUP2 MLOAD PUSH2 0x18F7 DUP8 DUP3 PUSH2 0x189F JUMP JUMPDEST SWAP7 POP PUSH2 0x1902 DUP4 PUSH2 0x18B6 JUMP JUMPDEST SWAP3 POP POP PUSH1 0x1 DUP2 ADD SWAP1 POP PUSH2 0x18E3 JUMP JUMPDEST POP POP POP POP POP POP JUMP JUMPDEST PUSH0 PUSH1 0x5 SWAP1 POP SWAP2 SWAP1 POP JUMP JUMPDEST PUSH0 DUP2 SWAP1 POP SWAP3 SWAP2 POP POP JUMP JUMPDEST PUSH0 DUP2 SWAP1 POP SWAP2 SWAP1 POP JUMP JUMPDEST PUSH0 PUSH1 0x20 DUP3 ADD SWAP1 POP SWAP2 SWAP1 POP JUMP JUMPDEST PUSH2 0x194A DUP2 PUSH2 0x1918 JUMP JUMPDEST PUSH2 0x1954 DUP2 DUP5 PUSH2 0x1922 JUMP JUMPDEST SWAP3 POP PUSH2 0x195F DUP3 PUSH2 0x192C JUMP JUMPDEST DUP1 PUSH0 JUMPDEST DUP4 DUP2 LT ISZERO PUSH2 0x198F JUMPI DUP2 MLOAD PUSH2 0x1976 DUP8 DUP3 PUSH2 0x17A9 JUMP JUMPDEST SWAP7 POP PUSH2 0x1981 DUP4 PUSH2 0x1935 JUMP JUMPDEST SWAP3 POP POP PUSH1 0x1 DUP2 ADD SWAP1 POP PUSH2 0x1962 JUMP JUMPDEST POP POP POP POP POP POP JUMP JUMPDEST PUSH0 PUSH2 0x1A0 DUP3 ADD SWAP1 POP PUSH2 0x19AB PUSH0 DUP4 ADD DUP8 PUSH2 0x17CC JUMP JUMPDEST PUSH2 0x19B8 PUSH1 0x40 DUP4 ADD DUP7 PUSH2 0x18C2 JUMP JUMPDEST PUSH2 0x19C5 PUSH1 0xC0 DUP4 ADD DUP6 PUSH2 0x17CC JUMP JUMPDEST PUSH2 0x19D3 PUSH2 0x100 DUP4 ADD DUP5 PUSH2 0x1941 JUMP JUMPDEST SWAP6 SWAP5 POP POP POP POP POP JUMP JUMPDEST PUSH2 0x19E5 DUP2 PUSH2 0x1171 JUMP JUMPDEST DUP2 EQ PUSH2 0x19EF JUMPI PUSH0 DUP1 REVERT JUMPDEST POP JUMP JUMPDEST PUSH0 DUP2 MLOAD SWAP1 POP PUSH2 0x1A00 DUP2 PUSH2 0x19DC JUMP JUMPDEST SWAP3 SWAP2 POP POP JUMP JUMPDEST PUSH0 PUSH1 0x20 DUP3 DUP5 SUB SLT ISZERO PUSH2 0x1A1B JUMPI PUSH2 0x1A1A PUSH2 0x1002 JUMP JUMPDEST JUMPDEST PUSH0 PUSH2 0x1A28 DUP5 DUP3 DUP6 ADD PUSH2 0x19F2 JUMP JUMPDEST SWAP2 POP POP SWAP3 SWAP2 POP POP JUMP JUMPDEST PUSH32 0x4E487B7100000000000000000000000000000000000000000000000000000000 PUSH0 MSTORE PUSH1 0x21 PUSH1 0x4 MSTORE PUSH1 0x24 PUSH0 REVERT JUMPDEST PUSH0 DUP2 SWAP1 POP SWAP3 SWAP2 POP POP JUMP JUMPDEST PUSH32 0x72697363302E52656365697074436C61696D0000000000000000000000000000 PUSH0 DUP3 ADD MSTORE POP JUMP JUMPDEST PUSH0 PUSH2 0x1A9C PUSH1 0x12 DUP4 PUSH2 0x1A5E JUMP JUMPDEST SWAP2 POP PUSH2 0x1AA7 DUP3 PUSH2 0x1A68 JUMP JUMPDEST PUSH1 0x12 DUP3 ADD SWAP1 POP SWAP2 SWAP1 POP JUMP JUMPDEST PUSH0 PUSH2 0x1ABC DUP3 PUSH2 0x1A90 JUMP JUMPDEST SWAP2 POP DUP2 SWAP1 POP SWAP2 SWAP1 POP JUMP JUMPDEST PUSH0 DUP2 MLOAD SWAP1 POP PUSH2 0x1AD4 DUP2 PUSH2 0x1254 JUMP JUMPDEST SWAP3 SWAP2 POP POP JUMP JUMPDEST PUSH0 PUSH1 0x20 DUP3 DUP5 SUB SLT ISZERO PUSH2 0x1AEF JUMPI PUSH2 0x1AEE PUSH2 0x1002 JUMP JUMPDEST JUMPDEST PUSH0 PUSH2 0x1AFC DUP5 DUP3 DUP6 ADD PUSH2 0x1AC6 JUMP JUMPDEST SWAP2 POP POP SWAP3 SWAP2 POP POP JUMP JUMPDEST PUSH0 DUP2 SWAP1 POP SWAP2 SWAP1 POP JUMP JUMPDEST PUSH2 0x1B1F PUSH2 0x1B1A DUP3 PUSH2 0x1073 JUMP JUMPDEST PUSH2 0x1B05 JUMP JUMPDEST DUP3 MSTORE POP POP JUMP JUMPDEST PUSH0 PUSH4 0xFFFFFFFF DUP3 AND SWAP1 POP SWAP2 SWAP1 POP JUMP JUMPDEST PUSH0 DUP2 PUSH1 0xE0 SHL SWAP1 POP SWAP2 SWAP1 POP JUMP JUMPDEST PUSH0 PUSH2 0x1B4A DUP3 PUSH2 0x1B34 JUMP JUMPDEST SWAP1 POP SWAP2 SWAP1 POP JUMP JUMPDEST PUSH2 0x1B62 PUSH2 0x1B5D DUP3 PUSH2 0x1B25 JUMP JUMPDEST PUSH2 0x1B40 JUMP JUMPDEST DUP3 MSTORE POP POP JUMP JUMPDEST PUSH0 PUSH2 0xFFFF DUP3 AND SWAP1 POP SWAP2 SWAP1 POP JUMP JUMPDEST PUSH0 DUP2 PUSH1 0xF0 SHL SWAP1 POP SWAP2 SWAP1 POP JUMP JUMPDEST PUSH0 PUSH2 0x1B8B DUP3 PUSH2 0x1B75 JUMP JUMPDEST SWAP1 POP SWAP2 SWAP1 POP JUMP JUMPDEST PUSH2 0x1BA3 PUSH2 0x1B9E DUP3 PUSH2 0x1B68 JUMP JUMPDEST PUSH2 0x1B81 JUMP JUMPDEST DUP3 MSTORE POP POP JUMP JUMPDEST PUSH0 PUSH2 0x1BB4 DUP3 DUP12 PUSH2 0x1B0E JUMP JUMPDEST PUSH1 0x20 DUP3 ADD SWAP2 POP PUSH2 0x1BC4 DUP3 DUP11 PUSH2 0x1B0E JUMP JUMPDEST PUSH1 0x20 DUP3 ADD SWAP2 POP PUSH2 0x1BD4 DUP3 DUP10 PUSH2 0x1B0E JUMP JUMPDEST PUSH1 0x20 DUP3 ADD SWAP2 POP PUSH2 0x1BE4 DUP3 DUP9 PUSH2 0x1B0E JUMP JUMPDEST PUSH1 0x20 DUP3 ADD SWAP2 POP PUSH2 0x1BF4 DUP3 DUP8 PUSH2 0x1B0E JUMP JUMPDEST PUSH1 0x20 DUP3 ADD SWAP2 POP PUSH2 0x1C04 DUP3 DUP7 PUSH2 0x1B51 JUMP JUMPDEST PUSH1 0x4 DUP3 ADD SWAP2 POP PUSH2 0x1C14 DUP3 DUP6 PUSH2 0x1B51 JUMP JUMPDEST PUSH1 0x4 DUP3 ADD SWAP2 POP PUSH2 0x1C24 DUP3 DUP5 PUSH2 0x1B92 JUMP JUMPDEST PUSH1 0x2 DUP3 ADD SWAP2 POP DUP2 SWAP1 POP SWAP10 SWAP9 POP POP POP POP POP POP POP POP POP JUMP JUMPDEST PUSH0 DUP2 MLOAD SWAP1 POP SWAP2 SWAP1 POP JUMP JUMPDEST PUSH0 PUSH2 0x1C4E DUP3 PUSH2 0x1C3A JUMP JUMPDEST PUSH2 0x1C58 DUP2 DUP6 PUSH2 0x1A5E JUMP JUMPDEST SWAP4 POP PUSH2 0x1C68 DUP2 DUP6 PUSH1 0x20 DUP7 ADD PUSH2 0x1309 JUMP JUMPDEST DUP1 DUP5 ADD SWAP2 POP POP SWAP3 SWAP2 POP POP JUMP JUMPDEST PUSH0 PUSH2 0x1C7F DUP3 DUP5 PUSH2 0x1C44 JUMP JUMPDEST SWAP2 POP DUP2 SWAP1 POP SWAP3 SWAP2 POP POP JUMP JUMPDEST PUSH32 0x72697363302E4F75747075740000000000000000000000000000000000000000 PUSH0 DUP3 ADD MSTORE POP JUMP JUMPDEST PUSH0 PUSH2 0x1CBE PUSH1 0xC DUP4 PUSH2 0x1A5E JUMP JUMPDEST SWAP2 POP PUSH2 0x1CC9 DUP3 PUSH2 0x1C8A JUMP JUMPDEST PUSH1 0xC DUP3 ADD SWAP1 POP SWAP2 SWAP1 POP JUMP JUMPDEST PUSH0 PUSH2 0x1CDE DUP3 PUSH2 0x1CB2 JUMP JUMPDEST SWAP2 POP DUP2 SWAP1 POP SWAP2 SWAP1 POP JUMP JUMPDEST PUSH0 PUSH2 0x1CF3 DUP3 DUP8 PUSH2 0x1B0E JUMP JUMPDEST PUSH1 0x20 DUP3 ADD SWAP2 POP PUSH2 0x1D03 DUP3 DUP7 PUSH2 0x1B0E JUMP JUMPDEST PUSH1 0x20 DUP3 ADD SWAP2 POP PUSH2 0x1D13 DUP3 DUP6 PUSH2 0x1B0E JUMP JUMPDEST PUSH1 0x20 DUP3 ADD SWAP2 POP PUSH2 0x1D23 DUP3 DUP5 PUSH2 0x1B92 JUMP JUMPDEST PUSH1 0x2 DUP3 ADD SWAP2 POP DUP2 SWAP1 POP SWAP6 SWAP5 POP POP POP POP POP JUMP INVALID LOG2 PUSH5 0x6970667358 0x22 SLT KECCAK256 0xC8 ADD DUP1 SHL 0x5D LT PUSH16 0x4E576670FC979AB19437AD73CB6D8B6D CODECOPY 0xB2 ISZERO 0xA8 PUSH21 0x2CA52DB64736F6C63430008140033000000000000 "
		},
		"gasEstimates": {
			"creation": {
				"codeDepositCost": "1506200",
				"executionCost": "infinite",
				"totalCost": "infinite"
			},
			"external": {
				"BN254_CONTROL_ID()": "infinite",
				"CONTROL_ROOT_0()": "infinite",
				"CONTROL_ROOT_1()": "infinite",
				"SELECTOR()": "infinite",
				"VERSION()": "infinite",
				"verify(bytes,bytes32,bytes32)": "infinite",
				"verifyIntegrity((bytes,bytes32))": "infinite",
				"verifyProof(uint256[2],uint256[2][2],uint256[2],uint256[5])": "infinite"
			},
			"internal": {
				"_verifyIntegrity(bytes calldata,bytes32)": "infinite",
				"splitDigest(bytes32)": "326",
				"verifier_key_digest()": "infinite"
			}
		},
		"methodIdentifiers": {
			"BN254_CONTROL_ID()": "258038e2",
			"CONTROL_ROOT_0()": "9181e4b1",
			"CONTROL_ROOT_1()": "8989fa2e",
			"SELECTOR()": "053c238d",
			"VERSION()": "ffa1ad74",
			"verify(bytes,bytes32,bytes32)": "ab750e75",
			"verifyIntegrity((bytes,bytes32))": "1599ead5",
			"verifyProof(uint256[2],uint256[2][2],uint256[2],uint256[5])": "34baeab9"
		}
	},
	"abi": [
		{
			"inputs": [
				{
					"internalType": "bytes32",
					"name": "control_root",
					"type": "bytes32"
				},
				{
					"internalType": "bytes32",
					"name": "bn254_control_id",
					"type": "bytes32"
				}
			],
			"stateMutability": "nonpayable",
			"type": "constructor"
		},
		{
			"inputs": [
				{
					"internalType": "uint8",
					"name": "bits",
					"type": "uint8"
				},
				{
					"internalType": "uint256",
					"name": "value",
					"type": "uint256"
				}
			],
			"name": "SafeCastOverflowedUintDowncast",
			"type": "error"
		},
		{
			"inputs": [
				{
					"internalType": "bytes4",
					"name": "received",
					"type": "bytes4"
				},
				{
					"internalType": "bytes4",
					"name": "expected",
					"type": "bytes4"
				}
			],
			"name": "SelectorMismatch",
			"type": "error"
		},
		{
			"inputs": [],
			"name": "VerificationFailed",
			"type": "error"
		},
		{
			"inputs": [],
			"name": "BN254_CONTROL_ID",
			"outputs": [
				{
					"internalType": "bytes32",
					"name": "",
					"type": "bytes32"
				}
			],
			"stateMutability": "view",
			"type": "function"
		},
		{
			"inputs": [],
			"name": "CONTROL_ROOT_0",
			"outputs": [
				{
					"internalType": "bytes16",
					"name": "",
					"type": "bytes16"
				}
			],
			"stateMutability": "view",
			"type": "function"
		},
		{
			"inputs": [],
			"name": "CONTROL_ROOT_1",
			"outputs": [
				{
					"internalType": "bytes16",
					"name": "",
					"type": "bytes16"
				}
			],
			"stateMutability": "view",
			"type": "function"
		},
		{
			"inputs": [],
			"name": "SELECTOR",
			"outputs": [
				{
					"internalType": "bytes4",
					"name": "",
					"type": "bytes4"
				}
			],
			"stateMutability": "view",
			"type": "function"
		},
		{
			"inputs": [],
			"name": "VERSION",
			"outputs": [
				{
					"internalType": "string",
					"name": "",
					"type": "string"
				}
			],
			"stateMutability": "view",
			"type": "function"
		},
		{
			"inputs": [
				{
					"internalType": "bytes",
					"name": "seal",
					"type": "bytes"
				},
				{
					"internalType": "bytes32",
					"name": "imageId",
					"type": "bytes32"
				},
				{
					"internalType": "bytes32",
					"name": "journalDigest",
					"type": "bytes32"
				}
			],
			"name": "verify",
			"outputs": [],
			"stateMutability": "view",
			"type": "function"
		},
		{
			"inputs": [
				{
					"components": [
						{
							"internalType": "bytes",
							"name": "seal",
							"type": "bytes"
						},
						{
							"internalType": "bytes32",
							"name": "claimDigest",
							"type": "bytes32"
						}
					],
					"internalType": "struct Receipt",
					"name": "receipt",
					"type": "tuple"
				}
			],
			"name": "verifyIntegrity",
			"outputs": [],
			"stateMutability": "view",
			"type": "function"
		},
		{
			"inputs": [
				{
					"internalType": "uint256[2]",
					"name": "_pA",
					"type": "uint256[2]"
				},
				{
					"internalType": "uint256[2][2]",
					"name": "_pB",
					"type": "uint256[2][2]"
				},
				{
					"internalType": "uint256[2]",
					"name": "_pC",
					"type": "uint256[2]"
				},
				{
					"internalType": "uint256[5]",
					"name": "_pubSignals",
					"type": "uint256[5]"
				}
			],
			"name": "verifyProof",
			"outputs": [
				{
					"internalType": "bool",
					"name": "",
					"type": "bool"
				}
			],
			"stateMutability": "view",
			"type": "function"
		}
	]
}